:100000000C94D9020C94F6020C94F6020C94F602AD
:100010000C94F6020C94F6020C94F6020C94F60280
:100020000C94F6020C94F6020C9497150C94D314CD
:100030000C947C160C94F6020C94F6020C94F602C6
:100040000C94F6020C94F6020C94F6020C94F60250
:100050000C94F6020C94D31C0C94F6020C94F60249
:100060000C94F6020C94F6020C94F6020C94F60230
:100070000C94F6020C94F6020C94F6020C94F60220
:100080000C94F6020C94F6020C94F6020C94F60210
:100090000C94F6020C94F6020C94F6020C94F60200
:1000A0000C94F6020C94F6020C94F602D205D205DA
:1000B00010061006590664080B08640879066507DF
:1000C00077077707D00AD30AD60AD90ADC0ADF0AEB
:1000D000E20A7B0F800F8A0F7E0F830F880F860F37
:1000E000E4120B13AB140B13AB1453137613AB14B2
:1000F00074148714101F101F231F231F191F231F81
:10010000231F231F101F101F1E1F231F231F1E1F0F
:1001100029002B002A00D75C010000001E001400FB
:1001200004001D00010001001F001A0016001B0042
:10013000010001002000080007000600040401512E
:100140002100150009001900E3000100220017003A
:100150000A0005000000010001000100000001008C
:10016000000001000100010000000100000001008A
:1001700023001C000B0011000000010024001800E7
:100180000D0010000251010025000C000E00360089
:100190004E002C00260012000F0037000100010065
:1001A0002700130034003800010001002E002D004C
:1001B0002800D85C0100000029002B012A087300E8
:1001C000010000001E08140802510408010001008B
:1001D0001F081A0816080708010001002008290056
:1001E00006083A00010001002108150819081D0839
:1001F00001000100220817081B081C08000001006C
:1002000001000100000001000000010001000100E8
:10021000000001000000010033001C014C002A0016
:10022000000001003102500850000908E7000100F9
:100230003302520051000A0A4B002C0026014F08DD
:100240004F000A0801000100270135023500310086
:10025000010001006F0070007100720001000000D9
:10026000A900AA00A8000100010000001E0C010066
:1002700001001A5C010001001F0C010001000100D7
:10028000010001003C0001002F002F023900E300B3
:100290003D00150A300030022C0401003E003B00F6
:1002A0002B00180100000100010001000000010006
:1002B0000000010001000100000001000000010039
:1002C0003F000E0A6D006E00000001004000500A61
:1002D000500204090100010041005202510250067F
:1002E0000100010042004F0A4F024F0601000100C9
:1002F00043004400450068000100010069006A00F5
:100300006B006C0001000000000000000000000015
:1003100000000000000000000000000000000000DD
:1003200000000000000000000000000000000000CD
:1003300000000000000000000000000000000000BD
:1003400000000000000000000000000000000000AD
:10035000000000000000000000000000000000009D
:10036000000000000000000000000000000000008D
:10037000000000000000000000000000000000007D
:10038000000000000000000000000000000000006D
:10039000000000000000000000000000000000005D
:1003A0000000000000000000000101010101010047
:1003B0000101010100000000000000000000000039
:1003C0000000010001000101010101010101010121
:1003D000010101010101010101010101010101010D
:1003E0000101010000000101000000000000000008
:1003F00000000000000000000000000000000000FD
:1004000000000001010101000000000000000000E8
:100410002A2B28000000000000000000000000005F
:1004200000000029000000002C1E3420212224346A
:100430002627252E362D3738271E1F20212223243C
:1004400025263333362E37381F0405060708090AD8
:100450000B0C0D0E0F101112131415161718191A74
:100460001B1C1D2F3130232D350405060708090AF2
:100470000B0C0D0E0F101112131415161718191A54
:100480001B1C1D2F3130354C05010980A10185034E
:100490001A81002A830016010026030095017510B9
:1004A0008100C0050C0901A10185041A01002A9CE4
:1004B00002160100269C02950175108100C00501FD
:1004C0000906A1018505050719E029E715002501A1
:1004D0009508750181020507190029EF150025010E
:1004E00095F0750181020508190129059505750129
:1004F0009102950175039101C005010906A101054D
:100500000719E029E7150025019508750181029575
:1005100001750881010507190029FF150026FF0054
:1005200095067508810005081901290595057501CD
:100530009102950175039101C009023B000201007F
:10054000A0FA0904000001030101000921110100C2
:10055000012240000705810308000A090401000187
:10056000030000000921110100012271000705822A
:100570000320000A1201100100000008EDFE07131D
:1005800001000102030104033000000016034500CE
:10059000720067006F0064006F0078002000450063
:1005A0005A00000008035A005300410000000403F1
:1005B000090411241FBECFEFDAE0DEBFCDBF11E08A
:1005C000A0E0B1E0ECEEFBE402C005900D92A43C8B
:1005D000B107D9F722E0A4ECB1E001C01D92A43F1D
:1005E000B207E1F70E94231D0C94F4250C9400003F
:1005F0008F929F92AF92BF92CF92DF92EF92FF9233
:100600000F931F93CF93DF93CDB7DEB760970FB6ED
:10061000F894DEBF0FBECDBFFC01F0801181838155
:100620009481892B09F4FBC61F3F21F40FEFF016CC
:1006300009F4F5C66F0185E0DE01199601900D926F
:100640008A95E1F7F601228189859A85222349F06E
:100650000E94D917082F682F89859A850E94521801
:1006600003C00E942518082F26E0129FF0011124D4
:1006700034E5039FE00DF11D1124EF0DF11DEE0F88
:10068000FF1FE05FFE4F0591149102308DE51807C2
:1006900009F040C0F60182818823E1F19091BB020C
:1006A00081E0890F8770987F853020F4892B8093B3
:1006B000BB0202C09093BB028091BB028770FFEF28
:1006C0008F9FC001112495958795959587959927BA
:1006D000909389008093880090938B0080938A0088
:1006E00090938D0080938C004091BB025091BC028E
:1006F0006091BD027091BE028FE090E00E94A62141
:100700006091A3027091A4028091A5029091A6022B
:100710000E941C0FF6018281882319F1033EFCE53B
:100720001F07C1F050F4013E3CE5130781F0023E83
:100730008CE51807B1F481E010C0043E9CE5190770
:1007400059F0053EECE51E0761F484E006C0109206
:10075000B70205C082E001C083E08093B7020E9427
:10076000410C17FF6DC0F6018281882309F468C02F
:100770008091AA028093C4011092AA028091B702CC
:10078000813071F048F08230A1F08430C1F486EEFF
:100790000E94B72088E111C082EE0E94A61F0FC000
:1007A00088E193E00E94D60E88E193E00E94C00E9B
:1007B00006C082EE0E94A61F87E50E94B7208FE345
:1007C0009CE90197F1F700C000007801E894F7F880
:1007D0005CE0A52EB12CC7010A2C02C09695879526
:1007E0000A94E2F7282F2F7041F0822F90E02A30F0
:1007F00010F44D9604C0069702C087E290E00E9474
:10080000B72094E0A91AB108ECEFAE16EFEFBE06E0
:1008100011F78091B702813039F040F0823031F029
:10082000843051F488E206C08CE204C082EE0E945B
:100830004A1F02C00E94B7208091C4018093AA027F
:10084000F6018281882309F4D3C00436110509F426
:10085000B6C090F40B32110509F4B1C0C8010C32D6
:10086000110528F40497849708F0C2C0A8C08D979A
:100870000C9708F0BDC0A3C00931FCE51F0739F192
:1008800078F407313CE51307C1F008318CE518070F
:1008900009F0AEC08091070190910801059712C040
:1008A0000B319CE5190709F481C008F47BC00C31B9
:1008B000FCE51F0709F47EC09BC080910701909161
:1008C00008010596909308018093070194C08091D8
:1008D00008018F93809107018F9386E191E09F93A8
:1008E0008F931F9288E08F939E012F5F3F4F790176
:1008F0003F932F930E940F230FB6F894DEBF0FBED5
:10090000CDBFF7012081222309F475C0C7010196EC
:100910005C01213031F4F1808F2D0E94A61F8F2DB4
:100920000CC0223031F4F70181810E94A61F7501AD
:1009300035C0233029F4F70181810E944A1FF7CF87
:1009400030E0F901E85FFB4F9490F901E857FC4F64
:10095000E491BB24B394E11101C0B12CF901E85F2B
:10096000FC4F2491AA24A394211101C0A12CBB20E7
:1009700019F081EE0E94A61FAA2019F086EE0E94AF
:10098000A61F892D0E94B720AA2019F086EE0E948A
:100990004A1FBB2019F081EE0E944A1FFFEFEF1A99
:1009A000FF0AAFCF80910601811104C081E08093DE
:1009B000060121C0109206010E94EC0E1CC00E948C
:1009C000EC0E80910601882309F46AC08091AA0286
:1009D000811166C00E9470169093C8018093C70170
:1009E0001093C6010093C50182E00E94B31817C599
:1009F0000E94EC0E55C0F6018281882351F11092BD
:100A0000C9010631FCE51F0749F160F401303CE5FE
:100A1000130709F4D0C308F0E9C301151C4509F414
:100A20008DC37EC00E3DECE51E0709F4CDC350F426
:100A30000C3D2CE5120709F4CAC30D3D1C4509F411
:100A4000C9C36EC0C8018A5F9C45079708F4CEC32E
:100A500067C00631FCE51F0709F058C39091AA0250
:100A6000882381F09A7A81E009F480E08093CA01BA
:100A7000811102C069E201C065E382E192E00E9457
:100A8000D0160BC08091CA01811102C069E201C079
:100A900065E382E192E00E94A5160E949317BFC40D
:100AA000033FFCE51F0739F426E241EE60EEC60184
:100AB0000E949010B4C4043F2CE51207C0F4083D16
:100AC0003CE5130721F427E245EE65EEF0CF093D42
:100AD0008CE5180719F428E241E0F7CF073D9CE5C3
:100AE000190709F088CF26E241EE61EEE0CF053F1D
:100AF000ECE51E0721F426E241EE62EED8CF053F79
:100B0000FCE51F0720F427E245EE64EED0CF063F58
:100B10002CE5120709F06FCF27E245EE66EEC7CF4E
:100B2000F60100811181C8010E94D917F82E682FA3
:100B3000C8010E945218B8018F2D0E94470C182F2F
:100B4000382FF601258122952F7002810111109214
:100B5000A9028091A7028770A9F0002399F080E292
:100B6000810F883078F082E02F87388B9E870E9433
:100B7000B3188091A7028770EE24E3942F853889FB
:100B80009E858111E12CA92EA2944FE0A422B12CC4
:100B9000FCE0AF16B10408F097C2F501EA5AFF4F26
:100BA0000C94DC21892F807F9F70F92E882319F007
:100BB000F29480EFF8220023B9F0FF2009F415C267
:100BC00080E2810F883010F0311106C09091AA02A6
:100BD000F92AF092AA0205C09091A902F92AF0928E
:100BE000A9020E94931701C2812F388B0E944A1FCD
:100BF0003889FF2009F468C2105EF094183010F0B4
:100C0000311106C09091AA02F922F092AA0205C001
:100C10009091A902F922F092A9020E94931754C25E
:100C2000492F407F892F8F70403211F08295807F4D
:100C3000332319F03130E9F025C0002381F03091E1
:100C4000AB02222351F0213041F4982F932B391716
:100C500009F43AC29093AB0237C2832B17C0222308
:100C600019F0213009F430C28E870E948D178E85CD
:100C70001DC0002321F0223008F026C207C0211138
:100C800023C214C0002329F02111AFC10E94F61E17
:100C90001BC2222359F0193309F0B9C10FEF27EE17
:100CA00033E0015020403040E1F7AFC10E94EB1E1D
:100CB0000BC2292F26952695237030E0211531058A
:100CC00021F02130310559F0FFC1002319F0812FA7
:100CD000937002C080E090E00E941F0CFEC10023D0
:100CE00019F0812F937002C080E090E00E94090CFF
:100CF000F4C1892F837009F070C00111ECC1812FFC
:100D0000829586958770880F880F412F4F7050E02D
:100D100060E070E04A015B01082E04C0880C991C59
:100D2000AA1CBB1C0A94D2F714FF12C00FE010E0FB
:100D300020E030E004C0000F111F221F331F8A95EE
:100D4000D2F7B901A801409550956095709503C000
:100D500040E050E0BA01969596959370892F90E007
:100D60008230910529F183309105C9F00091AC02E0
:100D70001091AD022091AE023091AF02019759F06F
:100D8000482959296A297B29CB01BA01602371239B
:100D9000822393230AC0802A912AA22AB32ACB0154
:100DA000BA01682979298A299B290E94ED1893C1E3
:100DB000482959296A297B298091AC029091AD027A
:100DC000A091AE02B091AF028A019B0108271927BA
:100DD0002A273B27C901B801E8CF002319F0892F42
:100DE000817001C08695882309F475C1812F829591
:100DF00086958770880F880F412F4F7050E060E014
:100E000070E04A015B01082E04C0880C991CAA1CE2
:100E1000BB1C0A94D2F714FF12C00FE010E020E0D0
:100E200030E004C0000F111F221F331F8A95D2F734
:100E3000B901A801409550956095709503C040E0B8
:100E400050E0BA01969596959370892F90E0823084
:100E50009105E9F08330910579F10091A302109199
:100E6000A4022091A5023091A602019759F04829C9
:100E700059296A297B29CB01BA0160237123822376
:100E8000932320C0802A912AA22AB32A15C0482978
:100E900059296A297B298091A3029091A402A091EB
:100EA000A502B091A6028A019B01082719272A27CB
:100EB0003B27C901B80106C0CB01BA0168297929CD
:100EC0008A299B290E94821806C19F70F92E00234F
:100ED00039F0892F0E94CC18812F0E94F61EFBC08A
:100EE000812F0E94EB1E8F2D0E948E18F4C0812F3F
:100EF000323FC9F128F4303F49F0313F79F170C0F9
:100F0000333FC1F1343F09F44DC06AC0002311F1F1
:100F10002111DAC0292F2F7181E090E0A0E0B0E02C
:100F2000AC01BD0104C0440F551F661F771F2A95F1
:100F3000D2F78091A3029091A402A091A502B09152
:100F4000A6028A019B01082719272A273B27C901E6
:100F5000B80125C0223008F0B7C0DCCF002329F04B
:100F6000892F8F712EC00023D9F3892F8F710E9492
:100F70008E18AAC0002381F0292F2F7181E090E004
:100F8000A0E0B0E0BC01CD0104C0660F771F881F50
:100F9000991F2A95D2F703C060E070E0CB010E9450
:100FA000821892C0002381F0192F1F71812F0E9497
:100FB000CC1828E0129FC001112483608093A702FF
:100FC000812F0E94CC1880C081E02F870E94B31827
:100FD0002F85223008F478C082E00E94B31874C0D4
:100FE000002339F0222309F4BBCF812F0E94A61FD2
:100FF0006BC0222309F4B9CF893349F43FEF87EE60
:1010000093E0315080409040E1F700C00000812F14
:101010000E944A1F59C0323FB1F028F4303F49F0D6
:10102000313FF9F028C0343FB9F058F0353F71F046
:1010300022C0002309F451C09091330281E0892736
:1010400008C081E008270093330247C0011145C062
:1010500081E08093330241C001113FC010923302FE
:101060003CC0002329F080913202882329F329C053
:10107000222311F332C0809132022223C1F088234F
:1010800041F09091330281E08927809333021092DE
:101090003202812F002319F00E94A61F1EC00E9459
:1010A0004A1F86E0F60111928A95E9F716C0882357
:1010B000A1F0011112C09091330281E08927809341
:1010C00033021092320209C0F8E0AF1AB10804E00E
:1010D000A016B10410F40E94350CEE2009F49FC153
:1010E0008091A70280FD9BC1F601128285958595AE
:1010F00085950E94CC18C6010E94F8028091A70233
:101100008595859585950E948E1889C107312CE5B6
:10111000120750F401153CE5130708F45FC00230D4
:101120001C4508F47CC15AC00C3D9CE5190708F425
:1011300055C00F3D1C4508F472C150C00E94351FB8
:10114000FFEF04E31CE0F15000401040E1F700C065
:101150000000F89481E08093E00080E28093D80062
:101160001092C9008FE19EE40197F1F700C00000E2
:101170001DBA109268001CBC10BE1FBA10927A00F3
:1011800010926E0010926F00109271001092720017
:101190001092C9001092BC0014B817B81AB81DB844
:1011A00010BA1092BC0015B818B81BB81EB811BA06
:1011B0000C94003F34C18091E102982F909590FBF0
:1011C00080F98093E1022BC10E94191728C1109267
:1011D000B40225C182E08093B40221C1F6010081EE
:1011E0001181C8010E942518F82EA5CC80E090E05E
:1011F0000E948E218F3E9E4F11F00E9419170E946F
:1012000008179093CE028093CD020F308CE518071B
:1012100009F4CFC008F042C00830ECE51E0709F41D
:10122000A8C0F0F404302CE5120709F490C068F46B
:1012300002308CE5180709F486C003301C4509F01C
:10124000DFC08091CD028260D9C00630ECE51E0778
:1012500009F487C008F089C08091CD028860CEC0B3
:101260000B302CE5120709F495C068F409308CE5C1
:10127000180709F482C00A301C4509F0C1C08091EA
:10128000CD02886080C00D30ECE51E0709F486C0F1
:1012900008F087C08091CD028D7FB0C00A3F2CE559
:1012A000120709F457C050F502318CE5180709F40C
:1012B00088C068F40031ECE51E0709F47EC00131F6
:1012C0001C4509F09DC08091CD028F7B97C00431F1
:1012D0002CE5120709F487C008F479C005311C45D4
:1012E00009F08EC08091CD0282FB222720F991E087
:1012F000922790FB82F990FB83F980C00D3F9CE51B
:10130000190709F452C058F40B3FFCE51F0729F1F7
:101310000C3F1C4509F074C08091CE0260C00F3FA5
:101320003CE5130709F458C080F101151D4509F08B
:1013300067C08091CE02982F909591708E7F892BF7
:1013400090FB81F94DC08091CD02816057C08091A2
:10135000CD0219C08091CE021BC08091CE02826066
:101360003FC08091CD02806149C08091CD028062F2
:1013700045C08091CD02806441C00E94351F80919C
:10138000CD0280683BC0846039C08091CE0282600B
:10139000816026C08091CD028E7F30C08091CD02C9
:1013A00019C08091CD02877F29C08091CE028D7FA8
:1013B00017C08091CD028F7E21C08091CD028F7D9C
:1013C0001DC00E94351F8091CD028F7717C080917C
:1013D000CD02877F8B7F12C08091CE028D7F8E7F62
:1013E0008093CE020DC00E94351F8091CD0287FBF5
:1013F000222720F991E0922790FB87F98093CD0274
:101400006091CD021091CE0284E090E00E94942180
:10141000612F81E290E00E9494210E94351F609626
:101420000FB6F894DEBF0FBECDBFDF91CF911F91F5
:101430000F91FF90EF90DF90CF90BF90AF909F9073
:101440008F9008959091CD0292FF0DC0282F2871A2
:10145000283019F4877F846006C0282F2471243037
:1014600011F48B7F886093FF0DC0282F28712831DD
:1014700019F4877E846106C0282F2471243111F469
:101480008B7E88612091CE0220FF0DC0382F3871ED
:10149000383019F4877F816006C0382F31713130C0
:1014A00011F48E7F886021FF0DC0282F287128310C
:1014B00019F4877E816106C0282F2171213111F432
:1014C0008E7E886194FD877E08959C013A95211552
:1014D0003F4138F5DC01AA27B270AC0144275470B3
:1014E0009C012227387094FF0FC090FF02C080E15A
:1014F00001C080E0AB2B09F08062452B09F08064CD
:10150000232B69F080680BC0892F8170AB2B09F009
:101510008260452B09F08460232B09F08860FB0171
:1015200009940895CF93E82F873080F580910A01C0
:1015300090910B01892B09F047C0CE2F64E670E033
:1015400080E40E94D02090930B0180930A01892BA4
:10155000D1F464E670E082E10E94272190930B01B0
:1015600080930A01892B79F481E090E001C0880F13
:10157000CA95EAF764E670E080950E94272190936F
:101580000B0180930A01CF910C947C2190E0FC0127
:101590003797E730F105C0F4EE59FF4F0C94DC218A
:1015A000209A289811C0219A29980EC0229A2A9828
:1015B0000BC0239A2B9808C0529A5A9805C0539A88
:1015C0005B9802C03E9A4698CF910895CF9387309A
:1015D00008F03FC080910A0190910B01892B09F01E
:1015E00041C064E670E080E40E94D02090930B013B
:1015F00080930A01892B11F0C0E027C064E670E0F7
:1016000083E10E94272190930B0180930A01892B8B
:1016100099F764E670E081E40E94D02090930B017A
:1016200080930A01892B41F784E690E00E945721BC
:1016300097FF05C090930B0180930A01DDCFC82F5F
:10164000C09510920B0110920A010E947C218C2FF0
:101650000AC09FB18FB1807F869586959370892B44
:10166000809501C080E0CF910895EF92FF920F9393
:101670001F93CF93DF93CDB7DEB767970FB6F8947C
:10168000DEBF0FBECDBF4B8B5C8B6D8B7E8B8F8B8C
:101690000E891F8901151105C1F15F3F11F44F3FFC
:1016A000A1F1E42EF12CA1E0B0E0042E01C0AA0FBC
:1016B0000A94EAF7852F90E0662319F0209133020F
:1016C00006C09C012B523E4FF90120812A23222380
:1016D000A9F046E0489F9001499F300D1124F70181
:1016E000E20FF31FEE0FFF1FE55EFE4F40815181B9
:1016F000FC01EB52FE4F9081A92B06C0FC01EB527E
:10170000FE4FA0958081A823A08386E0FE013D9630
:10171000DF01982F1D929A95E9F74D875E876F87B5
:10172000198B088BDE01179601900D928A95E1F7CF
:10173000CE0107960E945C19811137C086E0FE0138
:101740003796DE01119601900D928A95E1F7FF819F
:10175000E8856A857B856115710539F1EF3F11F4E4
:10176000FF3F19F120913A0230E0C90101968770DC
:10177000992740916B0250E08417950779F1F9831E
:10178000EA837D836C8396E0929FD001939FB00D96
:101790001124A55CBD4FFE01319601900D929A95E2
:1017A000E1F780933A020E94F71816E080916B02ED
:1017B00090913A02891701F1189FC0011124855CAC
:1017C0009D4F0E945C198823B9F080916B0290E0D4
:1017D00001968770992780936B02E8CF0E94351F8E
:1017E00010923A0210926B02E4E3F2E086E0DF012D
:1017F0001D928A95E9F7D9CF67960FB6F894DEBFA8
:101800000FBECDBFDF91CF911F910F91FF90EF9051
:1018100008952091D3013091D4018217930771F07C
:101820009093D4018093D301E091CF02F091D00244
:10183000309721F00084F185E02D099408952091DE
:10184000D1013091D2018217930771F09093D201A8
:101850008093D101E091CF02F091D002309721F036
:101860000680F781E02D09940895E091CF02F09170
:10187000D002309721F00190F081E02D099480E0B2
:1018800008956091B7028CE090E00C949421CF937E
:10189000DF9326E0729FF001112434E5839FE00D71
:1018A000F11D1124E60FF11DEE0FFF1FE05FFE4F4B
:1018B000C591D491CE01C238D10569F1B0F4C133DC
:1018C000D10509F475C048F4C932D10509F469C0DD
:1018D000CA32D10509F473C079C0C533D10509F402
:1018E00059C0C933D105B9F071C0C33ED10571F1FA
:1018F00038F4C03ED105B1F0C23ED10511F166C049
:10190000C63ED105B9F1C73ED105C9F1C43ED105E6
:1019100009F05CC024C02091CD0220FD29C221FD28
:1019200027C22BC22091CD0220FD1CC22091CE02E5
:1019300020FF23C28091CD0284FDC6C183EE90E0DA
:101940001CC22091CD0222FF18C2F4CF8091CD029B
:1019500082FD0BC28091CE0280FD0AC2EBCF2091A6
:10196000CE0221FF0AC28091CD0284FDADC187EE77
:1019700090E003C22091CD0223FFFFC1F4CF8091FC
:10198000CD0283FDF8C18091CE0281FFECCF84EEC1
:1019900090E0F3C12091CD0225FFEFC189E290E0F4
:1019A000ECC12091CD0225FFE8C185E390E0E5C1BF
:1019B0002091CD0226FFE1C18AE290E0DEC12091B4
:1019C000CD0226FFDAC181E390E0D7C1C11540E521
:1019D000D40708F047C0C11520E4D20708F034C18D
:1019E000C83ED10518F5C03ED10508F0C6C1C83AB9
:1019F000D10570F4C53AD10508F0B1C0C130D105A8
:101A000009F4BBC108F460C1249708F45DC1B5C1F5
:101A1000CF3BD10508F4AEC0C03CD10508F454C199
:101A2000FE01EE0FFF1FE85FFC4F03C1C11530E25E
:101A3000D30760F4C11541E0D40708F09EC1C03F50
:101A4000D10508F441C1CE01906597C1C11580E36D
:101A5000D80708F0F1C0FE01FF70EE0FFF1FE85736
:101A6000FB4FE7C0C11595E5D90708F044C0C11583
:101A700024E5D20708F002C1C11532E5D30710F5FD
:101A8000C11541E5D40708F0E4C08C2F837021E034
:101A900030E002C0220F331F8A95E2F73C68CE0186
:101AA00074E0969587957A95E1F78370382BEC2F43
:101AB000EF70E695E69540E2E49FC0011124822B89
:101AC000932B5BC12C2F26952695AE01437055278D
:101AD000C115D34508F0C3C080E2289F90011124AE
:101AE00081E090E002C0880F991F4A95E2F7822BAF
:101AF000932B9C6842C1C1159AE5D907A8F4C1157A
:101B000029E5D20708F0C9C0C11536E5D30708F4A6
:101B1000BBC0C11548E5D40708F4D6C0FC2FEE279A
:101B2000CF01806F906A29C1C1158BE5D80708F4F1
:101B3000CBC0C1159CE5D90708F4C2C0CE019056B0
:101B40008115904208F0C0C08D2F8F710E94220A2B
:101B5000FE01FF27F0628F719F01382BAFC0C53A9D
:101B6000D10509F4B4C0C63AD10509F0B3C082E882
:101B700090E403C1C83AD10509F4AFC0C93AD10510
:101B800009F4AEC0CA3AD10509F4ADC0CB3AD105CB
:101B900009F4ACC0CC3AD10509F4ABC0CB3BD105BC
:101BA00009F4AAC0CC3BD10509F4A9C0CD3AD105AE
:101BB00009F4A8C0C03BD10509F4A7C0CE3AD105AD
:101BC00009F4A6C0CF3AD10509F4A5C0C13BD1059F
:101BD00009F4A4C0C23BD10509F4A3C0C33BD1059D
:101BE00009F4A2C0C43BD10509F4A1C0C53BD1058D
:101BF00009F4A0C0C63BD10509F49FC0C73BD1057D
:101C000009F49EC0C83BD10509F49DC0C93BD1056C
:101C100009F49CC0CD3BD10509F49BC0CE3BD10556
:101C200009F49AC0CA3BD10509F499C080E094E454
:101C3000A4C085919491A1C0CE019927D3FF02C081
:101C4000986C9BC0906C99C0FE01FF70CF01906AA8
:101C500094C0FC2FEE27CF01816F906A8EC090E276
:101C6000299F9001112481E090E002C0880F991F04
:101C70004A95E2F7822B932B9A687FC0FC2FEE27C0
:101C8000CF01846F906A79C08C2F0E94220A8F71D5
:101C900090E0982F8827906270C08C2F8F700E94E0
:101CA000220AFE0194E0F695E7959A95E1F7EF7028
:101CB000F0E0FE2FEE27F0699F01282BC9015DC0DF
:101CC000CE019927906659C080E090E056C081E827
:101CD00090E453C083E890E450C082EE94E44DC099
:101CE00089EE94E44AC08AEE94E447C085EB94E41C
:101CF00044C086EB94E441C083EB94E43EC084EBA3
:101D000094E43BC087EB94E438C08CEC94E435C099
:101D10008DEC94E432C083E895E42FC08AE895E422
:101D20002CC082E995E429C084E995E426C081E2CB
:101D300096E423C083E296E420C084E296E41DC0CA
:101D400085E296E41AC086E296E417C087E296E43C
:101D500014C08FE694E411C080E794E40EC08AE2D8
:101D600096E40BC089E390E008C082EE90E005C0E5
:101D700080EE90E002C086EE90E0DF91CF91089572
:101D8000CF93DF93EC010E944A1FCE01805E910940
:101D9000089710F0209719F46BEE7EE102C066ED13
:101DA0007EE1CE01DF91CF910C94650ACF93DF9352
:101DB000EC01805E9109089710F0209719F466EF06
:101DC0007EE102C061EE7EE1CE010E94650A8C2FA9
:101DD000DF91CF910C94A61FCF93DF938091C50123
:101DE0009091C601892B29F18091C7019091C8017A
:101DF0000E94F91C2091070130910801281739072A
:101E000060F4C091C501D091C601D260CE010E949C
:101E1000D60ECE010E94C00E04C08091C5010E9462
:101E2000B7201092C8011092C7011092C6011092FB
:101E3000C501DF91CF910895CF92DF92EF92FF928B
:101E40000F931F936C01EE24FF24C114D104E1040D
:101E5000F10411F0E0E103C06B017C01E0E0332705
:101E60002F2D1E2D0D2D011511052105310519F000
:101E7000E85F6801790197018601F4E036952795BE
:101E800017950795FA95D1F701151105210531052B
:101E900019F0EC5F680179019701860152E03695EF
:101EA0002795179507955A95D1F701151105210525
:101EB000310519F0EE5F68017901970186013695C9
:101EC000279517950795012B022B032B09F0EF5F40
:101ED00056985E9825982D9826982E9827982F9892
:101EE0000E2F10E0F8013197E730F105A8F4E7591B
:101EF000FF4F0C94DC21259A2D9A0EC0259A2D9A1D
:101F0000269A2E9A09C0259A2D9A04C0259A2D9AB0
:101F1000269A2E9A279A2F9A1F910F91FF90EF9051
:101F2000DF90CF90089580E290E090930B01809332
:101F30000A018091CE0181110EC00E94CA2081E069
:101F40008093CE012FEF83ED90E3215080409040AD
:101F5000E1F700C0000064E670E080E40E94D02059
:101F600090930B0180930A01892B09F04EC064E61F
:101F700070E080E00E94272190930B0180930A017A
:101F8000892B09F042C064E670E080E00E942721BE
:101F900090930B0180930A01892BB9F564E670E0F8
:101FA0008FE30E94272190930B0180930A01892BD4
:101FB00061F50E947C2164E670E080E40E94D020FC
:101FC00090930B0180930A01892BF9F464E670E089
:101FD0008CE00E94272190930B0180930A01892BAA
:101FE000A1F464E670E080E00E94272190930B0149
:101FF00080930A01892B49F464E670E08FE30E9424
:10200000272190930B0180930A010E947C218091EB
:102010000A010895CF93DF9356985E9825982D98DE
:1020200026982E9827982F98C8E8D0E08FEF90E058
:1020300099838883AAE8B0E011969C938E93ECE88C
:10204000F0E091838083259A2D9A2FEF80E792E02C
:10205000215080409040E1F700C00000269A2E9A5F
:102060002FEF80E792E0215080409040E1F700C0E0
:102070000000279A2F9A2FEF80E792E021508040AE
:102080009040E1F700C0000025982D982FEF80E7E1
:1020900092E0215080409040E1F700C00000269877
:1020A0002E982FEF80E792E0215080409040E1F79A
:1020B00000C0000027982F988091BB0287702FEFF7
:1020C000829FC001112495958795959587959927AD
:1020D0009983888311969C938E93918380835698DD
:1020E0005E9825982D9826982E9827982F98DF91FE
:1020F000CF91089584B1807F84B985B1807F85B9FF
:102100008AB1837F8AB98BB1837F8BB93E98469819
:10211000089580B38C7080BB81B3836F81BB0895B9
:102120000F931F93CF93DF93C62FD42F022FFC0161
:1021300082818823C9F06093C9010E947016909330
:10214000D0018093CF0180E28C0F883008F050C01E
:10215000C77081E001C0880FCA95EAF7DF91CF917F
:102160001F910F910C94F61E1091C901161330C0E7
:102170008091CF019091D0010E94F91C8639910580
:1021800038F5C0E2CD0F1D17B9F080E2810F88301D
:1021900040F4177081E001C0880F1A95EAF70E9499
:1021A000EB1EC83048F481E09D2F977001C0880F66
:1021B0009A95EAF70E94F61E802F0E94B720C83039
:1021C000B8F4D77081E001C0880FDA95EAF70AC049
:1021D00080E28C0F883060F4C77081E001C0880F06
:1021E000CA95EAF7DF91CF911F910F910C94EB1EE6
:1021F000DF91CF911F910F9108959F92AF92BF925F
:10220000CF92DF92EF92FF920F931F93CF93DF93C2
:1022100080910A0190910B01892B91F08091CD0161
:102220008F5F8093CD0181110BC00E94930F90E0CE
:1022300090930B0180930A01892B11F40E940A10DC
:102240000FEB12E026ECE22E22E0F22E6801C0E055
:10225000912C97E0A92EAC0E8C2F0E94920A8A2D09
:102260000E94920A8C2F0E94E60AF601908198172C
:1022700021F08083BB24B39401C0B12C8A2D0E942D
:10228000E60AF7019081981719F0808381E001C078
:1022900080E0B82A9B280E947A10CF5FFFEFCF1A08
:1022A000DF0A8FEFE81AF80AC73099F60E94701615
:1022B0006AEF70E00E94C8219C01682F8091CC01D8
:1022C0008823E9F11092CC01E091B502F091B602B9
:1022D000DF011E9690E07BEF8AEFE82EF12C8081E3
:1022E0008B3FA9F0482F50E0681728F0E901C41B84
:1022F000D50BAE0106C06701C41AD50AA601420F6C
:10230000531F4E31510514F0708301C091E0319696
:10231000EA17FB0721F79093CC01911002C09111AD
:1023200010C01092CB01A091B502B091B60290916D
:10233000CC01E2EDF2E080E03EE03E0F07C09110FC
:10234000F0CF8091CB018111ECCF16C0E80129912B
:102350008E014081421741F04C914B3F21F46C9328
:10236000208391E001C081E0119631963E13EECFBB
:102370009093CC018093CB01892DDF91CF911F9158
:102380000F91FF90EF90DF90CF90BF90AF909F9014
:102390000895CF92DF92FF920F931F93CF93DF9315
:1023A0001F92CDB7DEB7F82E8B0199830E94EA1BEE
:1023B000998181111CC0CF2CD92E01151105B1F0C6
:1023C0008091E80085FD0AC08091E8008E778093B7
:1023D000E8000E94EA1B882381F309C0F60181917D
:1023E0006F018093F10001501109E7CF80E00F9059
:1023F000DF91CF911F910F91FF90DF90CF900895C3
:102400001F93CF93DF93CDB7DEB7AA970FB6F8949B
:10241000DEBF0FBECDBFEAE0F2E088E08E0F909104
:10242000F10091938E13FBCF80910B02833009F45E
:1024300060C030F4813071F0823009F49AC0B1C0CC
:102440008A3009F486C08B3009F46BC0893009F0FA
:10245000A8C020C080910A02813A09F0A2C08091F0
:10246000E800877F8093E80080910E0290910F0230
:10247000892B21F460E286EE91E003C060E080E009
:1024800090E070E00E94701C8091E8008B77809350
:10249000E80087C080910A02813209F082C08091F1
:1024A0000E0290910F02029708F07BC08091E80025
:1024B000877F8093E8008091E80082FD05C08091CD
:1024C00008028111F8CF6DC02091F3008091F200D5
:1024D00090E0922B029729F48091F1008B7F81305C
:1024E00021F48091F1008093E5018091E8008B77E1
:1024F00054C080910A02813A09F053C080910E02C3
:1025000090910F02892B09F04CC08091E800877FE1
:102510008093E8008091E80080FFFCCF8091090162
:1025200037C080910A028132E1F580910E029091CC
:102530000F02892BB1F58091E800877F8093E80036
:102540000E941C1C80910C02809309010E94351F7F
:1025500028C080910A02813221F58091E800877FAE
:102560008093E8000E941C1C80910D028093E4017E
:1025700018C080910A02813AA1F48091E800877F17
:102580008093E8008091E80080FFFCCF8091E40117
:102590008093F1008091E8008E778093E8000E949C
:1025A0001C1C8091E80083FFD6C180910A029091A3
:1025B0000B02492F50E04A30510508F0CCC1FA0116
:1025C000E059FF4F0C94DC21803821F0823809F06B
:1025D000C2C108C08091060290910702992389F038
:1025E00082600FC080910E028F70873008F0B3C1F7
:1025F0008093E9008091EB0085FB882780F9109299
:10260000E9009091E800977F9093E8008093F100B3
:102610001092F10074C1282F2D7F09F09CC18823EE
:1026200019F0823061F097C180910C02813009F07D
:1026300092C1933009F080E0809307022EC0809110
:102640000C0281112AC080910E028F702FEF280F8B
:10265000263008F080C18093E9002091EB0020FF34
:102660001CC0933021F48091EB00806214C09091E3
:10267000EB0090619093EB0021E030E0A90102C0F3
:10268000440F551F8A95E2F74093EA001092EA0042
:102690008091EB0088608093EB001092E9008091BC
:1026A000E800877F2FC1811156C110910C021F775E
:1026B0008091E3008078812B8093E3008091E80093
:1026C000877F8093E8000E941C1C8091E80080FFB7
:1026D000FCCF8091E30080688093E300111102C079
:1026E00082E001C083E08093080235C180588230C7
:1026F00008F031C180910C0290910D028C3D53E0A5
:10270000950779F583E08A838AE289834FB7F89445
:10271000DE01139620E03EE051E2E32FF0E050931B
:102720005700E49120FF03C0E295EF703F5FEF7028
:102730008E2F90E0EA3010F0C79601C0C0968D93BE
:102740009D932F5F243149F74FBF8091E800877F29
:102750008093E8006AE270E0CE0101960E94701C4E
:10276000BDC040910E0250910F02292F3327233014
:102770003105B9F06CF42130310509F4FBC0223089
:10278000310509F0E8C08BE390E0E9E3F5E054C0DF
:102790002132310509F433C02232310509F43CC03D
:1027A000DAC0992781309105D1F05CF4892B09F0CA
:1027B000D2C0EEEAF5E0E4918E2F90E0EEEAF5E08B
:1027C00038C08230910599F0039709F0C4C0E6E85B
:1027D000F5E0E4918E2F90E0E6E8F5E02AC0E4EA27
:1027E000F5E0E4918E2F90E0E4EAF5E022C0ECE819
:1027F000F5E0E4918E2F90E0ECE8F5E01AC0411589
:10280000510509F4BCC04130510509F0A4C089E06C
:1028100090E0E4E6F5E010C04115510509F4B4C0BC
:102820004130510509F097C081E790E0E8E8F4E015
:1028300003C0009709F48FC02091E800277F209300
:10284000E80020911002309111022817390708F48E
:10285000C90140E0009789F120910802222309F480
:102860003DC02530D9F12091E80023FD37C02091EB
:10287000E80022FD2FC02091E80020FFEBCF40911F
:10288000F3002091F20030E0342B009759F028300B
:10289000310540F444914093F100319601972F5F48
:1028A0003F4FF3CF41E02830310509F040E020915F
:1028B000E8002E772093E800CDCF4111CDCF0AC09C
:1028C00080910802882351F0853041F08091E80022
:1028D00083FD04C08091E80082FFF2CF8091E80080
:1028E0008B778093E80037C08038A9F58091E800A5
:1028F000877F8093E800809109028093F1008091A6
:10290000E8008E778093E8000E941C1C24C081118F
:1029100022C010910C021230F0F48091E800877F01
:102920008093E800109309020E941C1C111106C03C
:102930008091E30087FD02C081E001C084E08093C4
:10294000080242E061EC81E00E943B1C42E261EC43
:1029500082E00E943B1C8091E80083FF1AC08091B6
:10296000E800877F8093E8008091EB00806280938D
:10297000EB000FC082E190E0E4E7F5E05DCF89E095
:1029800090E0EBE4F5E058CF80E490E0E9EFF4E08C
:1029900053CFAA960FB6F894DEBF0FBECDBFDF911E
:1029A000CF911F9108951F920F920FB60F9211248D
:1029B0002F933F934F935F936F937F938F939F9347
:1029C000AF93BF93CF93DF93EF93FF93C091E90051
:1029D000CF708091EC00D82FD17080FDD0E810929C
:1029E000E9008091F000877F8093F00078940E9446
:1029F00000121092E9008091F00088608093F0004E
:102A0000CD2BCF70C093E900FF91EF91DF91CF9173
:102A1000BF91AF919F918F917F916F915F914F91F6
:102A20003F912F910F900FBE0F901F901895E8EDDA
:102A3000F0E080818E7F80831092E2001092DA00B5
:102A40001092E100A0EEB0E08C9181608C938081C7
:102A50008F77808319BCA7EDB0E08C918E7F8C932B
:102A600080818F7E80831092E3010895CF92DF9260
:102A7000EF92FF920F931F93CF93DF93C8EDD0E0B7
:102A800088818F7E8883E7EDF0E08081816080839C
:102A900084E082BF81E08093E30188818E7F888318
:102AA00002EE10E0F80110821092DA0081EEC82EDA
:102AB000D12CF601108288818F7788838881806885
:102AC000888388818F7D888319BC109208021092B8
:102AD0000902109207021092060290EEE92EF12CE4
:102AE000F70180818B7F808388818160888342E0C9
:102AF00060E080E00E943B1CF60180818E7F808335
:102B0000F801808181608083808188608083F70103
:102B100080818E7F8083888180618883DF91CF91DF
:102B20001F910F91FF90EF90DF90CF9008951F922B
:102B30000F920FB60F9211242F933F934F935F93F1
:102B40006F937F938F939F93AF93BF93EF93FF9375
:102B50008091E10082FF09C08091E20082FF05C000
:102B60008091E1008B7F8093E1008091DA0080FF0B
:102B70002AC08091D80080FF26C08091DA008E7F25
:102B80008093DA008091D90080FF18C080E189BD70
:102B900082E189BD09B400FEFDCF81E08093080287
:102BA0008091E30181110FC00E9417150E94361514
:102BB0008091E20084608093E20005C019BC10920D
:102BC00008021092E3018091E10080FF17C080911C
:102BD000E20080FF13C08091E2008E7F8093E200CC
:102BE0008091E20080618093E2008091D800806251
:102BF0008093D80019BC85E0809308028091E100A1
:102C000084FF32C08091E20084FF2EC080E189BD44
:102C100082E189BD09B400FEFDCF8091D8008F7D8F
:102C20008093D8008091E1008F7E8093E1008091B5
:102C3000E2008F7E8093E2008091E20081608093C9
:102C4000E20080910902882311F084E007C080919E
:102C5000E30087FD02C081E001C083E080930802A9
:102C60000E94351F0E94350C8091E10083FF27C030
:102C70008091E20083FF23C08091E100877F8093F1
:102C8000E10082E080930802109209028091E10045
:102C90008E7F8093E1008091E2008E7F8093E2003E
:102CA0008091E20080618093E20042E060E080E099
:102CB0000E943B1C8091F00088608093F000FF919F
:102CC000EF91BF91AF919F918F917F916F915F91A4
:102CD0004F913F912F910F900FBE0F901F9018951D
:102CE0002FB7F8948091B0029091B102A091B202F6
:102CF000B091B3022FBF08951F920F920FB60F929B
:102D000011248F939F93AF93BF938091D102811130
:102D100013C08091B0029091B102A091B202B09123
:102D2000B3024196A11DB11D8093B0029093B102F0
:102D3000A093B202B093B302BF91AF919F918F91D4
:102D40000F900FBE0F901F9018952091090122231C
:102D500021F02091CD0227FD04C0FC013296089697
:102D600019C0262F2695269526952E31C0F4FC01F4
:102D7000E20FF11D677081E090E001C0880F6A9555
:102D8000EAF7809592818923828308953196E81726
:102D9000F90729F020812613F9CF1082F7CF089583
:102DA00020910901222321F02091CD0227FD05C0A9
:102DB000FC0132962FEF30E019C0262F269526957C
:102DC00026952E3120F5FC01E20FF11D677081E0A0
:102DD00090E001C0880F6A95EAF79281892B82837F
:102DE00008952F3F39F03F5F363041F0419146134F
:102DF000F8CF0DC04111F7CF232FF5CF2F3F39F07A
:102E0000FC01E20FF11D27FDFA95628308950895F4
:102E1000CF9384E090E00E948021C82F81E290E06F
:102E20000E9480212C2F30E0A901582BCA01CF919C
:102E300008956FEE7EEF80E090E00E94B22160E0A6
:102E400082E090E00E94942160E083E090E00E94A4
:102E500094211092AC021092AD021092AE02109228
:102E6000AF0260E084E090E00E94942160E081E2A3
:102E700090E00E94942160E085E090E00E9494211F
:102E800060E086E090E00E9494216FEF87E090E0A0
:102E90000E94942140E050E0BA0188E090E00E9456
:102EA000A62160E08DE090E00E94942140E050E097
:102EB000BA0188E190E00E94A62160E087E190E0FD
:102EC0000E94942140E050E0BA018CE190E00E9421
:102ED000A62160E080E290E00E9494211092BB0263
:102EE0001092BC021092BD021092BE0284E080617A
:102EF0008093BB024091BB025091BC026091BD0225
:102F00007091BE028FE090E00E94A62140E050E068
:102F1000BA0183E190E00C94A6218091AB0281116B
:102F20001092AB0208959091A9028091AA02892B78
:102F30002091A802982F922B909312028091AB02BD
:102F40008823D9F0892B809312028091090188236C
:102F500031F08091CD0287FF02C08EE101C086E092
:102F6000E4E1F2E090E0815028F021912223D9F3AE
:102F70009F5FF9CF91110E948D17E091CF02F091E0
:102F8000D0023097A9F080910901882359F08091EF
:102F9000CD0287FF07C0809112028093130285E063
:102FA000809312020280F381E02D82E192E0099485
:102FB0000895BF92CF92DF92EF92FF920F931F93EB
:102FC000CF93DF938C01C090AC02D090AD02E09023
:102FD000AE02F090AF028091A3029091A402A09162
:102FE000A502B091A602C82AD92AEA2AFB2ACFE173
:102FF000D0E0D701C6010C2E04C0B695A7959795D1
:1030000087950A94D2F780FF07C0BC2EB8018C2F99
:103010000E94470C019719F4219758F7B12C8B2D7A
:10302000DF91CF911F910F91FF90EF90DF90CF90A4
:10303000BF900895CF93DF93EC010E94D917BE0192
:103040000E94470CDF91CF910895292F220F920FF4
:10305000990F890F682F669566956695982F9770DA
:1030600085E0689FB001112440E050E080E0FA0163
:10307000E60FF71FE459FD4F208130E0092E02C012
:10308000369527950A94E2F721703327042E01C064
:10309000220F0A94EAF7822B4F5F5F4F45305105AC
:1030A00031F70895292F220F920F990F890FA82F1A
:1030B000A695A695A695877051E001C0550F8A95F3
:1030C000EAF785E0A89FD001112420E030E070E00D
:1030D000F901EA0FFB1FE459FD4F4081CB01022E9D
:1030E00002C0969587950A94E2F781709927819599
:1030F00084278523842780832F5F3F4F2530310528
:1031000039F708950E941C0F6093A3027093A402E4
:103110008093A5029093A6020C94271F0F931F93F0
:1031200041E050E060E070E004C0440F551F661FAE
:10313000771F8A95D2F7409550956095709580914C
:10314000A3029091A402A091A502B091A6028A01C7
:103150009B01082319232A233B23C901B8011F918E
:103160000F910C9482182091A7028095822380935E
:10317000A702982F977079F430E0482F082E000CA2
:10318000550B2417350739F08595859585950E944F
:103190008E181092A70208950F931F9341E050E0FC
:1031A00060E070E004C0440F551F661F771F8A95CA
:1031B000D2F78091A3029091A402A091A502B091B0
:1031C000A6028A019B01082B192B2A2B3B2BC90134
:1031D000B8011F910F910C9482186093AC02709308
:1031E000AD028093AE029093AF020C94271F8091A2
:1031F0006B0290913A02891719F08F5F8770FBCFAD
:1032000008958091390282958F7009F054C08091A1
:103210003602882309F44FC080916B02A0913A02D4
:10322000609134027091350240913702509138021A
:10323000B6E08A1709F43FC090E041155105C1F18D
:103240007F3F11F46F3FA1F1B89FF001B99FF00DDE
:103250001124E55CFD4F218172132AC02081621385
:1032600027C02281211124C02381348124173507EE
:1032700010F421503109241B350B26393105C0F4D7
:10328000209139022F7020612093390226E0289F77
:10329000F001299FF00D1124E05CFD4F80818F70BB
:1032A0008061808384E392E00E94F8020C94F71816
:1032B00001968770BECF0895BF92CF92DF92EF92B2
:1032C000FF920F931F93CF93DF93CDB7DEB7619734
:1032D0000FB6F894DEBF0FBECDBF8C0185E0F801BC
:1032E000DE011D9601900D928A95E1F7D8013C917F
:1032F00011962C9111971296EC9012971396CD90EF
:10330000DC9014975091340260913502809137021D
:1033100090913802009709F44FC16F3F19F45F3F55
:1033200009F44AC1B0903602BB2009F4ECC04091C8
:103330003902C816D90628F0F601E81BF90BCF01AF
:1033400004C0809590958C0D9D1DFF24F3948639C3
:10335000910548F0F12C407F09F09FC084E392E092
:103360000E94F80221C1842F807F09F044C06213BB
:1033700012C0531310C0E1100EC04F704061409353
:10338000390284E392E00E94F80280913902D80168
:1033900015968C932EC0CD2819F12F3F11F43F3F85
:1033A000F9F0FE2CE1101CC080916B0240913A02B2
:1033B00056E0841709F458C090E0589FF001599FD7
:1033C000F00D1124E55CFD4F6181261306C060817C
:1033D000361303C06281611103C001968770E9CF83
:1033E000FE2CEE2009F421C1809139028160809386
:1033F0003902F12C1AC162130AC0531308C0E1103C
:1034000006C080913902D80115968C93B0C03D87D3
:103410002E878D859E850E94001F8823D1F1EE2086
:10342000C1F120913902822F82958F7090E002972E
:1034300074F0809134029091350298878F831986B9
:10344000DB86CA862C87CE0107960E94F80286E0AA
:10345000F801A4E3B2E001900D928A95E1F70E9491
:103460000119FF24F394E1C03D872E878D859E8549
:103470000E941A18292F22952F7030E02230310532
:103480000CF0C7C09F7009F0C1C0805E883008F49E
:10349000CCC0C8010E94F802E4CF621314C05313D9
:1034A00012C0E11010C080913902F8018583C80173
:1034B0000E94F80286E0E4E3F2E0DF011D928A95C3
:1034C000E9F7FB2CB2C03D872E878D859E850E9433
:1034D000001F8823F1F2EE20E1F220913902822FC1
:1034E00082958F7090E002970CF4B1CF80913402F6
:1034F000909135029A8389831B82DD82CC822E8350
:10350000CE010196A2CFC816D90638F0C81AD90A3A
:10351000B6E9CB16D10450F007C0809590958C0D7C
:103520009D1D8639910510F0F12C3EC0FE2CEE2039
:1035300009F4AFCF621327C0531325C0209139027D
:1035400020FD18C0822F82958F70482F50E04115C2
:10355000510581F0F80125834F30510541F08F5F0F
:10356000982F9295907F822F8F70892B8583C80129
:103570000E94F80286E0F801A4E3B2E001900D9207
:103580008A95E1F752C03D872E878D859E850E94E2
:10359000001F81115CCF80913902816080933902D4
:1035A000C8010E94F80241C0E4E3F2E086E0DF01D6
:1035B0001D928A95E9F739C0EE2009F46ACF3D875C
:1035C0002E878D859E850E94001FF82E882309F482
:1035D00060CF86E0F801A4E3B2E001900D928A95F5
:1035E000E1F780913402909135020E941A18929569
:1035F0009F70963041F48091330291E08927809347
:103600003302909332020E9401190FC081113DCF05
:103610000CC0243031050CF03CCF9F7009F435CF3D
:10362000F8019581907F09F030CF8F2D61960FB60C
:10363000F894DEBF0FBECDBFDF91CF911F910F91E8
:10364000FF90EF90DF90CF90BF9008950895809104
:10365000E5010895CF93DF9300D01F92CDB7DEB779
:103660009C019091B402911105C0809108028430B0
:1036700049F504C0923011F0943021F584E089833B
:103680003B832A8382E08093E9008FEF9091E800EA
:10369000815095FD06C095ED9A95F1F700008111D6
:1036A000F5CF8091E80085FF0DC040E050E063E079
:1036B00070E0CE0101960E94C9118091E8008E77DA
:1036C0008093E8000F900F900F90DF91CF910895B5
:1036D000CF93DF9300D01F92CDB7DEB720910802C1
:1036E000243031F523E02983805891099B838A8314
:1036F00082E08093E9008FEF9091E800815095FD82
:1037000006C095ED9A95F1F700008111F5CF8091F3
:10371000E80085FF0DC040E050E063E070E0CE01BE
:1037200001960E94C9118091E8008E778093E8008D
:103730000F900F900F90DF91CF910895CF93DF936B
:103740002091B402211103C02091080202C022304E
:1037500011F02430E1F520910901222339F0209164
:10376000CD0227FF03C060E222E002C068E021E052
:103770002093E9002FEF3091E800215035FD06C07D
:1037800035ED3A95F1F700002111F5CF2091E800D1
:1037900025FF1DC0EC0180910901811105C040E0A9
:1037A00050E068E070E003C070E040E050E0CE011F
:1037B0000E94C9118091E8008E778093E80080E232
:1037C000FE01A6EEB1E001900D928A95E1F7DF913E
:1037D000CF9108952091E4003091E50095E6409165
:1037E000EC00842F817040FF22C08091E80080FDB2
:1037F0001CC080910802882391F0853091F080915F
:10380000EB0085FD10C04091E4005091E5004217A7
:10381000530729F39A01915011F784E0089582E04B
:10382000089583E0089581E0089580E0089540912F
:10383000E80042FFDECF089580910A0287FF11C0A1
:103840008091E80082FD05C0809108028111F8CFC7
:1038500011C08091E8008B770BC08091080288230B
:1038600049F08091E80080FFF8CF8091E8008E77E2
:103870008093E8000895982F973058F59093E900C9
:10388000981739F07091EC002091ED005091F00004
:1038900003C0242F762F50E021FF19C03091EB0098
:1038A0003E7F3093EB003091ED003D7F3093ED0093
:1038B0003091EB0031603093EB007093EC0020937B
:1038C000ED005093F0002091EE0027FF07C09F5FAE
:1038D000D3CF8F708093E90081E0089580E0089550
:1038E00020911002309111022617370748F0611518
:1038F000710539F42091E8002E772093E80001C08B
:10390000B90140E061157105A9F120910802222357
:1039100009F443C0253009F442C02091E80023FD9A
:1039200040C02091E80022FD32C02091E80020FF35
:10393000E9CF4091F3002091F20030E0342BFC01FC
:10394000CF016115710559F02830310540F481919E
:103950008093F100615071092F5F3F4FF1CF41E03B
:103960002830310509F040E02091E8002E772093BF
:10397000E800C8CF4111C9CF0AC08091080288234E
:1039800061F0853061F08091E80083FD0AC080918C
:10399000E80082FFF2CF80E0089582E0089583E09E
:1039A000089581E0089578941F920F920FB60F92B8
:1039B00011248F939F93AF93BF938091B002909106
:1039C000B102A091B202B091B3020196A11DB11D46
:1039D0008093B0029093B102A093B202B093B3026D
:1039E000BF91AF919F918F910F900FBE0F901F903D
:1039F0001895CF92DF92EF92FF920F931F932FB7FC
:103A0000F8944091B0025091B1026091B20270916D
:103A1000B3022FBF6A017B01EE24FF248C0120E05A
:103A200030E0C016D106E206F30610F44150510909
:103A30009A01281B390BC9011F910F91FF90EF903C
:103A4000DF90CF900895CF93DF93CDB7DEB72A975D
:103A50000FB6F894DEBF0FBECDBF84B7877F84BF9B
:103A60000FB6F894A89580916000886180936000FB
:103A7000109260000FBE80E8809361001092610098
:103A800085B7806885BF85B7806885BF0E94171598
:103A90000E9436158091E20084608093E200789461
:103AA000809108028823A1F01091E9001F70909185
:103AB000EC00892F817090FD80E8182B1092E900AE
:103AC0008091E80083FD0E9400121F701093E900AE
:103AD00082E084BD93E095BD9AEF97BD80936E0020
:103AE0000E94930F90E090930B0180930A010E9433
:103AF0007A100E948910AFEBB2E0E2EDF2E06EE0E6
:103B0000F62EFE0E11921D92FE12FCCF8EE090E07A
:103B10000E94E2218093B5029093B602FC010E96BA
:103B20002BEF2193E817F907E1F780E090E00E947E
:103B30008E218F3E9E4F11F00E9419178CE090E06D
:103B40000E94802190E0A0E0B0E08093B7029093C3
:103B5000B802A093B902B093BA0289EA80938000B8
:103B600089E08093810024982C983F988AB18F7CBB
:103B70008AB96E98479A8BB180638BB9769A8FE039
:103B800090E00E9488216093BB027093BC028093F6
:103B9000BD029093BE0267708FEF689FB001112441
:103BA00075956795759567957727709389006093EC
:103BB000880070938B0060938A0070938D006093EF
:103BC0008C000E940A1080E090E00E948E218F3EBF
:103BD0009E4F11F00E94191782E090E00E94802110
:103BE0008093E1020E9408179093CE028093CD0249
:103BF00083E090E00E948021682F70E080E090E0F8
:103C00000E94ED188CE091E09093D0028093CF0257
:103C1000EE24EA94CC24C394D12C90E1892E22E1A5
:103C2000522E38E1A32EB12C40E4942E809108024C
:103C3000853009F043C080910802843009F1109268
:103C4000D1020FB6F894A895A09260000FBE909292
:103C5000600083B7817F846083BF83B7816083BF47
:103C60007894889583B78E7F83BF0FB6F894A89514
:103C700080916000886180936000109260000FBEA8
:103C800080910702882391F20E94930F90E0909315
:103C90000B0180930A010E947A100E948910E2EDC4
:103CA000F2E01192FE12FDCF0E94FD10E2EDF2E073
:103CB0008191811167C0FE12FBCFB8CF0E94FD1029
:103CC000E2EEF2E0A2EDB2E000E010E0702F6D91C4
:103CD00021912627B1F180E090E030E0782EA90113
:103CE000082E02C0559547950A94E2F740FF25C07B
:103CF00089837A83C60102C0880F991F7A94E2F7FC
:103D00003C01862F90E08621972121E0892B09F440
:103D100020E02B830E9470168160782F9D838C8316
:103D200049815A816B818D810E94350BF801EE51DA
:103D3000FD4F80816826608219C00196863091050A
:103D400069F60F5F1F4F0E30110509F0BFCFEE82ED
:103D5000EF8218860E9470168160782F9A87898773
:103D60004E815F8168858A850E94350B1091E00243
:103D70000E94350C181709F459CF0E94350C809316
:103D8000E00254CF89BC59BC09B400FEFDCF80913C
:103D9000D8008F7D8093D8008091E000826080936E
:103DA000E0008091E00081FDFCCF40CF882341F00E
:103DB00080959091A90289238093A9020C9493176E
:103DC0000895882339F09091A902892B8093A90244
:103DD0000C9493170895882341F080959091AA023E
:103DE00089238093AA020C9493170895882339F0AD
:103DF0009091AA02892B8093AA020C94931708959C
:103E00000E941A18292F2F7092959F70E92FF0E0C9
:103E10003297EE30F105B8F4E658FF4F0C94DC21F0
:103E2000803F99F018F4883E70F40FC0843F59F435
:103E30000CC0883E50F0813F31F407C0822F869538
:103E400086958695089580E0089581E00895109202
:103E5000A9021092A8020E94931780E090E00E94AD
:103E60001F0C80E090E00C94090C1092AA02809143
:103E70000901882331F08091CD0287FF02C08EE1D5
:103E800001C086E0E4E1F2E0DF011D928A95E9F7E6
:103E90000C94271F882309F458C0682F823869F4CE
:103EA0000E94350C81FF51C069E382E192E00E94DB
:103EB000D0160E94931769E30EC0833891F40E94D4
:103EC000350C80FF42C063E582E192E00E94D0168B
:103ED0000E94931763E582E192E00E94A5160C947C
:103EE0009317843869F40E94350C82FF2EC067E472
:103EF00082E192E00E94D0160E94931767E4EBCF14
:103F00008CEF860F813A38F380E2860F883070F4A8
:103F1000677081E090E001C0880F6A95EAF78095AC
:103F20009091AA0289238093AA02D9CF8BE5860FAC
:103F3000833020F480E090E00C941F0C685A6731C5
:103F400020F480E090E00C94090C0895882309F493
:103F50000DC1682F8238B1F40E94350C81FD06C175
:103F600069E382E192E00E94D0160E9493172FEF3E
:103F700081EE94E0215080409040E1F700C00000C5
:103F800069E317C08338D9F40E94350C80FDEEC078
:103F900063E582E192E00E94D0160E9493172FEF12
:103FA00081EE94E0215080409040E1F700C0000095
:103FB00063E582E192E00E94A5160C949317843881
:103FC000B1F40E94350C82FDD1C067E482E192E039
:103FD0000E94D0160E9493172FEF81EE94E021509B
:103FE00080409040E1F700C0000067E4E2CF8CEF32
:103FF000860F813A28F482E192E00E94D016DDCF4C
:1040000080E2860F883068F4677081E090E001C03C
:10401000880F6A95EAF79091AA02892B8093AA02E9
:10402000CCCF8BE5860F833070F4653A29F0663A81
:1040300031F083E890E005C081E890E002C082E8BA
:1040400090E00C941F0C88E5860F873108F08EC035
:10405000683A09F445C0693A09F445C06A3A09F476
:1040600045C06B3A09F445C06C3A09F445C06B3B56
:1040700009F445C06C3B09F445C06D3A09F445C0EC
:10408000603B09F445C06E3A09F445C06F3A09F443
:1040900045C0613B09F445C0623B09F445C0633B40
:1040A00009F445C0643B09F445C0653B09F445C0CB
:1040B000663B09F445C0673B09F445C0683B09F419
:1040C00045C0693B09F445C06D3B09F445C06E3BF2
:1040D00009F445C06A3B09F445C080E090E044C063
:1040E00082EE90E041C089EE90E03EC08AEE90E022
:1040F0003BC085EB90E038C086EB90E035C083EBA9
:1041000090E032C084EB90E02FC087EB90E02CC0B1
:104110008CEC90E029C08DEC90E026C083E891E023
:1041200023C08AE891E020C082E991E01DC084E9C3
:1041300091E01AC081E292E017C083E292E014C0DD
:1041400084E292E011C085E292E00EC086E292E045
:104150000BC087E292E008C08FE690E005C080E7E0
:1041600090E002C08AE292E00C94090C0895CF938B
:10417000C82F0E94A61FC93349F42FEF87EE93E0A2
:10418000215080409040E1F700C000008C2FCF917B
:104190000C944A1F1092B9008CE08093B8000895E7
:1041A000EF92FF920F931F93CF93DF93182FEB01A2
:1041B0001092BC0084EA8093BC000E9470167C01BF
:1041C0009091BC0097FD0EC0CF3F8FEFD807C1F391
:1041D0000E9470168E199F098C179D0788F38EEF29
:1041E0009FEF2EC09091B900987F983041F0909148
:1041F000B900987F903119F08FEF9FEF21C0109395
:10420000BB0084E88093BC000E9470168C019091E2
:10421000BC0097FD0CC0CF3F8FEFD807C1F30E94C1
:104220007016801B910B8C179D0788F3D8CF809157
:10423000B900887F883111F08034F1F680E090E099
:10424000DF91CF911F910F91FF90EF9008950F9301
:104250001F93CF93DF93EB018093BB0084E880939F
:10426000BC000E9470168C019091BC0097FD0EC09E
:10427000CF3F8FEFD807C1F30E947016801B910BC0
:104280008C179D0788F38EEF9FEF0CC02091B9002B
:10429000287F81E090E0283211F480E090E0919551
:1042A00081959109DF91CF911F910F9108950F93FF
:1042B0001F93CF93DF93EC0184E88093BC000E94AE
:1042C00070168C019091BC0097FD0EC0CF3F8FEF10
:1042D000D807C1F30E947016801B910B8C179D07A5
:1042E00088F38EEF9FEF03C08091BB0090E0DF91D9
:1042F000CF911F910F91089584E98093BC00089598
:10430000F999FECF92BD81BDF89A992780B508959D
:10431000A6E1B0E044E050E00C94BA21A8E1B0E09E
:1043200042E050E00C94BA21262FF999FECF92BDBD
:1043300081BDF89A019700B4021639F01FBA20BD6A
:104340000FB6F894FA9AF99A0FBE08950396272F9C
:104350000E9495210E949421252F0E949521242FAF
:104360000C9495210196272F0E9495210C9494215D
:10437000DC01CB01FC01F999FECF06C0F2BDE1BD25
:10438000F89A319600B40D9241505040B8F7089514
:10439000AA1BBB1B51E107C0AA1FBB1FA617B7076B
:1043A00010F0A61BB70B881F991F5A95A9F7809587
:1043B0009095BC01CD010895EE0FFF1F0590F4917B
:1043C000E02D0994CF93DF938230910510F482E0C1
:1043D00090E0E091F202F091F30220E030E0C0E0E2
:1043E000D0E0309711F14081518148175907C0F052
:1043F0004817590761F482819381209719F09B83B4
:104400008A832BC09093F3028093F20226C0211579
:10441000310519F04217530718F49A01BE01DF0164
:10442000EF010280F381E02DDCCF2115310509F188
:10443000281B390B2430310590F412968D919C91F4
:1044400013976115710521F0FB019383828304C0EA
:104450009093F3028093F202FD01329644C0FD0175
:10446000E20FF31F81939193225031092D933C93D6
:104470003AC02091F0023091F102232B41F42091B7
:104480000201309103013093F1022093F002209158
:104490000001309101012115310541F42DB73EB7DE
:1044A0004091040150910501241B350BE091F0026D
:1044B000F091F102E217F307A0F42E1B3F0B28172F
:1044C000390778F0AC014E5F5F4F2417350748F08D
:1044D0004E0F5F1F5093F1024093F002819391932E
:1044E00002C0E0E0F0E0CF01DF91CF9108950F939B
:1044F0001F93CF93DF93009709F48CC0FC01329790
:10450000138212820091F2021091F302011511053B
:1045100081F420813181820F931F2091F00230912C
:10452000F1022817390779F5F093F102E093F002D0
:1045300071C0D80140E050E0AE17BF0750F41296AA
:104540002D913C911397AD012115310509F1D90148
:10455000F3CF9D01DA013383228360817181860F5D
:10456000971F8217930769F4EC0128813981260F80
:10457000371F2E5F3F4F318320838A819B81938336
:104580008283452B29F4F093F302E093F20242C0B8
:104590001396FC93EE931297ED01499159919E0168
:1045A000240F351FE217F30771F480819181840F86
:1045B000951F029611969C938E93828193811396F8
:1045C0009C938E931297E0E0F0E0D80112968D91C3
:1045D0009C911397009719F0F8018C01F6CF8D91FB
:1045E0009C9198012E5F3F4F820F931F2091F00204
:1045F0003091F1022817390769F4309729F41092A5
:10460000F3021092F20202C0138212821093F1029E
:104610000093F002DF91CF911F910F910895AEE0CA
:10462000B0E0E5E1F3E20C94CB250D891E898F897A
:10463000988D26E02C831A83098397FF02C080E0BF
:1046400090E801979E838D83AE01455E5F4F698D33
:104650007A8DCE0101960E943F234D815E8157FDE8
:104660000AC02F813885421753070CF49A01F801CC
:10467000E20FF31F10822E96E4E00C94E725ACE0E5
:10468000B0E0E5E4F3E20C94BD257C016B018A0106
:10469000FC0117821682838181FFBDC1CE01019684
:1046A0004C01F7019381F60193FD859193FF819170
:1046B0006F01882309F4ABC1853239F493FD8591EC
:1046C00093FF81916F01853229F4B70190E00E9438
:1046D0002725E7CF512C312C20E02032A0F48B325B
:1046E00069F030F4803259F0833269F420612CC0D3
:1046F0008D3239F0803339F4216026C02260246085
:1047000023C0286021C027FD27C030ED380F3A3084
:1047100078F426FF06C0FAE05F9E300D1124532E78
:1047200013C08AE0389E300D1124332E20620CC055
:104730008E3221F426FD6BC1206406C08C3611F444
:10474000206802C0883641F4F60193FD859193FFFD
:1047500081916F018111C1CF982F9F7D9554933026
:1047600028F40C5F1F4FFFE3F9830DC0833631F04F
:10477000833771F0833509F05BC022C0F801808176
:1047800089830E5F1F4F44244394512C540115C05C
:104790003801F2E06F0E711CF801A080B18026FF95
:1047A00003C0652D70E002C06FEF7FEFC5012C875D
:1047B0000E941C252C0183012C852F77222E17C0E7
:1047C0003801F2E06F0E711CF801A080B18026FF65
:1047D00003C0652D70E002C06FEF7FEFC5012C872D
:1047E0000E9411252C012C852068222E830123FC98
:1047F0001BC0832D90E048165906B0F4B70180E243
:1048000090E00E9427253A94F4CFF50127FC85918A
:1048100027FE81915F01B70190E00E9427253110AA
:104820003A94F1E04F1A51084114510471F7E5C070
:10483000843611F0893639F5F80127FF07C0608109
:104840007181828193810C5F1F4F08C060817181EB
:10485000072E000C880B990B0E5F1F4F2F76722EC0
:1048600097FF09C090958095709561957F4F8F4F08
:104870009F4F2068722E2AE030E0A4010E945F253D
:10488000A82EA81844C0853729F42F7EB22E2AE01E
:1048900030E025C0F22FF97FBF2E8F36C1F018F41B
:1048A000883579F0B4C0803719F0883721F0AFC06F
:1048B0002F2F2061B22EB4FE0DC08B2D8460B82E38
:1048C00009C024FF0AC09F2F9660B92E06C028E0B9
:1048D00030E005C020E130E002C020E132E0F80124
:1048E000B7FE07C060817181828193810C5F1F4F89
:1048F00006C06081718180E090E00E5F1F4FA401CF
:104900000E945F25A82EA818FB2DFF777F2E76FE2C
:104910000BC0372D3E7FA51450F474FE0AC072FC04
:1049200008C0372D3E7E05C0BA2C372D03C0BA2CE7
:1049300001C0B52C34FF0DC0FE01EA0DF11D8081D0
:10494000803311F4397E09C032FF06C0B394B394AA
:1049500004C0832F867809F0B39433FD13C030FF71
:1049600006C05A2CB31418F4530C5B18B32CB314B0
:1049700068F4B70180E290E03C870E942725B39459
:104980003C85F5CFB31410F43B1801C0312C34FF33
:1049900012C0B70180E390E03C870E9427253C8548
:1049A00032FF17C031FD03C088E790E002C088E500
:1049B00090E0B7010CC0832F867859F031FF02C018
:1049C0008BE201C080E237FD8DE2B70190E00E94EA
:1049D0002725A51438F4B70180E390E00E9427252D
:1049E0005A94F7CFAA94F401EA0DF11D8081B70122
:1049F00090E00E942725A110F5CF332009F451CE75
:104A0000B70180E290E00E9427253A94F6CFF701A3
:104A10008681978102C08FEF9FEF2C96E2E10C9484
:104A2000D925FC010590615070400110D8F78095A0
:104A300090958E0F9F1F0895FC016150704001906A
:104A40000110D8F7809590958E0F9F1F08950F93B2
:104A50001F93CF93DF93FB01238121FD03C08FEFD1
:104A60009FEF28C022FF16C04681578124813581DF
:104A70004217530744F4A081B1819D012F5F3F4F3E
:104A8000318320838C93268137812F5F3F4F37837B
:104A9000268310C0EB01092F182F0084F185E02D2B
:104AA0000995892BE1F68E819F8101969F838E83E4
:104AB000812F902FDF91CF911F910F910895FA01CF
:104AC000AA27283051F1203181F1E8946F936E7F4D
:104AD0006E5F7F4F8F4F9F4FAF4FB1E03ED0B4E03E
:104AE0003CD0670F781F891F9A1FA11D680F791F7F
:104AF0008A1F911DA11D6A0F711D811D911DA11D90
:104B000020D009F468943F912AE0269F112430199F
:104B1000305D3193DEF6CF010895462F4770405D3A
:104B20004193B3E00FD0C9F7F6CF462F4F70405DE9
:104B30004A3318F0495D31FD4052419302D0A9F744
:104B4000EACFB4E0A6959795879577956795BA953E
:104B5000C9F700976105710508959B01AC010A2E04
:104B600006945795479537952795BA95C9F7620FDB
:104B7000731F841F951FA01D08952F923F924F927F
:104B80005F926F927F928F929F92AF92BF92CF92DD
:104B9000DF92EF92FF920F931F93CF93DF93CDB7E6
:104BA000DEB7CA1BDB0B0FB6F894DEBF0FBECDBF5E
:104BB00009942A88398848885F846E847D848C842F
:104BC0009B84AA84B984C884DF80EE80FD800C8138
:104BD0001B81AA81B981CE0FD11D0FB6F894DEBF1B
:0C4BE0000FBECDBFED010895F894FFCF8B
:104BEC000000F402200001AF00012000271B9E1BD7
:104BFC00261B681B2A1B0A25640A00000D010D02E6
:104C0C000D030D040D050D000C010C020C030C041E
:104C1C000C050C000B010B020B030B040B050B001A
:104C2C000A010A020A030A040A050A000901090218
:104C3C00090309040905090008010802080308040E
:104C4C00080508000701070207030704070507000A
:104C5C000601060206030604060506000501050208
:104C6C0005030504050505000401040204030404FE
:104C7C0004050400030103020303030403050300FA
:104C8C0002010202020302040205020001010102F8
:104C9C0001030104010501000001000200030004EE
:044CAC0000050000FF
:00000001FF
