:100000000C9423030C9440030C9440030C94400381
:100010000C9440030C9440030C9440030C94400354
:100020000C9440030C9440030C941E120C94DA11AF
:100030000C94E7210C9440030C9440030C9440036F
:100040000C9440030C9440030C9440030C94400324
:100050000C9440030C942D0E0C9440030C9440031C
:100060000C9440030C9440030C9440030C94400304
:100070000C9440030C9440030C9440030C944003F4
:100080000C9440030C9440030C9440030C944003E4
:100090000C9440030C9440030C9440030C944003D4
:1000A0000C9440030C9440030C94400329002B0053
:1000B0002A00D75C010000001E00140004001D008F
:1000C0000100A8001F001A0016001B00010001001B
:1000D000200008000700060003510151210015000F
:1000E00009001900E300AA00220017000A00050019
:1000F0000000010001000100000001000000A90053
:1001000001000100000001000000010023001C00AC
:100110000B00110000000100240018000D00100069
:100120000251010025000C000E0036004E002C008C
:10013000260012000F003700010001002700130005
:1001400034003800010001002E002D002800D85C8A
:100150000100000029002B012A08730001000000A3
:100160001E08140802510408010001001F081A08A3
:1001700016080708010001002008290006083A00B7
:10018000040401002108150819081D0801000100D8
:10019000220817081B081C080000010001000100CC
:1001A000000001000000010001000100000001004A
:1001B0000000010033001C014C002A000000010077
:1001C0003102500850000908E700010033025200D4
:1001D00051000A0A4B002C0026014F084F000A0864
:1001E0000100010027013502350031000100010046
:1001F0006F0070000100720001000000040971002E
:1002000001000100010000001E0C010001001A5C49
:10021000010001001F0C01000100010001000100AC
:100220003C0001002F002F020100E3003D00150AF1
:10023000300030022C0401003E003B002B0018016E
:1002400000000100010001000000010000000100A9
:100250000100010000000100000001003F000E0A43
:100260006D006E00000001004000500A50020409B9
:10027000010001004100520251025006010001003C
:1002800042004F0A4F024F060100010043004400A4
:10029000450068000100010069006A006B006C0005
:1002A00001000000010001002A0A01000100000015
:1002B0000100010001000100010001000100010036
:1002C0000100010001000100010001000100010026
:1002D0000100010001000100010001000100010016
:1002E0000100010001000100000001000100010007
:1002F00000000100000001000100010000000100F9
:1003000000000100010001000100010000000100E7
:1003100001002F08F2000100F50001000100F000CB
:10032000F100FB000100F40001003008F300FC00C4
:1003300001000100010001000100010001000100B5
:1003400001000100010001000100000000000000A8
:10035000000000000000000000000000000000009D
:10036000000000000000000000000000000000008D
:10037000000000000000000000000000000000007D
:10038000000000000000000000000000000000006D
:10039000000000000000000000000000000000005D
:1003A000000000000000000000000000000000004D
:1003B000000000000000000000000000000000003D
:1003C000000000000000000000000000000000002D
:1003D000000000000000000000000000000000001D
:1003E000000000000000000000000000000101010A
:1003F00001010100010101010000000000000000F6
:1004000000000000000001000100010101010101E4
:1004100001010101010101010101010101010101CC
:1004200001010101010101000000010100000000C3
:1004300000000000000000000000000000000000BC
:1004400000000000000000010101010000000000A8
:10045000000000002A2B280000000000000000001F
:100460000000000000000029000000002C1E3420C5
:10047000212224342627252E362D3738271E1F20EB
:100480002122232425263333362E37381F04050630
:100490000708090A0B0C0D0E0F1011121314151674
:1004A0001718191A1B1C1D2F3130232D3504050672
:1004B0000708090A0B0C0D0E0F1011121314151654
:1004C0001718191A1B1C1D2F3130354C0501090254
:1004D000A10185020901A1000509190129051500DD
:1004E00025019505750181029501750381010501BD
:1004F000093009311581257F950275088106093873
:100500001581257F950175088106050C0A380215AD
:1005100081257F950175088106C0C005010980A16C
:100520000185031A81002A83001601002603009525
:100530000175108100C0050C0901A10185041A0193
:10054000002A9C02160100269C029501751081006C
:10055000C005010906A1018505050719E029E71570
:100560000025019508750181020507190029EF157D
:1005700000250195F07501810205081901290595ED
:100580000575019102950175039101C005010906E8
:10059000A101050719E029E7150025019508750156
:1005A00081029501750881010507190029FF1500D1
:1005B00026FF009506750881000508190129059593
:1005C0000575019102950175039101C009023B0077
:1005D000020100A0FA090400000103010100092141
:1005E000110100012240000705810308000A0904E7
:1005F0000100010300000009211101000122C000D7
:100600000705820320000A1201100100000008ED16
:10061000FE0713010001020301040330000000166D
:10062000034500720067006F0064006F00780020CF
:100630000045005A00000008035A00530041000022
:1006400000040309040011241FBECFEFDAE0DEBF6F
:10065000CDBF11E0A0E0B1E0E6EDFEE402C0059000
:100660000D92A43CB107D9F722E0A4ECB1E001C09F
:100670001D92AF3FB207E1F70E94BA1F0C943E27CC
:100680000C940000E8EDF0E080818E7F8083109272
:10069000E2001092DA001092E100A0EEB0E08C913E
:1006A00081608C9380818F77808319BCA7EDB0E047
:1006B0008C918E7F8C9380818F7E80831092CC0270
:1006C00008952091E4003091E50095E6A90120917C
:1006D000EC00822F817020FF06C08091E80080FF2F
:1006E00006C080E008952091E80022FD1AC08091A4
:1006F000F102882389F0853089F08091EB0085FD37
:100700000FC02091E4003091E50042175307F9F241
:100710009150E1F684E0089582E0089583E0089521
:1007200081E00895EF92FF920F931F93CF937C0186
:100730008B010E946103C82F811117C08091E800CE
:1007400085FD0BC08091E8008E778093E8000E94C1
:100750006103882399F3C82F08C0F70181917F01B5
:100760008093F1000150110949F78C2FCF911F910F
:100770000F91FF90EF9008958091F30287FF13C0CF
:100780008091E80082FF06C08091E8008B7780931B
:10079000E80004C08091F1028111F2CF08958091A8
:1007A000F1028823D9F38091E80080FFF8CF80918F
:1007B000E8008E77ECCF982F9093E900242F762FC6
:1007C00050E0891731F07091EC002091ED005091CC
:1007D000F00021FD07C09F5F973071F78093E9001B
:1007E00081E008953091EB003E7F3093EB00309133
:1007F000ED003D7F3093ED003091EB0031603093A0
:10080000EB007093EC002093ED005093F0002091EA
:10081000EE0027FDE0CF80E00895CF92DF92EF92C7
:10082000FF920F931F93CF93DF93C8EDD0E08881A1
:100830008F7E8883E7EDF0E080818160808384E0B3
:1008400082BF81E08093CC0288818E7F888302EE14
:1008500010E0F80110821092DA0081EEC82ED12C3F
:10086000F601108288818F778883888180688883E9
:1008700088818F7D888319BC1092F1021092F20258
:100880001092F0021092EF0290EEE92EF12CF70197
:1008900080818B7F808388818160888342E060E0F3
:1008A00080E00E94DB03F60180818E7F8083F80167
:1008B000808181608083808188608083F70180816E
:1008C0008E7F8083888180618883DF91CF911F91A3
:1008D0000F91FF90EF90DF90CF900895FC018091F1
:1008E000F9029091FA0286179707A0F06115710539
:1008F00029F49091E8009E779093E80090E06115CC
:10090000710551F4911108C08091E80082FF34C054
:1009100080E00895BC01F2CF8091F1028823C1F1FB
:100920008530C1F18091E80083FD30C08091E800FE
:1009300082FDEACF8091E80080FFE1CF8091F30053
:100940002091F200382F6115710519F0283031051A
:1009500058F091E02830310509F090E02091E8004E
:100960002E772093E800CBCF81918093F1006150E6
:1009700071092F5F3F4FE7CF8091F102882341F04B
:10098000853041F08091E80083FFBECF81E008957B
:1009900082E0089583E008958091F102843011F49B
:1009A00082E0089581E008958091CE0208959091AB
:1009B000B502803F41F48091B60287FD1092B602E5
:1009C000992371F00895813F29F48091B602181699
:1009D000ACF3F6CF823F81F497FFF2CF1092B502CD
:1009E0008091B6029091B702892B9091B802892B21
:1009F00049F71092B9020895833F19F4191674F358
:100A0000DFCF893F39F48091B7021816CCF61092E7
:100A1000B702D6CF8A3F29F48091B70287FFD0CFA3
:100A2000F6CF8B3F39F48091B80287FFC9CF10927F
:100A3000B802C6CF8C3F29F48091B8021816BCF3D7
:100A4000BFCF843F31F48091B4028E7F8093B40293
:100A5000B7CF853F21F48091B4028D7FF7CF863FD9
:100A600021F48091B4028B7FF1CF873F21F48091F4
:100A7000B402877FEBCF883F21F48091B4028F7E50
:100A8000E5CF8D3F31F4809187028E7F809387027E
:100A900097CF8E3F21F4809187028D7FF7CF8F3FD4
:100AA00009F08ECF809187028B7FF0CF81E008958F
:100AB0008091870280FD16C081FD16C082FD18C09E
:100AC0008091B902882391F08A3290F42EE1829FBE
:100AD000C00111246AE270E00E94DB22862F672B9E
:100AE00049F0089587E008958FE0089585E008951E
:100AF0008EE1089581E00895803F31F40E94580509
:100B000081958093B6020895813F19F40E9458059B
:100B1000F8CF823F31F40E94580581958093B50249
:100B20000895833F19F40E945805F8CF893F29F4AE
:100B30000E9456058093B70208958A3F21F40E94CF
:100B400056058195F7CF8B3F31F40E94560581956C
:100B50008093B80208958C3F19F40E945605F8CF8F
:100B6000843F31F48091B40281608093B40208958F
:100B7000853F21F48091B4028260F7CF863F21F453
:100B80008091B4028460F1CF873F21F48091B40258
:100B90008860EBCF883F21F48091B4028061E5CF7B
:100BA0008D3F31F4809187028160809387020895A0
:100BB0008E3F21F4809187028260F7CF8F3FB9F793
:100BC000809187028460F1CFCF92DF92EF92FF9203
:100BD0000F931F932FB7F894409183025091840292
:100BE00060918502709186022FBF6A017B01EE241D
:100BF000FF248C0130E020E0C016D106E206F306A7
:100C000050F0481B590BCA011F910F91FF90EF90B4
:100C1000DF90CF90089541505109F3CF80917E022B
:100C2000811110927E02089580917D0290917C0244
:100C3000892B90917B02892B8093C40190917E0235
:100C40009923A1F0892B8093C401809115018823F9
:100C500041F18091A00287FF24C08EE1E6ECF1E033
:100C600090E0815000F591110E940E06E091A202E1
:100C7000F091A3023097E1F080911501882359F09B
:100C80008091A00287FF07C08091C4018093C501B5
:100C900085E08093C4010280F381E02D84EC91E033
:100CA000099486E0DBCF21912223D9F29F5FD9CF2F
:100CB0000895909115019923D1F09091A00297FF8A
:100CC00016C0E82FE695E695E695EE31E0F4F0E003
:100CD000EC53FE4F282F277081E090E001C0880F71
:100CE0002A95EAF780959281892382830895E6EC1C
:100CF000F1E09191891303C0DF0111971C9291E0FB
:100D0000EC3CF907B1F70895909115019923C1F0D2
:100D10009091A00297FF14C0E82FE695E695E6951E
:100D2000EE31F8F4F0E0EC53FE4F877021E030E054
:100D300001C0220F8A95EAF78281822B828308956F
:100D4000A6ECB1E0EFEF90E02D91821751F0EF3F6C
:100D500019F4211101C0E92F9F5F9630A9F7EF3FE9
:100D600009F408950E2E000CFF0BEC53FE4FE6CF56
:100D7000E92FEE0FE90FEE0F8E0F982F97708695E3
:100D80008695869525E0829FF0011124E15CFD4F58
:100D900050E040E080E0219130E0092E02C036951D
:100DA00027950A94E2F721703327042E01C0220F01
:100DB0000A94EAF7822B4F5F5F4F4530510559F790
:100DC0000895E92FEE0FE90FEE0F8E0F982F977011
:100DD00041E001C0440F9A95EAF78695869586957D
:100DE00095E0899FF0011124E15CFD4F30E020E0A7
:100DF00070E05191DF011197CB01022E02C0969550
:100E000087950A94E2F78170819585278423852749
:100E10008C932F5F3F4F2530310559F7089580910E
:100E20003E0290910D02981301C008958F5F877064
:100E3000FACF882341F0809590917C02892380939A
:100E40007C020C9414060895882339F090917C025A
:100E5000982B90937C020C9414060895882341F0FB
:100E6000809590917D02892380937D020C941406D5
:100E70000895882339F090917D02982B90937D02FC
:100E80000C94140608952091EC013091ED0128177F
:100E9000390771F09093ED018093EC01E091A2028B
:100EA000F091A302309721F00084F185E02D0994A0
:100EB00008952091EA013091EB012817390771F06C
:100EC0009093EB018093EA01E091A202F091A302DA
:100ED000309721F00680F781E02D09940895E09184
:100EE000A202F091A302309721F00190F081E02D51
:100EF000099480E008959091A00292FF06C0282FE7
:100F000028712830F9F4877F846093FF06C0282F6A
:100F100028712831F1F4877E84612091A10220FF9D
:100F200006C0382F38713830D9F4877F816021FFAF
:100F300006C0282F28712831D1F4877E816194FD65
:100F4000877E0895282F24712430F9F68B7F8860DE
:100F5000DCCF282F2471243101F78B7E8861DDCF0F
:100F6000382F3171313019F78E7F8860E0CF282F0C
:100F70002171213121F78E7E8861E1CFCF93DF93FC
:100F8000972F70E026E0929F600D711D1124FB01E8
:100F900034E5839FE00DF11D1124EE0FFF1FE45592
:100FA000FF4FC591D491CE01C238D105B9F1E8F512
:100FB000C133D10509F499C050F5C932D10509F4FE
:100FC0008DC0CA32D10509F497C0C11542E5D407D6
:100FD00008F047C1C11521E5D20708F0C2C1C83EDB
:100FE000D10508F020C1C03ED10568F5C83AD10549
:100FF00008F089C0C53AD10508F088C1C130D105D3
:1010000011F1209709F443C02497E8F440C0C53398
:10101000D10509F45CC0C933D105B9F62091A0020D
:10102000237089F080EE90E00EC0C33ED10591F1AF
:1010300068F4C03ED105F9F0C23ED10531F62091E9
:10104000A00222FD20C0DF91CF910895C63ED105B8
:1010500061F1C73ED10581F1C43ED10509F0B5CF9C
:101060002091A10221FFEFCF8091A00284FD0FC04B
:1010700087EE90E0E8CF2091A00220FDA3C130913F
:10108000A10230FFE0CF83EE90E024FFDCCF90E0C0
:1010900080E0D9CF2091A00222FD97C13091A1021A
:1010A00030FDC0CF24FFCFCFF2CF2091A00223FF8D
:1010B000CACF24FDECCFDCCF2091A00223FD88C154
:1010C0003091A10231FFEECF84EE90E0BCCF2091B1
:1010D000A00225FFB8CF89E290E0B5CF2091A00211
:1010E00025FFB1CF85E390E0AECF2091A00226FF8F
:1010F000AACF8AE290E0A7CF2091A00226FFA3CF3B
:1011000081E390E0A0CFCF3BD10508F682EE94E4D6
:10111000C83AD10509F497CF89EE94E4C93AD105CC
:1011200009F491CF8AEE94E4CA3AD10509F48BCF41
:1011300085EB94E4CB3AD10509F485CF86EB94E4B2
:10114000CC3AD10509F47FCF83EB94E4CB3BD105B6
:1011500009F479CF84EB94E4CC3BD10509F473CF47
:1011600087EB94E4CD3AD10509F46DCF8CEC94E48F
:10117000C03BD10509F467CF8DEC94E4CE3AD1059C
:1011800009F461CF83E895E4CF3AD10509F45BCF48
:101190008AE895E4C13BD10509F455CF82E995E48D
:1011A000C23BD10509F44FCF84E995E4C33BD10597
:1011B00009F449CF81E296E4C43BD10509F443CF59
:1011C00083E296E4C53BD10509F43DCF84E296E481
:1011D000C63BD10509F437CF85E296E4C73BD1057C
:1011E00009F431CF86E296E4C83BD10509F42BCF50
:1011F00087E296E4C93BD10509F425CF8FE694E454
:10120000CD3BD10509F41FCF80E794E4CE3BD10557
:1012100009F419CF80E094E4CA3BD10509F013CF5B
:101220008AE296E410CFC11530E2D30760F4C1150D
:1012300041E0D40708F007CFCE019065C03FD1054B
:1012400008F001CF24CFC11580E4D80708F41FCFE0
:10125000C11590E5D90708F068C0CE019F70906A6B
:10126000F2CEC11526E5D20718F5C11535E5D3072D
:1012700008F08DC0C11544E5D40708F083C09C2F49
:1012800096959695AE0143705527C115D34508F440
:101290006DC021E030E002C0220F331F4A95E2F713
:1012A00040E2949FC0011124822B932B9A68CBCEED
:1012B000C1159AE5D90778F4C11529E5D20708F0D8
:1012C00070C0C11538E5D30708F4E1CE9C2F8827FC
:1012D000806F906AB8CEC1154BE5D40708F4D7CE1D
:1012E000C1158CE5D80708F469C0CE019056811568
:1012F000904208F0CCCE8D2F8F710E947B0790E03A
:10130000982F882788279F718C2B49C081E890E40B
:10131000C53AD10509F497CE82E890E4C63AD105E2
:1013200009F491CE83E890E48ECE9E01E4E03695F8
:101330002795EA95E1F723708C2F86958695837023
:1013400030E2839FC0011124922BC37021E030E072
:1013500002C0220F331FCA95E2F7822B932B9C68A1
:1013600072CE9C2F8827816F906A6DCE21E030E08D
:1013700002C0220F331F4A95E2F740E2949FC0015A
:101380001124EBCF9C2F8827846F906A5CCE8C2F22
:101390000E947B0790E0982F882788279F71906292
:1013A00052CE8C2F8F700E947B0734E0D695C79564
:1013B0003A95E1F7CF709C2F906945CECE019927E1
:1013C000906641CE89E390E03ECE82EE90E03BCE47
:1013D00086EE90E038CEBF92CF92DF92EF92FF92EE
:1013E0000F931F93CF93DF938C01C0907602D09020
:1013F0007702E0907802F090790280917F029091DC
:101400008002A0918102B0918202C82AD92AEA2AD8
:10141000FB2ACFE1D0E0BC2ED701C6010C2E04C0C0
:10142000B695A795979587950A94D2F780FD0EC03B
:10143000219788F7B12C8B2DDF91CF911F910F91C0
:10144000FF90EF90DF90CF90BF900895B8018C2F60
:101450000E94BE07019761F3EECFCF93DF93EC01BB
:101460000E94EB09BE01DF91CF910C94BE070E9450
:101470002D0A292F2F7092959F7092509E3078F4EC
:10148000E92FF0E0E05CF84D0C94EF22803F19F07A
:1014900020F4883E20F481E00895843FE1F380E069
:1014A0000895883EC0F3813FD1F7F5CF822F86950E
:1014B000869586950895CF93DF939C013A952115E3
:1014C0003F4168F5EC01CC27D170DC01AA27B2704E
:1014D000AC01442754709C012227387094FF11C03E
:1014E00080E1CD2B09F480E0AB2B09F08062452B25
:1014F00009F08064232B09F08068FB01DF91CF9114
:10150000099481E0CD2B09F480E0AB2B09F08260D7
:10151000452B09F08460232B81F38860EECFDF91A7
:10152000CF91089527982F98089526982E9808957A
:1015300025982D98089556985E980895279A2F9A81
:101540000895269A2E9A0895259A2D9A0895CF9255
:10155000DF92EF92FF92CF936B017C01C701AA2724
:10156000BB27C0E10097A105B10519F4D701CB0154
:10157000C0E0492F5A2F6B2F772741155105610580
:10158000710519F0C85FDB01CA01AC01BD01E4E0DF
:101590007695679557954795EA95D1F74115510589
:1015A0006105710519F0CC5FDB01CA01AC01BD0119
:1015B00032E076956795579547953A95D1F741155D
:1015C00051056105710519F0CE5FDB01CA01B695C1
:1015D000A79597958795892B8A2B8B2B09F0CF5F41
:1015E0000E949B0A0E94980A0E94950A0E94920AF1
:1015F000C150C73040F4EC2FF0E0E25BF84D0C94A2
:10160000EF220E94A40AC701B601CF91FF90EF908C
:10161000DF90CF9008950E94A40A0E94A10AF3CF00
:101620000E94A40A0E949E0AEECF0E94A40A0E9471
:10163000A10AF8CF84B1807F84B985B1807F85B954
:101640008AB1837F8AB98BB1837F8BB93E984698E4
:10165000089580B38C7080BB81B3836F81BB089584
:10166000CF9384E090E00E942C23C82F81E290E089
:101670000E942C23982F8C2FCF9108950F931F93A6
:10168000CF93DF9300D00F92CDB7DEB78C010E94CD
:10169000CC04823011F0843021F584E089831B83EF
:1016A0000A8382E08093E9008FEF9091E8008150F7
:1016B00095FD06C095ED9A95F1F700008111F5CFE3
:1016C0008091E80085FF0DC050E040E063E070E0ED
:1016D000CE0101960E9492038091E8008E7780935C
:1016E000E8000F900F900F90DF91CF911F910F9115
:1016F0000895CF93DF9300D00F92CDB7DEB720913E
:10170000F102243031F523E02983805891099B832D
:101710008A8382E08093E9008FEF9091E800815006
:1017200095FD06C095ED9A95F1F700008111F5CF72
:101730008091E80085FF0DC050E040E063E070E07C
:10174000CE0101960E9492038091E8008E778093EB
:10175000E8000F900F900F90DF91CF910895CF93F5
:10176000DF93EC010E94CC04823011F08430F9F454
:1017700082E08093E9008FEF9091E800815095FD21
:1017800006C095ED9A95F1F700008111F5CF809193
:10179000E80085FF0CC050E040E066E070E0CE015C
:1017A0000E9492038091E8008E778093E800DF9199
:1017B000CF910895CF93DF93EC010E94CC04823047
:1017C00011F08430B9F5809115018823B1F1809131
:1017D000A00287FF32C060E282E08093E9008FEFD1
:1017E0009091E800815095FD06C095ED9A95F1F72E
:1017F00000008111F5CF8091E80085FF1BC080912A
:10180000150170E050E040E0811104C050E040E07C
:1018100068E070E0CE010E9492038091E8008E772C
:101820008093E80080E2FE01AFECB2E001900D92FF
:101830008A95E1F7DF91CF91089568E081E0CDCFFF
:10184000EF92FF920F931F93CF93DF930E949B0A17
:101850000E94980A0E94950A0E94920A88E8E82E3F
:10186000F12C8FEF90E0F701918380830AE810E07C
:10187000F80191838083CCE8D0E0998388830E942B
:10188000A40AFFEF20E782E0F15020408040E1F71A
:1018900000C000000E94A10A9FEFE0E7F2E0915033
:1018A000E040F040E1F700C000000E949E0A2FEFE8
:1018B00080E792E0215080409040E1F700C00000B6
:1018C0000E94980AEFEFF0E722E0E150F04020405C
:1018D000E1F700C000000E94950A8FEF90E7E2E078
:1018E00081509040E040E1F700C000000E94920A61
:1018F00080918E028770FFEF8F9FC0011124959514
:101900008795959587959927F70191838083F801AD
:1019100091838083998388830E949B0A0E94980AFE
:101920000E94950ADF91CF911F910F91FF90EF9048
:101930000C94920A60918A028CE090E00C9440230F
:101940006FEE7EEF90E080E00E945E2360E082E038
:1019500090E00E94402360E083E090E00E944023FA
:1019600010927F02109280021092810210928202E5
:1019700060E084E090E00E94402360E081E290E03B
:101980000E94402360E085E090E00E94402360E0F8
:1019900086E090E00E9440236FEF87E090E00E9495
:1019A000402340E050E0BA0188E090E00E945223DA
:1019B00060E08DE090E00E94402340E050E0BA01FA
:1019C00088E190E00E94522360E087E190E00E946D
:1019D000402340E050E0BA018CE190E00E945223A5
:1019E00060E080E290E00E94402310928E0210920C
:1019F0008F02109290021092910284E08061809395
:101A00008E0240918E0250918F02609190027091EF
:101A100091028FE090E00E94522340E050E0BA0132
:101A200083E190E00C945223CF93C82F873070F558
:101A30008091090190910A01892B89F564E670E093
:101A400080E40E94142290930A0180930901892B5B
:101A5000D1F464E670E082E10E94702290930A0162
:101A600080930901892B79F481E090E001C0880F0F
:101A7000CA95EAF764E670E080950E947022909320
:101A80000A0180930901CF910C94C3228A30B9F0E6
:101A900040F4883071F0893079F0209A2898CF91FD
:101AA00008958C3091F070F08D30B9F73E9A4698D9
:101AB000F6CF219A2998F3CF229A2A98F0CF239A29
:101AC0002B98EDCF529A5A98EACF539A5B98E7CF6A
:101AD00080E290E090930A01809309018091E701F0
:101AE00081110EC00E940E2281E08093E7012FEF4A
:101AF00083ED90E3215080409040E1F700C000006A
:101B000064E670E080E40E94142290930A018093BE
:101B10000901892B09F04EC064E670E080E00E9464
:101B2000702290930A0180930901892B09F042C029
:101B300064E670E080E00E94702290930A01809336
:101B40000901892BB9F564E670E08FE30E947022E9
:101B500090930A0180930901892B61F50E94C322A9
:101B600064E670E080E40E94142290930A0180935E
:101B70000901892BF9F464E670E08CE00E94702280
:101B800090930A0180930901892BA1F464E670E027
:101B900080E00E94702290930A0180930901892BB2
:101BA00049F464E670E08FE30E94702290930A018A
:101BB000809309010E94C322809109010895CF9367
:101BC000873008F040C08091090190910A01C0E07F
:101BD000892B71F464E670E080E40E9414229093F3
:101BE0000A0180930901892B31F0C0E00E94C322D1
:101BF0008C2FCF91089564E670E083E10E947022FB
:101C000090930A0180930901892B79F764E670E0CB
:101C100081E40E94142290930A0180930901892B88
:101C200021F784E690E00E949F2297FF05C09093E1
:101C30000A0180930901D9CFC82FC09510920A01DB
:101C400010920901D3CFCFB18FB1869586958C7351
:101C5000C3708C2BC82FC095CBCF78941F921FB622
:101C60001F9211248F939F93AF93BF938091830210
:101C700090918402A0918502B09186020196A11DE7
:101C8000B11D8093830290938402A0938502B09348
:101C90008602BF91AF919F918F911F901FBE1F90A1
:101CA00018952FB7F8948091830290918402A091A7
:101CB0008502B09186022FBF0895E091A202F091B3
:101CC000A302309749F082E08093B3020480F5814B
:101CD000E02D83EB92E009950E94510E9093BB0298
:101CE0008093BA02089510927C0210927B020E94A7
:101CF000140686E0E3EBF2E0DF011D928A95E9F736
:101D00001092B902109287020E945D0E90E080E06E
:101D10000E94590790E080E00C9443070E94A70AB4
:101D200060937602709377028093780290937902A1
:101D30000C94730E0F931F9341E050E060E070E04D
:101D400004C0440F551F661F771F8A95D2F7CB0139
:101D5000BA016095709580959095009176021091EA
:101D600077022091780230917902602371238223D7
:101D700093231F910F910C948E0E90917A0280956F
:101D8000892380937A02282F277071F4282F082E38
:101D9000000C330B9217130639F0859585958595C0
:101DA0000E949A0E10927A0208950F931F9341E0B9
:101DB00050E060E070E004C0440F551F661F771FBD
:101DC0008A95D2F78091760290917702A09178025D
:101DD000B09179028A019B01082B192B2A2B3B2BEE
:101DE000C901B8011F910F910C948E0E60937F0270
:101DF0007093800280938102909382020C94730E00
:101E000010927D0280911501E6ECF1E0882359F0F3
:101E10008091A00287FF07C08EE1DF011D928A95A5
:101E2000E9F70C94730E86E0F8CF1F93CF93DF93FE
:101E3000CDB7DEB7AA970FB6F894DEBF0FBECDBF01
:101E400083EF92E02091F100FC012193CF01F2E0B9
:101E50008B3F9F07B9F78091F402833009F46FC07C
:101E6000B8F4813009F446C0823009F4B0C08091E2
:101E7000E80083FF87C28091F3029091F4029A30C8
:101E800008F080C2E92FF0E0EB5AF84D0C94EF22F5
:101E90008A3009F48BC08B3009F46EC0893039F771
:101EA0008091F302813219F78091F7029091F80244
:101EB0000297E8F68091E800877F8093E8008091A0
:101EC000E80082FF37C09091F3008091F200029702
:101ED00029F48091F1008B7F813021F48091F10011
:101EE0008093CE028091E8008B778093E8000E9477
:101EF000BC03BDCF8091F302813A09F0B8CF809145
:101F0000E800877F8093E8008091F7029091F802C3
:101F1000892B61F460E28FEC92E070E00E946E0425
:101F20008091E8008B778093E800A1CF60E090E09B
:101F300080E0F3CF8091F1028111C1CF98CF8091E1
:101F4000F302813A09F093CF8091F7029091F80261
:101F5000892B09F08CCF8091E800877F8093E8007F
:101F60008091E80080FFFCCF809115018093F10003
:101F70008091E8008E77B9CF8091F302813209F029
:101F800076CF8091F7029091F802892B09F06FCFFC
:101F90008091E800877F8093E8000E94BC038091D5
:101FA000F502809315010E94000F61CF8091F3022A
:101FB000813209F05CCF8091E800877F8093E80050
:101FC0000E94BC038091F6028093CD0250CF809195
:101FD000F302813A09F04BCF8091E800877F80932C
:101FE000E8008091E80080FFFCCF8091CD02BECF59
:101FF000803899F0823809F0C5C18091F7028F705E
:10200000873008F0BFC18093E9008091EB0085FB29
:10201000882780F91092E90006C08091EF02909124
:10202000F002911182609091E800977F9093E80010
:102030008093F1001092F1008091E8008E779EC1AC
:10204000882309F48CC1823009F09CC18091F5028B
:1020500081118FC18091F7028F702FEF280F2630EA
:1020600008F090C18093E9002091EB0020FF81C12E
:10207000933031F48091EB0080628093EB0079C162
:102080009091EB0090619093EB0021E030E001C073
:10209000220F8A95EAF72093EA001092EA008091D5
:1020A000EB008860EACF81116DC11091F5021F77B6
:1020B0008091E3008078812B8093E3008091E80099
:1020C000877F8093E8000E94BC038091E80080FF36
:1020D000FCCF8091E30080688093E30082E01111DF
:1020E00083E08093F1024EC18058823008F04AC1EB
:1020F0008091F5029091F6028C3D23E09207A1F5C4
:1021000083E08A838AE289834FB7F894DE011396CD
:1021100020E03EE051E2E32FF0E050935700E491DD
:1021200020FF03C0E295EF703F5FEF708E2F90E0CD
:10213000EA30C0F0C7968D939D932F5F243159F7F5
:102140004FBF8091E800877F8093E8006AE270E0EB
:10215000CE0101960E946E048091E8008B778093F7
:10216000E80010C1C096E7CF4091F7025091F80205
:10217000292F33272330310509F445C078F5213064
:10218000310509F47BC08BE390E0ECECF5E0223004
:10219000310509F0F7C02091E800277F2093E8007F
:1021A0002091F9023091FA028217930708F49C01FA
:1021B00040E02115310509F070C041116EC08091D9
:1021C000E80082FDC9CF8091F102882329F2853091
:1021D00019F28091E80083FFF2CFBECF21323105A2
:1021E00009F440C02232310509F0CCC04115510537
:1021F00009F44EC04130510509F0C4C080EC90E0B4
:10220000ECECF4E0C8CF992781309105D9F0009724
:1022100071F082309105F1F0039709F0B3C0E9E164
:10222000F6E0E4918E2F90E0E9E1F6E007C0E1E40A
:10223000F6E0E4918E2F90E0E1E4F6E0009709F4F7
:10224000A1C0A9CFE7E3F6E0E4918E2F90E0E7E3A9
:10225000F6E0F4CFEFE1F6E0E4918E2F90E0EFE1CD
:10226000F6E0ECCF4115510571F04130510509F010
:1022700089C089E090E0E7EFF5E08DCF82E190E062
:10228000E7E0F6E088CF89E090E0EEEDF5E083CF7F
:1022900080E490E0ECE8F5E07ECF8091F1028823C5
:1022A00009F45ACF853009F457CF8091E80083FDB7
:1022B00053CF8091E80082FD82CF8091E80080FFBB
:1022C00078CF9091F3008091F2002115310519F03B
:1022D0008830910550F041E0089709F040E0809186
:1022E000E8008E778093E80064CF44914093F1003A
:1022F0003196215031090196E8CF803809F042C06B
:102300008091E800877F8093E8008091F2028093BB
:10231000F10092CE811136C01091F502123090F585
:102320008091E800877F8093E8001093F2020E947A
:10233000BC03112311F084E005C08091E30087FD08
:10234000FACF81E08093F10242E061EC81E00E94EB
:10235000DB0342E261EC82E00E94DB0313C0809168
:10236000F502813079F481E0933009F080E08093C8
:10237000F0021092E9008091E800877F8093E800E6
:102380000E94BC038091E80083FF0AC08091E800AE
:10239000877F8093E8008091EB0080628093EB0060
:1023A000AA960FB6F894DEBF0FBECDBFDF91CF91D6
:1023B0001F9108951F920F920FB60F9211242F9321
:1023C0003F934F935F936F937F938F939F93AF93BD
:1023D000BF93CF93DF93EF93FF93D091E900DF702A
:1023E0008091EC00C82FC17080FDC0E81092E90018
:1023F0008091F000877F8093F00078940E94150F01
:102400001092E9008091F00088608093F000CD2B5D
:10241000CF70C093E900FF91EF91DF91CF91BF9111
:10242000AF919F918F917F916F915F914F913F916C
:102430002F910F900FBE0F901F9018951F920F9223
:102440000FB60F9211242F933F934F935F936F9387
:102450007F938F939F93AF93BF93EF93FF9380915D
:10246000E10082FF09C08091E20082FF05C08091F7
:10247000E1008B7F8093E1008091DA0080FF24C02F
:102480008091D80080FF20C08091DA008E7F8093F9
:10249000DA008091D90080FF9FC080E189BD82E190
:1024A00089BD09B400FEFDCF81E08093F1028091E7
:1024B000CC02811109C00E9442030E940D04809148
:1024C000E20084608093E2008091E10080FF17C009
:1024D0008091E20080FF13C08091E2008E7F8093A4
:1024E000E2008091E20080618093E2008091D80058
:1024F00080628093D80019BC85E08093F1028091BE
:10250000E10084FF2DC08091E20084FF29C080E1BA
:1025100089BD82E189BD89B5982F917080FFFBCF7D
:102520008091D8008F7D8093D8008091E1008F7ECC
:102530008093E1008091E2008F7E8093E2008091A1
:10254000E20081608093E2008091F202882309F426
:1025500049C084E08093F1020E94000F0E946F073F
:102560008091E10083FF27C08091E20083FF23C0B8
:102570008091E100877F8093E10082E08093F10207
:102580001092F2028091E1008E7F8093E1008091B1
:10259000E2008E7F8093E2008091E2008061809370
:1025A000E20042E060E080E00E94DB038091F00006
:1025B00088608093F000FF91EF91BF91AF919F9160
:1025C0008F917F916F915F914F913F912F910F90DC
:1025D0000FBE0F901F90189519BC1092F102109227
:1025E000CC0272CF8091E30087FD93E09093F102DB
:1025F000B3CF882309F459C0823871F40E946F0761
:1026000081FF53C089E30E9484060E94140689E377
:102610000E9459060C941406833859F40E946F07DF
:1026200080FF43C083E50E9484060E94140683E570
:10263000EFCF843859F40E946F0782FF36C087E4D9
:102640000E9484060E94140687E4E2CF9CEF980F54
:10265000913AF0F290E2980F983088F4877021E078
:1026600030E0A90102C0440F551F8A95E2F7CA0164
:10267000809590917D02892380937D02CBCF9BE54D
:10268000980F933020F490E080E00C94590798E57F
:10269000980F973120F490E080E00C944307803F3E
:1026A00020F00E94D7040C945D0E0895CF93DF9321
:1026B000EC010E94F91269E177E0CE01DF91CF9140
:1026C0000C945B0A882309F408C18238B9F40E948B
:1026D0006F0781FD02C189E30E9484060E941406EF
:1026E0002FEF81EE94E0215080409040E1F700C050
:1026F000000089E30E9459060C9414068338A1F463
:102700000E946F0780FDE9C083E50E9484060E9455
:1027100014062FEF81EE94E0215080409040E1F7C5
:1027200000C0000083E5E6CF8438A1F40E946F0763
:1027300082FDD3C087E40E9484060E9414062FEF16
:1027400081EE94E0215080409040E1F700C000000D
:1027500087E4D0CF9CEF980F913A18F40E9484063A
:10276000CBCF90E2980F983068F4877021E030E08A
:1027700001C0220F8A95EAF780917D02822B809317
:102780007D02BACF9BE5980F933070F4853A31F013
:10279000863A39F083E890E00C94590781E890E09C
:1027A000FBCF82E890E0F8CF98E5980F973108F0DA
:1027B0008EC0883A09F446C0893A09F446C08A3A7C
:1027C00009F446C08B3A09F446C08C3A09F446C075
:1027D0008B3B09F446C08C3B09F446C08D3A09F4A2
:1027E00046C0803B09F446C08E3A09F446C08F3A91
:1027F00009F446C0813B09F446C0823B09F446C057
:10280000833B09F446C0843B09F446C0853B09F488
:1028100046C0863B09F446C0873B09F446C0883B66
:1028200009F446C0893B09F446C08D3B09F446C013
:102830008E3B09F446C08A3B09F446C090E080E034
:102840000C94430782EE90E0FBCF89EE90E0F8CF46
:102850008AEE90E0F5CF85EB90E0F2CF86EB90E04A
:10286000EFCF83EB90E0ECCF84EB90E0E9CF87EB08
:1028700090E0E6CF8CEC90E0E3CF8DEC90E0E0CF01
:1028800083E891E0DDCF8AE891E0DACF82E991E058
:10289000D7CF84E991E0D4CF81E292E0D1CF83E237
:1028A00092E0CECF84E292E0CBCF85E292E0C8CF37
:1028B00086E292E0C5CF87E292E0C2CF8FE690E059
:1028C000BFCF80E790E0BCCF8AE292E0B9CF803FF3
:1028D00020F00E947C050C945D0E0895CF93C82FC4
:1028E0000E946213C93349F42FEF87EE93E0215021
:1028F00080409040E1F700C000008C2FCF910C94F5
:10290000F912CF93C82F64E277E00E945B0A8C2F04
:10291000CF910C946213CF93DF93C091FD01D091BE
:10292000FE012097E1F08091FF01909100020E944A
:10293000E40520910701309108012817390790F428
:10294000D260CE010E948114CE010E9456131092D3
:1029500000021092FF011092FE011092FD01DF9122
:10296000CF9108958C2F0E946E14F1CF0F931F9377
:10297000CF93DF93C62FD42F022FFC0182818823AF
:10298000A1F0609301020E94510E9093E90180939F
:10299000E801C77081E001C0880FCA95EAF7DF91AE
:1029A000CF911F910F910C943907109101021613CA
:1029B00035C08091E8019091E9010E94E4058639D3
:1029C000910560F5C0E2CD0F1D17B9F080E2810FCF
:1029D000883040F4177081E001C0880F1A95EAF73B
:1029E0000E942E07C83048F481E09D2F977001C0E7
:1029F000880F9A95EAF70E943907802F0E946E147B
:102A0000C83098F4D77081E001C0880FDA95EAF7F2
:102A1000DF91CF911F910F910C942E07C77081E029
:102A200001C0880FCA95EAF7F3CFDF91CF911F91CC
:102A30000F9108954F925F926F927F928F929F9223
:102A4000AF92BF92CF92DF92EF92FF920F931F93BC
:102A5000CF93DF93CDB7DEB728970FB6F894DEBFDC
:102A60000FBECDBF6C01FC0183819481892B39F0AD
:102A70001081B180812F8B218F3F09F0BBC6289632
:102A80000FB6F894DEBF0FBECDBFDF91CF911F917F
:102A90000F91FF90EF90DF90CF90BF90AF909F90FD
:102AA0008F907F906F905F904F9008950E94EB09F8
:102AB000082F682F89819A810E94E106E12FF0E0BA
:102AC00026E0B29EE00DF11D112434E5039FE00DD8
:102AD000F11D1124EE0FFF1FE455FF4F05911491D6
:102AE00009308DE51807F1F5F6018281882309F494
:102AF0004EC080918E0291E0980F9770887F95303C
:102B000008F4892B80938E0280918E028770FFEFEC
:102B10008F9FC00111249595879595958795992745
:102B2000909389008093880090938B0080938A0013
:102B300090938D0080938C0040918E0250918F0273
:102B400060919002709191028FE090E00E94522378
:102B5000609176027091770280917802909179026B
:102B60000E94A70AF6018281882389F0033EFCE5D2
:102B70001F0709F4A3C008F08DC0013E3CE5130710
:102B800009F495C0023E8CE5180709F495C017FFBB
:102B900052C0F6018281882309F4BDC080917D0274
:102BA0008093FC0110927D0280918A02813009F4A9
:102BB0008DC0882309F486C0823009F490C0843027
:102BC00009F494C08FE39CE90197F1F700C000007D
:102BD0004801E89497F84CE0A42EB12C94010A2CFB
:102BE00002C0369527950A94E2F72F7087E290E0AD
:102BF00031F0822F90E02A3008F07DC04D960E947F
:102C00006E1494E0A91AB108ECEFAE16EFEFBE0611
:102C100029F780918A02813009F473C0882309F46E
:102C20006CC0823009F469C0843009F46EC08091B0
:102C3000FC0180937D02F6018281882309F46BC038
:102C40000436110571F008F081C00B32110549F00E
:102C5000C8010C32110508F05AC00497849708F097
:102C60005AC00E948B1480910601882309F49BC0EE
:102C700080917D02811197C00E94510E90930002B5
:102C80008093FF011093FE010093FD0182E00E94FA
:102C9000BD0EF5CE043E9CE5190791F084E0053E9B
:102CA000ECE51E0709F073CF80938A0202C01092F0
:102CB0008A020E949A0C6BCF81E0F6CF82E0F4CFBB
:102CC00083E0F2CF82EE0E9462137CCF88E193E032
:102CD0000E94811488E193E00E94561373CF82EE24
:102CE0000E94621387E50E946E146CCF86EE0E94EC
:102CF0006E1488E1F8CF069782CF82EE0E94F91217
:102D000096CF8CE20E946E1492CF88E2FBCF8D9713
:102D10000C9708F4A6CF0E948B14033F2CE51207F2
:102D200009F409C108F0F2C0083D8CE5180709F460
:102D3000FEC0093D9CE5190709F409C1073DECE512
:102D40001E0789F526E241EE61EEEDC00931FCE592
:102D50001F0709F473C070F407313CE51307D1F085
:102D600008318CE51807B9F68091070190910801A8
:102D7000059715C00B319CE5190709F4C3C008F489
:102D8000BDC00C31FCE51F0731F6109206010E9410
:102D90008B1409C0809107019091080105969093CA
:102DA000080180930701F6018281882309F4B6C1E6
:102DB000109201020230FCE51F0708F4A5C106319C
:102DC0002CE5120738F098012A5F3C452730310581
:102DD00008F09AC10E94300B9093A1028093A00248
:102DE0000F303CE5130709F470C108F0EAC0083061
:102DF0009CE5190709F453C108F0BFC00430FCE595
:102E00001F0709F440C108F0A5C002303CE51307D4
:102E100009F431C103301C4509F431C16091A002AD
:102E20001091A10284E090E00E944023612F81E292
:102E300090E00E9440230E94000F21CE8091080163
:102E40008F93809107018F9386E191E09F938F93F9
:102E50001F9288E08F93FF92EF920E949F240FB6FB
:102E6000F894DEBF0FBECDBFF7012081222309F405
:102E70009ACF5701FFEFAF1ABF0A213049F4F7018B
:102E8000F1808F2D0E9462138F2D0E94F91206C0CF
:102E9000223049F4F70181810E9462137501FFEF2E
:102EA000EF1AFF0AE1CF233019F4F7018181EDCF4A
:102EB00030E0F901E45BFB4F9490F901E453FC4FDF
:102EC000A490F901E45BFC4FB490AA2019F081EEC4
:102ED0000E946213BB2019F086EE0E946213892DB6
:102EE0000E946E14BB2019F086EE0E94F912AA20EF
:102EF00019F081EE0E94F9125701D0CF809106019E
:102F0000811143CF81E0809306014DCF053FFCE561
:102F10001F07C9F0A0F027E245EE66EE063F3CE54C
:102F2000130709F040CFC6010E94B614A8CD27E2CE
:102F300045EE65EEF8CF26E241EE60EEF4CF27E2F3
:102F400045EE64EEF0CF26E241EE62EEECCF28E2F1
:102F500041E0EFCF8091A002806106309CE5190727
:102F600009F447C08091A002886007301C4508F42E
:102F700040C08091A00280623CC00B30FCE51F077E
:102F800009F49BC068F409303CE5130709F48BC0D1
:102F90000A301C4509F042CF8091A0028C6029C004
:102FA0008091A0028B7F0D309CE5190711F1809173
:102FB000A0028D7F0E301C45E0F08091A002877F3B
:102FC00018C00A3FFCE51F0709F461C060F5023133
:102FD0003CE5130709F481C078F400319CE519073A
:102FE00009F477C08091A0028F7B01311C4509F064
:102FF00015CF8093A00212CF0431FCE51F0709F41E
:103000007AC008F470C005311C4509F007CF8091E3
:10301000A00282FB992790F921E0922790FB82F988
:1030200090FB83F9E6CF0D3F8CE5180709F449C002
:1030300070F40B3FECE51E0771F18091A1028E7FC9
:103040000C3F1C4509F0EACE8093A102E7CE0F3F6A
:103050002CE5120709F44BC060F101151D4509F07C
:10306000DDCE8091A102982F909591708E7F892B53
:1030700090FB81F9E9CF8091A0028160BACF809165
:10308000A0028260B6CF8091A0028460B2CF80910E
:10309000A1028160D9CF8091A1028260D5CF8091B9
:1030A000A0028064A6CF0E94000F8091A0028068D9
:1030B000A0CF8091A1028360C7CF8091A0028E7FB4
:1030C00098CF8091A1028D7FBFCF8091A0028F7E8B
:1030D00090CF8091A0028F7D8CCF0E94000F8091B5
:1030E000A0028F7786CF8091A002837F82CF8091CC
:1030F000A1028C7FA9CF0E94000F9091A002892F7E
:1031000097FB87F9805875CF01159CE5190709F4DD
:1031100048C00E3DECE51E0709F480C006311C4591
:1031200009F47FC0F60100811181882309F497C05A
:10313000C8010E94EB09F82E682FC8010E94E10621
:10314000B8018F2D0E94BE078C01B82EF601E580D4
:10315000E2943FE0E322F280F11010927C02809131
:103160007A02877079F0FF2069F080E2800F883062
:1031700048F082E00E94BD0E80917A028770AA24F6
:10318000A3948111A12C912E92942FE09222FBE026
:10319000F91508F49EC0E92DF0E0E15AF84D0C94C1
:1031A000EF220E94000FFFEF24E33CE0F1502040AB
:1031B0003040E1F700C00000F89481E08093E00027
:1031C00080E28093D8001092C9008FE19EE40197BD
:1031D000F1F700C000001DBA109268001CBC10BEC0
:1031E0001FBA10927A0010926E0010926F00109227
:1031F0007100109272001092C9001092BC0014B8B5
:1032000017B81AB81DB810BA1092BC0015B818B883
:103210001BB81EB811BA0C94003F31CC0E94A00C10
:103220002ECC882391F080917D028A7A91E009F476
:1032300090E090930202811106C089E20E94840608
:103240000E9414061CCC85E3F9CF80910202811103
:1032500004C089E20E945906F3CF85E3FBCFC80181
:103260000E94B806F82E6CCF212F2F70E22E107F0F
:1032700019F0E29490EFE922FF20C9F0EE2069F006
:1032800080E2800F883010F0B1100BC080917D0279
:10329000E82AE0927D020E941406802F0E946213A9
:1032A00018C080917C02E82AE0927C02F4CF802F43
:1032B0000E94F912EE2069F0E094005E083010F0F0
:1032C000B11028C080917D02E822E0927D020E9428
:1032D0001406292D2850330B2430310510F40E9498
:1032E0006F07AA2009F4CBCB80917A0280FDC7CB6F
:1032F000F60112828595859585950E94D50EC601A9
:103300000E941A1580917A028595859585950E946F
:103310009A0EB5CB80917C02E822E0927C02D7CF56
:10332000312F3F70832E107F103219F0829480EF7E
:103330008822802FBB2041F091E0B91631F1FF20A7
:1033400079F1EE2041F1A9CFFF2091F090917E021A
:10335000882D892BE11003C00E943907BACFE1E024
:10336000EE12FACF891709F4B4CF80937E02B1CF61
:10337000E11006C00E940E06882D0E942E07A9CFDC
:10338000F1E0EF1609F4A5CFF5CFFF2031F021E0F1
:103390002E1508F49ECF882DDFCFE1109ACFECCF09
:1033A000EE2051F3893349F43FEF87EE93E031503B
:1033B00080409040E1F700C00000802F0E94F91289
:1033C00088CF812F86958695837061F0813009F0D2
:1033D00080CFC8019370F11002C090E080E00E949D
:1033E000430777CFC8019370F11002C090E080E0EE
:1033F0000E9459076ECFFF2009F1053F99F0063F63
:10340000B9F0043F49F48091030290910402816075
:103410009093040280930302802F0E947C050E94F7
:103420005D0E57CF80910302909104028260F0CF2D
:1034300080910302909104028460EACF053F89F0F5
:10344000063FA9F0043F49F48091030290910402E1
:103450008E7F9093040280930302802F0E94D704F2
:10346000DECF80910302909104028D7FF2CF809194
:103470000302909104028B7FECCF812F837009F0BF
:1034800066C0F11026CF802F829586958770880FB1
:10349000880F602F6F70462E512C712C612C082ED6
:1034A00004C0440C551C661C771C0A94D2F740E0FB
:1034B00050E0BA0104FF0FC04FE050E060E070E060
:1034C00004C0440F551F661F771F8A95D2F7409599
:1034D000509560957095812F869586958370823082
:1034E00019F1D8F400917F0210918002209181029D
:1034F00030918202813069F0442955296629772963
:10350000CB01BA0160237123822393230E94F60E1C
:10351000E0CE402A512A622A732ACB01BA016429DB
:10352000752986299729F2CF4429552966297729B3
:1035300000917F02109180022091810230918202DD
:10354000CB01BA016027712782279327DFCF8695A9
:10355000FF2011F0812F8170882309F4BACE802FCB
:10356000829586958770880F880F602F6F70462E22
:10357000512C712C612C082E04C0440C551C661C67
:10358000771C0A94D2F740E050E0BA0104FF0FC064
:103590004FE050E060E070E004C0440F551F661F2C
:1035A000771F8A95D2F74095509560957095812F39
:1035B000869586958370823019F1D8F40091760251
:1035C000109177022091780230917902813069F070
:1035D0004429552966297729CB01BA016023712333
:1035E000822393230E948E0E74CE402A512A622A8F
:1035F000732ACB01BA016429752986299729F2CF4C
:10360000442955296629772900917602109177027D
:103610002091780230917902CB01BA01602771279D
:1036200082279327DFCF1F70FF2029F0812F0E9470
:10363000D50E802F91CE802F0E942E07812F0E94C1
:103640009A0E47CE802FE2EFBE1609F44EC0EB155E
:1036500078F0F0EFBF1619F121EFB21609F43DC072
:10366000FF2009F465C0E11018CE812F8F713AC098
:1036700033EFB31609F43EC094EFB912F1CFFF2037
:1036800009F44BC01F71812F0E94D50EF8E01F9FD7
:10369000C0011124836080937A02812F23C0FF2010
:1036A000B9F0E11016CE1F7161E070E080E090E0AB
:1036B00004C0660F771F881F991F1A95D2F70091D3
:1036C0007602109177022091780230917902A6CF8C
:1036D000E1E0EE1508F4FDCDE6CF812F8F71FF20DC
:1036E00009F4ADCF0E94D50EF4CD812F8F71FF204C
:1036F000C9F3A5CF60E070E0CB01FF2009F472CFE1
:103700001F7161E070E080E090E004C0660F771FF9
:10371000881F991F1A95D2F765CF81E00E94BD0ED0
:1037200021E02E1508F0D5CD82E00E94BD0ED1CD4E
:10373000E11038CE812F8F7182CFE2EFBE16D1F12A
:10374000EB1500F1F0EFBF1649F121EFB216D1F100
:1037500080910502EE2009F441C0882341F0809158
:10376000060291E089278093060210920502802FBD
:10377000F11094CD0E94F91286E0F60111928A951B
:10378000E9F7A7CD34EFB316C1F0B31688F085EF93
:10379000B812DECFF1109DCD81E007C0FF2009F403
:1037A00098CD8091060291E089278093060291CD01
:1037B00081E0F826F09206028CCDF1108ACD1092AD
:1037C000060287CDFF2039F080910502882349F356
:1037D000109205027ECDEE2021F37BCD882309F4E3
:1037E00078CDF11076CD8091060291E08927809303
:1037F0000602EECF85E09E012F5F3F4F7901D90190
:1038000001900D928A95E1F7F601228189819A81D2
:1038100021114CC90E94B806082F50C91F93CF939D
:10382000DF9380910C02807FC1F48091090288238C
:10383000A1F080913E02C0910D026091070270914B
:10384000080240910A0250910B02D62FD723DA01C9
:10385000A095B09516E0C81304C0DF91CF911F91D9
:10386000089590E04115510511F0DF3F31F40196C4
:103870008770F1CF2A0F3B1F17C0189FF001199FC7
:10388000F00D1124E25FFD4F21812713F0CF20813D
:103890002613EDCF22812111EACF23813481241711
:1038A000350740F3241B350B2639310500F72091ED
:1038B0000C022F70206120930C0226E0289FF0015B
:1038C000299FF00D1124ED5EFD4F80818F70806186
:1038D000808387E092E00E941A15DF91CF911F91BB
:1038E0000C940F07BF92CF92DF92EF92FF920F934B
:1038F0001F93CF93DF93CDB7DEB761970FB6F894E0
:10390000DEBF0FBECDBF8C0185E0F801DE011D9644
:1039100001900D928A95E1F7D8012C9111963C9176
:1039200011971296EC90129780910A0290910B02D7
:10393000009709F463C14091070250910802642F77
:1039400065236F3F09F45AC11396CD90DC90B09077
:103950000902BB2009F413C1C816D906C0F1F6014B
:10396000E81BF90BCF01FF24F3948639910508F089
:10397000F12C80910C02982F907FFF2009F4C1C098
:1039800091117DC0FE2C531327C0421325C0E110B6
:1039900023C08F70806180930C0287E092E00E94C8
:1039A0001A1580910C02D80115968C938F2D619673
:1039B0000FB6F894DEBF0FBECDBFDF91CF911F9140
:1039C0000F91FF90EF90DF90CF90BF90089580957A
:1039D00090958C0D9D1DC7CFCD2829F0822F832374
:1039E0008F3F09F035C180E0B82FB170DB2E80FF2A
:1039F0003CC080913E0240910D0256E0841315C0F8
:103A00002D873E878D859E850E942D0A292F229520
:103A10002F702230F0F0243018F59F70F1F0F8018B
:103A20009581907FD1F4D12C1EC090E0589FF00179
:103A3000599FF00D1124E25FFD4F6181361306C0DE
:103A40006081261303C06281E6120FC00196877061
:103A5000D5CF9F7011F0882331F3805E883018F342
:103A6000C8010E941A15FD2CA1CFEE2009F49ECFAB
:103A700080910C02816080930C02F12C97CF53133C
:103A800013C0421311C0E1100FC0D80115968C93DA
:103A9000C8010E941A1586E0F801A7E0B2E0019083
:103AA0000D928A95E1F782CF2D873E878D859E8581
:103AB0000E94370A882309F1EE20F9F080910C0268
:103AC000803270F0209107023091080238872F83EE
:103AD0001986DB86CA868C87CE0107960E941A1546
:103AE00086E0F801A7E0B2E001900D928A95E1F737
:103AF0000E940E1CFF24F39459CFC8010E941A158E
:103B0000F9CF91110CC087E092E00E941A1586E06F
:103B1000E7E0F2E0DF011D928A95E9F747CF531302
:103B200012C0421310C0E1100EC0F8018583C80115
:103B30000E941A15E7E0F2E086E0DF011D928A9507
:103B4000E9F7FB2C33CF2D873E878D859E850E941C
:103B5000370A882391F2EE2081F280910C028032A4
:103B600008F4BECF20910702309108023A832983DE
:103B70001B82DD82CC828E83CE010196AFCFC81628
:103B8000D90640F0C81AD90AB6E9CB16D10448F0D4
:103B9000F12CBDCF809590958C0D9D1D863991059A
:103BA000B8F7FE2CEE2009F4A8CF531316C0421329
:103BB00014C080910C0280FD6ECF982F907F09F485
:103BC0006ACFF8018583903F09F462CF982F907FE8
:103BD000905F8F70892B85835BCF2D873E878D8586
:103BE0009E850E94370A81117BCF80910C028160F3
:103BF00080930C02C8010E941A15D8CEEE2009F459
:103C00007CCF2D873E878D859E850E94370AF82EB2
:103C1000882309F472CF86E0F801A7E0B2E00190B2
:103C20000D928A95E1F780910702909108020E9417
:103C30002D0A92959F70963041F48091060291E092
:103C4000892780930602909305020E940E1CAECE37
:103C500081E08E25C9CE1F93CF93DF93CDB7DEB71A
:103C600067970FB6F894DEBF0FBECDBF6D8B7E8B0E
:103C70008F8B8E899F89892BE1F0852F84238F3F3D
:103C800009F098C05FEF4FEF14C030910602332364
:103C900009F44EC0E42FF0E036E0539FE00DF11D33
:103CA0001124EE0FFF1FE55EFE4F40815181822BF4
:103CB0008C931A8A198A4B8B5C8B85E0FE01739674
:103CC000DE011D9601900D928A95E1F786E0FE01D6
:103CD0003D96DE01179601900D928A95E1F7CE018F
:103CE00007960E94721C811112C086E0FE01379671
:103CF000DE01119601900D928A95E1F78A859B85E8
:103D0000892B29F08F81988589238F3FC9F516E08B
:103D100080913E0290910D02891320C067960FB6E4
:103D2000F894DEBF0FBECDBFDF91CF911F910895F4
:103D300080958223BDCF96E0929FD001939FB00DD6
:103D40001124A25FBD4FFE01319601900D929A950C
:103D5000E1F780930D020E940F07D9CF819FC00128
:103D60001124825F9D4F0E94721C8823B9F28091BA
:103D70003E0290E001968770992780933E02C8CF5B
:103D800020910D0230E0C90101968770992740917A
:103D90003E024817190679F60E94000F10920D0294
:103DA00010923E0286E0E7E0F2E0DF011D928A9584
:103DB000E9F7ADCF81E090E0042E01C0880F0A94AE
:103DC000EAF7A52FB0E0A251BE4F2C913D893111E9
:103DD0005CCF322F38235BCF8F929F92AF92BF92EE
:103DE000CF92DF92EF92FF920F931F93CF93DF93C7
:103DF0008091090190910A01892B91F08091E6014F
:103E00008F5F8093E60181110BC00E94680D90E0E6
:103E100090930A0180930901892B11F40E94200CD0
:103E200002E912E07801C0E0912C37E0C32ECC0EFD
:103E30008C2F0E94140D8C2D0E94140D8C2F0E942B
:103E4000DF0DD7019D917D01D12C891729F0FD014E
:103E500031978083DD24D3948C2D0E94DF0DF701F0
:103E60009681891709F466C0868381E08D29982A96
:103E70000E941A0BCF5FC730C1F60E94510E6AEF45
:103E800070E00E94C722882ED091E501DD2309F45D
:103E90005DC01092E501E0918802F09189027F01F6
:103EA0002EE0E20EF11C40E0CBEF2AEFC22ED12C27
:103EB00051915B3F81F0652F70E0282D392F8517D8
:103EC000D8F1261B370B2E313105E4F19F0121502B
:103ED0003109D901CC93EE16FF0651F74093E50165
:103EE000911002C0411134C01092E401A0918802E7
:103EF000B09189022091E501E5EAF2E043EB52E05E
:103F000090E06191E80139918E01631751F06C9155
:103F10006B3FD1F48C93BF0161507109EB01388381
:103F200021E011964E175F0761F72093E50190930A
:103F3000E40112C080E09ACFD601A61BB70B2A0F6E
:103F40003B1FC1CF4D2FC7CF91E0EBCF9110CCCF0E
:103F50009091E4019111C8CF892DDF91CF911F91EC
:103F60000F91FF90EF90DF90CF90BF90AF909F9018
:103F70008F900895CDB7DEB72A970FB6F894DEBFBD
:103F80000FBECDBF84B7877F84BF0FB6F894A895C6
:103F900080916000886180936000109260000FBE85
:103FA00080E890E00FB6F8948093610090936100F0
:103FB0000FBE85B7806885BF85B7806885BF0E94C2
:103FC00042030E940D048091E20084608093E2002D
:103FD00078948091F1028823A1F01091E9001F707C
:103FE0009091EC00892F817090FD80E8182B109241
:103FF000E9008091E80083FD0E94150F1F70109367
:10400000E90082E084BD93E095BD9AEF97BD80936F
:104010006E000E94680D90E090930A018093090160
:104020000E941A0B0E94290BA2E9B2E0E5EAF2E035
:1040300011921D9222E0E33BF207D1F78EE090E06F
:104040000E9474238093880290938902FC010E964B
:104050002BEF2193E817F907E1F790E080E00E9449
:104060003A238F3E9E4F11F00E94A00C8CE090E00E
:104070000E942C2390E0B0E0A0E080938A0290930D
:104080008B02A0938C02B0938D0289EA809380000A
:1040900089E08093810024982C983F988AB18F7C86
:1040A0008AB96E98479A8BB180638BB9769A8FE004
:1040B00090E00E94342360938E0270938F0280936D
:1040C00090029093910267708FEF689FB001112466
:1040D00075956795759567957727709389006093B7
:1040E000880070938B0060938A0070938D006093BA
:1040F0008C000E94200C90E080E00E943A238F3ECA
:104100009E4F11F00E94A00C82E090E00E942C23B0
:104110008093BD020E94300B9093A1028093A00275
:1041200083E090E00E942C23682F70E090E080E014
:104130000E94F60E8BE091E09093A3028093A2027E
:10414000DD24D394CC24CA9480E1B82E92E1A92E28
:1041500028E1E22EF12C30E4932E8091F10285309B
:1041600009F458C00E94EC1EEEEBF2E0A5EAB2E0C2
:1041700010E000E0302F8D912191281709F497C0AD
:1041800090E0882483942827422F482109F48AC08C
:1041900099833A83882191E009F490E09B830E94FF
:1041A000510E8160782F9D838C8349815A816B8168
:1041B0008D810E942B1EF801E254FD4F80818826DC
:1041C00080828091BA029091BB020E94E4059C011A
:1041D0009091B902992319F02F30310578F0209190
:1041E000B5028090B6020091B7021091B802211179
:1041F00074C0882D802B812B09F0E5C00E946F07C9
:104200009091BC02891709F4A8CF0E946F07809390
:10421000BC02A3CF8091F102843009F11092A40274
:104220000FB6F894A895E09260000FBE90926000DF
:1042300083B7817F846083BF83B7816083BF7894B5
:10424000889583B78E7F83BF0FB6F894A895809129
:104250006000886180936000109260000FBE8091C2
:10426000F002882309F479CF0E94680D90E09093C2
:104270000A01809309010E941A0B0E94290BE5EAAA
:10428000F2E0119242E0E33BF407D9F70E94EC1E02
:10429000E5EAF2E08191811182C082E0E33BF80718
:1042A000C9F75BCF9F5F880C963009F06DCF0F5F29
:1042B0001F4F0E30110509F05DCFCE82CF821886D8
:1042C0000E94510E8160782F9A8789874E815F8185
:1042D00068858A850E942B1E74CF9F3F19F09F5FCF
:1042E0009093B902121624F40E9458058093B502E7
:1042F0008091B50287FF05C00E9458058195809383
:10430000B502181424F40E9458058093B6028091D7
:10431000B60287FF05C00E94580581958093B602BA
:104320003091B5023323A1F02091B602222381F00F
:1043300045EB3403C0011124992359F19093B50240
:1043400045EB240390011124332331F13093B6025D
:10435000101624F40E9456058093B7028091B7028C
:1043600087FF05C00E94560581958093B7021116FC
:1043700024F40E9456058093B8028091B80287FF0A
:1043800005C00E94560581958093B8020E945D0E7B
:1043900035CFD092B502D4CFD092B602D9CFB9BC26
:1043A000A9BC09B400FEFDCF8091D8008F7D809319
:1043B000D8008091E00082608093E0008091E0006E
:1043C00081FDFCCFCACE9F3F09F089CF9ACF1F92C3
:1043D0001FB61F9211248F939F93AF93BF93809129
:1043E000A402811113C08091830290918402A09154
:1043F0008502B09186024196A11DB11D8093830272
:1044000090938402A0938502B0938602BF91AF91EE
:104410009F918F911F901FBE1F9018951092B90009
:104420008CE08093B8000895EF92FF920F931F9352
:10443000CF93DF93182FEB011092BC0084EA809396
:10444000BC000E94510E7C018091BC0087FF27C0F8
:104450008091B900887F883029F08091B900887FE9
:104460008031D9F51093BB0084E88093BC000E9492
:10447000510E8C018091BC0087FF24C02091B900AF
:10448000287F90E080E02831B1F081E090E0203496
:1044900011F490E080E09195819591090CC0CF3F97
:1044A000DC0791F20E94510E8E199F098C179D070F
:1044B00058F28EEF9FEFDF91CF911F910F91FF90F8
:1044C000EF900895CF3FDC07A9F20E94510E801BA8
:1044D000910B8C179D0770F2ECCF8FEF9FEFEBCF16
:1044E0000F931F93CF93DF93EB018093BB0084E87E
:1044F0008093BC000E94510E8C018091BC0087FF0C
:1045000011C02091B900287F81E090E0283211F499
:1045100090E080E0919581959109DF91CF911F9175
:104520000F910895CF3FDC0741F30E94510E801B8D
:10453000910B8C179D0708F38EEF9FEFEECF0F9333
:104540001F93CF93DF93EC0184E88093BC000E941B
:10455000510E8C018091BC0087FF08C08091BB0088
:1045600090E0DF91CF911F910F910895CF3FDC072D
:1045700089F30E94510E801B910B8C179D0750F3FD
:104580008EEF9FEFEECF84E98093BC000895AA1BC5
:10459000BB1B51E107C0AA1FBB1FA617B70710F02E
:1045A000A61BB70B881F991F5A95A9F78095909560
:1045B000BC01CD01089597FB072E16F4009407D097
:1045C00077FD09D00E94C72207FC05D03EF49095E4
:1045D00081959F4F0895709561957F4F0895EE0FD7
:1045E000FF1F0590F491E02D09942F923F924F9276
:1045F0005F926F927F928F929F92AF92BF92CF9273
:10460000DF92EF92FF920F931F93CF93DF93CDB77B
:10461000DEB7CA1BDB0B0FB6F894DEBF0FBECDBFF3
:1046200009942A88398848885F846E847D848C84C4
:104630009B84AA84B984C884DF80EE80FD800C81CD
:104640001B81AA81B981CE0FD11D0FB6F894DEBFB0
:104650000FBECDBFED010895F999FECF92BD81BD8A
:10466000F89A992780B50895A6E1B0E044E050E0BB
:104670000C946623A8E1B0E042E050E00C9466237D
:10468000262FF999FECF92BD81BDF89A019700B40B
:10469000021639F01FBA20BD0FB6F894FA9AF99AAB
:1046A0000FBE08950396272F0E9441230E944023A6
:1046B000252F0E944123242F0C9441230196272F5C
:1046C0000E9441230C944023DC01CB01FC01F999A9
:1046D000FECF06C0F2BDE1BDF89A319600B40D924E
:1046E00041505040B8F708950F931F93CF93DF9335
:1046F0008230910510F482E090E0E091FD02F091AB
:10470000FE0230E020E0B0E0A0E0309799F42115FF
:10471000310509F447C0281B390B24303105C0F599
:104720008A819B816115710571F1FB0193838283FD
:10473000FE0111C040815181028113814817590740
:10474000F8F04817590799F4109761F012960C93F6
:10475000129713961C933296CF01DF91CF911F9140
:104760000F9108950093FD021093FE02F4CF2115DE
:10477000310519F04217530718F49A01BD01EF01F2
:10478000DF01F801C2CF9093FE028093FD02D0CFEB
:10479000FE01E20FF31F8193919322503109398377
:1047A0002883DACF2091FB023091FC02232B41F4C5
:1047B00020910201309103013093FC022093FB020F
:1047C00020910001309101012115310541F42DB7EF
:1047D0003EB74091040150910501241B350B4091D7
:1047E000FB025091FC024217530708F0B5CF241B7F
:1047F000350B2817390708F4AFCFBC016E5F7F4F28
:104800002617370708F4A8CF640F751F7093FC02B2
:104810006093FB02FA01819391939ECFCF93DF9334
:104820000097E9F0FC01329713821282C091FD02D9
:10483000D091FE02DE0130E020E02097A1F420813B
:104840003181820F931F2091FB023091FC022817C7
:10485000390709F067C0F093FC02E093FB02DF9197
:10486000CF910895DA01AE17BF0708F040C0129645
:104870004D915C9113979D014115510599F7D9010F
:104880001396FC93EE9312974D915D91A40FB51F73
:10489000EA17FB0779F4808191810296840F951FB6
:1048A000D90111969C938E938281938113969C9348
:1048B0008E931297B0E0A0E08A819B810097B9F5B2
:1048C000FE0181919191E80FF91F8091FB02909177
:1048D000FC028E179F0719F6109761F51092FE02E1
:1048E0001092FD02D093FC02C093FB02B8CFB383B9
:1048F000A28340815181840F951FA817B90771F4D5
:104900004E5F5F4F8D919C911197480F591F5183B6
:10491000408312968D919C9193838283211531055A
:1049200009F0ADCFF093FE02E093FD0298CFDE01D7
:10493000EC01C2CF13961C921E921297D3CFAEE019
:10494000B0E0E5EAF4E20C9403230D891E898F8917
:10495000988D26E02C831A83098397FF02C080E09C
:1049600090E801979E838D83AE01455E5F4F698D10
:104970007A8DCE0101960E94CF244D815E8157FD34
:104980000AC02F813885421753070CF49A01020F91
:10499000131FF80110822E96E4E00C941F23ABE065
:1049A000B0E0E5EDF4E20C94F5227C013B018A01D4
:1049B000FC0117821682838181FFB9C19AE0292EFA
:1049C000CE0101965C01F7019381F30193FD85917E
:1049D00093FF81913F01882309F446C1853239F460
:1049E00093FD859193FF81913F01853229F4B701B1
:1049F00090E00E94B026E7CF912C412C512CFFE192
:104A0000F51538F08B3209F188F4803201F18332E8
:104A100021F157FC3AC020ED280F2A3040F556FE10
:104A20001FC0929C200D1124922E06C08D3291F051
:104A3000803379F7689450F8F30193FD859193FFE3
:104A400081913F018111DBCF20C0689451F86894B7
:104A500052F8F2CF689453F8EFCF689454F8ECCF43
:104A6000429C200D1124422E689455F8E5CF8E32D9
:104A700029F456FCF9C0689456F8DECF8C3619F448
:104A8000689457F8D9CF8836B9F2982F9F7D9554FE
:104A90009330C0F08336A1F18337C1F1833509F03B
:104AA0005BC0F801C190D1908F01692D70E056FC78
:104AB00002C06FEF7FEFC6010E949A264C016894F6
:104AC00057F80AC00C5F1F4F2FE329838824839473
:104AD000912C6501E89457F853FC04C0481419045C
:104AE00009F018F5342C8114910431F5332009F4C0
:104AF0006ACFB70180E290E00E94B0263A94F6CFE8
:104B0000F801808189830E5F1F4FE0CFF801C190CB
:104B1000D1908F01692D70E056FC02C06FEF7FEFDE
:104B2000C6010E94A5264C01D5CFB70180E290E0D6
:104B30000E94B0264A94D2CFF60157FC859157FEC9
:104B400081916F01B70190E00E94B02631103A9434
:104B5000F1E08F1A9108C7CF843619F0893609F031
:104B600074C0F80157FE6AC0619171918191919171
:104B70008F01252D2F76D22E97FF09C09095809515
:104B8000709561957F4F8F4F9F4F6894D7F82AE0BB
:104B900030E0A5010E94E026C82ECA188C2C5D2C9E
:104BA000D6FE0CC0E89450F8C91440F4D4FE05C0F9
:104BB000D2FC03C0FD2DFE7E5F2E892C54FE8FC0DB
:104BC000FE01EC0DF11D8081803309F081C0252D9F
:104BD000297E522E852D8870382E53FC8FC050FEB2
:104BE00089C09C2C841418F44C0C942C981854FEF6
:104BF0008BC0B70180E390E00E94B02652FE09C04E
:104C000088E790E051FE02C088E590E0B7010E947D
:104C1000B026C91408F484C0CA94D12C9FEFC91AD5
:104C2000D90ACA0CDB1CF60182916F01B70190E032
:104C30000E94B026AC14BD04B1F758CF61917191B8
:104C4000072E000C880B990B93CFD52CE894D4F841
:104C50002AE030E0853739F1952D997FD92E8F36AE
:104C600001F148F48835A9F0F701868197812B96E8
:104C7000E2E10C941123803749F08837A9F7D4FE7C
:104C800002C06894D2F820E130E00DC06894D4F8F6
:104C9000F6CF54FE03C0E92FE660DE2E20E132E0BD
:104CA00002C028E030E0F801D7FE0DC0619171919B
:104CB000819191918F01A5010E94E026C82ECA180A
:104CC000E894D7F86BCF6191719190E080E0F2CFDA
:104CD00052FC02C083947ECF839483947BCF852D36
:104CE000867809F477CFF6CFB70180E290E00E9492
:104CF000B02683948414C0F3312C79CF342C381827
:104D0000841408F474CFF8CF852D867809F481CF08
:104D10008BE251FE80E257FC8DE2B70190E077CF45
:104D2000B70180E390E00E94B0269A9472CF8FEF93
:104D30009FEF9DCFFC010590615070400110D8F7A6
:104D4000809590958E0F9F1F0895FC0161507040D3
:104D500001900110D8F7809590958E0F9F1F0895B0
:104D60000F931F93CF93DF93182F092FEB018B81A4
:104D700081FD09C01FEF0FEF812F902FDF91CF91A1
:104D80001F910F91089582FF14C02E813F818C8165
:104D90009D81281739073CF4E881F981CF010196FC
:104DA0009983888310838E819F8101969F838E8350
:104DB000E3CFE885F985812F0995892BA1F3DACF17
:104DC000FA01AA27283051F1203181F1E8946F933C
:104DD0006E7F6E5F7F4F8F4F9F4FAF4FB1E03ED0E2
:104DE000B4E03CD0670F781F891F9A1FA11D680F80
:104DF000791F8A1F911DA11D6A0F711D811D911DB3
:104E0000A11D20D009F468943F912AE0269F112427
:104E10003019305D3193DEF6CF010895462F47708B
:104E2000405D4193B3E00FD0C9F7F6CF462F4F70E6
:104E3000405D4A3318F0495D31FD4052419302D044
:104E4000A9F7EACFB4E0A6959795879577956795EA
:104E5000BA95C9F700976105710508959B01AC01EA
:104E60000A2E06945795479537952795BA95C9F711
:104E7000620F731F841F951FA01D0895F894FFCF24
:104E8000460A460A4F0A4F0A510A4F0A4F0A4F0A6A
:104E9000460A460A560A4F0A4F0A560A010B0D0BDC
:104EA000120B0B0B100B170B150BF80F2010C21168
:104EB0002010C21153107410C2117D118A113419BF
:104EC000341990199019E119FB199D1B69193D1AA4
:064ED000131B221B221B34
:104ED6000000FF02200001AF002000D404DA0BAF6F
:104EE6000B790B3E0B010A25640A00000D010D0229
:104EF6000D030D040D050D000C010C020C030C0432
:104F06000C050C000B010B020B030B040B050B002D
:104F16000A010A020A030A040A050A00090109022B
:104F26000903090409050900080108020803080421
:104F3600080508000701070207030704070507001D
:104F4600060106020603060406050600050105021B
:104F56000503050405050500040104020403040411
:104F6600040504000301030203030304030503000D
:104F7600020102020203020402050200010101020B
:104F86000103010401050100000100020003000401
:044F96000005000012
:00000001FF
