:100000000C9422040C94F4130C9469040C94690469
:100010000C9469040C9469040C9469040C946904AC
:100020000C9469040C9469040C94F6270C94C82869
:100030000C941B220C9469040C9469040C946904BC
:100040000C9469040C9469040C9469040C9469047C
:100050000C9469040C9483220C9469040C94690434
:100060000C9469040C9469040C9469040C9469045C
:100070000C9469040C9469040C9469040C9469044C
:100080000C9469040C9469040C9469040C9469043C
:100090000C9469040C9469040C9469040C9469042C
:1000A0000C9469040C9469040C94690403180318F3
:1000B000351835188218E519E519E519A2183F1900
:1000C00050195019B119BA19E519DE19631A631AD2
:1000D000751A751A6C1A751A751A751A631A631AD5
:1000E000711A751A751A711A35295C294E2A5C29FC
:1000F0004E2AA829CB294E2A212A302A29001E005F
:100100001F002000210022002B0014001A0008000C
:10011000150017002A0004001600070009000A0055
:10012000D75C1D001B000600190005000000000040
:1001300000000404E30001512E00270026002500E2
:10014000240023002D00130012000C0018001C00D6
:10015000280034000F000E000D000B00D85C3800A2
:1001600037003600100011000000000000004E00B3
:1001700002512C0029001E081F082008210822080F
:100180002B0114081A082900150817082A0802511B
:100190001608060819081B0A6A0004080708680000
:1001A0001D081C080000000000000000E300010022
:1001B0004500270126013302310233004400350295
:1001C0004F08520050081C01280035004F00510014
:1001D00050004C00720031000A080A0A09082A007F
:1001E0000000000000004B00E7002C00A9001E0CDE
:1001F0001F0C3C003D003E00AA0000000000000073
:10020000150A6900A800010000002F0030002B0033
:1002100000001A5C00002F023002180100000000EC
:10022000000039002C04E3002E024300420041008C
:1002300040003F002D026D004F0A5202500A0E0A84
:100240006B006F004F025102500270006E006C0094
:100250004F06500604097100000000000000000075
:1002600001002C0044454255473A2064697361629D
:100270006C65642E0A0044454255473A20656E611C
:10028000626C65642E0A000A0025303862003A204C
:100290000025303258000A722F6320303132333457
:1002A0003536370A007267626C6967687420736557
:1002B0007420687376205B4E4F454550524F4D5D1C
:1002C0003A2025752C25752C25750A007267626CFD
:1002D000696768742073657420687376205B454590
:1002E00050524F4D5D3A2025752C25752C25750AE9
:1002F000007267626C696768742064697361626C1C
:1003000065205B454550524F4D5D3A207267626CE7
:10031000696768745F636F6E6669672E656E616298
:100320006C65203D2025750A007267626C696768FC
:100330007420656E61626C65205B454550524F4D7F
:100340005D3A207267626C696768745F636F6E669E
:1003500069672E656E61626C65203D2025750A0017
:100360007267626C6967687420746F67676C652078
:100370005B454550524F4D5D3A207267626C69672C
:1003800068745F636F6E6669672E656E61626C6527
:10039000203D2025750A007267626C6967687420C9
:1003A0006D6F6465205B4E4F454550524F4D5D3A31
:1003B0002025750A007267626C69676874206D6F2A
:1003C0006465205B454550524F4D5D3A2025750AC6
:1003D000007267626C696768745F696E6974207225
:1003E00067626C696768745F636F6E6669672E6DBC
:1003F0006F6465203D20302E20577269746520643B
:10040000656661756C742076616C75657320746FB8
:1004100020454550524F4D2E0A007267626C696745
:1004200068745F696E6974206565636F6E6669677D
:10043000206973206E6F7420656E61626C65642E36
:100440000A007267626C696768745F696E6974201C
:100450007374617274210A007267626C69676874F0
:100460005F696E69742063616C6C65642E0A00724A
:1004700067626C696768745F636F6E6669672E7325
:1004800070656564203D2025640A007267626C69AE
:100490006768745F636F6E6669672E76616C203D76
:1004A0002025640A007267626C696768745F636F15
:1004B0006E6669672E736174203D2025640A0072A0
:1004C00067626C696768745F636F6E6669672E68E0
:1004D0007565203D2025640A007267686C6967684D
:1004E000745F636F6E6669672E6D6F6465203D2073
:1004F00025640A007267626C696768745F636F6E77
:100500006669672E656E61626C65203D2025640A10
:10051000007267626C696768745F636F6E666967B3
:1005200020454550524F4D3A0A006261636B6C6939
:1005300067687420737465703A2025750A006261DB
:10054000636B6C696768742064697361626C650AC7
:10055000006261636B6C6967687420656E61626CD0
:10056000650A006261636B6C6967687420746F6709
:10057000676C653A2025750A006261636B6C696778
:1005800068742064656372656173653A2025750A35
:10059000006261636B6C6967687420696E63726581
:1005A0006173653A2025750A00000101010101010E
:1005B000010101020202020202020202030303031A
:1005C00003030303040404040404040505050505EA
:1005D00006060606060707070707080808080909A8
:1005E00009090A0A0A0B0B0B0C0C0C0D0D0D0E0E53
:1005F0000E0F0F0F101011111112121313141415E6
:100600001516161717181819191A1A1B1B1C1D1D59
:100610001E1E1F20202122222324242526262728AF
:1006200029292A2B2C2D2D2E2F30313232333435DF
:10063000363738393A3B3C3D3E3F404142434445E2
:10064000464748494A4C4D4E4F50515354555658C1
:10065000595A5B5D5E5F616264656668696B6C6D6B
:100660006F7072737577787A7B7D7E8082838587E1
:10067000888A8C8E8F91939596989A9C9EA0A2A31F
:10068000A5A7A9ABADAFB1B3B5B7BABCBEC0C2C424
:10069000C6C9CBCDCFD1D4D6D8DBDDDFE2E4E7E9E4
:1006A000EBEEF0F3F5F8FAFDFF0A002530325820A2
:1006B000006B6579626F6172645F7265706F7274EE
:1006C0003A20000A0025303258006B6579626F616C
:1006D00072645F7365745F6C65643A20005B735D80
:1006E000004B6579626F6172642073746172742E5D
:1006F0000A005B575D005B535D005B525D005B442D
:100700005D005B435D000403300000001C034900F2
:1007100072006900730020004B00650079006200E0
:100720006F0061007200640000000E034B00650062
:100730006500620069006F000000040309040902FB
:100740005B00030100A0FA0904000001030101009D
:100750000921110100012240000705810308000A58
:100760000904010001030000000921110100012218
:1007700036000705820320000A0904020002030074
:100780000000092111010001222200070583032036
:100790000001070503032000011201100100000001
:1007A0000810CB56120002010203010631FF097442
:1007B000A1010975150026FF009520750881020921
:1007C00076150026FF00952075089102C0050109E5
:1007D00080A10185031A81002A83001601002603E7
:1007E00000950175108100C0050C0901A101850467
:1007F0001A01002A9C02160100269C029501751020
:100800008100C005010906A101050719E029E715C6
:100810000025019508750181029501750881010582
:1008200007190029FF150026FF00950675088100AD
:1008300005081901290595057501910295017503B2
:100840009101C00011241FBECFEFDAE0DEBFCDBFA3
:1008500004B603FE27C08091390290913A02A0911C
:100860003B02B0913C028730904BA740B04BD1F493
:100870001092390210923A0210923B0210923C02FE
:1008800014BE84B7877F84BF0FB6F894A895809173
:100890006000886180936000109260000FBEE0E00D
:1008A000F8E3099511E0A0E0B1E0EAE7F6E502C05F
:1008B00005900D92AA33B107D9F722E0AAE3B1E07F
:1008C00001C01D92A933B207E1F70E9411250C94D3
:1008D0003B2B0C940000FF93EF93E0913A01F091D1
:1008E0003B01309709F00995EF91FF910895FC01C4
:1008F0008591803011F0EFDFFBCF0895FF27E0E214
:1009000030E247FF0CC0419597FF09C0EDE26095CA
:10091000709580959095611D711D811D911D27FF1A
:1009200002C0219530E350E2AA27660F771F881F87
:10093000991FAA1FA41710F0A41B63955A95A9F735
:10094000AA3008F0A95FA05DAF93F395611571051A
:100950008105910541F7ED3211F4EF93F395F2170C
:1009600018F43F93F395FBCF8F91B5DFFA95E1F73C
:100970000895E991F9918591803021F0853219F03F
:10098000AADFF9CF089520E0E89455915532C1F3DC
:10099000503311F4689455915A3348F4505390F3FE
:1009A000220F022E220F220F200D250FF4CF0EF45E
:1009B000219589919991533619F3533729F153357C
:1009C00059F1BC0188279927E8945C3621F4899174
:1009D000999168945591543639F446EF7EF077FF3B
:1009E0000DC08FEF9FEF0AC055374AE039F05835F8
:1009F00040E121F0523642E009F00895FF93EF9371
:100A00007DDFEF91FF91B7CFFF93EF93FC018191D1
:100A10008030B9F360DFFBCFFF93EF9368DFF1CF56
:100A2000DF93CF93CDB7DEB72596A3DFCF91DF91CC
:100A3000089581E0089581E008950C941B051F93AB
:100A4000CF93DF9300D000D01F92CDB7DEB749839C
:100A50005A832091740189819A81211112C06623E1
:100A600049F00E948A1F182F682F89819A810E945D
:100A70002D1F03C00E945D1F182F69817A81812F6D
:100A800004C00E948A1F69817A810F900F900F9095
:100A90000F900F90DF91CF911F910C940008FC01F3
:100AA000408151816281738184810C941F050E9471
:100AB000D520811102C00E947E210E9449120C940F
:100AC000E30A0E9448120C94E60A08950C94650506
:100AD00081E008950C946805CF93C82F0E946605A5
:100AE0008C2F0E946A05CF91089508950E94531A91
:100AF0000E9475052FEF84E39CE0215080409040D8
:100B0000E1F700C0000087E797E790930108809322
:100B100000080C94A9220F931F93CF93DF938C01AD
:100B20000E944F05EC01B8010E941D05882309F4BD
:100B30005CC2B801CE010E94FD12882309F455C29F
:100B4000C83CFCE5DF0739F4F801C281C1114DC290
:100B50000E947A0F4BC2C93C8CE5D80708F0D2C17D
:100B6000C23CECE5DE0739F4F801C281C1113DC297
:100B70000E940A103BC2C33CFCE5DF0708F07DC1C0
:100B8000C6318CE5D80708F04EC1C230ECE5DE076F
:100B900008F419C1F8018281882309F41BC10E945D
:100BA000D520811102C00E947E210E94E8209093EE
:100BB0002B0280932A02C031FCE5DF0709F4C3C091
:100BC00008F041C0C830ECE5DE0709F49AC0F0F443
:100BD000C4308CE5D80709F487C068F4C230FCE55E
:100BE000DF0709F477C0C330DC4509F0E3C080912A
:100BF0002A02826076C0C630ECE5DE0709F46EC0DA
:100C000008F07BC080912A0288606BC0CC308CE5F4
:100C1000D80709F485C068F4CA30FCE5DF0709F499
:100C200074C008F079C00E94531A80912A0280682B
:100C300058C0CE30ECE5DE0709F476C008F07FC07E
:100C400080912A028BC0CB3F8CE5D80709F44FC0B6
:100C500018F5C331FCE5DF0709F47DC078F4C13134
:100C6000ECE5DE0709F473C0C231DC4509F0A2C02F
:100C70000E94531A80912A028F7733C0C5318CE5C8
:100C8000D80709F472C008F486C0CA3FDC4509F0F1
:100C900091C080912B023EC0CF3F8CE5D80709F46C
:100CA0005FC058F4CD3FFCE5DF0709F444C008F409
:100CB0003FC080912B0282602DC0C130EDE5DE0780
:100CC00009F475C008F45DC0C230DD4509F072C09A
:100CD00080E06EC080912A02816003C080912A0268
:100CE000806180932A0266C080912A0211C080919F
:100CF0002B02826080932B025DC080912A02806269
:100D0000F0CF80912A028064ECCF80912A02886023
:100D10008460E7CF8160EECF80912A028E7FE1CFA1
:100D200080912A028D7FDDCF80912A02877FD9CFE3
:100D300080912B0218C080912B028D7FDBCF809198
:100D40002A028F7ECECF80912A028F7DCACF8091DA
:100D50002A028F7BC6CF80912A02877F8B7FC1CFEB
:100D600080912B028D7F8E7FC5CF80912A0282FBDE
:100D7000222720F991E0922790FB82F990FB83F9DA
:100D8000B0CF80912B02982F909591708E7F892BF8
:100D900090FB81F9AFCF0E94531A80912A0287FB02
:100DA000222720F991E0922790FB87F99ACF81E0E2
:100DB0000E94802180912A0290912B020E94F920AA
:100DC0000E94531A12C1C115FCE5DF0751F0C13072
:100DD000DC4579F0C801DF91CF911F910F910C9400
:100DE0001905F801C281CC2309F400C10E947605DF
:100DF000FCC0F801C281CC2309F4F8C08091EA015B
:100E0000C82FC095C170C0FB80F98093EA01CC2344
:100E100029F086E792E00E947704E7C084E692E03A
:100E20000E947704E3C0C631DC45A1F60E940A2087
:100E3000282FF801828140910B0150910C018823E9
:100E400079F02A7A91E009F490E090933C019111B5
:100E500002C069E201C065E3CA010E94B7210AC06D
:100E600080913C01811102C069E201C065E3CA01C1
:100E70000E94B9210E945620B8C0C53CFCE5DF079E
:100E800039F4F801C281C111B0C00E944F0FAEC049
:100E9000C63C8CE5D80700F5C33CECE5DE0761F401
:100EA000F801C281CC2309F4A1C00E940A208272F9
:100EB00081F00E94E90F99C0C43CDC4509F08ACF5B
:100EC000F801C281CC2309F491C00E940A208272E9
:100ED00081F30E94DC0F89C0C63C8CE5D80739F449
:100EE000F801C281C11181C00E945C0F7FC0C73C64
:100EF000DC4509F06FCFF801C281C11176C00E94B4
:100F00006B0F74C0C63DFCE5DF0708F042C0CE3C65
:100F10008CE5D80708F069C0CB3CECE5DE0741F46E
:100F2000F801C281CC2309F461C00E944A0E5DC061
:100F3000CC3CFCE5DF07B0F4C93C8CE5D80739F4BC
:100F4000F801C281C11151C00E94890F4FC0CA3C33
:100F5000DC4509F03FCFF801C281C11146C00E94B3
:100F6000980F44C0CC3CFCE5DF0739F4F801C2819E
:100F7000CC23E1F10E945B0E38C0CD3CDC4509F08A
:100F800029CFF801C281CC2389F181E00E94EC0FC6
:100F90002CC0CE3DECE5DE0739F4F801C281CC234C
:100FA00029F10E947E2121C0CF3DFCE5DF07B0F48E
:100FB000CC3D8CE5D80731F4F801C281CC23B1F0E7
:100FC00080E009C0CD3DDC4509F004CFF801C281C5
:100FD000CC2361F082E00E94B92507C0CE018A5F70
:100FE0009C45099708F4D6CDF5CEC0E08C2FDF9153
:100FF000CF911F910F91089580E090E0089508959A
:1010000096E0799FF00111249CE3899FE00DF11D8A
:101010001124E60FF11DEE0FFF1FE450FF4F8591E5
:1010200094910895880F991FFC01E957FD4F859110
:1010300094910895CF93DF930E9400080E940B0AB9
:10104000EC01811521E5920708F042C0811560E5A9
:10105000960708F02FC1883E910500F5803E910566
:1010600008F0D5C1883A910570F4853A910508F0E9
:10107000A4C08130910509F4CAC108F47BC104976A
:1010800008F0C5C177C18F3B910508F4A1C0803C31
:10109000910508F46FC1805C9109FBC0C11580E324
:1010A000D80780F4C11590E2D90708F0F0C0C03F1E
:1010B000D10508F45FC1CF3FD10511F008F0A7C1F9
:1010C000D065A5C1C11520E4D20708F0F0C0E5C085
:1010D000811569E5960760F5C11588E5D80708F020
:1010E00035C1C11594E5D90778F4C11523E5D207B8
:1010F00008F011C1C11562E5D60708F0F6C0DC2F73
:10110000CC27C16FD06A83C1C11585E5D80708F423
:1011100018C1C11596E5D90708F02CC18C2F0E9483
:101120009F0A8F71C82FD0E0DC2FCC27D0626FC10F
:101130008D3B2CE5920709F414C1E0F4CB3B8CE520
:10114000D80709F408C108F009C1C1152AE5D2077A
:1011500008F010C18C2F8F700E949F0A94E0D695E2
:10116000C7959A95E1F7CF70D0E0DC2FCC27D069F6
:10117000C82B4DC1803C9C4509F4F9C0C13C8CE5AD
:10118000D80760F4CE3B9CE5D90709F4EDC0CF3B0E
:10119000DC4509F0EFC0C0E0D2ED39C1CE01905678
:1011A0008115904208F0E6C08D2F8F710E949F0A32
:1011B000DD27D0628F71D82B2AC1853A910509F4B9
:1011C000DCC0863A910509F0DBC0C2E8D0E41FC15B
:1011D000883A910509F4D7C0893A910509F4D6C037
:1011E0008A3A910509F4D5C08B3A910509F4D4C027
:1011F0008C3A910509F4D3C08B3B910509F4D2C018
:101200008C3B910509F4D1C08D3A910509F4D0C009
:10121000803B910509F4CFC08E3A910509F4CEC008
:101220008F3A910509F4CDC0813B910509F4CCC0FA
:10123000823B910509F4CBC0833B910509F4CAC0F8
:10124000843B910509F4C9C0853B910509F4C8C0E8
:10125000863B910509F4C7C0873B910509F4C6C0D8
:10126000883B910509F4C5C0893B910509F4C4C0C8
:101270008D3B910509F4C3C08E3B910509F4C2C0B2
:101280008A3B910509F4C1C0C0E0D4E4C0C0CE01DE
:101290009F700E941208EC01BAC0CE019927D3FFBB
:1012A00003C0EC01D86CB3C0EC01D06CB0C0DF70EF
:1012B000D06AADC0837021E030E002C0220F331F3E
:1012C0008A95E2F73C68CE0174E0969587957A9509
:1012D000E1F78370382BCF70C695C69580E2C89F22
:1012E000E0011124C22BD32B92C04C2F469546957A
:1012F00090E2499FA0011124C370DD2721E030E076
:10130000C90102C0880F991FCA95E2F7EC01C42BEE
:10131000D52BDC687CC04C2F4695469580E2489FD3
:10132000A0011124C370DD2721E030E0C90102C013
:10133000880F991FCA95E2F7EC01C42BD52BDA6808
:1013400066C0DC2FCC27C46FD06A61C0DC2FCC27ED
:10135000C06FD06A5CC0C0E0D4ED59C0C0E0D5ED2C
:1013600056C0C0E0D1ED53C0C0E0D0ED50C0C0E0E9
:10137000D3ED4DC0C0E0D0E04AC0C1E8D0E447C0E2
:10138000C3E8D0E444C0C2EED4E441C0C9EED4E422
:101390003EC0CAEED4E43BC0C5EBD4E438C0C6EBD3
:1013A000D4E435C0C3EBD4E432C0C4EBD4E42FC0E2
:1013B000C7EBD4E42CC0CCECD4E429C0CDECD4E40D
:1013C00026C0C3E8D5E423C0CAE8D5E420C0C2E9FA
:1013D000D5E41DC0C4E9D5E41AC0C1E2D6E417C003
:1013E000C3E2D6E414C0C4E2D6E411C0C5E2D6E438
:1013F0000EC0C6E2D6E40BC0C7E2D6E408C0CFE612
:10140000D4E405C0C0E7D4E402C0CAE2D6E4CE0109
:10141000DF91CF9108958238910569F1B0F481335D
:10142000910509F46DC048F48932910509F463C04F
:101430008A32910509F469C008958533910509F44C
:1014400055C089339105B9F00895833E910569F13E
:1014500038F4803E9105B1F0823E910509F108957E
:10146000863E9105A9F1873E9105B9F1843E91052B
:1014700009F064C023C020912A0220FD4FC021FD45
:101480004DC0089580912A0280FD44C080912B02B6
:1014900080FF44C080912A0284FD42C083EE4DC08B
:1014A00080912A0282FF38C0F5CF80912A0282FD06
:1014B00033C080912B0280FD31C0ECCF80912B0294
:1014C00081FF32C080912A0284FD2AC087EE35C098
:1014D00080912A0283FF26C0F5CF80912A0283FDE6
:1014E00021C080912B0281FD1FC0ECCF80912A0288
:1014F00085FD1CC01DC080912A0285FD19C016C043
:1015000080912A0286FD16C017C080912A0286FDAE
:1015100013C010C089E311C082EE0FC080EE0DC071
:1015200080E00BC086EE09C084EE07C089E205C0EA
:1015300085E303C08AE201C081E390E008959091C1
:101540002A0292FF0DC0282F2871283019F4877FB6
:10155000846006C0282F2471243011F48B7F8860AA
:1015600093FF0DC0282F2871283119F4877E8461DC
:1015700006C0282F2471243111F48B7E88612091BC
:101580002B0220FF0DC0382F3871383019F4877FB7
:10159000816006C0382F3171313011F48E7F886040
:1015A00021FF0DC0282F2871283119F4877E816111
:1015B00006C0282F2171213111F48E7E886194FD9F
:1015C000877E089508950C94E20A08950C94E50A24
:1015D0000895E82FF0E0ED5BFE4F80810895CF92F3
:1015E000DF92EF92FF920F931F93CF93DF9386E9E1
:1015F00092E00E94770483E4E82E81E0F82EC0E0B8
:10160000D0E091E9C92E92E0D92E09E812E0DF93EB
:10161000CF93DF92CF920E9410058EE892E00E9455
:101620007704F70181917F010E94BF201F928F9361
:101630001F930F930E94100587E892E00E947704A1
:1016400021968DB79EB708960FB6F8949EBF0FBE31
:101650008DBFCA30D105D9F6DF91CF911F910F917F
:10166000FF90EF90DF90CF9008950E94A50C80919D
:10167000000180910001811102C095E001C090E05D
:101680009093FB0185E0891B8093FA01AEE1B1E004
:1016900041E050E025E02A0F8D91E82FE295EF70B0
:1016A000F0E031A18F70BA0102C0660F771F8A95F2
:1016B000E2F7CB01962F9095932391A392A1892BCA
:1016C00082A32A13E9CFA8E1B1E041E050E026E08F
:1016D0002A0F8D91E82FE295EF70F0E031A18F7025
:1016E000BA0102C0660F771F8A95E2F7CB01962FE9
:1016F0009095932391A392A1892B82A32A13E9CFDA
:10170000E3E4F1E08AE08E0F11928E13FDCF85E0C5
:101710000E944F0C0C9457057F928F929F92AF922C
:10172000BF92CF92DF92EF92FF920F931F93CF93CE
:10173000DF936EE171E0AEE3B1E0812C01E010E0F7
:1017400095E09A0F7D017C901C92EB018991BE017E
:10175000E82FE295EF70F0E021A18F70A80101C0A1
:10176000440F8A95EAF7822F842B81A322A1842F2C
:101770008095282322A3D0EADA95F1F7C8E1AC2EB0
:10178000C1E0BC2E20E030E0E50199905E01C92C5B
:10179000C2945FE0C522D12CE601C8A0D12CD92D7E
:1017A000DF7002C0D594C794DA95E2F7C0FC07C099
:1017B0006801022E01C0CC0C0A94EAF702C0C12CC9
:1017C000D12CDC90CD28CC922F5F3F4F26303105B5
:1017D000D9F621A1822381A382A1482B42A311968D
:1017E00081E0F7012081721201C080E0882A9A13FB
:1017F000A9CF6091FB0170E06D5B7E4F282D45E025
:101800008EE391E00E94500C882DDF91CF911F91C3
:101810000F91FF90EF90DF90CF90BF90AF909F908F
:101820008F907F900895CF930E948C0BC82F0E94B9
:10183000860C882339F12091FA01822F90E08D5B8C
:101840009E4F0E94BC0C811118C090913D019F5F7A
:1018500090933D01963098F04091FA0120E030E0FD
:1018600050E0F901E40FF51FED5BFE4F10822F5F92
:101870003F4F25303105A9F702C010923D010E946B
:1018800061050AC02091FB01822F90E08D5B9E4F85
:101890000E94E10C0E94E80A8C2FCF9108950895D0
:1018A000FF920F931F93CF93DF938C01F62ED72FC8
:1018B000C42F222349F081E080934F010E944D22E2
:1018C00090934E0180934D0180914F018823C1F088
:1018D00080914D0190914E010E945922069780F00F
:1018E000EF2DFD2FD8014C2F50E0CD01801B910B27
:1018F000841795071CF48D918193F7CF10924F01B7
:10190000DF91CF911F910F91FF9008958091500129
:10191000811112C08091D80080618093D8008AE143
:101920008A95F1F700C08091D90080FD02C082E065
:1019300001C081E08093500181E09091500191308D
:1019400009F080E008950C94860C0E94A30C80930B
:1019500000010E94860C81110C94B00C0C94B60C02
:1019600061E070E081E091E00C94991361E070E037
:1019700081E091E00C94A213CF93DF93D82FC92F6D
:101980000E944514892BC9F4ED2FFC2F80E090E0D4
:10199000DC01AD5ABE4F2C91219301968530910503
:1019A000B9F70E947411882319F00E94D51101C063
:1019B00080E08093520181E001C080E0DF91CF910F
:1019C000089520E030E0FC014191CF01F901ED5A8A
:1019D000FE4F40832F5F3F4F25303105A1F78091A7
:1019E00052010C94EC11AF92BF92CF92DF92FF9212
:1019F0000F931F93CF93DF93D62E372FE82FF0E06E
:101A0000711106C0E755FA4F6491762F862F75C085
:101A1000C72FD0E0E755FA4F2491F22E022F10E0A5
:101A200046E0649FC0011124EFEFF0E0BF010E9487
:101A30009D2AAB016BEA6403C001659F900D1124E0
:101A40008D0D911D8D0D911D982F990F890FDF011F
:101A5000AC1BBD0B0A9FB0010B9F700D1A9F700D40
:101A60001124972F839FD0011124AB2FBB276F0127
:101A7000CA1ADB0A0C9DD0010D9DB00D1C9DB00D46
:101A800011245F01A81AB108AC9E6001AD9ED00C74
:101A9000BC9ED00C1124CD2DDD27EC1BFD0B0E9F21
:101AA000E0010F9FD00D1E9FD00D1124ED2F42306D
:101AB000510591F04CF441155105E1F041305105CB
:101AC000B9F4E22F2B2F16C04430510569F044F0D1
:101AD0004630510579F00CC0E22F272F9D2F0AC008
:101AE000272F9F2DEB2F06C0E72F922F2D2F02C0FF
:101AF000E72F9B2F6E2F722F892FDF91CF911F9190
:101B00000F91FF90DF90CF90BF90AF900895CF934B
:101B1000DF93762FE901682F842F0E94F30C7983DD
:101B200068838A83DF91CF9108958091FC01982F7B
:101B30009695913021F0817082608093FC01089528
:101B400088E090E00C94FB2ACF93DF9300D000D084
:101B5000CDB7DEB7AB01BC0149835A836B837C836D
:101B60000E94950D49815A816B817C8188E090E0CB
:101B70000F900F900F900F90DF91CF910C94192B35
:101B8000ECEFF1E083E0808311828FEF8283838327
:101B9000148260817181828193810C94A40D809163
:101BA000EA0180FF08C081E195E09F938F930E9436
:101BB00010050F900F908091EA0180FF0FC0809177
:101BC000FC0181701F928F9384EF94E09F938F9319
:101BD0000E9410050F900F900F900F908091EA01D6
:101BE00080FF0FC08091FC0186951F928F9389ED35
:101BF00094E09F938F930E9410050F900F900F9089
:101C00000F908091EA0180FF0EC08091FD011F922C
:101C10008F938FEB94E09F938F930E9410050F900A
:101C20000F900F900F908091EA0180FF0EC080917D
:101C3000FE011F928F9385EA94E09F938F930E94F9
:101C400010050F900F900F900F908091EA0180FF88
:101C50000EC08091FF011F928F938BE894E09F93B9
:101C60008F930E9410050F900F900F900F9080910E
:101C7000EA0180FF0EC0809100021F928F938FE6D1
:101C800094E09F938F930E9410050F900F900F90F8
:101C90000F90089580910002833018F48F5F809335
:101CA00000026091FC017091FD018091FE01909114
:101CB000FF010C94A40D80910002882319F081503B
:101CC000809300026091FC017091FD018091FE0102
:101CD0009091FF010C94A40D60910A0170E0809135
:101CE000FC0180FF0AC08091590123E0829FC0015E
:101CF00011248F5F9D4F0C948D128091580190910B
:101D00000901891780F7E82FF0E09F01220F331FA8
:101D1000E20FF31FEF5FFD4F1182108212828F5F7F
:101D2000F0CF8091FC018E7F8093FC016091FC01DB
:101D30007091FD018091FE019091FF010E94A40D20
:101D40008091EA0180FF0FC08091FC0181701F9299
:101D50008F9381EF92E09F938F930E9410050F90D5
:101D60000F900F900F902FEF80E792E0215080406E
:101D70009040E1F700C000000C946C0E9091FC01C3
:101D800090FF16C09091580120910901921770F4AC
:101D9000E92FF0E0DF01AA0FBB1FEA0FFB1FEF5F87
:101DA000FD4F8183608342839F5FF0CF0C946C0E64
:101DB0000895EF92FF920F931F93CF93DF9300D07C
:101DC0001F92CDB7DEB79091FC0190FF54C0E22E78
:101DD000F42E062F182FE92FE695F0E0E85DFE4F70
:101DE000808180935B019E7F923059F49E012F5F2A
:101DF0003F4F812F0E94870D4B8169818A810E940C
:101E0000BE0E1093FD010093FE01F092FF01EE2043
:101E1000E9F06091FC017091FD018091FE019091CB
:101E2000FF010E94A40D8091EA0180FF24C08091EF
:101E3000FF011F928F938091FE011F928F938091DB
:101E4000FD011F928F938CEC92E00CC08091EA010F
:101E500080FF11C01F92FF921F920F931F921F933A
:101E600085EA92E09F938F930E9410050FB6F89435
:101E7000DEBF0FBECDBF0F900F900F90DF91CF91BF
:101E80001F910F91FF90EF900895ECEFF1E0918199
:101E9000282F4381628188E0890F0C94D90E81E05C
:101EA0000C94450FECEFF1E09181282F4381628182
:101EB00088EF890F0C94D90E81E00C94520FECEF4F
:101EC000F1E0628121E1620F08F46FEF282F438176
:101ED00081810C94D90E81E00C945F0FECEFF1E05E
:101EE000628121E1621B08F460E0282F4381818137
:101EF0000C94D90E81E00C946E0FECEFF1E043816D
:101F000021E1420F08F44FEF282F628181810C9468
:101F1000D90E81E00C947D0FECEFF1E0438121E1DB
:101F2000421B08F440E0282F628181810C94D90E75
:101F300081E00C948C0F20E00C94D90E8091FC0170
:101F400080FF35C0817082608093FC016623B1F010
:101F50006091FC017091FD018091FE019091FF0163
:101F60000E94A40D8091EA0180FF19C08091FC01BC
:101F700086951F928F9385EB93E009C08091EA01CB
:101F800080FF0DC01F9281E08F9387E993E09F93BC
:101F90008F930E9410050F900F900F900F9040911B
:101FA000FF016091FE018091FD010C949B0F08954B
:101FB000682F81E00C949E0F81E00C94D80F682F5D
:101FC0009091FC0196958FEF890F09F481E00C94B4
:101FD0009E0F81E00C94DF0F61E00C949E0F8091C6
:101FE000FC0181608093FC018091EA0180FF0DC0BB
:101FF0001F9281E08F9389E293E09F938F930E94D9
:1020000010050F900F900F900F908091FC01869516
:102010000C94EC0F8091EA0180FF10C08091FC01CC
:10202000809581701F928F9380E693E09F938F93AA
:102030000E9410050F900F900F900F908091FC015F
:1020400080FD0C94910E0C94EF0F60E00C949E0FA9
:1020500080915A0181115EC08091EA0180FF08C021
:1020600088E594E09F938F930E9410050F900F9046
:102070008091EA0180FF08C082E494E09F938F93EF
:102080000E9410050F900F900E94D520811110C062
:102090008091EA0180FF08C08AE194E09F938F93CA
:1020A0000E9410050F900F900E947E210E94C00D8B
:1020B0000E94A00D6093FC017093FD018093FE01CE
:1020C0009093FF016E7FC1F48091EA0180FF08C008
:1020D00081ED93E09F938F930E9410050F900F90D6
:1020E0000E94C00D0E94A00D6093FC017093FD0141
:1020F0008093FE019093FF010E94950D0E94CF0DE9
:102100008091FC0180FF03C086950E94251081E02C
:1021100080935A0108950E94D520811102C00E9427
:102120007E210E94062180932502282F2695269540
:10213000269530E02630310524F087708862809340
:1021400025028091250280FF04C08695869586959C
:1021500001C080E00C94EC1120912502822F86951D
:1021600086958695482F50E04530510554F48F5F91
:10217000982F990F990F990F822F8770892B809331
:102180002502809125028160809325020E940A2108
:102190008091EA0180FF11C0809125028695869585
:1021A00086951F928F9381E995E09F938F930E946C
:1021B00010050F900F900F900F908091250286953B
:1021C000869586950C94EC1180912502982F969512
:1021D00096959695A1F0915E990F990F990F87703A
:1021E000892B80932502887F91E009F490E080910B
:1021F000250290FB80F9809325020E940A2180919C
:10220000EA0180FF11C0809125028695869586950A
:102210001F928F9389E795E09F938F930E941005FB
:102220000F900F900F900F908091250286958695C4
:1022300086950C94EC118091250280FD1FC0816071
:1022400080932502813019F489E0809325028091E2
:1022500025020E940A218091EA0180FF08C081E5E1
:1022600095E09F938F930E9410050F900F9080919F
:1022700025028695869586950C94EC11089580919B
:10228000250280FF14C08E7F809325020E940A21C0
:102290008091EA0180FF08C08EE395E09F938F93C1
:1022A0000E9410050F900F9080E00C94EC1108959F
:1022B000CF93C0912502C1708091EA0180FF0CC0CC
:1022C0001F92CF9383E695E09F938F930E94100512
:1022D0000F900F900F900F90CC2319F0CF910C948A
:1022E0003F11CF910C941B118091250281700895AC
:1022F00090912502892F8695869586958F5F8F719F
:102300009770863038F4880F880F880F892B809358
:10231000250202C09093250280912502887F91E0DA
:1023200009F490E08091250290FB80F980932502CA
:102330000E940A218091EA0180FF11C0809125024C
:102340008695869586951F928F938AE295E09F9356
:102350008F930E9410050F900F900F900F90809117
:1023600025028695869586950C94EC11863008F0AA
:1023700085E0880F880F880F909125029770892B30
:1023800080932502887F91E009F490E080912502F6
:1023900090FB80F9809325020E940A2180912502FA
:1023A0008695869586950C94EC11809125028695EC
:1023B000869586950895E82FE295EF70F0E032A1BA
:1023C000282F2F7081E090E001C0880F2A95EAF74E
:1023D0008095832382A30895CF92DF92EF92FF929C
:1023E000863030F4811105C0909180009F7704C041
:1023F00085E090918000906890938000282F30E0D5
:10240000AFEFBFEF0E94D92A25E030E040E050E076
:102410000E94B12A2C3784E138074105510530F478
:10242000C90169E070E00E949D2A29C0DA01C90152
:102430008A50974DAF4FBF4F6627782F892F9A2F1D
:1024400025EF38E241E050E00E94B12A69017A01AB
:10245000CA01B9010E94812A9B01AC01C701B601E2
:102460000E94812ABB27A92F982F872F009721E050
:10247000A207B10511F0BC0102C06FEF7FEF7093AE
:10248000890060938800FF90EF90DF90CF900895CF
:102490000895259A85E30E94DB1182E880938000ED
:1024A00089E1809381008FEF9FEF90938700809365
:1024B00086000C948B102BB1342F309523233BB125
:1024C000432B3FB7F894FC01680F791FE617F70715
:1024D00089F0819198E04BB9000000C087FF2BB9CB
:1024E000880F000000C000C000C02BB900C09A9542
:1024F00091F7ECCF3FBF08952AB1242B2AB99B0155
:10250000220F331F620F731F0E945B1287EC90E053
:102510000197F1F700C00000089548E00C947C1288
:102520000F931F93CF93DF93C62FD42F022FFC015D
:1025300082818823C9F060935F010E944D229093AD
:102540005E0180935D0180E28C0F883008F050C0FE
:10255000C77081E001C0880FCA95EAF7DF91CF917B
:102560001F910F910C94C31710915F01161330C087
:1025700080915D0190915E010E945922883C9105F5
:1025800038F5C0E2CD0F1D17B9F080E2810F883019
:1025900040F4177081E001C0880F1A95EAF70E9495
:1025A000CA17C83048F481E09D2F977001C0880F8A
:1025B0009A95EAF70E94C317802F0E94B017C8307F
:1025C000B8F4D77081E001C0880FDA95EAF70AC045
:1025D00080E28C0F883060F4C77081E001C0880F02
:1025E000CA95EAF7DF91CF911F910F910C94CA170A
:1025F000DF91CF911F910F9108959C01CB01233F53
:102600004CE53407F9F078F4283DFCE53F07B9F0D4
:10261000293D4CE5340711F1273D3C4531F526E2D3
:1026200041EE61EE1EC0253FFCE53F0799F070F0DA
:10263000263F3C45D1F427E245EE66EE12C027E284
:1026400045EE0EC026E241EE60EE0BC027E245EEFD
:1026500064EE07C026E241EE62EE03C028E241E0EC
:1026600065EE0E94901280E00895FC01828188232B
:1026700019F010925F01089581E008958EE1489B62
:1026800002C08150E1F7489BFECF0895589880E240
:102690008A95F1F7589A0895FC013AE03A95F1F7D6
:1026A00098E020E080E031E040E14A95F1F7880FC2
:1026B000489B02C08160232700C0000040E14A958A
:1026C000F1F7915089F790E19A95F1F799B100C02F
:1026D000000030E13A95F1F7917092272081920F36
:1026E00090830895FF920F931F93CF93DF9300D0B1
:1026F000CDB7DEB71982F82E8C01802F8F1986177F
:1027000060F46A830E943E13CE0101960E944C132E
:10271000F80181938F016A81F0CF81E09981911155
:1027200080E00F900F90DF91CF911F910F91FF905C
:102730000895909362018093610160936001509AC3
:10274000589A0895909362018093610160936001AB
:102750005098589AE89AE9E6F0E080818C7F80836F
:102760000895615091E001C0990F6A95EAF720E061
:1027700031E0992361F0492F482319F0589A232713
:1027800001C0589840E24A95F1F79695F2CF22237E
:1027900011F0589A01C0589880E28A95F1F758983C
:1027A0000895EF92FF920F931F93CF93DF931F92A1
:1027B000CDB7DEB7162F082F7C018E2D801B811719
:1027C00058F4F70181917F0189830E94461368E0E4
:1027D00089810E94B113F1CF0F90DF91CF911F91AA
:1027E0000F91FF90EF9008951F920F920FB60F92E6
:1027F00011242F933F934F935F936F937F938F9306
:102800009F93AF93BF93CF93DF93EF93FF9358982A
:10281000509AC0916101D09162016D81662321F0CF
:102820008E819F810E94D1130E94461380E18A9578
:10283000F1F758985098589A80E18A95F1F76A8193
:10284000662351F08B819C810E947213E881F9818B
:10285000811104C082E003C0E881F98188E08083AF
:102860000E943E13FF91EF91DF91CF91BF91AF9105
:102870009F918F917F916F915F914F913F912F9198
:102880000F900FBE0F901F901895CF93DF93C091BC
:102890006101D0916201F894509A589885E08A9528
:1028A000F1F700005098589A80E28A95F1F7489B1A
:1028B0000AC0509A589AE881F98181E0808378941F
:1028C00081E090E02CC06D81662381F08E819F8134
:1028D0000E94721381110AC0509A589AE881F981B6
:1028E00082E08083789482E090E019C00E943E13D9
:1028F00080E28A95F1F75898509A80E18A95F1F72D
:102900006A81662321F08B819C810E94D1130E94F1
:102910004613E881F9811082789480E090E0DF919D
:10292000CF91089590936801809367010895E09195
:102930006701F0916801309721F00190F081E02D5E
:10294000099480E00895EF92FF920F931F93CF9325
:10295000DF93E0916701F09168013097B1F18C014C
:102960000280F381E02D09958091EA0182FF2DC05C
:1029700080FF04C081EB96E00E947704E80118E034
:102980008BEAE82E86E0F82E8091EA0180FF0BC0EA
:1029900088811F928F93FF92EF920E9410050F90F3
:1029A0000F900F900F90115021961111EDCF809143
:1029B000EA0180FF0AC089EA96E0DF91CF911F917A
:1029C0000F91FF90EF900C947704DF91CF911F91BE
:1029D0000F91FF90EF90089520916501309166016D
:1029E0008217930771F09093660180936501E091DF
:1029F0006701F0916801309721F00680F781E02DA2
:102A0000099408952091630130916401821793071E
:102A100071F09093640180936301E0916701F091FC
:102A20006801309721F00084F185E02D0994089524
:102A300085B7806885BF85B7806885BF089508958C
:102A400008950C94201508950C9423150E941815D0
:102A50000E941F150C9421150E9444220E94350BE0
:102A60000E94BA220E948B100E9428100C942415F8
:102A7000CF93C82F8091EA0182FF1EC080FF04C05F
:102A80008AEC96E00E9477048091EA0180FF0CC0F6
:102A90001F92CF9385EC96E09F938F930E94100531
:102AA0000F900F900F900F908091EA0180FF04C06B
:102AB00083EC96E00E9477048C2FCF910C946C05E8
:102AC000CF92DF92EF92FF920F931F93CF93DF93FA
:102AD000CDB7DEB72B970FB6F894DEBF0FBECDBFD4
:102AE0000E94130C0E94860C811111C08FEF898304
:102AF0008A831B820E944D228160782F9D838C8364
:102B000049815A816B818D810E94061656C08AE6E2
:102B1000C82E81E0D82E00E010E0E02E802F0E9429
:102B2000E90AF60141916F01F42EF82631F40F5FA6
:102B30001F4F0A30110589F7D9CF9091EA0191FF13
:102B400004C08B870E94EF0A8B8520E030E04F2D78
:102B500050E0922FBA01022E02C0759567950A9433
:102B6000E2F760FF24C02E83EF8221E030E06901AC
:102B700002C0CC0CDD1C9A95E2F790E08C219D21DF
:102B8000892B09F420E028870E944D228160782F4C
:102B90009A8789874E815F8168858A850E9406169B
:102BA000F801E659FE4F8081C826C08206C02F5F1B
:102BB0003F4F2630310569F6BACF109169010E9466
:102BC00097141817A1F00E949714809369012B960F
:102BD0000FB6F894DEBF0FBECDBFDF91CF911F912E
:102BE0000F91FF90EF90DF90CF900C9438152B96BB
:102BF0000FB6F894DEBF0FBECDBFDF91CF911F910E
:102C00000F91FF90EF90DF90CF900895CF93DF93D7
:102C1000CDB7DEB72B970FB6F894DEBF0FBECDBF92
:102C20004F83588769877A878B87DE01119686E004
:102C3000FD0111928A95E9F785E0FE013796019032
:102C40000D928A95E1F749815A816B817C818D8152
:102C50009E810E94FD1C2B960FB6F894DEBF0FBE1E
:102C6000CDBFDF91CF910895FC01808191810E94B9
:102C7000CB1F0895882309F413C1682F8238C1F44B
:102C80000E94971481FD0CC169E380910B01909122
:102C90000C010E94B7210E9456202FEF81EE94E094
:102CA000215080409040E1F700C0000069E319C066
:102CB0008338F9F40E94971480FDF2C063E5809197
:102CC0000B0190910C010E94B7210E9456202FEF1A
:102CD00081EE94E0215080409040E1F700C0000078
:102CE00063E580910B0190910C010E94B9210C9435
:102CF00056208438C1F40E94971482FDD1C067E445
:102D000080910B0190910C010E94B7210E945620E6
:102D10002FEF81EE94E0215080409040E1F700C019
:102D2000000067E4DECF8CEF860F813A38F48091A3
:102D30000B0190910C010E94B721D9CF80E2860F40
:102D4000883048F4677081E001C0880F6A95EAF71F
:102D50000E940D20CCCF8BE5860F833070F4653A4E
:102D600029F0663A31F083E890E005C081E890E010
:102D700002C082E890E00C94EC1488E5860F87315D
:102D800008F08EC0683A09F445C0693A09F445C0B4
:102D90006A3A09F445C06B3A09F445C06C3A09F443
:102DA00045C06B3B09F445C06C3B09F445C06D3A26
:102DB00009F445C0603B09F445C06E3A09F445C0CA
:102DC0006F3A09F445C0613B09F445C0623B09F420
:102DD00045C0633B09F445C0643B09F445C0653B0D
:102DE00009F445C0663B09F445C0673B09F445C09A
:102DF000683B09F445C0693B09F445C06D3B09F4E3
:102E000045C06E3B09F445C06A3B09F445C080E00B
:102E100090E044C082EE90E041C089EE90E03EC078
:102E20008AEE90E03BC085EB90E038C086EB90E006
:102E300035C083EB90E032C084EB90E02FC087EB8D
:102E400090E02CC08CEC90E029C08DEC90E026C086
:102E500083E891E023C08AE891E020C082E991E014
:102E60001DC084E991E01AC081E292E017C083E2BC
:102E700092E014C084E292E011C085E292E00EC0BC
:102E800086E292E00BC087E292E008C08FE690E015
:102E900005C080E790E002C08AE292E00C9402153F
:102EA0000895882309F45BC0682F823879F40E9462
:102EB000971481FF54C069E380910B0190910C013C
:102EC0000E94B7210E94562069E310C08338B1F4F4
:102ED0000E94971480FF43C063E580910B0190919D
:102EE0000C010E94B7210E94562063E580910B01DE
:102EF00090910C010E94B9210C945620843879F4E9
:102F00000E94971482FF2BC067E480910B0190917F
:102F10000C010E94B7210E94562067E4E7CF8CEF96
:102F2000860F813A18F380E2860F883048F4677084
:102F300081E001C0880F6A95EAF70E941320DCCF78
:102F40008BE5860F833020F480E090E00C94EC1445
:102F5000685A673120F480E090E00C9402150895DF
:102F6000CF93C82F0E943A16C93349F42FEF87EE4A
:102F700093E0215080409040E1F700C000008C2F8A
:102F8000CF910C945117882321F00E940D200C94AE
:102F900056200895882321F00E9413200C94562077
:102FA0000895BF92CF92DF92EF92FF920F931F93FB
:102FB000CF93DF937C01062FC72FFC01158112955B
:102FC0001F70D281D1110E942A200E9403208823E1
:102FD00079F0DD2369F080E2800F883048F082E0EC
:102FE0000E94A1200E94032091E0B82EB92601C0C2
:102FF000B12CCC2EC2948FE0C822D12CF601EA5A13
:10300000FF4F0C94D32A8C2F807FCF70882311F030
:10301000C295C07FDD2399F0CC2309F48DC180E2F5
:10302000800F883010F0011104C08C2F0E940D20F9
:1030300003C08C2F0E941D200E9456207DC1802F2E
:103040000E945117CC2309F4C0C180E2800F883060
:1030500010F0011104C08C2F0E94132003C08C2F8C
:103060000E9423200E945620B0C18C2F807FCF70F9
:10307000803211F0C295C07F002319F00130C9F0F1
:1030800022C0DD2371F0112341F0113031F40E9490
:103090003D208C2B0E94432098C10E943D208C2B08
:1030A0001DC0112319F0113009F48FC10E944C206A
:1030B00025C0DD2321F0163008F087C10EC0153081
:1030C00008F083C11BC0DD2361F0112331F0F7014B
:1030D000858180FF31C18F7085838C2F0E94C3173B
:1030E00074C1112359F0093309F037C1FFEF27EEFE
:1030F00083E0F15020408040E1F72DC18C2F0E94E9
:10310000CA1763C18C2F86958695837090E00097CF
:1031100019F0019761F059C1DD2321F0802F9C2F18
:10312000937002C080E090E00E94EC1459C1DD234E
:1031300021F0802F9C2F937002C080E090E00E94CD
:1031400002154EC18C2F837009F049C0D11144C1C2
:10315000402F429546954770440F440F602F6F7083
:10316000862F90E0A0E0B0E0042E04C0880F991FE5
:10317000AA1FBB1F0A94D2F704FF10C00FE010E093
:1031800020E030E004C0000F111F221F331F4A95BA
:10319000D2F7009510952095309503C000E010E01F
:1031A0009801C695C695C370D0E0BC01CD01602BD7
:1031B000712B822B932BC230D10559F0C330D1052E
:1031C00059F0219719F00E94421E06C10E94301E3C
:1031D00003C10E94541E00C10E942E1EFDC0DD23AB
:1031E00019F08C2F817001C08695882309F4F4C0F2
:1031F000402F429546954770440F440F602F6F70E3
:10320000862F90E0A0E0B0E0042E04C0880F991F44
:10321000AA1FBB1F0A94D2F704FF10C00FE010E0F2
:1032200020E030E004C0000F111F221F331F4A9519
:10323000D2F7009510952095309503C000E010E07E
:103240009801C695C695C370D0E0BC01CD01602B36
:10325000712B822B932BC230D10559F0C330D1058D
:1032600059F0219719F00E94081FB6C00E94F61E5F
:10327000B3C00E941A1FB0C00E94691EADC0CF70BB
:10328000DD2339F08C2F0E948F1E802F0E94C317E0
:10329000A3C0802F0E94CA178C2F0E94B01E9CC012
:1032A000023F01F128F4003F41F0013FA1F040C08E
:1032B000033FF9F0043F39F13BC0DD2341F0153005
:1032C00008F083C08C2F8F710E94D51E7EC01630EF
:1032D00008F07BC0F7CFDD2339F08C2F8F710E946F
:1032E0008F1E73C0DD23C9F38C2F8F710E94B01E17
:1032F0006CC0DD2329F08C2F8F710E947A1E65C06F
:103300000E94751E62C0DD2349F0CF718C2F0E9490
:103310008F1E63E08C2F0E948C2057C081E00E949A
:10332000A120123008F451C082E00E94A1204DC0BB
:10333000DD2331F0112389F2802F0E943A1645C017
:10334000112391F2093349F49FEFE7EEF3E0915036
:10335000E040F040E1F700C00000802F0E945117CC
:1033600034C04C2F4F70602FC7010E94FC070E9491
:10337000A11D36C0D11134C0CF70D0E0C230D1050C
:1033800099F03CF4209769F02197F9F40E94E41039
:1033900027C0C430D10571F054F02597B1F480E016
:1033A0000AC00E94AC101CC00E94581119C00E9493
:1033B000781116C085E00E94B61112C04C2F4F70D4
:1033C000602FC7010E94FF070BC028E0C21AD10876
:1033D00084E0C816D10420F40E9497140E946C0562
:1033E000BB20D1F00E94FF1F80FD16C0F7011282A2
:1033F0000E94F91F0E948F1EC7010E94161A0E9488
:10340000F91FDF91CF911F910F91FF90EF90DF9007
:10341000CF90BF900C94B01EDF91CF911F910F9170
:10342000FF90EF90DF90CF90BF9008950F931F9380
:10343000CF93DF93EC01888199812B813C81232BF1
:10344000B9F09F3F11F48F3F99F0CE010E948B0598
:10345000882371F0688179818A810E94D61F8C014E
:103460000E942C1F0E942D1EB801CE010E94D11770
:10347000DF91CF911F910F9108950E942A200E9401
:103480003A200E94562080E090E00E94EC1480E0F8
:1034900090E00C94021580910B0190910C010E9418
:1034A000BB210C943D1A0E941A200C944B1AE92F50
:1034B000E295EF70F0E03297EE30F105B0F4EA59A2
:1034C000FF4F0C94D32A803F91F018F4883E68F4A3
:1034D0000EC0843F51F40BC0883E48F0813F29F470
:1034E00006C093FB882780F9089580E0089581E065
:1034F00008950E94CB1F0E94571A0895CF93DF931F
:1035000000D000D01F92CDB7DEB70F900F900F9074
:103510000F900F90DF91CF910895CF93DF9300D05C
:1035200000D000D0CDB7DEB726960FB6F894DEBF38
:103530000FBECDBFDF91CF9108951F93CF93DF933F
:10354000C091750116E080917601C81799F0D0E01E
:103550001C9FF0011D9FF00D1124E958FE4F408182
:10356000518162817381848195810E948D1A219697
:10357000C770E9CFDF91CF911F9108954091A701C6
:103580005091A8016091A9017091AA018091AB01AD
:103590009091AC010C948D1A8091AC0182958F7042
:1035A00009F054C08091A901882309F44FC080918B
:1035B0007501A09176016091A7017091A8014091D9
:1035C000AA015091AB01B6E08A1709F43FC090E020
:1035D00041155105C1F17F3F11F46F3FA1F1B89F33
:1035E000F001B99FF00D1124E958FE4F21817213AB
:1035F0002AC02081621327C02281211124C0238187
:1036000034812417350710F421503109241B350B60
:10361000283C3105C0F42091AC012F70206120932B
:10362000AC0126E0289FF001299FF00D1124E458F9
:10363000FE4F80818F708061808387EA91E00E94D5
:10364000161A0C949D1A01968770BECF0895CF92DA
:10365000DF92EF92FF920F931F93CF93DF93CDB73B
:10366000DEB762970FB6F894DEBF0FBECDBF8C01F8
:1036700085E0F801DE011D9601900D928A95E1F733
:10368000D8014C9111965C91119712966C911297FA
:103690001396CD90DC9014973091A7017091A801FA
:1036A0008091AA019091AB01009709F46BC17F3F13
:1036B00019F43F3F09F466C1E090A901EE2009F436
:1036C000C0C02091AC01C816D90628F0F601E81B4D
:1036D000F90BCF0104C0809590958C0D9D1DFF24A2
:1036E000F394883C910578F0F12C207F09F0C6C056
:1036F0007C2DD98AC88A89890E947E1A87EA91E03E
:103700000E94161AB1C0822F807F09F046C075133F
:1037100014C0341312C0611110C02F7020612093A7
:10372000AC010E94BE1A87EA91E00E94161A8091AD
:10373000AC01D80115968C932EC0CD2819F15F3FAE
:1037400011F44F3FF9F0F62E61111CC08091750104
:103750002091760136E0821709F45AC090E0389F34
:10376000F001399FF00D1124E958FE4F7181571374
:1037700006C07081471303C07281711103C00196A6
:103780008770E9CFF62E662309F427C18091AC013A
:1037900081608093AC01F12C20C1751308C03413F3
:1037A00006C0611104C08091AC01D801C3C04D872F
:1037B0005E878D859E856A8B0E94791A6A89882327
:1037C000E1F16623D1F12091AC01822F82958F70B7
:1037D00090E0029774F08091A7019091A8019887DA
:1037E0008F831986DB86CA862C87CE0107960E94B6
:1037F000161A86E0F801A7EAB1E001900D928A95C9
:10380000E1F70E94CC1A0E94BE1AFF24F394E5C08F
:103810004D875E878D859E850E94CB1F292F22951F
:103820002F7030E0223031050CF0CBC09F7009F0D2
:10383000C5C0805E883008F4D0C0C8010E94161A46
:10384000E4CFC816D90608F453C0F601E81BF90BFB
:10385000CF01883C910508F450C0F12C7C2DD98A09
:10386000C88A89890E947E1AE7EAF1E086E0DF01D2
:103870001D928A95E9F70E94BE1AAFC0751314C055
:10388000341312C0611110C08091AC01F80185831E
:10389000C8010E94161A86E0E7EAF1E0DF011D92F6
:1038A0008A95E9F7FE2C99C04D875E878D859E85A8
:1038B0006A8B0E94791A6A89882309F4BECF66232D
:1038C00009F4BBCF2091AC01822F82958F7090E0DC
:1038D00002970CF48ECF8091A7019091A8019A8352
:1038E00089831B82DD82CC822E83CE0101967FCF1D
:1038F000809590958C0D9D1DACCFF62E662309F416
:103900009CCF75132EC034132CC02091AC0120FD28
:103910001FC0822F82958F70D9F0D80115962C93F5
:1039200015978F3049F08F5F982F9295907F822F57
:103930008F70892B15968C93C8010E94161A86E009
:10394000F801A7EAB1E001900D928A95E1F793CFD3
:1039500086E0F801A7EAB1E001900D928A95E1F7BF
:103960003CC04D875E878D859E850E94791A8111A6
:1039700040CF8091AC0181608093AC01C8010E946E
:10398000161A2BC0662309F458CF4D875E878D85A4
:103990009E850E94791AF82E882309F44ECF86E07E
:1039A000F801A7EAB1E001900D928A95E1F787EA64
:1039B00091E00E9434160E94CC1A5DCF811139CF5C
:1039C0000CC0243031050CF038CF9F7009F431CF92
:1039D000F8019581907F09F02CCF8F2D62960FB65C
:1039E000F894DEBF0FBECDBFDF91CF911F910F9135
:1039F000FF90EF90DF90CF9008951F93CF93DF93C8
:103A0000CDB7DEB72C970FB6F894DEBF0FBECDBF93
:103A10004F83588769877A878B879C87CE01079663
:103A20000E94271B882369F08F8198852A853B8512
:103A3000232BF1F19F3F09F063C08F3F09F060C075
:103A400037C086E0FE013796DE01119601900D9297
:103A50008A95E1F76F817885EA85FB85309741F19A
:103A60007F3F11F46F3F21F12091760130E0C901D1
:103A70000196877099274091750150E0841795074A
:103A800009F447C069837A83FD83EC8396E0929FB3
:103A9000D001939FB00D1124A958BE4FFE0131965D
:103AA00001900D929A95E1F7809376010E949D1AFC
:103AB00016E080917501909176018917C1F1189FE8
:103AC000C001112489589E4F0E94271B882379F139
:103AD000E09175011E9FF0011124E958FE4F4081CD
:103AE000518162817381848195810E948D1A8091B8
:103AF000750190E001968770992780937501D9CF61
:103B00004F81588569857A858B859C850E948D1AA1
:103B1000CFCF0E94531A1092760110927501E7EAF6
:103B2000F1E086E0DF011D928A95E9F7C1CF2C967E
:103B30000FB6F894DEBF0FBECDBFDF91CF911F91BE
:103B40000895EF92FF920F931F93CF93DF938C0111
:103B5000892B09F46CC0F12CEE24E394E801219642
:103B6000F8018491843740F4843008F051C08130EA
:103B700081F0823019F15BC0853709F444C0A8F1A7
:103B80009CE7980F903708F052C08F770E9451172A
:103B900041C00E5F1F4FFE01C49180E28C0F883040
:103BA00048F4C7708E2D01C0880FCA95EAF70E94AD
:103BB0002D2014C08C2F0E943A162DC00E5F1F4F6F
:103BC000FE01C49180E28C0F883058F4C7708E2DAE
:103BD00001C0880FCA95EAF70E9433200E94562040
:103BE0001AC08C2F0E94511716C00E5F1F4FFE0186
:103BF000C491CC2381F08FE99FE00197F1F700C0D9
:103C00000000C150F6CF0E5F1F4FFE01F49003C0BD
:103C10000E943A168E018F2D882309F49FCFEFE979
:103C2000FFE03197F1F700C000008150F5CFDF9140
:103C3000CF911F910F91FF90EF90089508950C94EC
:103C40001E1E0E941F1E6093D9017093DA0180939B
:103C5000DB019093DC010C943D1A08950C94211E15
:103C60000F931F930091D9011091DA012091DB018C
:103C70003091DC01602B712B822B932B1F910F91C4
:103C80000C94211E0F931F930091D9011091DA011A
:103C90002091DB013091DC01602371238223932387
:103CA0001F910F910C94211E0F931F930091D90126
:103CB0001091DA012091DB013091DC01602771273E
:103CC000822793271F910F910C94211E08950C9425
:103CD000661E0E94671E6093D5017093D601809383
:103CE000D7019093D8010C943D1A60E070E0CB01AD
:103CF0000C94691E0F931F9341E050E060E070E068
:103D00008A019B0104C0000F111F221F331F8A95D7
:103D1000D2F7C901B8011F910F910C94691E0F933E
:103D20001F9341E050E060E070E004C0440F551F75
:103D3000661F771F8A95D2F78091D5019091D601A1
:103D4000A091D701B091D8018A019B01082B192BB2
:103D50002A2B3B2BC901B8011F910F910C94691EAE
:103D60000F931F9341E050E060E070E004C0440F07
:103D7000551F661F771F8A95D2F74095509560951D
:103D800070958091D5019091D601A091D701B09105
:103D9000D8018A019B01082319232A233B23C90147
:103DA000B8011F910F910C94691E0F931F9341E06E
:103DB00050E060E070E004C0440F551F661F771F9D
:103DC0008A95D2F78091D5019091D601A091D70123
:103DD000B091D8018A019B01082719272A273B2780
:103DE000C901B8011F910F910C94691E0F931F9385
:103DF0000091D5011091D6012091D7013091D801C1
:103E0000602B712B822B932B1F910F910C94691EA9
:103E10000F931F930091D5011091D6012091D701E6
:103E20003091D80160237123822393231F910F9136
:103E30000C94691E0F931F930091D5011091D60128
:103E40002091D7013091D8016027712782279327CD
:103E50001F910F910C94691E0895292F220F920F24
:103E6000990F890FA82FA695A695A695877051E062
:103E700001C0550F8A95EAF785E0A89FD00111246B
:103E800020E030E070E0F901EA0FFB1FE355FE4F40
:103E90004081CB01022E02C0969587950A94E2F7E5
:103EA00081709927819584278523842780832F5FBC
:103EB0003F4F2530310539F70895292F220F920FF2
:103EC000990F890F682F669566956695982F97705C
:103ED00085E0689FB001112440E050E080E0FA01E5
:103EE000E60FF71FE355FE4F208130E0092E02C098
:103EF000369527950A94E2F721703327042E01C0E6
:103F0000220F0A94EAF7822B4F5F5F4F453051052D
:103F100031F70895BF92CF92DF92EF92FF920F9305
:103F20001F93CF93DF938C01C090D901D090DA0119
:103F3000E090DB01F090DC018091D5019091D601F9
:103F4000A091D701B091D801C82AD92AEA2AFB2A20
:103F5000CFE1D0E0D701C6010C2E04C0B695A795DD
:103F6000979587950A94D2F780FF07C0BC2EB801B9
:103F70008C2F0E941A08019719F4219758F7B12C39
:103F80008B2DDF91CF911F910F91FF90EF90DF90DC
:103F9000CF90BF900895CF93DF93EC010E948A1FCA
:103FA000BE010E941A08DF91CF9108951F93CF930D
:103FB000DF93EB0190917401992321F0CB010E94D2
:103FC000CB1F13C0882349F0CB010E948A1F182FF2
:103FD000682FCE010E942D1F04C0CB010E945D1FDF
:103FE000182FBE01812F0E941A08DF91CF911F91D7
:103FF00008958091DD018595859585950895809139
:10400000DD01877008959091DD01977081E009F4DA
:1040100080E008958091E90108959091E901892B4C
:104020008093E901089580959091E9018923809317
:10403000E90108951092E90108959091E801892B12
:104040008093E801089580959091E80189238093F9
:10405000E80108951092E80108959091E701892BF5
:104060008093E701089580959091E70189238093DB
:10407000E70108951092E70108958091DE01089507
:1040800008950C9440209091DE01981721F08093C0
:10409000DE010C94412008958091DE01882329F0EF
:1040A0001092DE0180E00C9441200895E0910B0114
:1040B000F0910C018091E9018083E0910B01F09176
:1040C0000C0190818091E801892B8083E0910B01A4
:1040D000F0910C0190818091E701892B8083809180
:1040E000DE01882381F0E0910B01F0910C019081B9
:1040F000892B808380910B0190910C010E94852176
:1041000081110E944C2080910B0190910C010C9424
:10411000A31408950C94892098E0899F900111249C
:10412000262B2093DD010E948F1E8091DD01859555
:10413000859585950C948A201092DD0180E00C9481
:104140008A202091DD01809582238093DD01982FC4
:10415000977079F430E0482F082E000C550B241787
:10416000350739F08595859585950E94B01E0C948C
:104170009C20089590933B0180933A010895829585
:10418000982F9C7C392F36953695282F237344E041
:10419000249FC0011124932F982B292F2A7A26952A
:1041A000892F8575880F822B089580E090E00E940A
:1041B000012B21E08C3E9E4F09F020E0822F0895D4
:1041C00082E090E00C94F32A83E090E00C94F32AD0
:1041D000CF9384E090E00E94F32AC82F81E290E020
:1041E0000E94F32A2C2F30E0A901582BCA01CF914D
:1041F0000895CF93C92F682F84E090E00E94072B89
:104200006C2F81E290E0CF910C94072B86E090E038
:104210000C94F32A682F86E090E00C94072BAB01F6
:10422000BC018FE090E00C94192BAB01BC0183E141
:1042300090E00C94192B60E070E0CB010C941521F8
:1042400060E070E0CB010E940F210C941B216CEE0A
:104250007EEF80E090E00E94252B60E082E090E01D
:104260000E94072B60E083E090E00E94072B1092F1
:10427000D9011092DA011092DB011092DC0160E0AA
:1042800084E090E00E94072B60E081E290E00E94D1
:10429000072B60E085E090E00E94072B60E086E05D
:1042A00090E00E94072B6FEF87E090E00E94072BC1
:1042B00040E050E0BA0188E090E00E94192B60E0F5
:1042C0008DE090E00E94072B40E050E0BA0188E1C9
:1042D00090E00E94192B60E087E190E00E94072B9C
:1042E00040E050E0BA018CE190E00E94192B60E0C0
:1042F00080E290E00E94072B0C9420210C9427214F
:10430000682F8EE090E00C94072BFC01329697E02A
:1043100080E0915029F021912223D9F38F5FF9CFCA
:1043200008959C01FC0132969FEF80E04191461771
:1043300089F09F3F19F4411101C0982F8F5F86309B
:10434000A9F79F3F39F0F901E90FF11D97FDFA95A3
:10435000628308950895FC01329608962081261301
:1043600001C010823196E817F907C1F708950C943F
:1043700091210C94AB21029626E0FC0111922A9522
:10438000E9F7089508950C94C2210E94C3218091F9
:104390003002843061F11092EB0120E488E190E07A
:1043A0000FB6F894A895809360000FBE209360002C
:1043B00080E00E94EC1180E00E946C050E94C32105
:1043C00083B7817F846083BF83B7816083BF789424
:1043D000889583B78E7F83BF0FB6F894A895809198
:1043E0006000886180936000109260000FBE0895A5
:1043F00008950895CF930E94F8210E94130C0E9403
:10440000F921C0E08C2F0E94E90A811104C0CF5F1E
:10441000CA30C1F701C081E0CF91089508950C948E
:104420000E220E94531A0E948B100E9497140E9421
:104430006C050C940F221F920F920FB60F9211244D
:104440008F939F93AF93BF938091EB01811113C022
:104450008091260290912702A0912802B091290212
:104460004196A11DB11D8093260290932702A0932F
:104470002802B0932902BF91AF919F918F910F9025
:104480000FBE0F901F90189582E084BD93E095BDFC
:104490009AEF97BD80936E0008952FB7F89480919E
:1044A000260290912702A0912802B09129022FBFE5
:1044B0000895CF92DF92EF92FF920F931F932FB741
:1044C000F894409126025091270260912802709141
:1044D00029022FBF6A017B01EE24FF248C0120E01A
:1044E00030E0C016D106E206F30610F4415051093F
:1044F0009A01281B390BC9011F910F91FF90EF9072
:10450000DF90CF90089578941F920F920FB60F927C
:1045100011248F939F93AF93BF9380912602909124
:104520002702A0912802B09129020196A11DB11D78
:104530008093260290932702A0932802B093290229
:10454000BF91AF919F918F910F900FBE0F901F90D1
:10455000189587E797E790930108809300089AE001
:1045600088E10FB6F894A895809360000FBE9093F1
:104570006000FFCF0E94D520811102C00E947E21E1
:104580000E94E0208093EA010E94E82090932B0291
:1045900080932A020E94E420682F70E080E090E07F
:1045A0000C942E1E8091F701089508959FB7F894FA
:1045B0001092EE019FBF90913002943009F057C0E5
:1045C0009091E9009F703091EC00232F217030FD15
:1045D00020E8922B23E02093E9002091EB0020FFBC
:1045E00043C02091EE0027FF3FC02091EC01222321
:1045F00021F02091E80025FF37C01092EC0126E061
:104600003091E80035FD15C030913002343061F54D
:104610003091EB0035FD28C0215021F481E08093DA
:10462000EC0122C0EFE9FFE03197F1F700C0000094
:10463000E7CF8093F1008091E80085FD0AC080916A
:10464000E80080FFFCCF8091E8008E778093E8003F
:1046500006C08FB7F89421E02093EE018FBF9F70C2
:104660009093E90080E008959F709093E9008FEFA8
:1046700008950F931F93CF93DF9300D01F92CDB770
:10468000DEB78C010E94C925823011F0843021F5FB
:1046900084E089831B830A8382E08093E9008FEFA3
:1046A0009091E800815095FD06C095ED9A95F1F73F
:1046B00000008111F5CF8091E80085FF0DC040E03A
:1046C00050E063E070E0CE0101960E94E625809103
:1046D000E8008E778093E8000F900F900F90DF91A5
:1046E000CF911F910F910895CF93DF9300D01F9228
:1046F000CDB7DEB720913002243031F523E0298395
:10470000805891099B838A8382E08093E9008FEF30
:104710009091E800815095FD06C095ED9A95F1F7CE
:1047200000008111F5CF8091E80085FF0DC040E0C9
:1047300050E063E070E0CE0101960E94E625809192
:10474000E8008E778093E8000F900F900F90DF9134
:10475000CF910895CF93DF93EC010E94C925823059
:1047600011F0843039F581E08093E9008FEF90916A
:10477000E800815095FD06C095ED9A95F1F700008F
:104780008111F5CF8091E80085FF14C040E050E032
:1047900068E070E0CE010E94E6258091E8008E7707
:1047A0008093E80088E0FE01AFEEB1E001900D9249
:1047B0008A95E1F7DF91CF91089582E097E00E941A
:1047C000770480912F02811109C00E947B270E94EB
:1047D000D8278091E20084608093E20008958EEFF4
:1047E00096E00E94770410922F0208958AEF96E0D7
:1047F0000C94770486EF96E00C94770482EF96E0B1
:104800000E9477040C9411222091ED012F5F822FDA
:1048100062E30E94912A992319F02093ED010895F3
:104820001092ED018091EE01882371F180913002A8
:10483000843041F58091E9008F702091EC00922F37
:10484000917020FD90E8892B93E09093E90090917E
:10485000EB0090FF14C09091EE0097FF10C0909174
:10486000E80095FF03C01092F100F9CF9091E800A5
:1048700090FF05C09091E8009E779093E8008F70BC
:104880008093E9001092EE01089542E061EC81E02E
:104890000E94F52642E261EC82E00E94F52642E2A7
:1048A00061EC83E00C94F52680913202833009F4A8
:1048B00060C030F4813071F0823009F499C00895FD
:1048C0008A3009F485C08B3009F46BC0893009F057
:1048D000A7C020C080913102813A09F0A1C0809127
:1048E000E800877F8093E80080913502909136023E
:1048F000892B21F468E08FEE91E003C060E080E056
:1049000090E070E00E9431268091E8008B778093E0
:10491000E800089580913102813209F081C08091D0
:10492000350290913602029708F07AC08091E80033
:10493000877F8093E8008091E80082FD05C0809128
:1049400030028111F8CF6CC02091F3008091F20009
:1049500090E0922B029729F48091F1008B7F8130B7
:1049600021F48091F1008093F7018091E8008B772A
:1049700053C080913102813A09F052C080913502D2
:1049800090913602892B09F04BC08091E800877F17
:104990008093E8008091E80080FFFCCF80911701B0
:1049A00036C0809131028132D9F5809135029091E3
:1049B0003602892BA9F58091E800877F8093E80073
:1049C0000E942A2780913302809317010C94531A76
:1049D00080913102813221F58091E800877F8093B8
:1049E000E8000E942A27809134028093F8010895FC
:1049F00080913102813AA1F48091E800877F809311
:104A0000E8008091E80080FFFCCF8091F80180935E
:104A1000F1008091E8008E778093E8000C942A27BB
:104A2000089584B7877F84BF0FB6F894A8958091C6
:104A30006000886180936000109260000FBE80E883
:104A400080936100109261000E9426150E947B27CE
:104A50000E94D8278091E20084608093E20086ED76
:104A600092E20E94BA2078940E94662A0E942C1535
:104A70008DE091E00E94921481EE96E00E9477040E
:104A800080913002853089F48DED96E00E947704A4
:104A90000E94C52180912E02882391F30E94FA2161
:104AA000882371F30E94D025EBCF0E946015E8CFD8
:104AB0000C945A25292F332723303105C9F064F48B
:104AC0002130310581F02230310509F049C08BE5F4
:104AD00090E02EE337E048C02132310521F1223247
:104AE000310571F13DC082E190E029E937E03CC039
:104AF00099278130910571F02CF4892B89F5EAE32F
:104B0000F7E00DC08230910541F0039749F5E6E0EA
:104B1000F7E005C0EAE2F7E002C0ECE0F7E08491DC
:104B200090E09F0121C063307105D0F4660F771FBC
:104B3000FB01ED5CFE4F2081318189E090E014C0E3
:104B40006330710568F4FB01EE0FFF1FE35DFE4F5C
:104B500020813181FB01E65DFE4F808190E004C041
:104B600080E090E020E030E0FA0131832083089576
:104B70000895CF93C82F0E94B825C093F901CF9113
:104B8000089580913002843011F081E0089582E030
:104B900008958091F901811102C00C94C1250895F6
:104BA00080E189BD82E189BD09B400FEFDCF80911D
:104BB000D8008F7D8093D8008091E0008260809340
:104BC000E0008091E00081FDFCCF0895CF92DF925C
:104BD000EF92FF920F931F93CF93DF93EC018B0122
:104BE0006A010E944927811133C0C114D10439F0F0
:104BF000F60180819181081B190BC80FD91FE12C88
:104C0000F12C0115110519F18091E80085FD16C000
:104C10008091E8008E778093E800C114D10449F0B8
:104C2000F60180819181E80EF91EF182E08285E033
:104C30000FC00E944927882321F30AC089918093DD
:104C4000F10001501109FFEFEF1AFF0ADACF80E0FF
:104C5000DF91CF911F910F91FF90EF90DF90CF9058
:104C6000089520913702309138022617370748F00F
:104C70006115710539F42091E8002E772093E80042
:104C800001C0B90140E061157105A9F12091300220
:104C9000222309F443C0253009F442C02091E800E2
:104CA00023FD40C02091E80022FD32C02091E800A1
:104CB00020FFE9CF4091F3002091F20030E0342B47
:104CC000FC01CF016115710559F02830310540F420
:104CD00081918093F100615071092F5F3F4FF1CFB7
:104CE00041E02830310509F040E02091E8002E77BE
:104CF0002093E800C8CF4111C9CF0AC0809130028B
:104D0000882361F0853061F08091E80083FD0AC05E
:104D10008091E80082FFF2CF80E0089582E008955C
:104D200083E0089581E008952091370230913802A0
:104D30002617370748F06115710539F42091E8000E
:104D40002E772093E80001C0B901FC0120E0611535
:104D5000710591F180913002882309F440C08530BB
:104D600009F43FC08091E80083FD3DC08091E800D8
:104D700082FD2FC08091E80080FFE9CF2091F300F1
:104D80008091F20090E0922B6115710559F0883006
:104D9000910540F424912093F100319661507109FE
:104DA0000196F2CF21E0089709F020E08091E80019
:104DB0008E778093E800CBCF2111CCCF0AC08091B1
:104DC0003002882361F0853061F08091E80083FD36
:104DD0000AC08091E80082FFF2CF80E0089582E06F
:104DE000089583E0089581E00895982F973058F54D
:104DF0009093E900981739F07091EC002091ED0044
:104E00005091F00003C0242F762F50E021FF19C0ED
:104E10003091EB003E7F3093EB003091ED003D7F11
:104E20003093ED003091EB0031603093EB007093E4
:104E3000EC002093ED005093F0002091EE0027FF4E
:104E400007C09F5FD3CF8F708093E90081E0089502
:104E500080E008958091310287FF11C08091E800C1
:104E600082FD05C0809130028111F8CF11C0809180
:104E7000E8008B770BC080913002882349F0809145
:104E8000E80080FFF8CF8091E8008E778093E800FB
:104E900008952091E4003091E50095E64091EC0002
:104EA000842F817040FF22C08091E80080FD1CC0EB
:104EB00080913002882391F0853091F08091EB0051
:104EC00085FD10C04091E4005091E5004217530762
:104ED00029F39A01915011F784E0089582E0089532
:104EE00083E0089581E0089580E008954091E8000E
:104EF00042FFDECF08950E94E9270E94F127E0EEED
:104F0000F0E0808181608083E8EDF0E080818F7740
:104F1000808319BCA7EDB0E08C918E7F8C9380814B
:104F20008F7E808310922F0208950F931F93CF934B
:104F3000DF930E94E9270E94F127C8EDD0E0888125
:104F40008F77888388818068888388818F7D888334
:104F500019BC1092300210922C0210922E02109264
:104F60002D0200EE10E0F80180818B7F8083888124
:104F70008160888342E060E080E00E94F526E1EEF7
:104F8000F0E080818E7F8083E2EEF0E080818160BE
:104F90008083808188608083F80180818E7F808318
:104FA000888180618883DF91CF911F910F9108954F
:104FB000E8EDF0E080818F7E8083E7EDF0E0808196
:104FC0008160808384E082BF81E080932F020C9413
:104FD0009527E8EDF0E080818E7F80831092E200DB
:104FE00008951092DA001092E10008951F920F9236
:104FF0000FB60F9211242F933F934F935F936F93AC
:105000007F938F939F93AF93BF93EF93FF93809181
:10501000E10082FF0BC08091E20082FF07C0809117
:10502000E1008B7F8093E1000E9404248091DA00EC
:1050300080FF1FC08091D80080FF1BC08091DA00E4
:105040008E7F8093DA008091D90080FF0DC080E1CF
:1050500089BD82E189BD09B400FEFDCF81E0809366
:1050600030020E94DD2305C019BC109230020E945C
:10507000EF238091E10080FF19C08091E20080FF62
:1050800015C08091E2008E7F8093E2008091E20063
:1050900080618093E2008091D80080628093D80084
:1050A00019BC85E0809330020E94FA238091E100D0
:1050B00084FF30C08091E20084FF2CC080E189BD74
:1050C00082E189BD09B400FEFDCF8091D8008F7DBB
:1050D0008093D8008091E1008F7E8093E1008091E1
:1050E000E2008F7E8093E2008091E20081608093F5
:1050F000E20080912C02882311F084E007C08091A7
:10510000E30087FD02C081E001C083E080933002AC
:105110000E94FE238091E10083FF29C08091E2007C
:1051200083FF25C08091E100877F8093E10082E0CA
:105130008093300210922C028091E1008E7F809348
:10514000E1008091E2008E7F8093E2008091E20096
:1051500080618093E20042E060E080E00E94F526FA
:105160008091F00088608093F0000E94F623FF9108
:10517000EF91BF91AF919F918F917F916F915F91CF
:105180004F913F912F910F900FBE0F901F90189548
:105190001F920F920FB60F9211242F933F934F93AC
:1051A0005F936F937F938F939F93AF93BF93CF93AF
:1051B000DF93EF93FF93C091E900CF708091EC00F3
:1051C000D82FD17080FDD0E81092E9008091F000D6
:1051D000877F8093F00078940E940C291092E90058
:1051E0008091F00088608093F000CD2BCF70C09349
:1051F000E900FF91EF91DF91CF91BF91AF919F9126
:105200008F917F916F915F914F913F912F910F906F
:105210000FBE0F901F9018951F93CF93DF93CDB7BC
:10522000DEB7AA970FB6F894DEBF0FBECDBFE1E39D
:10523000F2E088E08E0F9091F10091938E13FBCFF6
:105240000E9454248091E80083FF28C1809131029C
:1052500090913202492F50E04A30510508F01EC1AA
:10526000FA01EC58FF4F0C94D32A803821F0823891
:1052700009F014C108C080912D0290912E0299234B
:1052800089F082600FC0809135028F70873008F0FE
:1052900005C18093E9008091EB0085FB882780F9A8
:1052A0001092E9009091E800977F9093E800809336
:1052B000F1001092F100D0C0282F2D7F09F0EEC030
:1052C000882319F0823061F0E9C080913302813087
:1052D00009F0E4C0933009F080E080932E022EC0E4
:1052E0008091330281112AC0809135028F702FEF97
:1052F000280F263008F0D2C08093E9002091EB00FF
:1053000020FF1CC0933021F48091EB00806214C018
:105310009091EB0090619093EB0021E030E0A901C7
:1053200002C0440F551F8A95E2F74093EA0010929D
:10533000EA008091EB0088608093EB001092E90016
:105340008091E800877F8093E8000E942A27A6C00A
:105350008111A4C0109133021F778091E3008078FF
:10536000812B8093E3008091E800877F8093E800A1
:105370000E942A278091E80080FFFCCF8091E30003
:1053800080688093E300111102C082E001C083E0D5
:105390008093300283C08058823008F07FC08091B3
:1053A0003302909134028C3D53E0950779F583E008
:1053B0008A838AE289834FB7F894DE01139620E04E
:1053C0003EE051E2E32FF0E050935700E49120FFDC
:1053D00003C0E295EF703F5FEF708E2F90E0EA30F0
:1053E00010F0C79601C0C0968D939D932F5F243116
:1053F00049F74FBF8091E800877F8093E8006AE219
:1054000070E0CE0101960E94312615C060913502F0
:1054100070913602AE014F5F5F4F0E945825BC016C
:10542000892BE1F19091E800977F9093E8008981C2
:105430009A810E9494268091E8008B778093E800FF
:105440002DC0803859F58091E800877F8093E8006F
:1054500080912C028093F1008091E8008E7773CFC9
:1054600081111CC0909133029230C0F48091E80009
:10547000877F8093E80090932C020E942A278091D6
:105480002C02811106C08091E30087FD02C081E0FB
:1054900001C084E0809330020E9445248091E8009E
:1054A00083FF0AC08091E800877F8093E8008091A5
:1054B000EB0080628093EB00AA960FB6F894DEBFF3
:1054C0000FBECDBFDF91CF911F910895CF938091F3
:1054D00030028823A1F0C091E900CF709091EC00D8
:1054E000892F817090FD80E8C82B1092E90080918F
:1054F000E80083FD0E940C29CF70C093E900CF9192
:105500000895DB018F939F930E94E82ABF91AF918A
:10551000A29F800D911DA39F900DB29F900D11240D
:105520000895991B79E004C0991F961708F0961BFF
:10553000881F7A95C9F780950895AA1BBB1B51E176
:1055400007C0AA1FBB1FA617B70710F0A61BB70BF3
:10555000881F991F5A95A9F780959095BC01CD0198
:105560000895A1E21A2EAA1BBB1BFD010DC0AA1FA4
:10557000BB1FEE1FFF1FA217B307E407F50720F0BC
:10558000A21BB30BE40BF50B661F771F881F991F37
:105590001A9469F760957095809590959B01AC0180
:1055A000BD01CF010895EE0FFF1F0590F491E02D8E
:1055B0000994A29FB001B39FC001A39F700D811DEC
:1055C0001124911DB29F700D811D1124911D08950C
:1055D0000E94D92AA59F900DB49F900DA49F800D85
:1055E000911D11240895F999FECF92BD81BDF89ABD
:1055F000992780B50895A6E1B0E044E050E00C940E
:105600002D2BA8E1B0E042E050E00C942D2B262F8A
:10561000F999FECF92BD81BDF89A019700B40216A8
:1056200039F01FBA20BD0FB6F894FA9AF99A0FBE56
:1056300008950396272F0E94082B0E94072B252FE1
:105640000E94082B242F0C94082B0196272F0E94D0
:10565000082B0C94072BDC01CB01FC01F999FECF40
:1056600006C0F2BDE1BDF89A319600B40D924150EA
:0A5670005040B8F70895F894FFCFFA
:10567A000151010152010553010C0CDF01D222AA8A
:10568A0023D5227423392301F6F73133323697C6EC
:10569A00349294000000000000014036220308CD35
:0A56AA0007AB0750076907820700ED
:00000001FF
