:100000000C94B8020C94C10D0C94FF020C94FF02E6
:100010000C94FF020C94FF020C94FF020C94FF025C
:100020000C94FF020C94FF020C943E220C941123BA
:100030000C94721C0C94FF020C94FF020C94FF02AF
:100040000C94FF020C94FF020C94FF020C94FF022C
:100050000C94FF020C94D31C0C94FF020C94FF022E
:100060000C94FF020C94FF020C94FF020C94FF020C
:100070000C94FF020C94FF020C94FF020C94FF02FC
:100080000C94FF020C94FF020C94FF020C94FF02EC
:100090000C94FF020C94FF020C94FF020C94FF02DC
:1000A0000C94FF020C94FF020C94FF0229001E0026
:1000B0001F002000210022002B0014001A0008005D
:1000C000150017002A0004001600070009000A00A6
:1000D000D75C1D001B000600190005000000000091
:1000E00000000404E30001512E0027002600250033
:1000F000240023002D00130012000C0018001C0027
:10010000280034000F000E000D000B00D85C3800F2
:100110003700360010001100000000000000A800A9
:1001200002512C0029001E081F082008210822085F
:100130002B0114081A082900150817082A0802516B
:100140001608060819081B087300040807083A0077
:100150001D081C08000000000000E200E300010090
:100160006F0027012601330231023300700035028F
:100170004F08520050081C01710035004F0051001B
:1001800050004C00720031000A080A0A09082A00CF
:100190000000000000000000E7002C0004091E0C15
:1001A0001F0C3C003D003E0000000000000000006D
:1001B000150A3B000000010000002F0030002B005A
:1001C000D75C1A5C00002F0230021801000000000A
:1001D000000039002C04E3006900430042004100A4
:1001E00040003F006A0044004F0A5202500A0E0AC3
:1001F0006B0045004F02510250026D006C00680018
:100200004F06500604096E000000000000000000C8
:1002100001002C0044454255473A206469736162ED
:100220006C65642E0A0044454255473A20656E616C
:10023000626C65642E0A0000000000000000002AC5
:100240002B2800000000000000000000000000005B
:10025000000029000000002C1E3420212224342616
:1002600027252E362D3738271E1F2021222324250F
:10027000263333362E37381F0405060708090A0BC4
:100280000C0D0E0F101112131415161718191A1B36
:100290001C1D2F3130232D350405060708090A0BD4
:1002A0000C0D0E0F101112131415161718191A1B16
:1002B0001C1D2F3130354C000000000000000000F4
:1002C000000000000000000000000000000000002E
:1002D000000000000000000000000000000000001E
:1002E000000000000000000000000000000000000E
:1002F00000000000000000000000000000000000FE
:1003000000000000000000000000000000000000ED
:1003100000000000000000000000000000000000DD
:1003200000000000000000000000000000000000CD
:1003300000000000000000000000000000000000BD
:1003400000000000000000000000000000000000AD
:100350000000000000000000010101010101000196
:10036000010101000000000000000000000000008A
:100370000001000100010101010101010101010170
:10038000010101010101010101010101010101015D
:100390000101000000010100000000000000000059
:1003A000000000000000000000000000000000004D
:1003B000000001010101000A0025303862003A20E6
:1003C0000025303258000A722F6320303132333426
:1003D0003536370A000A002530325820006B65791F
:1003E000626F6172645F7265706F72743A20000AA6
:1003F0000025303258006B6579626F6172645F73FB
:1004000065745F6C65643A20005B735D004B6579D1
:10041000626F6172642073746172742E0A005B579C
:100420005D005B535D005B525D005B445D005B43C0
:100430005D000403300000001C03490072006900E5
:10044000730020004B006500790062006F006100BE
:100450007200640000000E034B006500650062003E
:1004600069006F0000000403090409025B00030136
:1004700000A0FA0904000001030101000921110193
:1004800000012240000705810308000A0904010059
:1004900001030000000921110100012236000705B7
:1004A000820320000A09040200020300000009215F
:1004B0001101000122220007058303200001070526
:1004C0000303200001120110010000000810CB56A8
:1004D000120002010203010631FF0974A10109752E
:1004E000150026FF00952075088102097615002663
:1004F000FF00952075089102C005010980A10185C2
:10050000031A81002A830016010026030095017555
:10051000108100C0050C0901A10185041A01002AFF
:100520009C02160100269C02950175108100C005F1
:10053000010906A101050719E029E7150025019524
:1005400008750181029501750881010507190029C7
:10055000FF150026FF0095067508810005081901A2
:100560002905950575019102950175039101C0005A
:1005700011241FBECFEFDAE0DEBFCDBF04B603FE0D
:1005800027C08091260290912702A0912802B09165
:1005900029028730904BA740B04BD1F4109226022D
:1005A00010922702109228021092290214BE84B7DA
:1005B000877F84BF0FB6F894A8958091600088610A
:1005C00080936000109260000FBEE0E0F8E30995B0
:1005D00011E0A0E0B1E0E2E6F0E502C005900D9286
:1005E000AE34B107D9F722E0AEE4B1E001C01D920C
:1005F000A632B207E1F70E946D1F0C94F9270C9404
:100600000000FF93EF93E0914E01F0914F0130977E
:1006100009F00995EF91FF910895FC0185918030D3
:1006200011F0EFDFFBCF0895FF27E0E230E247FF54
:100630000CC0419597FF09C0EDE2609570958095DB
:100640009095611D711D811D911D27FF02C021958F
:1006500030E350E2AA27660F771F881F991FAA1F51
:10066000A41710F0A41B63955A95A9F7AA3008F0B7
:10067000A95FA05DAF93F3956115710581059105A3
:1006800041F7ED3211F4EF93F395F21718F43F931D
:10069000F395FBCF8F91B5DFFA95E1F70895E991D6
:1006A000F9918591803021F0853219F0AADFF9CFD8
:1006B000089520E0E89455915532C1F3503311F478
:1006C000689455915A3348F4505390F3220F022EF8
:1006D000220F220F200D250FF4CF0EF421958991C2
:1006E0009991533619F3533729F1533559F1BC0118
:1006F00088279927E8945C3621F489919991689428
:100700005591543639F446EF7EF077FF0DC08FEFE8
:100710009FEF0AC055374AE039F0583540E121F0E3
:10072000523642E009F00895FF93EF937DDFEF9199
:10073000FF91B7CFFF93EF93FC0181918030B9F324
:1007400060DFFBCFFF93EF9368DFF1CFDF93CF93B1
:10075000CDB7DEB72596A3DFCF91DF9108958091C5
:10076000EC0181FF06C089EA611101C08AEA0C949C
:10077000521182FF0FC083EE662341F00E940010E9
:100780008EE20E94521183EE0C9403110E9400101D
:100790008DE2F7CF8EE46111EACF8BE4E8CFCF93FF
:1007A000DF939C01FB019A9581159F4160F5E9015A
:1007B000CC27D170D901AA27B270B901662774700D
:1007C000A9014427587034FF10C080E1CD2B09F4F3
:1007D00080E0AB2B09F08062672B09F08064452B29
:1007E00009F08068DF91CF91099481E0CD2B09F465
:1007F00080E0AB2B09F08260672B09F08460452B09
:1008000089F38860EFCFDF91CF910895CF93DF9385
:10081000EC01805E9109089720F065EE73E1209766
:1008200011F465E671E1CE010E94CF038C2FDF91B8
:10083000CF910C940010CF93DF93EC010E94031131
:10084000CE01805E9109089720F06CEE73E120974D
:1008500011F46CE671E1CE01DF91CF910C94CF03DE
:10086000CF93DF93D82FC92F0E9406048D2F9C2F82
:10087000DF91CF910C941B0481E0089581E00895ED
:100880000C943E041F93CF93DF9300D000D00F92BF
:10089000CDB7DEB749835A836B8320918B01898161
:1008A0009A8121111BC06623A9F00E94CB19182F31
:1008B000682F89819A810E94721969817A81812FBA
:1008C0000F900F900F900F900F90DF91CF911F918D
:1008D0000C948E050E94A119182FEFCF0E94CB19FE
:1008E00069817A81EDCFFC01408151816281738100
:1008F00084810C9442041F93CF93DF9390E0FC011A
:10090000E95CFD4F1491FC01E95CFC4FD4918954E2
:100910009D4FFC01C491DD2319F081EE0E9400106F
:10092000CC2319F086EE0E940010812F0E945211F4
:10093000CC2319F086EE0E940311DD2331F081EE05
:10094000DF91CF911F910C940311DF91CF911F91F3
:100950000895EF92FF921F93CF93DF93EC01162F30
:100960008881882339F17E019FEFE91AF90A8130E5
:1009700041F4C9818C2F0E9400108C2F0E9403111A
:1009800005C0823079F489810E940010E701219628
:10099000812F815028F3EFE9FFE03197F1F700C094
:1009A0000000F7CF833011F48981E8CF0E947B04E7
:1009B0007E01ECCFDF91CF911F91FF90EF900895D2
:1009C00060E00C94A9040E94331B811102C00E94B4
:1009D000D01B0E945D0B0C943C080E94760B0C947B
:1009E0003F0808950C94F10481E008950C94F404F8
:1009F000CF93C82F0E94F2048C2FCF910C94F60451
:100A000008950E9405140E9400052FEF84E39CE0E6
:100A1000215080409040E1F700C0000087E797E751
:100A200090930108809300080C94F71C0F931F9378
:100A3000CF93DF93EC010E9473048C01BE010E94EE
:100A40004004882319F1BE01C8010E94BE0A882310
:100A5000E9F0BE01C8010E94080C8823B9F0BE016C
:100A6000C8010E944C0C882389F08A81882349F1AF
:100A700001308CE5180781F00E3D8CE51807F1F088
:100A800001158CE51807E9F40E94010580E0DF916B
:100A9000CF911F910F91089590910102892F8E7F20
:100AA00090FF81608093010280FF05C086E292E0A2
:100AB0000E940D03EBCF84E192E0FACF0E94D01B9D
:100AC000E5CF06311C45F9F40E94681A9A819923F2
:100AD00081F08A7A91E009F490E0909350018111BD
:100AE00006C089E20E94431A0E94B71ACFCF85E35D
:100AF000F9CF80915001811104C089E20E944A1A05
:100B0000F3CF85E3FBCFCE01DF91CF911F910F9102
:100B10000C943C0490E080E008950895972F70E0D5
:100B200026E0929F600D711D1124FB019CE3899FBB
:100B3000E00DF11D1124EE0FFF1FE455FF4F8591CD
:100B400094910895FC01EE0FFF1FE954FC4F85912D
:100B500094910895CF93DF930E948E050E946007C1
:100B6000EC01811521E5920708F0A0C0811530E560
:100B7000930708F00FC1803E910508F079C0803CD2
:100B8000910508F0F5C0883A910580F4853A910501
:100B900008F0E3C08130910509F47CC00497813AE4
:100BA000910508F477C0D0E0C0E074C08F3B910598
:100BB000D1F3883A910509F43EC1893A910509F4C7
:100BC0003DC18A3A910509F43CC18B3A910509F47B
:100BD0003BC18C3A910509F43AC18B3B910509F46C
:100BE00039C18C3B910509F438C18D3A910509F45E
:100BF00037C1803B910509F436C18E3A910509F45D
:100C000035C18F3A910509F434C1813B910509F44E
:100C100033C1823B910509F432C1833B910509F44C
:100C200031C1843B910509F430C1853B910509F43C
:100C30002FC1863B910509F42EC1873B910509F42C
:100C40002DC1883B910509F42CC1893B910509F41C
:100C50002BC18D3B910509F42AC18E3B910509F406
:100C600029C18A3B910509F428C1C0E0D4E412C02F
:100C7000811540E3940790F4C11580E2D80708F08D
:100C80007DC0C83ED10530F0CE019A9581159F41B7
:100C900008F089CFCE01DF91CF910895811530E41E
:100CA000930708F46EC0DF70D06AF4CF81159645C3
:100CB00060F5C11585E5D80708F09EC0C11594E51B
:100CC000D907F0F4C11523E5D20708F081C0C1159A
:100CD00032E5D30708F477C0CE018370992721E06D
:100CE00030E002C0220F331F8A95E2F7C695C69501
:100CF00040E2C49FE0011124C22BD32BDC68CACF91
:100D0000DC2FCC27C46FD06AC5CFC1158AE5D807C0
:100D100088F4C11599E5D90708F079C0CE01985536
:100D20008F3F910511F008F03ECFDC2FCC27C06F2C
:100D3000D06AB0CFCE0190568115904208F033CFE3
:100D40008D2F8F710E94F80790E0982F88278827B1
:100D50009F719C012C2BE90158C0853A910509F43B
:100D600064C0863A910509F063C0C2E8D0E492CF2E
:100D7000805C91090E94A205EC018CCFCE019F708E
:100D8000F9CF9927D3FF03C0EC01D86C83CFEC01D6
:100D9000D06C80CF74E0969587957A95E1F7837053
:100DA0002C2F26952695237040E2249F9001112434
:100DB000382B8C2F8370C1E0D0E002C0CC0FDD1F38
:100DC0008A95E2F799CFDC2FCC27C16FD06A62CF2A
:100DD000CE018370992721E030E002C0220F331F3B
:100DE0008A95E2F7C695C69580E2C89FE001112476
:100DF000C22BD32BDA684ECF8C2F0E94F807C82F56
:100E0000D0E0DC2FCC27CC27DF71D06243CF8C2FF2
:100E10008F700E94F80734E0D695C7953A95E1F7B0
:100E2000CF70DC2FC82FD06935CFC1E8D0E432CFE6
:100E3000C3E8D0E42FCFC2EED4E42CCFC9EED4E483
:100E400029CFCAEED4E426CFC5EBD4E423CFC6EB3A
:100E5000D4E420CFC3EBD4E41DCFC4EBD4E41ACF49
:100E6000C7EBD4E417CFCCECD4E414CFCDECD4E46E
:100E700011CFC3E8D5E40ECFCAE8D5E40BCFC2E961
:100E8000D5E408CFC4E9D5E405CFC1E2D6E402CF6A
:100E9000C3E2D6E4FFCEC4E2D6E4FCCEC5E2D6E49B
:100EA000F9CEC6E2D6E4F6CEC7E2D6E4F3CECFE67C
:100EB000D4E4F0CEC0E7D4E4EDCECAE2D6E4EACE84
:100EC000803E910599F1C8F48133910509F476C00B
:100ED00048F48932910509F46AC08A32910509F40F
:100EE00074C0089589339105D1F082389105B9F025
:100EF0008533910509F454C00895843E910599F114
:100F000038F4823E9105F9F0833E910509F1089588
:100F1000863E910599F1873E9105B9F1089520919A
:100F200017022370A1F080EE90E00895209117023F
:100F300020FD52C03091180230FF09C024FF4FC07D
:100F400090E080E004C02091170222FDF7CF0895C1
:100F50002091170222FD46C03091180230FDE3CFE8
:100F600024FFF5CFEDCF2091180221FFF0CF809123
:100F7000170284FDE5CF87EE90E0089520911702D7
:100F800023FFE5CF24FDDCCFF6CF2091170223FD10
:100F90002CC03091180231FFE3CF84EE90E0089529
:100FA0002091170225FFD3CF89E290E00895209188
:100FB000170225FFCCCF85E390E00895209117021A
:100FC00026FFC5CF8AE290E008952091170226FF00
:100FD000BECF81E390E0089589E390E0089583EE29
:100FE00090E0089582EE90E0089586EE90E00895F6
:100FF0009091170292FF06C0282F28712830F9F42B
:10100000877F846093FF06C0282F28712831F1F470
:10101000877E84612091180220FF06C0382F387126
:101020003830D9F4877F816021FF06C0282F2871CE
:101030002831D1F4877E816194FD877E0895282F21
:1010400024712430F9F68B7F8860DCCF282F24713F
:10105000243101F78B7E8861DDCF382F317131303B
:1010600019F78E7F8860E0CF282F2171213121F779
:101070008E7E8861E1CF08950C943B0808950C940E
:101080003E080895E82FF0E0E95AFE4F8081089568
:10109000CF92DF92EF92FF920F931F93CF93DF9344
:1010A00086EC93E00E940D0387E5E82E81E0F82EA0
:1010B000D0E0C0E091ECC92E93E0D92E09EB13E00B
:1010C000DF93CF93DF92CF920E94A6038EEB93E043
:1010D0000E940D03F70181917F010E941F1B1F9247
:1010E0008F931F930F930E94A60387EB93E00E94B8
:1010F0000D0321968DB79EB708960FB6F8949EBF44
:101100000FBE8DBFCA30D105D9F6DF91CF911F91A7
:101110000F91FF90EF90DF90CF900895CF93DF93E2
:101120000E94FC09809100018091000195E08111ED
:1011300090E09093120285E0891B80931102AFE149
:10114000B1E061E070E08D91E82FE295EF70F0E0A2
:1011500041A18F709B0101C0220F8A95EAF7922F5F
:101160009095942391A382A1822B82A381E0A43243
:10117000B80749F7A9E1B1E04FE151E0C1E0D0E0A3
:101180008D91E82FE295EF70F0E061A18F709E01E4
:1011900001C0220F8A95EAF7922F9095962391A38A
:1011A00082A1822B82A34A175B0751F7E7E5F1E0A2
:1011B00081E691E011928E179F07E1F785E00E948A
:1011C000A509DF91CF910C94E3046F927F928F92E7
:1011D0009F92AF92BF92CF92DF92EF92FF920F93C6
:1011E0001F93CF93DF9322E531E04FE1E42E41E0FE
:1011F000F42E712CCC24C394D12CE90179919E0159
:10120000DE011E92F70181917F01E82FE295EF70D8
:10121000F0E091A18F70860101C0000F8A95EAF776
:10122000892F802B81A382A1602E6094862182A3C6
:1012300080EA8A95F1F799E1A92E91E0B92E50E064
:1012400040E0E50169915E01862E82948FE088225C
:10125000912CE40188A190E06F7002C0959587956C
:101260006A95E2F7812C80FD06C04601042E01C07C
:10127000880C0A94EAF78C91882A8C924F5F5F4F12
:1012800046305105F1F681A1862181A382A1082B68
:1012900002A381E09C91971301C080E0782AD1E0FD
:1012A00027353D0709F0A9CF6091120270E0695A15
:1012B0007E4F272D45E082E591E00E94A609872D0B
:1012C000DF91CF911F910F91FF90EF90DF90CF9022
:1012D000BF90AF909F908F907F906F900895CF9325
:1012E0000E94E508C82F0E94DC09882311F1809133
:1012F000110290E0895A9E4F0E94130A811116C074
:10130000909151019F5F90935101963050F0E09180
:101310001102F0E0E95AFE4F10821182128213820C
:1013200014820E94ED048C2FCF91089510925101E8
:10133000F8CF8091120290E0895A9E4F0E94320AA3
:101340000E94760B0E944108EECF0895FF920F9302
:101350001F93CF93DF93F82E092F162FD72FC42F6B
:10136000222349F081E0809363010E94A21C9093A4
:10137000620180936101809163018823A1F08091D3
:101380006101909162010E94AE1C069760F0EF2D02
:10139000F02FA12FBD2FCE0FDF2FD11DEC17FD0792
:1013A00041F410926301DF91CF911F910F91FF9053
:1013B000089581918D93F2CF80916401811110C0C5
:1013C0008091D80080618093D8008AE18A95F1F7F6
:1013D00000C09091D900917082E0891B80936401D4
:1013E00081E090916401913009F080E008950E94BD
:1013F000DC0991E0892708950E94F7098093000194
:101400000E94DC0981110C94070A0C940D0A61E01A
:1014100070E081E091E00C94720D61E070E081E099
:1014200091E00C94790DCF93DF93D82FC92F0E94B0
:10143000130E9C0180E02115310589F4ED2FFC2F5E
:10144000D901AA59BE4F8C9181932F5F3F4F253010
:101450003105B1F78BE691E00E94950B81E0DF91B9
:10146000CF910895FC0190E080E02191DC01AA5920
:10147000BE4F2C93019685309105B9F78BE691E02C
:101480000C94900B0F931F93CF93DF93CDB7DEB7E0
:1014900028970FB6F894DEBF0FBECDBF80910A012A
:1014A0008F93809109018F9389E291E09F938F93AD
:1014B0001F9288E08F938E010F5F1F4F1F930F9332
:1014C0000E94D424C8010E94E0040FB6F894DEBF45
:1014D0000FBECDBF28960FB6F894DEBF0FBECDBFAE
:1014E000DF91CF911F910F910895CF93DF93D82F64
:1014F000C92F0E94A21C90936F0180936E01D0931C
:101500006C01C0936D01DF91CF91089580916C01C2
:1015100090916D01892BE1F080916E0190916F01A6
:101520000E94AE1C2091090130910A012817390749
:1015300080F480916C0190916D0192600E94300462
:1015400010926F0110926E0110926D0110926C0159
:10155000089580916C010E945211F2CF10920B01FC
:101560000C94860A80910B01882321F010920B01C4
:101570000C94860A81E080930B0108951F93CF930A
:10158000DF93EC01FB011281112309F464C089315E
:101590009C4509F456C0CA318CE5D807B0F5C7316F
:1015A000ECE5DE0709F43FC08091090190910A0142
:1015B0000597C831FCE5DF07D9F1C933D10508F536
:1015C000CD32D10530F4C832D105A8F4C430D105EC
:1015D000A8F00E94860A80910B01882369F10E947D
:1015E000681A811129C0CE010E94750A82E00E940A
:1015F000021B10E021C0CB32D10559F30E94860AAC
:101600001BC0C436D10529F3F9CFCB318CE5D807FF
:10161000D9F0CC31ECE5DE07D9F0CA31DC4571F701
:101620000E94B20A09C08091090190910A010596B1
:1016300090930A0180930901812FDF91CF911F912F
:1016400008950E94420AF8CF81E080930B01F4CF05
:101650000E94AE0AF1CF0E94860A11E0EDCF0C94F1
:10166000AF031F93CF93DF93182FC82F880FDD0B85
:101670006F70E62FF0E0E25DFE4FCE58DE4F8081C6
:101680009881890F8883843024F060E0812F0E9444
:101690002F0B88818D3F24F461E0812F0E942F0B56
:1016A0009881892F837897FF03C081508C6F8F5F5B
:1016B0008883DF91CF911F91089584988C9A8598A3
:1016C0008D9A8FB1829581707D990EC090E0892BA3
:1016D000809374019091000181E0982790937101AB
:1016E000891B80937001089592E0F1CF609174019D
:1016F000660F660F609374014FB144FB882780F931
:101700004FB145FB222720F945FF02C022E030E01F
:10171000822B682B60937401809171010C94310BC2
:1017200020917401FC0120830895FC016081809167
:1017300070010C94310B0F931F93CF93DF93C62F3F
:10174000D42F022FFC0182818823C9F06093770196
:101750000E94A21C909376018093750180E28C0F09
:10176000883008F050C0C77081E001C0880FCA956A
:10177000EAF7DF91CF911F910F910C9465111091B1
:101780007701161335C080917501909176010E9402
:10179000AE1C883C910560F5C0E2CD0F1D17B9F075
:1017A00080E2810F883040F4177081E001C0880F1B
:1017B0001A95EAF70E946C11C83048F481E09D2F19
:1017C000977001C0880F9A95EAF70E946511802FE3
:1017D0000E945211C830B8F4D77081E001C0880F60
:1017E000DA95EAF7DF91CF911F910F910C946C116C
:1017F00080E28C0F883038F4C77081E001C0880F18
:10180000CA95EAF7EFCFDF91CF911F910F9108951D
:101810009C01CB01233F4CE5340769F190F4283D4E
:10182000FCE53F0721F1293D4CE5340781F1273DD7
:101830003C45B1F0FC018281882361F1109277016F
:101840000895253FFCE53F07D1F0263F4CE53407DE
:10185000D1F0243F3C4571F727E245EE64EE03C02A
:1018600026E241EE61EE0E949B0B80E0089527E2A4
:1018700045EE65EEF8CF26E241EE60EEF4CF26E2CB
:1018800041EE62EEF0CF27E245EE66EEECCF28E2C5
:1018900041E0EFCF81E008951F93CF93DF93EC01F8
:1018A000FB011281112309F4BCC00E94461B9093D6
:1018B000180280931702C631FCE5DF07B0F4C2308E
:1018C0008CE5D80728F4812FDF91CF911F910895DF
:1018D000FE01E350FC45809117028160E331F10580
:1018E00088F4E550F84D0C94CE24CA5FDC45C9302D
:1018F000D10548F7C25FD74DFE010C94CE248091EC
:10190000170282608093170280911702909118024B
:101910000E94541B0E94051410E0D5CF809117023D
:101920008460F0CF809117028860ECCF809118021C
:10193000816080931802E8CF809118028260F9CF0D
:10194000809117028061DECF809117028062DACF2A
:10195000809117028064D6CF0E94051480911702EF
:101960008068D0CF809117028C60CCCF8091180214
:101970008360DFCF809117028E7FC4CF80911702E2
:101980008D7FC0CF809117028B7FBCCF80911702D3
:10199000877FB8CF809118028E7FCBCF80911802BD
:1019A0008D7FC7CF809117028F7EACCF80911702B9
:1019B0008F7DA8CF809117028F7BA4CF0E94051442
:1019C000809117028F779ECF80911702837F9ACFE5
:1019D000809118028C7FADCF8091170282FB9927EE
:1019E00090F921E0922790FB82F990FB83F98ACF4E
:1019F00080911802982F909591708E7F892B90FB83
:101A000081F997CF0E94051490911702892F97FBB7
:101A100087F9805877CF81E00E94D21B75CF80E094
:101A2000FBCF11E050CF8EE1489B02C08150E1F71F
:101A3000489BFECF0895589880E28A95F1F7589A0E
:101A40000895FC013BE03A95F1F798E020E080E052
:101A500031E040E14A95F1F7880F489B02C0816070
:101A6000232742E04A95F1F7000040E14A95F1F75B
:101A7000915079F790E19A95F1F799B132E03A9562
:101A8000F1F7000040E14A95F1F79170922720812B
:101A9000920F90830895EF92FF920F931F93CF932D
:101AA000DF930F92CDB7DEB719828C017C01E60E71
:101AB000F11C0E151F0561F481E09981911180E000
:101AC0000F90DF91CF911F910F91FF90EF900895AC
:101AD0000E94130DCE0101960E94210DF801819301
:101AE0008F01E7CF9093790180937801509A589AAB
:101AF000089590937901809378015098589AE89AC4
:101B0000E9E6F0E080818C7F808308956150770B57
:101B100091E001C0990F6A95EAF720E031E0911158
:101B200008C0222391F0589A80E28A95F1F75898DC
:101B30000895492F482339F0589A232740E24A95BF
:101B4000F1F79695ECCF5898F9CF5898EDCFFF92D2
:101B50000F931F93CF93DF93EC018C01060F111DA0
:101B6000C017D10731F4DF91CF911F910F91FF90F2
:101B70000895F9900E941B0D68E08F2D0E94860D3C
:101B8000EFCF1F920F920FB60F9211242F933F9316
:101B90004F935F936F937F938F939F93AF93BF9375
:101BA000CF93DF93EF93FF935898509AC0917801A9
:101BB000D09179016D81662321F08E819F810E94F1
:101BC000A70D0E941B0D80E18A95F1F75898509857
:101BD000589A80E18A95F1F76A81662309F18B8131
:101BE0009C810E944B0DE881F981882311F088E0E7
:101BF00001C082E080830E94130DFF91EF91DF917D
:101C0000CF91BF91AF919F918F917F916F915F9194
:101C10004F913F912F910F900FBE0F901F901895ED
:101C2000E881F981E4CFCF93DF93C0917801D0911F
:101C30007901F894509A589885E08A95F1F7000058
:101C40005098589A80E28A95F1F7489B0CC0509AB8
:101C5000589AE881F98181E08083789481E090E06E
:101C6000DF91CF9108956D81662381F08E819F81F0
:101C70000E944B0D81110AC0509A589AE881F9814F
:101C800082E08083789482E090E0EACF0E94130D96
:101C900080E28A95F1F75898509A80E18A95F1F799
:101CA0006A81662321F08B819C810E94A70D0E948E
:101CB0001B0DE881F9811082789490E080E0D0CF0C
:101CC00090937F0180937E010895E0917E01F091D1
:101CD0007F01309721F00190F081E02D099480E0A0
:101CE0000895EF92FF920F931F93CF93DF938C0190
:101CF000E0917E01F0917F013097C1F10280F38184
:101D0000E02D09958091010282FF30C080FF04C060
:101D10008DED93E00E940D03D0E0C0E087EDE82E4A
:101D200083E0F82E8091010280FF0EC0F801EC0FD5
:101D3000FD1F80811F928F93FF92EF920E94A60356
:101D40000F900F900F900F902196C830D10551F74A
:101D50008091010280FF0AC085ED93E0DF91CF9171
:101D60001F910F91FF90EF900C940D03DF91CF9195
:101D70001F910F91FF90EF90089520917C01309179
:101D80007D012817390771F090937D0180937C01C4
:101D9000E0917E01F0917F01309721F00680F7817C
:101DA000E02D0994089520917A0130917B01281744
:101DB000390771F090937B0180937A01E0917E0165
:101DC000F0917F01309721F00084F185E02D099496
:101DD000089585B7806885BF85B7806885BF0895F9
:101DE000089508950C94F00E08950C94F40E0E943A
:101DF000E90E0E94F10E0C94F20E0E94991C0E94B2
:101E00008E080E94081D0C94F50ECF93C82F809168
:101E1000010282FF1EC080FF1CC086EF93E00E947B
:101E20000D038091010280FF14C01F92CF9381EFB8
:101E300093E09F938F930E94A603809101020F90DD
:101E40000F900F900F9080FF04C08FEE93E00E94E0
:101E50000D038C2FCF910C94F804BF92CF92DF9298
:101E6000EF92FF920F931F93CF93DF9300D000D098
:101E70000F92CDB7DEB70E946F090E94DC0988235C
:101E800009F470C081E8C82E81E0D82E10E000E08F
:101E9000E02E802F0E944208B82EF601F1906F01CB
:101EA000F81609F459C08091010281FD0E9448088A
:101EB00030E020E0FB244F2D50E0922FBA01022E9B
:101EC00002C0759567950A94E2F760FF3FC02983C9
:101ED000EA8221E030E0790102C0EE0CFF1C9A9505
:101EE000E2F72B2D30E02E213F2181E0232B09F456
:101EF00080E08B830E94A21C8160782F9D838C835D
:101F000049815A816B818D810E94D20FF801EF5770
:101F1000FE4F80818E2580830E94650E9091800106
:101F2000891789F10E94650E809380010F900F90B0
:101F30000F900F900F90DF91CF911F910F91FF9015
:101F4000EF90DF90CF90BF900C94050F2F5F3F4F25
:101F50002630310509F0B1CF0F5F1F4F0A30110550
:101F600009F096CF8FEF89838A831B820E94A21C7F
:101F70008160782F9D838C8349815A816B818D810B
:101F80000E94D20FC9CF0F900F900F900F900F901B
:101F9000DF91CF911F910F91FF90EF90DF90CF9045
:101FA000BF900895CF93DF93CDB7DEB72B970FB6D1
:101FB000F894DEBF0FBECDBF4F83588769877A87FD
:101FC0008B871E8285E0FE013796DE011196019017
:101FD0000D928A95E1F749815A816B817C818D81CF
:101FE0009E812B960FB6F894DEBF0FBECDBFDF915A
:101FF000CF910C948816FC01808191810C940D1A6C
:10200000882309F4FFC08238B9F40E94650E81FD6F
:10201000F9C089E30E94431A0E94B71A2FEF81EE9C
:1020200094E0215080409040E1F700C0000089E337
:102030000E944A1A0C94B71A8338A1F40E94650EC4
:1020400080FDE0C083E50E94431A0E94B71A2FEF7B
:1020500081EE94E0215080409040E1F700C0000004
:1020600083E5E6CF8438A1F40E94650E82FDCAC0E4
:1020700087E40E94431A0E94B71A2FEF81EE94E082
:10208000215080409040E1F700C0000087E4D0CFAD
:102090009CEF980F913A18F40E94431ACBCF90E22C
:1020A000980F983050F4877091E001C0990F8A958D
:1020B000EAF7892F0E946B1ABDCF9BE5980F9330EA
:1020C00070F4853A31F0863A39F083E890E00C9468
:1020D000BD0E81E890E0FBCF82E890E0F8CF98E574
:1020E000980F973108F08EC0883A09F446C0893AB3
:1020F00009F446C08A3A09F446C08B3A09F446C04E
:102100008C3A09F446C08B3B09F446C08C3B09F479
:1021100046C08D3A09F446C0803B09F446C08E3A69
:1021200009F446C08F3A09F446C0813B09F446C021
:10213000823B09F446C0833B09F446C0843B09F462
:1021400046C0853B09F446C0863B09F446C0873B40
:1021500009F446C0883B09F446C0893B09F446C0EF
:102160008D3B09F446C08E3B09F446C08A3B09F416
:1021700046C090E080E00C94D30E82EE90E0FBCF5E
:1021800089EE90E0F8CF8AEE90E0F5CF85EB90E015
:10219000F2CF86EB90E0EFCF83EB90E0ECCF84EBD7
:1021A00090E0E9CF87EB90E0E6CF8CEC90E0E3CFD6
:1021B0008DEC90E0E0CF83E891E0DDCF8AE891E01C
:1021C000DACF82E991E0D7CF84E991E0D4CF81E200
:1021D00092E0D1CF83E292E0CECF84E292E0CBCF07
:1021E00085E292E0C8CF86E292E0C5CF87E292E036
:1021F000C2CF8FE690E0BFCF80E790E0BCCF8AE20D
:1022000092E0B9CF0895882309F44BC0823871F465
:102210000E94650E81FF45C089E30E94431A0E9417
:10222000B71A89E30E944A1A0C94B71A833859F4F2
:102230000E94650E80FF35C083E50E94431A0E940C
:10224000B71A83E5EFCF843859F40E94650E82FFF8
:1022500028C087E40E94431A0E94B71A87E4E2CF9D
:102260009CEF980F913AF0F290E2980F983050F46A
:10227000877091E001C0990F8A95EAF7892F0E9433
:10228000711AD2CF9BE5980F933020F490E080E054
:102290000C94BD0E885A873120F490E080E00C94B5
:1022A000D30E0895CF93C82F0E940010C93349F46C
:1022B0002FEF87EE93E0215080409040E1F700C07F
:1022C00000008C2FCF910C940311882321F00E94E1
:1022D0006B1A0C94B71A0895882321F00E94711A82
:1022E0000C94B71A0895AF92BF92CF92DF92EF92FB
:1022F000FF920F931F93CF93DF9300D000D00F92E4
:10230000CDB7DEB76C016D837983FC010581029541
:102310000F70128111110E948A1A0E94611AE82E10
:10232000882371F01123B1F08D81805E883090F0A8
:1023300082E00E94021B0E94611A91E0E82EE926C9
:10234000A980A2949FE0A922B12CF501E95EF74D86
:102350000C94CE24E12CF4CF09810F70F981F07F29
:1023600011F00295007F1123B1F0002361F08D81FF
:10237000805E883018F02D81211109C0802F0E94C5
:102380006B1A0E94B71A8D810E94001015C0802F11
:102390000E947C1AF6CF8D810E940311002361F008
:1023A0008D81805E883018F04D81411133C0802FBF
:1023B0000E94711A0E94B71A58E0A51AB10864E089
:1023C000A616B10420F40E94650E0E94F804EE20C7
:1023D00009F4C1C10E945D1A80FDBDC1F6011282DF
:1023E0000E94571A0E946218C6010E94BB130E94E5
:1023F000571A0F900F900F900F900F90DF91CF9181
:102400001F910F91FF90EF90DF90CF90BF90AF9012
:102410000C949318802F0E94821ACCCF59815F7040
:10242000F52E6981607F603219F0F29480EFF82216
:102430007D81772369F0713049F1112391F10023F7
:1024400051F1F601858180FF9ECF8F70858323C077
:10245000112381F0011106C00E949E1A8F290E944B
:102460006511AACF0130C1F70E949E1A8F290E94E0
:10247000A41AA2CF011106C00E94AD1A8F2D0E948E
:102480006C119ACF013009F497CFF6CF112329F0C0
:10249000063008F091CF8F2DE2CF053008F08CCFB9
:1024A000EDCF002359F3FD81F93349F42FEF47EEC7
:1024B00053E0215040405040E1F700C000008D81C2
:1024C0000E94031179CF898186958695837069F082
:1024D000813009F071CF8D8199819370111102C003
:1024E00090E080E00E94D30E67CF8D819981937038
:1024F000111102C090E080E00E94BD0E5DCF898185
:10250000837009F050C0111157CF4D814295469507
:102510004770440F440F8D818F7090E0B0E0A0E0D1
:10252000042E04C0880F991FAA1FBB1F0A94D2F75C
:102530006D8100E010E0980164FF0FC00FE010E033
:1025400020E030E004C0000F111F221F331F4A9506
:10255000D2F70095109520953095798176957695EE
:1025600073707D83B901A801482B592B6A2B7B2BF3
:1025700049835A836B837C835D8169817A818B81F6
:102580009C81523051F0533059F0513019F00E9473
:10259000D81712CF0E94B0170FCF0E9400180CCF8F
:1025A0000E94AE1709CF8695112311F089818170A1
:1025B000882309F401CF4D81429546954770440F19
:1025C000440F8D818F7090E0B0E0A0E0042E04C035
:1025D000880F991FAA1FBB1F0A94D2F76D8100E0D4
:1025E00010E0980164FF0FC00FE010E020E030E041
:1025F00004C0000F111F221F331F4A95D2F7009508
:1026000010952095309579817695769573707D83B8
:10261000B901A801482B592B6A2B7B2B49835A837C
:102620006B837C835D8169817A818B819C8152304F
:1026300051F0533059F0513019F00E942119BCCE9D
:102640000E94F918B9CE0E944919B6CE0E942C18E2
:10265000B3CE69816F706983112329F0862F0E94A0
:1026600062188D81FCCE8D810E946C1189810E943F
:102670009318A2CE7D81723FA1F160F4703FE1F02A
:10268000713F41F1112309F445C001117CCE8981CC
:102690008F7124C08D81833F49F1843F99F71123C5
:1026A00079F199819F719983892F0E94621863E063
:1026B00089810E94ED1A80CE112341F0053008F087
:1026C0007BCE89818F710E94C81876CE063008F0C3
:1026D00073CEF7CF89818F71112349F20E9462185E
:1026E0006BCE89818F711123C9F3C1CF112329F0DA
:1026F00089818F710E943D185FCE0E9438185CCE90
:1027000081E00E94021B023008F456CE82E00E9453
:10271000021B52CE002361F0ED81E93309F0CFCEE8
:10272000FFEF27EE43E0F15020404040E1F7C5CEF7
:1027300089818F719CCF49814F706D81C6010E9444
:102740008A050E94221738CE49814F706D81C601DB
:102750000E948D0531CE0F900F900F900F900F902B
:10276000DF91CF911F910F91FF90EF90DF90CF906D
:10277000BF90AF9008950F931F93CF93DF93EC0119
:102780008B819C81892B29F08881998189238F3FB6
:1027900029F4DF91CF911F910F910895CE010E94EE
:1027A00016058823B1F3688179818A810E94191AFC
:1027B0008C010E9471190E94AD17B801CE01DF9102
:1027C000CF911F910F910C947311882321F00E94D7
:1027D0007C1A0C94B71A0895882321F00E94821A5B
:1027E0000C94B71A08950E948A1A0E949B1A0E949C
:1027F000B71A90E080E00E94BD0E90E080E00C945B
:10280000D30E0E94511A0C94F3130E94791A0C945F
:102810000114282F892F82958F70903C80F48A3084
:10282000B0F4843020F4823090F480E00895863053
:10283000E1F781E0283E88F0213FB9F70EC08C30E7
:1028400011F08F3091F793FB882780F9089581E08C
:10285000203F39F018F4283E40F70895243F29F727
:10286000FCCF08950E940D1A0C940914CF93DF93A6
:1028700000D000D00F92CDB7DEB70F900F900F9021
:102880000F900F90DF91CF910895CF93DF9300D0F9
:1028900000D000D0CDB7DEB726960FB6F894DEBFD5
:1028A0000FBECDBFDF91CF9108951F93CF93DF93DC
:1028B000E0918C0116E080918D018E1304C0DF91B0
:1028C000CF911F910895CE2FD0E01E9FF0011124CB
:1028D000E257FE4F408151816281738184819581ED
:1028E0000E944514FE013196E770E5CF4091BE018C
:1028F0005091BF016091C0017091C1018091C201EE
:102900009091C3010C9445141F93CF93DF93809152
:10291000C301807FC1F48091C0018823A1F0809120
:102920008C01C0918D016091BE017091BF014091F9
:10293000C1015091C201D62FD723DA01A095B095DD
:1029400016E0C81304C0DF91CF911F91089590E065
:102950004115510511F0DF3F31F401968770F1CF39
:102960002A0F3B1F17C0189FF001199FF00D11246B
:10297000E257FE4F21812713F0CF20812613EDCFA0
:1029800022812111EACF238134812417350740F3B6
:10299000241B350B283C310500F72091C3012F7013
:1029A00020612093C30126E0289FF001299FF00DAC
:1029B0001124ED56FE4F80818F70806180838EEBF5
:1029C00091E00E94BB13DF91CF911F910C9455149D
:1029D0009F92AF92BF92CF92DF92EF92FF920F93AE
:1029E0001F93CF93DF93CDB7DEB72B970FB6F89435
:1029F000DEBF0FBECDBF7C0185E0F701DE0117967B
:102A000001900D928A95E1F7D7014C9111965C9156
:102A1000119712960C9112978091C1019091C20169
:102A2000009709F456C12091BE013091BF01632F78
:102A300062236F3F09F44DC11396CD90DC909090C6
:102A4000C001992009F405C1C816D90608F43EC092
:102A5000F601E81BF90BCF0111E0883C910508F065
:102A600010E08EEBA82E81E0B82E8091C301982F44
:102A7000907F112309F4C7C0911180C0102F351326
:102A80002AC0241328C0011126C08F708061809352
:102A9000C3010E947614C5010E94BB138091C3013B
:102AA000D70115968C93812F2B960FB6F894DEBF25
:102AB0000FBECDBFDF91CF911F910F91FF90EF908F
:102AC000DF90CF90BF90AF909F90089580959095A4
:102AD0008C0D9D1DC1CFCD2829F0842F85238F3FDC
:102AE00009F013C180E0B82FB170DB2EE0918C01AA
:102AF00020918D0136E080FD1CC00023A1F2809161
:102B0000C30181608093C30110E0CDCF8E2F90E090
:102B10003E9FF0011124E257FE4F6181651306C00C
:102B20006081641303C062816013E7CFFC013196BA
:102B3000E770E213EBCF4F8358878F8198850E940F
:102B40000D1A292F22952F70903260F0225F2F707E
:102B5000223078F49F7051F0F7019581907F31F425
:102B6000D12C0AC09F7011F08823D1F3805E883089
:102B7000B8F3C7010E94BB131D2D95CF351315C0A7
:102B8000241313C0011111C0D70115968C93C701EE
:102B90000E94BB1386E0F701AEEBB1E001900D920D
:102BA0008A95E1F70E9476147ECF4F8358878F81F4
:102BB00098850E943214882311F1002301F180913D
:102BC000C301803270F02091BE013091BF013A8381
:102BD00029831B82DD82CC828E83CE0101960E94E6
:102BE000BB1386E0F701AEEBB1E001900D928A9540
:102BF000E1F70E9484140E94761411E054CFC701BB
:102C00000E94BB13FACF911111C07C2DDB86CA86BE
:102C1000602F8B850E9436148EEB91E00E94BB13CF
:102C200086E0F50111928A95E9F7BCCF3513BDCF47
:102C30002413BBCF0111B9CFD70115968C93C701CF
:102C40000E94BB1386E0F50111928A95E9F7192DD0
:102C50002ACFC816D906C0F0B601681B790BCB0184
:102C600010E0883C910530F5102F002341F2351318
:102C700010C024130EC086E0F701AEEBB1E0019066
:102C80000D928A95E1F70FCF809590958C0D9D1D43
:102C9000E7CF4F8358878F8198850E943214811126
:102CA000A0CF8091C30181608093C301C7010E94BE
:102CB000BB13F9CE7C2DDB86CA86602F8B850E94E4
:102CC000361486E0EEEBF1E0DF011D928A95E9F71C
:102CD00069CF002309F493CF4F8358878F8198855C
:102CE0000E943214182F882309F489CF86E0F70157
:102CF000AEEBB1E001900D928A95E1F78EEB91E099
:102D00000E94FB0F0E9484144DCF81E08027EBCE00
:102D10001F93CF93DF93CDB7DEB72C970FB6F89400
:102D2000DEBF0FBECDBF4F83588769877A878B87F9
:102D30009C87CE0107960E94E814882369F08A8553
:102D40009B85892B39F04F815885842F85238F3FB0
:102D500009F071C016E05FC086E0FE013796DE0123
:102D6000119601900D928A95E1F78A859B85892BB2
:102D700089F388859F8189238F3F61F320918D019D
:102D800030E0C90101968770992740918C0148175E
:102D9000190671F40E94051410928D0110928C0195
:102DA00086E0EEEBF1E0DF011D928A95E9F7D2CFE4
:102DB00096E0929FD001939FB00D1124A257BE4F71
:102DC000FE01319601900D929A95E1F780938D0165
:102DD0000E945514BFCF819FC001112482579E4F7E
:102DE0000E94E8148823E9F0E0918C011E9FF00115
:102DF0001124E257FE4F40815181628173818481A9
:102E000095810E94451480918C0190E00196877015
:102E1000992780938C0180918C0190918D01891369
:102E2000DACF2C960FB6F894DEBF0FBECDBFDF9180
:102E3000CF911F91089569857A858B859C850E9425
:102E4000451488CFEF92FF920F931F93CF93DF9398
:102E50008C01892B89F0F12CEE24E394E801219672
:102E6000F8018491843709F457C0A0F4823009F442
:102E70003EC048F48130D1F0DF91CF911F910F9186
:102E8000FF90EF9008959CEF980F9037A8F70E945D
:102E900000100AC0853709F44CC09CE7980F9037A2
:102EA00058F78F770E9403118E0116C00E5F1F4FD7
:102EB000FE01849190E2980F983060F48770FE2DA7
:102EC00001C0FF0F8A95EAF78F2F0E948D1A0E948A
:102ED000B71A02C00E9400108F2D815008F4BECF97
:102EE000EFE9FFE03197F1F700C00000F6CF0E5F89
:102EF0001F4FFE01849190E2980F983050F4877034
:102F0000FE2D01C0FF0F8A95EAF78F2F0E94931ABA
:102F1000DECF0E940311E0CF0E5F1F4FFE01C49170
:102F2000C150D0F28FE99FE00197F1F700C0000097
:102F3000F7CF0E5F1F4FFE01F490CECF08950C9493
:102F40009E170E949F176093F0017093F101809388
:102F5000F2019093F3010C94F31308950C94A117CC
:102F6000CF93DF9300D000D0CDB7DEB769837A83EB
:102F70008B839C838091F0019091F101A091F201EB
:102F8000B091F30129813A814B815C81282B392B47
:102F90004A2B5B2B29833A834B835C83CA01B9019B
:102FA0000F900F900F900F90DF91CF910C94A1177D
:102FB000CF93DF9300D000D0CDB7DEB769837A839B
:102FC0008B839C838091F0019091F101A091F2019B
:102FD000B091F30129813A814B815C812823392307
:102FE0004A235B2329833A834B835C83CA01B9015B
:102FF0000F900F900F900F90DF91CF910C94A1172D
:10300000CF93DF9300D000D0CDB7DEB769837A834A
:103010008B839C838091F0019091F101A091F2014A
:10302000B091F30129813A814B815C8128273927AE
:103030004A275B2729833A834B835C83CA01B90102
:103040000F900F900F900F90DF91CF910C94A117DC
:103050000C949E170C9428180E942A186093EC0177
:103060007093ED018093EE019093EF010C94F313B4
:1030700060E070E0CB010C942C180F931F93CF935A
:10308000DF9300D000D0CDB7DEB741E050E060E084
:1030900070E08A019B0104C0000F111F221F331F23
:1030A0008A95D2F709831A832B833C83C901B8011F
:1030B0000F900F900F900F90DF91CF911F910F9174
:1030C0000C942C180F931F93CF93DF9300D000D054
:1030D000CDB7DEB741E050E060E070E004C0440FDF
:1030E000551F661F771F8A95D2F78091EC0190914A
:1030F000ED01A091EE01B091EF018A019B01082B37
:10310000192B2A2B3B2B09831A832B833C83C90160
:10311000B8010F900F900F900F90DF91CF911F91FA
:103120000F910C942C180F931F93CF93DF9300D023
:1031300000D0CDB7DEB741E050E060E070E004C001
:10314000440F551F661F771F8A95D2F740955095FB
:10315000609570958091EC019091ED01A091EE0148
:10316000B091EF018A019B01082319232A233B23F5
:1031700009831A832B833C83C901B8010F900F90F8
:103180000F900F90DF91CF911F910F910C942C18FD
:103190000F931F93CF93DF9300D000D0CDB7DEB74E
:1031A00041E050E060E070E004C0440F551F661F2E
:1031B000771F8A95D2F78091EC019091ED01A09153
:1031C000EE01B091EF018A019B01082719272A27F8
:1031D0003B2709831A832B833C83C901B8010F90D5
:1031E0000F900F900F90DF91CF911F910F910C9442
:1031F0002C18CF93DF9300D000D0CDB7DEB7698312
:103200007A838B839C838091EC019091ED01A09156
:10321000EE01B091EF0129813A814B815C81282B2D
:10322000392B4A2B5B2B29833A834B835C83CA015E
:10323000B9010F900F900F900F90DF91CF910C94E8
:103240002C18CF93DF9300D000D0CDB7DEB76983C1
:103250007A838B839C838091EC019091ED01A09106
:10326000EE01B091EF0129813A814B815C812823E5
:1032700039234A235B2329833A834B835C83CA0126
:10328000B9010F900F900F900F90DF91CF910C9498
:103290002C18CF93DF9300D000D0CDB7DEB7698371
:1032A0007A838B839C838091EC019091ED01A091B6
:1032B000EE01B091EF0129813A814B815C81282791
:1032C00039274A275B2729833A834B835C83CA01CA
:1032D000B9010F900F900F900F90DF91CF910C9448
:1032E0002C180895292F220FE22FE90FEE0FE80F77
:1032F0008E2F877041E001C0440F8A95EAF7E6956A
:10330000E695E69585E0E89FF0011124EC53FE4F29
:1033100030E020E070E05191DF011197CB01022EE7
:1033200002C0969587950A94E2F78170819585276A
:10333000842385278C932F5F3F4F2530310559F724
:103340000895292F220FE22FE90FEE0FE80F9E2F8D
:103350009770E695E695E69585E0E89FF0011124E3
:10336000EC53FE4F50E040E080E0219130E0092E28
:1033700002C0369527950A94E2F721703327042E70
:1033800001C0220F0A94EAF7822B4F5F5F4F45304E
:10339000510559F70895BF92CF92DF92EF92FF92B5
:1033A0000F931F93CF93DF938C01C090EC01D090CB
:1033B000ED01E090EE01F090EF018091F00190912D
:1033C000F101A091F201B091F301C82AD92AEA2AA9
:1033D000FB2ACFE1D0E0BC2ED701C6010C2E04C0E1
:1033E000B695A795979587950A94D2F780FD0EC05C
:1033F000219788F7B12C8B2DDF91CF911F910F91E1
:10340000FF90EF90DF90CF90BF900895B8018C2F80
:103410000E94AA05019761F3EECFCF93DF93D82FD7
:10342000C92F0E94CB196D2F7C2FDF91CF910C9467
:10343000AA051F93CF93DF93162FD72F90918B015F
:10344000992339F0862F972FDF91CF911F910C94FC
:103450000D1A882391F0862F972F0E94CB19C82F21
:10346000682F812F9D2F0E947219612F7D2F8C2F25
:10347000DF91CF911F910C94AA05862F972F0E9460
:10348000A119C82FF2CF682F80910C0190910D01E6
:103490000C94121C682F80910C0190910D010C94DA
:1034A000141C80910C0190910D010C94161C8091BC
:1034B000F40185958595859508958091F40187702F
:1034C00008959091F401977081E009F480E00895E7
:1034D00080910002089590910002982B9093000231
:1034E0000895982F9095809100028923809300027F
:1034F00008951092000208959091FF01982B9093E7
:10350000FF010895982F90958091FF018923809362
:10351000FF0108951092FF0108959091FE01982BEC
:103520009093FE010895982F90958091FE01892334
:103530008093FE0108951092FE0108958091F50197
:10354000089508950C94A11A9091F501981721F00F
:103550008093F5010C94A21A08958091F5018823B7
:1035600029F01092F50180E00C94A21A0895E091E0
:103570000C01F0910D01809100028083E0910C011B
:10358000F0910D0180819091FF01892B8083E09162
:103590000C01F0910D0180819091FE01892B8083B7
:1035A0009091F501992381F0E0910C01F0910D01CA
:1035B0008081892B808380910C0190910D010E9464
:1035C000D71B81110E94AD1A80910C0190910D01C1
:1035D0000C94710E08950C94EA1A98E0899F90015A
:1035E0001124622B6093F4010E9462188091F4010F
:1035F0008595859585950C94EB1A1092F40180E0E1
:103600000C94EB1A9091F401809589238093F40136
:10361000282F277071F4282F082E000C330B9217D7
:10362000130639F08595859585950E9493180C941D
:10363000FD1A089590934F0180934E01089582954D
:1036400094E0899F900111242C7C86958695837344
:10365000282B30E0C901880F991F8A7A3595279564
:103660002575822B089590E080E00E9488279C01B8
:1036700081E02C3E3E4F09F080E0089582E090E02A
:103680000C94802783E090E00C948027CF9384E013
:1036900090E00E948027C82F81E290E00E9480275E
:1036A000982F8C2FCF910895CF93682FC92F84E046
:1036B00090E00E948E276C2F81E290E0CF910C94D5
:1036C0008E27AB01BC018FE090E00C94A027AB01EA
:1036D000BC0183E190E00C94A02760E070E0CB0196
:1036E0000C94671B60E070E0CB010E94611B0C949E
:1036F0006D1B6CEE7EEF90E080E00E94AC2760E0F6
:1037000082E090E00E948E2760E083E090E00E94DB
:103710008E271092F0011092F1011092F201109296
:10372000F30160E084E090E00E948E2760E081E297
:1037300090E00E948E2760E085E090E00E948E2756
:1037400060E086E090E00E948E276FEF87E090E0D7
:103750000E948E2740E050E0BA0188E090E00E948D
:10376000A02760E08DE090E00E948E2740E050E0CE
:10377000BA0188E190E00E94A02760E087E190E034
:103780000E948E2740E050E0BA018CE190E00E9458
:10379000A02760E080E290E00E948E270C94721BCC
:1037A0000C94791B682F8EE090E00C948E27AC016E
:1037B0009C012E5F3F4F485F5F4F80E02417350725
:1037C00009F40895F90191919F019923B9F38F5F4D
:1037D000F5CF9C01FC0132968FEF90E041914617A6
:1037E00051F08F3F19F4411101C0892F9F5F96302E
:1037F000A9F78F3F09F40895280F311D87FD3A95E9
:10380000F901628308959C01FC013296285F3F4FC5
:103810008191861303C0DF0111971C92E217F30711
:10382000B9F708950C94E91B0C94031CFC01329623
:1038300086E0DF011D928A95E9F7089508950895BD
:103840000C941F1C0E94201C80911D02843049F1A1
:103850001092020288E190E020E40FB6F894A89557
:10386000809360000FBE2093600080E00E94F80407
:103870000E94201C83B7817F846083BF83B78160EF
:1038800083BF7894889583B78E7F83BF0FB6F894F3
:10389000A89580916000886180936000109260001C
:1038A0000FBE08950895CF930E941E1C0E946F09B9
:1038B0000E94521CC0E08C2F0E944208811105C05A
:1038C000CF5FCA30C1F7CF91089581E0FCCF089552
:1038D0000C94671C0E9405140E94650E0E94F80457
:1038E0000C94681C1F921FB61F9211248F939F93F4
:1038F000AF93BF9380910202811113C08091130294
:1039000090911402A0911502B09116024196A11D4A
:10391000B11D8093130290931402A0931502B093EB
:103920001602BF91AF919F918F911F901FBE1F9064
:10393000189582E084BD93E095BD9AEF97BD809382
:103940006E0008952FB7F89480911302909114029D
:10395000A0911502B09116022FBF0895CF92DF9269
:10396000EF92FF929C014FB7F894809113029091CF
:103970001402A0911502B09116024FBF6C017D0197
:10398000EE24FF24A90170E060E0C416D506E60627
:10399000F70638F0821B930BFF90EF90DF90CF90EB
:1039A00008950197F7CF78941F921FB61F921124A4
:1039B0008F939F93AF93BF938091130290911402C2
:1039C000A0911502B09116020196A11DB11D809320
:1039D000130290931402A0931502B0931602BF91A4
:1039E000AF919F918F911F901FBE1F90189587E7F1
:1039F00097E7909301088093000888E19AE00FB65A
:103A0000F894A895809360000FBE90936000FFCF5C
:103A1000CF93DF9300D000D0CDB7DEB70E94331B29
:103A2000811102C00E94D01B0E943E1B80930102A4
:103A30000E94461B90931802809317020E94421B1B
:103A4000282F30E050E040E029833A834B835C83A9
:103A5000CA01B9010F900F900F900F90DF91CF9195
:103A60000C94AE1780910E02089508959FB7F894B4
:103A7000109205029FBF90911D02943009F048C03A
:103A80002091E9002F703091EC00932F917030FD60
:103A900090E8922B23E02093E9002091EB0020FF97
:103AA00034C02091EE0027FF30C020910302222372
:103AB00021F02091E80025FF28C01092030226E0A3
:103AC0003091E80035FF14C08093F1008091E80048
:103AD00085FD27C08091E80080FFFCCF8091E80041
:103AE0008E778093E8009F709093E90080E00895BE
:103AF00030911D02343049F43091EB0035FD05C0A2
:103B0000215041F481E0809303029F709093E9007B
:103B10008FEF0895EFE9FFE03197F1F700C0000063
:103B2000CFCF8FB7F89421E0209305028FBFDBCF72
:103B30000F931F93CF93DF9300D00F92CDB7DEB7D3
:103B40008C010E941E20823011F0843021F584E027
:103B500089830A831B8382E08093E9008FEF909131
:103B6000E800815095FD06C095ED9A95F1F70000AB
:103B70008111F5CF8091E80085FF0DC050E040E055
:103B800063E070E0CE0101960E943B208091E80046
:103B90008E778093E8000F900F900F90DF91CF9178
:103BA0001F910F910895CF93DF9300D00F92CDB75F
:103BB000DEB79C0180911D02843031F583E089835A
:103BC000205831093B832A8382E08093E9008FEFFC
:103BD0009091E800815095FD06C095ED9A95F1F71A
:103BE00000008111F5CF8091E80085FF0DC050E005
:103BF00040E063E070E0CE0101960E943B2080919E
:103C0000E8008E778093E8000F900F900F90DF917F
:103C1000CF910895CF93DF93D82FC92F0E941E20F4
:103C2000823011F0843049F581E08093E9008FEF14
:103C30009091E800815095FD06C095ED9A95F1F7B9
:103C400000008111F5CF8091E80085FF16C050E09B
:103C500040E068E070E08D2F9C2F0E943B20809117
:103C6000E8008E778093E80088E0ED2FFC2FA6E037
:103C7000B2E001900D928A95E1F7DF91CF9108951E
:103C80008EE294E00E940D0380911C02811109C014
:103C90000E94C3210E9420228091E20084608093D0
:103CA000E20008958AE294E00E940D0310921C0243
:103CB000089586E294E00C940D0382E294E00C9463
:103CC0000D038EE194E00E940D030C946A1C209178
:103CD00004022F5F822F62E30E94C224992319F00D
:103CE0002093040208951092040280910502882313
:103CF000F1F080911D028430C1F49091E9009F7031
:103D00002091EC00822F817020FD80E8892B93E0C8
:103D10009093E9009091EB0090FF04C09091EE0029
:103D200097FD08C08F708093E900109205020895F6
:103D30001092F1009091E80095FDFACF9091E80083
:103D400090FFF0CF9091E8009E779093E800EACF43
:103D500042E061EC81E00E943F2142E261EC82E0BE
:103D60000E943F2142E261EC83E00C943F2180916C
:103D70001F02893089F148F4823009F49DC08330F4
:103D800009F458C0813041F008958A3009F484C0A4
:103D90008B3009F46AC0089580911E02813A09F0BF
:103DA00048C08091E800877F8093E80080912202DC
:103DB00090912302892B61F468E086E092E070E044
:103DC0000E948A208091E8008B778093E800089514
:103DD00060E090E080E0F3CF80911E02813249F5EF
:103DE0008091220290912302029718F58091E800B9
:103DF000877F8093E8008091E80082FF16C0909151
:103E0000F3008091F200029729F48091F1008B7FFA
:103E1000813021F48091F10080930E028091E800BE
:103E20008B778093E8000C94732180911D0281119F
:103E3000E2CF089580911E02813AD9F78091220243
:103E400090912302892BA9F78091E800877F8093C6
:103E5000E8008091E80080FFFCCF809118018093FA
:103E6000F1008091E8008E77DCCF80911E028132D4
:103E700001F78091220290912302892BD1F6809143
:103E8000E800877F8093E8000E94732180912002E0
:103E9000809318010C94051480911E02813249F61A
:103EA0008091E800877F8093E8000E9473218091D1
:103EB000210280930F02089580911E02813A09F039
:103EC000B8CF8091E800877F8093E8008091E80078
:103ED00080FFFCCF80910F02C2CF84B7877F84BF61
:103EE0000FB6F894A8958091600088618093600077
:103EF000109260000FBE80E8809361001092610014
:103F00000E94F70E0E94C3210E9420228091E200AD
:103F100084608093E20086E39DE10E941A1B7894FE
:103F20000E94A7240E94FD0E8EE091E00E94600E88
:103F30008DE094E00E940D0380911D02853019F000
:103F40000E942D0FF9CF89E094E00E940D030E949A
:103F5000221C80911B02882379F30E94531C882322
:103F600059F30E942520E8CF0C94B61FFC01CB0129
:103F7000DA012F2F332723303105D1F070F42130AF
:103F8000310509F44EC02230310569F48BE590E02B
:103F90002AE634E02D933C9308952132310521F136
:103FA0002232310571F190E080E030E020E0F2CF84
:103FB000CF019927E230A9F08330910550F40097A2
:103FC00069F0E6E5F4E0019771F7849190E09F01D4
:103FD000E1CFE2E3F4E00397C1F3E5CFE6E6F4E0F6
:103FE000F4CFE8E3F4E0F1CF63307105E0F6880F39
:103FF000991FFC01E95BFE4F2081318189E090E04F
:10400000C9CF6330710578F6FB01EE0FFF1FEF5B40
:10401000FE4F20813181825C9E4FFC01808190E0C7
:10402000B9CF82E190E025EC34E0B4CF80911D025D
:10403000843011F482E0089581E0089580911002A7
:10404000811102C00C941620089580E189BD82E19F
:1040500089BD09B400FEFDCF8091D8008F7D80938B
:10406000D8008091E00082608093E0008091E000C1
:1040700081FDFCCF0895AF92BF92CF92DF92FF9265
:104080000F931F93CF93DF936C01EB018A010E9482
:104090009221F82E811123C00115110539F0F80184
:1040A00080819181C81BD90BC80ED91EB12CA12CBF
:1040B0002097A9F08091E80085FD22C08091E8005A
:1040C0008E778093E80001151105A1F0F801808139
:1040D0009181A80EB91EB182A08285E0F82E8F2DA5
:1040E000DF91CF911F910F91FF90DF90CF90BF9004
:1040F000AF9008950E9492218823D1F2F82EEFCF3D
:10410000F60181916F018093F1002197FFEFAF1AC3
:10411000BF0ACECFFC01CB012091240230912502B1
:104120002617370790F0009729F42091E8002E77A2
:104130002093E80040E0009751F4411108C08091BD
:10414000E80082FF31C080E00895C901F3CF2091DB
:104150001D022223A9F12530A9F12091E80023FDB9
:104160002DC02091E80022FDEACF2091E80020FF39
:10417000E2CF3091F3002091F200009719F028303F
:10418000310558F041E02830310509F040E0209138
:10419000E8002E772093E800CECF41914093F100C4
:1041A00001972F5F3F4FE9CF80911D02882341F097
:1041B000853041F08091E80083FFC1CF81E0089510
:1041C00082E0089583E00895FC01CB012091240250
:1041D000309125022617370790F0009729F4209197
:1041E000E8002E772093E80040E0009751F4411159
:1041F00008C08091E80082FF32C080E00895C901C4
:10420000F3CF20911D022223B1F12530B1F120918D
:10421000E80023FD2EC02091E80022FDEACF209186
:10422000E80020FFE2CF3091F3002091F2000097E8
:1042300019F02830310558F041E02830310509F0F7
:1042400040E02091E8002E772093E800CECF449103
:104250004093F100319601972F5F3F4FE8CF809157
:104260001D02882341F0853041F08091E80083FFF2
:10427000C0CF81E0089582E0089583E00895982FEB
:10428000973028F08F708093E90081E00895909333
:10429000E900242F762F50E0981731F07091EC0050
:1042A0002091ED005091F00021FD02C09F5FE8CF0A
:1042B0003091EB003E7F3093EB003091ED003D7F7D
:1042C0003093ED003091EB0031603093EB00709350
:1042D000EC002093ED005093F0002091EE0027FDBC
:1042E000E5CF80E0089580911E0287FF13C0809182
:1042F000E80082FF06C08091E8008B778093E80099
:1043000004C080911D028111F2CF089580911D0299
:104310008823D9F38091E80080FFF8CF8091E800EE
:104320008E77ECCF2091E4003091E50095E6A9016D
:104330002091EC00822F817020FF06C08091E80060
:1043400080FF06C080E008952091E80022FD1AC099
:1043500080911D02882389F0853089F08091EB00DF
:1043600085FD0FC02091E4003091E500421753070E
:10437000F9F29150E1F684E0089582E0089583E037
:10438000089581E008950E9431220E943922E0EED2
:10439000F0E0808181608083E8EDF0E080818F77BC
:1043A000808319BCA7EDB0E08C918E7F8C938081C7
:1043B0008F7E808310921C0208950F931F93CF93DA
:1043C000DF930E9431220E943922C8EDD0E088811B
:1043D0008F77888388818068888388818F7D8883B0
:1043E00019BC10921D021092190210921B02109219
:1043F0001A0200EE10E0F80180818B7F80838881B3
:104400008160888342E060E080E00E943F21E1EE2D
:10441000F0E080818E7F8083E2EEF0E08081816039
:104420008083808188608083F80180818E7F808393
:10443000888180618883DF91CF911F910F910895CA
:10444000E8EDF0E080818F7E8083E7EDF0E0808111
:104450008160808384E082BF81E080931C020C94A1
:10446000DD21E8EDF0E080818E7F80831092E20014
:1044700008951092DA001092E10008951F920F92B1
:104480000FB60F9211242F933F934F935F936F9327
:104490007F938F939F93AF93BF93EF93FF938091FD
:1044A000E10082FF0BC08091E20082FF07C0809193
:1044B000E1008B7F8093E1000E94671E8091DA000B
:1044C00080FF19C08091D80080FF15C08091DA006C
:1044D0008E7F8093DA008091D90080FF94C080E1C4
:1044E00089BD82E189BD09B400FEFDCF81E08093E2
:1044F0001D020E94401E8091E10080FF19C0809142
:10450000E20080FF15C08091E2008E7F8093E20080
:104510008091E20080618093E2008091D800806207
:104520008093D80019BC85E080931D020E945D1E17
:104530008091E10084FF29C08091E20084FF25C0C2
:1045400080E189BD82E189BD09B400FEFDCF809183
:10455000D8008F7D8093D8008091E1008F7E80937A
:10456000E1008091E2008F7E8093E2008091E20082
:1045700081608093E20080911902882309F449C088
:1045800084E080931D020E94611E8091E10083FF00
:1045900029C08091E20083FF25C08091E100877FE0
:1045A0008093E10082E080931D02109219028091B5
:1045B000E1008E7F8093E1008091E2008E7F809306
:1045C000E2008091E20080618093E20042E060E0DE
:1045D00080E00E943F218091F00088608093F0008D
:1045E0000E94591EFF91EF91BF91AF919F918F91C2
:1045F0007F916F915F914F913F912F910F900FBEDF
:104600000F901F90189519BC10921D020E94521E07
:1046100072CF8091E30087FD02C081E0B2CF83E0DA
:10462000B0CF1F920F920FB60F9211242F933F938A
:104630004F935F936F937F938F939F93AF93BF93AA
:10464000CF93DF93EF93FF93D091E900DF708091D8
:10465000EC00C82FC17080FDC0E81092E900809185
:10466000F000877F8093F00078940E945523109289
:10467000E9008091F00088608093F000CD2BCF702E
:10468000C093E900FF91EF91DF91CF91BF91AF917E
:104690009F918F917F916F915F914F913F912F915A
:1046A0000F900FBE0F901F9018951F93CF93DF931D
:1046B000CDB7DEB7AA970FB6F894DEBF0FBECDBF59
:1046C0008EE192E0FC0101962091F100208322E02E
:1046D00086329207B9F70E94B71E8091E80083FFE7
:1046E0001EC180911E0290911F029A3008F017C1DE
:1046F000E92FF0E0E95DF74D0C94CE24803899F075
:10470000823809F00CC1809122028F70873008F046
:1047100006C18093E9008091EB0085FB882780F932
:104720001092E90006C080911A0290911B0291112B
:1047300082609091E800977F9093E8008093F10069
:104740001092F1008091E8008E77E5C0882309F48B
:10475000D3C0823009F0E3C0809120028111D6C01D
:10476000809122028F702FEF280F263008F0D7C0DB
:104770008093E9002091EB0020FFC8C0933031F412
:104780008091EB0080628093EB00C0C09091EB00C1
:1047900090619093EB0021E030E001C0220F8A95F8
:1047A000EAF72093EA001092EA008091EB0088601B
:1047B000EACF8111B4C0109120021F778091E300ED
:1047C0008078812B8093E3008091E800877F80933D
:1047D000E8000E9473218091E80080FFFCCF809167
:1047E000E30080688093E30082E0111183E080930E
:1047F0001D0295C08058823008F091C0809120023F
:10480000909121028C3D23E09207A1F583E08A83F9
:104810008AE289834FB7F894DE01139620E03EE0E8
:1048200051E2E32FF0E050935700E49120FF03C0E2
:10483000E295EF703F5FEF708E2F90E0EA30C0F0AE
:10484000C7968D939D932F5F243159F74FBF809169
:10485000E800877F8093E8006AE270E0CE0101966D
:104860000E948A208091E8008B778093E80057C0EF
:10487000C096E7CF6091220270912302AE014F5F94
:104880005F4F0E94B41FBC01892B09F448C080917E
:10489000E800877F8093E80089819A810E94E42064
:1048A000E1CF8038E1F58091E800877F8093E800D0
:1048B000809119028093F10045CF811130C0909111
:1048C0002002923060F58091E800877F8093E800B5
:1048D000909319020E94732180911902882311F08C
:1048E00084E005C08091E30087FDFACF81E08093EA
:1048F0001D020E94A81E13C080912002813079F40D
:1049000081E0933009F080E080931B021092E9006F
:104910008091E800877F8093E8000E947321809156
:10492000E80083FF0AC08091E800877F8093E80059
:104930008091EB0080628093EB00AA960FB6F8940A
:10494000DEBF0FBECDBFDF91CF911F910895CF93F2
:1049500080911D028823A1F0C091E900CF70909151
:10496000EC00892F817090FD80E8C82B1092E9003F
:104970008091E80083FD0E945523CF70C093E90029
:10498000CF910895991B79E004C0991F961708F0FC
:10499000961B881F7A95C9F780950895EE0FFF1F23
:1049A0000590F491E02D0994AEE0B0E0EAEDF4E278
:1049B0000C94D0270D891E898F89988D26E02C8331
:1049C0001A83098397FF02C080E090E801979E83D5
:1049D0008D83AE01455E5F4F698D7A8DCE01019664
:1049E0000E9404254D815E8157FD0AC02F813885C4
:1049F000421753070CF49A01020F131FF80110829B
:104A00002E96E4E00C94EC27AFE0B0E0EAE0F5E2AB
:104A10000C94C2277C013B018A01DC0117961C9291
:104A20001E92169713968C9181FFC3C19AE0292E8E
:104A3000FE0131964F01D70113969C91F30193FD2E
:104A4000859193FF81913F01882309F448C1853204
:104A500039F493FD859193FF81913F01853229F4CB
:104A6000B70190E00E94F226E6CFB12C412C512CE8
:104A7000BFE1B51538F08B3209F188F4803201F1CD
:104A8000833221F157FC3AC020ED280F2A3040F53F
:104A900056FE1FC0B29C200D1124B22E06C08D32CE
:104AA00091F0803379F7689450F8F30193FD859184
:104AB00093FF81913F018111DBCF20C0689451F8B1
:104AC000689452F8F2CF689453F8EFCF689454F892
:104AD000ECCF429C200D1124422E689455F8E5CF6E
:104AE0008E3229F456FCFBC0689456F8DECF8C3623
:104AF00019F4689457F8D9CF8836B9F2982F9F7D6A
:104B000095549330C0F08336A1F18337C1F18335DA
:104B100009F05BC0D801CD90DD908D016B2D70E068
:104B200056FC02C06FEF7FEFC6010E94DC265C01DD
:104B3000689457F80AC00C5F1F4FEFE3E983AA247B
:104B4000A394B12C6401E89457F853FC04C04A14B0
:104B50001B0409F018F5342CA114B10431F53320ED
:104B600009F469CFB70180E290E00E94F2263A94FE
:104B7000F6CFD8018C9189830E5F1F4FE0CFF801EB
:104B8000C190D1908F016B2D70E056FC02C06FEF89
:104B90007FEFC6010E94E7265C01D5CFB70180E216
:104BA00090E00E94F2264A94D2CFF60157FC8591FC
:104BB00057FE81916F01B70190E00E94F2263110FB
:104BC0003A94B1E0AB1AB108C7CF843619F08936F0
:104BD00009F074C0F80157FE6AC06191719181912A
:104BE00091918F01E52DEF76DE2E97FF09C090950C
:104BF0008095709561957F4F8F4F9F4F6894D7F840
:104C00002AE030E0A4010E942227C82EC818AC2C4C
:104C10005D2CD6FE0CC0E89450F8CB1440F4D4FEC2
:104C200005C0D2FC03C05D2D5E7E552EAB2C54FE1C
:104C300098C0FE01EC0DF11D8081803309F08AC01F
:104C4000652D697E562E752D7870372E53FC98C0D1
:104C500050FE92C0BC2CA41418F44C0CB42CBA18FE
:104C600054FE94C0B70180E390E00E94F22652FE09
:104C700009C088E790E051FE02C088E590E0B701E6
:104C80000E94F226CB1408F48DC0CA94D12C8FEF69
:104C9000C81AD80AC80CD91CD6018E916D01B7016B
:104CA00090E00E94F2268C149D04B1F758CF6191D8
:104CB0007191072E000C880B990B93CFD52CE8949B
:104CC000D4F82AE030E0853739F1F52DF97FDF2E71
:104CD0008037A9F058F48835A9F08F36D9F0F7015C
:104CE000868197812F96E2E10C94DE278837B9F709
:104CF000D4FE02C06894D2F820E130E00DC0689480
:104D0000D4F8F6CF54FE03C02F2F2660D22E20E118
:104D100032E002C028E030E0F801D7FE15C0419132
:104D20005191619171914C875D876E877F878F016B
:104D3000A4016C857D858E859F850E942227C82EC3
:104D4000C818E894D7F863CF81919191AC0170E0D5
:104D500060E0E9CF52FC02C0A39475CFA394A39462
:104D600072CF852D867809F46ECFF6CFB70180E239
:104D700090E00E94F226A394A414C0F3312C70CFCB
:104D8000342C3A18A41408F46BCFF8CF852D86780C
:104D900009F478CF8BE251FE80E257FC8DE2B70137
:104DA00090E06ECFB70180E390E00E94F226BA94C3
:104DB00069CF8FEF9FEF96CFFC0105906150704057
:104DC0000110D8F7809590958E0F9F1F0895FC01D4
:104DD0006150704001900110D8F7809590958E0F2A
:104DE0009F1F08950F931F93CF93DF93182F092FC1
:104DF000EB018B8181FD09C01FEF0FEF812F902FF9
:104E0000DF91CF911F910F91089582FF14C02E81E1
:104E10003F818C819D81281739073CF4E881F98115
:104E2000CF0101969983888310838E819F8101969B
:104E30009F838E83E3CFE885F985812F0995892BA0
:104E4000A1F3DACFFA01AA27283051F1203181F1FC
:104E5000E8946F936E7F6E5F7F4F8F4F9F4FAF4F82
:104E6000B1E03ED0B4E03CD0670F781F891F9A1F95
:104E7000A11D680F791F8A1F911DA11D6A0F711D49
:104E8000811D911DA11D20D009F468943F912AE055
:104E9000269F11243019305D3193DEF6CF0108953D
:104EA000462F4770405D4193B3E00FD0C9F7F6CF6E
:104EB000462F4F70405D4A3318F0495D31FD405236
:104EC000419302D0A9F7EACFB4E0A69597958795CC
:104ED00077956795BA95C9F70097610571050895AB
:104EE0009B01AC010A2E0694579547953795279557
:104EF000BA95C9F7620F731F841F951FA01D0895EF
:104F0000F999FECF92BD81BDF89A992780B5089591
:104F1000A8E1B0E042E050E00C94B427262FF999C4
:104F2000FECF92BD81BDF89A019700B4021639F008
:104F30001FBA20BD0FB6F894FA9AF99A0FBE0895D9
:104F40000396272F0E948F270E948E27252F0E94CD
:104F50008F27242F0C948F270196272F0E948F27AD
:104F60000C948E27DC01CB01FC01F999FECF06C021
:104F7000F2BDE1BDF89A319600B40D924150504017
:104F8000B8F708952F923F924F925F926F927F925F
:104F90008F929F92AF92BF92CF92DF92EF92FF9249
:104FA0000F931F93CF93DF93CDB7DEB7CA1BDB0BF5
:104FB0000FB6F894DEBF0FBECDBF09942A8839889A
:104FC00048885F846E847D848C849B84AA84B984A1
:104FD000C884DF80EE80FD800C811B81AA81B981AD
:104FE000CE0FD11D0FB6F894DEBF0FBECDBFED01C1
:104FF0000895F894FFCF7F0C8E0C920CA00CA40C9B
:10500000A80CAC0CB20CBA0CBE0CC20CC60CD20C68
:10501000D60CDA0CDE0CE40C020DEC0C960C9C0C9D
:10502000CA0CCE0CB60CE80CF80C0B0D0F0DAC1125
:10503000AC110E120E126312DC11DC11DC117F12A6
:1050400029133A133A139B13DC11DC11A4137E23AA
:10505000A6238F24A6238F24D923FA238F24512417
:025060005D24CD
:10506200016501006601066601960001F601321D26
:105072000A1E351DD31D981D01F6F73133323697BE
:10508200C634929400000000000A25640A0000FF62
:105092000100010000FFFF0000010001FF00403697
:0E50A200222F05F904D7047C049504AE040007
:00000001FF
