:100000000C9472050C94D01A0C94B9050C94B90593
:100010000C94B9050C94B9050C94B9050C94B90568
:100020000C94B9050C94B9050C94872F0C945A3094
:100030000C94B9290C94B9050C94B9050C94B90524
:100040000C94B9050C94B9050C94B9050C94B90538
:100050000C94B9050C941A2A0C94B9050C94B905A2
:100060000C94B9050C94B9050C94B9050C94B90518
:100070000C94B9050C94B9050C94B9050C94B90508
:100080000C94B9050C94B9050C94B9050C94B905F8
:100090000C94B9050C94B9050C94B9050C94B905E8
:1000A0000C94B9050C94B9050C94B90529001E00EF
:1000B0001F002000210022002B0014001A0008005D
:1000C000150017002A0004001600070009000A00A6
:1000D000D75C1D001B000600190005000000000091
:1000E00000000404E30001512E0027002600250033
:1000F000240023002D00130012000C0018001C0027
:10010000280034000F000E000D000B00D85C3800F2
:100110003700360010001100000000000000A800A9
:1001200002512C0029001E081F082008210822085F
:100130002B0114081A082900150817082A0802516B
:100140001608060819081B087300040807083A0077
:100150001D081C08000000000000E200E300010090
:100160006F0027012601330231023300700035028F
:100170004F08520050081C01710035004F0051001B
:1001800050004C00720031000A080A0A09082A00CF
:100190000000000000000000E7002C00A9001E0C79
:1001A0001F0C3C003D003E00AA00000000000000C3
:1001B000150A3B00A800010000002F0030002B00B2
:1001C000D75C1A5C00002F0230021801000000000A
:1001D000000039002C04E3006900430042004100A4
:1001E00040003F006A0044004F0A5202500A0E0AC3
:1001F0006B0045004F02510250026D006C00680018
:100200004F06500604096E000000000000000000C8
:1002100001002C0044454255473A206469736162ED
:100220006C65642E0A0044454255473A20656E616C
:10023000626C65642E0A0000000000000000002AC5
:100240002B2800000000000000000000000000005B
:10025000000029000000002C1E3420212224342616
:1002600027252E362D3738271E1F2021222324250F
:10027000263333362E37381F0405060708090A0BC4
:100280000C0D0E0F101112131415161718191A1B36
:100290001C1D2F3130232D350405060708090A0BD4
:1002A0000C0D0E0F101112131415161718191A1B16
:1002B0001C1D2F3130354C000000000000000000F4
:1002C000000000000000000000000000000000002E
:1002D000000000000000000000000000000000001E
:1002E000000000000000000000000000000000000E
:1002F00000000000000000000000000000000000FE
:1003000000000000000000000000000000000000ED
:1003100000000000000000000000000000000000DD
:1003200000000000000000000000000000000000CD
:1003300000000000000000000000000000000000BD
:1003400000000000000000000000000000000000AD
:100350000000000000000000010101010101000196
:10036000010101000000000000000000000000008A
:100370000001000100010101010101010101010170
:10038000010101010101010101010101010101015D
:100390000101000000010100000000000000000059
:1003A000000000000000000000000000000000004D
:1003B000000001010101000A0025303862003A20E6
:1003C0000025303258000A722F6320303132333426
:1003D0003536370A007267626C6967687420746921
:1003E0006D65722064697361626C652E0A007267C4
:1003F000626C696768742074696D657220656E61EE
:10040000626C65642E0A007267626C6967687420AA
:1004100073657420687376205B4E4F454550524F8C
:100420004D5D3A2025752C25752C25750A007267BF
:10043000626C696768742073657420687376205BEA
:10044000454550524F4D5D3A2025752C25752C257C
:10045000750A007267626C69676874207261696E00
:10046000626F7720736574206873763A2025642C58
:1004700025642C25642C25750A007267626C6967F7
:1004800068742064697361626C65205B45455052F5
:100490004F4D5D3A207267626C696768745F636F85
:1004A0006E6669672E656E61626C65203D202575FC
:1004B0000A007267626C6967687420656E61626CBD
:1004C00065205B454550524F4D5D3A207267626C26
:1004D000696768745F636F6E6669672E656E6162D7
:1004E0006C65203D2025750A007267626C6967683B
:1004F0007420746F67676C65205B454550524F4DA3
:100500005D3A207267626C696768745F636F6E66DC
:1005100069672E656E61626C65203D2025750A0055
:100520007267626C69676874206D6F6465205B4EEA
:100530004F454550524F4D5D3A2025750A00726770
:10054000626C69676874206D6F6465205B45455017
:10055000524F4D5D3A2025750A007267626C6967DB
:1005600068745F696E6974207267626C6967687429
:100570005F636F6E6669672E6D6F6465203D203026
:100580002E2057726974652064656661756C7420ED
:1005900076616C75657320746F20454550524F4DE0
:1005A0002E0A007267626C696768745F696E6974AD
:1005B000206565636F6E666967206973206E6F746E
:1005C00020656E61626C65642E0A007267626C69F8
:1005D0006768745F696E6974207374617274210A4C
:1005E000007267626C696768745F696E6974206322
:1005F000616C6C65642E0A007267626C696768746E
:100600005F636F6E6669672E7370656564203D2059
:1006100025640A007267626C696768745F636F6E55
:100620006669672E76616C203D2025640A0072673A
:10063000626C696768745F636F6E6669672E736169
:1006400074203D2025640A007267626C69676874D3
:100650005F636F6E6669672E687565203D2025644F
:100660000A007267686C696768745F636F6E6669B9
:10067000672E6D6F6465203D2025640A00726762F5
:100680006C696768745F636F6E6669672E656E611B
:10069000626C65203D2025640A007267626C6967A0
:1006A00068745F636F6E66696720454550524F4DB1
:1006B0003A0A0000047F3F1F643214643214783C0D
:1006C0001E1E140A052223252628292A2C2D2F3008
:1006D00032333536383A3B3D3E4042434547494A3E
:1006E0004C4E5051535557595A5C5E60626466686F
:1006F000696B6D6F71737577797B7D7F818385877A
:10070000898A8C8E90929496989A9C9E9FA1A3A57C
:10071000A7A8AAACAEAFB1B3B4B6B8B9BBBCBEBFA4
:10072000C1C2C3C5C6C7C9CACBCCCDCED0D1D2D227
:10073000D3D4D5D6D7D7D8D9D9DADADBDBDBDCDC32
:10074000DCDCDCDDDDDDDDDCDCDCDCDCDBDBDBDAEA
:10075000DAD9D9D8D7D7D6D5D4D3D2D2D1D0CECD55
:10076000CCCBCAC9C7C6C5C3C2C1BFBEBCBBB9B862
:10077000B6B4B3B1AFAEACAAA8A7A5A3A19F9E9CE7
:100780009A98969492908E8C8A89878583817F7DB2
:100790007B79777573716F6D6B6968666462605E93
:1007A0005C5A5957555351504E4C4A49474543425C
:1007B000403E3D3B3A3836353332302F2D2C2A29F6
:1007C0002826252322FFAA7F55406261636B6C694E
:1007D00067687420737465703A2025750A00626139
:1007E000636B6C696768742064697361626C650A25
:1007F000006261636B6C6967687420656E61626C2E
:10080000650A006261636B6C6967687420746F6766
:10081000676C653A2025750A006261636B6C6967D5
:1008200068742064656372656173653A2025750A92
:10083000006261636B6C6967687420696E637265DE
:100840006173653A2025750A00000101010101016B
:100850000101010202020202020202020303030377
:100860000303030304040404040404050505050547
:100870000606060606070707070708080808090905
:1008800009090A0A0A0B0B0B0C0C0C0D0D0D0E0EB0
:100890000E0F0F0F10101111111212131314141543
:1008A0001516161717181819191A1A1B1B1C1D1DB7
:1008B0001E1E1F202021222223242425262627280D
:1008C00029292A2B2C2D2D2E2F303132323334353D
:1008D000363738393A3B3C3D3E3F40414243444540
:1008E000464748494A4C4D4E4F505153545556581F
:1008F000595A5B5D5E5F616264656668696B6C6DC9
:100900006F7072737577787A7B7D7E80828385873E
:10091000888A8C8E8F91939596989A9C9EA0A2A37C
:10092000A5A7A9ABADAFB1B3B5B7BABCBEC0C2C481
:10093000C6C9CBCDCFD1D4D6D8DBDDDFE2E4E7E941
:10094000EBEEF0F3F5F8FAFDFF0A002530325820FF
:10095000006B6579626F6172645F7265706F72744B
:100960003A20000A0025303258006B6579626F61C9
:1009700072645F7365745F6C65643A20005B735DDD
:10098000004B6579626F6172642073746172742EBA
:100990000A005B575D005B535D005B525D005B448A
:1009A0005D005B435D000403300000001C03490050
:1009B00072006900730020004B006500790062003E
:1009C0006F0061007200640000000E034B006500C0
:1009D0006500620069006F00000004030904090259
:1009E0005B00030100A0FA090400000103010100FB
:1009F0000921110100012240000705810308000AB6
:100A00000904010001030000000921110100012275
:100A100036000705820320000A09040200020300D1
:100A20000000092111010001222200070583032093
:100A3000000107050303200001120110010000005E
:100A40000810CB56120002010203010631FF09749F
:100A5000A1010975150026FF00952075088102097E
:100A600076150026FF00952075089102C005010942
:100A700080A10185031A81002A8300160100260344
:100A800000950175108100C0050C0901A1018504C4
:100A90001A01002A9C02160100269C02950175107D
:100AA0008100C005010906A101050719E029E71524
:100AB00000250195087501810295017508810105E0
:100AC00007190029FF150026FF009506750881000B
:100AD0000508190129059505750191029501750310
:100AE0009101C00011241FBECFEFDAE0DEBFCDBF01
:100AF00004B603FE27C08091930290919402A091C6
:100B00009502B09196028730904BA740B04BD1F43C
:100B100010929302109294021092950210929602F3
:100B200014BE84B7877F84BF0FB6F894A8958091D0
:100B30006000886180936000109260000FBEE0E06A
:100B4000F8E3099511E0A0E0B1E0E6E4FCE602C0BC
:100B500005900D92A238B107D9F722E0A2E8B1E0E2
:100B600001C01D92A339B207E1F70E94B42C0C9486
:100B7000D7350C940000FF93EF93E0918201F09140
:100B80008301309709F00995EF91FF910895FC01D9
:100B90008591803011F0EFDFFBCF0895FF27E0E271
:100BA00030E247FF0CC0419597FF09C0EDE2609528
:100BB000709580959095611D711D811D911D27FF78
:100BC00002C0219530E350E2AA27660F771F881FE5
:100BD000991FAA1FA41710F0A41B63955A95A9F793
:100BE000AA3008F0A95FA05DAF93F3956115710578
:100BF0008105910541F7ED3211F4EF93F395F2176A
:100C000018F43F93F395FBCF8F91B5DFFA95E1F799
:100C10000895E991F9918591803021F0853219F09C
:100C2000AADFF9CF089520E0E89455915532C1F339
:100C3000503311F4689455915A3348F4505390F35B
:100C4000220F022E220F220F200D250FF4CF0EF4BB
:100C5000219589919991533619F3533729F15335D9
:100C600059F1BC0188279927E8945C3621F48991D1
:100C7000999168945591543639F446EF7EF077FF98
:100C80000DC08FEF9FEF0AC055374AE039F0583555
:100C900040E121F0523642E009F00895FF93EF93CE
:100CA0007DDFEF91FF91B7CFFF93EF93FC0181912F
:100CB0008030B9F360DFFBCFFF93EF9368DFF1CFB4
:100CC000DF93CF93CDB7DEB72596A3DFCF91DF912A
:100CD000089580912F0281FF06C08EE4611101C04A
:100CE0008BE40C94651E89EA6111FBCF8AEAF9CF87
:100CF000CF93DF939C01FB019A9581159F4160F58D
:100D0000E901CC27D170D901AA27B270B9016627B1
:100D10007470A9014427587034FF10C080E1CD2BB6
:100D200009F480E0AB2B09F08062672B09F0806446
:100D3000452B09F08068DF91CF91099481E0CD2B9C
:100D400009F480E0AB2B09F08260672B09F0846026
:100D5000452B89F38860EFCFDF91CF910895CF9332
:100D6000DF93EC01805E9109089720F06EE171E25B
:100D7000209711F468E77EE1CE010E9478068C2F5F
:100D8000DF91CF910C94131DCF93DF93EC010E9460
:100D9000161ECE01805E9109089720F065E271E28F
:100DA000209711F46FE77EE1CE01DF91CF910C9493
:100DB0007806CF93DF93D82FC92F0E94AF068D2FCF
:100DC0009C2FDF91CF910C94C40681E0089581E0BF
:100DD00008950C94E7061F93CF93DF9300D000D0C3
:100DE0000F92CDB7DEB749835A836B832091CE0132
:100DF00089819A8121111BC06623A9F00E940427D2
:100E0000182F682F89819A810E94AB2669817A8187
:100E1000812F0F900F900F900F900F90DF91CF9137
:100E20001F910C94CD080E94DA26182FEFCF0E9454
:100E3000042769817A81EDCFFC0140815181628173
:100E4000738184810C94EB061F93CF93DF9390E022
:100E5000FC01E95CFD4F1491FC01E95CFC4FD4916D
:100E600089549D4FFC01C491DD2319F081EE0E944D
:100E7000131DCC2319F086EE0E94131D812F0E94B2
:100E8000651ECC2319F086EE0E94161EDD2331F07C
:100E900081EEDF91CF911F910C94161EDF91CF91BF
:100EA0001F910895EF92FF921F93CF93DF93EC0170
:100EB000162F8881882339F17E019FEFE91AF90AFC
:100EC000813041F4C9818C2F0E94131D8C2F0E9408
:100ED000161E05C0823079F489810E94131DE70136
:100EE0002196812F815028F3EFE9FFE03197F1F748
:100EF00000C00000F7CF833011F48981E8CF0E9451
:100F000024077E01ECCFDF91CF911F91FF90EF90EE
:100F1000089560E00C9452070E946C28811102C071
:100F20000E9412290E94F2170E946C180C94AD0BBB
:100F30000E94F1170E9485180C94B00B08950C9430
:100F40009E0781E008950C94A107CF93C82F0E94BB
:100F50009F078C2FCF910C94A30708950E943E21E8
:100F60000E94AD072FEF84E39CE021508040904029
:100F7000E1F700C0000087E797E7909301088093AE
:100F800000080C943E2A0F931F93CF93DF938C019C
:100F90000E941C07EC01B8010E94E906882329F190
:100FA000B801CE010E94C9158823F9F0B801CE011D
:100FB0000E9417198823C9F0B801CE010E945B195D
:100FC000882399F0F8018281882351F1C130FCE532
:100FD000DF0789F0CE3D8CE5D807F9F0C115ECE5C7
:100FE000DE0709F0ACC00E94AE0780E0DF91CF9130
:100FF0001F910F91089590914402892F8E7F90FF49
:1010000081608093440280FF05C086E292E00E94E6
:10101000C705EBCF84E192E0FACF0E941229E5CF19
:101020000E94A1278272FE01E25CFC45E431F105D9
:1010300008F085C0E752FA4C0C947F320E94971456
:10104000D4CF882329F00E94CD13CFCF8823D9F3A2
:101050000E94BF13CACF882329F00E943211C5CF46
:101060008823D9F30E942611C0CF882329F00E943B
:101070005011BBCF8823D9F30E944111B6CF8823EA
:1010800029F00E946E11B1CF8823D9F30E945F111D
:10109000ACCF882329F00E94520FA7CF8823D9F321
:1010A0000E942F0FA2CF81E00E94D0139ECF0E94FA
:1010B000270F823020F00E94270F853048F282E00F
:1010C000F3CF0E94270F863088F00E94270F8830C8
:1010D00068F40E94BF130E94270F893028F00E94F5
:1010E000270F8E3008F4B4CF89E0DECF86E00E946F
:1010F000D013F1CF0E94270F8F3028F00E94270FC6
:10110000843108F4A5CF8FE0CFCF0E94270F85311F
:1011100028F00E94270F873108F49ACF85E1C4CFC9
:1011200088E1C2CF0E94270F893128F00E94270F43
:10113000823208F48DCF89E1B7CF83E2B5CFC631D3
:10114000DC4501F50E94A127F8019281992381F0E5
:101150008A7A91E009F490E090938401811106C0AD
:1011600089E20E947C270E94F0273FCF85E3F9CFD8
:1011700080918401811104C089E20E948327F3CF0A
:1011800085E3FBCFC801DF91CF911F910F910C94A4
:10119000E50690E080E008950895972F70E026E03E
:1011A000929F600D711D1124FB019CE3899FE00D4E
:1011B000F11D1124EE0FFF1FE455FF4F859194910F
:1011C0000895FC01EE0FFF1FE954FC4F85919491A7
:1011D0000895CF93DF930E94CD080E94D10AEC01BD
:1011E000811524E5920708F06DC0811533E593075A
:1011F00008F058C1811540E39407D0F5C11580E28D
:10120000D80708F021C1CF3BD105E0F4C83AD10599
:1012100008F0BBC0C53AD10570F4C430D10538F42C
:1012200091E080E0219709F090E0C92FD82FCE01FE
:10123000DF91CF910895C53AD10509F09FC0C1E86B
:10124000D0E4F5CFC83ED10568F4C03ED10578F7AB
:10125000CE01805C91098032910508F4F7C0D0E09E
:10126000C0E0E5CFCE019A9581159F4100F3F7CFFD
:10127000811531E5930768F4811540E5940708F07E
:10128000F3C0C11580E4D80708F4E4C0DF70D06A69
:10129000CECFC11592E5D90708F4FFC0CE01837007
:1012A000992721E030E002C0220F331F8A95E2F730
:1012B000C695C69540E2C49FE0011124C22BD32BF2
:1012C000DC68B5CFCC3B8CE5D80709F416C158F5DE
:1012D000C11529E5D207D8F4C11538E5D30708F0C0
:1012E000F9C0C11545E5D40708F4EFC0CE01955506
:1012F0008F3F910511F008F0B2CF8C2F0E94690B3F
:10130000C82FD0E0DC2FCC27CC27DF7135C0C1152A
:101310008AE5D80708F4E3C0CB3BDC4509F09FCF52
:10132000C0E0D4ED84CFCF3B2CE5D20709F4E8C070
:1013300060F4CD3B4CE5D40709F4E5C0CE3BDC4579
:1013400009F08DCFC0E0D0ED72CFC03C9CE5D9074D
:1013500009F4DCC0CE0190568115904208F07FCF91
:101360008D2F8F710E94690B90E0982F8827882716
:101370009F719C012C2BE901D06259CFC63AD1054F
:1013800009F0C7C0C2E8D0E452CFC83AD10509F489
:10139000C3C0C93AD10509F4C2C0CA3AD10509F49B
:1013A000C1C0CB3AD10509F4C0C0CC3AD10509F48B
:1013B000BFC0CB3BD10509F4BEC0CC3BD10509F47D
:1013C000BDC0CD3AD10509F4BCC0C03BD10509F47C
:1013D000BBC0CE3AD10509F4BAC0CF3AD10509F461
:1013E000B9C0C13BD10509F4B8C0C23BD10509F46D
:1013F000B7C0C33BD10509F4B6C0C43BD10509F45D
:10140000B5C0C53BD10509F4B4C0C63BD10509F44C
:10141000B3C0C73BD10509F4B2C0C83BD10509F43C
:10142000B1C0C93BD10509F4B0C0CD3BD10509F429
:10143000AFC0CE3BD10509F4AEC0CA3BD10509F41B
:10144000ADC0C0E0D4E4F3CECE019F700E94E108AD
:10145000EC01EDCECE019927D3FF03C0EC01D86C8F
:10146000E6CEEC01D06CE3CE64E0969587956A9564
:10147000E1F783702C2F26952695237090E2299F03
:1014800090011124382B8C2F8370C1E0D0E002C072
:10149000CC0FDD1F8A95E2F711CFDC2FCC27C16F6F
:1014A000D06AC5CE8370992721E030E002C0220FB8
:1014B000331F8A95E2F7C695C69540E2C49FE001C6
:1014C0001124C22BD32BDA68B2CEDC2FCC27C46F09
:1014D000D06AADCEDC2FCC27C06FD06AA8CE8C2FBF
:1014E0008F700E94690B94E0D695C7959A95E1F7A5
:1014F000CF70DC2FC82FD0699ACEC0E0D5ED97CE43
:10150000C0E0D2ED94CEC0E0D1ED91CEC0E0D3EDFD
:101510008ECEC3E8D0E48BCEC2EED4E488CEC9EE42
:10152000D4E485CECAEED4E482CEC5EBD4E47FCE3B
:10153000C6EBD4E47CCEC3EBD4E479CEC4EBD4E4E4
:1015400076CEC7EBD4E473CECCECD4E470CECDEC45
:10155000D4E46DCEC3E8D5E46ACECAE8D5E467CE5C
:10156000C2E9D5E464CEC4E9D5E461CEC1E2D6E4F3
:101570005ECEC3E2D6E45BCEC4E2D6E458CEC5E28A
:10158000D6E455CEC6E2D6E452CEC7E2D6E44FCE7C
:10159000CFE6D4E44CCEC0E7D4E449CECAE2D6E4E8
:1015A00046CE803E910599F1C8F48133910509F446
:1015B00076C048F48932910509F46AC08A329105EF
:1015C00009F474C0089589339105D1F082389105EA
:1015D000B9F08533910509F454C00895843E91050E
:1015E00099F138F4823E9105F9F0833E910509F1B5
:1015F0000895863E910599F1873E9105B9F10895C8
:10160000209184022370A1F080EE90E00895209153
:10161000840220FD52C03091850230FF09C024FFB2
:101620004FC090E080E004C02091840222FDF7CFFB
:1016300008952091840222FD46C03091850230FD3C
:10164000E3CF24FFF5CFEDCF2091850221FFF0CF2E
:101650008091840284FDE5CF87EE90E0089520918B
:10166000840223FFE5CF24FDDCCFF6CF2091840256
:1016700023FD2CC03091850231FFE3CF84EE90E052
:1016800008952091840225FFD3CF89E290E0089548
:101690002091840225FFCCCF85E390E0089520912E
:1016A000840226FFC5CF8AE290E00895209184024B
:1016B00026FFBECF81E390E0089589E390E008958E
:1016C00083EE90E0089582EE90E0089586EE90E03B
:1016D00008959091840292FF06C0282F2871283027
:1016E000F9F4877F846093FF06C0282F2871283182
:1016F000F1F4877E84612091850220FF06C0382F97
:1017000038713830D9F4877F816021FF06C0282FD7
:1017100028712831D1F4877E816194FD877E0895F8
:10172000282F24712430F9F68B7F8860DCCF282F96
:101730002471243101F78B7E8861DDCF382F317120
:10174000313019F78E7F8860E0CF282F2171213149
:1017500021F78E7E8861E1CF08950C94AC0B08953B
:101760000C94AF0B0895E82FF0E0E557FE4F808111
:101770000895CF92DF92EF92FF920F931F93CF9332
:10178000DF9386EC93E00E94C7058BE8E82E81E0AA
:10179000F82ED0E0C0E091ECC92E93E0D92E09EBF1
:1017A00013E0DF93CF93DF92CF920E9460068EEB1F
:1017B00093E00E94C705F70181917F010E9458289C
:1017C0001F928F931F930F930E94600687EB93E005
:1017D0000E94C70521968DB79EB708960FB6F8945C
:1017E0009EBF0FBE8DBFCA30D105D9F6DF91CF9114
:1017F0001F910F91FF90EF90DF90CF900895CF93BE
:10180000DF930E946D0D809100018091000195E0B1
:10181000811190E09093550285E0891B80935402DA
:10182000AFE2B1E061E070E08D91E82FE295EF70FA
:10183000F0E041A18F709B0101C0220F8A95EAF769
:10184000922F9095942391A382A1822B82A381E071
:10185000A433B80749F7A9E2B1E04FE251E0C1E093
:10186000D0E08D91E82FE295EF70F0E061A18F70EC
:101870009E0101C0220F8A95EAF7922F9095962338
:1018800091A382A1822B82A34A175B0751F7EBE851
:10189000F1E085E991E011928E179F07E1F785E06D
:1018A0000E94160DDF91CF910C948C076F927F925E
:1018B0008F929F92AF92BF92CF92DF92EF92FF9260
:1018C0000F931F93CF93DF9326E831E04FE2E42E8E
:1018D00041E0F42E712CCC24C394D12CE9017991F0
:1018E0009E01DE011E92F70181917F01E82FE295B2
:1018F000EF70F0E091A18F70860101C0000F8A9512
:10190000EAF7892F802B81A382A1602E6094862123
:1019100082A380EA8A95F1F799E2A92E91E0B92E87
:1019200050E040E0E50169915E01862E82948FE0EF
:101930008822912CE40188A190E06F7002C09595F7
:1019400087956A95E2F7812C80FD06C04601042E3A
:1019500001C0880C0A94EAF78C91882A8C924F5F18
:101960005F4F46305105F1F681A1862181A382A106
:10197000082B02A381E09C91971301C080E0782A94
:10198000D1E02B383D0709F0A9CF6091550270E0F6
:1019900065577E4F272D45E086E891E00E94170DA0
:1019A000872DDF91CF911F910F91FF90EF90DF90E6
:1019B000CF90BF90AF909F908F907F906F90089541
:1019C000CF930E94560CC82F0E944D0D882311F111
:1019D0008091540290E085579E4F0E94840D8111A2
:1019E00016C0909185019F5F90938501963050F0CD
:1019F000E0915402F0E0E557FE4F1082118212820E
:101A0000138214820E9498078C2FCF910895109210
:101A10008501F8CF8091550290E085579E4F0E9436
:101A2000AD0D0E9485180E94B20BEECF0895FF9273
:101A30000F931F93CF93DF93F82E092F162FD72FD5
:101A4000C42F222349F081E0809397010E94E92965
:101A50009093960180939501809197018823A1F03E
:101A600080919501909196010E94F529069760F06A
:101A7000EF2DF02FA12FBD2FCE0FDF2FD11DEC1793
:101A8000FD0741F410929701DF91CF911F910F91C3
:101A9000FF90089581918D93F2CF809198018111EB
:101AA00010C08091D80080618093D8008AE18A9527
:101AB000F1F700C09091D900917082E0891B80936A
:101AC000980181E090919801913009F080E00895AB
:101AD0000E944D0D91E0892708950E94680D809322
:101AE00000010E944D0D81110C94780D0C947E0D17
:101AF00061E070E081E091E00C94811A61E070E0B7
:101B000081E091E00C94881ACF93DF93D82FC92FEE
:101B10000E94221B9C0180E021153105C9F4ED2FA4
:101B2000FC2FD901A556BE4F8C9181932F5F3F4F5B
:101B300025303105B1F70E941217882361F00E9409
:101B4000741780939A0180EA91E00E94A41881E0C2
:101B5000DF91CF91089580E0F4CFFC0190E080E028
:101B60002191DC01A556BE4F2C930196853091053D
:101B7000B9F780919A010E948B1780EA91E00C944A
:101B80009F18AF92BF92CF92DF92EF92FF920F9386
:101B90001F93CF93DF93362F472FE82FF0E0E75BBB
:101BA000F74F71110EC06491762F862FDF91CF9180
:101BB0001F910F91FF90EF90DF90CF90BF90AF906B
:101BC0000895C72FD0E0249186E0689F700111240A
:101BD0000FEF10E0C701B8010E943532832F90E06B
:101BE000880F991F35E5369FF001379FF00D1124BE
:101BF0008E1B9F0B982F990F980FF801EC1BFD0B74
:101C00002E9FD0012F9FB00D1124EB2F949FA00188
:101C10001124452F55276801C41AD50AA601249F0F
:101C20006001259FD00C11248D2D5801A91AB108EF
:101C3000AC9EA001AD9E500DBC9E500D1124452FB1
:101C40005527041B150B209FA001219F500D112427
:101C500063307105D9F09CEFE91693E0F90668F45A
:101C600061307105B9F062307105C1F09FEFE9167E
:101C7000F10448F48B2FE52F06C06430710589F01C
:101C800066307105B9F36E2F722F90CFED2D822F34
:101C90002B2FF9CFE22F2D2D8B2FF5CF852FE22F74
:101CA000F7CF822F252FEFCF0895CF93DF93982F73
:101CB000762F842FE901692F0E94C10D79836883F3
:101CC0008A83DF91CF91089580915602982F9E7F4D
:101CD00029F4817082608093560208958A34E8F373
:101CE00081708864F8CF88E090E00C9460350F93A1
:101CF0001F93CF93DF938B01D82FC92F0E94640EBF
:101D0000A8016D2F7C2F88E090E0DF91CF911F918B
:101D10000F910C947E35CF93DF9300D000D0CDB7D8
:101D2000DEB7E6E5F2E083E0808311828FEF828305
:101D30008383148280819181A281B38189839A8374
:101D4000AB83BC83BC01CD010F900F900F900F901F
:101D5000DF91CF910C94770E8091440280FF76C082
:101D60008AE996E09F938F930E94600680914402D7
:101D70000F900F9080FF6AC08091560281701F9271
:101D80008F938DE796E09F938F930E9460068091DA
:101D900044020F900F900F900F9080FF57C08091DA
:101DA000560286951F928F9382E696E09F938F93BB
:101DB0000E946006809144020F900F900F900F9048
:101DC00080FF44C0809157021F928F9388E496E071
:101DD0009F938F930E946006809144020F900F9012
:101DE0000F900F9080FF32C0809158021F928F9306
:101DF0008EE296E09F938F930E946006809144024A
:101E00000F900F900F900F9080FF20C0809159028B
:101E10001F928F9384E196E09F938F930E946006B8
:101E2000809144020F900F900F900F9080FF0EC092
:101E300080915A021F928F9388EF95E09F938F9322
:101E40000E9460060F900F900F900F900895809160
:101E5000560280FF02C08695089580E00895CF93D2
:101E6000DF9300D000D0CDB7DEB780915A02833027
:101E700018F48F5F80935A02809156029091570216
:101E8000A0915802B091590289839A83AB83BC8395
:101E9000BC01CD010F900F900F900F90DF91CF916B
:101EA0000C94770ECF93DF9300D000D0CDB7DEB780
:101EB00080915A02882319F0815080935A028091B0
:101EC000560290915702A0915802B091590289830D
:101ED0009A83AB83BC83BC01CD010F900F900F9010
:101EE0000F90DF91CF910C94770E60910D0170E00F
:101EF0008091560280FF0AC08091A50123E0829F55
:101F0000C0011124855A9D4F0C943B188091A40167
:101F100090910C0123E0829FF0011124E55AFD4FBE
:101F2000891750F71182108212828F5F3396F8CF93
:101F30009091560290FF14C09091A40120910C0141
:101F400033E0939FF0011124E55AFD4F921710F0F2
:101F50000C94750F8183608342839F5F3396F6CF25
:101F60000895CF93DF9300D00F92CDB7DEB7909155
:101F7000560290FF0AC09E012F5F3F4F0E94550EF0
:101F80004B8169818A810E94980F0F900F900F906A
:101F9000DF91CF910895CF93DF93EC01EC81F0E0D6
:101FA000EB53F94F4491E6E5F2E0628181810E94B2
:101FB000B10F8C818F5F8C83DF91CF910895CF9388
:101FC000DF93EC01E6E5F2E0438162818C810E94BF
:101FD000B10F8C818F5F8C83DF91CF9108950F9328
:101FE0001F93CF93DF9300D00F92CDB7DEB78C0154
:101FF0008091A10181110AC09E012F5F3F4F4FEFD9
:102000006FEF0E94550E8A818093A101F8016481CF
:10201000613049F06230F1F08091A10140E0662327
:1020200031F040E019C06091A10140E080E00E94E1
:10203000980FF801848190E0019663E070E00E94BF
:10204000493284830F900F900F90DF91CF911F91B1
:102050000F9108954091A10180E060E0E8CF4F9298
:102060005F926F927F928F929F92AF92BF92CF9228
:10207000DF92EF92FF920F931F93CF93DF9300D0E5
:1020800000D000D00F92CDB7DEB7182FF62E042F58
:10209000E22E9091560290FF4CC0E92FE695AE2FAC
:1020A000B0E0A75CBE4F8C918093AD019E7F9230D3
:1020B00009F056C09E012F5F3F4F812F0E94550EA1
:1020C0004B8169818A810E94980F10935702F09288
:1020D000580200935902EE2009F4A2C080915602E2
:1020E00090915702A0915802B09159028C839D8320
:1020F000AE83BF83BC01CD010E94770E8091440264
:1021000080FF17C0809159021F928F9380915802CF
:102110001F928F93809157021F928F938EE294E0CB
:102120009F938F930E9460060FB6F894DEBF0FBE98
:10213000CDBF27960FB6F894DEBF0FBECDBFDF919F
:10214000CF911F910F91FF90EF90DF90CF90BF90B4
:10215000AF909F908F907F906F905F904F90089579
:10216000823019F400915902B0CF863019F41091E1
:102170005702ABCF8930D9F3893109F0A6CFE951A5
:102180008E2F8170682E81E0762C7826E695F0E01F
:10219000EB53F84FC590D490512CDD2493E5892E54
:1021A00094E0992E60910B01561618F00E94750F5D
:1021B0008CCFA52CB12C5C9CC0015D9C900D112492
:1021C00070E00E943532412E611028C0460E809189
:1021D000440280FF11C0DF92CF921F927F921F9224
:1021E0004F921F925F929F928F920E9460060FB64D
:1021F000F894DEBF0FBECDBF2091A401A20EB11C8A
:102200009501220F331F2A0D3B1D255A3D4F402FAC
:102210006F2D842D0E94550E5394C4CF461AD7CFEC
:102220008091440280FF85CF1F920F931F92FF92EF
:102230001F921F9387E094E073CF282FE6E5F2E02A
:10224000818143816281885F0C942F1081E00C941E
:102250001D11282FE6E5F2E08181438162818850DB
:102260000C942F1081E00C942911282FE6E5F2E060
:10227000628138E0630F08F46FEF438181810C9431
:102280002F1081E00C943511282FE6E5F2E06281F1
:1022900038E0631B08F460E0438181810C942F10C7
:1022A00081E00C944411282FE6E5F2E0438138E008
:1022B000430F08F44FEF628181810C942F1081E06D
:1022C0000C945311282FE6E5F2E0438138E0431BDC
:1022D00008F440E0628181810C942F1081E00C941D
:1022E000621120E00C942F10EF92FF921F93CF9376
:1022F000DF93EC0110E0EE24EA94F12C60910B01E5
:10230000161770F00E94750F9A818C8190FF27C07C
:102310008F5F8C83DF91CF911F91FF90EF90089595
:102320002091A401422F410F5527551FCA019A0140
:10233000220F331F280F391F255A3D4F70E0C70168
:102340000E944932962F8C81409159026091580227
:10235000199F800D11240E94550E1F5FCFCF815011
:10236000D8CFBF92CF92DF92EF92FF920F931F933D
:10237000CF93DF93FC0182810FEF80FF01E010E03B
:1023800080910B011817C0F00E94750F8091A30176
:10239000013009F054C0811102C080910B018150BD
:1023A0008093A301DF91CF911F910F91FF90EF9048
:1023B000DF90CF90BF900895C091A401C12ED12C81
:1023C000CC0DDD2DD11DCE01880F991FC80FD91F4F
:1023D000C55ADD4F198218821A8234E0E32EF12C9F
:1023E000B12C8091A3018B0D8D301CF16CE00E940B
:1023F0002732892F082E000C990BC816D90691F4A4
:10240000809159028E9DA0018F9D500D11245595EC
:102410004795559547959E016091580280915702C6
:102420000E94550EB00EF1E0EF1AF108D1F61F5FD1
:10243000A7CF87FFDFCF90910B01890FDBCF90E013
:10244000019660910B0170E00E944932A9CF0F9371
:102450001F93CF93DF938091A40190910C0123E00F
:10246000829FF0011124E55AFD4F891740F1C0E029
:10247000D3E060910B01C61740F10E94750F2091C7
:1024800009018091A201820F8093A20190910A011B
:10249000920F90930A01191654F4082E000C990B10
:1024A00040910B014150550B841795071CF0219565
:1024B00020930901DF91CF911F910F91089511820F
:1024C000108212828F5F3396D0CF0C2F10E070E015
:1024D000C8010E9449322091A401820F482F50E088
:1024E0002091A201022E000C330B02171307BCF03F
:1024F00020910A01022E000C330B201731077CF0CB
:102500008D9F90011124255A3D4F409159026091B1
:102510005802809157020E94550ECF5FAACFFA0150
:10252000EE0FFF1FE40FF51FE55AFD4F11821082D9
:102530001282F3CF0F931F93CF93DF938C01FC0193
:102540008481958101968170992795838483C0E069
:10255000D5E580910B01C81730F0DF91CF911F9125
:102560000F910C94750F2091A401422F4C0F552709
:10257000551FCA019A01220F331F280F391F255AF0
:102580003D4F8C2F8695F80144815581840F952FFE
:10259000911D817040915902609158028D9F802D4C
:1025A00011240E94550ECF5FD4CF0F931F93CF936A
:1025B000DF93EC0110E000E090910B019017110601
:1025C00009F06CF40E94750F8C8190E00196817087
:1025D00099278C83DF91CF911F910F9108952091BE
:1025E000A401A801420F511D9A01220F331F240F8D
:1025F000351F255A3D4F4C816091580280915702FA
:1026000096959017110651F04CF0442349F04091F3
:1026100059020E94550E0F5F1F4FCECF4423B9F3CE
:1026200040E0F7CF60915602669570E04BE050E0D5
:102630008EE091E00E949F32892B19F481E0809313
:10264000AE010E94E9299093A7018093A601809191
:10265000440280FF08C08EEE93E09F938F930E9408
:1026600060060F900F9008951092AE018091440281
:1026700080FF08C085ED93E09F938F930E946006D2
:102680000F900F900895CF93DF9300D000D0CDB777
:10269000DEB79091560290FF61C09170811148C0E1
:1026A000926090935602662309F449C080915602C5
:1026B00090915702A0915802B091590289839A8350
:1026C000AB83BC83BC01CD010E94770E8091440294
:1026D00080FF0FC08091560286951F928F938EE3E4
:1026E00095E09F938F930E9460060F900F900F903C
:1026F0000F9060915602669570E04BE050E08EE0DE
:1027000091E00E949F32892B31F10E94341381E0C5
:102710008093A9014091590260915802809157021B
:102720000F900F900F900F90DF91CF910C9471113B
:10273000853210F09864B5CF880F982BB2CF809176
:10274000440280FFD6CF8091560286951F928F93C8
:1027500080E295E0C6CF0E941213D9CF0F900F9060
:102760000F900F90DF91CF910895682F80915602BE
:1027700086958F5F853208F081E00C94431381E0E9
:102780000C94B513682F9091560296958FEF890F90
:10279000913009F484E20C94431381E00C94C21349
:1027A00061E00C944313809156028160809356023D
:1027B0008091440280FF0DC01F9281E08F9382EBD5
:1027C00094E09F938F930E9460060F900F900F905C
:1027D0000F908091560286950C94D01360E00C9473
:1027E00043138091AC01811160C08091440280FF4D
:1027F00014C081EE95E09F938F930E9460068091B4
:1028000044020F900F9080FF08C08BEC95E09F93DF
:102810008F930E9460060F900F900E946C28811188
:1028200010C08091440280FF08C083EA95E09F9326
:102830008F930E9460060F900F900E9412290E94B1
:102840008B0E0E94730E6093560270935702809312
:102850005802909359026E7FC1F48091440280FF28
:1028600008C08AE595E09F938F930E9460060F90C1
:102870000F900E948B0E0E94730E6093560270930D
:10288000570280935802909359020E94640E0E944E
:10289000AC0E1092AE018091560280FF03C0869567
:1028A0000E94EE1381E08093AC010895CF93DF93F3
:1028B00000D000D0CDB7DEB7809156028E7F8093D6
:1028C00056028091560290915702A0915802B09101
:1028D000590289839A83AB83BC83BC01CD010E94DA
:1028E000770E8091440280FF0FC080915602817064
:1028F0001F928F938AE794E09F938F930E946006C4
:102900000F900F900F900F900E9434139FEFA0E74D
:10291000B2E09150A040B040E1F700C000000F903D
:102920000F900F900F90DF91CF910C94750F8091C5
:10293000440280FF10C080915602809581701F92E2
:102940008F9389EE94E09F938F930E9460060F907F
:102950000F900F900F908091560280FD0C945614AA
:102960000C94D3130F931F93CF93DF938091AE01F9
:10297000882309F48DC08091AD01E0915602E6955F
:10298000E81BE093A8018230C9F5F0E0EF53F94F5E
:10299000E491CE2FD0E00BEC1FE08091A9018823B9
:1029A00089F01092A9010E94E9299E012095309595
:1029B000280F391F3093A7012093A6011092AB0175
:1029C0001092AA018091A6019091A7010E94F52979
:1029D0008C179D0708F45CC0E091A601F091A70157
:1029E000CE0FDF1FD093A701C093A60186EA91E026
:1029F000F801DF91CF911F910F910994863049F42E
:102A0000F0E0E254F94FE491CE2FD0E00FED1FE05B
:102A1000C4CF893051F4E695F0E0E554F94FE491E4
:102A2000CE2FD0E004E711E1B8CF8F3051F4E69516
:102A3000F0E0E854F94FE491CE2FD0E001EB11E142
:102A4000ACCF853149F4F0E0EB54F94FE491CE2F4F
:102A5000D0E007E212E1A1CFC8EED3E00AE912E12B
:102A6000883109F49ACF833239F4E3EBF6E0C5916B
:102A7000D4910FEE1FE091CFC4EFD1E005ED12E14C
:102A8000843209F48ACFC0EDD7E004E51EE085CF9B
:102A9000DF91CF911F910F9108950F931F93CF93C3
:102AA000DF93CDB7DEB728970FB6F894DEBF0FBE21
:102AB000CDBF80911A018F93809119018F938EE57C
:102AC00091E09F938F931F9288E08F938E010F5F09
:102AD0001F4F1F930F930E94AC32C8010E948907B9
:102AE0000FB6F894DEBF0FBECDBF28960FB6F89490
:102AF000DEBF0FBECDBFDF91CF911F910F91089523
:102B0000CF93DF93D82FC92F0E94E9299093B20168
:102B10008093B101D093AF01C093B001DF91CF9109
:102B200008958091AF019091B001892BE1F08091DF
:102B3000B1019091B2010E94F529209119013091C3
:102B40001A012817390780F48091AF019091B001E4
:102B500092600E94D9061092B2011092B1011092B7
:102B6000B0011092AF0108958091AF010E94651EDF
:102B7000F2CF10921B010C94911580911B018823B8
:102B800021F010921B010C94911581E080931B01A0
:102B900008951F93CF93DF93EC01FB011281112362
:102BA00009F464C089319C4509F456C0CA318CE5EA
:102BB000D807B0F5C731ECE5DE0709F43FC08091D6
:102BC000190190911A010597C831FCE5DF07D9F189
:102BD000C933D10508F5CD32D10530F4C832D1055D
:102BE000A8F4C430D105A8F00E94911580911B0172
:102BF000882369F10E94A127811129C0CE010E947A
:102C0000801582E00E943B2810E021C0CB32D10524
:102C100059F30E9491151BC0C436D10529F3F9CF91
:102C2000CB318CE5D807D9F0CC31ECE5DE07D9F013
:102C3000CA31DC4571F70E94BD1509C080911901A8
:102C400090911A01059690931A0180931901812F92
:102C5000DF91CF911F9108950E944D15F8CF81E02B
:102C600080931B01F4CF0E94B915F1CF0E949115FA
:102C700011E0EDCF0E946C28811102C00E94122940
:102C80000E949A2880937F02803320F087708862A8
:102C900080937F0290917F02892F817090FF04C002
:102CA000892F8695869586950C948B1780917F0247
:102CB000982F969596959695883240F49F5F990F38
:102CC000990F990F8770892B80937F0280917F02E3
:102CD000816080937F020E949E288091440280FF41
:102CE00011C080917F028695869586951F928F935D
:102CF00081E398E09F938F930E9460060F900F905E
:102D00000F900F9080917F028695869586950C9402
:102D10008B1780917F02982F987F79F0885080934D
:102D20007F02887F91E009F490E080917F0290FB20
:102D300080F980937F020E949E288091440280FF48
:102D400011C080917F028695869586951F928F93FC
:102D500089E198E09F938F930E9460060F900F90F7
:102D60000F900F9080917F028695869586950C94A2
:102D70008B1780917F0280FD1FC0816080937F024E
:102D8000813019F489E080937F0280917F020E9454
:102D90009E288091440280FF08C081EF97E09F93B6
:102DA0008F930E9460060F900F9080917F0286950E
:102DB000869586950C948B17089580917F0280FFED
:102DC00014C08E7F80937F020E949E2880914402CF
:102DD00080FF08C08EED97E09F938F930E9460065E
:102DE0000F900F9080E00C948B170895CF93C091B3
:102DF0007F02C1708091440280FF0CC01F92CF936C
:102E000083E098E09F938F930E9460060F900F904D
:102E10000F900F90CC2319F0CF910C94DD16CF9129
:102E20000C94B91680917F028170089590917F0271
:102E3000892F8695869586958F5F8F7197708630DE
:102E400080F5880F880F880F892B80937F028091EF
:102E50007F02887F91E009F490E080917F0290FBEF
:102E600080F980937F020E949E288091440280FF17
:102E700011C080917F028695869586951F928F93CB
:102E80008AEC97E09F938F930E9460060F900F90BB
:102E90000F900F9080917F028695869586950C9471
:102EA0008B1790937F02D3CF863008F085E0982F60
:102EB000990F990F990F80917F028770892B8093CA
:102EC0007F02887F91E009F490E080917F0290FB7F
:102ED00080F980937F020E949E2880917F028695D0
:102EE000869586950C948B1780917F0286958695A2
:102EF00086950895E82FE295EF70F0E032A1282F33
:102F00002F7081E090E001C0880F2A95EAF7809544
:102F1000832382A30895CF93DF93CDB7DEB728979D
:102F20000FB6F894DEBF0FBECDBF863048F58111D5
:102F300028C0909180009F7790938000282F30E0E8
:102F4000AFEFBFEF0E94853225E030E040E050E077
:102F50000E945D32C9012C3764E13607B0F469E0A4
:102F600070E00E9435327093890060938800289643
:102F70000FB6F894DEBF0FBECDBFDF91CF9108959D
:102F800085E0909180009068D7CF2A50374D4F4F01
:102F90005F4FB42FA32F922F8827BC01CD0125EFBF
:102FA00038E241E050E00E945D3229833A834B834E
:102FB0005C83CA01B9010E940B329B01AC0169819B
:102FC0007A818B819C810E940B32BB27A92F982F7D
:102FD000872FBC010097A140B10529F66FEF7FEF65
:102FE000C2CF0895259A85E30E947A1782E88093DC
:102FF000800089E1809381008FEF9FEF909387009D
:10300000809386000C943A169C01CB016BB1542F2F
:10301000509556236BB1462B6FB7F894820F931FD0
:103020002817390711F46FBF0895F90171919F01B5
:10303000E8E04BB9000000C077FF5BB9770F0000F4
:1030400000C000C000C05BB900C0EA9591F7E8CFAE
:10305000FC019AB1942B9AB99B01220F331F620F86
:10306000731FCF010E94041887EC90E00197F1F7DD
:1030700000C00000089548E00C9428180C946906DC
:103080001F93CF93DF93182FC82F880FDD0B6F701E
:10309000E62FF0E0ED59FE4FCB54DE4F8081988152
:1030A000890F8883843024F060E0812F0E943E18CD
:1030B00088818D3F24F461E0812F0E943E18988121
:1030C000892F837897FF03C081508C6F8F5F88832F
:1030D000DF91CF911F91089584988C9A85988D9A4D
:1030E0008FB1829581707D990EC090E0892B80937D
:1030F000B7019091000181E098279093B401891B5A
:103100008093B301089592E0F1CF6091B701660F0B
:10311000660F6093B7014FB144FB882780F94FB128
:1031200045FB222720F945FF02C022E030E0822B38
:10313000682B6093B7018091B4010C9440182091E2
:10314000B701FC0120830895FC0160818091B301E7
:103150000C9440180F931F93CF93DF93C62FD42F57
:10316000022FFC0182818823C9F06093BA010E947A
:10317000E9299093B9018093B80180E28C0F8830DF
:1031800008F050C0C77081E001C0880FCA95EAF707
:10319000DF91CF911F910F910C94781E1091BA017D
:1031A000161335C08091B8019091B9010E94F5299C
:1031B000883C910560F5C0E2CD0F1D17B9F080E2A3
:1031C000810F883040F4177081E001C0880F1A9594
:1031D000EAF70E947F1EC83048F481E09D2F977067
:1031E00001C0880F9A95EAF70E94781E802F0E94EE
:1031F000651EC830B8F4D77081E001C0880FDA9539
:10320000EAF7DF91CF911F910F910C947F1E80E21E
:103210008C0F883038F4C77081E001C0880FCA95E0
:10322000EAF7EFCFDF91CF911F910F9108959C01A5
:10323000CB01233F4CE5340769F190F4283DFCE5D0
:103240003F0721F1293D4CE5340781F1273D3C45FD
:10325000B1F0FC018281882361F11092BA010895D6
:10326000253FFCE53F07D1F0263F4CE53407D1F080
:10327000243F3C4571F727E245EE64EE03C026E2A9
:1032800041EE61EE0E94AA1880E0089527E245EE23
:1032900065EEF8CF26E241EE60EEF4CF26E241EE95
:1032A00062EEF0CF27E245EE66EEECCF28E241E099
:1032B000EFCF81E008951F93CF93DF93EC01FB01E3
:1032C0001281112309F4BCC00E947F2890938502CB
:1032D00080938402C631FCE5DF07B0F4C2308CE590
:1032E000D80728F4812FDF91CF911F910895FE0117
:1032F000E350FC45809184028160E331F10588F45C
:10330000E351FA4C0C947F32CA5FDC45C930D105D9
:1033100048F7C050DA4CFE010C947F328091840251
:1033200082608093840280918402909185020E9441
:103330008D280E943E2110E0D5CF809184028460C8
:10334000F0CF809184028860ECCF8091850281600B
:1033500080938502E8CF809185028260F9CF8091C9
:1033600084028061DECF809184028062DACF809116
:1033700084028064D6CF0E943E21809184028068BE
:10338000D0CF809184028C60CCCF80918502836005
:10339000DFCF809184028E7FC4CF809184028D7FA5
:1033A000C0CF809184028B7FBCCF80918402877FC5
:1033B000B8CF809185028E7FCBCF809185028D7FA3
:1033C000C7CF809184028F7EACCF809184028F7DA5
:1033D000A8CF809184028F7BA4CF0E943E21809150
:1033E00084028F779ECF80918402837F9ACF8091D1
:1033F00085028C7FADCF8091840282FB992790F962
:1034000021E0922790FB82F990FB83F98ACF80918B
:103410008502982F909591708E7F892B90FB81F972
:1034200097CF0E943E2190918402892F97FB87F9C4
:10343000805877CF81E00E94142975CF80E0FBCFC0
:1034400011E050CF8EE1489B02C08150E1F7489BCC
:10345000FECF0895589880E28A95F1F7589A08951A
:10346000FC013BE03A95F1F798E020E080E031E0A4
:1034700040E14A95F1F7880F489B02C081602327FD
:1034800042E04A95F1F7000040E14A95F1F791508A
:1034900079F790E19A95F1F799B132E03A95F1F721
:1034A000000040E14A95F1F7917092272081920F38
:1034B00090830895EF92FF920F931F93CF93DF9322
:1034C0000F92CDB7DEB719828C017C01E60EF11C9C
:1034D0000E151F0561F481E09981911180E00F9034
:1034E000DF91CF911F910F91FF90EF9008950E946F
:1034F000221ACE0101960E94301AF80181938F01A1
:10350000E7CF9093BC018093BB01509A589A0895DD
:103510009093BC018093BB015098589AE89AE9E6D1
:10352000F0E080818C7F808308956150770B91E07B
:1035300001C0990F6A95EAF720E031E0911108C0C7
:10354000222391F0589A80E28A95F1F758980895CD
:10355000492F482339F0589A232740E24A95F1F73A
:103560009695ECCF5898F9CF5898EDCFFF920F93DE
:103570001F93CF93DF93EC018C01060F111DC01731
:10358000D10731F4DF91CF911F910F91FF900895F2
:10359000F9900E942A1A68E08F2D0E94951AEFCFA9
:1035A0001F920F920FB60F9211242F933F934F93B8
:1035B0005F936F937F938F939F93AF93BF93CF93BB
:1035C000DF93EF93FF935898509AC091BB01D0912D
:1035D000BC016D81662321F08E819F810E94B61A05
:1035E0000E942A1A80E18A95F1F758985098589AC3
:1035F00080E18A95F1F76A81662309F18B819C81CC
:103600000E945A1AE881F981882311F088E001C0EC
:1036100082E080830E94221AFF91EF91DF91CF9187
:10362000BF91AF919F918F917F916F915F914F91DA
:103630003F912F910F900FBE0F901F901895E8812A
:10364000F981E4CFCF93DF93C091BB01D091BC014E
:10365000F894509A589885E08A95F1F700005098B0
:10366000589A80E28A95F1F7489B0CC0509A589A74
:10367000E881F98181E08083789481E090E0DF91B6
:10368000CF9108956D81662381F08E819F810E9484
:103690005A1A81110AC0509A589AE881F98182E039
:1036A0008083789482E090E0EACF0E94221A80E240
:1036B0008A95F1F75898509A80E18A95F1F76A81D6
:1036C000662321F08B819C810E94B61A0E942A1ADF
:1036D000E881F9811082789490E080E0D0CF9093D7
:1036E000C2018093C1010895E091C101F091C2012E
:1036F000309721F00190F081E02D099480E0089549
:10370000EF92FF920F931F93CF93DF938C01E09181
:10371000C101F091C2013097C1F10280F381E02D27
:1037200009958091440282FF30C080FF04C081E58A
:1037300099E00E94C705D0E0C0E08BE4E82E89E064
:10374000F82E8091440280FF0EC0F801EC0FFD1F9F
:1037500080811F928F93FF92EF920E9460060F90DC
:103760000F900F900F902196C830D10551F780919E
:10377000440280FF0AC089E499E0DF91CF911F9154
:103780000F91FF90EF900C94C705DF91CF911F919F
:103790000F91FF90EF9008952091BF013091C001EB
:1037A0002817390771F09093C0018093BF01E09111
:1037B000C101F091C201309721F00680F781E02D20
:1037C000099408952091BD013091BE012817390751
:1037D00071F09093BE018093BD01E091C101F09121
:1037E000C201309721F00084F185E02D09940895FD
:1037F00085B7806885BF85B7806885BF08950895BF
:1038000008950C94FF1B08950C94031C0E94F81B50
:103810000E94001C0C94011C0E94E0290E94FF0BD6
:103820000E944F2A0E943A160E94F1130C94041C25
:10383000CF93C82F8091440282FF1EC080FF1CC01E
:103840008AE699E00E94C7058091440280FF14C077
:103850001F92CF9385E699E09F938F930E94600615
:10386000809144020F900F900F900F9080FF04C042
:1038700083E699E00E94C7058C2FCF910C94A50791
:10388000BF92CF92DF92EF92FF920F931F93CF934D
:10389000DF9300D000D00F92CDB7DEB70E94E00CCE
:1038A0000E944D0D882309F470C084ECC82E81E07D
:1038B000D82E10E000E0E02E802F0E94B30BB82E2F
:1038C000F601F1906F01F81609F459C08091440295
:1038D00081FD0E94B90B30E020E0FB244F2D50E029
:1038E000922FBA01022E02C0759567950A94E2F7ED
:1038F00060FF3FC02983EA8221E030E0790102C005
:10390000EE0CFF1C9A95E2F72B2D30E02E213F2183
:1039100081E0232B09F480E08B830E94E9298160F8
:10392000782F9D838C8349815A816B818D810E9480
:10393000E51CF801EC53FE4F80818E2580830E94A8
:10394000741B9091C301891789F10E94741B8093A5
:10395000C3010F900F900F900F900F90DF91CF91B8
:103960001F910F91FF90EF90DF90CF90BF900C943C
:10397000181C2F5F3F4F2630310509F0B1CF0F5F84
:103980001F4F0A30110509F096CF8FEF89838A8384
:103990001B820E94E9298160782F9D838C83498155
:1039A0005A816B818D810E94E51CC9CF0F900F90C9
:1039B0000F900F900F90DF91CF911F910F91FF907B
:1039C000EF90DF90CF90BF900895CF93DF93CDB766
:1039D000DEB72B970FB6F894DEBF0FBECDBF4F8377
:1039E000588769877A878B871E8285E0FE01379624
:1039F000DE01119601900D928A95E1F749815A8175
:103A00006B817C818D819E812B960FB6F894DEBFF1
:103A10000FBECDBFDF91CF910C94C123FC018081FB
:103A200091810C944627882309F4FFC08238B9F4A9
:103A30000E94741B81FDF9C089E30E947C270E94CB
:103A4000F0272FEF81EE94E0215080409040E1F785
:103A500000C0000089E30E9483270C94F02783387C
:103A6000A1F40E94741B80FDE0C083E50E947C27C6
:103A70000E94F0272FEF81EE94E02150804090408B
:103A8000E1F700C0000083E5E6CF8438A1F40E948E
:103A9000741B82FDCAC087E40E947C270E94F02725
:103AA0002FEF81EE94E0215080409040E1F700C07C
:103AB000000087E4D0CF9CEF980F913A18F40E9451
:103AC0007C27CBCF90E2980F983050F4877091E02C
:103AD00001C0990F8A95EAF7892F0E94A427BDCFCC
:103AE0009BE5980F933070F4853A31F0863A39F0BF
:103AF00083E890E00C94CC1B81E890E0FBCF82E857
:103B000090E0F8CF98E5980F973108F08EC0883A8A
:103B100009F446C0893A09F446C08A3A09F446C015
:103B20008B3A09F446C08C3A09F446C08B3B09F441
:103B300046C08C3B09F446C08D3A09F446C0803B30
:103B400009F446C08E3A09F446C08F3A09F446C0DB
:103B5000813B09F446C0823B09F446C0833B09F42B
:103B600046C0843B09F446C0853B09F446C0863B09
:103B700009F446C0873B09F446C0883B09F446C0B7
:103B8000893B09F446C08D3B09F446C08E3B09F4DD
:103B900046C08A3B09F446C090E080E00C94E21BEA
:103BA00082EE90E0FBCF89EE90E0F8CF8AEE90E0D5
:103BB000F5CF85EB90E0F2CF86EB90E0EFCF83EB93
:103BC00090E0ECCF84EB90E0E9CF87EB90E0E6CF9C
:103BD0008CEC90E0E3CF8DEC90E0E0CF83E891E0D7
:103BE000DDCF8AE891E0DACF82E991E0D7CF84E9AE
:103BF00091E0D4CF81E292E0D1CF83E292E0CECFC8
:103C000084E292E0CBCF85E292E0C8CF86E292E0F8
:103C1000C5CF87E292E0C2CF8FE690E0BFCF80E7CA
:103C200090E0BCCF8AE292E0B9CF0895882309F4EE
:103C30004BC0823871F40E94741B81FF45C089E338
:103C40000E947C270E94F02789E30E9483270C941E
:103C5000F027833859F40E94741B80FF35C083E538
:103C60000E947C270E94F02783E5EFCF843859F427
:103C70000E94741B82FF28C087E40E947C270E9458
:103C8000F02787E4E2CF9CEF980F913AF0F290E2B0
:103C9000980F983050F4877091E001C0990F8A9581
:103CA000EAF7892F0E94AA27D2CF9BE5980F93307D
:103CB00020F490E080E00C94CC1B885A873120F4EB
:103CC00090E080E00C94E21B0895CF93C82F0E94EF
:103CD000131DC93349F42FEF87EE93E02150804044
:103CE0009040E1F700C000008C2FCF910C94161E7D
:103CF000882321F00E94A4270C94F027089588239C
:103D000021F00E94AA270C94F0270895AF92BF9249
:103D1000CF92DF92EF92FF920F931F93CF93DF9397
:103D200000D000D00F92CDB7DEB76C016D837983E0
:103D3000FC01058102950F70128111110E94C327A9
:103D40000E949A27E82E882371F01123B1F08D810B
:103D5000805E883090F082E00E943B280E949A2783
:103D600091E0E82EE926A980A2949FE0A922B12C37
:103D7000F501E75FF94C0C947F32E12CF4CF098117
:103D80000F70F981F07F11F00295007F1123B1F0DF
:103D9000002361F08D81805E883018F02D81211123
:103DA00009C0802F0E94A4270E94F0278D810E94C5
:103DB000131D15C0802F0E94B527F6CF8D810E945C
:103DC000161E002361F08D81805E883018F04D81D1
:103DD000411133C0802F0E94AA270E94F02778E06B
:103DE000A71AB10884E0A816B10420F40E94741B3D
:103DF0000E94A507EE2009F4E7C10E94962780FDE6
:103E0000E3C1F60112820E9490270E949B25C60101
:103E10000E94F4200E9490270F900F900F900F9017
:103E20000F90DF91CF911F910F91FF90EF90DF9056
:103E3000CF90BF90AF900C94CC25802F0E94BB27D1
:103E4000CCCF59815F70F52E6981607F603219F0A7
:103E5000F29480EFF8227D81772369F0713049F187
:103E6000112391F1002351F1F601858180FF9ECF4E
:103E70008F70858323C0112381F0011106C00E9439
:103E8000D7278F290E94781EAACF0130C1F70E9440
:103E9000D7278F290E94DD27A2CF011106C00E94DB
:103EA000E6278F2D0E947F1E9ACF013009F497CF0D
:103EB000F6CF112329F0063008F091CF8F2DE2CFF5
:103EC000053008F08CCFEDCF002359F3FD81F93395
:103ED00049F42FEF47EE53E0215040405040E1F7C6
:103EE00000C000008D810E94161E79CF89818695C1
:103EF0008695837069F0813009F071CF8D81998149
:103F00009370111102C090E080E00E94E21B67CF25
:103F10008D8199819370111102C090E080E00E9420
:103F2000CC1B5DCF8981837009F050C0111157CF30
:103F30004D81429546954770440F440F8D818F7097
:103F400090E0B0E0A0E0042E04C0880F991FAA1FE3
:103F5000BB1F0A94D2F76D8100E010E0980164FF66
:103F60000FC00FE010E020E030E004C0000F111F90
:103F7000221F331F4A95D2F7009510952095309552
:103F800079817695769573707D83B901A801482B68
:103F9000592B6A2B7B2B49835A836B837C835D81EE
:103FA00069817A818B819C81523051F0533059F074
:103FB000513019F00E94112512CF0E94E9240FCF31
:103FC0000E9439250CCF0E94E72409CF8695112342
:103FD00011F089818170882309F401CF4D814295C8
:103FE00046954770440F440F8D818F7090E0B0E08C
:103FF000A0E0042E04C0880F991FAA1FBB1F0A94BB
:10400000D2F76D8100E010E0980164FF0FC00FE06F
:1040100010E020E030E004C0000F111F221F331F0A
:104020004A95D2F70095109520953095798176952F
:10403000769573707D83B901A801482B592B6A2BA3
:104040007B2B49835A836B837C835D8169817A8171
:104050008B819C81523051F0533059F0513019F01E
:104060000E945A26BCCE0E943226B9CE0E948226D9
:10407000B6CE0E946525B3CE69816F706983112326
:1040800029F0862F0E949B258D81FCCE8D810E9478
:104090007F1E89810E94CC25A2CE7D81723FA1F135
:1040A00060F4703FE1F0713F41F1112309F445C024
:1040B00001117CCE89818F7124C08D81833F49F1AC
:1040C000843F99F7112379F199819F719983892F01
:1040D0000E949B2563E089810E94262880CE1123BF
:1040E00041F0053008F07BCE89818F710E94012656
:1040F00076CE063008F073CEF7CF89818F71112309
:1041000049F20E949B256BCE89818F711123C9F3DF
:10411000C1CF112329F089818F710E9476255FCE4E
:104120000E9471255CCE81E00E943B28023008F499
:1041300056CE82E00E943B2852CE002361F0ED81F2
:10414000E93309F0CFCEFFEF27EE43E0F1502040F6
:104150004040E1F7C5CE89818F719CCF49814F7076
:104160006D81C6010E94C9080E945B2438CE1111DE
:1041700036CE59815F7059835330D1F048F45130B5
:1041800089F0523091F051112ACE0E94561627CE56
:104190006981643081F080E0653009F020CE0E94B2
:1041A00054171DCE0E9489161ACE0E94F61617CEFD
:1041B0000E94161714CE85E0F2CF49814F706D81B1
:1041C000C6010E94CC080BCE0F900F900F900F905D
:1041D0000F90DF91CF911F910F91FF90EF90DF90A3
:1041E000CF90BF90AF9008950F931F93CF93DF931D
:1041F000EC018B819C81892B29F08881998189230D
:104200008F3F29F4DF91CF911F910F910895CE0137
:104210000E94C3078823B1F3688179818A810E9453
:1042200052278C010E94AA260E94E624B801CE01E2
:10423000DF91CF911F910F910C94861E882321F05E
:104240000E94B5270C94F0270895882321F00E943E
:10425000BB270C94F02708950E94C3270E94D427FF
:104260000E94F02790E080E00E94CC1B90E080E06C
:104270000C94E21B0E948A270C942C210E94B227E6
:104280000C943A21282F892F82958F70903C80F4CE
:104290008A30B0F4843020F4823090F480E00895C5
:1042A0008630E1F781E0283E88F0213FB9F70EC063
:1042B0008C3011F08F3091F793FB882780F90895A7
:1042C00081E0203F39F018F4283E40F70895243F5C
:1042D00029F7FCCF08950E9446270C944221CF93E2
:1042E000DF9300D000D00F92CDB7DEB70F900F90C4
:1042F0000F900F900F90DF91CF910895CF93DF93A0
:1043000000D000D000D0CDB7DEB726960FB6F89417
:10431000DEBF0FBECDBFDF91CF9108951F93CF9326
:10432000DF93E091CF0116E08091D0018E1304C09D
:10433000DF91CF911F910895CE2FD0E01E9FF00105
:104340001124EF52FE4F408151816281738184813B
:1043500095810E947E21FE013196E770E5CF409164
:104360000102509102026091030270910402809157
:104370000502909106020C947E211F93CF93DF9348
:1043800080910602807FC1F4809103028823A1F00E
:104390008091CF01C091D001609101027091020221
:1043A0004091040250910502D62FD723DA01A0953F
:1043B000B09516E0C81304C0DF91CF911F91089506
:1043C00090E04115510511F0DF3F31F401968770FF
:1043D000F1CF2A0F3B1F17C0189FF001199FF00D56
:1043E0001124EF52FE4F21812713F0CF2081261395
:1043F000EDCF22812111EACF2381348124173507A3
:1044000040F3241B350B283C310500F720910602B0
:104410002F7020612093060226E0289FF001299F3B
:10442000F00D1124EA52FE4F80818F7080618083ED
:1044300081E092E00E94F420DF91CF911F910C94D3
:104440008E219F92AF92BF92CF92DF92EF92FF9216
:104450000F931F93CF93DF93CDB7DEB72B970FB694
:10446000F894DEBF0FBECDBF7C0185E0F701DE0111
:10447000179601900D928A95E1F7D7014C9111960C
:104480005C91119712960C91129780910402909171
:104490000502009709F456C12091010230910202F1
:1044A000632F62236F3F09F44DC11396CD90DC90CA
:1044B00090900302992009F405C1C816D90608F4A2
:1044C0003EC0F601E81BF90BCF0111E0883C9105D5
:1044D00008F010E081E0A82E82E0B82E809106025C
:1044E000982F907F112309F4C7C0911180C0102F1D
:1044F00035132AC0241328C0011126C08F70806193
:10450000809306020E94AF21C5010E94F420809191
:104510000602D70115968C93812F2B960FB6F8942F
:10452000DEBF0FBECDBFDF91CF911F910F91FF90E6
:10453000EF90DF90CF90BF90AF909F9008958095BF
:1045400090958C0D9D1DC1CFCD2829F0842F8523FA
:104550008F3F09F013C180E0B82FB170DB2EE091DE
:10456000CF012091D00136E080FD1CC00023A1F2D4
:104570008091060281608093060210E0CDCF8E2FDD
:1045800090E03E9FF0011124EF52FE4F61816513D0
:1045900006C06081641303C062816013E7CFFC0131
:1045A0003196E770E213EBCF4F8358878F81988560
:1045B0000E944627292F22952F70903260F0225FAB
:1045C0002F70223078F49F7051F0F7019581907F21
:1045D00031F4D12C0AC09F7011F08823D1F3805E92
:1045E0008830B8F3C7010E94F4201D2D95CF3513F4
:1045F00015C0241313C0011111C0D70115968C9357
:10460000C7010E94F42086E0F701A1E0B2E001902A
:104610000D928A95E1F70E94AF217ECF4F83588794
:104620008F8198850E946B21882311F1002301F16D
:1046300080910602803270F02091010230910202D6
:104640003A8329831B82DD82CC828E83CE01019640
:104650000E94F42086E0F701A1E0B2E001900D9203
:104660008A95E1F70E94BD210E94AF2111E054CF4D
:10467000C7010E94F420FACF911111C07C2DDB8676
:10468000CA86602F8B850E946F2181E092E00E9494
:10469000F42086E0F50111928A95E9F7BCCF351335
:1046A000BDCF2413BBCF0111B9CFD70115968C9381
:1046B000C7010E94F42086E0F50111928A95E9F77E
:1046C000192D2ACFC816D906C0F0B601681B790B80
:1046D000CB0110E0883C910530F5102F002341F20A
:1046E000351310C024130EC086E0F701A1E0B2E03C
:1046F00001900D928A95E1F70FCF809590958C0DE2
:104700009D1DE7CF4F8358878F8198850E946B212D
:104710008111A0CF80910602816080930602C701BB
:104720000E94F420F9CE7C2DDB86CA86602F8B8513
:104730000E946F2186E0E1E0F2E0DF011D928A95A0
:10474000E9F769CF002309F493CF4F8358878F810E
:1047500098850E946B21182F882309F489CF86E061
:10476000F701A1E0B2E001900D928A95E1F781E0B6
:1047700092E00E940E1D0E94BD214DCF81E0802756
:10478000EBCE1F93CF93DF93CDB7DEB72C970FB649
:10479000F894DEBF0FBECDBF4F83588769877A87F5
:1047A0008B879C87CE0107960E942122882369F07F
:1047B0008A859B85892B39F04F815885842F8523E5
:1047C0008F3F09F071C016E05FC086E0FE013796AA
:1047D000DE01119601900D928A95E1F78A859B85FD
:1047E000892B89F388859F8189238F3F61F32091ED
:1047F000D00130E0C9010196877099274091CF011F
:104800004817190671F40E943E211092D0011092AF
:10481000CF0186E0E1E0F2E0DF011D928A95E9F741
:10482000D2CF96E0929FD001939FB00D1124AF524A
:10483000BE4FFE01319601900D929A95E1F780935B
:10484000D0010E948E21BFCF819FC00111248F52C1
:104850009E4F0E9421228823E9F0E091CF011E9F04
:10486000F0011124EF52FE4F40815181628173812A
:10487000848195810E947E218091CF0190E00196F4
:10488000877099278093CF018091CF019091D001BB
:104890008913DACF2C960FB6F894DEBF0FBECDBFCA
:1048A000DF91CF911F91089569857A858B859C85CD
:1048B0000E947E2188CFEF92FF920F931F93CF9398
:1048C000DF938C01892B89F0F12CEE24E394E8012D
:1048D0002196F8018491843709F457C0A0F48230FE
:1048E00009F43EC048F48130D1F0DF91CF911F919F
:1048F0000F91FF90EF9008959CEF980F9037A8F7D5
:104900000E94131D0AC0853709F44CC09CE7980F1C
:10491000903758F78F770E94161E8E0116C00E5FD3
:104920001F4FFE01849190E2980F983060F48770D9
:10493000FE2D01C0FF0F8A95EAF78F2F0E94C62730
:104940000E94F02702C00E94131D8F2D815008F491
:10495000BECFEFE9FFE03197F1F700C00000F6CFDE
:104960000E5F1F4FFE01849190E2980F983050F433
:104970008770FE2D01C0FF0F8A95EAF78F2F0E94E6
:10498000CC27DECF0E94161EE0CF0E5F1F4FFE0128
:10499000C491C150D0F28FE99FE00197F1F700C0B8
:1049A0000000F7CF0E5F1F4FFE01F490CECF0895A9
:1049B0000C94D7240E94D82460933302709334025D
:1049C00080933502909336020C942C2108950C9418
:1049D000DA24CF93DF9300D000D0CDB7DEB7698360
:1049E0007A838B839C838091330290913402A091CF
:1049F0003502B091360229813A814B815C81282BA6
:104A0000392B4A2B5B2B29833A834B835C83CA0166
:104A1000B9010F900F900F900F90DF91CF910C94F0
:104A2000DA24CF93DF9300D000D0CDB7DEB769830F
:104A30007A838B839C838091330290913402A0917E
:104A40003502B091360229813A814B815C8128235D
:104A500039234A235B2329833A834B835C83CA012E
:104A6000B9010F900F900F900F90DF91CF910C94A0
:104A7000DA24CF93DF9300D000D0CDB7DEB76983BF
:104A80007A838B839C838091330290913402A0912E
:104A90003502B091360229813A814B815C81282709
:104AA00039274A275B2729833A834B835C83CA01D2
:104AB000B9010F900F900F900F90DF91CF910C9450
:104AC000DA240C94D7240C9461250E94632560930A
:104AD0002F027093300280933102909332020C9433
:104AE0002C2160E070E0CB010C9465250F931F939F
:104AF000CF93DF9300D000D0CDB7DEB741E050E0D8
:104B000060E070E08A019B0104C0000F111F221FAA
:104B1000331F8A95D2F709831A832B833C83C901FB
:104B2000B8010F900F900F900F90DF91CF911F91D0
:104B30000F910C9465250F931F93CF93DF9300D0B3
:104B400000D0CDB7DEB741E050E060E070E004C0D7
:104B5000440F551F661F771F8A95D2F780912F0249
:104B600090913002A0913102B09132028A019B01F2
:104B7000082B192B2A2B3B2B09831A832B833C836D
:104B8000C901B8010F900F900F900F90DF91CF9156
:104B90001F910F910C9465250F931F93CF93DF9373
:104BA00000D000D0CDB7DEB741E050E060E070E06B
:104BB00004C0440F551F661F771F8A95D2F7409592
:104BC00050956095709580912F0290913002A09140
:104BD0003102B09132028A019B01082319232A2352
:104BE0003B2309831A832B833C83C901B8010F90AF
:104BF0000F900F900F90DF91CF911F910F910C9418
:104C000065250F931F93CF93DF9300D000D0CDB7CE
:104C1000DEB741E050E060E070E004C0440F551F93
:104C2000661F771F8A95D2F780912F0290913002EC
:104C3000A0913102B09132028A019B010827192705
:104C40002A273B2709831A832B833C83C901B80198
:104C50000F900F900F900F90DF91CF911F910F91B8
:104C60000C946525CF93DF9300D000D0CDB7DEB78D
:104C700069837A838B839C8380912F029091300289
:104C8000A0913102B091320229813A814B815C813D
:104C9000282B392B4A2B5B2B29833A834B835C834C
:104CA000CA01B9010F900F900F900F90DF91CF9133
:104CB0000C946525CF93DF9300D000D0CDB7DEB73D
:104CC00069837A838B839C8380912F029091300239
:104CD000A0913102B091320229813A814B815C81ED
:104CE000282339234A235B2329833A834B835C831C
:104CF000CA01B9010F900F900F900F90DF91CF91E3
:104D00000C946525CF93DF9300D000D0CDB7DEB7EC
:104D100069837A838B839C8380912F0290913002E8
:104D2000A0913102B091320229813A814B815C819C
:104D3000282739274A275B2729833A834B835C83BB
:104D4000CA01B9010F900F900F900F90DF91CF9192
:104D50000C9465250895292F220FE22FE90FEE0FFD
:104D6000E80F8E2F877041E001C0440F8A95EAF763
:104D7000E695E695E69585E0E89FF0011124E95F68
:104D8000FD4F30E020E070E05191DF011197CB0141
:104D9000022E02C0969587950A94E2F7817081955C
:104DA0008527842385278C932F5F3F4F253031053E
:104DB00059F70895292F220FE22FE90FEE0FE80F80
:104DC0009E2F9770E695E695E69585E0E89FF001C1
:104DD0001124E95FFD4F50E040E080E0219130E098
:104DE000092E02C0369527950A94E2F721703327E1
:104DF000042E01C0220F0A94EAF7822B4F5F5F4F07
:104E00004530510559F70895BF92CF92DF92EF9246
:104E1000FF920F931F93CF93DF938C01C0902F02CB
:104E2000D0903002E0903102F09032028091330253
:104E300090913402A0913502B0913602C82AD92A45
:104E4000EA2AFB2ACFE1D0E0BC2ED701C6010C2E06
:104E500004C0B695A795979587950A94D2F780FDDB
:104E60000EC0219788F7B12C8B2DDF91CF911F9128
:104E70000F91FF90EF90DF90CF90BF900895B80111
:104E80008C2F0E94E908019761F3EECFCF93DF9357
:104E9000D82FC92F0E9404276D2F7C2FDF91CF912F
:104EA0000C94E9081F93CF93DF93162FD72F90917F
:104EB000CE01992339F0862F972FDF91CF911F9143
:104EC0000C944627882391F0862F972F0E94042761
:104ED000C82F682F812F9D2F0E94AB26612F7D2F19
:104EE0008C2FDF91CF911F910C94E908862F972F7B
:104EF0000E94DA26C82FF2CF682F80911C01909172
:104F00001D010C945429682F80911C0190911D0162
:104F10000C94562980911C0190911D010C945829E4
:104F20008091370285958595859508958091370202
:104F30008770089590913702977081E009F480E0BE
:104F4000089580914302089590914302982B909385
:104F500043020895982F909580914302892380936E
:104F60004302089510924302089590914202982BB3
:104F7000909342020895982F909580914202892340
:104F80008093420208951092420208959091410246
:104F9000982B909341020895982F9095809141020B
:104FA00089238093410208951092410208958091CF
:104FB0003802089508950C94DA27909138029817D2
:104FC00021F0809338020C94DB27089580913802F9
:104FD000882329F01092380280E00C94DB27089592
:104FE000E0911C01F0911D01809143028083E091CA
:104FF0001C01F0911D01808190914202892B8083D8
:10500000E0911C01F0911D01808190914102892B5A
:10501000808390913802992381F0E0911C01F091F6
:105020001D018081892B808380911C0190911D013D
:105030000E94192981110E94E62780911C019091FC
:105040001D010C94801B08950C94232898E0899FDF
:1050500090011124622B609337020E949B2580915E
:1050600037028595859585950C94242810923702F2
:1050700080E00C94242890913702809589238093B6
:105080003702282F277071F4282F082E000C330BBD
:105090009217130639F08595859585950E94CC2544
:1050A0000C9436280895909383018093820108958B
:1050B000829594E0899F900111242C7C8695869599
:1050C0008373282B30E0C901880F991F8A7A3595A0
:1050D00027952575822B089590E080E00E94663523
:1050E0009C0181E02C3E3E4F09F080E0089582E073
:1050F00090E00C94583583E090E00C945835CF93B1
:1051000084E090E00E945835C82F81E290E00E9430
:105110005835982F8C2FCF910895CF93682FC92F92
:1051200084E090E00E946C356C2F81E290E0CF919A
:105130000C946C3586E090E00C945835682F86E02E
:1051400090E00C946C35AB01BC018FE090E00C94C6
:105150007E35AB01BC0183E190E00C947E3560E0CC
:1051600070E0CB010C94A92860E070E0CB010E94B4
:10517000A3280C94AF286CEE7EEF90E080E00E94B4
:105180008A3560E082E090E00E946C3560E083E068
:1051900090E00E946C35109233021092340210920B
:1051A00035021092360260E084E090E00E946C3597
:1051B00060E081E290E00E946C3560E085E090E084
:1051C0000E946C3560E086E090E00E946C356FEFE5
:1051D00087E090E00E946C3540E050E0BA0188E042
:1051E00090E00E947E3560E08DE090E00E946C359A
:1051F00040E050E0BA0188E190E00E947E3560E036
:1052000087E190E00E946C3540E050E0BA018CE10B
:1052100090E00E947E3560E080E290E00E946C3574
:105220000C94B4280C94BB28682F8EE090E00C946A
:105230006C35AC019C012E5F3F4F485F5F4F80E0B3
:105240002417350709F40895F90191919F019923D5
:10525000B9F38F5FF5CF9C01FC0132968FEF90E0A0
:105260004191461751F08F3F19F4411101C0892F28
:105270009F5F9630A9F78F3F09F40895280F311DDD
:1052800087FD3A95F901628308959C01FC013296ED
:10529000285F3F4F8191861303C0DF0111971C9255
:1052A000E217F307B9F708950C942B290C944529BC
:1052B000FC01329686E0DF011D928A95E9F7089598
:1052C000089508950C9461290E94622980918A02B0
:1052D000843061F11092450288E190E020E40FB63D
:1052E000F894A895809360000FBE2093600080E042
:1052F0000E948B1780E00E94A5070E94622983B755
:10530000817F846083BF83B7816083BF78948895F1
:1053100083B78E7F83BF0FB6F894A8958091600005
:10532000886180936000109260000FBE0895089518
:10533000CF930E9460290E94E00C0E949729C0E050
:105340008C2F0E94B30B811105C0CF5FCA30C1F70B
:10535000CF91089581E0FCCF08950C94AC290E9470
:105360003E210E943A160E94741B0E94A5070C94CD
:10537000AD291F921FB61F9211248F939F93AF9355
:10538000BF9380914502811113C08091800290915A
:105390008102A0918202B09183024196A11DB11DAC
:1053A0008093800290938102A0938202B093830243
:1053B000BF91AF919F918F911F901FBE1F90189525
:1053C00082E084BD93E095BD9AEF97BD80936E0017
:1053D00008952FB7F8948091800290918102A09156
:1053E0008202B09183022FBF0895CF92DF92EF9295
:1053F000FF929C014FB7F8948091800290918102B6
:10540000A0918202B09183024FBF6C017D01EE2416
:10541000FF24A90170E060E0C416D506E606F70691
:1054200038F0821B930BFF90EF90DF90CF900895A0
:105430000197F7CF78941F921FB61F9211248F9374
:105440009F93AF93BF938091800290918102A0912E
:105450008202B09183020196A11DB11D809380024A
:1054600090938102A0938202B0938302BF91AF9187
:105470009F918F911F901FBE1F90189587E797E708
:10548000909301088093000888E19AE00FB6F894A1
:10549000A895809360000FBE90936000FFCFCF93DC
:1054A000DF9300D000D0CDB7DEB70E946C28811109
:1054B00002C00E9412290E947728809344020E9411
:1054C0007F2890938502809384020E947B28282F56
:1054D00030E050E040E029833A834B835C83CA018B
:1054E000B9010F900F900F900F90DF91CF910C9416
:1054F000E72480915102089508959FB7F89410927F
:1055000048029FBF90918A02943009F048C02091D0
:10551000E9002F703091EC00932F917030FD90E8EE
:10552000922B23E02093E9002091EB0020FF34C070
:105530002091EE0027FF30C020914602222321F067
:105540002091E80025FF28C01092460226E0309105
:10555000E80035FF14C08093F1008091E80085FDDC
:1055600027C08091E80080FFFCCF8091E8008E7713
:105570008093E8009F709093E90080E00895309157
:105580008A02343049F43091EB0035FD05C02150DA
:1055900041F481E0809346029F709093E9008FEF81
:1055A0000895EFE9FFE03197F1F700C00000CFCF99
:1055B0008FB7F89421E0209348028FBFDBCF0F9381
:1055C0001F93CF93DF9300D00F92CDB7DEB78C013E
:1055D0000E94672D823011F0843021F584E08983A8
:1055E0000A831B8382E08093E9008FEF9091E800AB
:1055F000815095FD06C095ED9A95F1F70000811157
:10560000F5CF8091E80085FF0DC050E040E063E0F9
:1056100070E0CE0101960E94842D8091E8008E7783
:105620008093E8000F900F900F90DF91CF911F9122
:105630000F910895CF93DF9300D00F92CDB7DEB7CF
:105640009C0180918A02843031F583E0898320585F
:1056500031093B832A8382E08093E9008FEF9091A8
:10566000E800815095FD06C095ED9A95F1F7000090
:105670008111F5CF8091E80085FF0DC050E040E03A
:1056800063E070E0CE0101960E94842D8091E800D5
:105690008E778093E8000F900F900F90DF91CF915D
:1056A0000895CF93DF93D82FC92F0E94672D8230A2
:1056B00011F0843049F581E08093E9008FEF9091FB
:1056C000E800815095FD06C095ED9A95F1F7000030
:1056D0008111F5CF8091E80085FF16C050E040E0D1
:1056E00068E070E08D2F9C2F0E94842D8091E8004F
:1056F0008E778093E80088E0ED2FFC2FA9E4B2E0DC
:1057000001900D928A95E1F7DF91CF91089582EA99
:1057100099E00E94C70580918902811109C00E9409
:105720000C2F0E94692F8091E20084608093E20038
:1057300008958EE999E00E94C705109289020895A4
:105740008AE999E00C94C70586E999E00C94C705AD
:1057500082E999E00E94C7050C94AF292091470285
:105760002F5F822F62E30E941B32992319F020934E
:105770004702089510924702809148028823F1F071
:1057800080918A028430C1F49091E9009F70209149
:10579000EC00822F817020FD80E8892B93E09093AC
:1057A000E9009091EB0090FF04C09091EE0097FD0E
:1057B00008C08F708093E9001092480208951092FB
:1057C000F1009091E80095FDFACF9091E80090FFEC
:1057D000F0CF9091E8009E779093E800EACF42E006
:1057E00061EC81E00E94882E42E261EC82E00E943E
:1057F000882E42E261EC83E00C94882E80918C022A
:10580000893089F148F4823009F49DC0833009F46D
:1058100058C0813041F008958A3009F484C08B303B
:1058200009F46AC0089580918B02813A09F048C05A
:105830008091E800877F8093E80080918F029091AB
:105840009002892B61F468E089E492E070E00E94A4
:10585000D32D8091E8008B778093E800089560E075
:1058600090E080E0F3CF80918B02813249F5809106
:105870008F0290919002029718F58091E800877F3F
:105880008093E8008091E80082FF16C09091F300B9
:105890008091F200029729F48091F1008B7F813092
:1058A00021F48091F100809351028091E8008B7780
:1058B0008093E8000C94BC2E80918A028111E2CF83
:1058C000089580918B02813AD9F780918F0290914F
:1058D0009002892BA9F78091E800877F8093E800E8
:1058E0008091E80080FFFCCF809128018093F10037
:1058F0008091E8008E77DCCF80918B02813201F7B6
:1059000080918F0290919002892BD1F68091E800CE
:10591000877F8093E8000E94BC2E80918D02809347
:1059200028010C943E2180918B02813249F68091AE
:10593000E800877F8093E8000E94BC2E80918E0251
:1059400080935202089580918B02813A09F0B8CF7A
:105950008091E800877F8093E8008091E80080FFD5
:10596000FCCF80915202C2CF84B7877F84BF0FB62D
:10597000F894A895809160008861809360001092EF
:1059800060000FBE80E880936100109261000E9469
:10599000061C0E940C2F0E94692F8091E2008460F7
:1059A0008093E2008DE79AE20E94532878940E9447
:1059B000F0310E940C1C8EE191E00E946F1B81E887
:1059C00099E00E94C70580918A02853029F00E94E3
:1059D000401C0E94B214F7CF8DE799E00E94C705E2
:1059E0000E94642980918802882369F30E94982983
:1059F000882349F30E946E2DE6CF0C94FF2CFC0106
:105A0000CB01DA012F2F332723303105D1F070F489
:105A10002130310509F44EC02230310569F48BE59F
:105A200090E02EED39E02D933C930895213231051D
:105A300021F12232310571F190E080E030E020E088
:105A4000F2CFCF019927E230A9F08330910550F4CD
:105A5000009769F0EAECF9E0019771F7849190E022
:105A60009F01E1CFE6EAF9E00397C1F3E5CFEAED64
:105A7000F9E0F4CFECEAF9E0F1CF63307105E0F63C
:105A8000880F991FFC01E458FE4F2081318189E085
:105A900090E0C9CF6330710578F6FB01EE0FFF1F70
:105AA000EA58FE4F208131818D589E4FFC01808144
:105AB00090E0B9CF82E190E029E33AE0B4CF809161
:105AC0008A02843011F482E0089581E00895809183
:105AD0005302811102C00C945F2D089580E189BDAD
