:100000000C9440030C94970E0C9487030C94870374
:100010000C9487030C9487030C9487030C94870338
:100020000C9487030C9487030C943A260C940D27A8
:100030000C94A41D0C9487030C9487030C948703E1
:100040000C9487030C9487030C9487030C94870308
:100050000C9487030C94051E0C9487030C9487035F
:100060000C9487030C9487030C9487030C948703E8
:100070000C9487030C9487030C9487030C948703D8
:100080000C9487030C9487030C9487030C948703C8
:100090000C9487030C9487030C9487030C948703B8
:1000A0000C9487030C9487030C94870329001E008B
:1000B0001F002000210022002B0014001A0008005D
:1000C000150017002A0004001600070009000A00A6
:1000D000D75C1D001B000600190005000000000091
:1000E00000000351E30001512E00270026002500E7
:1000F000240023002D00130012000C0018001C0027
:10010000280034000F000E000D000B00D85C3800F2
:1001100037003600100011000000000000000253FC
:1001200002512C0029001E081F082008210822085F
:100130002B0114081A082900150817082A0802516B
:100140001608060819081B087300040807083A0077
:100150001D081C080000000000000404E30001006A
:100160006F0027012601330231023300700035028F
:100170004F08520050081C01000035004F0051008C
:1001800050004C00720031000A080A0A09082A00CF
:100190000000000000000000E7002C0004091E0C15
:1001A0001F0C3C003D003E007100000000000000FC
:1001B000150A3B000000010000002F0030002B005A
:1001C000D75C1A5C00002F0230021801000000000A
:1001D000000000002C04E3006900430042004100DD
:1001E00040003F006A0044004F0A5202500A0E0AC3
:1001F0006B0045004F02510250026D006C00680018
:100200004F06500604096E000000000000000100C7
:1002100001002C00000000000000000000000000B1
:1002200000000000000000000000000000000000CE
:1002300000000000000000000000000000000000BE
:1002400000000000000000000000010000000000AD
:10025000000000000000000000000000000000009E
:100260003008F0002F08000000000000F300F1004B
:10027000F20000000000000000000000000000008C
:100280000000000000000000F500F4004445425565
:10029000473A2064697361626C65642E0A004445C4
:1002A0004255473A20656E61626C65642E0A000013
:1002B000000000000000002A2B28000000000000C1
:1002C0000000000000000000000029000000002CD9
:1002D0001E3420212224342627252E362D37382778
:1002E0001E1F202122232425263333362E37381F84
:1002F0000405060708090A0B0C0D0E0F1011121346
:100300001415161718191A1B1C1D2F3130232D35E3
:100310000405060708090A0B0C0D0E0F1011121325
:100320001415161718191A1B1C1D2F3130354C00C7
:1003300000000000000000000000000000000000BD
:1003400000000000000000000000000000000000AD
:10035000000000000000000000000000000000009D
:10036000000000000000000000000000000000008D
:10037000000000000000000000000000000000007D
:10038000000000000000000000000000000000006D
:10039000000000000000000000000000000000005D
:1003A000000000000000000000000000000000004D
:1003B000000000000000000000000000000000003D
:1003C000000000000000000000000000000000002D
:1003D0000101010101010001010101000000000013
:1003E0000000000000000000000100010001010108
:1003F00001010101010101010101010101010101ED
:1004000001010101010101010101000000010100E0
:1004100000000000000000000000000000000000DC
:100420000000000000000000000001010101000ABE
:100430000025303862003A200025303258000A7218
:100440002F632030313233343536370A000A002525
:1004500030325820006B6579626F6172645F72653B
:10046000706F72743A20000A0025303258006B65B4
:1004700079626F6172645F7365745F6C65643A2062
:1004800000290A002575002F002575005D2800252C
:1004900064002000256400200025640020002564FD
:1004A000007C0025303258006D6F7573656B65797F
:1004B000205B62746E7C782079207620685D2872DB
:1004C00065702F61636C293A205B005B735D004BA4
:1004D0006579626F6172642073746172742E0A00B0
:1004E0005B575D005B535D005B525D005B445D00EC
:1004F0005B435D000403300000001C0349007200F0
:100500006900730020004B006500790062006F00F5
:1005100061007200640000000E034B00650065007E
:10052000620069006F0000000403090409025B0017
:10053000030100A0FA0904000001030101000921E0
:10054000110100012240000705810308000A090487
:1005500001000103000000092111010001228500B2
:100560000705820320000A090402000203000000BC
:100570000921110100012222000705830320000147
:1005800007050303200001120110010000000810FC
:10059000CB56120002010203010631FF0974A101CA
:1005A0000975150026FF009520750881020976154A
:1005B0000026FF00952075089102C005010902A1DF
:1005C0000185020901A10005091901290515002568
:1005D00001950575018102950175038101050109E8
:1005E0003009311581257F95027508810609381576
:1005F00081257F950175088106050C0A3802158151
:10060000257F950175088106C0C005010980A101FB
:1006100085031A81002A8300160100260300950134
:1006200075108100C0050C0901A10185041A0100A3
:100630002A9C02160100269C02950175108100C0BB
:1006400005010906A101050719E029E715002501A3
:10065000950875018102950175088101050719004A
:1006600029FF150026FF0095067508810005081969
:10067000012905950575019102950175039101C048
:1006800011241FBECFEFDAE0DEBFCDBF04B603FEFC
:1006900027C08091390290913A02A0913B02B0911B
:1006A0003C028730904BA740B04BD1F410923902F6
:1006B00010923A0210923B0210923C0214BE84B790
:1006C000877F84BF0FB6F894A895809160008861F9
:1006D00080936000109260000FBEE0E0F8E309959F
:1006E00011E0A0E0B1E0EAEAF8E502C005900D9261
:1006F000A435B107D9F722E0A4E5B1E001C01D920D
:10070000A933B207E1F70E9465230C941D2C0C94C9
:100710000000FF93EF93E0915401F0915501309761
:1007200009F00995EF91FF910895FC0185918030C2
:1007300011F0EFDFFBCF0895FF27E0E230E247FF43
:100740000CC0419597FF09C0EDE2609570958095CA
:100750009095611D711D811D911D27FF02C021957E
:1007600030E350E2AA27660F771F881F991FAA1F40
:10077000A41710F0A41B63955A95A9F7AA3008F0A6
:10078000A95FA05DAF93F395611571058105910592
:1007900041F7ED3211F4EF93F395F21718F43F930C
:1007A000F395FBCF8F91B5DFFA95E1F70895E991C5
:1007B000F9918591803021F0853219F0AADFF9CFC7
:1007C000089520E0E89455915532C1F3503311F467
:1007D000689455915A3348F4505390F3220F022EE7
:1007E000220F220F200D250FF4CF0EF421958991B1
:1007F0009991533619F3533729F1533559F1BC0107
:1008000088279927E8945C3621F489919991689416
:100810005591543639F446EF7EF077FF0DC08FEFD7
:100820009FEF0AC055374AE039F0583540E121F0D2
:10083000523642E009F00895FF93EF937DDFEF9188
:10084000FF91B7CFFF93EF93FC0181918030B9F313
:1008500060DFFBCFFF93EF9368DFF1CFDF93CF93A0
:10086000CDB7DEB72596A3DFCF91DF9108958091B4
:10087000F30182FF06C08AEA611101C089EA0C9483
:10088000331281FF0FC083EE662341F00E94D41023
:100890008DE20E94331283EE0C94DD110E94D4107D
:1008A0008EE2F7CF8BE46111EACF8EE4E8CFCF93ED
:1008B000DF939C01FB019A9581159F4160F5E90149
:1008C000CC27D170D901AA27B270B90166277470FC
:1008D000A9014427587034FF10C080E1CD2B09F4E2
:1008E00080E0AB2B09F08062672B09F08064452B18
:1008F00009F08068DF91CF91099481E0CD2B09F454
:1009000080E0AB2B09F08260672B09F08460452BF7
:1009100089F38860EFCFDF91CF910895CF93DF9374
:10092000EC01805E9109089720F063E175E1209762
:1009300011F466E472E1CE010E9457048C2FDF911E
:10094000CF910C94D410CF93DF93EC010E94DD1172
:10095000CE01805E9109089720F06AE175E1209749
:1009600011F46DE472E1CE01DF91CF910C94570444
:10097000CF93DF93D82FC92F0E948E048D2F9C2FE9
:10098000DF91CF910C94A30481E0089581E0089554
:100990000C94C6041F93CF93DF9300D000D00F9226
:1009A000CDB7DEB749835A836B8320919201898149
:1009B0009A8121111BC06623A9F00E94FD1A182FED
:1009C000682F89819A810E94A41A69817A81812F76
:1009D0000F900F900F900F900F90DF91CF911F917C
:1009E0000C9416060E94D31A182FEFCF0E94FD1AFE
:1009F00069817A81EDCFFC014081518162817381EF
:100A000084810C94CA041F93CF93DF9390E0FC0180
:100A1000E155FD4F1491FC01E155FC4FD491815DEE
:100A20009C4FFC01C491DD2319F081EE0E94D4108B
:100A3000CC2319F086EE0E94D410812F0E9433122D
:100A4000CC2319F086EE0E94DD11DD2331F081EE1A
:100A5000DF91CF911F910C94DD11DF91CF911F9108
:100A60000895EF92FF921F93CF93DF93EC01162F1F
:100A70008881882339F17E019FEFE91AF90A8130D4
:100A800041F4C9818C2F0E94D4108C2F0E94DD115B
:100A900005C0823079F489810E94D410E701219643
:100AA000812F815028F3EFE9FFE03197F1F700C083
:100AB0000000F7CF833011F48981E8CF0E9403054D
:100AC0007E01ECCFDF91CF911F91FF90EF900895C1
:100AD00060E00C9431050E94651C811102C00E94E7
:100AE000021D0E94C00B0C94CB080E94D90B0C94E1
:100AF000CE0808950C94790581E008950C947C0546
:100B0000CF93C82F0E947A058C2FCF910C947E052D
:100B100008950E9437150E9488052FEF84E39CE01A
:100B2000215080409040E1F700C0000087E797E740
:100B300090930108809300080C94291E0F931F9333
:100B4000CF93DF93EC010E94FB048C01BE010E9455
:100B5000C804882319F1BE01C8010E944D0B8823E7
:100B6000E9F0BE01C8010E94D20C8823B9F0BE0191
:100B7000C8010E94160D882389F08A81882349F1D3
:100B800001308CE5180781F00E3D8CE51807F1F077
:100B900001158CE51807E9F40E94890580E0DF91D2
:100BA000CF911F910F91089590910802892F8E7F08
:100BB00090FF81608093080280FF05C08EE992E07B
:100BC0000E949503EBCF8CE892E0FACF0E94021DC1
:100BD000E5CF06311C45F9F40E949A1B9A819923AE
:100BE00081F08A7A91E009F490E0909356018111A6
:100BF00006C089E20E94751B0E94E91BCFCF85E3E6
:100C0000F9CF80915601811104C089E20E947C1BBA
:100C1000F3CF85E3FBCFCE01DF91CF911F910F91F1
:100C20000C94C40490E080E008950895972F70E03C
:100C300026E0929F600D711D1124FB019CE3899FAA
:100C4000E00DF11D1124EE0FFF1FE455FF4F8591BC
:100C500094910895FC01EE0FFF1FE15DFB4F85911C
:100C600094910895CF93DF930E9416060E94EF0798
:100C7000EC01811520E5920708F0A3C0811530E44E
:100C8000930708F012C1803E910508F079C0803CBE
:100C9000910508F0FEC0883A910580F4853A9105E7
:100CA00008F0ECC08130910509F47BC00497813ACB
:100CB000910508F476C0D0E0C0E073C08F3B910589
:100CC000D1F3883A910509F445C1893A910509F4AF
:100CD00044C18A3A910509F443C18B3A910509F45C
:100CE00042C18C3A910509F441C18B3B910509F44D
:100CF00040C18C3B910509F43FC18D3A910509F43F
:100D00003EC1803B910509F43DC18E3A910509F43D
:100D10003CC18F3A910509F43BC1813B910509F42F
:100D20003AC1823B910509F439C1833B910509F42D
:100D300038C1843B910509F437C1853B910509F41D
:100D400036C1863B910509F435C1873B910509F40D
:100D500034C1883B910509F433C1893B910509F4FD
:100D600032C18D3B910509F431C18E3B910509F4E7
:100D700030C18A3B910509F42FC1C0E0D4E411C011
:100D8000811540E2940788F48F3F910509F048F4FB
:100D9000883E910530F0805F9109D065409708F05A
:100DA0008ACFCE01DF91CF910895C11580E3D80796
:100DB00008F475C0CE019927D3FD74C0EC01D06C46
:100DC000F0CFC11595E5D90760F5C11524E5D20727
:100DD00008F09CC0C11533E5D30778F4C11542E58E
:100DE000D40708F082C0C11581E5D80708F460C0B7
:100DF000DC2FCC27C16FD06AD4CFCE018370992766
:100E000021E030E002C0220F331F8A95E2F7C69539
:100E1000C69590E2C99FE0011124C22BD32BDA685A
:100E2000C0CFC1152AE5D207B0F4C11539E5D30703
:100E300008F07CC0C11546E5D40708F46CC0CE01AB
:100E400098558F3F910511F008F035CFDC2FCC2756
:100E5000C06FD06AA6CFCE0190568115904208F09F
:100E60002ACF8D2F8F710E94870890E0982F8827B6
:100E700088279F719C012C2BE90156C0853A91056A
:100E800009F462C0863A910509F061C0C2E8D0E475
:100E900088CF805C91090E942A06EC0182CFCE01A6
:100EA0009F70F9CFEC01D86C7CCFDF70D06A79CF1E
:100EB000CE0174E0969587957A95E1F783702C2F93
:100EC00026952695237040E2249F90011124382B0B
:100ED0008C2F8370C1E0D0E002C0CC0FDD1F8A955B
:100EE000E2F7C22BD32BDC685CCFCE01837099274D
:100EF00021E030E002C0220F331F8A95E2F7C69549
:100F0000C69580E2C89FE0011124EBCFDC2FCC27EF
:100F1000C46FD06A46CF8C2F0E948708C82FD0E0BC
:100F2000DC2FCC27CC27DF71D0623BCF8C2F8F708A
:100F30000E94870834E0D695C7953A95E1F7CF70BF
:100F4000DC2FC82FD0692DCFC1E8D0E42ACFC3E869
:100F5000D0E427CFC2EED4E424CFC9EED4E421CF2D
:100F6000CAEED4E41ECFC5EBD4E41BCFC6EBD4E469
:100F700018CFC3EBD4E415CFC4EBD4E412CFC7EB46
:100F8000D4E40FCFCCECD4E40CCFCDECD4E409CF37
:100F9000C3E8D5E406CFCAE8D5E403CFC2E9D5E477
:100FA00000CFC4E9D5E4FDCEC1E2D6E4FACEC3E277
:100FB000D6E4F7CEC4E2D6E4F4CEC5E2D6E4F1CE70
:100FC000C6E2D6E4EECEC7E2D6E4EBCECFE6D4E47A
:100FD000E8CEC0E7D4E4E5CECAE2D6E4E2CE803E75
:100FE000910599F1C8F48133910509F476C048F46C
:100FF0008932910509F46AC08A32910509F474C0F6
:10100000089589339105D1F082389105B9F085337F
:10101000910509F454C00895843E910599F138F47E
:10102000823E9105F9F0833E910509F10895863ECF
:10103000910599F1873E9105B9F1089520912A0211
:101040002370A1F080EE90E0089520912A0220FD07
:1010500052C030912B0230FF09C024FF4FC090E0F6
:1010600080E004C020912A0222FDF7CF089520914C
:101070002A0222FD46C030912B0230FDE3CF24FF2F
:10108000F5CFEDCF20912B0221FFF0CF80912A02E6
:1010900084FDE5CF87EE90E0089520912A0223FF9A
:1010A000E5CF24FDDCCFF6CF20912A0223FD2CC012
:1010B00030912B0231FFE3CF84EE90E00895209130
:1010C0002A0225FFD3CF89E290E0089520912A02D9
:1010D00025FFCCCF85E390E0089520912A0226FFDA
:1010E000C5CF8AE290E0089520912A0226FFBECF64
:1010F00081E390E0089589E390E0089583EE90E025
:10110000089582EE90E0089586EE90E00895909123
:101110002A0292FF06C0282F28712830F9F4877F11
:10112000846093FF06C0282F28712831F1F4877E50
:10113000846120912B0220FF06C0382F387138308F
:10114000D9F4877F816021FF06C0282F28712831BC
:10115000D1F4877E816194FD877E0895282F2471C4
:101160002430F9F68B7F8860DCCF282F247124315E
:1011700001F78B7E8861DDCF382F3171313019F75F
:101180008E7F8860E0CF282F2171213121F78E7E5C
:101190008861E1CF08950C94CA0808950C94CD0895
:1011A0000895E82FF0E0E35AFE4F80810895CF9232
:1011B000DF92EF92FF920F931F93CF93DF938EE313
:1011C00094E00E9495038DE5E82E81E0F82ED0E0B2
:1011D000C0E099E3C92E94E0D92E01E314E0DF9337
:1011E000CF93DF92CF920E942E0486E394E00E9478
:1011F0009503F70181917F010E94511C1F928F93EB
:101200001F930F930E942E048FE294E00E94950397
:1012100021968DB79EB708960FB6F8949EBF0FBE65
:101220008DBFCA30D105D9F6DF91CF911F910F91B3
:10123000FF90EF90DF90CF900895CF93DF930E94BF
:101240008B0A809100018091000195E0811190E06E
:101250009093230285E0891B80932202A5E2B1E0EE
:1012600061E070E08D91E82FE295EF70F0E041A130
:101270008F709B0101C0220F8A95EAF7922F9095FB
:10128000942391A382A1822B82A381E0AA32B80782
:1012900049F7AFE1B1E045E251E0C1E0D0E08D9126
:1012A000E82FE295EF70F0E061A18F709E0101C020
:1012B000220F8A95EAF7922F9095962391A382A107
:1012C000822B82A34A175B0751F7EDE5F1E087E631
:1012D00091E011928E179F07E1F785E00E94340A92
:1012E000DF91CF910C946B056F927F928F929F92BA
:1012F000AF92BF92CF92DF92EF92FF920F931F9324
:10130000CF93DF9328E531E045E2E42E41E0F42E6F
:10131000712CCC24C394D12CE90179919E01DE017A
:101320001E92F70181917F01E82FE295EF70F0E0C6
:1013300091A18F70860101C0000F8A95EAF7892F6D
:10134000802B81A382A1602E6094862182A380EAF3
:101350008A95F1F79FE1A92E91E0B92E50E040E087
:10136000E50169915E01862E82948FE08822912C9E
:10137000E40188A190E06F7002C0959587956A9509
:10138000E2F7812C80FD06C04601042E01C0880CC6
:101390000A94EAF78C91882A8C924F5F5F4F46300F
:1013A0005105F1F681A1862181A382A1082B02A318
:1013B00081E09C91971301C080E0782AD1E02D351F
:1013C0003D0709F0A9CF6091230270E0635A7E4F78
:1013D000272D45E088E591E00E94350A872DDF91B1
:1013E000CF911F910F91FF90EF90DF90CF90BF9022
:1013F000AF909F908F907F906F900895CF930E94B1
:101400007409C82F0E946B0A882311F1809122026F
:1014100090E0835A9E4F0E94A20A811116C09091BB
:1014200057019F5F90935701963050F0E091220250
:10143000F0E0E35AFE4F108211821282138214826E
:101440000E9475058C2FCF91089510925701F8CF07
:101450008091230290E0835A9E4F0E94C10A0E940D
:10146000D90B0E94D008EECF0895FF920F931F93DF
:10147000CF93DF93F82E092F162FD72FC42F2223B7
:1014800049F081E0809369010E94D41D9093680126
:1014900080936701809169018823A1F080916701A1
:1014A000909168010E94E01D069760F0EF2DF02FEB
:1014B000A12FBD2FCE0FDF2FD11DEC17FD0741F45B
:1014C00010926901DF91CF911F910F91FF900895C4
:1014D00081918D93F2CF80916A01811110C080912A
:1014E000D80080618093D8008AE18A95F1F700C026
:1014F0009091D900917082E0891B80936A0181E00C
:1015000090916A01913009F080E008950E946B0A81
:1015100091E0892708950E94860A809300010E9425
:101520006B0A81110C94960A0C949C0A61E070E09D
:1015300081E091E00C94480E61E070E081E091E080
:101540000C944F0ECF93DF93D82FC92F0E94E90E32
:101550009C0180E02115310589F4ED2FFC2FD90184
:10156000A459BE4F8C9181932F5F3F4F2530310599
:10157000B1F781E791E00E94320C81E0DF91CF91D9
:101580000895FC0190E080E02191DC01A459BE4F58
:101590002C93019685309105B9F781E791E00C9481
:1015A000290C0F931F93CF93DF93CDB7DEB7289706
:1015B0000FB6F894DEBF0FBECDBF80910A018F93A6
:1015C000809109018F938FE291E09F938F931F92F7
:1015D00088E08F938E010F5F1F4F1F930F930E9420
:1015E000F828C8010E9468050FB6F894DEBF0FBE48
:1015F000CDBF28960FB6F894DEBF0FBECDBFDF91EA
:10160000CF911F910F910895CF93DF93D82FC92FBA
:101610000E94D41D9093750180937401D093720140
:10162000C0937301DF91CF910895809172019091E1
:101630007301892BE1F080917401909175010E94F2
:10164000E01D2091090130910A012817390780F423
:10165000809172019091730192600E94B80410927F
:101660007501109274011092730110927201089525
:10167000809172010E943312F2CF10920B010C94F0
:10168000150B80910B01882321F010920B010C9413
:10169000150B81E080930B0108951F93CF93DF9387
:1016A000EC01FB011281112309F464C089319C45CE
:1016B00009F456C0CA318CE5D807B0F5C731ECE55E
:1016C000DE0709F43FC08091090190910A01059756
:1016D000C831FCE5DF07D9F1C933D10508F5CD32B2
:1016E000D10530F4C832D105A8F4C430D105A8F032
:1016F0000E94150B80910B01882369F10E949A1BAF
:10170000811129C0CE010E94040B82E00E94341C8A
:1017100010E021C0CB32D10559F30E94150B1BC03C
:10172000C436D10529F3F9CFCB318CE5D807D9F0F0
:10173000CC31ECE5DE07D9F0CA31DC4571F70E9407
:10174000410B09C08091090190910A01059690937F
:101750000A0180930901812FDF91CF911F91089594
:101760000E94D10AF8CF81E080930B01F4CF0E9450
:101770003D0BF1CF0E94150B11E0EDCF0C94370417
:1017800084988C9A85988D9A8FB1829581707D9975
:101790000EC090E0892B80937B019091000181E045
:1017A000982790937701891B80937601089592E0A2
:1017B000F1CFCF93E0917B01EE0FEE0FE0937B0131
:1017C0004FB144FB882780F94FB145FB222720F910
:1017D00045FF02C022E030E0822BE82BE0937B0142
:1017E000C0917701EF70F0E0EC5CFE4F808190914A
:1017F0007A01890F80937A0184306CF0EC2F0C2EE3
:10180000000CFF0BE858FE4F80818F5F808361E002
:101810008C2F0E94BE0B80917A018D3F6CF4EC2FCF
:101820000C2E000CFF0BE858FE4F80818150808306
:1018300060E08C2F0E94BE0B90917A01892F8378F3
:1018400097FF03C081508C6F8F5F80937A01CF9197
:101850000895E0917701F0E0E858FE4F2081FC0107
:1018600020830895FF920F931F93CF93DF93D0911E
:1018700076010D2F10E008581E4FFC01C081F801C1
:101880008081C81BFC2E1F1464F08C2FC7FD80E0E4
:10189000C81BC11110C0DF91CF911F910F91FF9014
:1018A0000895FA94F80180818F5F808361E08D2F25
:1018B0000E94BE0BE8CFCF5FF8018081815080830A
:1018C00060E08D2F0E94BE0BE4CF0F931F93CF9348
:1018D000DF93C62FD42F022FFC0182818823C9F009
:1018E00060937E010E94D41D90937D0180937C01C2
:1018F00080E28C0F883008F050C0C77081E001C0D2
:10190000880FCA95EAF7DF91CF911F910F910C9440
:10191000461210917E01161335C080917C01909182
:101920007D010E94E01D883C910560F5C0E2CD0F6D
:101930001D17B9F080E2810F883040F4177081E004
:1019400001C0880F1A95EAF70E944D12C83048F47A
:1019500081E09D2F977001C0880F9A95EAF70E9449
:101960004612802F0E943312C830B8F4D77081E03D
:1019700001C0880FDA95EAF7DF91CF911F910F919F
:101980000C944D1280E28C0F883038F4C77081E0DF
:1019900001C0880FCA95EAF7EFCFDF91CF911F9171
:1019A0000F9108959C01CB01233F4CE5340769F169
:1019B00090F4283DFCE53F0721F1293D4CE5340733
:1019C00081F1273D3C45B1F0FC018281882361F122
:1019D00010927E010895253FFCE53F07D1F0263F98
:1019E0004CE53407D1F0243F3C4571F727E245EE42
:1019F00064EE03C026E241EE61EE0E94650C80E0D9
:101A0000089527E245EE65EEF8CF26E241EE60EE5E
:101A1000F4CF26E241EE62EEF0CF27E245EE66EE2D
:101A2000ECCF28E241E0EFCF81E00895CF93DF9340
:101A3000EC01FB018281882309F4C9C0C631FCE5B1
:101A4000DF07E0F4C2309CE5D907F0F00E94781C73
:101A500090932B0280932A02C631ECE5DE0720F535
:101A6000C230FCE5DF0798F480912A0290912B02A6
:101A70000E94861C0E94371580E006C09E012A5FE6
:101A80003C452930310510F3DF91CF910895FE01D7
:101A9000E350FC4580912A028160E331F10588F42E
:101AA000E15EF34D0C94DE28CA5FDC45C930D105F8
:101AB000D8F6CE5CD34DFE010C94DE2880912A022C
:101AC000826080932A02D0CF80912A028460F9CF6D
:101AD00080912A028860F5CF80912B0281608093EB
:101AE0002B02C2CF80912B028260F9CF80912A0213
:101AF0008061E7CF80912A028062E3CF80912A0241
:101B00008064DFCF0E94371580912A028068D9CF88
:101B100080912A028C60D5CF80912B028360DFCF29
:101B200080912A028E7FCDCF80912A028D7FC9CFEE
:101B300080912A028B7FC5CF80912A02877FC1CFF7
:101B400080912B028E7FCBCF80912B028D7FC7CFD0
:101B500080912A028F7EB5CF80912A028F7DB1CFEE
:101B600080912A028F7BADCF0E94371580912A0287
:101B70008F77A7CF80912A02837FA3CF80912B02FA
:101B80008C7FADCF80912A0282FB992790F921E0CA
:101B9000922790FB82F990FB83F993CF80912B02DF
:101BA000982F909591708E7F892B90FB81F997CF1C
:101BB0000E94371590912A02892F97FB87F9805848
:101BC00080CF81E00E94041D4FCF80E0FBCF81E0F9
:101BD0005BCF8EE1489B02C08150E1F7489BFECF6E
:101BE0000895589880E28A95F1F7589A0895FC0173
:101BF0003BE03A95F1F798E020E080E031E040E109
:101C00004A95F1F7880F489B02C08160232742E084
:101C10004A95F1F7000040E14A95F1F7915079F7C4
:101C200090E19A95F1F799B132E03A95F1F7000019
:101C300040E14A95F1F7917092272081920F9083AD
:101C40000895EF92FF920F931F93CF93DF930F921C
:101C5000CDB7DEB719828C017C01E60EF11C0E15A2
:101C60001F0561F481E09981911180E00F90DF916F
:101C7000CF911F910F91FF90EF9008950E94E90D71
:101C8000CE0101960E94F70DF80181938F01E7CFF5
:101C90009093800180937F01509A589A0895909371
:101CA000800180937F015098589AE89AE9E6F0E025
:101CB00080818C7F808308956150770B91E001C013
:101CC000990F6A95EAF720E031E0911108C02223CC
:101CD00091F0589A80E28A95F1F758980895492F23
:101CE000482339F0589A232740E24A95F1F7969510
:101CF000ECCF5898F9CF5898EDCFFF920F931F93E0
:101D0000CF93DF93EC018C01060F111DC017D10793
:101D100031F4DF91CF911F910F91FF900895F990C9
:101D20000E94F10D68E08F2D0E945C0EEFCF1F9294
:101D30000F920FB60F9211242F933F934F935F93FF
:101D40006F937F938F939F93AF93BF93CF93DF93C3
:101D5000EF93FF935898509AC0917F01D0918001E2
:101D60006D81662321F08E819F810E947D0E0E94ED
:101D7000F10D80E18A95F1F758985098589A80E1D2
:101D80008A95F1F76A81662309F18B819C810E9413
:101D9000210EE881F981882311F088E001C082E0FA
:101DA00080830E94E90DFF91EF91DF91CF91BF9168
:101DB000AF919F918F917F916F915F914F913F91E3
:101DC0002F910F900FBE0F901F901895E881F98109
:101DD000E4CFCF93DF93C0917F01D0918001F8943D
:101DE000509A589885E08A95F1F700005098589AD3
:101DF00080E28A95F1F7489B0CC0509A589AE88186
:101E0000F98181E08083789481E090E0DF91CF9147
:101E100008956D81662381F08E819F810E94210E3D
:101E200081110AC0509A589AE881F98182E0808332
:101E3000789482E090E0EACF0E94E90D80E28A95F2
:101E4000F1F75898509A80E18A95F1F76A816623F4
:101E500021F08B819C810E947D0E0E94F10DE88112
:101E6000F9811082789490E080E0D0CF9093860141
:101E7000809385010895E0918501F0918601309766
:101E800021F00190F081E02D099480E00895EF9217
:101E9000FF920F931F93CF93DF938C01E091850105
:101EA000F09186013097C1F10280F381E02D099510
:101EB0008091080282FF30C080FF04C085E594E075
:101EC0000E949503D0E0C0E08FE4E82E84E0F82E75
:101ED0008091080280FF0EC0F801EC0FFD1F808189
:101EE0001F928F93FF92EF920E942E040F900F90FB
:101EF0000F900F902196C830D10551F780910802BC
:101F000080FF0AC08DE494E0DF91CF911F910F9183
:101F1000FF90EF900C949503DF91CF911F910F915B
:101F2000FF90EF900895DC01E0918501F09186012A
:101F3000309739F082E08C930480F581E02DCD015B
:101F4000099408952091830130918401281739075D
:101F500071F09093840180938301E0918501F09169
:101F60008601309721F00680F781E02D09940895CD
:101F700020918101309182012817390771F09093E7
:101F8000820180938101E0918501F0918601309773
:101F900021F00084F185E02D0994089585B78068CB
:101FA00085BF85B7806885BF0895089508950C940E
:101FB000D50F08950C94D90F0E94CE0F0E94D60F12
:101FC0000C94D70F0E94CB1D0E941D090E943A1E3F
:101FD0000C94DA0FCF93C82F8091080282FF1EC0A5
:101FE00080FF1CC08EE694E00E9495038091080259
:101FF00080FF14C01F92CF9389E694E09F938F9344
:102000000E942E04809108020F900F900F900F9065
:1020100080FF04C087E694E00E9495038C2FCF9147
:102020000C948005AF92BF92CF92DF92EF92FF9215
:102030000F931F93CF93DF9300D000D00F92CDB7B3
:10204000DEB70E94FE090E946B0A882309F45DC076
:1020500088E8A82E81E0B82E10E000E0C02E802F86
:102060000E94D108F82EF501D1905F01D81609F42D
:1020700046C08091080281FD0E94D70880E0EE24CE
:10208000E394DF249D2D9E21B1F18983CA82FE2035
:1020900081E009F480E08B830E94D41D8160782F59
:1020A0009D838C8349815A816B818D810E94A6100A
:1020B000F801E857FE4F8081E826E0820E945B200D
:1020C0000E943B0F90918701891781F10E943B0F7D
:1020D000809387010F900F900F900F900F90DF91DA
:1020E000CF911F910F91FF90EF90DF90CF90BF9015
:1020F000AF900C94EA0F8F5FEE0C863019F60F5FED
:102100001F4F0A30110509F0A9CF8FEF89838A8309
:102110001B820E94D41D8160782F9D838C8349810E
:102120005A816B818D810E94A610C8CF0F900F90AD
:102130000F900F900F90DF91CF911F910F91FF9013
:10214000EF90DF90CF90BF90AF900895CF93DF9343
:10215000CDB7DEB72B970FB6F894DEBF0FBECDBF5D
:102160004F83588769877A878B871E8285E0FE01B7
:102170003796DE01119601900D928A95E1F749811B
:102180005A816B817C818D819E812B960FB6F8944C
:10219000DEBF0FBECDBFDF91CF910C94BA17FC010B
:1021A000808191810C943F1B882309F405C18238FA
:1021B000B9F40E943B0F81FDFFC089E30E94751BAB
:1021C0000E94E91B2FEF81EE94E021508040904067
:1021D000E1F700C0000089E30E947C1B0C94E91B1E
:1021E0008338A1F40E943B0F80FDE6C083E50E9486
:1021F000751B0E94E91B2FEF81EE94E02150804077
:102200009040E1F700C0000083E5E6CF8438A1F4F8
:102210000E943B0F82FDD0C087E40E94751B0E9484
:10222000E91B2FEF81EE94E0215080409040E1F7D0
:1022300000C0000087E4D0CF9CEF980F913A18F4CB
:102240000E94751BCBCF90E2980F983050F48770A6
:1022500091E001C0990F8A95EAF7892F0E949D1B92
:10226000BDCF9BE5980F933070F4853A31F0863AF4
:1022700039F083E890E00C94A20F81E890E0FBCF66
:1022800082E890E0F8CF98E5980F973108F08EC07B
:10229000883A09F446C0893A09F446C08A3A09F4F2
:1022A00046C08B3A09F446C08C3A09F446C08B3BD1
:1022B00009F446C08C3B09F446C08D3A09F446C087
:1022C000803B09F446C08E3A09F446C08F3A09F4BF
:1022D00046C0813B09F446C0823B09F446C0833BBB
:1022E00009F446C0843B09F446C0853B09F446C066
:1022F000863B09F446C0873B09F446C0883B09F495
:1023000046C0893B09F446C08D3B09F446C08E3B6C
:1023100009F446C08A3B09F446C090E080E00C9482
:10232000B80F82EE90E0FBCF89EE90E0F8CF8AEE16
:1023300090E0F5CF85EB90E0F2CF86EB90E0EFCF29
:1023400083EB90E0ECCF84EB90E0E9CF87EB90E07B
:10235000E6CF8CEC90E0E3CF8DEC90E0E0CF83E82B
:1023600091E0DDCF8AE891E0DACF82E991E0D7CF42
:1023700084E991E0D4CF81E292E0D1CF83E292E090
:10238000CECF84E292E0CBCF85E292E0C8CF86E266
:1023900092E0C5CF87E292E0C2CF8FE690E0BFCF58
:1023A00080E790E0BCCF8AE292E0B9CF803F20F096
:1023B0000E94E71E0C94CE1F0895882309F452C092
:1023C000823871F40E943B0F81FF4CC089E30E9468
:1023D000751B0E94E91B89E30E947C1B0C94E91B7E
:1023E000833859F40E943B0F80FF3CC083E50E9474
:1023F000751B0E94E91B83E5EFCF843859F40E94D6
:102400003B0F82FF2FC087E40E94751B0E94E91BCF
:1024100087E4E2CF9CEF980F913AF0F290E2980FA8
:10242000983050F4877091E001C0990F8A95EAF7CF
:10243000892F0E94A31BD2CF9BE5980F933020F4E5
:1024400090E080E00C94A20F98E5980F973120F46B
:1024500090E080E00C94B80F803F20F00E944F1F66
:102460000C94CE1F0895CF93C82F0E94D410C93367
:1024700049F42FEF87EE93E0215080409040E1F740
:1024800000C000008C2FCF910C94DD11882321F027
:102490000E949D1B0C94E91B0895882321F00E9443
:1024A000A31B0C94E91B0895AF92BF92CF92DF92C9
:1024B000EF92FF920F931F93CF93DF9300D000D042
:1024C0000F92CDB7DEB76C016D837983FC01058176
:1024D00002950F70128111110E94BC1B0E94931B68
:1024E000E82E882371F01123B1F08D81805E883051
:1024F00090F082E00E94341C0E94931B91E0E82E31
:10250000E926A980A2949FE0A922B12CF501E55CFF
:10251000F34D0C94DE28E12CF4CF09810F70F98182
:10252000F07F11F00295007F1123B1F0002361F0DC
:102530008D81805E883018F02D81211109C0802F97
:102540000E949D1B0E94E91B8D810E94D41015C022
:10255000802F0E94AE1BF6CF8D810E94DD110023DB
:1025600061F08D81805E883018F04D81411133C05B
:10257000802F0E94A31B0E94E91B58E0A51AB108F6
:1025800064E0A616B10420F40E943B0F0E9480056F
:10259000EE2009F40EC20E948F1B80FD0AC2F601D4
:1025A00012820E94891B0E949419C6010E94E9149C
:1025B0000E94891B0F900F900F900F900F90DF914A
:1025C000CF911F910F91FF90EF90DF90CF90BF9030
:1025D000AF900C94C519802F0E94B41BCCCF5981A9
:1025E0005F70F52E6981607F603219F0F29480EFA0
:1025F000F8227D81772369F0713049F1112391F13F
:10260000002351F1F601858180FF9ECF8F70858375
:1026100023C0112381F0011106C00E94D01B8F2915
:102620000E944612AACF0130C1F70E94D01B8F2909
:102630000E94D61BA2CF011106C00E94DF1B8F2D66
:102640000E944D129ACF013009F497CFF6CF112393
:1026500029F0063008F091CF8F2DE2CF053008F039
:102660008CCFEDCF002359F3FD81F93349F42FEFDF
:1026700047EE53E0215040405040E1F700C00000D9
:102680008D810E94DD1179CF898186958695837031
:1026900069F0813009F071CF8D81998193701111AA
:1026A00002C090E080E00E94B80F67CF8D819981D1
:1026B0009370111102C090E080E00E94A20F5DCFE4
:1026C000112311F16D81653F99F0663FB9F0643FC8
:1026D00049F4809124029091250281609093250213
:1026E000809324028D810E94E71E0E94CE1F45CF59
:1026F00080912402909125028260F0CF8091240283
:10270000909125028460EACF7D81753F89F0763F04
:10271000A9F0743F49F480912402909125028E7FA4
:1027200090932502809324028D810E944F1FDDCF5C
:1027300080912402909125028D7FF2CF8091240216
:10274000909125028B7FECCF8981837009F059C06D
:10275000111113CF4D81429546954770440F440F98
:102760008D818F7090E0B0E0A0E0042E04C0880F4F
:10277000991FAA1FBB1F0A94D2F7ED8100E010E059
:102780009801E4FF0FC00FE010E020E030E004C04B
:10279000000F111F221F331F4A95D2F70095109585
:1027A00020953095F981F695F695F370FD83B90182
:1027B000A801482B592B6A2B7B2B49835A836B83A7
:1027C0007C83F23081F0F330A9F0F13029F0CB01B5
:1027D000BA010E940A19D1CE69817A818B819C81CC
:1027E0000E94E218CACE69817A818B819C810E9405
:1027F0003219C3CE69817A818B819C810E94E01855
:10280000BCCE8695112311F089818170882309F44B
:10281000B4CE4D81429546954770440F440F8D814B
:102820008F7090E0B0E0A0E0042E04C0880F991FE4
:10283000AA1FBB1F0A94D2F75D8100E010E0980147
:1028400054FF0FC00FE010E020E030E004C0000FA4
:10285000111F221F331F4A95D2F70095109520951E
:10286000309569816695669563706D83B901A8019D
:10287000482B592B6A2B7B2B49835A836B837C8390
:102880005D8169817A818B819C81523051F0533016
:1028900059F0513019F00E94531A6FCE0E942B1A32
:1028A0006CCE0E947B1A69CE0E945E1966CE698149
:1028B0006F706983112329F0862F0E9494198D81EE
:1028C000AFCE8D810E944D1289810E94C51955CECF
:1028D0007D81723FA1F160F4703FE1F0713F41F101
:1028E000112309F445C001112FCE89818F7124C0B5
:1028F0008D81833F49F1843F99F7112379F19981C3
:102900009F719983892F0E94941963E089810E94A5
:102910001F1C33CE112341F0053008F02ECE8981E3
:102920008F710E94FA1929CE063008F026CEF7CF13
:1029300089818F71112349F20E9494191ECE8981D9
:102940008F711123C9F3C1CF112329F089818F71B0
:102950000E946F1912CE0E946A190FCE81E00E9468
:10296000341C023008F409CE82E00E94341C05CEEB
:10297000002361F0ED81E93309F082CEFFEF27EE0D
:1029800043E0F15020404040E1F778CE89818F71DB
:102990009CCF49814F706D81C6010E9412060E9432
:1029A0005418EBCD49814F706D81C6010E94150608
:1029B000E4CD0F900F900F900F900F90DF91CF917B
:1029C0001F910F91FF90EF90DF90CF90BF90AF904D
:1029D00008950F931F93CF93DF93EC018B819C811C
:1029E000892B29F08881998189238F3F29F4DF91F0
:1029F000CF911F910F910895CE010E949E058823CB
:102A0000B1F3688179818A810E944B1B8C010E94FD
:102A1000A31A0E94DF18B801CE01DF91CF911F9158
:102A20000F910C945412882321F00E94AE1B0C9439
:102A3000E91B0895882321F00E94B41B0C94E91B24
:102A400008950E94BC1B0E94CD1B0E94E91B0E949E
:102A5000F2200E94CE1F90E080E00E94A20F90E042
:102A600080E00C94B80F0E94831B0C9421150E94E7
:102A7000AB1B0C943315282F892F82958F70903CB7
:102A800080F48A30B0F4843020F4823090F480E016
:102A900008958630E1F781E0283E88F0213FB9F7BC
:102AA0000EC08C3011F08F3091F793FB882780F99E
:102AB000089581E0203F39F018F4283E40F708954A
:102AC000243F29F7FCCF08950E943F1B0C943B152F
:102AD000CF93DF9300D000D00F92CDB7DEB70F9029
:102AE0000F900F900F900F90DF91CF910895CF939B
:102AF000DF9300D000D000D0CDB7DEB726960FB65A
:102B0000F894DEBF0FBECDBFDF91CF9108951F9324
:102B1000CF93DF93E091930116E0809194018E139F
:102B200004C0DF91CF911F910895CE2FD0E01E9F5A
:102B3000F0011124EB56FE4F408151816281738177
:102B4000848195810E947715FE013196E770E5CF6B
:102B50004091C5015091C6016091C7017091C801B3
:102B60008091C9019091CA010C9477151F93CF935E
:102B7000DF938091CA01807FC1F48091C7018823CF
:102B8000A1F080919301C09194016091C501709171
:102B9000C6014091C8015091C901D62FD723DA014F
:102BA000A095B09516E0C81304C0DF91CF911F9196
:102BB000089590E04115510511F0DF3F31F4019681
:102BC0008770F1CF2A0F3B1F17C0189FF001199F84
:102BD000F00D1124EB56FE4F21812713F0CF2081F9
:102BE0002613EDCF22812111EACF238134812417CE
:102BF000350740F3241B350B283C310500F72091A5
:102C0000CA012F7020612093CA0126E0289FF0019D
:102C1000299FF00D1124E656FE4F80818F70806150
:102C2000808385EC91E00E94E914DF91CF911F91A0
:102C30000C9487159F92AF92BF92CF92DF92EF9242
:102C4000FF920F931F93CF93DF93CDB7DEB72B97F0
:102C50000FB6F894DEBF0FBECDBF7C0185E0F70153
:102C6000DE01179601900D928A95E1F7D7014C91FC
:102C700011965C91119712960C9112978091C80150
:102C80009091C901009709F456C12091C501309176
:102C9000C601632F62236F3F09F44DC11396CD9097
:102CA000DC909090C701992009F405C1C816D90697
:102CB00008F43EC0F601E81BF90BCF0111E0883C97
:102CC000910508F010E085ECA82E81E0B82E8091E7
:102CD000CA01982F907F112309F4C7C0911180C0B9
:102CE000102F35132AC0241328C0011126C08F705D
:102CF00080618093CA010E94A815C5010E94E91451
:102D00008091CA01D70115968C93812F2B960FB60F
:102D1000F894DEBF0FBECDBFDF91CF911F910F9111
:102D2000FF90EF90DF90CF90BF90AF909F9008956D
:102D3000809590958C0D9D1DC1CFCD2829F0842FB5
:102D400085238F3F09F013C180E0B82FB170DB2ECF
:102D5000E09193012091940136E080FD1CC0002396
:102D6000A1F28091CA0181608093CA0110E0CDCFA9
:102D70008E2F90E03E9FF0011124EB56FE4F6181B3
:102D8000651306C06081641303C062816013E7CFDE
:102D9000FC013196E770E213EBCF4F8358878F81A8
:102DA00098850E943F1B292F22952F70903260F04A
:102DB000225F2F70223078F49F7051F0F7019581D7
:102DC000907F31F4D12C0AC09F7011F08823D1F389
:102DD000805E8830B8F3C7010E94E9141D2D95CF9D
:102DE000351315C0241313C0011111C0D701159656
:102DF0008C93C7010E94E91486E0F701A5ECB1E0CD
:102E000001900D928A95E1F70E94A8157ECF4F831D
:102E100058878F8198850E946415882311F10023BB
:102E200001F18091CA01803270F02091C50130918A
:102E3000C6013A8329831B82DD82CC828E83CE0138
:102E400001960E94E91486E0F701A5ECB1E001903B
:102E50000D928A95E1F70E94B6150E94A81511E01F
:102E600054CFC7010E94E914FACF911111C07C2DF3
:102E7000DB86CA86602F8B850E94681585EC91E001
:102E80000E94E91486E0F50111928A95E9F7BCCF1A
:102E90003513BDCF2413BBCF0111B9CFD701159680
:102EA0008C93C7010E94E91486E0F50111928A957E
:102EB000E9F7192D2ACFC816D906C0F0B601681B4C
:102EC000790BCB0110E0883C910530F5102F0023E1
:102ED00041F2351310C024130EC086E0F701A5ECB3
:102EE000B1E001900D928A95E1F70FCF8095909512
:102EF0008C0D9D1DE7CF4F8358878F8198850E9449
:102F000064158111A0CF8091CA0181608093CA01AC
:102F1000C7010E94E914F9CE7C2DDB86CA86602F9A
:102F20008B850E94681586E0E5ECF1E0DF011D92DB
:102F30008A95E9F769CF002309F493CF4F83588727
:102F40008F8198850E946415182F882309F489CFF2
:102F500086E0F701A5ECB1E001900D928A95E1F7CA
:102F600085EC91E00E94CF100E94B6154DCF81E014
:102F70008027EBCE1F93CF93DF93CDB7DEB72C978F
:102F80000FB6F894DEBF0FBECDBF4F835887698759
:102F90007A878B879C87CE0107960E941A16882312
:102FA00069F08A859B85892B39F04F815885842F5C
:102FB00085238F3F09F071C016E05FC086E0FE01F7
:102FC0003796DE01119601900D928A95E1F78A8578
:102FD0009B85892B89F388859F8189238F3F61F3A6
:102FE0002091940130E0C9010196877099274091A2
:102FF00093014817190671F40E9437151092940135
:103000001092930186E0E5ECF1E0DF011D928A95D4
:10301000E9F7D2CF96E0929FD001939FB00D112493
:10302000AB56BE4FFE01319601900D929A95E1F795
:10303000809394010E948715BFCF819FC001112406
:103040008B569E4F0E941A168823E9F0E091930157
:103050001E9FF0011124EB56FE4F40815181628189
:103060007381848195810E9477158091930190E00E
:103070000196877099278093930180919301909195
:1030800094018913DACF2C960FB6F894DEBF0FBEE9
:10309000CDBFDF91CF911F91089569857A858B858A
:1030A0009C850E94771588CFEF92FF920F931F9314
:1030B000CF93DF938C01892B89F0F12CEE24E394DC
:1030C000E8012196F8018491843709F457C0A0F4EF
:1030D000823009F43EC048F48130D1F0DF91CF91C5
:1030E0001F910F91FF90EF9008959CEF980F9037EC
:1030F000A8F70E94D4100AC0853709F44CC09CE799
:10310000980F903758F78F770E94DD118E0116C007
:103110000E5F1F4FFE01849190E2980F983060F48B
:103120008770FE2D01C0FF0F8A95EAF78F2F0E944E
:10313000BF1B0E94E91B02C00E94D4108F2D81503A
:1031400008F4BECFEFE9FFE03197F1F700C00000CF
:10315000F6CF0E5F1F4FFE01849190E2980F9830DA
:1031600050F48770FE2D01C0FF0F8A95EAF78F2F6C
:103170000E94C51BDECF0E94DD11E0CF0E5F1F4F06
:10318000FE01C491C150D0F28FE99FE00197F1F7A1
:1031900000C00000F7CF0E5F1F4FFE01F490CECFAE
:1031A00008950C94D0180E94D1186093F701709381
:1031B000F8018093F9019093FA010C942115089578
:1031C0000C94D318CF93DF9300D000D0CDB7DEB7E7
:1031D00069837A838B839C838091F7019091F801B6
:1031E000A091F901B091FA0129813A814B815C816A
:1031F000282B392B4A2B5B2B29833A834B835C8307
:10320000CA01B9010F900F900F900F90DF91CF91ED
:103210000C94D318CF93DF9300D000D0CDB7DEB796
:1032200069837A838B839C838091F7019091F80165
:10323000A091F901B091FA0129813A814B815C8119
:10324000282339234A235B2329833A834B835C83D6
:10325000CA01B9010F900F900F900F90DF91CF919D
:103260000C94D318CF93DF9300D000D0CDB7DEB746
:1032700069837A838B839C838091F7019091F80115
:10328000A091F901B091FA0129813A814B815C81C9
:10329000282739274A275B2729833A834B835C8376
:1032A000CA01B9010F900F900F900F90DF91CF914D
:1032B0000C94D3180C94D0180C945A190E945C19D1
:1032C0006093F3017093F4018093F5019093F601FC
:1032D0000C94211560E070E0CB010C945E190F9303
:1032E0001F93CF93DF9300D000D0CDB7DEB741E07E
:1032F00050E060E070E08A019B0104C0000F111FE4
:10330000221F331F8A95D2F709831A832B833C83AC
:10331000C901B8010F900F900F900F90DF91CF91DE
:103320001F910F910C945E190F931F93CF93DF930E
:1033300000D000D0CDB7DEB741E050E060E070E0F3
:1033400004C0440F551F661F771F8A95D2F78091DE
:10335000F3019091F401A091F501B091F6018A0179
:103360009B01082B192B2A2B3B2B09831A832B83B8
:103370003C83C901B8010F900F900F900F90DF911F
:10338000CF911F910F910C945E190F931F93CF93C0
:10339000DF9300D000D0CDB7DEB741E050E060E071
:1033A00070E004C0440F551F661F771F8A95D2F73F
:1033B00040955095609570958091F3019091F4013E
:1033C000A091F501B091F6018A019B010823192310
:1033D0002A233B2309831A832B833C83C901B80129
:1033E0000F900F900F900F90DF91CF911F910F9141
:1033F0000C945E190F931F93CF93DF9300D000D0EE
:10340000CDB7DEB741E050E060E070E004C0440FAB
:10341000551F661F771F8A95D2F78091F30190910F
:10342000F401A091F501B091F6018A019B010827F2
:1034300019272A273B2709831A832B833C83C90139
:10344000B8010F900F900F900F90DF91CF911F91C7
:103450000F910C945E19CF93DF9300D000D0CDB7BD
:10346000DEB769837A838B839C838091F30190918B
:10347000F401A091F501B091F60129813A814B81C7
:103480005C81282B392B4A2B5B2B29833A834B8376
:103490005C83CA01B9010F900F900F900F90DF91DC
:1034A000CF910C945E19CF93DF9300D000D0CDB7AD
:1034B000DEB769837A838B839C838091F30190913B
:1034C000F401A091F501B091F60129813A814B8177
:1034D0005C81282339234A235B2329833A834B8346
:1034E0005C83CA01B9010F900F900F900F90DF918C
:1034F000CF910C945E19CF93DF9300D000D0CDB75D
:10350000DEB769837A838B839C838091F3019091EA
:10351000F401A091F501B091F60129813A814B8126
:103520005C81282739274A275B2729833A834B83E5
:103530005C83CA01B9010F900F900F900F90DF913B
:10354000CF910C945E190895292F220FE22FE90FD5
:10355000EE0FE80F8E2F877041E001C0440F8A956F
:10356000EAF7E695E695E69585E0E89FF0011124F7
:10357000E553FE4F30E020E070E05191DF011197FC
:10358000CB01022E02C0969587950A94E2F78170CE
:1035900081958527842385278C932F5F3F4F253086
:1035A000310559F70895292F220FE22FE90FEE0F69
:1035B000E80F9E2F9770E695E695E69585E0E89FE3
:1035C000F0011124E553FE4F50E040E080E02191EE
:1035D00030E0092E02C0369527950A94E2F7217053
:1035E0003327042E01C0220F0A94EAF7822B4F5F83
:1035F0005F4F4530510559F70895BF92CF92DF9242
:10360000EF92FF920F931F93CF93DF938C01C090A3
:10361000F301D090F401E090F501F090F601809173
:10362000F7019091F801A091F901B091FA01C82A2F
:10363000D92AEA2AFB2ACFE1D0E0BC2ED701C60165
:103640000C2E04C0B695A795979587950A94D2F746
:1036500080FD0EC0219788F7B12C8B2DDF91CF9183
:103660001F910F91FF90EF90DF90CF90BF90089542
:10367000B8018C2F0E943206019761F3EECFCF93F1
:10368000DF93D82FC92F0E94FD1A6D2F7C2FDF9159
:10369000CF910C9432061F93CF93DF93162FD72F21
:1036A00090919201992339F0862F972FDF91CF9136
:1036B0001F910C943F1B882391F0862F972F0E9417
:1036C000FD1AC82F682F812F9D2F0E94A41A612FE9
:1036D0007D2F8C2FDF91CF911F910C943206862F76
:1036E000972F0E94D31AC82FF2CF682F80910C0118
:1036F00090910D010C94441D682F80910C019091C4
:103700000D010C94461D80910C0190910D010C94BB
:10371000481D8091FB01859585958595089580913B
:10372000FB01877008959091FB01977081E009F487
:1037300080E0089580910702089590910702982BE8
:10374000909307020895982F9095809107028923FE
:10375000809307020895109207020895909106023F
:10376000982B909306020895982F909580910602C9
:10377000892380930602089510920602089590917D
:103780000502982B909305020895982F90958091AB
:103790000502892380930502089510920502089579
:1037A0008091FC01089508950C94D31B9091FC0125
:1037B000981721F08093FC010C94D41B08958091FC
:1037C000FC01882329F01092FC0180E00C94D41BAA
:1037D0000895E0910C01F0910D0180910702808322
:1037E000E0910C01F0910D01808190910602892BEE
:1037F0008083E0910C01F0910D0180819091050290
:10380000892B80839091FC01992381F0E0910C0138
:10381000F0910D018081892B808380910C01909122
:103820000D010E94091D81110E94DF1B80910C0176
:1038300090910D010C94470F08950C941C1C98E076
:10384000899F90011124622B6093FB010E949419BF
:103850008091FB018595859585950C941D1C109292
:10386000FB0180E00C941D1C9091FB018095892345
:103870008093FB01282F277071F4282F082E000C4D
:10388000330B9217130639F08595859585950E941F
:10389000C5190C942F1C08959093550180935401E1
:1038A0000895829594E0899F900111242C7C86953F
:1038B00086958373282B30E0C901880F991F8A7A77
:1038C000359527952575822B089590E080E00E941C
:1038D000AC2B9C0181E02C3E3E4F09F080E0089526
:1038E00082E090E00C94A42B83E090E00C94A42B55
:1038F000CF9384E090E00E94A42BC82F81E290E057
:103900000E94A42B982F8C2FCF910895CF93682FCE
:10391000C92F84E090E00E94B22B6C2F81E290E0EE
:10392000CF910C94B22BAB01BC018FE090E00C94D2
:10393000C42BAB01BC0183E190E00C94C42B60E08C
:1039400070E0CB010C94991C60E070E0CB010E9408
:10395000931C0C949F1C6CEE7EEF90E080E00E9424
:10396000D02B60E082E090E00E94B22B60E083E028
:1039700090E00E94B22B1092F7011092F801109281
:10398000F9011092FA0160E084E090E00E94B22B0D
:1039900060E081E290E00E94B22B60E085E090E080
:1039A0000E94B22B60E086E090E00E94B22B6FEFA5
:1039B00087E090E00E94B22B40E050E0BA0188E03E
:1039C00090E00E94C42B60E08DE090E00E94B22B5A
:1039D00040E050E0BA0188E190E00E94C42B60E032
:1039E00087E190E00E94B22B40E050E0BA018CE108
:1039F00090E00E94C42B60E080E290E00E94B22B35
:103A00000C94A41C0C94AB1C682F8EE090E00C94DA
:103A1000B22BAC019C012E5F3F4F485F5F4F80E0AF
:103A20002417350709F40895F90191919F0199230D
:103A3000B9F38F5FF5CF9C01FC0132968FEF90E0D8
:103A40004191461751F08F3F19F4411101C0892F60
:103A50009F5F9630A9F78F3F09F40895280F311D15
:103A600087FD3A95F901628308959C01FC01329625
:103A7000285F3F4F8191861303C0DF0111971C928D
:103A8000E217F307B9F708950C941B1D0C94351D2C
:103A9000FC01329686E0DF011D928A95E9F70895D0
:103AA000089508950C94511D0E94521D809130027A
:103AB000843049F11092090288E190E020E40FB6C9
:103AC000F894A895809360000FBE2093600080E07A
:103AD0000E9480050E94521D83B7817F846083BF4E
:103AE00083B7816083BF7894889583B78E7F83BFC7
:103AF0000FB6F894A895809160008861809360006B
:103B0000109260000FBE08950895CF930E94501D3B
:103B10000E94FE090E94841DC0E08C2F0E94D108E3
:103B2000811105C0CF5FCA30C1F7CF91089581E000
:103B3000FCCF08950C94991D0E9437150E943B0FED
:103B40000E9480050C949A1D1F921FB61F9211248B
:103B50008F939F93AF93BF9380910902811113C0FC
:103B60008091260290912702A0912802B09129020B
:103B70004196A11DB11D8093260290932702A09328
:103B80002802B0932902BF91AF919F918F911F900E
:103B90001FBE1F90189582E084BD93E095BD9AEFFB
:103BA00097BD80936E0008952FB7F89480912602F8
:103BB00090912702A0912802B09129022FBF089569
:103BC000CF92DF92EF92FF929C014FB7F8948091D1
:103BD000260290912702A0912802B09129024FBF9E
:103BE0006C017D01EE24FF24A90170E060E0C416A1
:103BF000D506E606F70638F0821B930BFF90EF9090
:103C0000DF90CF9008950197F7CF78941F921FB659
:103C10001F9211248F939F93AF93BF93809126029D
:103C200090912702A0912802B09129020196A11D2E
:103C3000B11D8093260290932702A0932802B0938F
:103C40002902BF91AF919F918F911F901FBE1F902E
:103C5000189587E797E7909301088093000888E11B
:103C60009AE00FB6F894A895809360000FBE9093E9
:103C70006000FFCFCF93DF9300D000D0CDB7DEB789
:103C80000E94651C811102C00E94021D0E94701CCE
:103C9000809308020E94781C90932B0280932A0242
:103CA0000E94741C282F30E050E040E029833A83C2
:103CB0004B835C83CA01B9010F900F900F900F9056
:103CC000DF91CF910C94E01880910D0280FF12C01B
:103CD0006091110185E0689FB00111247595679589
:103CE0007595679560387105A8F561157105A1F1A5
:103CF000862F089581FF09C06091110185E0689FBA
:103D0000B001112475956795EDCF6091110182FD89
:103D10000AC080910C028823D1F09091100160912B
:103D20001101891728F085E0689FB0011124DACFCE
:103D3000869FB001112485E0869F9001879F300DFA
:103D40001124692F70E0C9010E94CA28CBCF65E019
:103D500070E0CECF8FE7089581E0089580910D0245
:103D600080FF0CC060910F0170E0759567957595A7
:103D700067956115710549F1862F089581FF06C089
:103D800060910F0170E075956795F3CF60910F0119
:103D900082FD0BC090910C029923A1F060910E015D
:103DA00080910F01961738F0682F70E06038710528
:103DB00000F38FE70895899FC001112470E00E94ED
:103DC000CA28F4CF61E070E0D7CF81E00895803F4A
:103DD00031F40E94641E8195809311020895813F01
:103DE00019F40E94641EF8CF823F31F40E94641ED1
:103DF0008195809310020895833F19F40E94641EF8
:103E0000F8CF893F29F40E94AE1E809312020895D4
:103E10008A3F21F40E94AE1E8195F7CF8B3F31F48B
:103E20000E94AE1E81958093130208958C3F19F471
:103E30000E94AE1EF8CF843F31F480910F02816062
:103E400080930F020895853F21F480910F028260D4
:103E5000F7CF863F21F480910F028460F1CF873F36
:103E600021F480910F028860EBCF883F21F480918C
:103E70000F028061E5CF8D3F31F480910D028160AA
:103E800080930D0208958E3F21F480910D0282608F
:103E9000F7CF8F3FB9F780910D028460F1CF9091F9
:103EA0001002803F41F48091110287FD10921102AF
:103EB000992371F00895813F29F480911102181619
:103EC000ACF3F6CF823F81F497FFF2CF109210024D
:103ED0008091110290911202892B90911302892BEB
:103EE00049F710920C020895833F19F4191674F3E0
:103EF000DFCF893F39F4809112021816CCF6109268
:103F00001202D6CF8A3F29F48091120287FFD0CFC8
:103F1000F6CF8B3F39F48091130287FFC9CF1092FF
:103F20001302C6CF8C3F29F4809113021816BCF3FC
:103F3000BFCF843F31F480910F028E7F80930F02B8
:103F4000B7CF853F21F480910F028D7FF7CF863F59
:103F500021F480910F028B7FF1CF873F21F4809174
:103F60000F02877FEBCF883F21F480910F028F7E75
:103F7000E5CF8D3F31F480910D028E7F80930D024D
:103F800097CF8E3F21F480910D028D7FF7CF8F3F29
:103F900009F08ECF80910D028B7FF0CF80910802C7
:103FA00083FF7EC088EA94E00E94950380910F020F
:103FB0001F928F9383EA94E09F938F930E942E0425
:103FC00081EA94E00E94950380911002282F082E28
:103FD000000C330B3F938F938EE994E09F938F9364
:103FE0000E942E048CE994E00E94950380911102B6
:103FF000282F082E000C330B3F938F9389E994E010
:104000009F938F930E942E0487E994E00E9495036A
:1040100080911202282F082E000C330B3F938F93B0
:1040200084E994E09F938F930E942E0482E994E0A8
:104030000E94950380911302282F082E000C330B49
:104040003F938F938FE894E09F938F930E942E0469
:104050008CE894E00E94950380910C021F928F934C
:1040600089E894E09F938F930E942E0487E894E060
:104070000E94950380910D021F928F9384E894E033
:104080009F938F930E942E0481E894E00E949503F1
:104090008DB79EB74C960FB6F8949EBF0FBE8DBFDE
:1040A0008EE092E00E94930F0E94D41D90930B0229
:1040B00080930A0208951F93CF93DF9380910A02A1
:1040C00090910B020E94E01DAC0180910C022091A6
:1040D000120130E0811106C0209113019AE0299F5E
:1040E000900111244217530778F020911002C091DB
:1040F000110210911202D0911302211109C09C2FBC
:10410000912B9D2B09F06AC0DF91CF911F910895EB
:104110008F3F19F08F5F80930C02121624F40E94D7
:10412000641E809310028091100287FF05C00E94D8
:10413000641E8195809310021C1624F40E94641E54
:10414000809311028091110287FF05C00E94641EB6
:10415000819580931102309110023323A1F02091B8
:104160001102222381F045EB3403C001112499236D
:1041700069F19093100245EB24039001112433233D
:1041800049F130931102111624F40E94AE1E80935F
:1041900012028091120287FF05C00E94AE1E819517
:1041A000809312021D1624F40E94AE1E8093130207
:1041B0008091130287FF05C00E94AE1E81958093F7
:1041C0001302DF91CF911F910C94CE1F81E0809359
:1041D0001002D1CF81E080931102D5CF8F3F09F03B
:1041E00099CFAACF86E0EEE0F2E0DF011D928A953A
:1041F000E9F710920C0210920D02089580911F02AF
:1042000008959FB7F894109216029FBF90913002C4
:10421000943009F048C02091E9002F703091EC00F3
:10422000932F917030FD90E8922B23E02093E900CA
:104230002091EB0020FF34C02091EE0027FF30C01A
:1042400020911402222321F02091E80025FF28C0AC
:104250001092140226E03091E80035FF14C08093DC
:10426000F1008091E80085FD27C08091E80080FF83
:10427000FCCF8091E8008E778093E8009F70909348
:10428000E90080E0089530913002343049F43091F3
:10429000EB0035FD05C0215041F481E0809314020C
:1042A0009F709093E9008FEF0895EFE9FFE0319759
:1042B000F1F700C00000CFCF8FB7F89421E0209332
:1042C00016028FBFDBCF0F931F93CF93DF9300D0E6
:1042D0000F92CDB7DEB78C010E941A24823011F004
:1042E000843021F584E089830A831B8382E08093F4
:1042F000E9008FEF9091E800815095FD06C095EDA3
:104300009A95F1F700008111F5CF8091E80085FFC3
:104310000DC050E040E063E070E0CE0101960E94E5
:1043200037248091E8008E778093E8000F900F90FB
:104330000F90DF91CF911F910F910895CF93DF934D
:1043400000D00F92CDB7DEB79C018091300284304F
:1043500031F583E08983205831093B832A8382E049
:104360008093E9008FEF9091E800815095FD06C0A1
:1043700095ED9A95F1F700008111F5CF8091E80055
:1043800085FF0DC050E040E063E070E0CE01019693
:104390000E9437248091E8008E778093E8000F9088
:1043A0000F900F90DF91CF910895CF93DF93D82F87
:1043B000C92F0E941A24823011F0843001F582E066
:1043C0008093E9008FEF9091E800815095FD06C041
:1043D00095ED9A95F1F700008111F5CF8091E800F5
:1043E00085FF0DC050E040E066E070E08D2F9C2F0F
:1043F0000E9437248091E8008E778093E800DF9157
:10440000CF910895CF93DF93D82FC92F0E941A24FC
:10441000823011F0843049F581E08093E9008FEF1C
:104420009091E800815095FD06C095ED9A95F1F7C1
:1044300000008111F5CF8091E80085FF16C050E0A3
:1044400040E068E070E08D2F9C2F0E94372480911F
:10445000E8008E778093E80088E0ED2FFC2FA7E13D
:10446000B2E001900D928A95E1F7DF91CF91089526
:1044700080EF94E00E94950380912F02811109C082
:104480000E94BF250E941C268091E20084608093D8
:10449000E20008958CEE94E00E94950310922F02A2
:1044A000089588EE94E00C94950384EE94E00C94C7
:1044B000950380EE94E00E9495030C949C1D20913E
:1044C00015022F5F822F62E30E94BE28992319F004
:1044D00020931502089510921502809116028823E8
:1044E000F1F0809130028430C1F49091E9009F7026
:1044F0002091EC00822F817020FD80E8892B93E0D1
:104500009093E9009091EB0090FF04C09091EE0031
:1045100097FD08C08F708093E900109216020895ED
:104520001092F1009091E80095FDFACF9091E8008B
:1045300090FFF0CF9091E8009E779093E800EACF4B
:1045400042E061EC81E00E943B2542E261EC82E0C6
:104550000E943B2542E261EC83E00C943B25809174
:104560003202893089F148F4823009F49DC08330E9
:1045700009F458C0813041F008958A3009F484C0AC
:104580008B3009F46AC0089580913102813A09F0B4
:1045900048C08091E800877F8093E80080913502D1
:1045A00090913602892B61F468E087E192E070E037
:1045B0000E9486248091E8008B778093E80008951C
:1045C00060E090E080E0F3CF80913102813249F5E4
:1045D0008091350290913602029718F58091E8009B
:1045E000877F8093E8008091E80082FF16C0909159
:1045F000F3008091F200029729F48091F1008B7F03
:10460000813021F48091F10080931F028091E800B5
:104610008B778093E8000C946F2580913002811194
:10462000E2CF089580913102813AD9F78091350225
:1046300090913602892BA9F78091E800877F8093BB
:10464000E8008091E80080FFFCCF80911E018093FC
:10465000F1008091E8008E77DCCF809131028132C9
:1046600001F78091350290913602892BD1F6809125
:10467000E800877F8093E8000E946F2580913302D5
:1046800080931E010C94371580913102813249F6D6
:104690008091E800877F8093E8000E946F258091D9
:1046A000340280932002089580913102813A09F00A
:1046B000B8CF8091E800877F8093E8008091E80080
:1046C00080FFFCCF80912002C2CF84B7877F84BF58
:1046D0000FB6F894A895809160008861809360007F
:1046E000109260000FBE80E890E00FB6F8948093BF
:1046F0006100909361000FBE0E94DC0F0E94BF25F5
:104700000E941C268091E20084608093E20081E098
:1047100091E20E944C1C78940E94A3280E94E20F10
:1047200084E191E00E94360F8FEC94E00E949503A3
:1047300080913002853019F00E941210F9CF8BEC75
:1047400094E00E9495030E94541D80912E028823BC
:1047500079F30E94851D882359F30E942124E8CF14
:104760000C94B223FC01CB01DA012F2F3327233025
:104770003105D1F070F42130310509F44EC02230FA
:10478000310569F48BE590E02CE235E02D933C9304
:1047900008952132310521F12232310571F190E085
:1047A00080E030E020E0F2CFCF019927E230A9F09D
:1047B0008330910550F4009769F0E8E1F5E0019746
:1047C00071F7849190E09F01E1CFE4EFF4E003976B
:1047D000C1F3E5CFE8E2F5E0F4CFEAEFF4E0F1CFA2
:1047E00063307105E0F6880F991FFC01E35BFE4F13
:1047F0002081318189E090E0C9CF6330710578F67E
:10480000FB01EE0FFF1FE95BFE4F208131818C5BC6
:104810009E4FFC01808190E0B9CF82E190E027E8D3
:1048200035E0B4CF80913002843011F482E00895F5
:1048300081E0089580912102811102C00C9412241C
:10484000089580E189BD82E189BD09B400FEFDCFF4
:104850008091D8008F7D8093D8008091E0008260A5
:104860008093E0008091E00081FDFCCF0895AF923D
:10487000BF92CF92DF92FF920F931F93CF93DF935C
:104880006C01EB018A010E948E25F82E811123C054
:104890000115110539F0F80180819181C81BD90BF0
:1048A000C80ED91EB12CA12C2097A9F08091E80048
:1048B00085FD22C08091E8008E778093E800011585
:1048C0001105A1F0F80180819181A80EB91EB18275
:1048D000A08285E0F82E8F2DDF91CF911F910F914F
:1048E000FF90DF90CF90BF90AF9008950E948E25EB
:1048F0008823D1F2F82EEFCFF60181916F018093DA
:10490000F1002197FFEFAF1ABF0ACECFFC01CB0118
:1049100020913702309138022617370790F0009720
:1049200029F42091E8002E772093E80040E00097DA
:1049300051F4411108C08091E80082FF31C080E04D
:104940000895C901F3CF209130022223A9F1253027
:10495000A9F12091E80023FD2DC02091E80022FD5F
:10496000EACF2091E80020FFE2CF3091F3002091C0
:10497000F200009719F02830310558F041E0283056
:10498000310509F040E02091E8002E772093E800FF
:10499000CECF41914093F10001972F5F3F4FE9CF78
:1049A00080913002882341F0853041F08091E80009
:1049B00083FFC1CF81E0089582E0089583E00895E8
:1049C000FC01CB01209137023091380226173707BE
:1049D00090F0009729F42091E8002E772093E800CA
:1049E00040E0009751F4411108C08091E80082FF37
:1049F00032C080E00895C901F3CF20913002222314
:104A0000B1F12530B1F12091E80023FD2EC02091B5
:104A1000E80022FDEACF2091E80020FFE2CF3091AC
:104A2000F3002091F200009719F02830310558F07A
:104A300041E02830310509F040E02091E8002E7770
:104A40002093E800CECF44914093F1003196019736
:104A50002F5F3F4FE8CF80913002882341F08530AF
:104A600041F08091E80083FFC0CF81E0089582E0AB
:104A7000089583E00895982F973028F08F708093E1
:104A8000E90081E008959093E900242F762F50E00B
:104A9000981731F07091EC002091ED005091F000EA
:104AA00021FD02C09F5FE8CF3091EB003E7F309345
:104AB000EB003091ED003D7F3093ED003091EB0045
:104AC00031603093EB007093EC002093ED00509335
:104AD000F0002091EE0027FDE5CF80E00895809161
:104AE000310287FF13C08091E80082FF06C08091E9
:104AF000E8008B778093E80004C080913002811138
:104B0000F2CF0895809130028823D9F38091E80094
:104B100080FFF8CF8091E8008E77ECCF2091E40001
:104B20003091E50095E6A9012091EC00822F81707B
:104B300020FF06C08091E80080FF06C080E0089555
:104B40002091E80022FD1AC080913002882389F06C
:104B5000853089F08091EB0085FD0FC02091E40045
:104B60003091E50042175307F9F29150E1F684E0E5
:104B7000089582E0089583E0089581E008950E94F9
:104B80002D260E943526E0EEF0E080818160808352
:104B9000E8EDF0E080818F77808319BCA7EDB0E06D
:104BA0008C918E7F8C9380818F7E808310922F02D8
:104BB00008950F931F93CF93DF930E942D260E9499
:104BC0003526C8EDD0E088818F778883888180681A
:104BD000888388818F7D888319BC1092300210925F
:104BE0002C0210922E0210922D0200EE10E0F8011D
:104BF00080818B7F808388818160888342E060E050
:104C000080E00E943B25E1EEF0E080818E7F808392
:104C1000E2EEF0E080818160808380818860808323
:104C2000F80180818E7F8083888180618883DF9115
:104C3000CF911F910F910895E8EDF0E080818F7E74
:104C40008083E7EDF0E080818160808384E082BF33
:104C500081E080932F020C94D925E8EDF0E080816B
:104C60008E7F80831092E20008951092DA001092F5
:104C7000E10008951F920F920FB60F9211242F9307
:104C80003F934F935F936F937F938F939F93AF93D4
:104C9000BF93EF93FF938091E10082FF0BC080915F
:104CA000E20082FF07C08091E1008B7F8093E100EA
:104CB0000E945F228091DA0080FF19C08091D800A5
:104CC00080FF15C08091DA008E7F8093DA0080919A
:104CD000D90080FF94C080E189BD82E189BD09B41B
:104CE00000FEFDCF81E0809330020E943822809147
:104CF000E10080FF19C08091E20080FF15C0809123
:104D0000E2008E7F8093E2008091E20080618093D8
:104D1000E2008091D80080628093D80019BC85E0C1
:104D2000809330020E9455228091E10084FF29C0C7
:104D30008091E20084FF25C080E189BD82E189BDC8
:104D400009B400FEFDCF8091D8008F7D8093D800FC
:104D50008091E1008F7E8093E1008091E2008F7E60
:104D60008093E2008091E20081608093E200809174
:104D70002C02882309F449C084E0809330020E9409
:104D800059228091E10083FF29C08091E20083FFD6
:104D900025C08091E100877F8093E10082E08093CD
:104DA000300210922C028091E1008E7F8093E1000E
:104DB0008091E2008E7F8093E2008091E20080612A
:104DC0008093E20042E060E080E00E943B25809119
:104DD000F00088608093F0000E945122FF91EF91D3
:104DE000BF91AF919F918F917F916F915F914F9103
:104DF0003F912F910F900FBE0F901F90189519BCE7
:104E0000109230020E944A2272CF8091E30087FD07
:104E100002C081E0B2CF83E0B0CF1F920F920FB6F5
:104E20000F9211242F933F934F935F936F937F9330
:104E30008F939F93AF93BF93CF93DF93EF93FF93A2
:104E4000D091E900DF708091EC00C82FC17080FD27
:104E5000C0E81092E9008091F000877F8093F00015
:104E600078940E9451271092E9008091F0008860A8
:104E70008093F000CD2BCF70C093E900FF91EF91AC
:104E8000DF91CF91BF91AF919F918F917F916F9162
:104E90005F914F913F912F910F900FBE0F901F90F8
:104EA00018951F93CF93DF93CDB7DEB7AA970FB6B0
:104EB000F894DEBF0FBECDBF81E392E0FC01019606
:104EC0002091F100208322E089339207B9F70E94F4
:104ED000AF228091E80083FF1EC180913102909142
:104EE00032029A3008F017C1E92FF0E0E55BF34D8C
:104EF0000C94DE28803899F0823809F00CC180913A
:104F000035028F70873008F006C18093E9008091E8
:104F1000EB0085FB882780F91092E90006C080919C
:104F20002D0290912E02911182609091E800977F5E
:104F30009093E8008093F1001092F1008091E800D6
:104F40008E77E5C0882309F4D3C0823009F0E3C02E
:104F5000809133028111D6C0809135028F702FEF7E
:104F6000280F263008F0D7C08093E9002091EB008D
:104F700020FFC8C0933031F48091EB0080628093B1
:104F8000EB00C0C09091EB0090619093EB0021E0AA
:104F900030E001C0220F8A95EAF72093EA001092D0
:104FA000EA008091EB008860EACF8111B4C01091D3
:104FB00033021F778091E3008078812B8093E30098
:104FC0008091E800877F8093E8000E946F258091A0
:104FD000E80080FFFCCF8091E30080688093E300CD
:104FE00082E0111183E08093300295C080588230B6
:104FF00008F091C080913302909134028C3D23E0FF
:105000009207A1F583E08A838AE289834FB7F894F7
:10501000DE01139620E03EE051E2E32FF0E05093F2
:105020005700E49120FF03C0E295EF703F5FEF70FF
:105030008E2F90E0EA30C0F0C7968D939D932F5F3E
:10504000243159F74FBF8091E800877F8093E800B3
:105050006AE270E0CE0101960E9486248091E80009
:105060008B778093E80057C0C096E7CF60913502F8
:1050700070913602AE014F5F5F4F0E94B023BC01BA
:10508000892B09F448C08091E800877F8093E8006D
:1050900089819A810E94E024E1CF8038E1F58091F6
:1050A000E800877F8093E80080912C028093F100D4
:1050B00045CF811130C090913302923060F58091DC
:1050C000E800877F8093E80090932C020E946F2570
:1050D00080912C02882311F084E005C08091E300C8
:1050E00087FDFACF81E0809330020E94A02213C096
:1050F00080913302813079F481E0933009F080E0CF
:1051000080932E021092E9008091E800877F8093BF
:10511000E8000E946F258091E80083FF0AC080911B
:10512000E800877F8093E8008091EB0080628093A5
:10513000EB00AA960FB6F894DEBF0FBECDBFDF918D
:10514000CF911F910895CF93809130028823A1F0D1
:10515000C091E900CF709091EC00892F817090FD93
:1051600080E8C82B1092E9008091E80083FD0E943E
:105170005127CF70C093E900CF910895991B79E032
:1051800004C0991F961708F0961B881F7A95C9F7D7
:105190008095089597FB072E16F4009407D077FDAD
:1051A00009D00E94E42807FC05D03EF49095819533
:1051B0009F4F0895709561957F4F0895EE0FFF1FE3
:1051C0000590F491E02D0994AA1BBB1B51E107C087
:1051D000AA1FBB1FA617B70710F0A61BB70B881F87
:1051E000991F5A95A9F780959095BC01CD01089516
:1051F000AEE0B0E0EEEFF8E20C94F42B0D891E89DE
:105200008F89988D26E02C831A83098397FF02C02B
:1052100080E090E801979E838D83AE01455E5F4FED
:10522000698D7A8DCE0101960E9428294D815E817B
:1052300057FD0AC02F813885421753070CF49A0195
:10524000020F131FF80110822E96E4E00C94102C2C
:10525000AFE0B0E0EEE2F9E20C94E62B7C013B011A
:105260008A01DC0117961C921E92169713968C9158
:1052700081FFC3C19AE0292EFE0131964F01D7016B
:1052800013969C91F30193FD859193FF81913F01CA
:10529000882309F448C1853239F493FD859193FF41
:1052A00081913F01853229F4B70190E00E94162BCD
:1052B000E6CFB12C412C512CBFE1B51538F08B3223
:1052C00009F188F4803201F1833221F157FC3AC0B0
:1052D00020ED280F2A3040F556FE1FC0B29C200D4D
:1052E0001124B22E06C08D3291F0803379F7689484
:1052F00050F8F30193FD859193FF81913F01811156
:10530000DBCF20C0689451F8689452F8F2CF6894CB
:1053100053F8EFCF689454F8ECCF429C200D112441
:10532000422E689455F8E5CF8E3229F456FCFBC026
:10533000689456F8DECF8C3619F4689457F8D9CFB4
:105340008836B9F2982F9F7D95549330C0F08336FC
:10535000A1F18337C1F1833509F05BC0D801CD904D
:10536000DD908D016B2D70E056FC02C06FEF7FEF7A
:10537000C6010E94002B5C01689457F80AC00C5FBC
:105380001F4FEFE3E983AA24A394B12C6401E894AE
:1053900057F853FC04C04A141B0409F018F5342CC8
:1053A000A114B10431F5332009F469CFB70180E2CB
:1053B00090E00E94162B3A94F6CFD8018C91898305
:1053C0000E5F1F4FE0CFF801C190D1908F016B2D80
:1053D00070E056FC02C06FEF7FEFC6010E940B2BFE
:1053E0005C01D5CFB70180E290E00E94162B4A9471
:1053F000D2CFF60157FC859157FE81916F01B7011D
:1054000090E00E94162B31103A94B1E0AB1AB1082B
:10541000C7CF843619F0893609F074C0F80157FEF9
:105420006AC061917191819191918F01E52DEF7623
:10543000DE2E97FF09C090958095709561957F4FFE
:105440008F4F9F4F6894D7F82AE030E0A4010E9464
:10545000462BC82EC818AC2C5D2CD6FE0CC0E89488
:1054600050F8CB1440F4D4FE05C0D2FC03C05D2D2F
:105470005E7E552EAB2C54FE98C0FE01EC0DF11D46
:105480008081803309F08AC0652D697E562E752D86
:105490007870372E53FC98C050FE92C0BC2CA414D8
:1054A00018F44C0CB42CBA1854FE94C0B70180E325
:1054B00090E00E94162B52FE09C088E790E051FE52
:1054C00002C088E590E0B7010E94162BCB1408F4C7
:1054D0008DC0CA94D12C8FEFC81AD80AC80CD91C19
:1054E000D6018E916D01B70190E00E94162B8C14AD
:1054F0009D04B1F758CF61917191072E000C880B74
:10550000990B93CFD52CE894D4F82AE030E0853776
:1055100039F1F52DF97FDF2E8037A9F058F4883561
:10552000A9F08F36D9F0F701868197812F96E2E1B5
:105530000C94022C8837B9F7D4FE02C06894D2F8D4
:1055400020E130E00DC06894D4F8F6CF54FE03C0DB
:105550002F2F2660D22E20E132E002C028E030E07A
:10556000F801D7FE15C041915191619171914C871D
:105570005D876E877F878F01A4016C857D858E8511
:105580009F850E94462BC82EC818E894D7F863CF91
:1055900081919191AC0170E060E0E9CF52FC02C0D2
:1055A000A39475CFA394A39472CF852D867809F424
:1055B0006ECFF6CFB70180E290E00E94162BA39445
:1055C000A414C0F3312C70CF342C3A18A41408F46E
:1055D0006BCFF8CF852D867809F478CF8BE251FE1A
:1055E00080E257FC8DE2B70190E06ECFB70180E317
:1055F00090E00E94162BBA9469CF8FEF9FEF96CF61
:10560000FC010590615070400110D8F7809590958D
:105610008E0F9F1F0895FC01615070400190011092
:10562000D8F7809590958E0F9F1F08950F931F9325
:10563000CF93DF93182F092FEB018B8181FD09C0D8
:105640001FEF0FEF812F902FDF91CF911F910F91BF
:10565000089582FF14C02E813F818C819D8128177F
:1056600039073CF4E881F981CF0101969983888359
:1056700010838E819F8101969F838E83E3CFE8857F
:10568000F985812F0995892BA1F3DACFFA01AA2791
:10569000283051F1203181F1E8946F936E7F6E5F75
:1056A0007F4F8F4F9F4FAF4FB1E03ED0B4E03CD023
:1056B000670F781F891F9A1FA11D680F791F8A1F06
:1056C000911DA11D6A0F711D811D911DA11D20D06D
:1056D00009F468943F912AE0269F11243019305D27
:1056E0003193DEF6CF010895462F4770405D419318
:1056F000B3E00FD0C9F7F6CF462F4F70405D4A3365
:1057000018F0495D31FD4052419302D0A9F7EACF2C
:10571000B4E0A6959795879577956795BA95C9F75B
:1057200000976105710508959B01AC010A2E06944E
:105730005795479537952795BA95C9F7620F731F07
:10574000841F951FA01D0895F999FECF92BD81BDBC
:10575000F89A992780B50895A8E1B0E042E050E0BA
:105760000C94D82B262FF999FECF92BD81BDF89AC3
:10577000019700B4021639F01FBA20BD0FB6F89495
:10578000FA9AF99A0FBE08950396272F0E94B32B19
:105790000E94B22B252F0E94B32B242F0C94B32BE5
:1057A0000196272F0E94B32B0C94B22BDC01CB0166
:1057B000FC01F999FECF06C0F2BDE1BDF89A319621
:1057C00000B40D9241505040B8F708952F923F9287
:1057D0004F925F926F927F928F929F92AF92BF9201
:1057E000CF92DF92EF92FF920F931F93CF93DF93AD
:1057F000CDB7DEB7CA1BDB0B0FB6F894DEBF0FBE0A
:10580000CDBF09942A88398848885F846E847D8456
:105810008C849B84AA84B984C884DF80EE80FD8058
:105820000C811B81AA81B981CE0FD11D0FB6F894CE
:10583000DEBF0FBECDBFED010895F894FFCF5E0D22
:10584000640D680D760D7A0D7E0D820D880D900D1C
:10585000940D980D9C0DA80DAC0DB00DB40DBA0DA6
:10586000D80DC20D6C0D720DA00DA40D8C0DBE0DCA
:10587000CE0DE10DE50D8D128D12EF12EF124413D6
:105880006013BD12BD12A413571468146814C91410
:10589000BD12BD12D2147A27A2278B28A2278B28EB
:0A58A000D527F6278B284D2859283C
:1058AA00016B01006C01066C01960001FD012808DC
:1058BA001402100AFE200222D5219E21632101F63C
:1058CA00F73133323697C634929400000000000A4A
:1058DA0025640A0000FF0100010000FFFF0000012B
:1058EA000001FF004085224006BB0599053E055789
:0458FA000570050030
:00000001FF
