:100000000C9404030C940A0E0C944B030C944B03B5
:100010000C944B030C944B030C944B030C944B0328
:100020000C944B030C944B030C94BC250C948F261E
:100030000C942A1D0C944B030C944B030C944B030F
:100040000C944B030C944B030C944B030C944B03F8
:100050000C944B030C948B1D0C944B030C944B038E
:100060000C944B030C944B030C944B030C944B03D8
:100070000C944B030C944B030C944B030C944B03C8
:100080000C944B030C944B030C944B030C944B03B8
:100090000C944B030C944B030C944B030C944B03A8
:1000A0000C944B030C944B030C944B0329001E003F
:1000B0001F002000210022002B0014001A0008005D
:1000C000150017002A0004001600070009000A00A6
:1000D000D75C1D001B000600190005000000000091
:1000E00000000404E30001512E0027002600250033
:1000F000240023002D00130012000C0018001C0027
:10010000280034000F000E000D000B00D85C3800F2
:100110003700360010001100000000000000A800A9
:1001200002512C0029001E081F082008210822085F
:100130002B0114081A082900150817082A0802516B
:100140001608060819081B087300040807083A0077
:100150001D081C08000000000000E200E300010090
:100160006F0027012601330231023300700035028F
:100170004F08520050081C01710035004F0051001B
:1001800050004C00720031000A080A0A09082A00CF
:100190000000000000000000E7002C0004091E0C15
:1001A0001F0C3C003D003E0000000000000000006D
:1001B000150A3B000000010000002F0030002B005A
:1001C000D75C1A5C00002F0230021801000000000A
:1001D000000039002C04E3006900430042004100A4
:1001E00040003F006A0044004F0A5202500A0E0AC3
:1001F0006B0045004F02510250026D006C00680018
:100200004F06500604096E000000000000000000C8
:1002100001002C0044454255473A206469736162ED
:100220006C65642E0A0044454255473A20656E616C
:10023000626C65642E0A0000000000000000002AC5
:100240002B2800000000000000000000000000005B
:10025000000029000000002C1E3420212224342616
:1002600027252E362D3738271E1F2021222324250F
:10027000263333362E37381F0405060708090A0BC4
:100280000C0D0E0F101112131415161718191A1B36
:100290001C1D2F3130232D350405060708090A0BD4
:1002A0000C0D0E0F101112131415161718191A1B16
:1002B0001C1D2F3130354C000000000000000000F4
:1002C000000000000000000000000000000000002E
:1002D000000000000000000000000000000000001E
:1002E000000000000000000000000000000000000E
:1002F00000000000000000000000000000000000FE
:1003000000000000000000000000000000000000ED
:1003100000000000000000000000000000000000DD
:1003200000000000000000000000000000000000CD
:1003300000000000000000000000000000000000BD
:1003400000000000000000000000000000000000AD
:100350000000000000000000010101010101000196
:10036000010101000000000000000000000000008A
:100370000001000100010101010101010101010170
:10038000010101010101010101010101010101015D
:100390000101000000010100000000000000000059
:1003A000000000000000000000000000000000004D
:1003B000000001010101000A0025303862003A20E6
:1003C0000025303258000A722F6320303132333426
:1003D0003536370A000A002530325820006B65791F
:1003E000626F6172645F7265706F72743A20000AA6
:1003F0000025303258006B6579626F6172645F73FB
:1004000065745F6C65643A2000290A002575002F29
:10041000002575005D28002564002000256400206B
:100420000025640020002564007C0025303258003F
:100430006D6F7573656B6579205B62746E7C782077
:1004400079207620685D287265702F61636C293A87
:10045000205B005B735D004B6579626F61726420A5
:1004600073746172742E0A005B575D005B535D000C
:100470005B525D005B445D005B435D000403300044
:1004800000001C03490072006900730020004B004B
:100490006500790062006F00610072006400000076
:1004A0000E034B0065006500620069006F000000EC
:1004B0000403090409025B00030100A0FA09040017
:1004C0000001030101000921110100012240000780
:1004D00005810308000A0904010001030000000966
:1004E00021110100012285000705820320000A096D
:1004F0000402000203000000092111010001222270
:1005000000070583032000010705030320000112F3
:100510000110010000000810CB5612000201020376
:10052000010631FF0974A1010975150026FF009528
:1005300020750881020976150026FF0095207508B0
:100540009102C005010902A10185020901A100056E
:1005500009190129051500250195057501810295E7
:1005600001750381010501093009311581257F9548
:10057000027508810609381581257F950175088166
:1005800006050C0A38021581257F9501750881063C
:10059000C0C005010980A10185031A81002A8300DA
:1005A000160100260300950175108100C0050C0995
:1005B00001A10185041A01002A9C02160100269C53
:1005C00002950175108100C005010906A10105070A
:1005D00019E029E7150025019508750181029501AB
:1005E000750881010507190029FF150026FF0095F0
:1005F0000675088100050819012905950575019101
:1006000002950175039101C011241FBECFEFDAE0FE
:10061000DEBFCDBF04B603FE27C0809138029091A3
:100620003902A0913A02B0913B028730904BA7402B
:10063000B04BD1F4109238021092390210923A0263
:1006400010923B0214BE84B7877F84BF0FB6F89424
:10065000A89580916000886180936000109260008E
:100660000FBEE0E0F8E3099511E0A0E0B1E0EEEAAA
:10067000F7E502C005900D92A435B107D9F722E045
:10068000A4E5B1E001C01D92A833B207E1F70E94D2
:10069000EB220C949F2B0C940000FF93EF93E091BE
:1006A0005401F0915501309709F00995EF91FF91B0
:1006B0000895FC018591803011F0EFDFFBCF0895A4
:1006C000FF27E0E230E247FF0CC0419597FF09C0E9
:1006D000EDE26095709580959095611D711D811D6D
:1006E000911D27FF02C0219530E350E2AA27660F33
:1006F000771F881F991FAA1FA41710F0A41B6395CA
:100700005A95A9F7AA3008F0A95FA05DAF93F395B9
:10071000611571058105910541F7ED3211F4EF93F3
:10072000F395F21718F43F93F395FBCF8F91B5DF54
:10073000FA95E1F70895E991F9918591803021F0DA
:10074000853219F0AADFF9CF089520E0E894559199
:100750005532C1F3503311F4689455915A3348F42B
:10076000505390F3220F022E220F220F200D250F3F
:10077000F4CF0EF4219589919991533619F353379B
:1007800029F1533559F1BC0188279927E8945C3643
:1007900021F48991999168945591543639F446EF32
:1007A0007EF077FF0DC08FEF9FEF0AC055374AE00C
:1007B00039F0583540E121F0523642E009F0089511
:1007C000FF93EF937DDFEF91FF91B7CFFF93EF930F
:1007D000FC0181918030B9F360DFFBCFFF93EF9391
:1007E00068DFF1CFDF93CF93CDB7DEB72596A3DFD8
:1007F000CF91DF9108958091F20181FF06C08AEFC9
:10080000611101C089EF0C94B91182FF05C08EE21D
:100810006111F9CF8DE2F7CF89EA6111F4CF8AEA4D
:10082000F2CFCF93DF939C01FB019A9581159F41F5
:1008300060F5E901CC27D170D901AA27B270B901BE
:1008400066277470A9014427587034FF10C080E1F6
:10085000CD2B09F480E0AB2B09F08062672B09F007
:100860008064452B09F08068DF91CF91099481E085
:10087000CD2B09F480E0AB2B09F08260672B09F0E7
:100880008460452B89F38860EFCFDF91CF91089585
:10089000CF93DF93EC01805E9109089720F069E91E
:1008A00074E1209711F46CEC71E1CE010E94110407
:1008B0008C2FDF91CF910C945A10CF93DF93EC01E2
:1008C0000E946311CE01805E9109089720F060EAD2
:1008D00074E1209711F463ED71E1CE01DF91CF91C6
:1008E0000C941104CF93DF93D82FC92F0E94480492
:1008F0008D2F9C2FDF91CF910C945D0481E00895A2
:1009000081E008950C9480041F93CF93DF9300D06F
:1009100000D00F92CDB7DEB749835A836B83209105
:10092000910189819A8121111BC06623A9F00E943F
:10093000831A182F682F89819A810E942A1A698147
:100940007A81812F0F900F900F900F900F90DF9171
:10095000CF911F910C94D0050E94591A182FEFCFF8
:100960000E94831A69817A81EDCFFC014081518117
:100970006281738184810C9484041F93CF93DF93ED
:1009800090E0FC01E95CFD4F1491FC01E95CFC4F37
:10099000D49189549D4FFC01C491DD2319F081EE5F
:1009A0000E945A10CC2319F086EE0E945A10812F13
:1009B0000E94B911CC2319F086EE0E946311DD2349
:1009C00031F081EEDF91CF911F910C946311DF9193
:1009D000CF911F910895EF92FF921F93CF93DF93D2
:1009E000EC01162F8881882339F17E019FEFE91AE7
:1009F000F90A813041F4C9818C2F0E945A108C2F42
:100A00000E94631105C0823079F489810E945A10D6
:100A1000E7012196812F815028F3EFE9FFE031971C
:100A2000F1F700C00000F7CF833011F48981E8CFDF
:100A30000E94BD047E01ECCFDF91CF911F91FF900A
:100A4000EF90089560E00C94EB040E94EB1B811181
:100A500002C00E94881C0E94A60B0C9485080E946C
:100A6000BF0B0C94880808950C94330581E0089519
:100A70000C943605CF93C82F0E9434058C2FCF914C
:100A80000C94380508950E94BD140E9442052FEF72
:100A900084E39CE0215080409040E1F700C00000DA
:100AA00087E797E790930108809300080C94AF1DA7
:100AB0000F931F93CF93DF93EC010E94B5048C0139
:100AC000BE010E948204882319F1BE01C8010E9460
:100AD000070B8823E9F0BE01C8010E94510C88234E
:100AE000B9F0BE01C8010E94950C882389F08A8163
:100AF000882349F101308CE5180781F00E3D8CE523
:100B00001807F1F001158CE51807E9F40E94430578
:100B100080E0DF91CF911F910F910895909107028E
:100B2000892F8E7F90FF81608093070280FF05C030
:100B300086E292E00E945903EBCF84E192E0FACF83
:100B40000E94881CE5CF06311C45F9F40E94201B49
:100B50009A81992381F08A7A91E009F490E0909348
:100B60005601811106C089E20E94FB1A0E946F1B88
:100B7000CFCF85E3F9CF80915601811104C089E27E
:100B80000E94021BF3CF85E3FBCFCE01DF91CF9113
:100B90001F910F910C947E0490E080E008950895D9
:100BA000972F70E026E0929F600D711D1124FB01CC
:100BB0009CE3899FE00DF11D1124EE0FFF1FE4550A
:100BC000FF4F859194910895FC01EE0FFF1FE954AA
:100BD000FC4F859194910895CF93DF930E94D005A7
:100BE0000E94A907EC01811520E5920708F0A3C037
:100BF000811530E4930708F012C1803E910508F09A
:100C000079C0803C910508F0FEC0883A910580F4D7
:100C1000853A910508F0ECC08130910509F47BC05C
:100C20000497813A910508F476C0D0E0C0E073C023
:100C30008F3B9105D1F3883A910509F445C1893A72
:100C4000910509F444C18A3A910509F443C18B3AEC
:100C5000910509F442C18C3A910509F441C18B3BDD
:100C6000910509F440C18C3B910509F43FC18D3ACF
:100C7000910509F43EC1803B910509F43DC18E3ACE
:100C8000910509F43CC18F3A910509F43BC1813BC0
:100C9000910509F43AC1823B910509F439C1833BBE
:100CA000910509F438C1843B910509F437C1853BAE
:100CB000910509F436C1863B910509F435C1873B9E
:100CC000910509F434C1883B910509F433C1893B8E
:100CD000910509F432C18D3B910509F431C18E3B78
:100CE000910509F430C18A3B910509F42FC1C0E098
:100CF000D4E411C0811540E2940788F48F3F910538
:100D000009F048F4883E910530F0805F9109D06584
:100D1000409708F08ACFCE01DF91CF910895C11599
:100D200080E3D80708F475C0CE019927D3FD74C0BD
:100D3000EC01D06CF0CFC11595E5D90760F5C11570
:100D400024E5D20708F09CC0C11533E5D30778F439
:100D5000C11542E5D40708F082C0C11581E5D80766
:100D600008F460C0DC2FCC27C16FD06AD4CFCE018D
:100D70008370992721E030E002C0220F331F8A954B
:100D8000E2F7C695C69590E2C99FE0011124C22BF7
:100D9000D32BDA68C0CFC1152AE5D207B0F4C1154C
:100DA00039E5D30708F07CC0C11546E5D40708F43F
:100DB0006CC0CE0198558F3F910511F008F035CFEA
:100DC000DC2FCC27C06FD06AA6CFCE0190568115FC
:100DD000904208F02ACF8D2F8F710E94410890E039
:100DE000982F882788279F719C012C2BE90156C0DA
:100DF000853A910509F462C0863A910509F061C00F
:100E0000C2E8D0E488CF805C91090E94E405EC013F
:100E100082CFCE019F70F9CFEC01D86C7CCFDF7010
:100E2000D06A79CFCE0174E0969587957A95E1F7EF
:100E300083702C2F26952695237040E2249F9001E5
:100E40001124382B8C2F8370C1E0D0E002C0CC0F6E
:100E5000DD1F8A95E2F7C22BD32BDC685CCFCE0175
:100E60008370992721E030E002C0220F331F8A955A
:100E7000E2F7C695C69580E2C89FE0011124EBCF4A
:100E8000DC2FCC27C46FD06A46CF8C2F0E9441083C
:100E9000C82FD0E0DC2FCC27CC27DF71D0623BCF2E
:100EA0008C2F8F700E94410834E0D695C7953A95F3
:100EB000E1F7CF70DC2FC82FD0692DCFC1E8D0E487
:100EC0002ACFC3E8D0E427CFC2EED4E424CFC9EEC2
:100ED000D4E421CFCAEED4E41ECFC5EBD4E41BCFBB
:100EE000C6EBD4E418CFC3EBD4E415CFC4EBD4E401
:100EF00012CFC7EBD4E40FCFCCECD4E40CCFCDECC5
:100F0000D4E409CFC3E8D5E406CFCAE8D5E403CFDB
:100F1000C2E9D5E400CFC4E9D5E4FDCEC1E2D6E410
:100F2000FACEC3E2D6E4F7CEC4E2D6E4F4CEC5E20C
:100F3000D6E4F1CEC6E2D6E4EECEC7E2D6E4EBCEFE
:100F4000CFE6D4E4E8CEC0E7D4E4E5CECAE2D6E406
:100F5000E2CE803E910599F1C8F48133910509F400
:100F600076C048F48932910509F46AC08A32910545
:100F700009F474C0089589339105D1F08238910540
:100F8000B9F08533910509F454C00895843E910564
:100F900099F138F4823E9105F9F0833E910509F10B
:100FA0000895863E910599F1873E9105B9F108951E
:100FB000209129022370A1F080EE90E00895209105
:100FC000290220FD52C030912A0230FF09C024FFBF
:100FD0004FC090E080E004C02091290222FDF7CFAD
:100FE00008952091290222FD46C030912A0230FD49
:100FF000E3CF24FFF5CFEDCF20912A0221FFF0CFE0
:101000008091290284FDE5CF87EE90E0089520913C
:10101000290223FFE5CF24FDDCCFF6CF2091290262
:1010200023FD2CC030912A0231FFE3CF84EE90E003
:1010300008952091290225FFD3CF89E290E00895F9
:101040002091290225FFCCCF85E390E008952091DF
:10105000290226FFC5CF8AE290E008952091290257
:1010600026FFBECF81E390E0089589E390E00895E4
:1010700083EE90E0089582EE90E0089586EE90E091
:1010800008959091290292FF06C0282F28712830D8
:10109000F9F4877F846093FF06C0282F28712831D8
:1010A000F1F4877E846120912A0220FF06C0382F48
:1010B00038713830D9F4877F816021FF06C0282F2E
:1010C00028712831D1F4877E816194FD877E08954F
:1010D000282F24712430F9F68B7F8860DCCF282FED
:1010E0002471243101F78B7E8861DDCF382F317177
:1010F000313019F78E7F8860E0CF282F21712131A0
:1011000021F78E7E8861E1CF08950C9484080895BC
:101110000C9487080895E82FF0E0E35AFE4F808191
:101120000895CF92DF92EF92FF920F931F93CF9388
:10113000DF9386EC93E00E9459038DE5E82E81E071
:10114000F82ED0E0C0E091ECC92E93E0D92E09EB47
:1011500013E0DF93CF93DF92CF920E94F2038EEBE6
:1011600093E00E945903F70181917F010E94D71BF0
:101170001F928F931F930F930E94F20387EB93E0CC
:101180000E94590321968DB79EB708960FB6F89422
:101190009EBF0FBE8DBFCA30D105D9F6DF91CF916A
:1011A0001F910F91FF90EF90DF90CF900895CF9314
:1011B000DF930E94450A809100018091000195E033
:1011C000811190E09093220285E0891B8093210297
:1011D000A5E2B1E061E070E08D91E82FE295EF705B
:1011E000F0E041A18F709B0101C0220F8A95EAF7C0
:1011F000922F9095942391A382A1822B82A381E0C8
:10120000AA32B80749F7AFE1B1E045E251E0C1E0E9
:10121000D0E08D91E82FE295EF70F0E061A18F7042
:101220009E0101C0220F8A95EAF7922F909596238E
:1012300091A382A1822B82A34A175B0751F7EDE5A8
:10124000F1E087E691E011928E179F07E1F785E0C4
:101250000E94EE09DF91CF910C9425056F927F9249
:101260008F929F92AF92BF92CF92DF92EF92FF92B6
:101270000F931F93CF93DF9328E531E045E2E42EEF
:1012800041E0F42E712CCC24C394D12CE901799146
:101290009E01DE011E92F70181917F01E82FE29508
:1012A000EF70F0E091A18F70860101C0000F8A9568
:1012B000EAF7892F802B81A382A1602E609486217A
:1012C00082A380EA8A95F1F79FE1A92E91E0B92ED9
:1012D00050E040E0E50169915E01862E82948FE046
:1012E0008822912CE40188A190E06F7002C095954E
:1012F00087956A95E2F7812C80FD06C04601042E91
:1013000001C0880C0A94EAF78C91882A8C924F5F6E
:101310005F4F46305105F1F681A1862181A382A15C
:10132000082B02A381E09C91971301C080E0782AEA
:10133000D1E02D353D0709F0A9CF6091220270E080
:10134000635A7E4F272D45E088E591E00E94EF0922
:10135000872DDF91CF911F910F91FF90EF90DF903C
:10136000CF90BF90AF909F908F907F906F90089597
:10137000CF930E942E09C82F0E94250A882311F1BD
:101380008091210290E0835A9E4F0E945C0A811155
:1013900016C0909157019F5F90935701963050F07F
:1013A000E0912102F0E0E35AFE4F10821182128296
:1013B000138214820E942F058C2FCF9108951092D2
:1013C0005701F8CF8091220290E0835A9E4F0E94ED
:1013D0007B0A0E94BF0B0E948A08EECF0895FF92FD
:1013E0000F931F93CF93DF93F82E092F162FD72F2C
:1013F000C42F222349F081E0809369010E945A1D85
:101400009093680180936701809169018823A1F01E
:1014100080916701909168010E94661D069760F0B7
:10142000EF2DF02FA12FBD2FCE0FDF2FD11DEC17E9
:10143000FD0741F410926901DF91CF911F910F9147
:10144000FF90089581918D93F2CF80916A0181116F
:1014500010C08091D80080618093D8008AE18A957D
:10146000F1F700C09091D900917082E0891B8093C0
:101470006A0181E090916A01913009F080E008955D
:101480000E94250A91E0892708950E94400A8093CE
:1014900000010E94250A81110C94500A0C94560AEE
:1014A00061E070E081E091E00C94BB0D61E070E0E0
:1014B00081E091E00C94C20DCF93DF93D82FC92F18
:1014C0000E945C0E9C0180E02115310589F4ED2F0E
:1014D000FC2FD901A459BE4F8C9181932F5F3F4FB0
:1014E00025303105B1F781E791E00E94DE0B81E004
:1014F000DF91CF910895FC0190E080E02191DC0123
:10150000A459BE4F2C93019685309105B9F781E718
:1015100091E00C94D90B0F931F93CF93DF93CDB72A
:10152000DEB728970FB6F894DEBF0FBECDBF80910F
:101530000A018F93809109018F938FE291E09F932D
:101540008F931F9288E08F938E010F5F1F4F1F9321
:101550000F930E947A28C8010E9422050FB6F894C2
:10156000DEBF0FBECDBF28960FB6F894DEBF0FBE0C
:10157000CDBFDF91CF911F910F910895CF93DF934E
:10158000D82FC92F0E945A1D909375018093740122
:10159000D0937201C0937301DF91CF910895809130
:1015A000720190917301892BE1F080917401909107
:1015B00075010E94661D2091090130910A012817CA
:1015C000390780F4809172019091730192600E94BA
:1015D00072041092750110927401109273011092AE
:1015E00072010895809172010E94B911F2CF109298
:1015F0000B010C94CF0A80910B01882321F01092EB
:101600000B010C94CF0A81E080930B0108951F9386
:10161000CF93DF93EC01FB011281112309F464C025
:1016200089319C4509F456C0CA318CE5D807B0F51C
:10163000C731ECE5DE0709F43FC0809109019091C4
:101640000A010597C831FCE5DF07D9F1C933D10597
:1016500008F5CD32D10530F4C832D105A8F4C43034
:10166000D105A8F00E94CF0A80910B01882369F16F
:101670000E94201B811129C0CE010E94BE0A82E077
:101680000E94BA1B10E021C0CB32D10559F30E9451
:10169000CF0A1BC0C436D10529F3F9CFCB318CE575
:1016A000D807D9F0CC31ECE5DE07D9F0CA31DC45FA
:1016B00071F70E94FB0A09C08091090190910A010B
:1016C000059690930A0180930901812FDF91CF91B4
:1016D0001F9108950E948B0AF8CF81E080930B013F
:1016E000F4CF0E94F70AF1CF0E94CF0A11E0EDCFAC
:1016F0000C94FB031F93CF93DF93182FC82F880FF1
:10170000DD0B6F70E62FF0E0EC5CFE4FC858DE4F4B
:1017100080819881890F8883843024F060E0812F54
:101720000E94780B88818D3F24F461E0812F0E9414
:10173000780B9881892F837897FF03C081508C6F35
:101740008F5F8883DF91CF911F91089584988C9A41
:1017500085988D9A8FB1829581707D990EC090E0A9
:10176000892B80937A019091000181E098279093D2
:101770007701891B80937601089592E0F1CF609103
:101780007A01660F660F60937A014FB144FB882798
:1017900080F94FB145FB222720F945FF02C022E026
:1017A00030E0822B682B60937A01809177010C9452
:1017B0007A0B20917A01FC0120830895FC0160815D
:1017C000809176010C947A0B0F931F93CF93DF9344
:1017D000C62FD42F022FFC0182818823C9F0609389
:1017E0007D010E945A1D90937C0180937B0180E2D1
:1017F0008C0F883008F050C0C77081E001C0880F9E
:10180000CA95EAF7DF91CF911F910F910C94CC11FB
:1018100010917D01161335C080917B0190917C0160
:101820000E94661D883C910560F5C0E2CD0F1D1732
:10183000B9F080E2810F883040F4177081E001C078
:10184000880F1A95EAF70E94D311C83048F481E056
:101850009D2F977001C0880F9A95EAF70E94CC11CE
:10186000802F0E94B911C830B8F4D77081E001C050
:10187000880FDA95EAF7DF91CF911F910F910C94C1
:10188000D31180E28C0F883038F4C77081E001C03A
:10189000880FCA95EAF7EFCFDF91CF911F910F9193
:1018A00008959C01CB01233F4CE5340769F190F486
:1018B000283DFCE53F0721F1293D4CE5340781F146
:1018C000273D3C45B1F0FC018281882361F11092F3
:1018D0007D010895253FFCE53F07D1F0263F4CE50B
:1018E0003407D1F0243F3C4571F727E245EE64EE22
:1018F00003C026E241EE61EE0E94E40B80E0089511
:1019000027E245EE65EEF8CF26E241EE60EEF4CF39
:1019100026E241EE62EEF0CF27E245EE66EEECCF36
:1019200028E241E0EFCF81E008951F93CF93DF934A
:10193000EC01FB011281112309F4BCC00E94FE1BC3
:1019400090932A0280932902C631FCE5DF07B0F4A8
:10195000C2308CE5D80728F4812FDF91CF911F91F9
:101960000895FE01E350FC45809129028160E33136
:10197000F10588F4EF55F44D0C946028CA5FDC45FE
:10198000C930D10548F7CC54D44DFE010C946028E1
:10199000809129028260809329028091290290918E
:1019A0002A020E940C1C0E94BD1410E0D5CF809129
:1019B00029028460F0CF809129028860ECCF809169
:1019C0002A02816080932A02E8CF80912A028260F5
:1019D000F9CF809129028061DECF80912902806257
:1019E000DACF809129028064D6CF0E94BD14809105
:1019F00029028068D0CF809129028C60CCCF809161
:101A00002A028360DFCF809129028E7FC4CF80912C
:101A100029028D7FC0CF809129028B7FBCCF80911E
:101A20002902877FB8CF80912A028E7FCBCF809109
:101A30002A028D7FC7CF809129028F7EACCF809103
:101A400029028F7DA8CF809129028F7BA4CF0E948D
:101A5000BD14809129028F779ECF80912902837FC8
:101A60009ACF80912A028C7FADCF8091290282FB90
:101A7000992790F921E0922790FB82F990FB83F956
:101A80008ACF80912A02982F909591708E7F892B12
:101A900090FB81F997CF0E94BD1490912902892F64
:101AA00097FB87F9805877CF81E00E948A1C75CF19
:101AB00080E0FBCF11E050CF8EE1489B02C0815007
:101AC000E1F7489BFECF0895589880E28A95F1F798
:101AD000589A0895FC013BE03A95F1F798E020E030
:101AE00080E031E040E14A95F1F7880F489B02C061
:101AF0008160232742E04A95F1F7000040E14A95D2
:101B0000F1F7915079F790E19A95F1F799B132E0B8
:101B10003A95F1F7000040E14A95F1F7917092276C
:101B20002081920F90830895EF92FF920F931F935D
:101B3000CF93DF930F92CDB7DEB719828C017C0172
:101B4000E60EF11C0E151F0561F481E099819111DB
:101B500080E00F90DF91CF911F910F91FF90EF9058
:101B600008950E945C0DCE0101960E946A0DF80155
:101B700081938F01E7CF90937F0180937E01509AEC
:101B8000589A089590937F0180937E015098589AB7
:101B9000E89AE9E6F0E080818C7F808308956150C7
:101BA000770B91E001C0990F6A95EAF720E031E0E8
:101BB000911108C0222391F0589A80E28A95F1F79A
:101BC00058980895492F482339F0589A232740E21E
:101BD0004A95F1F79695ECCF5898F9CF5898EDCFF4
:101BE000FF920F931F93CF93DF93EC018C01060FAD
:101BF000111DC017D10731F4DF91CF911F910F91C3
:101C0000FF900895F9900E94640D68E08F2D0E9466
:101C1000CF0DEFCF1F920F920FB60F9211242F937B
:101C20003F934F935F936F937F938F939F93AF9364
:101C3000BF93CF93DF93EF93FF935898509AC0913F
:101C40007E01D0917F016D81662321F08E819F817D
:101C50000E94F00D0E94640D80E18A95F1F758987A
:101C60005098589A80E18A95F1F76A81662309F1C4
:101C70008B819C810E94940DE881F981882311F069
:101C800088E001C082E080830E945C0DFF91EF91AB
:101C9000DF91CF91BF91AF919F918F917F916F9184
:101CA0005F914F913F912F910F900FBE0F901F901A
:101CB0001895E881F981E4CFCF93DF93C0917E013D
:101CC000D0917F01F894509A589885E08A95F1F761
:101CD00000005098589A80E28A95F1F7489B0CC012
:101CE000509A589AE881F98181E08083789481E064
:101CF00090E0DF91CF9108956D81662381F08E8110
:101D00009F810E94940D81110AC0509A589AE881CF
:101D1000F98182E08083789482E090E0EACF0E94AB
:101D20005C0D80E28A95F1F75898509A80E18A9587
:101D3000F1F76A81662321F08B819C810E94F00D6E
:101D40000E94640DE881F9811082789490E080E02F
:101D5000D0CF90938501809384010895E091840110
:101D6000F0918501309721F00190F081E02D0994E8
:101D700080E00895EF92FF920F931F93CF93DF932C
:101D80008C01E0918401F09185013097C1F10280CE
:101D9000F381E02D09958091070282FF30C080FF1A
:101DA00004C08DED93E00E945903D0E0C0E087EDC0
:101DB000E82E83E0F82E8091070280FF0EC0F80124
:101DC000EC0FFD1F80811F928F93FF92EF920E9474
:101DD000F2030F900F900F900F902196C830D1050D
:101DE00051F78091070280FF0AC085ED93E0DF91F3
:101DF000CF911F910F91FF90EF900C945903DF91B9
:101E0000CF911F910F91FF90EF900895DC01E09129
:101E10008401F0918501309739F082E08C93048041
:101E2000F581E02DCD010994089520918201309132
:101E300083012817390771F0909383018093820101
:101E4000E0918401F0918501309721F00680F781BF
:101E5000E02D099408952091800130918101281787
:101E6000390771F09093810180938001E0918401A2
:101E7000F0918501309721F00084F185E02D0994DF
:101E8000089585B7806885BF85B7806885BF089548
:101E9000089508950C94480F08950C944C0F0E94D7
:101EA000410F0E94490F0C944A0F0E94511D0E943D
:101EB000D7080E94C01D0C944D0FCF93C82F80915E
:101EC000070282FF1EC080FF1CC086EF93E00E94C5
:101ED00059038091070280FF14C01F92CF9381EFB6
:101EE00093E09F938F930E94F203809107020F90DB
:101EF0000F900F900F9080FF04C08FEE93E00E9430
:101F000059038C2FCF910C943A05BF92CF92DF9258
:101F1000EF92FF920F931F93CF93DF9300D000D0E7
:101F20000F92CDB7DEB70E94B8090E94250A882318
:101F300009F472C087E8C82E81E0D82E10E000E0D6
:101F4000E02E802F0E948B08B82EF601F1906F01D1
:101F5000F81609F45BC08091070281FD0E94910888
:101F600030E020E0FB244F2D50E0922FBA01022EEA
:101F700002C0759567950A94E2F760FF41C0298316
:101F8000EA8221E030E0790102C0EE0CFF1C9A9554
:101F9000E2F72B2D30E02E213F2181E0232B09F4A5
:101FA00080E08B830E945A1D8160782F9D838C83F3
:101FB00049815A816B818D810E942C10F801E9576B
:101FC000FE4F80818E2580830E94E11F0E94AE0E0D
:101FD00090918601891789F10E94AE0E8093860147
:101FE0000F900F900F900F900F90DF91CF911F9156
:101FF0000F91FF90EF90DF90CF90BF900C945D0F0A
:102000002F5F3F4F2630310509F0AFCF0F5F1F4FD5
:102010000A30110509F094CF8FEF89838A831B82E0
:102020000E945A1D8160782F9D838C8349815A813B
:102030006B818D810E942C10C7CF0F900F900F9055
:102040000F900F90DF91CF911F910F91FF90EF9024
:10205000DF90CF90BF900895CF93DF93CDB7DEB7D9
:102060002B970FB6F894DEBF0FBECDBF4F835887B6
:1020700069877A878B871E8285E0FE013796DE01AD
:10208000119601900D928A95E1F749815A816B81F1
:102090007C818D819E812B960FB6F894DEBF0FBE9A
:1020A000CDBFDF91CF910C944017FC0180819181CD
:1020B0000C94C51A882309F405C18238B9F40E942A
:1020C000AE0E81FDFFC089E30E94FB1A0E946F1BC8
:1020D0002FEF81EE94E0215080409040E1F700C066
:1020E000000089E30E94021B0C946F1B8338A1F44B
:1020F0000E94AE0E80FDE6C083E50E94FB1A0E949E
:102100006F1B2FEF81EE94E0215080409040E1F76B
:1021100000C0000083E5E6CF8438A1F40E94AE0E33
:1021200082FDD0C087E40E94FB1A0E946F1B2FEF34
:1021300081EE94E0215080409040E1F700C0000023
:1021400087E4D0CF9CEF980F913A18F40E94FB1AC5
:10215000CBCF90E2980F983050F4877091E001C097
:10216000990F8A95EAF7892F0E94231BBDCF9BE523
:10217000980F933070F4853A31F0863A39F083E85D
:1021800090E00C94150F81E890E0FBCF82E890E09E
:10219000F8CF98E5980F973108F08EC0883A09F487
:1021A00046C0893A09F446C08A3A09F446C08B3AD7
:1021B00009F446C08C3A09F446C08B3B09F446C08A
:1021C0008C3B09F446C08D3A09F446C0803B09F4C3
:1021D00046C08E3A09F446C08F3A09F446C0813BA6
:1021E00009F446C0823B09F446C0833B09F446C06B
:1021F000843B09F446C0853B09F446C0863B09F49C
:1022000046C0873B09F446C0883B09F446C0893B79
:1022100009F446C08D3B09F446C08E3B09F446C024
:102220008A3B09F446C090E080E00C942B0F82EECC
:1022300090E0FBCF89EE90E0F8CF8AEE90E0F5CF0A
:1022400085EB90E0F2CF86EB90E0EFCF83EB90E070
:10225000ECCF84EB90E0E9CF87EB90E0E6CF8CEC1D
:1022600090E0E3CF8DEC90E0E0CF83E891E0DDCF2C
:102270008AE891E0DACF82E991E0D7CF84E991E072
:10228000D4CF81E292E0D1CF83E292E0CECF84E25C
:1022900092E0CBCF85E292E0C8CF86E292E0C5CF54
:1022A00087E292E0C2CF8FE690E0BFCF80E790E078
:1022B000BCCF8AE292E0B9CF803F20F00E946D1E31
:1022C0000C94541F0895882309F452C0823871F485
:1022D0000E94AE0E81FF4CC089E30E94FB1A0E944F
:1022E0006F1B89E30E94021B0C946F1B833859F407
:1022F0000E94AE0E80FF3CC083E50E94FB1A0E9444
:102300006F1B83E5EFCF843859F40E94AE0E82FF35
:102310002FC087E40E94FB1A0E946F1B87E4E2CF64
:102320009CEF980F913AF0F290E2980F983050F4A9
:10233000877091E001C0990F8A95EAF7892F0E9472
:10234000291BD2CF9BE5980F933020F490E080E0DA
:102350000C94150F98E5980F973120F490E080E0E9
:102360000C942B0F803F20F00E94D51E0C94541F1C
:102370000895CF93C82F0E945A10C93349F42FEF04
:1023800087EE93E0215080409040E1F700C00000CC
:102390008C2FCF910C946311882321F00E94231B72
:1023A0000C946F1B0895882321F00E94291B0C9424
:1023B0006F1B0895AF92BF92CF92DF92EF92FF9280
:1023C0000F931F93CF93DF9300D000D00F92CDB720
:1023D000DEB76C016D837983FC01058102950F7076
:1023E000128111110E94421B0E94191BE82E8823A2
:1023F00071F01123B1F08D81805E883090F082E021
:102400000E94BA1B0E94191B91E0E82EE926A980C0
:10241000A2949FE0A922B12CF501E354F44D0C9451
:102420006028E12CF4CF09810F70F981F07F11F061
:102430000295007F1123B1F0002361F08D81805E51
:10244000883018F02D81211109C0802F0E94231B94
:102450000E946F1B8D810E945A1015C0802F0E9410
:10246000341BF6CF8D810E946311002361F08D81B2
:10247000805E883018F04D81411133C0802F0E945A
:10248000291B0E946F1B58E0A51AB10864E0A6162C
:10249000B10420F40E94AE0E0E943A05EE2009F429
:1024A0000EC20E94151B80FD0AC2F60112820E9414
:1024B0000F1B0E941A19C6010E946F140E940F1B65
:1024C0000F900F900F900F900F90DF91CF911F9171
:1024D0000F91FF90EF90DF90CF90BF90AF900C9452
:1024E0004B19802F0E943A1BCCCF59815F70F52E7B
:1024F0006981607F603219F0F29480EFF8227D816B
:10250000772369F0713049F1112391F1002351F1E2
:10251000F601858180FF9ECF8F70858323C01123B4
:1025200081F0011106C00E94561B8F290E94CC1118
:10253000AACF0130C1F70E94561B8F290E945C1B55
:10254000A2CF011106C00E94651B8F2D0E94D311DE
:102550009ACF013009F497CFF6CF112329F0063036
:1025600008F091CF8F2DE2CF053008F08CCFEDCF62
:10257000002359F3FD81F93349F42FEF47EE53E07F
:10258000215040405040E1F700C000008D810E9482
:10259000631179CF898186958695837069F0813042
:1025A00009F071CF8D8199819370111102C090E073
:1025B00080E00E942B0F67CF8D819981937011115C
:1025C00002C090E080E00E94150F5DCF112311F151
:1025D0006D81653F99F0663FB9F0643F49F48091A1
:1025E000230290912402816090932402809323021D
:1025F0008D810E946D1E0E94541F45CF8091230241
:10260000909124028260F0CF809123029091240265
:102610008460EACF7D81753F89F0763FA9F0743FF1
:1026200049F480912302909124028E7F909324029A
:10263000809323028D810E94D51EDDCF80912302DD
:10264000909124028D7FF2CF8091230290912402F9
:102650008B7FECCF8981837009F059C0111113CFA2
:102660004D81429546954770440F440F8D818F7080
:1026700090E0B0E0A0E0042E04C0880F991FAA1FCC
:10268000BB1F0A94D2F7ED8100E010E09801E4FF4F
:102690000FC00FE010E020E030E004C0000F111F79
:1026A000221F331F4A95D2F700951095209530953B
:1026B000F981F695F695F370FD83B901A801482BD1
:1026C000592B6A2B7B2B49835A836B837C83F23093
:1026D00081F0F330A9F0F13029F0CB01BA010E946A
:1026E0009018D1CE69817A818B819C810E94681873
:1026F000CACE69817A818B819C810E94B818C3CE31
:1027000069817A818B819C810E946618BCCE8695F6
:10271000112311F089818170882309F4B4CE4D8191
:10272000429546954770440F440F8D818F7090E01D
:10273000B0E0A0E0042E04C0880F991FAA1FBB1FA1
:102740000A94D2F75D8100E010E0980154FF0FC0B9
:102750000FE010E020E030E004C0000F111F221F46
:10276000331F4A95D2F700951095209530956981D1
:102770006695669563706D83B901A801482B592B46
:102780006A2B7B2B49835A836B837C835D816981B0
:102790007A818B819C81523051F0533059F0513005
:1027A00019F00E94D9196FCE0E94B1196CCE0E9407
:1027B000011A69CE0E94E41866CE69816F70698340
:1027C000112329F0862F0E941A198D81AFCE8D8199
:1027D0000E94D31189810E944B1955CE7D81723F91
:1027E000A1F160F4703FE1F0713F41F1112309F470
:1027F00045C001112FCE89818F7124C08D81833F07
:1028000049F1843F99F7112379F199819F71998357
:10281000892F0E941A1963E089810E94A51B33CE7B
:10282000112341F0053008F02ECE89818F710E946E
:10283000801929CE063008F026CEF7CF89818F7116
:10284000112349F20E941A191ECE89818F7111231A
:10285000C9F3C1CF112329F089818F710E94F51826
:1028600012CE0E94F0180FCE81E00E94BA1B0230F7
:1028700008F409CE82E00E94BA1B05CE002361F065
:10288000ED81E93309F082CEFFEF27EE43E0F1500E
:1028900020404040E1F778CE89818F719CCF4981FB
:1028A0004F706D81C6010E94CC050E94DA17EBCDF6
:1028B00049814F706D81C6010E94CF05E4CD0F9014
:1028C0000F900F900F900F90DF91CF911F910F916C
:1028D000FF90EF90DF90CF90BF90AF9008950F934F
:1028E0001F93CF93DF93EC018B819C81892B29F07F
:1028F0008881998189238F3F29F4DF91CF911F919E
:102900000F910895CE010E9458058823B1F3688184
:1029100079818A810E94D11A8C010E94291A0E9411
:102920006518B801CE01DF91CF911F910F910C94E2
:10293000DA11882321F00E94341B0C946F1B089538
:10294000882321F00E943A1B0C946F1B08950E946B
:10295000421B0E94531B0E946F1B0E9478200E9402
:10296000541F90E080E00E94150F90E080E00C94EE
:102970002B0F0E94091B0C94A7140E94311B0C946E
:10298000B914282F892F82958F70903C80F48A305B
:10299000B0F4843020F4823090F480E008958630E2
:1029A000E1F781E0283E88F0213FB9F70EC08C3076
:1029B00011F08F3091F793FB882780F9089581E01B
:1029C000203F39F018F4283E40F70895243F29F7B6
:1029D000FCCF08950E94C51A0C94C114CF93DF93C5
:1029E00000D000D00F92CDB7DEB70F900F900F90B0
:1029F0000F900F90DF91CF910895CF93DF9300D088
:102A000000D000D0CDB7DEB726960FB6F894DEBF63
:102A10000FBECDBFDF91CF9108951F93CF93DF936A
:102A2000E091920116E0809193018E1304C0DF9132
:102A3000CF911F910895CE2FD0E01E9FF001112459
:102A4000EC56FE4F40815181628173818481958172
:102A50000E94FD14FE013196E770E5CF4091C4015C
:102A60005091C5016091C6017091C7018091C80164
:102A70009091C9010C94FD141F93CF93DF93809123
:102A8000C901807FC1F48091C6018823A1F08091A3
:102A90009201C09193016091C4017091C501409170
:102AA000C7015091C801D62FD723DA01A095B09560
:102AB00016E0C81304C0DF91CF911F91089590E0F4
:102AC0004115510511F0DF3F31F401968770F1CFC8
:102AD0002A0F3B1F17C0189FF001199FF00D1124FA
:102AE000EC56FE4F21812713F0CF20812613EDCF26
:102AF00022812111EACF238134812417350740F345
:102B0000241B350B283C310500F72091C9012F709B
:102B100020612093C90126E0289FF001299FF00D34
:102B20001124E756FE4F80818F708061808384EC92
:102B300091E00E946F14DF91CF911F910C940D15BD
:102B40009F92AF92BF92CF92DF92EF92FF920F933C
:102B50001F93CF93DF93CDB7DEB72B970FB6F894C3
:102B6000DEBF0FBECDBF7C0185E0F701DE01179609
:102B700001900D928A95E1F7D7014C9111965C91E5
:102B8000119712960C9112978091C7019091C801EC
:102B9000009709F456C12091C4013091C501632FFB
:102BA00062236F3F09F44DC11396CD90DC90909055
:102BB000C601992009F405C1C816D90608F43EC01B
:102BC000F601E81BF90BCF0111E0883C910508F0F4
:102BD00010E084ECA82E81E0B82E8091C901982FD6
:102BE000907F112309F4C7C0911180C0102F3513B5
:102BF0002AC0241328C0011126C08F7080618093E1
:102C0000C9010E942E15C5010E946F148091C9014F
:102C1000D70115968C93812F2B960FB6F894DEBFB3
:102C20000FBECDBFDF91CF911F910F91FF90EF901D
:102C3000DF90CF90BF90AF909F9008958095909532
:102C40008C0D9D1DC1CFCD2829F0842F85238F3F6A
:102C500009F013C180E0B82FB170DB2EE091920132
:102C60002091930136E080FD1CC00023A1F28091E9
:102C7000C90181608093C90110E0CDCF8E2F90E013
:102C80003E9FF0011124EC56FE4F6181651306C092
:102C90006081641303C062816013E7CFFC01319649
:102CA000E770E213EBCF4F8358878F8198850E949E
:102CB000C51A292F22952F70903260F0225F2F7055
:102CC000223078F49F7051F0F7019581907F31F4B4
:102CD000D12C0AC09F7011F08823D1F3805E883018
:102CE000B8F3C7010E946F141D2D95CF351315C081
:102CF000241313C0011111C0D70115968C93C7017D
:102D00000E946F1486E0F701A4ECB1E001900D92EF
:102D10008A95E1F70E942E157ECF4F8358878F81C9
:102D200098850E94EA14882311F1002301F1809113
:102D3000C901803270F02091C4013091C5013A83FD
:102D400029831B82DD82CC828E83CE0101960E9474
:102D50006F1486E0F701A4ECB1E001900D928A9522
:102D6000E1F70E943C150E942E1511E054CFC701D7
:102D70000E946F14FACF911111C07C2DDB86CA8698
:102D8000602F8B850E94EE1484EC91E00E946F14FA
:102D900086E0F50111928A95E9F7BCCF3513BDCFD6
:102DA0002413BBCF0111B9CFD70115968C93C7015E
:102DB0000E946F1486E0F50111928A95E9F7192DAA
:102DC0002ACFC816D906C0F0B601681B790BCB0113
:102DD00010E0883C910530F5102F002341F23513A7
:102DE00010C024130EC086E0F701A4ECB1E00190FE
:102DF0000D928A95E1F70FCF809590958C0D9D1DD2
:102E0000E7CF4F8358878F8198850E94EA148111FC
:102E1000A0CF8091C90181608093C901C7010E9440
:102E20006F14F9CE7C2DDB86CA86602F8B850E94BD
:102E3000EE1486E0E4ECF1E0DF011D928A95E9F7FB
:102E400069CF002309F493CF4F8358878F819885EA
:102E50000E94EA14182F882309F489CF86E0F7012D
:102E6000A4ECB1E001900D928A95E1F784EC91E039
:102E70000E9455100E943C154DCF81E08027EBCE7B
:102E80001F93CF93DF93CDB7DEB72C970FB6F8948F
:102E9000DEBF0FBECDBF4F83588769877A878B8788
:102EA0009C87CE0107960E94A015882369F08A8529
:102EB0009B85892B39F04F815885842F85238F3F3F
:102EC00009F071C016E05FC086E0FE013796DE01B2
:102ED000119601900D928A95E1F78A859B85892B41
:102EE00089F388859F8189238F3F61F32091930126
:102EF00030E0C901019687709927409192014817E7
:102F0000190671F40E94BD1410929301109292015F
:102F100086E0E4ECF1E0DF011D928A95E9F7D2CF7B
:102F200096E0929FD001939FB00D1124AC56BE4FF6
:102F3000FE01319601900D929A95E1F780939301ED
:102F40000E940D15BFCF819FC00111248C569E4F4A
:102F50000E94A0158823E9F0E09192011E9FF001E4
:102F60001124EC56FE4F408151816281738184812E
:102F700095810E94FD148091920190E001968770E6
:102F800099278093920180919201909193018913E6
:102F9000DACF2C960FB6F894DEBF0FBECDBFDF910F
:102FA000CF911F91089569857A858B859C850E94B4
:102FB000FD1488CFEF92FF920F931F93CF93DF936F
:102FC0008C01892B89F0F12CEE24E394E801219601
:102FD000F8018491843709F457C0A0F4823009F4D1
:102FE0003EC048F48130D1F0DF91CF911F910F9115
:102FF000FF90EF9008959CEF980F9037A8F70E94EC
:103000005A100AC0853709F44CC09CE7980F9037D6
:1030100058F78F770E9463118E0116C00E5F1F4F05
:10302000FE01849190E2980F983060F48770FE2D35
:1030300001C0FF0F8A95EAF78F2F0E94451B0E945F
:103040006F1B02C00E945A108F2D815008F4BECF12
:10305000EFE9FFE03197F1F700C00000F6CF0E5F17
:103060001F4FFE01849190E2980F983050F48770C2
:10307000FE2D01C0FF0F8A95EAF78F2F0E944B1B90
:10308000DECF0E946311E0CF0E5F1F4FFE01C4919F
:10309000C150D0F28FE99FE00197F1F700C0000026
:1030A000F7CF0E5F1F4FFE01F490CECF08950C9422
:1030B00056180E9457186093F6017093F701809399
:1030C000F8019093F9010C94A71408950C945918E1
:1030D000CF93DF9300D000D0CDB7DEB769837A837A
:1030E0008B839C838091F6019091F701A091F80168
:1030F000B091F90129813A814B815C81282B392BD0
:103100004A2B5B2B29833A834B835C83CA01B90129
:103110000F900F900F900F90DF91CF910C94591852
:10312000CF93DF9300D000D0CDB7DEB769837A8329
:103130008B839C838091F6019091F701A091F80117
:10314000B091F90129813A814B815C81282339238F
:103150004A235B2329833A834B835C83CA01B901E9
:103160000F900F900F900F90DF91CF910C94591802
:10317000CF93DF9300D000D0CDB7DEB769837A83D9
:103180008B839C838091F6019091F701A091F801C7
:10319000B091F90129813A814B815C812827392737
:1031A0004A275B2729833A834B835C83CA01B90191
:1031B0000F900F900F900F90DF91CF910C945918B2
:1031C0000C9456180C94E0180E94E2186093F201D7
:1031D0007093F3018093F4019093F5010C94A7147C
:1031E00060E070E0CB010C94E4180F931F93CF9331
:1031F000DF9300D000D0CDB7DEB741E050E060E013
:1032000070E08A019B0104C0000F111F221F331FB1
:103210008A95D2F709831A832B833C83C901B801AD
:103220000F900F900F900F90DF91CF911F910F9102
:103230000C94E4180F931F93CF93DF9300D000D02A
:10324000CDB7DEB741E050E060E070E004C0440F6D
:10325000551F661F771F8A95D2F78091F2019091D2
:10326000F301A091F401B091F5018A019B01082BB3
:10327000192B2A2B3B2B09831A832B833C83C901EF
:10328000B8010F900F900F900F90DF91CF911F9189
:103290000F910C94E4180F931F93CF93DF9300D0FA
:1032A00000D0CDB7DEB741E050E060E070E004C090
:1032B000440F551F661F771F8A95D2F7409550958A
:1032C000609570958091F2019091F301A091F401C5
:1032D000B091F5018A019B01082319232A233B237E
:1032E00009831A832B833C83C901B8010F900F9087
:1032F0000F900F90DF91CF911F910F910C94E418D4
:103300000F931F93CF93DF9300D000D0CDB7DEB7DC
:1033100041E050E060E070E004C0440F551F661FBC
:10332000771F8A95D2F78091F2019091F301A091D5
:10333000F401B091F5018A019B01082719272A277A
:103340003B2709831A832B833C83C901B8010F9063
:103350000F900F900F90DF91CF911F910F910C94D0
:10336000E418CF93DF9300D000D0CDB7DEB76983E8
:103370007A838B839C838091F2019091F301A091D9
:10338000F401B091F50129813A814B815C81282BB0
:10339000392B4A2B5B2B29833A834B835C83CA01ED
:1033A000B9010F900F900F900F90DF91CF910C9477
:1033B000E418CF93DF9300D000D0CDB7DEB7698398
:1033C0007A838B839C838091F2019091F301A09189
:1033D000F401B091F50129813A814B815C81282368
:1033E00039234A235B2329833A834B835C83CA01B5
:1033F000B9010F900F900F900F90DF91CF910C9427
:10340000E418CF93DF9300D000D0CDB7DEB7698347
:103410007A838B839C838091F2019091F301A09138
:10342000F401B091F50129813A814B815C81282713
:1034300039274A275B2729833A834B835C83CA0158
:10344000B9010F900F900F900F90DF91CF910C94D6
:10345000E4180895292F220FE22FE90FEE0FE80F4D
:103460008E2F877041E001C0440F8A95EAF7E695F8
:10347000E695E69585E0E89FF0011124E653FE4FBE
:1034800030E020E070E05191DF011197CB01022E76
:1034900002C0969587950A94E2F7817081958527F9
:1034A000842385278C932F5F3F4F2530310559F7B3
:1034B0000895292F220FE22FE90FEE0FE80F9E2F1C
:1034C0009770E695E695E69585E0E89FF001112472
:1034D000E653FE4F50E040E080E0219130E0092EBD
:1034E00002C0369527950A94E2F721703327042EFF
:1034F00001C0220F0A94EAF7822B4F5F5F4F4530DD
:10350000510559F70895BF92CF92DF92EF92FF9243
:103510000F931F93CF93DF938C01C090F201D09053
:10352000F301E090F401F090F5018091F6019091A3
:10353000F701A091F801B091F901C82AD92AEA2A25
:10354000FB2ACFE1D0E0BC2ED701C6010C2E04C06F
:10355000B695A795979587950A94D2F780FD0EC0EA
:10356000219788F7B12C8B2DDF91CF911F910F916F
:10357000FF90EF90DF90CF90BF900895B8018C2F0F
:103580000E94EC05019761F3EECFCF93DF93D82F24
:10359000C92F0E94831A6D2F7C2FDF91CF910C943D
:1035A000EC051F93CF93DF93162FD72F90919101A6
:1035B000992339F0862F972FDF91CF911F910C948B
:1035C000C51A882391F0862F972F0E94831AC82F3F
:1035D000682F812F9D2F0E942A1A612F7D2F8C2FFB
:1035E000DF91CF911F910C94EC05862F972F0E94AD
:1035F000591AC82FF2CF682F80910C0190910D01BC
:103600000C94CA1C682F80910C0190910D010C94B0
:10361000CC1C80910C0190910D010C94CE1C8091DA
:10362000FA0185958595859508958091FA018770B1
:1036300008959091FA01977081E009F480E008956F
:1036400080910602089590910602982B90930602AD
:103650000895982F90958091060289238093060201
:10366000089510920602089590910502982B909368
:1036700005020895982F90958091050289238093E3
:103680000502089510920502089590910402982B66
:10369000909304020895982F9095809104028923B5
:1036A0008093040208951092040208958091FB0112
:1036B000089508950C94591B9091FB01981721F0DF
:1036C0008093FB010C945A1B08958091FB01882381
:1036D00029F01092FB0180E00C945A1B0895E091B0
:1036E0000C01F0910D01809106028083E0910C01A4
:1036F000F0910D01808190910502892B8083E091EA
:103700000C01F0910D01808190910402892B80833E
:103710009091FB01992381F0E0910C01F0910D0152
:103720008081892B808380910C0190910D010E94F2
:103730008F1C81110E94651B80910C0190910D01DD
:103740000C94BA0E08950C94A21B98E0899F9001E6
:103750001124622B6093FA010E941A198091FA01D8
:103760008595859585950C94A31B1092FA0180E0B0
:103770000C94A31B9091FA01809589238093FA0100
:10378000282F277071F4282F082E000C330B921766
:10379000130639F08595859585950E944B190C94F3
:1037A000B51B089590935501809354010895829517
:1037B00094E0899F900111242C7C869586958373D3
:1037C000282B30E0C901880F991F8A7A35952795F3
:1037D0002575822B089590E080E00E942E2B9C019D
:1037E00081E02C3E3E4F09F080E0089582E090E0B9
:1037F0000C94262B83E090E00C94262BCF9384E04E
:1038000090E00E94262BC82F81E290E00E94262B98
:10381000982F8C2FCF910895CF93682FC92F84E0D4
:1038200090E00E94342B6C2F81E290E0CF910C94B9
:10383000342BAB01BC018FE090E00C94462BAB0124
:10384000BC0183E190E00C94462B60E070E0CB017A
:103850000C941F1C60E070E0CB010E94191C0C94BA
:10386000251C6CEE7EEF90E080E00E94522B60E021
:1038700082E090E00E94342B60E083E090E00E94C0
:10388000342B1092F6011092F7011092F801109269
:10389000F90160E084E090E00E94342B60E081E276
:1038A00090E00E94342B60E085E090E00E94342B91
:1038B00060E086E090E00E94342B6FEF87E090E0BC
:1038C0000E94342B40E050E0BA0188E090E00E9472
:1038D000462B60E08DE090E00E94342B40E050E009
:1038E000BA0188E190E00E94462B60E087E190E019
:1038F0000E94342B40E050E0BA018CE190E00E943D
:10390000462B60E080E290E00E94342B0C942A1C4D
:103910000C94311C682F8EE090E00C94342BAC0199
:103920009C012E5F3F4F485F5F4F80E024173507B3
:1039300009F40895F90191919F019923B9F38F5FDB
:10394000F5CF9C01FC0132968FEF90E04191461734
:1039500051F08F3F19F4411101C0892F9F5F9630BC
:10396000A9F78F3F09F40895280F311D87FD3A9577
:10397000F901628308959C01FC013296285F3F4F54
:103980008191861303C0DF0111971C92E217F307A0
:10399000B9F708950C94A11C0C94BB1CFC01329641
:1039A00086E0DF011D928A95E9F70895089508954C
:1039B0000C94D71C0E94D81C80912F02843049F1AE
:1039C0001092080288E190E020E40FB6F894A895E0
:1039D000809360000FBE2093600080E00E943A0553
:1039E0000E94D81C83B7817F846083BF83B78160C6
:1039F00083BF7894889583B78E7F83BF0FB6F89482
:103A0000A8958091600088618093600010926000AA
:103A10000FBE08950895CF930E94D61C0E94B80946
:103A20000E940A1DC0E08C2F0E948B08811105C0E6
:103A3000CF5FCA30C1F7CF91089581E0FCCF0895E0
:103A40000C941F1D0E94BD140E94AE0E0E943A05E8
:103A50000C94201D1F921FB61F9211248F939F93C9
:103A6000AF93BF9380910802811113C0809125020A
:103A700090912602A0912702B09128024196A11DA3
:103A8000B11D8093250290932602A0932702B09344
:103A90002802BF91AF919F918F911F901FBE1F90E1
:103AA000189582E084BD93E095BD9AEF97BD809311
:103AB0006E0008952FB7F894809125029091260208
:103AC000A0912702B09128022FBF0895CF92DF92D4
:103AD000EF92FF929C014FB7F8948091250290914C
:103AE0002602A0912702B09128024FBF6C017D01F0
:103AF000EE24FF24A90170E060E0C416D506E606B6
:103B0000F70638F0821B930BFF90EF90DF90CF9079
:103B100008950197F7CF78941F921FB61F92112432
:103B20008F939F93AF93BF9380912502909126022C
:103B3000A0912702B09128020196A11DB11D80938A
:103B4000250290932602A0932702B0932802BF91EA
:103B5000AF919F918F911F901FBE1F90189587E77F
:103B600097E7909301088093000888E19AE00FB6E8
:103B7000F894A895809360000FBE90936000FFCFEB
:103B8000CF93DF9300D000D0CDB7DEB70E94EB1B00
:103B9000811102C00E94881C0E94F61B80930702BC
:103BA0000E94FE1B90932A02809329020E94FA1B16
:103BB000282F30E050E040E029833A834B835C8338
:103BC000CA01B9010F900F900F900F90DF91CF9124
:103BD0000C94661880910C0280FF12C06091110154
:103BE00085E0689FB0011124759567957595679577
:103BF00060387105A8F561157105A1F1862F08954A
:103C000081FF09C06091110185E0689FB001112416
:103C100075956795EDCF6091110182FD0AC0809185
:103C20000B028823D1F09091100160911101891746
:103C300028F085E0689FB0011124DACF869FB0019B
:103C4000112485E0869F9001879F300D1124692FF4
:103C500070E0C9010E944C28CBCF65E070E0CECF68
:103C60008FE7089581E0089580910C0280FF0CC0D9
:103C700060910F0170E07595679575956795611571
:103C8000710549F1862F089581FF06C060910F01EB
:103C900070E075956795F3CF60910F0182FD0BC0C1
:103CA00090910B029923A1F060910E0180910F0178
:103CB000961738F0682F70E06038710500F38FE7D1
:103CC0000895899FC001112470E00E944C28F4CF10
:103CD00061E070E0D7CF81E00895803F31F40E9429
:103CE000EA1D8195809310020895813F19F40E9486
:103CF000EA1DF8CF823F31F40E94EA1D819580933E
:103D00000F020895833F19F40E94EA1DF8CF893FFE
:103D100029F40E94341E8093110208958A3F21F4F1
:103D20000E94341E8195F7CF8B3F31F40E94341EE0
:103D300081958093120208958C3F19F40E94341EDD
:103D4000F8CF843F31F480910E02816080930E029F
:103D50000895853F21F480910E028260F7CF863F5F
:103D600021F480910E028460F1CF873F21F480918D
:103D70000E028860EBCF883F21F480910E028061B3
:103D8000E5CF8D3F31F480910C02816080930C026D
:103D900008958E3F21F480910C028260F7CF8F3F0F
:103DA000B9F780910C028460F1CF90910F02803FAF
:103DB00041F48091100287FD10921002992371F056
:103DC0000895813F29F4809110021816ACF3F6CFC4
:103DD000823F81F497FFF2CF10920F028091100280
:103DE00090911102892B90911202892B49F7109220
:103DF0000B020895833F19F4191674F3DFCF893F3E
:103E000039F4809111021816CCF610921102D6CF17
:103E10008A3F29F48091110287FFD0CFF6CF8B3FE4
:103E200039F48091120287FFC9CF10921202C6CFD7
:103E30008C3F29F4809112021816BCF3BFCF843F47
:103E400031F480910E028E7F80930E02B7CF853FB2
:103E500021F480910E028D7FF7CF863F21F480916F
:103E60000E028B7FF1CF873F21F480910E02877F76
:103E7000EBCF883F21F480910E028F7EE5CF8D3FFE
:103E800031F480910C028E7F80930C0297CF8E3F8D
:103E900021F480910C028D7FF7CF8F3F09F08ECFF8
:103EA00080910C028B7FF0CF8091070283FF7EC050
:103EB00080E394E00E94590380910E021F928F9339
:103EC0008BE294E09F938F930E94F20389E294E047
:103ED0000E94590380910F02282F082E000C330BEB
:103EE0003F938F9386E294E09F938F930E94F20317
:103EF00084E294E00E94590380911002282F082E3A
:103F0000000C330B3F938F9381E294E09F938F9348
:103F10000E94F2038FE194E00E9459038091110204
:103F2000282F082E000C330B3F938F938CE194E0E5
:103F30009F938F930E94F2038AE194E00E945903B9
:103F400080911202282F082E000C330B3F938F9381
:103F500087E194E09F938F930E94F20384E194E0C1
:103F60000E94590380910B021F928F9381E194E08C
:103F70009F938F930E94F2038FE094E00E94590375
:103F800080910C021F928F938CE094E09F938F930B
:103F90000E94F20389E094E00E9459038DB79EB716
:103FA0004C960FB6F8949EBF0FBE8DBF8DE092E089
:103FB0000E94060F0E945A1D90930A0280930902E4
:103FC00008951F93CF93DF938091090290910A0285
:103FD0000E94661DAC0180910B022091120130E01D
:103FE000811106C0209113019AE0299F90011124AC
:103FF0004217530778F020910F02C09110021091E0
:104000001102D0911202211109C09C2F912B9D2BDE
:1040100009F06AC0DF91CF911F9108958F3F19F089
:104020008F5F80930B02121624F40E94EA1D809386
:104030000F0280910F0287FF05C00E94EA1D819543
:1040400080930F021C1624F40E94EA1D8093100234
:104050008091100287FF05C00E94EA1D8195809320
:10406000100230910F023323A1F02091100222237D
:1040700081F045EB3403C0011124992369F1909339
:104080000F0245EB240390011124332349F13093AF
:104090001002111624F40E94341E809311028091A4
:1040A000110287FF05C00E94341E81958093110282
:1040B0001D1624F40E94341E809312028091120275
:1040C00087FF05C00E94341E819580931202DF9104
:1040D000CF911F910C94541F81E080930F02D1CF98
:1040E00081E080931002D5CF8F3F09F099CFAACFFE
:1040F00086E0EDE0F2E0DF011D928A95E9F710928B
:104100000B0210920C02089580911E0208959FB731
:10411000F894109215029FBF90912F02943009F0ED
:1041200048C02091E9002F703091EC00932F9170DE
:1041300030FD90E8922B23E02093E9002091EB00E2
:1041400020FF34C02091EE0027FF30C020911302E1
:10415000222321F02091E80025FF28C010921302AD
:1041600026E03091E80035FF14C08093F100809183
:10417000E80085FD27C08091E80080FFFCCF80919A
:10418000E8008E778093E8009F709093E90080E0CC
:10419000089530912F02343049F43091EB0035FD11
:1041A00005C0215041F481E0809313029F709093E9
:1041B000E9008FEF0895EFE9FFE03197F1F700C0D4
:1041C0000000CFCF8FB7F89421E0209315028FBF66
:1041D000DBCF0F931F93CF93DF9300D00F92CDB718
:1041E000DEB78C010E949C23823011F0843021F5CF
:1041F00084E089830A831B8382E08093E9008FEF48
:104200009091E800815095FD06C095ED9A95F1F7E3
:1042100000008111F5CF8091E80085FF0DC050E0CE
:1042200040E063E070E0CE0101960E94B9238091E6
:10423000E8008E778093E8000F900F900F90DF9149
:10424000CF911F910F910895CF93DF9300D00F92DC
:10425000CDB7DEB79C0180912F02843031F583E029
:104260008983205831093B832A8382E08093E900C7
:104270008FEF9091E800815095FD06C095ED9A95DD
:10428000F1F700008111F5CF8091E80085FF0DC0A6
:1042900050E040E063E070E0CE0101960E94B92357
:1042A0008091E8008E778093E8000F900F900F9038
:1042B000DF91CF910895CF93DF93D82FC92F0E941C
:1042C0009C23823011F0843001F582E08093E90074
:1042D0008FEF9091E800815095FD06C095ED9A957D
:1042E000F1F700008111F5CF8091E80085FF0DC046
:1042F00050E040E066E070E08D2F9C2F0E94B923D3
:104300008091E8008E778093E800DF91CF91089547
:10431000CF93DF93D82FC92F0E949C23823011F0B6
:10432000843049F581E08093E9008FEF9091E800B7
:10433000815095FD06C095ED9A95F1F70000811129
:10434000F5CF8091E80085FF16C050E040E068E0BE
:1043500070E08D2F9C2F0E94B9238091E8008E770A
:104360008093E80088E0ED2FFC2FA6E1B2E00190F9
:104370000D928A95E1F7DF91CF91089588E794E057
:104380000E94590380912E02811109C00E9441258B
:104390000E949E258091E20084608093E20008954F
:1043A00084E794E00E94590310922E02089580E75A
:1043B00094E00C9459038CE694E00C94590388E63D
:1043C00094E00E9459030C94221D209114022F5F47
:1043D000822F62E30E944028992319F0209314024F
:1043E000089510921402809115028823F1F08091B3
:1043F0002F028430C1F49091E9009F702091EC006D
:10440000822F817020FD80E8892B93E09093E90052
:104410009091EB0090FF04C09091EE0097FD08C0D2
:104420008F708093E9001092150208951092F100A8
:104430009091E80095FDFACF9091E80090FFF0CFC1
:104440009091E8009E779093E800EACF42E061EC1B
:1044500081E00E94BD2442E261EC82E00E94BD2422
:1044600042E261EC83E00C94BD24809131028930FA
:1044700089F148F4823009F49DC0833009F458C0B2
:10448000813041F008958A3009F484C08B3009F4FA
:104490006AC0089580913002813A09F048C0809145
:1044A000E800877F8093E800809134029091350284
:1044B000892B61F468E086E192E070E00E940824B4
:1044C0008091E8008B778093E800089560E090E0A9
:1044D00080E0F3CF80913002813249F5809134023F
:1044E00090913502029718F58091E800877F8093BC
:1044F000E8008091E80082FF16C09091F30080915F
:10450000F200029729F48091F1008B7F813021F431
:104510008091F10080931E028091E8008B77809358
:10452000E8000C94F12480912F028111E2CF0895CC
:1045300080913002813AD9F780913402909135020E
:10454000892BA9F78091E800877F8093E80080910C
:10455000E80080FFFCCF80911E018093F1008091E4
:10456000E8008E77DCCF80913002813201F78091B4
:10457000340290913502892BD1F68091E800877F33
:104580008093E8000E94F1248091320280931E0102
:104590000C94BD1480913002813249F68091E8007C
:1045A000877F8093E8000E94F124809133028093FA
:1045B0001F02089580913002813A09F0B8CF8091AE
:1045C000E800877F8093E8008091E80080FFFCCFBF
:1045D00080911F02C2CF84B7877F84BF0FB6F89443
:1045E000A8958091600088618093600010926000BF
:1045F0000FBE80E880936100109261000E944F0F0F
:104600000E9441250E949E258091E2008460809353
:10461000E20087E890E20E94D21B78940E9425284D
:104620000E94550F84E191E00E94A90E87E594E075
:104630000E94590380912F02853019F00E94850F46
:10464000F9CF83E594E00E9459030E94DA1C80911F
:104650002D02882379F30E940B1D882359F30E94B1
:10466000A323E8CF0C943423FC01CB01DA012F2FD4
:10467000332723303105D1F070F42130310509F4AE
:104680004EC02230310569F48BE590E024EB34E034
:104690002D933C9308952132310521F122323105C9
:1046A00071F190E080E030E020E0F2CFCF01992777
:1046B000E230A9F08330910550F4009769F0E0EA08
:1046C000F4E0019771F7849190E09F01E1CFECE76E
:1046D000F4E00397C1F3E5CFE0EBF4E0F4CFE2E8D8
:1046E000F4E0F1CF63307105E0F6880F991FFC010B
:1046F000E35BFE4F2081318189E090E0C9CF6330D8
:10470000710578F6FB01EE0FFF1FE95BFE4F20817C
:1047100031818C5B9E4FFC01808190E0B9CF82E1BA
:1047200090E02FE035E0B4CF80912F02843011F477
:1047300082E0089581E0089580912002811102C0F5
:104740000C949423089580E189BD82E189BD09B468
:1047500000FEFDCF8091D8008F7D8093D80080919E
:10476000E00082608093E0008091E00081FDFCCF5A
:104770000895AF92BF92CF92DF92FF920F931F9353
:10478000CF93DF936C01EB018A010E941025F82E74
:10479000811123C00115110539F0F8018081918143
:1047A000C81BD90BC80ED91EB12CA12C2097A9F07B
:1047B0008091E80085FD22C08091E8008E7780938B
:1047C000E80001151105A1F0F80180819181A80E82
:1047D000B91EB182A08285E0F82E8F2DDF91CF9196
:1047E0001F910F91FF90DF90CF90BF90AF900895F1
:1047F0000E9410258823D1F2F82EEFCFF601819187
:104800006F018093F1002197FFEFAF1ABF0ACECF5F
:10481000FC01CB0120913602309137022617370771
:1048200090F0009729F42091E8002E772093E8007B
:1048300040E0009751F4411108C08091E80082FFE8
:1048400031C080E00895C901F3CF20912F022223C7
:10485000A9F12530A9F12091E80023FD2DC0209178
:10486000E80022FDEACF2091E80020FFE2CF30915E
:10487000F3002091F200009719F02830310558F02C
:1048800041E02830310509F040E02091E8002E7722
:104890002093E800CECF41914093F10001972F5F24
:1048A0003F4FE9CF80912F02882341F0853041F0BE
:1048B0008091E80083FFC1CF81E0089582E00895F0
:1048C00083E00895FC01CB0120913602309137023C
:1048D0002617370790F0009729F42091E8002E77EB
:1048E0002093E80040E0009751F4411108C0809106
:1048F000E80082FF32C080E00895C901F3CF209123
:104900002F022223B1F12530B1F12091E80023FDDF
:104910002EC02091E80022FDEACF2091E80020FF80
:10492000E2CF3091F3002091F200009719F0283087
:10493000310558F041E02830310509F040E0209180
:10494000E8002E772093E800CECF44914093F10009
:10495000319601972F5F3F4FE8CF80912F02882338
:1049600041F0853041F08091E80083FFC0CF81E0C5
:10497000089582E0089583E00895982F973028F0F5
:104980008F708093E90081E008959093E900242FCF
:10499000762F50E0981731F07091EC002091ED00E7
:1049A0005091F00021FD02C09F5FE8CF3091EB00F5
:1049B0003E7F3093EB003091ED003D7F3093ED0072
:1049C0003091EB0031603093EB007093EC0020935A
:1049D000ED005093F0002091EE0027FDE5CF80E040
:1049E00008958091300287FF13C08091E80082FF14
:1049F00006C08091E8008B778093E80004C0809126
:104A00002F028111F2CF089580912F028823D9F3CC
:104A10008091E80080FFF8CF8091E8008E77ECCF9E
:104A20002091E4003091E50095E6A9012091EC0089
:104A3000822F817020FF06C08091E80080FF06C0B1
:104A400080E008952091E80022FD1AC080912F0295
:104A5000882389F0853089F08091EB0085FD0FC0B7
:104A60002091E4003091E50042175307F9F291508C
:104A7000E1F684E0089582E0089583E0089581E0FE
:104A800008950E94AF250E94B725E0EEF0E08081F6
:104A900081608083E8EDF0E080818F77808319BCAE
:104AA000A7EDB0E08C918E7F8C9380818F7E808388
:104AB00010922E0208950F931F93CF93DF930E94BD
:104AC000AF250E94B725C8EDD0E088818F77888315
:104AD00088818068888388818F7D888319BC109243
:104AE0002F0210922B0210922D0210922C0200EE37
:104AF00010E0F80180818B7F8083888181608883CA
:104B000042E060E080E00E94BD24E1EEF0E08081C0
:104B10008E7F8083E2EEF0E08081816080838081FF
:104B200088608083F80180818E7F808388818061A6
:104B30008883DF91CF911F910F910895E8EDF0E008
:104B400080818F7E8083E7EDF0E0808181608083CB
:104B500084E082BF81E080932E020C945B25E8ED17
:104B6000F0E080818E7F80831092E20008951092A1
:104B7000DA001092E10008951F920F920FB60F9283
:104B800011242F933F934F935F936F937F938F9352
:104B90009F93AF93BF93EF93FF938091E10082FFC8
:104BA0000BC08091E20082FF07C08091E1008B7F03
:104BB0008093E1000E94E5218091DA0080FF19C016
:104BC0008091D80080FF15C08091DA008E7F80939D
:104BD000DA008091D90080FF94C080E189BD82E134
:104BE00089BD09B400FEFDCF81E080932F020E94B1
:104BF000BE218091E10080FF19C08091E20080FF1A
:104C000015C08091E2008E7F8093E2008091E200E7
:104C100080618093E2008091D80080628093D80008
:104C200019BC85E080932F020E94DB218091E10076
:104C300084FF29C08091E20084FF25C080E189BD06
:104C400082E189BD09B400FEFDCF8091D8008F7D3F
:104C50008093D8008091E1008F7E8093E100809165
:104C6000E2008F7E8093E2008091E2008160809379
:104C7000E20080912B02882309F449C084E08093EC
:104C80002F020E94DF218091E10083FF29C08091E3
:104C9000E20083FF25C08091E100877F8093E100DF
:104CA00082E080932F0210922B028091E1008E7F90
:104CB0008093E1008091E2008E7F8093E2008091FA
:104CC000E20080618093E20042E060E080E00E94C8
:104CD000BD248091F00088608093F0000E94D7216D
:104CE000FF91EF91BF91AF919F918F917F916F91C4
:104CF0005F914F913F912F910F900FBE0F901F909A
:104D0000189519BC10922F020E94D02172CF809169
:104D1000E30087FD02C081E0B2CF83E0B0CF1F92F5
:104D20000F920FB60F9211242F933F934F935F93DF
:104D30006F937F938F939F93AF93BF93CF93DF93A3
:104D4000EF93FF93D091E900DF708091EC00C82FC2
:104D5000C17080FDC0E81092E9008091F000877F6B
:104D60008093F00078940E94D3261092E9008091FD
:104D7000F00088608093F000CD2BCF70C093E900E5
:104D8000FF91EF91DF91CF91BF91AF919F918F9163
:104D90007F916F915F914F913F912F910F900FBE37
:104DA0000F901F9018951F93CF93DF93CDB7DEB769
:104DB000AA970FB6F894DEBF0FBECDBF80E392E096
:104DC000FC0101962091F100208322E088339207B4
:104DD000B9F70E9435228091E80083FF1EC18091BF
:104DE0003002909131029A3008F017C1E92FF0E0BB
:104DF000E353F44D0C946028803899F0823809F020
:104E00000CC1809134028F70873008F006C1809306
:104E1000E9008091EB0085FB882780F91092E9007A
:104E200006C080912C0290912D0291118260909188
:104E3000E800977F9093E8008093F1001092F100D2
:104E40008091E8008E77E5C0882309F4D3C08230D2
:104E500009F0E3C0809132028111D6C08091340202
:104E60008F702FEF280F263008F0D7C08093E9000D
:104E70002091EB0020FFC8C0933031F48091EB000B
:104E800080628093EB00C0C09091EB0090619093A2
:104E9000EB0021E030E001C0220F8A95EAF7209371
:104EA000EA001092EA008091EB008860EACF81115D
:104EB000B4C0109132021F778091E3008078812B7B
:104EC0008093E3008091E800877F8093E8000E9450
:104ED000F1248091E80080FFFCCF8091E30080689E
:104EE0008093E30082E0111183E080932F0295C04C
:104EF0008058823008F091C0809132029091330244
:104F00008C3D23E09207A1F583E08A838AE28983BE
:104F10004FB7F894DE01139620E03EE051E2E32F14
:104F2000F0E050935700E49120FF03C0E295EF704A
:104F30003F5FEF708E2F90E0EA30C0F0C7968D9300
:104F40009D932F5F243159F74FBF8091E800877FF1
:104F50008093E8006AE270E0CE0101960E94082486
:104F60008091E8008B778093E80057C0C096E7CF28
:104F70006091340270913502AE014F5F5F4F0E9425
:104F80003223BC01892B09F448C08091E800877F57
:104F90008093E80089819A810E946224E1CF803861
:104FA000E1F58091E800877F8093E80080912B02F3
:104FB0008093F10045CF811130C090913202923040
:104FC00060F58091E800877F8093E80090932B0242
:104FD0000E94F12480912B02882311F084E005C007
:104FE0008091E30087FDFACF81E080932F020E9439
:104FF000262213C080913202813079F481E093300F
:1050000009F080E080932D021092E9008091E80081
:10501000877F8093E8000E94F1248091E80083FF5D
:105020000AC08091E800877F8093E8008091EB00C0
:1050300080628093EB00AA960FB6F894DEBF0FBE95
:10504000CDBFDF91CF911F910895CF9380912F0213
:105050008823A1F0C091E900CF709091EC00892FD6
:10506000817090FD80E8C82B1092E9008091E800E3
:1050700083FD0E94D326CF70C093E900CF9108959D
:10508000991B79E004C0991F961708F0961B881F9A
:105090007A95C9F78095089597FB072E16F400942A
:1050A00007D077FD09D00E94662807FC05D03EF4A2
:1050B000909581959F4F0895709561957F4F0895C4
:1050C000EE0FFF1F0590F491E02D0994AA1BBB1B66
:1050D00051E107C0AA1FBB1FA617B70710F0A61BF8
:1050E000B70B881F991F5A95A9F780959095BC0119
:1050F000CD010895AEE0B0E0E0E8F8E20C94762B44
:105100000D891E898F89988D26E02C831A83098347
:1051100097FF02C080E090E801979E838D83AE01E7
:10512000455E5F4F698D7A8DCE0101960E94AA2857
:105130004D815E8157FD0AC02F8138854217530784
:105140000CF49A01020F131FF80110822E96E4E06E
:105150000C94922BAFE0B0E0E0EBF8E20C94682BFB
:105160007C013B018A01DC0117961C921E92169766
:1051700013968C9181FFC3C19AE0292EFE013196CE
:105180004F01D70113969C91F30193FD859193FFF5
:1051900081913F01882309F448C1853239F493FD98
:1051A000859193FF81913F01853229F4B70190E009
:1051B0000E94982AE6CFB12C412C512CBFE1B515A5
:1051C00038F08B3209F188F4803201F1833221F119
:1051D00057FC3AC020ED280F2A3040F556FE1FC07C
:1051E000B29C200D1124B22E06C08D3291F0803376
:1051F00079F7689450F8F30193FD859193FF8191BD
:105200003F018111DBCF20C0689451F8689452F8B7
:10521000F2CF689453F8EFCF689454F8ECCF429CE7
:10522000200D1124422E689455F8E5CF8E3229F4D2
:1052300056FCFBC0689456F8DECF8C3619F468949F
:1052400057F8D9CF8836B9F2982F9F7D955493306F
:10525000C0F08336A1F18337C1F1833509F05BC01B
:10526000D801CD90DD908D016B2D70E056FC02C011
:105270006FEF7FEFC6010E94822A5C01689457F8A5
:105280000AC00C5F1F4FEFE3E983AA24A394B12C5B
:105290006401E89457F853FC04C04A141B0409F055
:1052A00018F5342CA114B10431F5332009F469CF79
:1052B000B70180E290E00E94982A3A94F6CFD80194
:1052C0008C9189830E5F1F4FE0CFF801C190D19080
:1052D0008F016B2D70E056FC02C06FEF7FEFC601AF
:1052E0000E948D2A5C01D5CFB70180E290E00E9438
:1052F000982A4A94D2CFF60157FC859157FE8191A6
:105300006F01B70190E00E94982A31103A94B1E001
:10531000AB1AB108C7CF843619F0893609F074C0CA
:10532000F80157FE6AC061917191819191918F014D
:10533000E52DEF76DE2E97FF09C09095809570954C
:1053400061957F4F8F4F9F4F6894D7F82AE030E0E8
:10535000A4010E94C82AC82EC818AC2C5D2CD6FE09
:105360000CC0E89450F8CB1440F4D4FE05C0D2FC35
:1053700003C05D2D5E7E552EAB2C54FE98C0FE0101
:10538000EC0DF11D8081803309F08AC0652D697EA6
:10539000562E752D7870372E53FC98C050FE92C053
:1053A000BC2CA41418F44C0CB42CBA1854FE94C0A1
:1053B000B70180E390E00E94982A52FE09C088E776
:1053C00090E051FE02C088E590E0B7010E94982A63
:1053D000CB1408F48DC0CA94D12C8FEFC81AD80A08
:1053E000C80CD91CD6018E916D01B70190E00E94C6
:1053F000982A8C149D04B1F758CF61917191072EB2
:10540000000C880B990B93CFD52CE894D4F82AE0A4
:1054100030E0853739F1F52DF97FDF2E8037A9F09F
:1054200058F48835A9F08F36D9F0F7018681978135
:105430002F96E2E10C94842B8837B9F7D4FE02C092
:105440006894D2F820E130E00DC06894D4F8F6CF2B
:1054500054FE03C02F2F2660D22E20E132E002C07E
:1054600028E030E0F801D7FE15C0419151916191DB
:1054700071914C875D876E877F878F01A4016C8552
:105480007D858E859F850E94C82AC82EC818E894FD
:10549000D7F863CF81919191AC0170E060E0E9CFE2
:1054A00052FC02C0A39475CFA394A39472CF852D10
:1054B000867809F46ECFF6CFB70180E290E00E94C3
:1054C000982AA394A414C0F3312C70CF342C3A182A
:1054D000A41408F46BCFF8CF852D867809F478CF23
:1054E0008BE251FE80E257FC8DE2B70190E06ECF77
:1054F000B70180E390E00E94982ABA9469CF8FEFB9
:105500009FEF96CFFC010590615070400110D8F7D5
:10551000809590958E0F9F1F0895FC0161507040FB
:1055200001900110D8F7809590958E0F9F1F0895D8
:105530000F931F93CF93DF93182F092FEB018B81CC
:1055400081FD09C01FEF0FEF812F902FDF91CF91C9
:105550001F910F91089582FF14C02E813F818C818D
:105560009D81281739073CF4E881F981CF01019624
:105570009983888310838E819F8101969F838E8378
:10558000E3CFE885F985812F0995892BA1F3DACF3F
:10559000FA01AA27283051F1203181F1E8946F9364
:1055A0006E7F6E5F7F4F8F4F9F4FAF4FB1E03ED00A
:1055B000B4E03CD0670F781F891F9A1FA11D680FA8
:1055C000791F8A1F911DA11D6A0F711D811D911DDB
:1055D000A11D20D009F468943F912AE0269F112450
:1055E0003019305D3193DEF6CF010895462F4770B4
:1055F000405D4193B3E00FD0C9F7F6CF462F4F700F
:10560000405D4A3318F0495D31FD4052419302D06C
:10561000A9F7EACFB4E0A695979587957795679512
:10562000BA95C9F700976105710508959B01AC0112
:105630000A2E06945795479537952795BA95C9F739
:10564000620F731F841F951FA01D0895F999FECF47
:1056500092BD81BDF89A992780B50895A8E1B0E080
:1056600042E050E00C945A2B262FF999FECF92BDC0
:1056700081BDF89A019700B4021639F01FBA20BD17
:105680000FB6F894FA9AF99A0FBE08950396272F49
:105690000E94352B0E94342B252F0E94352B242F5E
:1056A0000C94352B0196272F0E94352B0C94342B0C
:1056B000DC01CB01FC01F999FECF06C0F2BDE1BDD2
:1056C000F89A319600B40D9241505040B8F70895C1
:1056D0002F923F924F925F926F927F928F929F9202
:1056E000AF92BF92CF92DF92EF92FF920F931F93F0
:1056F000CF93DF93CDB7DEB7CA1BDB0B0FB6F894A1
:10570000DEBF0FBECDBF09942A88398848885F84E0
:105710006E847D848C849B84AA84B984C884DF8051
:10572000EE80FD800C811B81AA81B981CE0FD11D35
:105730000FB6F894DEBF0FBECDBFED010895F8940B
:10574000FFCFC80CD70CDB0CE90CED0CF10CF50C01
:10575000FB0C030D070D0B0D0F0D1B0D1F0D230D66
:10576000270D2D0D4B0D350DDF0CE50C130D170D11
:10577000FF0C310D410D540D580D131213127512FB
:105780007512CA12E612431243122A13DD13EE13E6
:10579000EE134F14431243125814FC2624270D28ED
:0E57A00024270D28572778270D28CF27DB2731
:1057AE00016B01006C01066C01960001FC012808DA
:1057BE00140A321E842088215B212421E92001F65F
:1057CE00F73133323697C634929400000000000A47
:1057DE0025640A0000FF0100010000FFFF00000128
:1057EE000001FF00408522C80543052105C604DFE0
:0457FE0004F80400A7
:00000001FF
