:100000000C9472050C948E1A0C94B9050C94B905D5
:100010000C94B9050C94B9050C94B9050C94B90568
:100020000C94B9050C94B9050C94582F0C942B30F2
:100030000C9481290C94B9050C94B9050C94B9055C
:100040000C94B9050C94B9050C94B9050C94B90538
:100050000C94B9050C94E2290C94B9050C94B905DB
:100060000C94B9050C94B9050C94B9050C94B90518
:100070000C94B9050C94B9050C94B9050C94B90508
:100080000C94B9050C94B9050C94B9050C94B905F8
:100090000C94B9050C94B9050C94B9050C94B905E8
:1000A0000C94B9050C94B9050C94B90529001E00EF
:1000B0001F002000210022002B0014001A0008005D
:1000C000150017002A0004001600070009000A00A6
:1000D000D75C1D001B000600190005000000000091
:1000E00000000404E30001512E0027002600250033
:1000F000240023002D00130012000C0018001C0027
:10010000280034000F000E000D000B00D85C3800F2
:1001100037003600100011000000000000004E0003
:1001200002512C0029001E081F082008210822085F
:100130002B0114081A082900150817082A0802516B
:100140001608060819081B086A0004080708680052
:100150001D081C08000000000000E200E300010090
:1001600045002701260133023102330044003502E5
:100170004F08520050081C01280035004F00510064
:1001800050004C00720031000A080A0A09082A00CF
:100190000000000000004B00E7002C00A9001E0C2E
:1001A0001F0C3C003D003E00AA00000000000000C3
:1001B000150A6900A800010000002F0030002B0084
:1001C000D75C1A5C00002F0230021801000000000A
:1001D000000039002C04E3002E02430042004100DD
:1001E00040003F002D026D004F0A5202500A0E0AD5
:1001F0006B006F004F025102500270006E006C00E5
:100200004F065006040971000000000000000000C5
:1002100001002C0044454255473A206469736162ED
:100220006C65642E0A0044454255473A20656E616C
:10023000626C65642E0A0000000000000000002AC5
:100240002B2800000000000000000000000000005B
:10025000000029000000002C1E3420212224342616
:1002600027252E362D3738271E1F2021222324250F
:10027000263333362E37381F0405060708090A0BC4
:100280000C0D0E0F101112131415161718191A1B36
:100290001C1D2F3130232D350405060708090A0BD4
:1002A0000C0D0E0F101112131415161718191A1B16
:1002B0001C1D2F3130354C000000000000000000F4
:1002C000000000000000000000000000000000002E
:1002D000000000000000000000000000000000001E
:1002E000000000000000000000000000000000000E
:1002F00000000000000000000000000000000000FE
:1003000000000000000000000000000000000000ED
:1003100000000000000000000000000000000000DD
:1003200000000000000000000000000000000000CD
:1003300000000000000000000000000000000000BD
:1003400000000000000000000000000000000000AD
:100350000000000000000000010101010101000196
:10036000010101000000000000000000000000008A
:100370000001000100010101010101010101010170
:10038000010101010101010101010101010101015D
:100390000101000000010100000000000000000059
:1003A000000000000000000000000000000000004D
:1003B000000001010101000A0025303862003A20E6
:1003C0000025303258000A722F6320303132333426
:1003D0003536370A007267626C6967687420746921
:1003E0006D65722064697361626C652E0A007267C4
:1003F000626C696768742074696D657220656E61EE
:10040000626C65642E0A007267626C6967687420AA
:1004100073657420687376205B4E4F454550524F8C
:100420004D5D3A2025752C25752C25750A007267BF
:10043000626C696768742073657420687376205BEA
:10044000454550524F4D5D3A2025752C25752C257C
:10045000750A007267626C69676874207261696E00
:10046000626F7720736574206873763A2025642C58
:1004700025642C25642C25750A007267626C6967F7
:1004800068742064697361626C65205B45455052F5
:100490004F4D5D3A207267626C696768745F636F85
:1004A0006E6669672E656E61626C65203D202575FC
:1004B0000A007267626C6967687420656E61626CBD
:1004C00065205B454550524F4D5D3A207267626C26
:1004D000696768745F636F6E6669672E656E6162D7
:1004E0006C65203D2025750A007267626C6967683B
:1004F0007420746F67676C65205B454550524F4DA3
:100500005D3A207267626C696768745F636F6E66DC
:1005100069672E656E61626C65203D2025750A0055
:100520007267626C69676874206D6F6465205B4EEA
:100530004F454550524F4D5D3A2025750A00726770
:10054000626C69676874206D6F6465205B45455017
:10055000524F4D5D3A2025750A007267626C6967DB
:1005600068745F696E6974207267626C6967687429
:100570005F636F6E6669672E6D6F6465203D203026
:100580002E2057726974652064656661756C7420ED
:1005900076616C75657320746F20454550524F4DE0
:1005A0002E0A007267626C696768745F696E6974AD
:1005B000206565636F6E666967206973206E6F746E
:1005C00020656E61626C65642E0A007267626C69F8
:1005D0006768745F696E6974207374617274210A4C
:1005E000007267626C696768745F696E6974206322
:1005F000616C6C65642E0A007267626C696768746E
:100600005F636F6E6669672E7370656564203D2059
:1006100025640A007267626C696768745F636F6E55
:100620006669672E76616C203D2025640A0072673A
:10063000626C696768745F636F6E6669672E736169
:1006400074203D2025640A007267626C69676874D3
:100650005F636F6E6669672E687565203D2025644F
:100660000A007267686C696768745F636F6E6669B9
:10067000672E6D6F6465203D2025640A00726762F5
:100680006C696768745F636F6E6669672E656E611B
:10069000626C65203D2025640A007267626C6967A0
:1006A00068745F636F6E66696720454550524F4DB1
:1006B0003A0A0000047F3F1F643214643214783C0D
:1006C0001E1E140A052223252628292A2C2D2F3008
:1006D00032333536383A3B3D3E4042434547494A3E
:1006E0004C4E5051535557595A5C5E60626466686F
:1006F000696B6D6F71737577797B7D7F818385877A
:10070000898A8C8E90929496989A9C9E9FA1A3A57C
:10071000A7A8AAACAEAFB1B3B4B6B8B9BBBCBEBFA4
:10072000C1C2C3C5C6C7C9CACBCCCDCED0D1D2D227
:10073000D3D4D5D6D7D7D8D9D9DADADBDBDBDCDC32
:10074000DCDCDCDDDDDDDDDCDCDCDCDCDBDBDBDAEA
:10075000DAD9D9D8D7D7D6D5D4D3D2D2D1D0CECD55
:10076000CCCBCAC9C7C6C5C3C2C1BFBEBCBBB9B862
:10077000B6B4B3B1AFAEACAAA8A7A5A3A19F9E9CE7
:100780009A98969492908E8C8A89878583817F7DB2
:100790007B79777573716F6D6B6968666462605E93
:1007A0005C5A5957555351504E4C4A49474543425C
:1007B000403E3D3B3A3836353332302F2D2C2A29F6
:1007C0002826252322FFAA7F55406261636B6C694E
:1007D00067687420737465703A2025750A00626139
:1007E000636B6C696768742064697361626C650A25
:1007F000006261636B6C6967687420656E61626C2E
:10080000650A006261636B6C6967687420746F6766
:10081000676C653A2025750A006261636B6C6967D5
:1008200068742064656372656173653A2025750A92
:10083000006261636B6C6967687420696E637265DE
:100840006173653A2025750A00000101010101016B
:100850000101010202020202020202020303030377
:100860000303030304040404040404050505050547
:100870000606060606070707070708080808090905
:1008800009090A0A0A0B0B0B0C0C0C0D0D0D0E0EB0
:100890000E0F0F0F10101111111212131314141543
:1008A0001516161717181819191A1A1B1B1C1D1DB7
:1008B0001E1E1F202021222223242425262627280D
:1008C00029292A2B2C2D2D2E2F303132323334353D
:1008D000363738393A3B3C3D3E3F40414243444540
:1008E000464748494A4C4D4E4F505153545556581F
:1008F000595A5B5D5E5F616264656668696B6C6DC9
:100900006F7072737577787A7B7D7E80828385873E
:10091000888A8C8E8F91939596989A9C9EA0A2A37C
:10092000A5A7A9ABADAFB1B3B5B7BABCBEC0C2C481
:10093000C6C9CBCDCFD1D4D6D8DBDDDFE2E4E7E941
:10094000EBEEF0F3F5F8FAFDFF0A002530325820FF
:10095000006B6579626F6172645F7265706F72744B
:100960003A20000A0025303258006B6579626F61C9
:1009700072645F7365745F6C65643A20005B735DDD
:10098000004B6579626F6172642073746172742EBA
:100990000A005B575D005B535D005B525D005B448A
:1009A0005D005B435D000403300000001C03490050
:1009B00072006900730020004B006500790062003E
:1009C0006F0061007200640000000E034B006500C0
:1009D0006500620069006F00000004030904090259
:1009E0005B00030100A0FA090400000103010100FB
:1009F0000921110100012240000705810308000AB6
:100A00000904010001030000000921110100012275
:100A100036000705820320000A09040200020300D1
:100A20000000092111010001222200070583032093
:100A3000000107050303200001120110010000005E
:100A40000810CB56120002010203010631FF09749F
:100A5000A1010975150026FF00952075088102097E
:100A600076150026FF00952075089102C005010942
:100A700080A10185031A81002A8300160100260344
:100A800000950175108100C0050C0901A1018504C4
:100A90001A01002A9C02160100269C02950175107D
:100AA0008100C005010906A101050719E029E71524
:100AB00000250195087501810295017508810105E0
:100AC00007190029FF150026FF009506750881000B
:100AD0000508190129059505750191029501750310
:100AE0009101C00011241FBECFEFDAE0DEBFCDBF01
:100AF00004B603FE27C080917D0290917E02A091F2
:100B00007F02B09180028730904BA740B04BD1F468
:100B100010927D0210927E0210927F02109280024B
:100B200014BE84B7877F84BF0FB6F894A8958091D0
:100B30006000886180936000109260000FBEE0E06A
:100B4000F8E3099511E0A0E0B1E0E2E4FCE602C0C0
:100B500005900D92A237B107D9F722E0A2E7B1E0E4
:100B600001C01D92AD37B207E1F70E947C2C0C94B6
:100B7000A8350C940000FF93EF93E0917201F0917F
:100B80007301309709F00995EF91FF910895FC01E9
:100B90008591803011F0EFDFFBCF0895FF27E0E271
:100BA00030E247FF0CC0419597FF09C0EDE2609528
:100BB000709580959095611D711D811D911D27FF78
:100BC00002C0219530E350E2AA27660F771F881FE5
:100BD000991FAA1FA41710F0A41B63955A95A9F793
:100BE000AA3008F0A95FA05DAF93F3956115710578
:100BF0008105910541F7ED3211F4EF93F395F2176A
:100C000018F43F93F395FBCF8F91B5DFFA95E1F799
:100C10000895E991F9918591803021F0853219F09C
:100C2000AADFF9CF089520E0E89455915532C1F339
:100C3000503311F4689455915A3348F4505390F35B
:100C4000220F022E220F220F200D250FF4CF0EF4BB
:100C5000219589919991533619F3533729F15335D9
:100C600059F1BC0188279927E8945C3621F48991D1
:100C7000999168945591543639F446EF7EF077FF98
:100C80000DC08FEF9FEF0AC055374AE039F0583555
:100C900040E121F0523642E009F00895FF93EF93CE
:100CA0007DDFEF91FF91B7CFFF93EF93FC0181912F
:100CB0008030B9F360DFFBCFFF93EF9368DFF1CFB4
:100CC000DF93CF93CDB7DEB72596A3DFCF91DF912A
:100CD0000895CF93DF939C01FB019A9581159F4165
:100CE00060F5E901CC27D170D901AA27B270B9010A
:100CF00066277470A9014427587034FF10C080E142
:100D0000CD2B09F480E0AB2B09F08062672B09F052
:100D10008064452B09F08068DF91CF91099481E0D0
:100D2000CD2B09F480E0AB2B09F08260672B09F032
:100D30008460452B89F38860EFCFDF91CF910895D0
:100D4000CF93DF93EC01805E9109089720F06CED62
:100D500070E2209711F466E37EE1CE010E946906FD
:100D60008C2FDF91CF910C94D11CCF93DF93EC01AA
:100D70000E94D41DCE01805E9109089720F063EE99
:100D800070E2209711F46DE37EE1CE01DF91CF9107
:100D90000C946906CF93DF93D82FC92F0E94A00629
:100DA0008D2F9C2FDF91CF910C94B50681E0089593
:100DB00081E008950C94D8061F93CF93DF9300D061
:100DC00000D00F92CDB7DEB749835A836B83209151
:100DD000B80189819A8121111BC06623A9F00E9464
:100DE000C226182F682F89819A810E9469266981FD
:100DF0007A81812F0F900F900F900F900F90DF91BD
:100E0000CF911F910C94C7090E949826182FEFCFFD
:100E10000E94C22669817A81EDCFFC014081518117
:100E20006281738184810C94DC061F93CF93DF93DE
:100E300090E0FC01E95CFD4F1491FC01E95CFC4F82
:100E4000D49189549D4FFC01C491DD2319F081EEAA
:100E50000E94D11CCC2319F086EE0E94D11C812F58
:100E60000E94231ECC2319F086EE0E94D41DDD23A0
:100E700031F081EEDF91CF911F910C94D41DDF9161
:100E8000CF911F910895EF92FF921F93CF93DF931D
:100E9000EC01162F8881882339F17E019FEFE91A32
:100EA000F90A813041F4C9818C2F0E94D11C8C2F0A
:100EB0000E94D41D05C0823079F489810E94D11C22
:100EC000E7012196812F815028F3EFE9FFE0319768
:100ED000F1F700C00000F7CF833011F48981E8CF2B
:100EE0000E9415077E01ECCFDF91CF911F91FF90FB
:100EF000EF90089560E00C9443070E942A28811126
:100F000002C00E94D0280E94E3180C94AB0C0E94EF
:100F1000E2180C94AE0C08950C948B0781E00895B0
:100F20000C948E07CF93C82F0E948C078C2FCF91E3
:100F30000C94900708950E94FC200E949A072FEFBE
:100F400084E39CE0215080409040E1F700C0000025
:100F500087E797E790930108809300080C94062A8E
:100F60000F931F93CF93DF93EC010E940D078C0129
:100F7000BE010E94DA06882309F44FC0BE01C801F1
:100F80000E94BA16882309F448C0BE01C8010E9415
:100F90009C19882309F441C003308DE5180760F4DB
:100FA000023CECE51E0778F40130FCE51F07D9F19F
:100FB000A0F401151C4569F1CE01DF91CF911F917D
:100FC0000F910C94D606F801E25CFC45E134F10582
:100FD00098F7E655FA4C0C9450320631FCE51F07A1
:100FE00008F404C106311C4539F70E945F279A8135
:100FF000992309F4BEC18A7A91E009F490E09093B4
:1010000074018111B4C189E20E943A270E94AE277F
:1010100004C08A8181110E949B0780E0DF91CF91FB
:101020001F910F9108958A818823B9F390912E0220
:10103000892F8E7F90FF816080932E0280FF05C0F4
:1010400086E292E00E94C705E8CF84E192E0FACF01
:101050008A81882311F30E94D028DFCF8A818111F1
:10106000DCCF0E948815D9CF8A818823B1F20E94F3
:101070005F27827251F00E94BE14CFCF8A818823ED
:1010800061F20E945F278272B1F30E94B014C5CF53
:101090008A818111C2CF0E941712BFCF8A8181112C
:1010A000BCCF0E942312B9CF8A818111B6CF0E9492
:1010B0003212B3CF8A818111B0CF0E944112ADCFDD
:1010C0008A818111AACF0E945012A7CF8A818111F3
:1010D000A4CF0E945F12A1CF8A81882309F49DCFFB
:1010E0000E9420109ACF8A81882309F496CF0E940B
:1010F000431093CF8A81882309F48FCF81E00E9427
:10110000C1148BCF8A81882309F487CF0E941810DD
:10111000823028F00E941810853008F4B6CF82E0A3
:10112000EECF8A81882309F478CF0E941810863088
:1011300028F00E941810883008F4A7CF86E0DFCF8F
:101140008A81882309F469CF0E941810893028F019
:101150000E9418108E3008F498CF89E0D0CF8A8191
:10116000882309F45ACF0E9418108F3028F00E946B
:101170001810843108F489CF8FE0C1CF8A81882389
:1011800009F44BCF0E941810853128F00E941810E6
:10119000873108F47ACF85E1B2CF8A81882309F4B8
:1011A0003CCF88E1ACCF8A81882309F436CF0E94F6
:1011B0001810893128F00E941810823208F465CF87
:1011C00089E19DCF8A81882309F427CF83E297CFD5
:1011D0008A81882309F421CF80E00E94282D1DCF29
:1011E0008A81882309F419CF82E0F7CF8A81882386
:1011F00009F4E2CE0E942A28811102C00E94D02860
:101200000E943D2890936F0280936E020631ECE5B8
:101210001E07D0F40230FCE51F0748F480916E02EF
:1012200090916F020E944B280E94FC20F6CEF8019C
:10123000E350FC4580916E028160E331F10588F452
:10124000E551FA4C0C9450320A5F1C4509301105E7
:1012500028F702501A4CF8010C94503280916E021B
:10126000826080936E02DACF80916E028460F9CF43
:1012700080916E028860F5CF80916F0281608093CB
:101280006F02CCCF80916F028260F9CF80916E02A5
:101290008061E7CF80916E028062E3CF80916E0221
:1012A0008064DFCF0E94FC2080916E028068D9CFDD
:1012B00080916E028C60D5CF80916F028360DFCF0A
:1012C00080916E028E7FCDCF80916E028D7FC9CFCF
:1012D00080916E028B7FC5CF80916E02877FC1CFD8
:1012E00080916F028E7FCBCF80916F028D7FC7CFB1
:1012F00080916E028F7EB5CF80916E028F7DB1CFCF
:1013000080916E028F7BADCF0E94FC2080916E0297
:101310008F77A7CF80916E02837FA3CF80916F02DA
:101320008C7FADCF80916E0282FB992790F921E0EE
:10133000922790FB82F990FB83F993CF80916F0203
:10134000982F909591708E7F892B90FB81F997CF84
:101350000E94FC2090916E02892F97FB87F980589C
:1013600080CF81E00E94DC2859CF80E0FBCF85E36D
:101370004BCE80917401811104C089E20E94412703
:1013800045CE85E3FBCF90E080E008950895972F48
:1013900070E026E0929F600D711D1124FB019CE31B
:1013A000899FE00DF11D1124EE0FFF1FE455FF4F43
:1013B000859194910895FC01EE0FFF1FE954FC4FB5
:1013C000859194910895CF93DF930E94C7090E945D
:1013D000CF0BEC01811523E5920708F063C081155E
:1013E00032E5930708F05FC18F3F910509F090F552
:1013F000803F910508F033C18F3B9105D8F4883ABE
:10140000910508F0CDC0853A910568F4049738F449
:1014100091E080E0219709F090E0C92FD82FCE010C
:10142000DF91CF910895853A910509F0B2C0C1E8E6
:10143000D0E4F5CF803E910540F4805C9109CF3B2C
:10144000D105D9F4D0E0C0E0EACF805E91090897D9
:1014500030F3F8CF811540E59407D0F4C11580E44E
:10146000D80708F001C1C11590E3D90750F4C115A0
:1014700020E2D207A0F2CE019F700E94DB09EC01AE
:10148000CECFCE019927D3FDECC0EC01D06CC7CFF5
:10149000811531E5930708F4EAC0D82FCC27C16F36
:1014A000D06ABDCF8C3B9C4509F425C1CD3B8CE572
:1014B000D80708F043C0C11599E5D90798F5C115BB
:1014C00028E5D20708F004C1C11535E5D307C8F4F3
:1014D000C11544E5D40708F0F6C0CE018370992702
:1014E00021E030E002C0220F331F8A95E2F7C69553
:1014F000C69580E2C89FE0011124C22BD32BDA6885
:101500008ECFCE0195558F3F910511F008F09ACFFF
:101510008C2F0E94670CC82FD0E0DC2FCC27CC2763
:10152000DF7135C0C1159AE5D90708F4D6C0CB3BA9
:10153000DC4509F087CFC0E0D4ED71CFCF3B3CE56F
:10154000D30709F4DBC060F4CD3B8CE5D80709F480
:10155000D8C0CE3BDC4509F075CFC0E0D0ED5FCF01
:10156000C03C2CE5D20709F4CFC0CE0190568115BE
:10157000904208F067CF8D2F8F710E94670C90E02A
:10158000982F882788279F719C012C2BE901D06216
:1015900046CF863A910509F0BAC0C2E8D0E43FCF01
:1015A000883A910509F4B6C0893A910509F4B5C0A5
:1015B0008A3A910509F4B4C08B3A910509F4B3C095
:1015C0008C3A910509F4B2C08B3B910509F4B1C086
:1015D0008C3B910509F4B0C08D3A910509F4AFC078
:1015E000803B910509F4AEC08E3A910509F4ADC077
:1015F0008F3A910509F4ACC0813B910509F4ABC069
:10160000823B910509F4AAC0833B910509F4A9C066
:10161000843B910509F4A8C0853B910509F4A7C056
:10162000863B910509F4A6C0873B910509F4A5C046
:10163000883B910509F4A4C0893B910509F4A3C036
:101640008D3B910509F4A2C08E3B910509F4A1C020
:101650008A3B910509F4A0C0C0E0D4E4E0CED06597
:10166000DECEEC01D86CDBCEDF70D06AD8CE54E091
:10167000969587955A95E1F783702C2F2695269598
:10168000237090E2299F90011124382B8C2F8370B6
:10169000C1E0D0E002C0CC0FDD1F8A95E2F7C22B7B
:1016A000D32BDC68BCCE8370992721E030E002C0E8
:1016B000220F331F8A95E2F7C695C69540E2C49F74
:1016C000E0011124ECCFDC2FCC27C46FD06AA7CE69
:1016D000DC2FCC27C06FD06AA2CE8C2F8F700E94D7
:1016E000670C94E0D695C7959A95E1F7CF70DC2FFB
:1016F000C82FD06994CEC0E0D5ED91CEC0E0D2ED38
:101700008ECEC0E0D1ED8BCEC0E0D3ED88CEC3E865
:10171000D0E485CEC2EED4E482CEC9EED4E47FCE4E
:10172000CAEED4E47CCEC5EBD4E479CEC6EBD4E4E7
:1017300076CEC3EBD4E473CEC4EBD4E470CEC7EB67
:10174000D4E46DCECCECD4E46ACECDECD4E467CE58
:10175000C3E8D5E464CECAE8D5E461CEC2E9D5E4F5
:101760005ECEC4E9D5E45BCEC1E2D6E458CEC3E296
:10177000D6E455CEC4E2D6E452CEC5E2D6E44FCE8E
:10178000C6E2D6E44CCEC7E2D6E449CECFE6D4E4F6
:1017900046CEC0E7D4E443CECAE2D6E440CE803E93
:1017A000910599F1C8F48133910509F476C048F4A4
:1017B0008932910509F46AC08A32910509F474C02E
:1017C000089589339105D1F082389105B9F08533B8
:1017D000910509F454C00895843E910599F138F4B7
:1017E000823E9105F9F0833E910509F10895863E08
:1017F000910599F1873E9105B9F1089520916E0206
:101800002370A1F080EE90E0089520916E0220FDFB
:1018100052C030916F0230FF09C024FF4FC090E0EA
:1018200080E004C020916E0222FDF7CF0895209140
:101830006E0222FD46C030916F0230FDE3CF24FFDF
:10184000F5CFEDCF20916F0221FFF0CF80916E0296
:1018500084FDE5CF87EE90E0089520916E0223FF8E
:10186000E5CF24FDDCCFF6CF20916E0223FD2CC006
:1018700030916F0231FFE3CF84EE90E00895209124
:101880006E0225FFD3CF89E290E0089520916E0289
:1018900025FFCCCF85E390E0089520916E0226FFCE
:1018A000C5CF8AE290E0089520916E0226FFBECF58
:1018B00081E390E0089589E390E0089583EE90E05D
:1018C000089582EE90E0089586EE90E0089590915C
:1018D0006E0292FF06C0282F28712830F9F4877F06
:1018E000846093FF06C0282F28712831F1F4877E89
:1018F000846120916F0220FF06C0382F3871383084
:10190000D9F4877F816021FF06C0282F28712831F4
:10191000D1F4877E816194FD877E0895282F2471FC
:101920002430F9F68B7F8860DCCF282F2471243196
:1019300001F78B7E8861DDCF382F3171313019F797
:101940008E7F8860E0CF282F2171213121F78E7E94
:101950008861E1CF08950C94AA0C08950C94AD0C05
:101960000895E82FF0E0E558FE4F80810895CF926A
:10197000DF92EF92FF920F931F93CF93DF9386EC4A
:1019800093E00E94C7058BE7E82E81E0F82ED0E0B7
:10199000C0E091ECC92E93E0D92E09EB13E0DF9360
:1019A000CF93DF92CF920E9460068EEB93E00E946D
:1019B000C705F70181917F010E9416281F928F931E
:1019C0001F930F930E94600687EB93E00E94C70568
:1019D00021968DB79EB708960FB6F8949EBF0FBE9E
:1019E0008DBFCA30D105D9F6DF91CF911F910F91EC
:1019F000FF90EF90DF90CF900895CF93DF930E94F8
:101A0000660E809100018091000195E0811190E0C7
:101A100090933F0285E0891B80933E02AFE2B1E0E4
:101A200061E070E08D91E82FE295EF70F0E041A168
:101A30008F709B0101C0220F8A95EAF7922F909533
:101A4000942391A382A1822B82A381E0A433B807BF
:101A500049F7A9E2B1E04FE251E0C1E0D0E08D9159
:101A6000E82FE295EF70F0E061A18F709E0101C058
:101A7000220F8A95EAF7922F9095962391A382A13F
:101A8000822B82A34A175B0751F7EBE7F1E085E869
:101A900091E011928E179F07E1F785E00E94120EE8
:101AA000DF91CF910C947D076F927F928F929F92DE
:101AB000AF92BF92CF92DF92EF92FF920F931F935C
:101AC000CF93DF9326E731E04FE2E42E41E0F42E9E
:101AD000712CCC24C394D12CE90179919E01DE01B3
:101AE0001E92F70181917F01E82FE295EF70F0E0FF
:101AF00091A18F70860101C0000F8A95EAF7892FA6
:101B0000802B81A382A1602E6094862182A380EA2B
:101B10008A95F1F799E2A92E91E0B92E50E040E0C4
:101B2000E50169915E01862E82948FE08822912CD6
:101B3000E40188A190E06F7002C0959587956A9541
:101B4000E2F7812C80FD06C04601042E01C0880CFE
:101B50000A94EAF78C91882A8C924F5F5F4F463047
:101B60005105F1F681A1862181A382A1082B02A350
:101B700081E09C91971301C080E0782AD1E02B3757
:101B80003D0709F0A9CF60913F0270E065587E4F94
:101B9000272D45E086E791E00E94130E872DDF9107
:101BA000CF911F910F91FF90EF90DF90CF90BF905A
:101BB000AF909F908F907F906F900895CF930E94E9
:101BC000540DC82F0E944B0E882311F180913E02C4
:101BD00090E085589E4F0E947D0E811116C0909115
:101BE00075019F5F90937501963050F0E0913E0231
:101BF000F0E0E558FE4F10821182128213821482A7
:101C00000E9487078C2FCF91089510927501F8CF0D
:101C100080913F0290E085589E4F0E94A20E0E9444
:101C2000B00CF0CF0895FF920F931F93CF93DF93E3
:101C3000F82E092F162FD72FC42F222349F081E029
:101C4000809387010E94B12990938601809385013A
:101C5000809187018823A1F0809185019091860170
:101C60000E94BD29069760F0EF2DF02FA12FBD2F08
:101C7000CE0FDF2FD11DEC17FD0741F41092870125
:101C8000DF91CF911F910F91FF90089581918D93D6
:101C9000F2CF0C94D22880918801811110C08091DC
:101CA000D80080618093D8008AE18A95F1F700C05E
:101CB0009091D900917082E0891B8093880181E026
:101CC00090918801913009F080E008950E94490EBA
:101CD000809300010E944B0E81110C94710E0C94A4
:101CE000770E61E070E081E091E00C943F1A61E0D2
:101CF00070E081E091E00C94461ACF93DF93D82FE7
:101D0000C92F0E94E01A9C0180E021153105A9F439
:101D1000ED2FFC2FD901A557BE4F8C9181932F5FDA
:101D20003F4F25303105B1F70E940318882341F059
:101D30000E94651880938A0181E0DF91CF91089518
:101D400080E0F8CFFC0190E080E02191DC01A55714
:101D5000BE4F2C93019685309105B9F780918A0189
:101D60000C947C18AF92BF92CF92DF92EF92FF92C9
:101D70000F931F93CF93DF93362F472FE82FF0E079
:101D8000E75BF74F71110EC06491762F862FDF91BC
:101D9000CF911F910F91FF90EF90DF90CF90BF9068
:101DA000AF900895C72FD0E0249186E0689F70011E
:101DB00011240FEF10E0C701B8010E940632832FF3
:101DC00090E0880F991F35E5369FF001379FF00DA1
:101DD00011248E1B9F0B982F990F980FF801EC1B65
:101DE000FD0B2E9FD0012F9FB00D1124EB2F949F40
:101DF000A0011124452F55276801C41AD50AA60150
:101E0000249F6001259FD00C11248D2D5801A91A03
:101E1000B108AC9EA001AD9E500DBC9E500D11248A
:101E2000452F5527041B150B209FA001219F500D06
:101E3000112463307105D9F09CEFE91693E0F9069F
:101E400068F461307105B9F062307105C1F09FEF3F
:101E5000E916F10448F48B2FE52F06C064307105B4
:101E600089F066307105B9F36E2F722F90CFED2D8A
:101E7000822F2B2FF9CFE22F2D2D8B2FF5CF852FF2
:101E8000E22FF7CF822F252FEFCF0895CF93DF9347
:101E9000982F762F842FE901692F0E94B20E798343
:101EA00068838A83DF91CF91089580914002982FB3
:101EB0009E7F29F4817082608093400208958A3465
:101EC000E8F381708864F8CF88E090E00C943135B5
:101ED0000F931F93CF93DF938B01D82FC92F0E94AD
:101EE000550FA8016D2F7C2F88E090E0DF91CF91F6
:101EF0001F910F910C944F35CF93DF9300D000D0FA
:101F0000CDB7DEB7E0E4F2E083E0808311828FEFAB
:101F100082838383148280819181A281B3818983AA
:101F20009A83AB83BC83BC01CD010F900F900F90BF
:101F30000F90DF91CF910C94680F80912E0280FF5B
:101F400076C08AE996E09F938F930E946006809105
:101F50002E020F900F9080FF6AC080914002817026
:101F60001F928F938DE796E09F938F930E94600658
:101F700080912E020F900F900F900F9080FF57C00E
:101F80008091400286951F928F9382E696E09F9300
:101F90008F930E94600680912E020F900F900F90F9
:101FA0000F9080FF44C0809141021F928F9388E47C
:101FB00096E09F938F930E94600680912E020F906F
:101FC0000F900F900F9080FF32C0809142021F92BD
:101FD0008F938EE296E09F938F930E94600680918C
:101FE0002E020F900F900F900F9080FF20C08091D5
:101FF00043021F928F9384E196E09F938F930E94F8
:10200000600680912E020F900F900F900F9080FF2E
:102010000EC0809144021F928F9388EF95E09F93AA
:102020008F930E9460060F900F900F900F9008956D
:102030008091400280FF02C08695089580E0089557
:10204000CF93DF9300D000D0CDB7DEB780914402AC
:10205000833018F48F5F8093440280914002909106
:102060004102A0914202B091430289839A83AB83DB
:10207000BC83BC01CD010F900F900F900F90DF91AA
:10208000CF910C94680FCF93DF9300D000D0CDB7E1
:10209000DEB780914402882319F081508093440276
:1020A0008091400290914102A0914202B09143027E
:1020B00089839A83AB83BC83BC01CD010F900F90C1
:1020C0000F900F90DF91CF910C94680F60910D01EC
:1020D00070E08091400280FF0AC08091940123E06B
:1020E000829FC00111248B5B9D4F0C942C19809111
:1020F000930190910C0123E0829FF0011124EB5B8E
:10210000FD4F891750F71182108212828F5F33962C
:10211000F8CF9091400290FF14C0909193012091CC
:102120000C0133E0939FF0011124EB5BFD4F9217FC
:1021300010F00C9466108183608342839F5F339616
:10214000F6CF0895CF93DF9300D00F92CDB7DEB7CF
:102150009091400290FF0AC09E012F5F3F4F0E9466
:10216000460F4B8169818A810E9489100F900F90E0
:102170000F90DF91CF910895CF93DF93EC01EC8125
:10218000F0E0EB53F94F4491E0E4F2E062818181A9
:102190000E94A2108C818F5F8C83DF91CF91089574
:1021A000CF93DF93EC01E0E4F2E0438162818C8124
:1021B0000E94A2108C818F5F8C83DF91CF91089554
:1021C0000F931F93CF93DF9300D00F92CDB7DEB75D
:1021D0008C018091900181110AC09E012F5F3F4FB9
:1021E0004FEF6FEF0E94460F8A8180939001F801B4
:1021F0006481613049F06230F1F08091900140E0FB
:10220000662331F040E019C06091900140E080E029
:102210000E948910F801848190E0019663E070E0EB
:102220000E941A3284830F900F900F90DF91CF910C
:102230001F910F9108954091900180E060E0E8CFF8
:102240004F925F926F927F928F929F92AF92BF92C6
:10225000CF92DF92EF92FF920F931F93CF93DF9372
:1022600000D000D000D00F92CDB7DEB7182FF62ED9
:10227000042FE22E9091400290FF4CC0E92FE6958A
:10228000AE2FB0E0A75CBE4F8C9180939C019E7FE7
:10229000923009F056C09E012F5F3F4F812F0E9460
:1022A000460F4B8169818A810E94891010934102F7
:1022B000F092420200934302EE2009F4A2C0809102
:1022C000400290914102A0914202B09143028C835E
:1022D0009D83AE83BF83BC01CD010E94680F8091B6
:1022E0002E0280FF17C0809143021F928F9380912E
:1022F00042021F928F93809141021F928F938EE230
:1023000094E09F938F930E9460060FB6F894DEBF0F
:102310000FBECDBF27960FB6F894DEBF0FBECDBF60
:10232000DF91CF911F910F91FF90EF90DF90CF90B1
:10233000BF90AF909F908F907F906F905F904F90E5
:102340000895823019F400914302B0CF863019F419
:1023500010914102ABCF8930D9F3893109F0A6CF72
:10236000E9518E2F8170682E81E0762C7826E695D3
:10237000F0E0EB53F84FC590D490512CDD2493E559
:10238000892E94E0992E60910B01561618F00E9448
:1023900066108CCFA52CB12C5C9CC0015D9C900D6F
:1023A000112470E00E940632412E611028C0460EB2
:1023B00080912E0280FF11C0DF92CF921F927F92F8
:1023C0001F924F921F925F929F928F920E9460067F
:1023D0000FB6F894DEBF0FBECDBF20919301A20EC1
:1023E000B11C9501220F331F2A0D3B1D2B5B3D4F66
:1023F000402F6F2D842D0E94460F5394C4CF461A50
:10240000D7CF80912E0280FF85CF1F920F931F920E
:10241000FF921F921F9387E094E073CF282FE0E490
:10242000F2E0818143816281885F0C94201181E018
:102430000C940E12282FE0E4F2E081814381628146
:1024400088500C94201181E00C941A12282FE0E49B
:10245000F2E0628138E0630F08F46FEF438181811D
:102460000C94201181E00C942612282FE0E4F2E075
:10247000628138E0631B08F460E0438181810C9441
:10248000201181E00C943512282FE0E4F2E0438122
:1024900038E0430F08F44FEF628181810C942011E2
:1024A00081E00C944412282FE0E4F2E0438138E00C
:1024B000431B08F440E0628181810C94201181E08B
:1024C0000C94531220E00C942011EF92FF921F9372
:1024D000CF93DF93EC0110E0EE24EA94F12C6091AD
:1024E0000B01161770F00E9466109A818C8190FF84
:1024F00027C08F5F8C83DF91CF911F91FF90EF906A
:10250000089520919301422F410F5527551FCA016D
:102510009A01220F331F280F391F2B5B3D4F70E0AC
:10252000C7010E941A32962F8C814091430260911C
:102530004202199F800D11240E94460F1F5FCFCFCA
:102540008150D8CFBF92CF92DF92EF92FF920F933C
:102550001F93CF93DF93FC0182810FEF80FF01E097
:1025600010E080910B011817C0F00E946610809156
:102570009201013009F054C0811102C080910B0119
:10258000815080939201DF91CF911F910F91FF9025
:10259000EF90DF90CF90BF900895C0919301C12E2E
:1025A000D12CCC0DDD2DD11DCE01880F991FC80F68
:1025B000D91FCB5BDD4F198218821A8234E0E32EDB
:1025C000F12CB12C809192018B0D8D301CF16CE0BF
:1025D0000E94F831892F082E000C990BC816D906D5
:1025E00091F4809143028E9DA0018F9D500D112486
:1025F00055954795559547959E016091420280916A
:1026000041020E94460FB00EF1E0EF1AF108D1F638
:102610001F5FA7CF87FFDFCF90910B01890FDBCF23
:1026200090E0019660910B0170E00E941A32A9CFF0
:102630000F931F93CF93DF938091930190910C019F
:1026400023E0829FF0011124EB5BFD4F891740F1DD
:10265000C0E0D3E060910B01C61740F10E94661004
:102660002091090180919101820F809391019091B5
:102670000A01920F90930A01191654F4082E000CC7
:10268000990B40910B014150550B841795071CF095
:10269000219520930901DF91CF911F910F9108950A
:1026A0001182108212828F5F3396D0CF0C2F10E0F0
:1026B00070E0C8010E941A3220919301820F482FC6
:1026C00050E020919101022E000C330B02171307EA
:1026D000BCF020910A01022E000C330B20173107A9
:1026E0007CF08D9F900111242B5B3D4F4091430264
:1026F00060914202809141020E94460FCF5FAACFB3
:10270000FA01EE0FFF1FE40FF51FEB5BFD4F118287
:1027100010821282F3CF0F931F93CF93DF938C011C
:10272000FC0184819581019681709927958384832A
:10273000C0E0D5E580910B01C81730F0DF91CF9153
:102740001F910F910C94661020919301422F4C0F12
:102750005527551FCA019A01220F331F280F391F11
:102760002B5B3D4F8C2F8695F80144815581840F5A
:10277000952F911D817040914302609142028D9F7F
:10278000802D11240E94460FCF5FD4CF0F931F934B
:10279000CF93DF93EC0110E000E090910B019017D4
:1027A000110609F06CF40E9466108C8190E001968D
:1027B000817099278C83DF91CF911F910F9108959C
:1027C00020919301A801420F511D9A01220F331F3E
:1027D000240F351F2B5B3D4F4C816091420280914D
:1027E000410296959017110651F04CF0442349F0A0
:1027F000409143020E94460F0F5F1F4FCECF4423EC
:10280000B9F340E0F7CF60914002669570E04BE08D
:1028100050E08EE091E00E947032892B19F481E043
:1028200080939D010E94B129909396018093950118
:1028300080912E0280FF08C08EEE93E09F938F93CD
:102840000E9460060F900F90089510929D01809154
:102850002E0280FF08C085ED93E09F938F930E9426
:1028600060060F900F900895CF93DF9300D000D0B3
:10287000CDB7DEB79091400290FF61C09170811199
:1028800048C0926090934002662309F449C0809149
:10289000400290914102A0914202B091430289838B
:1028A0009A83AB83BC83BC01CD010E94680F8091E9
:1028B0002E0280FF0FC08091400286951F928F9359
:1028C0008EE395E09F938F930E9460060F900F9088
:1028D0000F900F9060914002669570E04BE050E0E1
:1028E0008EE091E00E947032892B31F10E94251414
:1028F00081E080939801409143026091420280916F
:1029000041020F900F900F900F90DF91CF910C9498
:102910006212853210F09864B5CF880F982BB2CF31
:1029200080912E0280FFD6CF8091400286951F9223
:102930008F9380E295E0C6CF0E940314D9CF0F9009
:102940000F900F900F90DF91CF910895682F809195
:10295000400286958F5F853208F081E00C94341434
:1029600081E00C94A614682F9091400296958FEF09
:10297000890F913009F484E20C94341481E00C94B2
:10298000B31461E00C943414809140028160809310
:10299000400280912E0280FF0DC01F9281E08F9334
:1029A00082EB94E09F938F930E9460060F900F90AC
:1029B0000F900F908091400286950C94C11460E0B6
:1029C0000C94341480919B01811160C080912E027F
:1029D00080FF14C081EE95E09F938F930E94600664
:1029E00080912E020F900F9080FF08C08BEC95E035
:1029F0009F938F930E9460060F900F900E942A2849
:102A0000811110C080912E0280FF08C083EA95E0FA
:102A10009F938F930E9460060F900F900E94D02882
:102A20000E947C0F0E94640F6093400270934102E9
:102A300080934202909343026E7FC1F480912E02F4
:102A400080FF08C08AE595E09F938F930E946006FF
:102A50000F900F900E947C0F0E94640F60934002C1
:102A60007093410280934202909343020E94550F5B
:102A70000E949D0F10929D018091400280FF03C033
:102A800086950E94DF1481E080939B010895CF9387
:102A9000DF9300D000D0CDB7DEB7809140028E7FAB
:102AA000809340028091400290914102A0914202A5
:102AB000B091430289839A83AB83BC83BC01CD016F
:102AC0000E94680F80912E0280FF0FC0809140020B
:102AD00081701F928F938AE794E09F938F930E9457
:102AE00060060F900F900F900F900E9425149FEF9B
:102AF000A0E7B2E09150A040B040E1F700C0000074
:102B00000F900F900F900F90DF91CF910C94661063
:102B100080912E0280FF10C08091400280958170CC
:102B20001F928F9389EE94E09F938F930E9460068B
:102B30000F900F900F900F908091400280FD0C94A9
:102B400047150C94C4140F931F93CF93DF93809178
:102B50009D01882309F48DC080919C01E091400281
:102B6000E695E81BE09397018230C9F5F0E0EF535A
:102B7000F94FE491CE2FD0E00CEB10E18091980159
:102B8000882389F0109298010E94B1299E01209516
:102B90003095280F391F309396012093950110929C
:102BA0009A011092990180919501909196010E944D
:102BB000BD298C179D0708F45CC0E0919501F09148
:102BC0009601CE0FDF1FD0939601C093950185E942
:102BD00091E0F801DF91CF911F910F910994863018
:102BE00049F4F0E0E254F94FE491CE2FD0E000ED4B
:102BF00010E1C4CF893051F4E695F0E0E554F94F87
:102C0000E491CE2FD0E005E612E1B8CF8F3051F439
:102C1000E695F0E0E854F94FE491CE2FD0E002EAD7
:102C200012E1ACCF853149F4F0E0EB54F94FE49177
:102C3000CE2FD0E008E113E1A1CFC8EED3E00BE83E
:102C400013E1883109F49ACF833239F4E3EBF6E0EB
:102C5000C591D49100EE10E191CFC4EFD1E006EC24
:102C600013E1843209F48ACFC0EDD7E005E41FE018
:102C700085CFDF91CF911F910F9108950F931F93EF
:102C8000CF93DF93CDB7DEB728970FB6F894DEBFAA
:102C90000FBECDBF80911A018F93809119018F9340
:102CA0008EE591E09F938F931F9288E08F938E0122
:102CB0000F5F1F4F1F930F930E947D32C8010E9428
:102CC0007A070FB6F894DEBF0FBECDBF28960FB6B9
:102CD000F894DEBF0FBECDBFDF91CF911F910F9152
:102CE0000895CF93DF93D82FC92F0E94B1299093D5
:102CF000A1018093A001D0939E01C0939F01DF9119
:102D0000CF91089580919E0190919F01892BE1F0D0
:102D10008091A0019091A1010E94BD2920911901EB
:102D200030911A012817390780F480919E01909103
:102D30009F0192600E94CA061092A1011092A00108
:102D400010929F0110929E01089580919E010E9411
:102D5000231EF2CF10921B010C94821680911B014E
:102D6000882321F010921B010C94821681E080933D
:102D70001B0108951F93CF93DF93EC01FB01128198
:102D8000112309F464C089319C4509F456C0CA3145
:102D90008CE5D807B0F5C731ECE5DE0709F43FC094
:102DA0008091190190911A010597C831FCE5DF0760
:102DB000D9F1C933D10508F5CD32D10530F4C83287
:102DC000D105A8F4C430D105A8F00E9482168091E4
:102DD0001B01882369F10E945F27811129C0CE0160
:102DE0000E94711682E00E94F92710E021C0CB32C8
:102DF000D10559F30E9482161BC0C436D10529F3B0
:102E0000F9CFCB318CE5D807D9F0CC31ECE5DE0732
:102E1000D9F0CA31DC4571F70E94AE1609C0809125
:102E2000190190911A01059690931A018093190146
:102E3000812FDF91CF911F9108950E943E16F8CF08
:102E400081E080931B01F4CF0E94AA16F1CF0E946B
:102E5000821611E0EDCF0E942A28811102C00E9443
:102E6000D0280E94582880936902803320F0877010
:102E700088628093690290916902892F817090FF26
:102E800004C0892F8695869586950C947C18809130
:102E90006902982F969596959695883240F49F5F93
:102EA000990F990F990F8770892B809369028091F0
:102EB00069028160809369020E945C2880912E02E1
:102EC00080FF11C0809169028695869586951F9234
:102ED0008F9381E398E09F938F930E9460060F90F9
:102EE0000F900F900F908091690286958695869538
:102EF0000C947C1880916902982F987F79F0885003
:102F000080936902887F91E009F490E080916902E2
:102F100090FB80F9809369020E945C2880912E02C8
:102F200080FF11C0809169028695869586951F92D3
:102F30008F9389E198E09F938F930E9460060F9092
:102F40000F900F900F9080916902869586958695D7
:102F50000C947C188091690280FD1FC08160809371
:102F60006902813019F489E08093690280916902D5
:102F70000E945C2880912E0280FF08C081EF97E0BC
:102F80009F938F930E9460060F900F90809169022B
:102F90008695869586950C947C1808958091690293
:102FA00080FF14C08E7F809369020E945C2880910C
:102FB0002E0280FF08C08EED97E09F938F930E94B2
:102FC00060060F900F9080E00C947C180895CF93CA
:102FD000C0916902C17080912E0280FF0CC01F92C7
:102FE000CF9383E098E09F938F930E9460060F90A9
:102FF0000F900F900F90CC2319F0CF910C94CE1717
:10300000CF910C94AA1780916902817008959091D4
:103010006902892F8695869586958F5F8F71977047
:10302000863080F5880F880F880F892B809369027E
:1030300080916902887F91E009F490E080916902B3
:1030400090FB80F9809369020E945C2880912E0297
:1030500080FF11C0809169028695869586951F92A2
:103060008F938AEC97E09F938F930E9460060F9056
:103070000F900F900F9080916902869586958695A6
:103080000C947C1890936902D3CF863008F085E0C9
:10309000982F990F990F990F809169028770892B4A
:1030A00080936902887F91E009F490E08091690241
:1030B00090FB80F9809369020E945C2880916902EC
:1030C0008695869586950C947C18809169028695E4
:1030D000869586950895E82FE295EF70F0E032A18D
:1030E000282F2F7081E090E001C0880F2A95EAF721
:1030F0008095832382A30895CF93DF93CDB7DEB766
:1031000028970FB6F894DEBF0FBECDBF863048F5C6
:10311000811128C0909180009F7790938000282F84
:1031200030E0AFEFBFEF0E94563225E030E040E0E4
:1031300050E00E942E32C9012C3764E13607B0F40A
:1031400069E070E00E940632709389006093880005
:1031500028960FB6F894DEBF0FBECDBFDF91CF919A
:10316000089585E0909180009068D7CF2A50374D20
:103170004F4F5F4FB42FA32F922F8827BC01CD0153
:1031800025EF38E241E050E00E942E3229833A8355
:103190004B835C83CA01B9010E94DC319B01AC0105
:1031A00069817A818B819C810E94DC31BB27A92FA8
:1031B000982F872FBC010097A140B10529F66FEF2A
:1031C0007FEFC2CF0895259A85E30E946B1882E8AD
:1031D0008093800089E1809381008FEF9FEF90932F
:1031E0008700809386000C942B179C01CB016BB158
:1031F000542F509556236BB1462B6FB7F894820F1E
:10320000931F2817390711F46FBF0895F9017191C1
:103210009F01E8E04BB9000000C077FF5BB9770F72
:10322000000000C000C000C05BB900C0EA9591F783
:10323000E8CFFC019AB1942B9AB99B01220F331F5E
:10324000620F731FCF010E94F51887EC90E0019781
:10325000F1F700C00000089548E00C9419190F938D
:103260001F93CF93DF93C62FD42F022FFC018281AF
:103270008823C9F06093A4010E94B1299093A3010F
:103280008093A20180E28C0F883008F050C0C77094
:1032900081E001C0880FCA95EAF7DF91CF911F91B5
:1032A0000F910C94361E1091A401161335C0809115
:1032B000A2019091A3010E94BD29883C910560F56F
:1032C000C0E2CD0F1D17B9F080E2810F883040F4C5
:1032D000177081E001C0880F1A95EAF70E943D1E21
:1032E000C83048F481E09D2F977001C0880F9A95EF
:1032F000EAF70E94361E802F0E94231EC830B8F4C1
:10330000D77081E001C0880FDA95EAF7DF91CF919D
:103310001F910F910C943D1E80E28C0F883038F481
:10332000C77081E001C0880FCA95EAF7EFCFDF913F
:10333000CF911F910F9108959C01CB01233F4CE544
:10334000340769F190F4283DFCE53F0721F1293D60
:103350004CE5340781F1273D3C45B1F0FC01828109
:10336000882361F11092A4010895253FFCE53F07F1
:10337000D1F0263F4CE53407D1F0243F3C4571F7AE
:1033800027E245EE64EE03C026E241EE61EE0E94C4
:103390002F1980E0089527E245EE65EEF8CF26E28A
:1033A00041EE60EEF4CF26E241EE62EEF0CF27E28E
:1033B00045EE66EEECCF28E241E0EFCF81E00895E4
:1033C0008EE1489B02C08150E1F7489BFECF0895F3
:1033D000589880E28A95F1F7589A0895FC013BE0ED
:1033E0003A95F1F798E020E080E031E040E14A953D
:1033F000F1F7880F489B02C08160232742E04A957D
:10340000F1F7000040E14A95F1F7915079F790E12A
:103410009A95F1F799B132E03A95F1F7000040E161
:103420004A95F1F7917092272081920F9083089529
:10343000EF92FF920F931F93CF93DF930F92CDB72D
:10344000DEB719828C017C01E60EF11C0E151F05FA
:1034500061F481E09981911180E00F90DF91CF912B
:103460001F910F91FF90EF9008950E94E019CE01F7
:1034700001960E94EE19F80181938F01E7CF909396
:10348000A6018093A501509A589A08959093A60199
:103490008093A5015098589AE89AE9E6F0E0808177
:1034A0008C7F808308956150770B91E001C0990F64
:1034B0006A95EAF720E031E0911108C0222391F0EB
:1034C000589A80E28A95F1F758980895492F482331
:1034D00039F0589A232740E24A95F1F79695ECCFB8
:1034E0005898F9CF5898EDCFFF920F931F93CF9331
:1034F000DF93EC018C01060F111DC017D10731F4C9
:10350000DF91CF911F910F91FF900895F9900E9444
:10351000E81968E08F2D0E94531AEFCF1F920F9287
:103520000FB60F9211242F933F934F935F936F9396
:103530007F938F939F93AF93BF93CF93DF93EF933B
:10354000FF935898509AC091A501D091A6016D8122
:10355000662321F08E819F810E94741A0E94E819CF
:1035600080E18A95F1F758985098589A80E18A95A9
:10357000F1F76A81662309F18B819C810E94181AF8
:10358000E881F981882311F088E001C082E080831E
:103590000E94E019FF91EF91DF91CF91BF91AF9120
:1035A0009F918F917F916F915F914F913F912F915B
:1035B0000F900FBE0F901F901895E881F981E4CF0E
:1035C000CF93DF93C091A501D091A601F894509AB2
:1035D000589885E08A95F1F700005098589A80E253
:1035E0008A95F1F7489B0CC0509A589AE881F98166
:1035F00081E08083789481E090E0DF91CF9108951D
:103600006D81662381F08E819F810E94181A81113D
:103610000AC0509A589AE881F98182E080837894B0
:1036200082E090E0EACF0E94E01980E28A95F1F70B
:103630005898509A80E18A95F1F76A81662321F0C3
:103640008B819C810E94741A0E94E819E881F9819B
:103650001082789490E080E0D0CF9093AC0180937A
:10366000AB010895E091AB01F091AC01309721F0EE
:103670000190F081E02D099480E00895EF92FF928F
:103680000F931F93CF93DF938C01E091AB01F091E7
:10369000AC013097C1F10280F381E02D0995809152
:1036A0002E0282FF30C080FF04C081E599E00E94B5
:1036B000C705D0E0C0E08BE4E82E89E0F82E8091C9
:1036C0002E0280FF0EC0F801EC0FFD1F80811F92BB
:1036D0008F93FF92EF920E9460060F900F900F90D1
:1036E0000F902196C830D10551F780912E0280FFAE
:1036F0000AC089E499E0DF91CF911F910F91FF906B
:10370000EF900C94C705DF91CF911F910F91FF901F
:10371000EF9008952091A9013091AA012817390747
:1037200071F09093AA018093A901E091AB01F0910F
:10373000AC01309721F00680F781E02D09940895BF
:103740002091A7013091A8012817390771F09093B3
:10375000A8018093A701E091AB01F091AC013097F3
:1037600021F00084F185E02D0994089585B78068E3
:1037700085BF85B7806885BF0895089508950C9426
:10378000BD1B08950C94C11B0E94B61B0E94BE1B5A
:103790000C94BF1B0E94A8290E94FD0C0E94172AAE
:1037A0000E942B170E94E2140C94C21BCF93C82FC7
:1037B00080912E0282FF1EC080FF1CC08AE699E025
:1037C0000E94C70580912E0280FF14C01F92CF93E4
:1037D00085E699E09F938F930E94600680912E0268
:1037E0000F900F900F900F9080FF04C083E699E038
:1037F0000E94C7058C2FCF910C949207BF92CF9255
:10380000DF92EF92FF920F931F93CF93DF9300D03D
:1038100000D00F92CDB7DEB70E94DE0D0E944B0E96
:10382000882309F470C08EEAC82E81E0D82E10E0FB
:1038300000E0E02E802F0E94B10CB82EF601F1902E
:103840006F01F81609F459C080912E0281FD0E9483
:10385000B70C30E020E0FB244F2D50E0922FBA014E
:10386000022E02C0759567950A94E2F760FF3FC08B
:103870002983EA8221E030E0790102C0EE0CFF1CCE
:103880009A95E2F72B2D30E02E213F2181E0232B6A
:1038900009F480E08B830E94B1298160782F9D8399
:1038A0008C8349815A816B818D810E94A31CF80110
:1038B000E255FE4F80818E2580830E94321B9091BD
:1038C000AD01891789F10E94321B8093AD010F90E1
:1038D0000F900F900F900F90DF91CF911F910F914C
:1038E000FF90EF90DF90CF90BF900C94D61B2F5F8E
:1038F0003F4F2630310509F0B1CF0F5F1F4F0A301F
:10390000110509F096CF8FEF89838A831B820E946D
:10391000B1298160782F9D838C8349815A816B8185
:103920008D810E94A31CC9CF0F900F900F900F9014
:103930000F90DF91CF911F910F91FF90EF90DF904B
:10394000CF90BF900895CF93DF93CDB7DEB72B977D
:103950000FB6F894DEBF0FBECDBF4F83588769877F
:103960007A878B871E8285E0FE013796DE011196ED
:1039700001900D928A95E1F749815A816B817C8192
:103980008D819E812B960FB6F894DEBF0FBECDBF02
:10399000DF91CF910C947F23FC01808191810C9465
:1039A0000427882309F4FFC08238B9F40E94321B2F
:1039B00081FDF9C089E30E943A270E94AE272FEFCC
:1039C00081EE94E0215080409040E1F700C000007B
:1039D00089E30E9441270C94AE278338A1F40E940A
:1039E000321B80FDE0C083E50E943A270E94AE278B
:1039F0002FEF81EE94E0215080409040E1F700C02D
:103A0000000083E5E6CF8438A1F40E94321B82FDDA
:103A1000CAC087E40E943A270E94AE272FEF81EEAA
:103A200094E0215080409040E1F700C0000087E41E
:103A3000D0CF9CEF980F913A18F40E943A27CBCF41
:103A400090E2980F983050F4877091E001C0990F80
:103A50008A95EAF7892F0E946227BDCF9BE5980FD0
:103A6000933070F4853A31F0863A39F083E890E08B
:103A70000C948A1B81E890E0FBCF82E890E0F8CFBD
:103A800098E5980F973108F08EC0883A09F446C03F
:103A9000893A09F446C08A3A09F446C08B3A09F4D7
:103AA00046C08C3A09F446C08B3B09F446C08C3BB7
:103AB00009F446C08D3A09F446C0803B09F446C07B
:103AC0008E3A09F446C08F3A09F446C0813B09F4A6
:103AD00046C0823B09F446C0833B09F446C0843BA0
:103AE00009F446C0853B09F446C0863B09F446C04C
:103AF000873B09F446C0883B09F446C0893B09F47A
:103B000046C08D3B09F446C08E3B09F446C08A3B53
:103B100009F446C090E080E00C94A01B82EE90E097
:103B2000FBCF89EE90E0F8CF8AEE90E0F5CF85EB01
:103B300090E0F2CF86EB90E0EFCF83EB90E0ECCF1C
:103B400084EB90E0E9CF87EB90E0E6CF8CEC90E05F
:103B5000E3CF8DEC90E0E0CF83E891E0DDCF8AE821
:103B600091E0DACF82E991E0D7CF84E991E0D4CF38
:103B700081E292E0D1CF83E292E0CECF84E292E084
:103B8000CBCF85E292E0C8CF86E292E0C5CF87E254
:103B900092E0C2CF8FE690E0BFCF80E790E0BCCF4D
:103BA0008AE292E0B9CF0895882309F44BC08238A5
:103BB00071F40E94321B81FF45C089E30E943A27BD
:103BC0000E94AE2789E30E9441270C94AE278338D8
:103BD00059F40E94321B80FF35C083E50E943A27CA
:103BE0000E94AE2783E5EFCF843859F40E94321B40
:103BF00082FF28C087E40E943A270E94AE2787E40C
:103C0000E2CF9CEF980F913AF0F290E2980F983043
:103C100050F4877091E001C0990F8A95EAF7892FD7
:103C20000E946827D2CF9BE5980F933020F490E054
:103C300080E00C948A1B885A873120F490E080E061
:103C40000C94A01B0895CF93C82F0E94D11CC93398
:103C500049F42FEF87EE93E0215080409040E1F748
:103C600000C000008C2FCF910C94D41D882321F02C
:103C70000E9462270C94AE270895882321F00E94A9
:103C800068270C94AE270895AF92BF92CF92DF922F
:103C9000EF92FF920F931F93CF93DF9300D000D04A
:103CA0000F92CDB7DEB76C016D837983FC0105817E
:103CB00002950F70128111110E9481270E945827CE
:103CC000E82E882371F01123B1F08D81805E883059
:103CD00090F082E00E94F9270E94582791E0E82E98
:103CE000E926A980A2949FE0A922B12CF501E95F01
:103CF000F94C0C945032E12CF4CF09810F70F9810A
:103D0000F07F11F00295007F1123B1F0002361F0E4
:103D10008D81805E883018F02D81211109C0802F9F
:103D20000E9462270E94AE278D810E94D11C15C07F
:103D3000802F0E947327F6CF8D810E94D41D00230F
:103D400061F08D81805E883018F04D81411133C063
:103D5000802F0E9468270E94AE2778E0A71AB1083A
:103D600084E0A816B10420F40E94321B0E9492073E
:103D7000EE2009F4E7C10E94542780FDE3C1F6015B
:103D800012820E944E270E945925C6010E94B2202D
:103D90000E944E270F900F900F900F900F90DF9181
:103DA000CF911F910F91FF90EF90DF90CF90BF9038
:103DB000AF900C948A25802F0E947927CCCF59810F
:103DC0005F70F52E6981607F603219F0F29480EFA8
:103DD000F8227D81772369F0713049F1112391F147
:103DE000002351F1F601858180FF9ECF8F7085837E
:103DF00023C0112381F0011106C00E9495278F294D
:103E00000E94361EAACF0130C1F70E9495278F2944
:103E10000E949B27A2CF011106C00E94A4278F2DCC
:103E20000E943D1E9ACF013009F497CFF6CF11239F
:103E300029F0063008F091CF8F2DE2CF053008F041
:103E40008CCFEDCF002359F3FD81F93349F42FEFE7
:103E500047EE53E0215040405040E1F700C00000E1
:103E60008D810E94D41D79CF898186958695837036
:103E700069F0813009F071CF8D81998193701111B2
:103E800002C090E080E00E94A01B67CF8D819981E5
:103E90009370111102C090E080E00E948A1B5DCFF8
:103EA0008981837009F050C0111157CF4D8142951F
:103EB00046954770440F440F8D818F7090E0B0E0BD
:103EC000A0E0042E04C0880F991FAA1FBB1F0A94EC
:103ED000D2F76D8100E010E0980164FF0FC00FE0A1
:103EE00010E020E030E004C0000F111F221F331F3C
:103EF0004A95D2F700951095209530957981769561
:103F0000769573707D83B901A801482B592B6A2BD4
:103F10007B2B49835A836B837C835D8169817A81A2
:103F20008B819C81523051F0533059F0513019F04F
:103F30000E94CF2412CF0E94A7240FCF0E94F72403
:103F40000CCF0E94A52409CF8695112311F08981F9
:103F50008170882309F401CF4D81429546954770C1
:103F6000440F440F8D818F7090E0B0E0A0E0042EEC
:103F700004C0880F991FAA1FBB1F0A94D2F76D8136
:103F800000E010E0980164FF0FC00FE010E020E0B7
:103F900030E004C0000F111F221F331F4A95D2F7D3
:103FA000009510952095309579817695769573706A
:103FB0007D83B901A801482B592B6A2B7B2B4983A0
:103FC0005A836B837C835D8169817A818B819C813B
:103FD000523051F0533059F0513019F00E941826E8
:103FE000BCCE0E94F025B9CE0E944026B6CE0E94DB
:103FF0002325B3CE69816F706983112329F0862F41
:104000000E9459258D81FCCE8D810E943D1E8981A3
:104010000E948A25A2CE7D81723FA1F160F4703F9B
:10402000E1F0713F41F1112309F445C001117CCE4B
:1040300089818F7124C08D81833F49F1843F99F735
:10404000112379F199819F719983892F0E945925B4
:1040500063E089810E94E42780CE112341F005307E
:1040600008F07BCE89818F710E94BF2576CE063005
:1040700008F073CEF7CF89818F71112349F20E9426
:1040800059256BCE89818F711123C9F3C1CF1123BB
:1040900029F089818F710E9434255FCE0E942F25DF
:1040A0005CCE81E00E94F927023008F456CE82E00F
:1040B0000E94F92752CE002361F0ED81E93309F027
:1040C000CFCEFFEF27EE43E0F15020404040E1F734
:1040D000C5CE89818F719CCF49814F706D81C6019A
:1040E0000E94C3090E94192438CE111136CE59817D
:1040F0005F7059835330D1F048F4513089F0523019
:1041000091F051112ACE0E94471727CE6981643061
:1041100081F080E0653009F020CE0E9445181DCE68
:104120000E947A171ACE0E94E71717CE0E9407182E
:1041300014CE85E0F2CF49814F706D81C6010E9497
:10414000C6090BCE0F900F900F900F900F90DF913C
:10415000CF911F910F91FF90EF90DF90CF90BF9084
:10416000AF9008950F931F93CF93DF93EC018B8152
:104170009C81892B29F08881998189238F3F29F49B
:10418000DF91CF911F910F910895CE010E94B0074A
:104190008823B1F3688179818A810E9410278C017C
:1041A0000E9468260E94A424B801CE01DF91CF911D
:1041B0001F910F910C94441E882321F00E947327B5
:1041C0000C94AE270895882321F00E9479270C943F
:1041D000AE2708950E9481270E9492270E94AE2751
:1041E00090E080E00E948A1B90E080E00C94A01B8D
:1041F0000E9448270C94EA200E9470270C94F82013
:10420000282F892F82958F70903C80F48A30B0F4EB
:10421000843020F4823090F480E008958630E1F715
:1042200081E0283E88F0213FB9F70EC08C3011F0B4
:104230008F3091F793FB882780F9089581E0203F24
:1042400039F018F4283E40F70895243F29F7FCCFB1
:1042500008950E9404270C940021CF93DF9300D08F
:1042600000D00F92CDB7DEB70F900F900F900F9048
:104270000F90DF91CF910895CF93DF9300D000D0BE
:1042800000D0CDB7DEB726960FB6F894DEBF0FBECE
:10429000CDBFDF91CF9108951F93CF93DF93E0912E
:1042A000B90116E08091BA018E1304C0DF91CF915D
:1042B0001F910895CE2FD0E01E9FF0011124E554E8
:1042C000FE4F4081518162817381848195810E947A
:1042D0003C21FE013196E770E5CF4091EB01509112
:1042E000EC016091ED017091EE018091EF019091F0
:1042F000F0010C943C211F93CF93DF938091F00148
:10430000807FC1F48091ED018823A1F08091B901F3
:10431000C091BA016091EB017091EC014091EE0106
:104320005091EF01D62FD723DA01A095B09516E072
:10433000C81304C0DF91CF911F91089590E04115FB
:10434000510511F0DF3F31F401968770F1CF2A0F4C
:104350003B1F17C0189FF001199FF00D1124E55461
:10436000FE4F21812713F0CF20812613EDCF22812C
:104370002111EACF238134812417350740F3241B10
:10438000350B283C310500F72091F0012F7020619A
:104390002093F00126E0289FF001299FF00D1124C1
:1043A000E054FE4F80818F70806180838BEE91E0BE
:1043B0000E94B220DF91CF911F910C944C219F92CB
:1043C000AF92BF92CF92DF92EF92FF920F931F9323
:1043D000CF93DF93CDB7DEB72B970FB6F894DEBF40
:1043E0000FBECDBF7C0185E0F701DE01179601907D
:1043F0000D928A95E1F7D7014C9111965C91119736
:1044000012960C9112978091EE019091EF01009716
:1044100009F456C12091EB013091EC01632F622326
:104420006F3F09F44DC11396CD90DC909090ED0153
:10443000992009F405C1C816D90608F43EC0F60152
:10444000E81BF90BCF0111E0883C910508F010E062
:104450008BEEA82E81E0B82E8091F001982F907FEE
:10446000112309F4C7C0911180C0102F35132AC041
:10447000241328C0011126C08F7080618093F00141
:104480000E946D21C5010E94B2208091F001D701E8
:1044900015968C93812F2B960FB6F894DEBF0FBE26
:1044A000CDBFDF91CF911F910F91FF90EF90DF90E3
:1044B000CF90BF90AF909F900895809590958C0D70
:1044C0009D1DC1CFCD2829F0842F85238F3F09F072
:1044D00013C180E0B82FB170DB2EE091B9012091BB
:1044E000BA0136E080FD1CC00023A1F28091F001EA
:1044F00081608093F00110E0CDCF8E2F90E03E9F41
:10450000F0011124E554FE4F6181651306C06081FE
:10451000641303C062816013E7CFFC013196E7703A
:10452000E213EBCF4F8358878F8198850E94042731
:10453000292F22952F70903260F0225F2F70223049
:1045400078F49F7051F0F7019581907F31F4D12C70
:104550000AC09F7011F08823D1F3805E8830B8F3D1
:10456000C7010E94B2201D2D95CF351315C024130D
:1045700013C0011111C0D70115968C93C7010E9479
:10458000B22086E0F701ABEEB1E001900D928A9582
:10459000E1F70E946D217ECF4F8358878F819885E8
:1045A0000E942921882311F1002301F18091F0015B
:1045B000803270F02091EB013091EC013A83298335
:1045C0001B82DD82CC828E83CE0101960E94B220B6
:1045D00086E0F701ABEEB1E001900D928A95E1F72C
:1045E0000E947B210E946D2111E054CFC7010E94DF
:1045F000B220FACF911111C07C2DDB86CA86602FC4
:104600008B850E942D218BEE91E00E94B22086E0E6
:10461000F50111928A95E9F7BCCF3513BDCF24136C
:10462000BBCF0111B9CFD70115968C93C7010E945A
:10463000B22086E0F50111928A95E9F7192D2ACF6B
:10464000C816D906C0F0B601681B790BCB0110E083
:10465000883C910530F5102F002341F2351310C02E
:1046600024130EC086E0F701ABEEB1E001900D928D
:104670008A95E1F70FCF809590958C0D9D1DE7CF22
:104680004F8358878F8198850E9429218111A0CF5F
:104690008091F00181608093F001C7010E94B220F7
:1046A000F9CE7C2DDB86CA86602F8B850E942D215A
:1046B00086E0EBEEF1E0DF011D928A95E9F769CF24
:1046C000002309F493CF4F8358878F8198850E94E8
:1046D0002921182F882309F489CF86E0F701ABEE52
:1046E000B1E001900D928A95E1F78BEE91E00E9486
:1046F000CC1C0E947B214DCF81E08027EBCE1F9305
:10470000CF93DF93CDB7DEB72C970FB6F894DEBF0B
:104710000FBECDBF4F83588769877A878B879C8769
:10472000CE0107960E94DF21882369F08A859B8548
:10473000892B39F04F815885842F85238F3F09F0CD
:1047400071C016E05FC086E0FE013796DE0111966B
:1047500001900D928A95E1F78A859B85892B89F3D3
:1047600088859F8189238F3F61F32091BA0130E0D2
:10477000C9010196877099274091B9014817190618
:1047800071F40E94FC201092BA011092B90186E0E7
:10479000EBEEF1E0DF011D928A95E9F7D2CF96E0CA
:1047A000929FD001939FB00D1124A554BE4FFE01DE
:1047B000319601900D929A95E1F78093BA010E948B
:1047C0004C21BFCF819FC001112485549E4F0E9470
:1047D000DF218823E9F0E091B9011E9FF001112447
:1047E000E554FE4F408151816281738184819581BE
:1047F0000E943C218091B90190E001968770992731
:104800008093B9018091B9019091BA018913DACFEF
:104810002C960FB6F894DEBF0FBECDBFDF91CF91BF
:104820001F91089569857A858B859C850E943C211E
:1048300088CFEF92FF920F931F93CF93DF938C015A
:10484000892B89F0F12CEE24E394E8012196F801FC
:104850008491843709F457C0A0F4823009F43EC033
:1048600048F48130D1F0DF91CF911F910F91FF90EB
:10487000EF9008959CEF980F9037A8F70E94D11CF5
:104880000AC0853709F44CC09CE7980F903758F759
:104890008F770E94D41D8E0116C00E5F1F4FFE0140
:1048A000849190E2980F983060F48770FE2D01C0DB
:1048B000FF0F8A95EAF78F2F0E9484270E94AE2768
:1048C00002C00E94D11C8F2D815008F4BECFEFE9A9
:1048D000FFE03197F1F700C00000F6CF0E5F1F4FE9
:1048E000FE01849190E2980F983050F48770FE2D6D
:1048F00001C0FF0F8A95EAF78F2F0E948A27DECF2B
:104900000E94D41DE0CF0E5F1F4FFE01C491C15025
:10491000D0F28FE99FE00197F1F700C00000F7CFD8
:104920000E5F1F4FFE01F490CECF08950C94952496
:104930000E94962460931D0270931E0280931F02B2
:10494000909320020C94EA2008950C949824CF931D
:10495000DF9300D000D0CDB7DEB769837A838B8335
:104960009C8380911D0290911E02A0911F02B09124
:10497000200229813A814B815C81282B392B4A2BDB
:104980005B2B29833A834B835C83CA01B9010F9067
:104990000F900F900F90DF91CF910C949824CF93AC
:1049A000DF9300D000D0CDB7DEB769837A838B83E5
:1049B0009C8380911D0290911E02A0911F02B091D4
:1049C000200229813A814B815C81282339234A23A3
:1049D0005B2329833A834B835C83CA01B9010F901F
:1049E0000F900F900F90DF91CF910C949824CF935C
:1049F000DF9300D000D0CDB7DEB769837A838B8395
:104A00009C8380911D0290911E02A0911F02B09183
:104A1000200229813A814B815C81282739274A2746
:104A20005B2729833A834B835C83CA01B9010F90CA
:104A30000F900F900F90DF91CF910C9498240C94CD
:104A400095240C941F250E942125609319027093D0
:104A50001A0280931B0290931C020C94EA2060E0DF
:104A600070E0CB010C9423250F931F93CF93DF931A
:104A700000D000D0CDB7DEB741E050E060E070E09C
:104A80008A019B0104C0000F111F221F331F8A954A
:104A9000D2F709831A832B833C83C901B8010F9095
:104AA0000F900F900F90DF91CF911F910F910C9469
:104AB00023250F931F93CF93DF9300D000D0CDB762
:104AC000DEB741E050E060E070E004C0440F551FE5
:104AD000661F771F8A95D2F78091190290911A026A
:104AE000A0911B02B0911C028A019B01082B192B7B
:104AF0002A2B3B2B09831A832B833C83C901B801E2
:104B00000F900F900F900F90DF91CF911F910F9109
:104B10000C9423250F931F93CF93DF9300D000D0E5
:104B2000CDB7DEB741E050E060E070E004C0440F74
:104B3000551F661F771F8A95D2F74095509560954F
:104B400070958091190290911A02A0911B02B09168
:104B50001C028A019B01082319232A233B23098372
:104B60001A832B833C83C901B8010F900F900F90DB
:104B70000F90DF91CF911F910F910C9423250F93EC
:104B80001F93CF93DF9300D000D0CDB7DEB741E0C5
:104B900050E060E070E004C0440F551F661F771FAF
:104BA0008A95D2F78091190290911A02A0911B0266
:104BB000B0911C028A019B01082719272A273B274D
:104BC00009831A832B833C83C901B8010F900F908E
:104BD0000F900F90DF91CF911F910F910C9423258F
:104BE000CF93DF9300D000D0CDB7DEB769837A834F
:104BF0008B839C838091190290911A02A0911B02D1
:104C0000B0911C0229813A814B815C81282B392B80
:104C10004A2B5B2B29833A834B835C83CA01B901FE
:104C20000F900F900F900F90DF91CF910C94232550
:104C3000CF93DF9300D000D0CDB7DEB769837A83FE
:104C40008B839C838091190290911A02A0911B0280
:104C5000B0911C0229813A814B815C812823392340
:104C60004A235B2329833A834B835C83CA01B901BE
:104C70000F900F900F900F90DF91CF910C94232500
:104C8000CF93DF9300D000D0CDB7DEB769837A83AE
:104C90008B839C838091190290911A02A0911B0230
:104CA000B0911C0229813A814B815C8128273927E8
:104CB0004A275B2729833A834B835C83CA01B90166
:104CC0000F900F900F900F90DF91CF910C942325B0
:104CD0000895292F220FE22FE90FEE0FE80F8E2FF4
:104CE000877041E001C0440F8A95EAF7E695E695A2
:104CF000E69585E0E89FF0011124EF50FE4F30E08B
:104D000020E070E05191DF011197CB01022E02C02B
:104D1000969587950A94E2F781708195852784237B
:104D200085278C932F5F3F4F2530310559F7089524
:104D3000292F220FE22FE90FEE0FE80F9E2F977019
:104D4000E695E695E69585E0E89FF0011124EF50A1
:104D5000FE4F50E040E080E0219130E0092E02C09B
:104D6000369527950A94E2F721703327042E01C067
:104D7000220F0A94EAF7822B4F5F5F4F45305105AF
:104D800059F70895BF92CF92DF92EF92FF920F935F
:104D90001F93CF93DF938C01C0901902D0901A0219
:104DA000E0901B02F0901C0280911D0290911E0267
:104DB000A0911F02B0912002C82AD92AEA2AFB2A10
:104DC000CFE1D0E0BC2ED701C6010C2E04C0B695B1
:104DD000A795979587950A94D2F780FD0EC02197E5
:104DE00088F7B12C8B2DDF91CF911F910F91FF9000
:104DF000EF90DF90CF90BF900895B8018C2F0E9464
:104E0000E309019761F3EECFCF93DF93D82FC92F3A
:104E10000E94C2266D2F7C2FDF91CF910C94E30965
:104E20001F93CF93DF93162FD72F9091B80199231B
:104E300039F0862F972FDF91CF911F910C94042783
:104E4000882391F0862F972F0E94C226C82F682FA3
:104E5000812F9D2F0E946926612F7D2F8C2FDF913E
:104E6000CF911F910C94E309862F972F0E949826CB
:104E7000C82FF2CF682F80911C0190911D010C94D6
:104E80001C29682F80911C0190911D010C941E29F2
:104E900080911C0190911D010C9420298091210288
:104EA000859585958595089580912102877008954F
:104EB00090912102977081E009F480E0089580913B
:104EC0002D02089590912D02982B90932D02089514
:104ED000982F909580912D02892380932D0208951B
:104EE00010922D02089590912C02982B90932C02F1
:104EF0000895982F909580912C02892380932C02FD
:104F0000089510922C02089590912B02982B909363
:104F10002B020895982F909580912B0289238093DE
:104F20002B02089510922B02089580912202089579
:104F300008950C94982790912202981721F080935D
:104F400022020C949927089580912202882329F047
:104F50001092220280E00C9499270895E0911C01A0
:104F6000F0911D0180912D028083E0911C01F09150
:104F70001D01808190912C02892B8083E0911C017E
:104F8000F0911D01808190912B02892B808390915B
:104F90002202992381F0E0911C01F0911D01808192
:104FA000892B808380911C0190911D010E94E12832
:104FB00081110E94A42780911C0190911D010C94E5
:104FC0003E1B08950C94E12798E0899F90011124DD
:104FD000622B609321020E945925809121028595C0
:104FE000859585950C94E2271092210280E00C941F
:104FF000E227909121028095892380932102282F16
:10500000277071F4282F082E000C330B921713060B
:1050100039F08595859585950E948A250C94F4270D
:10502000089590937301809372010895829594E09E
:10503000899F900111242C7C869586958373282B5B
:1050400030E0C901880F991F8A7A35952795257513
:10505000822B089590E080E00E9437359C0181E02A
:105060002C3E3E4F09F080E0089582E090E00C94E1
:10507000293583E090E00C942935CF9384E090E0CB
:105080000E942935C82F81E290E00E942935982F8F
:105090008C2FCF910895CF93682FC92F84E090E093
:1050A0000E943D356C2F81E290E0CF910C943D350C
:1050B00086E090E00C942935682F86E090E00C940F
:1050C0003D35AB01BC018FE090E00C944F35AB0156
:1050D000BC0183E190E00C944F3560E070E0CB01BF
:1050E0000C94672860E070E0CB010E9461280C946A
:1050F0006D286CEE7EEF90E080E00E945B3560E012
:1051000082E090E00E943D3560E083E090E00E9404
:105110003D3510921D0210921E0210921F02109235
:10512000200260E084E090E00E943D3560E081E292
:1051300090E00E943D3560E085E090E00E943D35C2
:1051400060E086E090E00E943D356FEF87E090E000
:105150000E943D3540E050E0BA0188E090E00E94B6
:105160004F3560E08DE090E00E943D3540E050E03A
:10517000BA0188E190E00E944F3560E087E190E05D
:105180000E943D3540E050E0BA018CE190E00E9481
:105190004F3560E080E290E00E943D350C9472282B
:1051A0000C9479288EE090E00E942935982F81E0B8
:1051B000911101C080E00895682F8EE090E00C947A
:1051C0003D35AC019C012E5F3F4F485F5F4F80E053
:1051D0002417350709F40895F90191919F01992346
:1051E000B9F38F5FF5CF9C01FC0132968FEF90E011
:1051F0004191461751F08F3F19F4411101C0892F99
:105200009F5F9630A9F78F3F09F40895280F311D4D
:1052100087FD3A95F901628308959C01FC0132965D
:10522000285F3F4F8191861303C0DF0111971C92C5
:10523000E217F307B9F708950C94F3280C940D299D
:10524000FC01329686E0DF011D928A95E9F7089508
:10525000089508950C9429290E942A2980917402A6
:10526000843061F110922F0288E190E020E40FB6C3
:10527000F894A895809360000FBE2093600080E0B2
:105280000E947C1880E00E9492070E942A2983B71E
:10529000817F846083BF83B7816083BF7894889562
:1052A00083B78E7F83BF0FB6F894A8958091600076
:1052B000886180936000109260000FBE0895089589
:1052C000CF930E9428290E94DE0D0E945F29C0E032
:1052D0008C2F0E94B10C811105C0CF5FCA30C1F77D
:1052E000CF91089581E0FCCF08950C9474290E9419
:1052F000FC200E942B170E94321B0E9492070C94E4
:1053000075291F921FB61F9211248F939F93AF93FD
:10531000BF9380912F02811113C080916A029091F6
:105320006B02A0916C02B0916D024196A11DB11D5E
:1053300080936A0290936B02A0936C02B0936D020B
:10534000BF91AF919F918F911F901FBE1F90189595
:1053500082E084BD93E095BD9AEF97BD80936E0087
:1053600008952FB7F89480916A0290916B02A091F2
:105370006C02B0916D022FBF0895CF92DF92EF9231
:10538000FF929C014FB7F89480916A0290916B0252
:10539000A0916C02B0916D024FBF6C017D01EE24B3
:1053A000FF24A90170E060E0C416D506E606F70602
:1053B00038F0821B930BFF90EF90DF90CF90089511
:1053C0000197F7CF78941F921FB61F9211248F93E5
:1053D0009F93AF93BF9380916A0290916B02A091CB
:1053E0006C02B0916D020196A11DB11D80936A02FD
:1053F00090936B02A0936C02B0936D02BF91AF913A
:105400009F918F911F901FBE1F90189587E797E778
:10541000909301088093000888E19AE00FB6F89411
:10542000A895809360000FBE90936000FFCFCF934C
:10543000DF9300D000D0CDB7DEB70E942A288111BB
:1054400002C00E94D0280E94352880932E020E941C
:105450003D2890936F0280936E020E943928282F76
:1054600030E050E040E029833A834B835C83CA01FB
:10547000B9010F900F900F900F90DF91CF910C9486
:10548000A52480913B02089508959FB7F894109247
:1054900032029FBF90917402943009F048C020916D
:1054A000E9002F703091EC00932F917030FD90E85F
:1054B000922B23E02093E9002091EB0020FF34C0E1
:1054C0002091EE0027FF30C020913002222321F0EE
:1054D0002091E80025FF28C01092300226E030918C
:1054E000E80035FF14C08093F1008091E80085FD4D
:1054F00027C08091E80080FFFCCF8091E8008E7784
:105500008093E8009F709093E90080E008953091C7
:105510007402343049F43091EB0035FD05C0215060
:1055200041F481E0809330029F709093E9008FEF07
:105530000895EFE9FFE03197F1F700C00000CFCF09
:105540008FB7F89421E0209332028FBFDBCF0F9307
:105550001F93CF93DF9300D00F92CDB7DEB78C01AE
:105560000E94382D823011F0843021F584E0898347
:105570000A831B8382E08093E9008FEF9091E8001B
:10558000815095FD06C095ED9A95F1F700008111C7
:10559000F5CF8091E80085FF0DC050E040E063E06A
:1055A00070E0CE0101960E94552D8091E8008E7723
:1055B0008093E8000F900F900F90DF91CF911F9193
:1055C0000F910895CF93DF9300D00F92CDB7DEB740
:1055D0009C0180917402843031F583E089832058E6
:1055E00031093B832A8382E08093E9008FEF909119
:1055F000E800815095FD06C095ED9A95F1F7000001
:105600008111F5CF8091E80085FF0DC050E040E0AA
:1056100063E070E0CE0101960E94552D8091E80074
:105620008E778093E8000F900F900F90DF91CF91CD
:105630000895CF93DF93D82FC92F0E94382D823041
:1056400011F0843049F581E08093E9008FEF90916B
:10565000E800815095FD06C095ED9A95F1F70000A0
:105660008111F5CF8091E80085FF16C050E040E041
:1056700068E070E08D2F9C2F0E94552D8091E800EE
:105680008E778093E80088E0ED2FFC2FA3E3B2E053
:1056900001900D928A95E1F7DF91CF91089582EA0A
:1056A00099E00E94C70580917302811109C00E9490
:1056B000DD2E0E943A2F8091E20084608093E20008
:1056C00008958EE999E00E94C7051092730208952B
:1056D0008AE999E00C94C70586E999E00C94C7051E
:1056E00082E999E00E94C7050C9477292091310244
:1056F0002F5F822F62E30E94EC31992319F02093EF
:105700003102089510923102809132028823F1F023
:10571000809174028430C1F49091E9009F702091CF
:10572000EC00822F817020FD80E8892B93E090931C
:10573000E9009091EB0090FF04C09091EE0097FD7E
:1057400008C08F708093E900109232020895109281
:10575000F1009091E80095FDFACF9091E80090FF5C
:10576000F0CF9091E8009E779093E800EACF42E076
:1057700061EC81E00E94592E42E261EC82E00E94DD
:10578000592E42E261EC83E00C94592E809176020E
:10579000893089F148F4823009F49DC0833009F4DE
:1057A00058C0813041F008958A3009F484C08B30AC
:1057B00009F46AC0089580917502813A09F048C0E1
:1057C0008091E800877F8093E80080917902909132
:1057D0007A02892B61F468E083E392E070E00E9432
:1057E000A42D8091E8008B778093E800089560E015
:1057F00090E080E0F3CF80917502813249F580918D
:10580000790290917A02029718F58091E800877FDB
:105810008093E8008091E80082FF16C09091F30029
:105820008091F200029729F48091F1008B7F813002
:1058300021F48091F10080933B028091E8008B7706
:105840008093E8000C948D2E809174028111E2CF38
:10585000089580917502813AD9F7809179029091EB
:105860007A02892BA9F78091E800877F8093E8006E
:105870008091E80080FFFCCF809128018093F100A7
:105880008091E8008E77DCCF80917502813201F73C
:105890008091790290917A02892BD1F68091E8006B
:1058A000877F8093E8000E948D2E809177028093FD
:1058B00028010C94FC2080917502813249F6809178
:1058C000E800877F8093E8000E948D2E8091780207
:1058D00080933C02089580917502813A09F0B8CF17
:1058E0008091E800877F8093E8008091E80080FF46
:1058F000FCCF80913C02C2CF84B7877F84BF0FB6B4
:10590000F894A8958091600088618093600010925F
:1059100060000FBE80E880936100109261000E94D9
:10592000C41B0E94DD2E0E943A2F8091E200846009
:105930008093E20085E49AE20E94112878940E9404
:10594000C1310E94CA1B8EE191E00E942D1B81E8AB
:1059500099E00E94C70580917402853029F00E9469
:10596000FE1B0E94A315F7CF8DE799E00E94C705A3
:105970000E942C2980917202882369F30E94602979
:10598000882349F30E943F2DE6CF0C94C72CFC01DD
:10599000CB01DA012F2F332723303105D1F070F4FA
:1059A0002130310509F44EC02230310569F48BE510
:1059B00090E02EED39E02D933C930895213231058E
:1059C00021F12232310571F190E080E030E020E0F9
:1059D000F2CFCF019927E230A9F08330910550F43E
:1059E000009769F0EAECF9E0019771F7849190E093
:1059F0009F01E1CFE6EAF9E00397C1F3E5CFEAEDD5
:105A0000F9E0F4CFECEAF9E0F1CF63307105E0F6AC
:105A1000880F991FFC01E459FE4F2081318189E0F4
:105A200090E0C9CF6330710578F6FB01EE0FFF1FE0
:105A3000EA59FE4F208131818D599E4FFC018081B2
:105A400090E0B9CF82E190E029E33AE0B4CF089545
:105A5000CF93C82F0E94272DC0933D02CF91089568
:105A600080917402843011F482E0089581E00895F9
:105A700080913D02811102C00C94302D089580E187
:105A800089BD82E189BD09B400FEFDCF8091D800B7
:105A90008F7D8093D8008091E00082608093E00049
:105AA0008091E00081FDFCCF0895AF92BF92CF922C
:105AB000DF92FF920F931F93CF93DF936C01EB0163
:105AC0008A010E94AC2EF82E811123C00115110508
:105AD00039F0F80180819181C81BD90BC80ED91EFD
