:100000000C94E3040C942A050C942A050C94920693
:100010000C942A050C942A050C942A050C942A05A4
:100020000C942A050C942A050C94B1250C94842672
:100030000C94A1200C942A050C942A050C942A05F2
:100040000C942A050C942A050C942A050C942A0574
:100050000C942A050C9402210C942A050C942A0570
:100060000C942A050C942A050C942A050C942A0554
:100070000C942A050C942A050C942A050C942A0544
:100080000C942A050C942A050C942A050C942A0534
:100090000C947D050C942A050C942A050C942A05D1
:1000A0000C942A050C942A050C942A0500000000E3
:1000B00000003E5B4F5B3E003E6B4F6B3E001C3EC4
:1000C0007C3E1C00183C7E3C18001C577D571C00D1
:1000D0001C5E7F5E1C0000183C180000FFE7C3E7B1
:1000E000FF00001824180000FFE7DBE7FF0030489E
:1000F0003A060E00262979292600407F05050700CB
:10010000407F05253F005A3CE73C5A007F3E1C1CBF
:100110000800081C1C3E7F0014227F2214005F5F31
:10012000005F5F0006097F017F00006689956A0015
:1001300060606060600094A2FFA2940008047E04E6
:10014000080010207E20100008082A1C0800081C47
:100150002A0808001E10101010000C1E0C1E0C00A7
:1001600030383E383000060E3E0E0600000000001B
:10017000000000005F000000000700070000147F7F
:10018000147F1400242A7F2A1200231308646200BB
:10019000364956205000000807030000001C224189
:1001A00000000041221C00002A1C7F1C2A000808B5
:1001B0003E080800008070300000080808080800A9
:1001C0000000606000002010080402003E51494514
:1001D0003E0000427F4000007249494946002141EB
:1001E000494D33001814127F10002745454539004A
:1001F0003C4A494931004121110907003649494922
:100200003600464949291E00000014000000004045
:1002100034000000000814224100141414141400C7
:100220000041221408000201590906003E415D59AF
:100230004E007C1211127C007F49494936003E4134
:10024000414122007F4141413E007F4949494100EF
:100250007F09090901003E41415173007F080808E8
:100260007F0000417F4100002040413F01007F08A6
:10027000142241007F40404040007F021C027F006A
:100280007F0408107F003E4141413E007F0909097B
:1002900006003E4151215E007F091929460026498A
:1002A0004949320003017F0103003F4040403F00C5
:1002B0001F2040201F003F4038403F0063140814B7
:1002C00063000304780403006159494D4300007F33
:1002D00041414100020408102000004141417F00DB
:1002E00004020102040040404040400000030708AF
:1002F00000002054547840007F284444380038449B
:1003000044442800384444287F003854545418008A
:1003100000087E0902001824241C78007F080404C9
:10032000780000447D4000002040403D00007F10E8
:100330002844000000417F4000007C0478047800DD
:100340007C08040478003844444438007C18242491
:100350001800182424187C007C0804040800485461
:100360005454240004043F4424003C4040207C00BA
:100370001C2040201C003C4030403C0044281028F9
:1003800044004C9090907C004464544C440000081D
:1003900036410000000077000000004136080000F0
:1003A0000201020402003C2623263C00000000005B
:1003B0000080808080000000000080E070180C1831
:1003C00030E080000010F8901030783010B8FC3821
:1003D00010000000000000F8FCF800000000000021
:1003E000000000000000001C9C1C00000000F8FC45
:1003F000F80000000000001CFCF8C0000000000035
:100400000080E0F87C1C000000F0FCFCFC1C1C1CC4
:100410001C1C1C1C1C000000000000C0F0F8381C54
:100420001C1C1C1C1C3CF8F0E000E0F0F0F0E0ECC0
:10043000EEF7F37020007C7C7C7E007E7E7E7F7FEA
:100440007F000080C0E07E5B4F5BFEC00000C0000C
:10045000DCD7DEDEDED7DC00C000000000000000DC
:10046000000000000000000000000000000000008C
:10047000000FBCE0818181838382870C183060C0CB
:1004800000001FFE90B9FFBB91983C1811133F115B
:1004900000000000000000FFFFFF0000000000005F
:1004A00000000000000000FFFFFF00000000FFFF51
:1004B000FF0000000000000000030F7FF8E080F064
:1004C000FC3F0F0100000000003F3F3F1C1C1C1CB4
:1004D0001C3C78F8F0E08000000000C3E7FF7E3CA1
:1004E0003878787070F8FFDF87000F1F3F7F7F7FBD
:1004F0007F7F3F1E0C001F1F1F3F003F3F3F7F7F3E
:100500007F00307B7F7830202030787F3B000300F5
:100510000F7F0F0F0F7F0F0003000000000000008F
:10052000000000000000000000000000183C2466ED
:100530006341C18180808080808081C14162386C4C
:100540004CC68181808080808081C14362361C18C6
:1005500000000000000000FFFFFFC0C0C0C0C0C01E
:10056000C0C0C0800000007FFF7F000000007FFF50
:10057000FFC080000000E0E0C0C0C0E0F97F1F07BE
:1005800000000000000000000070F0E0E0C0C0C00B
:10059000C0E0F0F87F3F0F0000000F3F7FF9E0E080
:1005A000C0C0C0C0C0E0F97F3F1F000000000000D5
:1005B000000000000000000000000000000000003B
:1005C000000000000000000000000000000000002B
:1005D000000000000000000000000000000000001B
:1005E00000000000000000000000000029001E00C4
:1005F0001F002000210022002B0014001A00080018
:10060000150017002A0004001600070009000A0060
:10061000D75C1D001B000600190005000000040443
:10062000E000E30001512F002E00270026002500E6
:10063000240023002D00130012000C0018001C00E1
:10064000280034000F000E000D000B00D85C3800AD
:100650003700360010001100000000004E0002516B
:100660002C00300029001E081F082008210822083D
:100670002B0114081A082900150817082A08025126
:100680001608060819081B086A000408070868000D
:100690001D081C08000000000000000001002F02DF
:1006A00045002701260100003102330044003502D5
:1006B0004F08520050081C01330235004F00510012
:1006C00050004C00720031000A080A0A09082A008A
:1006D000000000004B00E7000000300280001E0C0C
:1006E0001F0C3C003D003E00AA000000000000007E
:1006F000150A6900A80001000000E3002B0070004B
:100700001A5C0000000000007100180100000000E9
:100710000000000000002F082E02430042004100AC
:1007200040003F002D026D004F0A5202500A0E0A8F
:100730006B006F004F025102500200006E006C000F
:100740004F065006000011080000000000000100E4
:100750000000300800000000000000002A2B2800E4
:100760000000000000000000000000000000002960
:10077000000000002C1E3420212224342627252EA0
:10078000362D3738271E1F202122232425263333D8
:10079000362E37381F0405060708090A0B0C0D0E04
:1007A0000F101112131415161718191A1B1C1D2FD0
:1007B0003130232D350405060708090A0B0C0D0EF0
:1007C0000F101112131415161718191A1B1C1D2FB0
:1007D0003130354C00000000000000000000000037
:1007E0000000000000000000000000000000000009
:1007F00000000000000000000000000000000000F9
:1008000000000000000000000000000000000000E8
:1008100000000000000000000000000000000000D8
:1008200000000000000000000000000000000000C8
:1008300000000000000000000000000000000000B8
:1008400000000000000000000000000000000000A8
:100850000000000000000000000000000000000098
:100860000000000000000000000000000000000088
:10087000000000000001010101010100010101016E
:100880000000000000000000000000000000010067
:100890000100010101010101010101010101010149
:1008A0000101010101010101010101010101010039
:1008B0000000010100000000000000000000000036
:1008C0000000000000000000000000000000000127
:1008D000010101000403300000000E034C00690018
:1008E0006C007900350038000000120346005F00FC
:1008F000590055005500430048004900000004031A
:10090000090409023B00020100A0FA0904000001E9
:1009100003010100092111010001224000070581A6
:100920000308000A09040100010300000009211165
:100930000100012236000705820320000A1201107F
:10094000010000000851FC580000010102030105EC
:10095000010980A10185031A81002A830016010084
:10096000260300950175108100C0050C0901A10145
:1009700085041A01002A9C02160100269C0295019A
:1009800075108100C005010906A101050719E029BC
:10099000E71500250195087501810295017508810B
:1009A000010507190029FF150026FF0095067508A7
:1009B0008100050819012905950575019102950128
:1009C00075039101C00011241FBECFEFDAE0DEBF36
:1009D000CDBF04B603FE27C08091A5039091A60366
:1009E000A091A703B091A8038730904BA740B04BCC
:1009F000D1F41092A5031092A6031092A7031092AF
:100A0000A80314BE84B7877F84BF0FB6F894A89557
:100A100080916000886180936000109260000FBE3A
:100A2000E0E0F8E3099512E0A0E0B1E0EEECF7E5D4
:100A300002C005900D92AC31B107D9F723E0ACE1CB
:100A4000B2E001C01D92A53AB207E1F70E94E2228E
:100A50000C94BF2B0C94000083E390E02091BC0029
:100A600027FD02C00197D1F708951092B9008CE0DC
:100A70008093B8000895CF93C82F84EA8093BC0078
:100A80000E942C058091B900887F883041F08091C8
:100A9000B900887F803119F081E0CF910895C0932B
:100AA000BB0084E88093BC000E942C058091B900B3
:100AB000887F883129F08091B900887F803461F780
:100AC00080E0EBCF84E98093BC0083E390E0209149
:100AD000BC0024FD02C00197D1F708958093BB00AC
:100AE00084E88093BC000E942C059091B900987F07
:100AF00081E0983209F480E008951F921FB61F929A
:100B000011248F939F93EF93FF938091B900982FB7
:100B1000987F9038B9F038F4992309F44AC0903698
:100B200071F081E021C0887E883AD9F7E0911D02FA
:100B3000F0E0ED5EFC4F80818093BB0031C01092ED
:100B40001C02EFCF80911C02811122C08091BB005A
:100B500080931D0280911D028031C0F010921D0211
:100B600080E091E090931C029091BC008295880FE8
:100B7000880F807C892B85688093BC00FF91EF9162
:100B80009F918F911F901FBE1F90189581E0E9CF14
:100B9000E0911D02F0E08091BB00ED5EFC4F808390
:100BA00080911D0290E001968F70992780931D021D
:100BB000B8CF1092BC00B5CF8EE14A9B02C08150E5
:100BC000E1F74A9BFECF08955A9880E28A95F1F7A3
:100BD0005A9A0895FC013BE03A95F1F720E090E045
:100BE00080E031E040E14A95F1F7880F4A9B02C06E
:100BF0008160232742E04A95F1F7000040E14A95E1
:100C0000F1F79F5F6913EECF90E19A95F1F799B1F3
:100C100032E03A95F1F7000040E14A95F1F792FB96
:100C2000992790F992272081920F90830895EF924F
:100C3000FF920F931F93CF93DF930F92CDB7DEB741
:100C400019828C017C01E60EF11C0E151F0561F462
:100C500081E09981911180E00F90DF91CF911F91F8
:100C60000F91FF90EF9008950E94DC0568E0CE019F
:100C700001960E94EA05F80181938F01E6CF9093D7
:100C8000200280931F0260931E02529A5A9A08957E
:100C90009093200280931F0260931E0252985A9AEA
:100CA000EA9AE9E6F0E080818F7C808308956150C4
:100CB000770B91E001C0990F6A95EAF720E031E0E7
:100CC000911108C0222391F05A9A80E28A95F1F797
:100CD0005A980895492F482339F05A9A232740E219
:100CE0004A95F1F79695ECCF5A98F9CF5A98EDCFEF
:100CF000FF920F931F93CF93DF93EC018C01060FAC
:100D0000111DC017D10731F4DF91CF911F910F91C1
:100D1000FF900895F9900E94E40568E08F2D0E94ED
:100D20005706EFCF1F920F920FB60F9211240F9319
:100D30001F932F933F934F935F936F937F938F9363
:100D40009F93AF93BF93EF93FF93CF93DF930F9254
:100D5000CDB7DEB719820E94DC0567E0CE010196AF
:100D60000E94EA05082F069506950695982F9295FC
:100D70009570202F2570920F292F237096959695A8
:100D80008770920F891344C08981811141C080917D
:100D90001E028017E8F120E12A95F1F75A9A529A3B
:100DA00082E08A95F1F700C0A8E00A9FC0011124F3
:100DB00000911F0210912002080F191F5A98F80184
:100DC0006581662321F0868197810E9478060E94C2
:100DD000E405F0E1FA95F1F75A9852985A9A20E111
:100DE0002A95F1F7D80112966C911297662331F18A
:100DF00013968D919C910E941706D801ED91FC915C
:100E0000882311F088E001C082E080830E94DC0525
:100E10000F90DF91CF91FF91EF91BF91AF919F9193
:100E20008F917F916F915F914F913F912F911F9182
:100E30000F910F900FBE0F901F901895ED91FC91A0
:100E4000E1CF0F931F93CF93DF939C0180911E02FC
:100E5000821713060CF471C0890183E0000F111F83
:100E60008A95E1F7C0911F02D0912002C00FD11FD7
:100E7000F894529A5A9885E08A95F1F70000922FDB
:100E8000969595702570920F892F837096959695FB
:100E9000980F092B0E94E40500C067E0802F0E9494
:100EA000570680E18A95F1F752985A9A4A9B17C0E3
:100EB00087E090E04A9915C06D81662321F18E810B
:100EC0009F810E94170681111EC0529A5A9AE8818A
:100ED000F98182E08083789482E090E00DC000C0C8
:100EE000E5CF019771F4529A5A9AE881F98181E02D
:100EF0008083789481E090E0DF91CF911F910F91F2
:100F0000089500C0D7CF0E94DC0580E28A95F1F7F2
:100F10005A98529A80E18A95F1F76A81662321F006
:100F20008B819C810E9478060E94E405E881F9810A
:100F30001082789490E080E0DFCF84E090E0DCCF16
:100F4000CF93C82F88E70E943B05882311F0C0E0AB
:100F50000BC080E00E946E058111F9CF8C2F0E949A
:100F60006E05C1E08111F3CF0E9462058C2FCF91F5
:100F70000895CF93C62F0E94A007882321F08C2FBD
:100F8000CF910C94A00780E0CF910895CF93C62F06
:100F90000E94A007882349F080E00E94A0078823D0
:100FA00021F08C2FCF910C94A00780E0CF91089571
:100FB0008EEA0C94A0078FEA0C94A0070F931F935E
:100FC000CF93DF93EC018C010C5A1F4FD801ED91A8
:100FD000FC91119760838D919C91119701968D934F
:100FE0009C938C1B9D0B84359105B9F4BE016B5EFF
:100FF0007F4F4FE350E0CE010E947128CE01CF9683
:10100000F8019183808345E150E060E270E0DF9178
:10101000CF911F910F910C948328DF91CF911F9155
:101020000F9108951F93CF93DF93EC01FC01EA5ACF
:10103000FF4F81E080836A30B1F4329780819181E3
:101040008C1B9D0B65E170E00E943628182F15312E
:1010500020F0DF91CF911F91089560E2CE010E94B0
:10106000DE071F5FF4CFCE01DF91CF911F910C946B
:10107000DE07EF92FF920F931F93CF93DF93F82E2B
:10108000E92EEB01FB0101900020E9F78F010150EF
:101090001109C017D10738F0DF91CF911F910F913F
:1010A000FF90EF90089569918F2D9E2D0E94120858
:1010B000F0CFEF92FF920F931F93CF93DF9300D067
:1010C000CDB7DEB77C018DB79EB79A838983DB01EC
:1010D0000D900020E9F79D01261B370B2F5F3F4F36
:1010E000821B930B0FB6F8949EBF0FBE8DBF0DB73A
:1010F0001EB70F5F1F4F7F936F938DE691E09F9315
:101100008F933F932F931F930F930E949128B801C1
:10111000C7010E943908ADB7BEB718960FB6F8944C
:10112000BEBF0FBEADBF89819A810FB6F8949EBF36
:101130000FBE8DBF0F900F90DF91CF911F910F9138
:10114000FF90EF900895CF93DF93EC0144E550E0DA
:1011500060E270E00E948328FE01EC5AFF4FD183C9
:10116000C083CA5ADF4F81E08883DF91CF91089511
:101170007F928F929F92AF92BF92CF92DF92EF9227
:10118000FF920F931F93CF93DF93EC010E94D12026
:1011900090932202809321020E94DB0763E082E2A7
:1011A0000E94C6078823C9F16DE781E20E94C60745
:1011B000882399F188E70E943B0581112EC080E4C5
:1011C0000E946E05811129C07E014E0184E5880EC2
:1011D000911C96E0792E5701D12CF50101915F0108
:1011E000079D8001112404551F4F86E0C82EF80189
:1011F00084910E946E05CA940F5F1F4FC110F7CFF4
:10120000D394F5E1DF12E9CF85E1E80EF11C8E14ED
:101210009F0409F7CA5ADF4F1882DF91CF911F91BF
:101220000F91FF90EF90DF90CF90BF90AF909F9085
:101230008F907F900C94620583E293E00C94B80841
:101240001F93CF93DF93C82F0E9435058EEA0E942B
:10125000A007811106C0C0E08C2FDF91CF911F91B4
:10126000089560E885ED0E94B9078823A1F36FE136
:1012700088EA0E94B907882371F360E083ED0E9439
:10128000B907882341F380E40E94A007882319F35B
:1012900064E18DE80E94B9078823E9F260E080E20A
:1012A0000E94B9078823B9F2CC2309F465C080EA0B
:1012B0000E94A007882379F280EC0E94A00788236F
:1012C00051F262E08AED0E94B907882321F26FE8AB
:1012D00081E80E94B907882309F4BDCF61EF89ED49
:1012E0000E94B907882309F4B6CF60E48BED0E9411
:1012F000B907882309F4AFCF84EA0E94A0078823A6
:1013000009F4A9CF86EA0E94A007882309F4A3CF95
:101310008EE20E94A007882309F49DCF8FEA0E94E5
:10132000A007882309F497CF60E081E80E94B907FD
:10133000C82F882309F48FCF83E293E00E94A3088B
:1013400063E082E20E94C607882389F06FE781E2AA
:101350000E94C607882359F088E70E943B05811147
:1013600006C080E40E946E0514E08823A1F00E946C
:1013700062050E941C0970CF81EA0E94A0078823A1
:1013800009F469CF88EC99CF80E00E946E05D150B6
:10139000D9F7115011F0D0E8F7CF10927903E7CFC9
:1013A0000E94EF0C80917903811104C080910001AB
:1013B000882321F00E941C091092000180912102D3
:1013C000909122020E94DD2081369A4E10F00C94FA
:1013D000D807089581E0809300010895CF93DF93AB
:1013E000A7E7B1E04CE751E0C1E0D0E08D91E82FF4
:1013F000E295EF70F0E061A18F709E0101C0220FB5
:101400008A95EAF7922F9095962391A382A1822B39
:1014100082A34A175B0751F7DF91CF9108950C948F
:10142000A30C0C94A90C809106038B608093060397
:101430000E94EE09A1E7B1E061E070E08D91E82F34
:10144000E295EF70F0E041A18F709B0101C0220F87
:101450008A95EAF7922F9095942391A382A1822BEB
:1014600082A381E0A737B80749F7559A209A5D9A79
:10147000289AEDE2F2E0A3E2B2E011921D9282E03E
:10148000E733F807D1F70E94830B809337020C945F
:101490002A0E9F92AF92BF92CF92DF92EF92FF926D
:1014A0000F931F93CF93DF9380910201C5E0D0E0AB
:1014B000882311F0D0E0C0E087E7C82E81E0D82E65
:1014C000AE014D5D5D4F7A018A01AA24A394B12C2F
:1014D00025E0922EF60181916F01E82FE295EF70E1
:1014E000F0E021A18F70A50102C0440F551F8A951D
:1014F000E2F7CA01922F982B91A392A1809589239C
:1015000082A350EA5A95F1F7E1E7F1E020E050E0DC
:1015100040E03191A32FA295AF70B0E090968C91EE
:1015200090E03F7002C0959587953A95E2F780FD6F
:1015300039C0C501042E01C0880F0A94EAF7282B90
:101540004F5F5F4F4630510521F7F80180818217C8
:1015500019F02083909201010E94EE090F5F1F4F46
:10156000FCE7CF16F1E0DF0609F0B4CF809101016E
:10157000882359F08150809301018823A9F08FE9D5
:101580009FE00197F1F700C0000081E0DF91CF916B
:101590001F910F91FF90EF90DF90CF90BF90AF9091
:1015A0009F90089580E0CBCFC35DDD4FF70191910F
:1015B0007F0199938F5F8530C9F7E7CFCF93DF9392
:1015C00020910201D0E0C0E0222311F0C5E0D0E07C
:1015D0000E94AD0B009731F0029709F4289881E042
:1015E00090E00BC0289ADE01A35DBD4F25E0E3E447
:1015F000F2E001900D922A95E1F7DF91CF910895E5
:101600000E94490A80910201E5E0F0E0882311F090
:10161000F0E0E0E0E35DFD4F90E080E020E0DC0101
:10162000AD5BBD4F4C913191431321E03C9301964A
:1016300085309105A1F780913B02820F80933B0298
:101640000895CF93DF9380913702882309F440C037
:101650000E94490A80910201C5E0D0E0882311F080
:10166000D0E0C0E0C35DDD4F45E050E0BE018EE359
:1016700092E00E94642825E0FE01AEE3B2E0019012
:101680000D922A95E1F70E94DE0A892BE9F05D9818
:10169000809138028F5F80933802863078F0809195
:1016A0000201F0E0E0E0882311F0E5E0F0E0E35D26
:1016B000FD4F108211821282138214820E94320E18
:1016C00081E0DF91CF9108955D9A10923802F6CFB4
:1016D0000E94000B80910201B0E0A0E0882311F08D
:1016E000A5E0B0E0A35DBD4F85E0EEE3F2E0019040
:1016F0000D928A95E1F7E2CFE82FF0E0E35DFD4F30
:10170000808108950895E8EDF0E080818061808314
:101710008AE18A95F1F700C08091D900817008951F
:101720000E94830B809302010E94830B882321F087
:101730000E94A10B789408950E94A70BFBCF0C94F4
:10174000900B63E070E083E091E00C943F0663E06F
:1017500070E083E091E00C9448060F931F93CF93C1
:10176000DF938C0190911C0180911B01D0E0C0E0BF
:10177000981759F082E090E00E942107EC01892B34
:1017800021F480911B0180931C018091390290917A
:101790003A02082B192B90E080E0012B11F081E038
:1017A00090E00E942107892B71F480913B02809385
:1017B0001B0110923A0210923902CE01DF91CF91B3
:1017C0001F910F91089581E090E090933A028093E9
:1017D0003902F3CF8091F1029091F202A091F302CD
:1017E000B091F40284309105A105B105E1F128F52D
:1017F0000097A105B10571F16DE971E082309105A5
:10180000A105B10549F1BF93AF939F938F9388EBE7
:1018100091E09F938F931F9288E18F938AE793E0E3
:101820009F938F930E9491288DB79EB70A960FB60B
:10183000F8949EBF0FBE8DBF13C088309105A105DF
:10184000B10529F08E309105A105B105E1F66AEAEE
:1018500071E002C061E871E08AE793E00E948A28A3
:101860008AE793E0089560E971E0F6CF8DE191E0B9
:101870000895CF939C01FB01C0E28C33910520F4C5
:10188000DC01A652BE4FCC911F92CF933F932F9372
:1018900080811F928F9381811F928F9389EC91E0B9
:1018A0009F938F931F9288E18F938FE592E09F9390
:1018B0008F930E9491288DB79EB70E960FB6F8941D
:1018C0009EBF0FBE8DBF8091480290914902449700
:1018D00061F41092490210924802EAE4F2E080E2D8
:1018E000819392E0EE35F907D9F780914802909103
:1018F0004902FC01E65BFD4FC083019690934902CB
:1019000080934802CF9108958FE592E008958AE48C
:1019100092E008950F931F93CF93DF93D82FC92F91
:101920008B010E94EA09882359F0B8018D2F9C2F62
:101930000E94130D8170DF91CF911F910F91089537
:1019400080E0F8CF08950E94830B91E089270C94E2
:1019500020090C94D009CF93DF93D82FC92F809101
:1019600037028823B9F00E94EA0BBC018D2F9C2F0F
:101970000E9459080E94840CBC018D2F9C2F0E944C
:1019800059080E94870CBC018D2F9C2FDF91CF91AD
:101990000C9459080E94360CBC018D2F9C2FDF91AE
:1019A000CF910C9439080F931F93CF93DF93EC01E1
:1019B0008B0144E550E00E946428892B59F084E5AE
:1019C000F801DE0101900D928A95E1F7CA5ADF4FC6
:1019D00081E08883DF91CF911F910F910895CF937C
:1019E000DF93CDB7DEB7C755D1090FB6F894DEBF88
:1019F0000FBECDBFCE0101960E94A308CE01019675
:101A00000E94AB0CBE016F5F7F4F83E293E00E94A8
:101A1000D30CC95ADF4F0FB6F894DEBF0FBECDBF4F
:101A2000DF91CF910895FB01228121110E94390C91
:101A300081E00895CF93DF939C01FB019A95811576
:101A40009F4160F5E901CC27D170D901AA27B27076
:101A5000B90166277470A9014427587034FF10C07B
:101A600080E1CD2B09F480E0AB2B09F08062672B7D
:101A700009F08064452B09F08068DF91CF910994CB
:101A800081E0CD2B09F480E0AB2B09F08260672B5D
:101A900009F08460452B89F38860EFCFDF91CF9107
:101AA0000895CF93DF93EC01805E9109089720F0B1
:101AB00067EB78E1209711F463E376E1CE010E94B1
:101AC0001A0D8C2FDF91CF910C943915CF93DF93A2
:101AD000EC010E94F815CE01805E9109089720F074
:101AE0006EEB78E1209711F46AE376E1CE01DF91A5
:101AF000CF910C941A0DCF93DF93D82FC92F0E944A
:101B0000510D8D2F9C2FDF91CF910C94660D81E0AC
:101B100008951F93CF93DF9300D000D00F92CDB7DD
:101B2000DEB749835A836B832091900289819A8121
:101B300021111BC06623A9F00E94211E182F682FB7
:101B400089819A810E94C81D69817A81812F0F90B5
:101B50000F900F900F900F90DF91CF911F910C94E9
:101B6000AF0F0E94F71D182FEFCF0E94211E698131
:101B70007A81EDCFFC014081518162817381848142
:101B80000C94890D1F93CF93DF9390E0FC01EC5AE6
:101B9000F84F1491FC01EC5AF74FD4918C52984FA6
:101BA000FC01C491DD2319F081EE0E943915CC238C
:101BB00019F086EE0E943915812F0E942016CC2341
:101BC00019F086EE0E94F815DD2331F081EEDF91E9
:101BD000CF911F910C94F815DF91CF911F9108952B
:101BE000EF92FF921F93CF93DF93EC01162F888122
:101BF000882339F17E019FEFE91AF90A813041F417
:101C0000C9818C2F0E9439158C2F0E94F81505C0B0
:101C1000823079F489810E943915E7012196812F5C
:101C2000815028F3EFE9FFE03197F1F700C00000A1
:101C3000F7CF833011F48981E8CF0E94C20D7E0175
:101C4000ECCFDF91CF911F91FF90EF90089560E06E
:101C50000C94F00D0E94621F811102C00E94FF1FB0
:101C60000C940F0A0C94110A81E008950C94340E20
:101C7000CF93C82F0E94A20C8C2FCF910C94360EBC
:101C800008950E94D7180E94400E2FEF84E39CE035
:101C9000215080409040E1F700C0000087E797E7BF
:101CA00090930108809300080C9426210F931F93B2
:101CB000CF93DF938C010E94BA0DEC01B8010E9412
:101CC0008A0C882309F47CC0B801CE010E94DF127F
:101CD000882309F475C0B801CE010E94BD13882382
:101CE00009F46EC0CC3D8CE5D80709F483C068F5D3
:101CF000C130FCE5DF0709F469C058F4C115DC45C3
:101D000009F459C0C801DF91CF911F910F910C9434
:101D1000870DC631FCE5DF0760F1C631DC4591F780
:101D20000E94BE1EF8019281992309F40EC18A7A9D
:101D300091E009F490E090937702811104C189E267
:101D40000E94991E0E94FF1E3BC0CE3DECE5DE07BF
:101D500009F449C048F4CD3DDC45A1F6F801828183
:101D6000882371F182E04BC0CE018A5F9C450997C0
:101D700048F6F8018281882329F20E94621F8111AE
:101D800002C00E94FF1F0E94751F909397038093CB
:101D90009603C631FCE5DF0708F041C0C2308CE590
:101DA000D80780F580919603909197030E94831F36
:101DB0000E94D71805C0F801828181110E94410E4E
:101DC00080E0DF91CF911F910F910895F8018281FA
:101DD0008823B1F390910603892F8E7F90FF816055
:101DE00080930603EDCFF8018281882349F30E9496
:101DF000FF1FE6CFF8018281882311F380E00E9463
:101E00008123DECFFE01E350FC4580919603816083
:101E1000E331F10590F4EF53F44D0C944A28CA5F76
:101E2000DC45C930D10508F0BDCFCC52D44DFE0100
:101E30000C944A2880919603826080939603B2CFD7
:101E4000809196038460F9CF809196038860F5CFE6
:101E500080919703816080939703A4CF809197032B
:101E60008260F9CF809196038061E7CF80919603DD
:101E70008062E3CF809196038064DFCF0E94D71801
:101E8000809196038068D9CF809196038C60D5CFDE
:101E9000809197038360DFCF809196038E7FCDCFB3
:101EA000809196038D7FC9CF809196038B7FC5CF9C
:101EB00080919603877FC1CF809197038E7FCBCF90
:101EC000809197038D7FC7CF809196038F7EB5CF8A
:101ED000809196038F7DB1CF809196038F7BADCF9C
:101EE0000E94D718809196038F77A7CF8091960391
:101EF000837FA3CF809197038C7FADCF8091960392
:101F000082FB992790F921E0922790FB82F990FBC0
:101F100083F993CF80919703982F909591708E7F3E
:101F2000892B90FB81F997CF0E94D7189091960347
:101F3000892F97FB87F9805880CF81E00E9401208C
:101F400031CF80E0FBCF85E3FBCE8091770281111A
:101F500004C089E20E94A01EF5CE85E3FBCF972F37
:101F600070E026E0929F600D711D1124FB019CE33F
:101F7000899FE00DF11D1124EE0FFF1FE451FA4F70
:101F8000859194910895FC01EE0FFF1FEC52F74FDD
:101F9000859194910895CF93DF930E94AF0F0E9493
:101FA0008811EC01811520E5920708F0A3C0811586
:101FB00030E4930708F012C1803E910508F079C023
:101FC000803C910508F0F3C0883A910580F4853A89
:101FD000910508F0F2C08130910509F47BC00497A7
:101FE000813A910508F476C0D0E0C0E073C08F3B21
:101FF0009105D1F3883A910509F445C1893A9105D3
:1020000009F444C18A3A910509F443C18B3A910518
:1020100009F442C18C3A910509F441C18B3B910509
:1020200009F440C18C3B910509F43FC18D3A9105FB
:1020300009F43EC1803B910509F43DC18E3A9105FA
:1020400009F43CC18F3A910509F43BC1813B9105EC
:1020500009F43AC1823B910509F439C1833B9105EA
:1020600009F438C1843B910509F437C1853B9105DA
:1020700009F436C1863B910509F435C1873B9105CA
:1020800009F434C1883B910509F433C1893B9105BA
:1020900009F432C18D3B910509F431C18E3B9105A4
:1020A00009F430C18A3B910509F42FC1C0E0D4E4A2
:1020B00011C0811540E2940788F48F3F910509F023
:1020C00048F4883E910530F0805F9109D0654097D3
:1020D00008F08ACFCE01DF91CF910895C11580E33A
:1020E000D80708F475C0CE019927D3FD74C0EC0160
:1020F000D06CF0CFC11595E5D90760F5C11524E581
:10210000D20708F09CC0C11533E5D30778F4C11598
:1021100042E5D40708F082C0C11581E5D80708F46C
:1021200060C0DC2FCC27C16FD06AD4CFCE018370C2
:10213000992721E030E002C0220F331F8A95E2F791
:10214000C695C69590E2C99FE0011124C22BD32BFE
:10215000DA68C0CFC1152AE5D207B0F4C11539E558
:10216000D30708F07CC0C11546E5D40708F46CC05D
:10217000CE0198558F3F910511F008F035CFDC2F37
:10218000CC27C06FD06AA6CFCE0190568115904261
:1021900008F02ACF8D2F8F710E94201290E0982F87
:1021A000882788279F719C012C2BE90156C0805CF1
:1021B00091090E94C30FEC018DCF853A910509F476
:1021C0005CC0863A910509F05BC0C2E8D0E482CFDA
:1021D000CE019F70EECFEC01D86C7CCFDF70D06A5F
:1021E00079CFCE0174E0969587957A95E1F7837063
:1021F0002C2F26952695237040E2249F90011124D0
:10220000382B8C2F8370C1E0D0E002C0CC0FDD1FD3
:102210008A95E2F7C22BD32BDC685CCFCE018370AA
:10222000992721E030E002C0220F331F8A95E2F7A0
:10223000C695C69580E2C89FE0011124EBCFDC2F44
:10224000CC27C46FD06A46CF8C2F0E942012C82F93
:10225000D0E0DC2FCC27CC27DF71D0623BCF8C2F96
:102260008F700E94201234E0D695C7953A95E1F719
:10227000CF70DC2FC82FD0692DCFC1E8D0E42ACF92
:10228000C3E8D0E427CFC2EED4E424CFC9EED4E42F
:1022900021CFCAEED4E41ECFC5EBD4E41BCFC6EBEE
:1022A000D4E418CFC3EBD4E415CFC4EBD4E412CFFD
:1022B000C7EBD4E40FCFCCECD4E40CCFCDECD4E41A
:1022C00009CFC3E8D5E406CFCAE8D5E403CFC2E915
:1022D000D5E400CFC4E9D5E4FDCEC1E2D6E4FACE20
:1022E000C3E2D6E4F7CEC4E2D6E4F4CEC5E2D6E447
:1022F000F1CEC6E2D6E4EECEC7E2D6E4EBCECFE630
:10230000D4E4E8CEC0E7D4E4E5CECAE2D6E4E2CE37
:10231000803E910599F1C8F48133910509F476C0A6
:1023200048F48932910509F46AC08A32910509F4AA
:1023300074C0089589339105D1F082389105B9F0C0
:102340008533910509F454C00895843E910599F1AF
:1023500038F4823E9105F9F0833E910509F1089524
:10236000863E910599F1873E9105B9F10895209136
:1023700096032370A1F080EE90E0089520919603DB
:1023800020FD52C03091970330FF09C024FF4FC099
:1023900090E080E004C02091960322FDF7CF0895DD
:1023A0002091960322FD46C03091970330FDE3CF84
:1023B00024FFF5CFEDCF2091970321FFF0CF80913F
:1023C000960384FDE5CF87EE90E008952091960373
:1023D00023FFE5CF24FDDCCFF6CF2091960323FD2C
:1023E0002CC03091970331FFE3CF84EE90E0089545
:1023F0002091960325FFD3CF89E290E008952091A4
:10240000960325FFCCCF85E390E0089520919603B5
:1024100026FFC5CF8AE290E008952091960326FF1B
:10242000BECF81E390E0089589E390E0089583EEC4
:1024300090E0089582EE90E0089586EE90E0089591
:102440009091960392FF06C0282F28712830F9F446
:10245000877F846093FF06C0282F28712831F1F40C
:10246000877E84612091970320FF06C0382F387142
:102470003830D9F4877F816021FF06C0282F28716A
:102480002831D1F4877E816194FD877E0895282FBD
:1024900024712430F9F68B7F8860DCCF282F2471DB
:1024A000243101F78B7E8861DDCF382F31713130D7
:1024B00019F78E7F8860E0CF282F2171213121F715
:1024C0008E7E8861E1CF0F931F93CF93DF93CDB7BB
:1024D000DEB728970FB6F894DEBF0FBECDBF809150
:1024E0005E018F9380915D018F9386E192E09F93CF
:1024F0008F931F9288E08F938E010F5F1F4F1F9362
:102500000F930E949128C8010E94270E0FB6F894DD
:10251000DEBF0FBECDBF28960FB6F894DEBF0FBE4C
:10252000CDBFDF91CF911F910F910895CF93DF938E
:10253000D82FC92F0E94D12090937B0280937A02DA
:10254000D0937802C0937902DF91CF910895809162
:10255000780290917902892BE1F080917A02909132
:102560007B020E94DD2020915D0130915E012817E1
:10257000390780F4809178029091790292600E94EC
:102580007B0D10927B0210927A02109279021092C7
:1025900078020895809178020E942016F2CF10925E
:1025A0005F010C94A71280915F01882321F01092A3
:1025B0005F010C94A71281E080935F0108951F933F
:1025C000CF93DF93EC01FB011281112309F464C066
:1025D00089319C4509F456C0CA318CE5D807B0F55D
:1025E000C731ECE5DE0709F43FC080915D019091B1
:1025F0005E010597C831FCE5DF07D9F1C933D10584
:1026000008F5CD32D10530F4C832D105A8F4C43074
:10261000D105A8F00E94A71280915F01882369F17B
:102620000E94BE1E811129C0CE010E94961282E036
:102630000E944A1F10E021C0CB32D10559F30E94FD
:10264000A7121BC0C436D10529F3F9CFCB318CE5D5
:10265000D807D9F0CC31ECE5DE07D9F0CA31DC453A
:1026600071F70E94D31209C080915D0190915E01C3
:10267000059690935E0180935D01812FDF91CF914C
:102680001F9108950E946312F8CF81E080935F014B
:10269000F4CF0E94CF12F1CF0E94A71211E0EDCF2C
:1026A0000F931F93CF93DF93C62FD42F022FFC01DC
:1026B00082818823C9F060937E020E94D12090938A
:1026C0007D0280937C0280E28C0F883008F050C03D
:1026D000C77081E001C0880FCA95EAF7DF91CF91FA
:1026E0001F910F910C94331610917E02161335C072
:1026F00080917C0290917D020E94DD20883C9105B2
:1027000060F5C0E2CD0F1D17B9F080E2810F88306F
:1027100040F4177081E001C0880F1A95EAF70E9413
:102720003A16C83048F481E09D2F977001C0880F99
:102730009A95EAF70E943316802F0E942016C8301F
:10274000B8F4D77081E001C0880FDA95EAF7DF911D
:10275000CF911F910F910C943A1680E28C0F883024
:1027600038F4C77081E001C0880FCA95EAF7EFCF4F
:10277000DF91CF911F910F9108959C01CB01233FD1
:102780004CE5340769F190F4283DFCE53F0721F161
:10279000293D4CE5340781F1273D3C45B1F0FC0172
:1027A0008281882361F110927E020895253FFCE525
:1027B0003F07D1F0263F4CE53407D1F0243F3C459C
:1027C00071F727E245EE64EE03C026E241EE61EECA
:1027D0000E94501380E0089527E245EE65EEF8CFA1
:1027E00026E241EE60EEF4CF26E241EE62EEF0CF5B
:1027F00027E245EE66EEECCF28E241E0EFCF81E044
:10280000089590938402809383020895E091830257
:10281000F0918402309721F00190F081E02D09942D
:1028200080E00895E0918302F0918402309721F0D6
:102830000280F381E02D0994089520918102309166
:1028400082022817390771F09093820280938102E7
:10285000E0918302F0918402309721F00680F781A5
:10286000E02D0994089520917F023091800228176D
:10287000390771F09093800280937F02E091830288
:10288000F0918402309721F00084F185E02D0994C5
:10289000089585B7806885BF85B7806885BF08952E
:1028A00008950C94501408950C9453140E944914E4
:1028B0000E949F0B0C94511481E008950E94C8203F
:1028C0000E94130A0E9437210C945414BF92CF9295
:1028D000DF92EF92FF920F931F93CF93DF9300D07D
:1028E00000D00F92CDB7DEB70E94210B0E945C147E
:1028F000882309F470C086E8C82E82E0D82E10E044
:1029000000E0E02E802F0E947C0BB82EF601F190A3
:102910006F01F81609F459C08091060381FD0E94E9
:10292000820B30E020E0FB244F2D50E0922FBA01C3
:10293000022E02C0759567950A94E2F760FF3FC0CA
:102940002983EA8221E030E0790102C0EE0CFF1C0D
:102950009A95E2F72B2D30E02E213F2181E0232BA9
:1029600009F480E08B830E94D1208160782F9D83C1
:102970008C8349815A816B818D810E940B15F801EE
:10298000EA57FD4F80818E2580830E940614909126
:102990008502891789F10E940614809385020F90A1
:1029A0000F900F900F900F90DF91CF911F910F918B
:1029B000FF90EF90DF90CF90BF900C94380E2F5F78
:1029C0003F4F2630310509F0B1CF0F5F1F4F0A305E
:1029D000110509F096CF8FEF89838A831B820E94AD
:1029E000D1208160782F9D838C8349815A816B81AE
:1029F0008D810E940B15C9CF0F900F900F900F90F3
:102A00000F90DF91CF911F910F91FF90EF90DF908A
:102A1000CF90BF900895CF93DF93CDB7DEB72B97BC
:102A20000FB6F894DEBF0FBECDBF4F8358876987BE
:102A30007A878B871E8285E0FE013796DE0111962C
:102A400001900D928A95E1F749815A816B817C81D1
:102A50008D819E812B960FB6F894DEBF0FBECDBF41
:102A6000DF91CF910C945A1BFC01808191810C94D1
:102A7000631E882309F4BBC09CEF980F913A20F4A1
:102A80000E94991E0C94FF1E90E2980F983050F40B
:102A9000877091E001C0990F8A95EAF7892F0E940B
:102AA000C11EF0CF9BE5980F933070F4853A31F05A
:102AB000863A39F083E890E00C941D1481E890E0A8
:102AC000FBCF82E890E0F8CF98E5980F973108F0B7
:102AD0008EC0883A09F446C0893A09F446C08A3A59
:102AE00009F446C08B3A09F446C08C3A09F446C052
:102AF0008B3B09F446C08C3B09F446C08D3A09F47F
:102B000046C0803B09F446C08E3A09F446C08F3A6D
:102B100009F446C0813B09F446C0823B09F446C033
:102B2000833B09F446C0843B09F446C0853B09F465
:102B300046C0863B09F446C0873B09F446C0883B43
:102B400009F446C0893B09F446C08D3B09F446C0F0
:102B50008E3B09F446C08A3B09F446C090E080E011
:102B60000C94331482EE90E0FBCF89EE90E0F8CF26
:102B70008AEE90E0F5CF85EB90E0F2CF86EB90E027
:102B8000EFCF83EB90E0ECCF84EB90E0E9CF87EBE5
:102B900090E0E6CF8CEC90E0E3CF8DEC90E0E0CFDE
:102BA00083E891E0DDCF8AE891E0DACF82E991E035
:102BB000D7CF84E991E0D4CF81E292E0D1CF83E214
:102BC00092E0CECF84E292E0CBCF85E292E0C8CF14
:102BD00086E292E0C5CF87E292E0C2CF8FE690E036
:102BE000BFCF80E790E0BCCF8AE292E0B9CF0895F2
:102BF000882329F19CEF980F913A20F40E94A01E9F
:102C00000C94FF1E90E2980F983050F4877091E07A
:102C100001C0990F8A95EAF7892F0E94C71EF0CF4D
:102C20009BE5980F933020F490E080E00C941D1405
:102C3000885A873120F490E080E00C943314089592
:102C4000CF93C82F0E943915C93349F42FEF87EE6F
:102C500093E0215080409040E1F700C000008C2FAD
:102C6000CF910C94F815882321F00E94C11E0C947A
:102C7000FF1E0895882321F00E94C71E0C94FF1E9A
:102C80000895BF92CF92DF92EF92FF920F931F931E
:102C9000CF93DF9300D000D00F92CDB7DEB76C0199
:102CA0006D837983FC01F580F2949FE0F922028123
:102CB00001110E94E01E0E94B71EB82E882371F0F9
:102CC0000023E1F18D81805E8830C0F182E00E94B6
:102CD0004A1F0E94B71E91E0B82EB926E980E294FF
:102CE0008FE0E822F8E0EF1609F4FBC0FE1508F4C7
:102CF00056C013E01E1520F119811F702981207F15
:102D0000298331E03E1508F05DC02981203211F0A1
:102D10001295107F3D81332309F488C0313009F4C6
:102D2000A5C0002309F4AFC0FF2009F4A5C0F60137
:102D3000858180FF5CC08F7085839EC0B12CCECF13
:102D400084E0E81609F4B1C08E2D8850990B0497E1
:102D500020F40E9406140E94380EBB2009F4CEC154
:102D60000E94B31E80FDCAC1F60112820E94AD1EF0
:102D70000E94B81CC6010E948D180E94AD1E0F90C3
:102D80000F900F900F900F90DF91CF911F910F91A7
:102D9000FF90EF90DF90CF90BF900C94E91C99E0EA
:102DA000E91609F448C186E08E0D8F70823060F616
:102DB0001D81123F09F050C189818F71002309F4F0
:102DC00080C147C12981222311F01295107F002371
:102DD000B1F0112361F08D81805E883018F00D8193
:102DE000011109C0812F0E94C11E0E94FF1E8D810A
:102DF0000E943915A9CF812F0E94D21EF6CF8D8156
:102E00000E94F815112309F49FCF8D81805E8830D0
:102E100018F00D81011106C0812F0E94C71E0E946B
:102E2000FF1E92CF812F0E94D81EF9CF002389F078
:102E3000F11006C00E94E61E812B0E94331684CF3B
:102E400081E0F812F7CF0E94E61E812B0E94EC1E53
:102E50007BCFF11006C00E94F51E812F0E943A160A
:102E600073CF91E0F91609F46FCFF5CF002331F05D
:102E7000E5E0EF1508F468CF812FDFCFF4E0FF1510
:102E800008F462CFEACFFF2041F30D81093349F402
:102E90001FEF27EE33E0115020403040E1F700C033
:102EA00000008D810E94F8154FCF89818695869507
:102EB000837069F0813009F047CF8D8199819370DB
:102EC000011102C090E080E00E9433143DCF8D815B
:102ED00099819370011102C090E080E00E941D145E
:102EE00033CF8981837009F050C001112DCF2D811E
:102EF000229526952770220F220F8D818F7090E0EA
:102F0000B0E0A0E0022E04C0880F991FAA1FBB1FCB
:102F10000A94D2F70D8140E050E0BA0104FF0FC0DF
:102F20004FE050E060E070E004C0440F551F661FA2
:102F3000771F2A95D2F74095509560957095198125
:102F40001695169513701D838A019B01082B192B6A
:102F50002A2B3B2B09831A832B833C831D81698198
:102F60007A818B819C81123051F0133059F01130ED
:102F700019F00E942E1CE8CE0E94061CE5CE0E948D
:102F8000561CE2CE0E94041CDFCE8695002311F071
:102F900089818170882309F4D7CE2D8122952695C9
:102FA0002770220F220F8D818F7090E0B0E0A0E09B
:102FB000022E04C0880F991FAA1FBB1F0A94D2F7C4
:102FC0000D8140E050E0BA0104FF0FC04FE050E037
:102FD00060E070E004C0440F551F661F771F2A95FC
:102FE000D2F7409550956095709519811695169574
:102FF00013701D838A019B01082B192B2A2B3B2B55
:1030000009831A832B833C831D8169817A818B819B
:103010009C81123051F0133059F0113019F00E9498
:10302000771D92CE0E944F1D8FCE0E949F1D8CCE89
:103030000E94821C89CE19811F701983002329F0F8
:10304000812F0E94B81C8D81F8CE8D810E943A1686
:1030500089810E94E91C78CE1D81133F60F4103FE6
:10306000E1F0113F51F1002309F443C0F110BFCE4C
:1030700089818F7126C01D81133F31F1143F99F76B
:10308000002361F109810F710983802F0E94B81C10
:1030900063E089810E94351F57CE002349F024E068
:1030A0002F1508F451CE89818F710E941E1D4CCEC0
:1030B00035E03F1508F448CEF6CF89818F710023A3
:1030C00041F20E94B81C40CE002329F089818F7103
:1030D0000E94931C39CE0E948E1C36CE81E00E9445
:1030E0004A1F11E01F1508F02FCE82E00E944A1FF0
:1030F0002BCEF110CACE89818F71ABCF0F900F907C
:103100000F900F900F90DF91CF911F910F91FF9033
:10311000EF90DF90CF90BF9008950F931F93CF93C0
:10312000DF93EC018B819C81892B29F08881998127
:1031300089238F3F29F4DF91CF911F910F9108953B
:10314000CE010E94560E8823B1F3688179818A816D
:103150000E946F1E8C010E94C71D0E94031CB801B3
:10316000CE01DF91CF911F910F910C9441168823CE
:1031700021F00E94D21E0C94FF1E0895882321F096
:103180000E94D81E0C94FF1E08950E94E01E0E940B
:10319000E31E0E94FF1E90E080E00E941D1490E05C
:1031A00080E00C9433140E94A71E0C94C5180E9452
:1031B000CF1E0C94D318282F892F82958F70903CA6
:1031C00080F48A30B0F4843020F4823090F480E0CF
:1031D00008958630E1F781E0283E88F0213FB9F775
:1031E0000EC08C3011F08F3091F793FB882780F957
:1031F000089581E0203F39F018F4283E40F7089503
:10320000243F29F7FCCF08950E94631E0C94DB181D
:10321000CF93DF9300D000D00F92CDB7DEB70F90E1
:103220000F900F900F900F90DF91CF910895CF9353
:10323000DF9300D000D000D0CDB7DEB726960FB612
:10324000F894DEBF0FBECDBFDF91CF9108951F93DD
:10325000CF93DF93E091910216E0809192028E135A
:1032600004C0DF91CF911F910895CE2FD0E01E9F13
:10327000F0011124ED56FD4F40815181628173812F
:10328000848195810E941719FE013196E770E5CF80
:103290004091C3025091C4026091C5027091C60270
:1032A0008091C7029091C8020C9417191F93CF9375
:1032B000DF938091C802807FC1F48091C50288238A
:1032C000A1F080919102C09192026091C30270912D
:1032D000C4024091C6025091C702D62FD723DA010B
:1032E000A095B09516E0C81304C0DF91CF911F914F
:1032F000089590E04115510511F0DF3F31F401963A
:103300008770F1CF2A0F3B1F17C0189FF001199F3C
:10331000F00D1124ED56FD4F21812713F0CF2081B0
:103320002613EDCF22812111EACF23813481241786
:10333000350740F3241B350B283C310500F720915D
:10334000C8022F7020612093C80226E0289FF00158
:10335000299FF00D1124E856FD4F80818F70806108
:10336000808383EC92E00E948D18DF91CF911F91B2
:103370000C9427199F92AF92BF92CF92DF92EF9257
:10338000FF920F931F93CF93DF93CDB7DEB72B97A9
:103390000FB6F894DEBF0FBECDBF7C0185E0F7010C
:1033A000DE01179601900D928A95E1F7D7014C91B5
:1033B00011965C91119712960C9112978091C6020A
:1033C0009091C702009709F456C12091C302309131
:1033D000C402632F62236F3F09F44DC11396CD9051
:1033E000DC909090C502992009F405C1C816D90651
:1033F00008F43EC0F601E81BF90BCF0111E0883C50
:10340000910508F010E083ECA82E82E0B82E8091A0
:10341000C802982F907F112309F4C7C0911180C072
:10342000102F35132AC0241328C0011126C08F7015
:1034300080618093C8020E944819C5010E948D18BE
:103440008091C802D70115968C93812F2B960FB6C9
:10345000F894DEBF0FBECDBFDF91CF911F910F91CA
:10346000FF90EF90DF90CF90BF90AF909F90089526
:10347000809590958C0D9D1DC1CFCD2829F0842F6E
:1034800085238F3F09F013C180E0B82FB170DB2E88
:10349000E09191022091920236E080FD1CC0002351
:1034A000A1F28091C80281608093C80210E0CDCF64
:1034B0008E2F90E03E9FF0011124ED56FD4F61816B
:1034C000651306C06081641303C062816013E7CF97
:1034D000FC013196E770E213EBCF4F8358878F8161
:1034E00098850E94631E292F22952F70903260F0DC
:1034F000225F2F70223078F49F7051F0F701958190
:10350000907F31F4D12C0AC09F7011F08823D1F341
:10351000805E8830B8F3C7010E948D181D2D95CFAD
:10352000351315C0241313C0011111C0D70115960E
:103530008C93C7010E948D1886E0F701A3ECB2E0DE
:1035400001900D928A95E1F70E9448197ECF4F8332
:1035500058878F8198850E940419882311F10023D0
:1035600001F18091C802803270F02091C302309145
:10357000C4023A8329831B82DD82CC828E83CE01F2
:1035800001960E948D1886E0F701A3ECB2E001904D
:103590000D928A95E1F70E9456190E94481911E090
:1035A00054CFC7010E948D18FACF911111C07C2D04
:1035B000DB86CA86602F8B850E94081983EC92E017
:1035C0000E948D1886E0F50111928A95E9F7BCCF2B
:1035D0003513BDCF2413BBCF0111B9CFD701159639
:1035E0008C93C7010E948D1886E0F50111928A958F
:1035F000E9F7192D2ACFC816D906C0F0B601681B05
:10360000790BCB0110E0883C910530F5102F002399
:1036100041F2351310C024130EC086E0F701A3EC6D
:10362000B2E001900D928A95E1F70FCF80959095C9
:103630008C0D9D1DE7CF4F8358878F8198850E9401
:1036400004198111A0CF8091C80281608093C802C3
:10365000C7010E948D18F9CE7C2DDB86CA86602FAB
:103660008B850E94081986E0E3ECF2E0DF011D92F1
:103670008A95E9F769CF002309F493CF4F835887E0
:103680008F8198850E940419182F882309F489CF07
:1036900086E0F701A3ECB2E001900D928A95E1F784
:1036A00083EC92E00E9434150E9456194DCF81E0C0
:1036B0008027EBCE1F93CF93DF93CDB7DEB72C9748
:1036C0000FB6F894DEBF0FBECDBF4F835887698712
:1036D0007A878B879C87CE0107960E94BA19882328
:1036E00069F08A859B85892B39F04F815885842F15
:1036F00085238F3F09F071C016E05FC086E0FE01B0
:103700003796DE01119601900D928A95E1F78A8530
:103710009B85892B89F388859F8189238F3F61F35E
:103720002091920230E0C90101968770992740915B
:1037300091024817190671F40E94D718109292024C
:103740001092910286E0E3ECF2E0DF011D928A958F
:10375000E9F7D2CF96E0929FD001939FB00D11244C
:10376000AD56BD4FFE01319601900D929A95E1F74D
:10377000809392020E942719BFCF819FC00111241C
:103780008D569D4F0E94BA198823E9F0E09191026D
:103790001E9FF0011124ED56FD4F40815181628141
:1037A0007381848195810E9417198091910290E024
:1037B0000196877099278093910280919102909150
:1037C00092028913DACF2C960FB6F894DEBF0FBEA3
:1037D000CDBFDF91CF911F91089569857A858B8543
:1037E0009C850E94171988CF08950C94F41B0E94A1
:1037F000F51B6093F5027093F6028093F7029093A5
:10380000F8020C94C51808950C94F71BCF93DF931E
:1038100000D000D0CDB7DEB769837A838B839C83D9
:103820008091F5029091F602A091F702B091F80212
:1038300029813A814B815C81282B392B4A2B5B2BC8
:1038400029833A834B835C83CA01B9010F900F909F
:103850000F900F90DF91CF910C94F71BCF93DF93D4
:1038600000D000D0CDB7DEB769837A838B839C8389
:103870008091F5029091F602A091F702B091F802C2
:1038800029813A814B815C81282339234A235B2398
:1038900029833A834B835C83CA01B9010F900F904F
:1038A0000F900F90DF91CF910C94F71BCF93DF9384
:1038B00000D000D0CDB7DEB769837A838B839C8339
:1038C0008091F5029091F602A091F702B091F80272
:1038D00029813A814B815C81282739274A275B2738
:1038E00029833A834B835C83CA01B9010F900F90FF
:1038F0000F900F90DF91CF910C94F71B0C94F41B59
:103900000C947E1C0E94801C6093F1027093F20262
:103910008093F3029093F4020C94C51860E070E079
:10392000CB010C94821C0F931F93CF93DF9300D095
:1039300000D0CDB7DEB741E050E060E070E08A0132
:103940009B0104C0000F111F221F331F8A95D2F75D
:1039500009831A832B833C83C901B8010F900F9010
:103960000F900F90DF91CF911F910F910C94821CBB
:103970000F931F93CF93DF9300D000D0CDB7DEB766
:1039800041E050E060E070E004C0440F551F661F46
:10399000771F8A95D2F78091F1029091F202A0915F
:1039A000F302B091F4028A019B01082B192B2A2BF8
:1039B0003B2B09831A832B833C83C901B8010F90E9
:1039C0000F900F900F90DF91CF911F910F910C945A
:1039D000821C0F931F93CF93DF9300D000D0CDB7FD
:1039E000DEB741E050E060E070E004C0440F551FD6
:1039F000661F771F8A95D2F7409550956095709510
:103A00008091F1029091F202A091F302B091F40240
:103A10008A019B01082319232A233B2309831A8344
:103A20002B833C83C901B8010F900F900F900F902A
:103A3000DF91CF911F910F910C94821C0F931F93D4
:103A4000CF93DF9300D000D0CDB7DEB741E050E098
:103A500060E070E004C0440F551F661F771F8A9511
:103A6000D2F78091F1029091F202A091F302B0910D
:103A7000F4028A019B01082719272A273B2709837B
:103A80001A832B833C83C901B8010F900F900F90CC
:103A90000F90DF91CF911F910F910C94821CCF93C7
:103AA000DF9300D000D0CDB7DEB769837A838B83F4
:103AB0009C838091F1029091F202A091F302B09167
:103AC000F40229813A814B815C81282B392B4A2BC6
:103AD0005B2B29833A834B835C83CA01B9010F9026
:103AE0000F900F900F90DF91CF910C94821CCF9389
:103AF000DF9300D000D0CDB7DEB769837A838B83A4
:103B00009C838091F1029091F202A091F302B09116
:103B1000F40229813A814B815C81282339234A238D
:103B20005B2329833A834B835C83CA01B9010F90DD
:103B30000F900F900F90DF91CF910C94821CCF9338
:103B4000DF9300D000D0CDB7DEB769837A838B8353
:103B50009C838091F1029091F202A091F302B091C6
:103B6000F40229813A814B815C81282739274A2731
:103B70005B2729833A834B835C83CA01B9010F9089
:103B80000F900F900F90DF91CF910C94821C0895AD
:103B9000292F220FE22FE90FEE0FE80F8E2F8770EB
:103BA00041E001C0440F8A95EAF7E695E695E6956F
:103BB00085E0E89FF0011124E753FD4F30E020E05D
:103BC00070E05191DF011197CB01022E02C0969552
:103BD00087950A94E2F7817081958527842385274C
:103BE0008C932F5F3F4F2530310559F70895292FCA
:103BF000220FE22FE90FEE0FE80F9E2F9770E69548
:103C0000E695E69585E0E89FF0011124E753FD4F26
:103C100050E040E080E0219130E0092E02C036956E
:103C200027950A94E2F721703327042E01C0220F52
:103C30000A94EAF7822B4F5F5F4F4530510559F7E1
:103C40000895BF92CF92DF92EF92FF920F931F934E
:103C5000CF93DF938C01C090F102D090F202E090FC
:103C6000F302F090F4028091F5029091F602A09197
:103C7000F702B091F802C82AD92AEA2AFB2ACFE132
:103C8000D0E0BC2ED701C6010C2E04C0B695A79576
:103C9000979587950A94D2F780FD0EC0219788F7F3
:103CA000B12C8B2DDF91CF911F910F91FF90EF9051
:103CB000DF90CF90BF900895B8018C2F0E94CB0F5A
:103CC000019761F3EECFCF93DF93D82FC92F0E94D6
:103CD000211E6D2F7C2FDF91CF910C94CB0F1F9362
:103CE000CF93DF93162FD72F90919002992339F01D
:103CF000862F972FDF91CF911F910C94631E8823FD
:103D000091F0862F972F0E94211EC82F682F812F98
:103D10009D2F0E94C81D612F7D2F8C2FDF91CF9189
:103D20001F910C94CB0F862F972F0E94F71DC82F41
:103D3000F2CF682F80916001909161010C94412035
:103D4000682F80916001909161010C9443208091D3
:103D50006001909161010C9445208091F902859554
:103D60008595859508958091F902877008959091C1
:103D7000F902977081E009F480E0089580910503CD
:103D8000089590910503982B909305030895982F1B
:103D900090958091050389238093050308951092DF
:103DA0000503089590910403982B909304030895BC
:103DB000982F90958091040389238093040308959C
:103DC0001092040308951092030308958091FA025B
:103DD000089508950C94E91E9091FA02981721F025
:103DE0008093FA020C94EA1E08958091FA028823C7
:103DF00029F01092FA0280E00C94EA1E0895E091F6
:103E00006001F0916101809105038083E091600180
:103E1000F0916101808190910403892B8083E0916E
:103E20006001F0916101808190910303892B80836F
:103E30009091FA02992381F0E0916001F091610183
:103E40008081892B808380916001909161010E9423
:103E5000062081110E94F51E809160019091610100
:103E60000C94121408950C94321F98E0899F9001CD
:103E70001124622B6093F9020E94B81C8091F90210
:103E80008595859585950C94331F1092F90280E0F5
:103E90000C94331F9091F902809589238093F90245
:103EA000282F277071F4282F082E000C330B92173F
:103EB000130639F08595859585950E94E91C0C942B
:103EC000451F089590E080E00E944E2B9C0181E008
:103ED0002C3E3E4F09F080E0089582E090E00C9483
:103EE000462B83E090E00C94462BCF9384E090E047
:103EF0000E94462BC82F81E290E00E94462B982F0B
:103F00008C2FCF910895CF93682FC92F84E090E034
:103F10000E94542B6C2F81E290E0CF910C94542B93
:103F2000AB01BC018FE090E00C94662BAB01BC01AF
:103F300083E190E00C94662B60E070E0CB010C9480
:103F4000961F60E070E0CB010E94901F0C949C1FB4
:103F50006CEE7EEF90E080E00E94722B60E082E0E9
:103F600090E00E94542B60E083E090E00E94542B8C
:103F70001092F5021092F6021092F7021092F802D7
:103F800060E084E090E00E94542B60E081E290E0E9
:103F90000E94542B60E085E090E00E94542B60E08A
:103FA00086E090E00E94542B6FEF87E090E00E9443
:103FB000542B40E050E0BA0188E090E00E94662B6C
:103FC00060E08DE090E00E94542B40E050E0BA01A8
:103FD00088E190E00E94662B60E087E190E00E941B
:103FE000542B40E050E0BA018CE190E00E94662B37
:103FF00060E080E290E00E94542B0C94A11F0C948E
:10400000A81F682F8EE090E00C94542BAC019C010B
:104010002E5F3F4F485F5F4F80E02417350709F45C
:104020000895F90191919F019923B9F38F5FF5CF1D
:104030009C01FC0132968FEF90E04191461751F0C0
:104040008F3F19F4411101C0892F9F5F9630A9F766
:104050008F3F09F40895280F311D87FD3A95F90126
:10406000628308959C01FC013296285F3F4F819145
:10407000861303C0DF0111971C92E217F307B9F70B
:1040800008950C9418200C943220FC01329686E09E
:10409000DF011D928A95E9F70895089508950C941B
:1040A0004E200E944F2080919C03843049F1109251
:1040B000070388E190E020E40FB6F894A895809378
:1040C00060000FBE2093600080E00E94380E0E94C6
:1040D0004F2083B7817F846083BF83B7816083BFB4
:1040E0007894889583B78E7F83BF0FB6F894A89590
:1040F00080916000886180936000109260000FBE24
:1041000008950895CF930E944D200E94210B0E9494
:104110008120C0E08C2F0E947C0B811105C0CF5FF5
:10412000CA30C1F7CF91089581E0FCCF08950C9477
:1041300096200E94D7180E9406140E94380E0C94F4
:1041400097201F921FB61F9211248F939F93AF93B6
:10415000BF9380910703811113C0809192039091C6
:104160009303A0919403B09195034196A11DB11DB5
:104170008093920390939303A0939403B093950339
:10418000BF91AF919F918F911F901FBE1F90189567
:1041900082E084BD93E095BD9AEF97BD80936E0059
:1041A00008952FB7F8948091920390919303A09172
:1041B0009403B09195032FBF0895CF92DF92EF92B1
:1041C000FF929C014FB7F8948091920390919303D2
:1041D000A0919403B09195034FBF6C017D01EE2433
:1041E000FF24A90170E060E0C416D506E606F706D4
:1041F00038F0821B930BFF90EF90DF90CF900895E3
:104200000197F7CF78941F921FB61F9211248F93B6
:104210009F93AF93BF938091920390919303A0914A
:104220009403B09195030196A11DB11D8093920353
:1042300090939303A0939403B0939503BF91AF9190
:104240009F918F911F901FBE1F90189587E797E74A
:10425000909301088093000888E19AE00FB6F894E3
:10426000A895809360000FBE90936000FFCFCF931E
:10427000DF9300D000D0CDB7DEB70E94621F81115E
:1042800002C00E94FF1F0E946D1F809306030E94C0
:10429000751F90939703809396030E94711F282F98
:1042A00030E050E040E029833A834B835C83CA01CD
:1042B000B9010F900F900F900F90DF91CF910C9458
:1042C000041C80911003089508950F931F93CF93BA
:1042D000DF9300D00F92CDB7DEB78C010E949123FF
:1042E000823011F0843021F584E089830A831B83B6
:1042F00082E08093E9008FEF9091E800815095FD76
:1043000006C095ED9A95F1F700008111F5CF8091E7
:10431000E80085FF0DC050E040E063E070E0CE01B2
:1043200001960E94AE238091E8008E778093E8008A
:104330000F900F900F90DF91CF911F910F910895E3
:10434000CF93DF9300D00F92CDB7DEB79C01809161
:104350009C03843031F583E08983205831093B8305
:104360002A8382E08093E9008FEF9091E8008150EA
:1043700095FD06C095ED9A95F1F700008111F5CFF6
:104380008091E80085FF0DC050E040E063E070E000
:10439000CE0101960E94AE238091E8008E77809333
:1043A000E8000F900F900F90DF91CF910895CF9379
:1043B000DF93D82FC92F0E949123823011F08430CF
:1043C00049F581E08093E9008FEF9091E8008150FA
:1043D00095FD06C095ED9A95F1F700008111F5CF96
:1043E0008091E80085FF16C050E040E068E070E092
:1043F0008D2F9C2F0E94AE238091E8008E778093B2
:10440000E80088E0ED2FFC2FA8E0B3E001900D92CA
:104410008A95E1F7DF91CF91089580919B038111F7
:1044200009C00E9436250E9493258091E200846095
:104430008093E200089510929B03089508950895D3
:104440000C94992042E061EC81E00E94B22442E2A7
:1044500061EC82E00C94B22480919E03893089F152
:1044600048F4823009F49DC0833009F458C081308B
:1044700041F008958A3009F484C08B3009F46AC091
:10448000089580919D03813A09F048C08091E80029
:10449000877F8093E8008091A1039091A203892BEC
:1044A00061F468E088E093E070E00E94FD23809171
:1044B000E8008B778093E800089560E090E080E06A
:1044C000F3CF80919D03813249F58091A1039091B2
:1044D000A203029718F58091E800877F8093E80097
:1044E0008091E80082FF16C09091F3008091F20065
:1044F000029729F48091F1008B7F813021F4809123
:10450000F100809310038091E8008B778093E8009E
:104510000C94E62480919C038111E2CF0895809150
:104520009D03813AD9F78091A1039091A203892B31
:10453000A9F78091E800877F8093E8008091E800E8
:1045400080FFFCCF80916C018093F1008091E800A6
:104550008E77DCCF80919D03813201F78091A1039A
:104560009091A203892BD1F68091E800877F8093F8
:10457000E8000E94E62480919F0380936C010C94D4
:10458000D71880919D03813249F68091E800877F9A
:104590008093E8000E94E6248091A0038093110399
:1045A000089580919D03813A09F0B8CF8091E80089
:1045B000877F8093E8008091E80080FFFCCF8091A6
:1045C0001103C2CF84B7877F84BF0FB6F894A89534
:1045D00080916000886180936000109260000FBE3F
:1045E00080E880936100109261000E9456140E943E
:1045F00036250E9493258091E20084608093E2003A
:1046000078940E941B280E945E1482E691E00E942A
:10461000011480919C03853019F00E946614F9CF33
:104620000E94512080919A03882399F30E9482204E
:10463000882379F30E949823ECCF0C941F23FC016C
:10464000CB01DA012F2F332723303105D1F070F45D
:104650002130310509F445C02230310569F48BE37E
:1046600090E022E039E02D933C930895213231050A
:1046700021F12232310559F190E080E030E020E074
:10468000F2CFCF019927E230A9F08330910550F4A1
:10469000009769F0EAEEF8E0019771F7849190E0F5
:1046A0009F01E1CFE4EDF8E00397C1F3E5CFEEEF32
:1046B000F8E0F4CFEAEDF8E0F1CF892BB9F0613002
:1046C0007105D1F689E090E02DE239E0CCCF892B5D
:1046D00091F06130710581F686E390E02FE439E0D6
:1046E000C2CF82E190E02DE339E0BDCF89E090E0D8
:1046F00024E139E0B8CF80E490E025E839E0B3CF99
:104700000895CF93C82F0E948023C0931203CF91A6
:10471000089580919C03843011F482E0089581E033
:10472000089580911203811102C00C948923089589
:1047300080E189BD82E189BD09B400FEFDCF809191
:10474000D8008F7D8093D8008091E00082608093B4
:10475000E0008091E00081FDFCCF0895AF92BF9210
:10476000CF92DF92FF920F931F93CF93DF936C0151
:10477000EB018A010E940525F82E811123C0011545
:10478000110539F0F80180819181C81BD90BC80E41
:10479000D91EB12CA12C2097A9F08091E80085FDAD
:1047A00022C08091E8008E778093E8000115110502
:1047B000A1F0F80180819181A80EB91EB182A0827A
:1047C00085E0F82E8F2DDF91CF911F910F91FF90F3
:1047D000DF90CF90BF90AF9008950E940525882369
:1047E000D1F2F82EEFCFF60181916F018093F100A5
:1047F0002197FFEFAF1ABF0ACECFFC01CB0120916A
:10480000A3033091A4032617370790F0009729F4EB
:104810002091E8002E772093E80040E0009751F4C3
:10482000411108C08091E80082FF31C080E0089506
:10483000C901F3CF20919C032223A9F12530A9F1CE
:104840002091E80023FD2DC02091E80022FDEACF51
:104850002091E80020FFE2CF3091F3002091F20098
:10486000009719F02830310558F041E02830310523
:1048700009F040E02091E8002E772093E800CECFA9
:1048800041914093F10001972F5F3F4FE9CF809115
:104890009C03882341F0853041F08091E80083FF3C
:1048A000C1CF81E0089582E0089583E00895FC017E
:1048B000CB012091A3033091A4032617370790F072
:1048C000009729F42091E8002E772093E80040E03B
:1048D000009751F4411108C08091E80082FF32C076
:1048E00080E00895C901F3CF20919C032223B1F108
:1048F0002530B1F12091E80023FD2EC02091E80081
:1049000022FDEACF2091E80020FFE2CF3091F300B2
:104910002091F200009719F02830310558F041E05D
:104920002830310509F040E02091E8002E772093EF
:10493000E800CECF44914093F100319601972F5F6C
:104940003F4FE8CF80919C03882341F0853041F0B0
:104950008091E80083FFC0CF81E0089582E0089550
:1049600083E00895982F973028F08F708093E900A6
:1049700081E008959093E900242F762F50E0981756
:1049800031F07091EC002091ED005091F00021FD8C
:1049900002C09F5FE8CF3091EB003E7F3093EB0089
:1049A0003091ED003D7F3093ED003091EB003160B0
:1049B0003093EB007093EC002093ED005093F000E7
:1049C0002091EE0027FDE5CF80E0089580919D03C2
:1049D00087FF13C08091E80082FF06C08091E80045
:1049E0008B778093E80004C080919C038111F2CF03
:1049F000089580919C038823D9F38091E80080FF7B
:104A0000F8CF8091E8008E77ECCF2091E4003091D0
:104A1000E50095E6A9012091EC00822F817020FF2E
:104A200006C08091E80080FF06C080E008952091D4
:104A3000E80022FD1AC080919C03882389F085300C
:104A400089F08091EB0085FD0FC02091E40030914A
:104A5000E50042175307F9F29150E1F684E008951A
:104A600082E0089583E0089581E008950E94A425DE
:104A70000E94AC25E0EEF0E0808181608083E8ED6B
:104A8000F0E080818F77808319BCA7EDB0E08C9136
:104A90008E7F8C9380818F7E808310929B030895FC
:104AA0000F931F93CF93DF930E94A4250E94AC2500
:104AB000C8EDD0E088818F7788838881806888837B
:104AC00088818F7D888319BC10929C031092980373
:104AD00010929A031092990300EE10E0F801808181
:104AE0008B7F808388818160888342E060E080E002
:104AF0000E94B224E1EEF0E080818E7F8083E2EEBE
:104B0000F0E0808181608083808188608083F8010B
:104B100080818E7F8083888180618883DF91CF91BF
:104B20001F910F910895E8EDF0E080818F7E8083E2
:104B3000E7EDF0E080818160808384E082BF81E0E6
:104B400080939B030C945025E8EDF0E080818E7FEC
:104B500080831092E20008951092DA001092E10032
:104B600008951F920F920FB60F9211242F933F9327
:104B70004F935F936F937F938F939F93AF93BF9365
:104B8000EF93FF938091E10082FF0BC08091E200E0
:104B900082FF07C08091E1008B7F8093E1000E943B
:104BA0001A288091DA0080FF19C08091D80080FF18
:104BB00015C08091DA008E7F8093DA008091D90051
:104BC00080FF94C080E189BD82E189BD09B400FE07
:104BD000FDCF81E080939C030E940D228091E10033
:104BE00080FF19C08091E20080FF15C08091E20033
:104BF0008E7F8093E2008091E20080618093E200EA
:104C00008091D80080628093D80019BC85E08093A1
:104C10009C030E941F228091E10084FF29C08091A3
:104C2000E20084FF25C080E189BD82E189BD09B42D
:104C300000FEFDCF8091D8008F7D8093D8008091B9
:104C4000E1008F7E8093E1008091E2008F7E80936F
:104C5000E2008091E20081608093E20080919803FD
:104C6000882309F449C084E080939C030E94202299
:104C70008091E10083FF29C08091E20083FF25C07D
:104C80008091E100877F8093E10082E080939C0324
:104C9000109298038091E1008E7F8093E1008091D3
:104CA000E2008E7F8093E2008091E2008061809339
:104CB000E20042E060E080E00E94B2248091F000D7
:104CC00088608093F0000E941E22FF91EF91BF91B7
:104CD000AF919F918F917F916F915F914F913F9194
:104CE0002F910F900FBE0F901F90189519BC109226
:104CF0009C030E941B2272CF8091E30087FD02C0BB
:104D000081E0B2CF83E0B0CF1F920F920FB60F9227
:104D100011242F933F934F935F936F937F938F93C0
:104D20009F93AF93BF93CF93DF93EF93FF93D09174
:104D3000E900DF708091EC00C82FC17080FDC0E8F1
:104D40001092E9008091F000877F8093F0007894C2
:104D50000E94C8261092E9008091F000886080933C
:104D6000F000CD2BCF70C093E900FF91EF91DF9160
:104D7000CF91BF91AF919F918F917F916F915F91F3
:104D80004F913F912F910F900FBE0F901F9018954C
:104D90001F93CF93DF93CDB7DEB7AA970FB6F894E2
:104DA000DEBF0FBECDBF8DE993E0FC0101962091DF
:104DB000F100208323E0853A9207B9F70E942C2264
:104DC0008091E80083FF1EC180919D0390919E0316
:104DD0009A3008F017C1E92FF0E0E352F44D0C943B
:104DE0004A28803899F0823809F00CC18091A103DB
:104DF0008F70873008F006C18093E9008091EB0046
:104E000085FB882780F91092E90006C080919903FC
:104E100090919A03911182609091E800977F90930E
:104E2000E8008093F1001092F1008091E8008E7705
:104E3000E5C0882309F4D3C0823009F0E3C0809133
:104E40009F038111D6C08091A1038F702FEF280F8F
:104E5000263008F0D7C08093E9002091EB0020FFB6
:104E6000C8C0933031F48091EB0080628093EB00F6
:104E7000C0C09091EB0090619093EB0021E030E096
:104E800001C0220F8A95EAF72093EA001092EA0007
:104E90008091EB008860EACF8111B4C010919F032C
:104EA0001F778091E3008078812B8093E3008091CD
:104EB000E800877F8093E8000E94E6248091E80064
:104EC00080FFFCCF8091E30080688093E30082E064
:104ED000111183E080939C0395C08058823008F0C4
:104EE00091C080919F039091A0038C3D23E0920795
:104EF000A1F583E08A838AE289834FB7F894DE01C3
:104F0000139620E03EE051E2E32FF0E0509357008B
:104F1000E49120FF03C0E295EF703F5FEF708E2FAA
:104F200090E0EA30C0F0C7968D939D932F5F2431B7
:104F300059F74FBF8091E800877F8093E8006AE2CD
:104F400070E0CE0101960E94FD238091E8008B77EE
:104F50008093E80057C0C096E7CF6091A10370919D
:104F6000A203AE014F5F5F4F0E941D23BC01892B3E
:104F700009F448C08091E800877F8093E800898128
:104F80009A810E945724E1CF8038E1F58091E800B2
:104F9000877F8093E800809198038093F10045CF4C
:104FA000811130C090919F03923060F58091E800AC
:104FB000877F8093E800909398030E94E624809175
:104FC0009803882311F084E005C08091E30087FDF9
:104FD000FACF81E080939C030E94222213C080912B
:104FE0009F03813079F481E0933009F080E0809371
:104FF0009A031092E9008091E800877F8093E8008F
:105000000E94E6248091E80083FF0AC08091E800B6
:10501000877F8093E8008091EB0080628093EB00B3
:10502000AA960FB6F894DEBF0FBECDBFDF91CF9129
:105030001F9108950895CF9380919C038823A1F038
:10504000C091E900CF709091EC00892F817090FDA4
:1050500080E8C82B1092E9008091E80083FD0E944F
:10506000C826CF70C093E900CF91089597FB072E13
:1050700016F4009407D077FD09D00E94502807FC51
:1050800005D03EF4909581959F4F08957095619558
:105090007F4F0895EE0FFF1F0590F491E02D0994C6
:1050A000AA1BBB1B51E107C0AA1FBB1FA617B7074E
:1050B00010F0A61BB70B881F991F5A95A9F780956A
:1050C0009095BC01CD010895FB01DC0104C08D91D8
:1050D0000190801921F441505040C8F7881B990B6A
:1050E00008956817790768F4FB01DC01E40FF51FE8
:1050F000A40FB51F02C002900E9241505040D8F745
:1051000008950C94A42ADC0101C06D9341505040D5
:10511000E0F70895FB01DC0101900D920020E1F71A
:105120000895AEE0B0E0E7E9F8E20C94962B0D8923
:105130001E898F89988D26E02C831A83098397FF17
:1051400002C080E090E801979E838D83AE01455EAA
:105150005F4F698D7A8DCE0101960E94C1284D81E5
:105160005E8157FD0AC02F813885421753070CF422
:105170009A01020F131FF80110822E96E4E00C949E
:10518000B22BAFE0B0E0E7ECF8E20C94882B7C01A6
:105190003B018A01DC0117961C921E92169713960A
:1051A0008C9181FFC3C19AE0292EFE0131964F01F7
:1051B000D70113969C91F30193FD859193FF819103
:1051C0003F01882309F448C1853239F493FD859164
:1051D00093FF81913F01853229F4B70190E00E944D
:1051E000B82AE6CFB12C412C512CBFE1B51538F0CF
:1051F0008B3209F188F4803201F1833221F157FCBE
:105200003AC020ED280F2A3040F556FE1FC0B29C50
:10521000200D1124B22E06C08D3291F0803379F723
:10522000689450F8F30193FD859193FF81913F01BC
:105230008111DBCF20C0689451F8689452F8F2CF06
:10524000689453F8EFCF689454F8ECCF429C200D4B
:105250001124422E689455F8E5CF8E3229F456FC7D
:10526000FBC0689456F8DECF8C3619F4689457F872
:10527000D9CF8836B9F2982F9F7D95549330C0F0DE
:105280008336A1F18337C1F1833509F05BC0D801C2
:10529000CD90DD908D016B2D70E056FC02C06FEF5C
:1052A0007FEFC6010E94992A5C01689457F80AC0F2
:1052B0000C5F1F4FEFE3E983AA24A394B12C640190
:1052C000E89457F853FC04C04A141B0409F018F57D
:1052D000342CA114B10431F5332009F469CFB7019E
:1052E00080E290E00E94B82A3A94F6CFD8018C91DF
:1052F00089830E5F1F4FE0CFF801C190D1908F01DD
:105300006B2D70E056FC02C06FEF7FEFC6010E946C
:10531000AD2A5C01D5CFB70180E290E00E94B82AA7
:105320004A94D2CFF60157FC859157FE81916F01C7
:10533000B70190E00E94B82A31103A94B1E0AB1A5C
:10534000B108C7CF843619F0893609F074C0F80166
:1053500057FE6AC061917191819191918F01E52D04
:10536000EF76DE2E97FF09C0909580957095619538
:105370007F4F8F4F9F4F6894D7F82AE030E0A40109
:105380000E94E82AC82EC818AC2C5D2CD6FE0CC092
:10539000E89450F8CB1440F4D4FE05C0D2FC03C00E
:1053A0005D2D5E7E552EAB2C54FE98C0FE01EC0D9B
:1053B000F11D8081803309F08AC0652D697E562EEB
:1053C000752D7870372E53FC98C050FE92C0BC2CBF
:1053D000A41418F44C0CB42CBA1854FE94C0B701A1
:1053E00080E390E00E94B82A52FE09C088E790E06E
:1053F00051FE02C088E590E0B7010E94B82ACB14A4
:1054000008F48DC0CA94D12C8FEFC81AD80AC80CE2
:10541000D91CD6018E916D01B70190E00E94B82A87
:105420008C149D04B1F758CF61917191072E000C37
:10543000880B990B93CFD52CE894D4F82AE030E070
:10544000853739F1F52DF97FDF2E8037A9F058F433
:105450008835A9F08F36D9F0F701868197812F968C
:10546000E2E10C94A42B8837B9F7D4FE02C068940B
:10547000D2F820E130E00DC06894D4F8F6CF54FEA5
:1054800003C02F2F2660D22E20E132E002C028E098
:1054900030E0F801D7FE15C04191519161917191B1
:1054A0004C875D876E877F878F01A4016C857D8522
:1054B0008E859F850E94E82AC82EC818E894D7F8E0
:1054C00063CF81919191AC0170E060E0E9CF52FC33
:1054D00002C0A39475CFA394A39472CF852D867830
:1054E00009F46ECFF6CFB70180E290E00E94B82AAF
:1054F000A394A414C0F3312C70CF342C3A18A41404
:1055000008F46BCFF8CF852D867809F478CF8BE23D
:1055100051FE80E257FC8DE2B70190E06ECFB701FB
:1055200080E390E00E94B82ABA9469CF8FEF9FEF92
:1055300096CFFC010590615070400110D8F780951E
:1055400090958E0F9F1F0895FB01DC0102C0019012
:105550000D9241505040D8F70895FC0161507040C1
:1055600001900110D8F7809590958E0F9F1F089598
:105570000F931F93CF93DF93182F092FEB018B818C
:1055800081FD09C01FEF0FEF812F902FDF91CF9189
:105590001F910F91089582FF14C02E813F818C814D
:1055A0009D81281739073CF4E881F981CF010196E4
:1055B0009983888310838E819F8101969F838E8338
:1055C000E3CFE885F985812F0995892BA1F3DACFFF
:1055D000FA01AA27283051F1203181F1E8946F9324
:1055E0006E7F6E5F7F4F8F4F9F4FAF4FB1E03ED0CA
:1055F000B4E03CD0670F781F891F9A1FA11D680F68
:10560000791F8A1F911DA11D6A0F711D811D911D9A
:10561000A11D20D009F468943F912AE0269F11240F
:105620003019305D3193DEF6CF010895462F477073
:10563000405D4193B3E00FD0C9F7F6CF462F4F70CE
:10564000405D4A3318F0495D31FD4052419302D02C
:10565000A9F7EACFB4E0A6959795879577956795D2
:10566000BA95C9F700976105710508959B01AC01D2
:105670000A2E06945795479537952795BA95C9F7F9
:10568000620F731F841F951FA01D0895F999FECF07
:1056900092BD81BDF89A992780B50895A8E1B0E040
:1056A00042E050E00C947A2B262FF999FECF92BD60
:1056B00081BDF89A019700B4021639F01FBA20BDD7
:1056C0000FB6F894FA9AF99A0FBE08950396272F09
:1056D0000E94552B0E94542B252F0E94552B242FBE
:1056E0000C94552B0196272F0E94552B0C94542B6C
:1056F000DC01CB01FC01F999FECF06C0F2BDE1BD92
:10570000F89A319600B40D9241505040B8F7089580
:105710002F923F924F925F926F927F928F929F92C1
:10572000AF92BF92CF92DF92EF92FF920F931F93AF
:10573000CF93DF93CDB7DEB7CA1BDB0B0FB6F89460
:10574000DEBF0FBECDBF09942A88398848885F84A0
:105750006E847D848C849B84AA84B984C884DF8011
:10576000EE80FD800C811B81AA81B981CE0FD11DF5
:105770000FB6F894DEBF0FBECDBFED010895F894CB
:10578000FFCF1A0F200F240F320F360F3A0F3E0FA4
:10579000440F4C0F500F540F580F640F680F6C0FCD
:1057A000700F760F940F7E0F280F2E0F5C0F600F77
:1057B000480F7A0F8A0F9D0FA10FF1261927022893
:0E57C000192702284C276D270228C427D0275E
:1057CE000105013D02000000013B023D02053E02C3
:1057DE00013B023C02000000054302FFFF80818274
:1057EE00838485868788898A8B8C8D8E8F90919203
:1057FE009394A0A1A2A3A4A5A6A7A8A9AAABACAD59
:10580E00AEAFB0B1B2B3B4C0C1C2C3C4C5C6C7C8CF
:10581E00C9CACBCCCDCECFD0D1D2D3D40096000135
:10582E00FB026121D7216421A02165210125730A84
:10583E0000F6F7313332366697C634350000000075
:10584E00004C617965723A2044656661756C74002E
:10585E004C617965723A205261697365004C6179C9
:10586E0065723A204C6F776572004C617965723AB9
:10587E002041646A757374004C617965723A2055E3
:10588E006E6465662D256C640025647825642C2075
:10589E006B253264203A202563002020202061628F
:1058AE00636465666768696A6B6C6D6E6F70717242
:1058BE00737475767778797A313233343536373882
:1058CE00393052454254202020202020203B2720D2
:0C58DE002C2E2F2020200A25640A000038
:00000001FF
