:100000000C947F010C94C6010C94C6010C94E3027D
:100010000C94C6010C94C6010C94C6010C94C60144
:100020000C94C6010C94C6010C94A81B0C947A1C69
:100030000C9418170C94C6010C94C6010C94C601BC
:100040000C94C6010C94C6010C94C6010C94C60114
:100050000C94C6010C9480170C94C6010C94C60134
:100060000C94C6010C94C6010C94C6010C94C601F4
:100070000C94C6010C94C6010C94C6010C94C601E4
:100080000C94C6010C94C6010C94C6010C94C601D4
:100090000C94C8010C94C6010C94C6010C94C601C2
:1000A0000C94C6010C94C6010C94C6010D0E0D0EE5
:1000B0003F0E3F0E9D0F9D0F9D0F9D0F8C0E2D0F20
:1000C0003E0F3E0F13101310251025101C10251085
:1000D00025102510131013102110251025102110A4
:1000E000E71C0E1D001E0E1D001E5A1D7D1D001E4C
:1000F000D31DE21D29001E001F0020002100220048
:100100002B0014001A000800150017002A00040034
:100110001600070009000A00D75C1D001B0006003E
:100120001900050000000404E000E30001512F0065
:100130002E00270026002500240023002D00130098
:1001400012000C0018001C00280034000F000E00E4
:100150000D000B00D85C380037003600100011008D
:10016000000000004E0002512C00300029001E0843
:100170001F082008210822082B0114081A0829004A
:10018000150817082A0802511608060819081B083E
:100190006A000408070868001D081C080000000029
:1001A0000000E30001002F02450027012601330271
:1001B00031023300440035024F08520050081C0140
:1001C000280035004F00510050004C0072003100F3
:1001D0000A080A0A09082A00000000004B00E7008C
:1001E0002C003002A9001E0C1F0C3C003D003E00FC
:1001F000AA00000000000000150A6900A800010024
:1002000000002F0030002B00D75C1A5C00002F028A
:10021000300218010000390000002C04E3002F0810
:100220002E0243004200410040003F002D026D00BD
:100230004F0A5202500A0E0A6B006F004F02510221
:10024000500270006E006C004F06500604097100E9
:1002500000000000000001002C0030080403300002
:1002600000000E034C0069006C0079003500380076
:100270000000120346005F0059005500550043007E
:10028000480049000000040309040902220001019A
:1002900000A0FA0904000001030101000921110175
:1002A00000012240000705810308000A1201100125
:1002B0000000000851FC5800000101020301050183
:1002C0000906A101050719E029E715002501950890
:1002D000750181029501750881010507190029FF43
:1002E000150026FF009506750881000508190129EB
:1002F00005950575019102950175039101C01124C1
:100300001FBECFEFDAE0DEBFCDBF04B603FE27C0CD
:1003100080911F0290912002A0912102B0912202AF
:100320008730904BA740B04BD1F410921F0210922F
:100330002002109221021092220214BE84B7877FFD
:1003400084BF0FB6F894A89580916000886180936F
:100350006000109260000FBEE0E0F8E3099511E044
:10036000A0E0B1E0E6E1FDE302C005900D92AA3302
:10037000B107D9F722E0AAE3B1E001C01D92AF3185
:10038000B207E1F70E94DF180C94891E0C9400005C
:100390001F920F920FB60F9211248F939F93EF939A
:1003A000FF938091B900887F803869F038F4882302
:1003B000C9F18036C9F510923A0136C0883A09F180
:1003C000883BF9F031C080913A01811111C08091D0
:1003D000BB0080933B0180913B01803120F0109263
:1003E0003B0180E001C081E091E090933A011DC0A3
:1003F000E0913B01F0E08091BB00E450FE4F808330
:1004000008C0E0913B01F0E0E450FE4F8081809312
:10041000BB0080913B0190E001968F7099278093FB
:100420003B0102C01092BC0081E09091BC00956835
:100430008295880F880F807C892B8093BC00FF9168
:10044000EF919F918F910F900FBE0F901F90189575
:100450008EE14A9B02C08150E1F74A9BFECF08958E
:100460005A9880E28A95F1F75A9A0895FC014AE079
:100470004A95F1F730E090E080E021E0961779F0BE
:1004800040E14A95F1F7880F4A9B02C0816032270C
:1004900000C0000040E14A95F1F79F5FEFCF90E187
:1004A0009A95F1F729B100C0000040E14A95F1F7B3
:1004B00022FB992790F993272081920F908308952A
:1004C000EF92FF920F931F93CF93DF931F92CDB7BD
:1004D000DEB7F62E1982E82E8C01802F8E198F152B
:1004E00058F40E94280268E0CE0101960E9436026C
:1004F000F80181938F01F1CF81E09981911180E022
:100500000F90DF91CF911F910F91FF90EF90089581
:1005100090933E0180933D0160933C01529A5A9A18
:10052000089590933E0180933D0160933C01529861
:100530005A9AEA9AE9E6F0E080818F7C80830895F8
:10054000615091E001C0990F6A95EAF720E031E02F
:10055000992361F0492F482319F05A9A232701C0A3
:100560005A9840E24A95F1F79695F2CF222311F07E
:100570005A9A01C05A9880E28A95F1F75A980895DC
:10058000EF92FF920F931F93CF93DF931F92CDB7FC
:10059000DEB7162F082F7C018E2D801B811758F493
:1005A000F70181917F0189830E94300268E089818F
:1005B0000E94A002F1CF0F90DF91CF911F910F9178
:1005C000FF90EF9008951F920F920FB60F92112493
:1005D0000F931F932F933F934F935F936F937F934B
:1005E0008F939F93AF93BF93EF93FF93CF93DF933B
:1005F0001F92CDB7DEB719820E94280267E0CE01B4
:1006000001960E943602382F369536953695932FEF
:1006100096959570232F2570920F292F237096950C
:1006200096958770920F891348C08981811145C0C2
:1006300080913C01831708F440C080E18A95F1F76E
:100640005A9A529AA2E0AA95F1F700C000913D0192
:1006500010913E01B8E03B9F000D111D11245A98E6
:10066000F8016581662321F0868197810E94C0028E
:100670000E943002F0E1FA95F1F75A9852985A9A8E
:1006800080E18A95F1F7D80112966C911297662352
:1006900069F013968D919C9114970E946002D80185
:1006A000ED91FC91811105C082E004C0D801ED916B
:1006B000FC9188E080830E9428020F90DF91CF9107
:1006C000FF91EF91BF91AF919F918F917F916F912A
:1006D0005F914F913F912F911F910F910F900FBEFE
:1006E0000F901F9018950F931F93CF93DF93209136
:1006F0003C0130E0281739070CF471C09C0193E0ED
:10070000220F331F9A95E1F7C0913D01D0913E0130
:10071000C20FD31FF894529A5A9845E04A95F1F7C0
:100720000000982F969595708570890F982F93707B
:1007300086958695890F8901082B0E94300284E0F6
:100740008A95F1F700C067E0802F0E94A00240E187
:100750004A95F1F752985A9A4A9902C000C0FCCFC4
:1007600087E090E04A9B0EC0019751F4529A5A9A42
:10077000E881F98181E08083789481E090E031C064
:1007800000C0F0CF6D81662381F08E819F810E9431
:10079000600281110AC0529A5A9AE881F98182E076
:1007A0008083789482E090E01CC00E94280280E25E
:1007B0008A95F1F75A98529A40E14A95F1F76A8181
:1007C000662321F08B819C810E94C0020E9430022E
:1007D000E881F9811082789480E090E002C084E0A2
:1007E00090E0DF91CF911F910F910895AFE2B1E0BA
:1007F00041E050E08D91E82FE295EF70F0E021A10B
:100800008F70BA0102C0660F771F8A95E2F7CB019D
:10081000962F9095922391A392A1892B82A371E0A8
:10082000A433B70739F7089508950C941404089574
:100830000C9417048091EF01836088608093EF012E
:100840000E94F603A9E2B1E041E050E08D91E82F6B
:10085000E295EF70F0E021A18F70BA0102C0660F3F
:10086000771F8A95E2F7CB01962F9095922391A35B
:1008700092A1892B82A371E0AF32B70739F7559A5D
:10088000209A5D9A289AAFE3B1E0E9E4F1E08AE0CA
:100890008E0F11921D928E13FCCF0E94A50580939E
:1008A00053010C944C069F92AF92BF92CF92DF926D
:1008B000EF92FF920F931F93CF93DF9380910101EB
:1008C000811103C005E010E002C000E010E0A801C3
:1008D000415C5E4F7A01EA018FE2C82E81E0D82E9A
:1008E000AA24A394B12C25E0922E84E3C81681E0BB
:1008F000D80609F448C0F60181916F01E82FE2950E
:10090000EF70F0E021A18F70A50102C0440F551FC8
:100910008A95E2F7CA01922F982B91A392A1809514
:10092000892382A350EA5A95F1F7E9E2F1E020E049
:1009300040E050E03191A32FA295AF70B0E09096C7
:100940008C9190E03F7002C0959587953A95E2F7BB
:1009500080FD07C0C501042E01C0880F0A94EAF784
:1009600002C080E090E0282B4F5F5F4F463051057A
:1009700009F78881821719F02883909200010E945C
:10098000F6032196B2CF809100018823E1F08150D7
:1009900080930001882339F0EFE9FFE03197F1F708
:1009A00000C0000010C080E090E0FC01E00FF11FEB
:1009B000E75BFE4FD701A80FB91F2C91208301964A
:1009C0008530910591F781E0DF91CF911F910F91D3
:1009D000FF90EF90DF90CF90BF90AF909F900895E1
:1009E000CF93DF9320910101211103C0C0E0D0E03B
:1009F00002C0C5E0D0E00E94CF05009721F0029729
:100A000081F428980EC0289ADE01A75BBE4F85E0CE
:100A1000EFE5F1E001900D928A95E1F780E090E03A
:100A200002C081E090E0DF91CF9108950E945304CD
:100A300080910101811103C045E050E002C040E017
:100A400050E080E090E020E0DC01A15ABE4F6C91C4
:100A5000FC01E40FF51FE75BFE4F3081631321E0DB
:100A60003C9301968530910579F780915701280FC5
:100A7000209357010895CF93DF93809153018823EA
:100A800009F442C00E94530480910101811103C006
:100A9000C5E0D0E002C0C0E0D0E0C75BDE4F45E07B
:100AA00050E0BE018AE591E00E943A1E25E0FE0179
:100AB000AAE5B1E001900D922A95E1F70E94F004B9
:100AC000892BF1F05D98809154018F5F80935401E0
:100AD000863070F180910101811103C020E030E087
:100AE00002C025E030E080E090E0FC01E20FF31F5F
:100AF000E75BFE4F1082019685309105B1F718C073
:100B00005D9A1092540114C00E9416058091010153
:100B1000811103C0A0E0B0E002C0A5E0B0E0A75B97
:100B2000BE4F85E0EAE5F1E001900D928A95E1F78C
:100B30000E94540681E0DF91CF910895E82FF0E004
:100B4000E75BFE4F808108950895E8EDF0E0808135
:100B5000806180838AE18A95F1F700C08091D90095
:100B6000817008950E94A505809301010E94A5054A
:100B7000882319F00E94C30502C00E94C905789419
:100B800008950C94B20563E070E082E091E00C946B
:100B9000880263E070E082E091E00C9491020F9390
:100BA0001F93CF93DF938C0190911B0180911A01C9
:100BB000981761F082E090E00E947303EC01892BAA
:100BC00039F480911A0180931B0102C0C0E0D0E08B
:100BD000012B49F48091550190915601892B19F40C
:100BE00080E090E002C081E090E00E947303892BD6
:100BF00049F48091570180931A0110925601109286
:100C0000550106C081E090E0909356018093550114
:100C1000CE01DF91CF911F910F9108950C94120690
:100C200081E0089581E008951F93CF93DF9300D072
:100C300000D01F92CDB7DEB749835A832091790146
:100C400089819A81211112C0662349F00E94BD1446
:100C5000182F682F89819A810E94601403C00E9416
:100C60009014182F69817A81812F04C00E94BD14CD
:100C700069817A810F900F900F900F900F90DF9104
:100C8000CF911F910C943308FC0140815181628106
:100C9000738184810C9414060E94E015811102C0B6
:100CA0000E9480160C9415040C94180408950C945A
:100CB000560681E008950C945906CF93C82F0E94E0
:100CC00057068C2F0E945B06CF91089508950E94CD
:100CD00003100E9466062FEF84E39CE021508040C1
:100CE0009040E1F700C0000087E797E79093010884
:100CF000809300080C94A6170F931F93CF93DF9354
:100D00008C010E944406EC01B8010E940E06882363
:100D100009F4A3C1B801CE010E94460B882309F44F
:100D20009CC1C631FCE5DF0739F50E943D15282F2F
:100D3000F801828140911C0150911D01882379F0B6
:100D40002A7A91E009F490E090936401911102C035
:100D500069E201C065E3CA010E94B9160AC0809128
:100D60006401811102C069E201C065E3CA010E9409
:100D7000BB160E947C1571C1C7318CE5D80708F0FD
:100D800041C1C130ECE5DE0771F4F80182818823AE
:100D900009F463C18091EF01982F909590FB80F941
:100DA0008093EF015AC1C230FCE5DF0708F419C196
:100DB000F8018281882309F417C10E94E01581118E
:100DC00002C00E9480160E94F31590931102809336
:100DD0001002C031FCE5DF0709F4C3C008F041C0D0
:100DE000C830ECE5DE0709F49AC0F0F4C4308CE5B5
:100DF000D80709F487C068F4C230FCE5DF0709F4BE
:100E000077C0C330DC4509F0E3C0809110028260F6
:100E100076C0C630ECE5DE0709F46EC008F07BC092
:100E20008091100288606BC0CC308CE5D80709F443
:100E300085C068F4CA30FCE5DF0709F474C008F027
:100E400079C00E94031080911002806858C0CE3093
:100E5000ECE5DE0709F476C008F07FC0809110024F
:100E60008BC0CB3F8CE5D80709F44FC018F5C331D0
:100E7000FCE5DF0709F47DC078F4C131ECE5DE075D
:100E800009F473C0C231DC4509F0A2C00E9403100E
:100E9000809110028F7733C0C5318CE5D80709F4F3
:100EA00072C008F486C0CA3FDC4509F091C0809149
:100EB00011023EC0CF3F8CE5D80709F45FC058F45B
:100EC000CD3FFCE5DF0709F444C008F43FC0809142
:100ED000110282602DC0C130EDE5DE0709F475C056
:100EE00008F45DC0C230DD4509F072C080E06EC01C
:100EF00080911002816003C0809110028061809314
:100F0000100266C08091100211C0809111028260AF
:100F1000809311025DC0809110028062F0CF8091B9
:100F200010028064ECCF8091100288608460E7CF6B
:100F30008160EECF809110028E7FE1CF8091100210
:100F40008D7FDDCF80911002877FD9CF80911102F4
:100F500018C0809111028D7FDBCF809110028F7EAF
:100F6000CECF809110028F7DCACF809110028F7BEF
:100F7000C6CF80911002877F8B7FC1CF80911102F5
:100F80008D7F8E7FC5CF8091100282FB222720F9B2
:100F900091E0922790FB82F990FB83F9B0CF80918A
:100FA0001102982F909591708E7F892B90FB81F97B
:100FB000AFCF0E9403108091100287FB222720F9F7
:100FC00091E0922790FB87F99ACF81E00E948216E8
:100FD00080911002909111020E9404160E94031049
:100FE0003CC0C115DC4539F0C801DF91CF911F919C
:100FF0000F910C941006F8018281882371F10E94F0
:1010000067062BC0CE3DECE5DE0739F4F80182819E
:10101000882319F10E94801620C0CF3DFCE5DF0730
:10102000A8F4CC3D8CE5D80731F4F80182818823FF
:10103000A1F080E008C0CD3DDC45B1F6F801828129
:10104000882359F082E00E946B1907C0CE018A5FA5
:101050009C45099708F4ACCEC7CF80E0DF91CF91D3
:101060001F910F91089596E0799FF00111249CE360
:10107000899FE00DF11D1124E60FF11DEE0FFF1FFA
:10108000EC50FF4F859194910895880F991FFC01B2
:10109000E45AFD4F859194910895CF93DF930E9478
:1010A00033080E94020AEC01811520E59207F0F551
:1010B000811530E4930708F024C1883E910500F5BE
:1010C000803E910508F09AC1883A910570F4853AFE
:1010D000910508F09FC08130910509F48FC108F493
:1010E00040C1049708F08AC13CC18F3B910508F4C8
:1010F0009CC0803C910508F434C1805C9109F4C027
:10110000811540E2940758F4C11581E0D80708F032
:1011100075C1C03FD10508F424C1D0656FC18115E8
:1011200020E3920708F0E4C09F70DEC0811535E52A
:10113000930708F044C0811544E5940708F0F8C00F
:10114000C11582E5D80708F5C11521E5D20708F0D9
:10115000DBC08C2F837021E030E002C0220F331FF0
:101160008A95E2F73C68CE0174E0969587957A956A
:10117000E1F78370382BCF70C695C69580E2C89F83
:10118000E0011124C22BD32B39C12C2F2695269593
:10119000CE0183709927C115D34508F0BAC040E24B
:1011A000249F90011124C1E0D0E002C0CC0FDD1FCC
:1011B0008A95E2F72C2B3D2BE901DC681FC18115D4
:1011C00049E59407A0F4C11588E5D80708F0B5C033
:1011D000C11526E5D20708F0C4C08C2F0E94960ADC
:1011E0008F71C82FD0E0DC2FCC27D06207C18115CA
:1011F0003AE5930708F4A6C090568115904208F08E
:10120000B0C08D2F8F710E94960ADD27D0628F713A
:10121000D82BF4C0853A910509F4A6C0863A910509
:1012200009F0A5C0C2E8D0E4E9C0883A910509F404
:10123000A1C0893A910509F4A0C08A3A910509F440
:101240009FC08B3A910509F49EC08C3A910509F430
:101250009DC08B3B910509F49CC08C3B910509F422
:101260009BC08D3A910509F49AC0803B910509F421
:1012700099C08E3A910509F498C08F3A910509F406
:1012800097C0813B910509F496C0823B910509F412
:1012900095C0833B910509F494C0843B910509F402
:1012A00093C0853B910509F492C0863B910509F4F2
:1012B00091C0873B910509F490C0883B910509F4E2
:1012C0008FC0893B910509F48EC08D3B910509F4CF
:1012D0008DC08E3B910509F48CC08A3B910509F4C1
:1012E0008BC0C0E0D4E48AC00E944508EC0186C0EF
:1012F0009927D3FF03C0EC01D86C80C0EC01D06CFF
:101300007DC0DF70D06A7AC0DC2FCC27C16FD06A75
:1013100075C040E2249F90011124C1E0D0E002C0DA
:10132000CC0FDD1F8A95E2F7C22BD32BDA6866C09B
:10133000D82FCC27C46FD06A61C0DC2FCC27C06FF8
:10134000D06A5CC08F700E94960A94E0D695C795CB
:101350009A95E1F7CF70D0E0DC2FCC27D069C82B6D
:101360004DC0C0E0D0E04AC0C1E8D0E447C0C3E807
:10137000D0E444C0C2EED4E441C0C9EED4E43EC0DF
:10138000CAEED4E43BC0C5EBD4E438C0C6EBD4E429
:1013900035C0C3EBD4E432C0C4EBD4E42FC0C7EBF8
:1013A000D4E42CC0CCECD4E429C0CDECD4E426C0E9
:1013B000C3E8D5E423C0CAE8D5E420C0C2E9D5E437
:1013C0001DC0C4E9D5E41AC0C1E2D6E417C0C3E227
:1013D000D6E414C0C4E2D6E411C0C5E2D6E40EC01F
:1013E000C6E2D6E40BC0C7E2D6E408C0CFE6D4E438
:1013F00005C0C0E7D4E402C0CAE2D6E4CE01DF9162
:10140000CF9108958238910569F1B0F48133910547
:1014100009F46DC048F48932910509F463C08A3239
:10142000910509F469C008958533910509F455C003
:1014300089339105B9F00895833E910569F138F437
:10144000803E9105B1F0823E910509F10895863EF6
:101450009105A9F1873E9105B9F1843E910509F006
:1014600064C023C02091100220FD4FC021FD4DC05B
:1014700008958091100280FD44C08091110280FF88
:1014800044C08091100284FD42C083EE4DC0809123
:10149000100282FF38C0F5CF8091100282FD33C068
:1014A0008091110280FD31C0ECCF8091110281FF4B
:1014B00032C08091100284FD2AC087EE35C0809131
:1014C000100283FF26C0F5CF8091100283FD21C05A
:1014D0008091110281FD1FC0ECCF8091100285FD2B
:1014E0001CC01DC08091100285FD19C016C08091DE
:1014F000100286FD16C017C08091100286FD13C031
:1015000010C089E311C082EE0FC080EE0DC080E0F4
:101510000BC086EE09C084EE07C089E205C085E3F2
:1015200003C08AE201C081E390E008959091100227
:1015300092FF0DC0282F2871283019F4877F84600E
:1015400006C0282F2471243011F48B7F886093FF0C
:101550000DC0282F2871283119F4877E846106C0B8
:10156000282F2471243111F48B7E8861209111027F
:1015700020FF0DC0382F3871383019F4877F816013
:1015800006C0382F3171313011F48E7F886021FF11
:101590000DC0282F2871283119F4877E816106C07B
:1015A000282F2171213111F48E7E886194FD877E70
:1015B00008950F931F93CF93DF93C62FD42F022F3D
:1015C000FC0182818823C9F0609367010E944A1759
:1015D000909366018093650180E28C0F883008F05B
:1015E00050C0C77081E001C0880FCA95EAF7DF914B
:1015F000CF911F910F910C94C80D10916701161394
:1016000030C080916501909166010E945617843622
:10161000910538F5C0E2CD0F1D17B9F080E2810FBA
:10162000883040F4177081E001C0880F1A95EAF7FE
:101630000E94CF0DC83048F481E09D2F977001C003
:10164000880F9A95EAF70E94C80D802F0E94B50D69
:10165000C830B8F4D77081E001C0880FDA95EAF796
:101660000AC080E28C0F883060F4C77081E001C04E
:10167000880FCA95EAF7DF91CF911F910F910C94D3
:10168000CF0DDF91CF911F910F9108959C01CB0158
:10169000233F4CE53407F9F078F4283DFCE53F079B
:1016A000B9F0293D4CE5340711F1273D3C4531F5B2
:1016B00026E241EE61EE1EC0253FFCE53F0799F0B2
:1016C00070F0263F3C45D1F427E245EE66EE12C0AD
:1016D00027E245EE0EC026E241EE60EE0BC027E2A7
:1016E00045EE64EE07C026E241EE62EE03C028E25A
:1016F00041E065EE0E94D90A80E00895FC018281F4
:10170000882319F010926701089581E0089590935D
:101710006D0180936C010895E0916C01F0916D0171
:10172000309721F00190F081E02D099480E0089538
:10173000E0916C01F0916D01309721F00280F3810E
:10174000E02D0994089520916A0130916B01821770
:10175000930771F090936B0180936A01E0916C01A3
:10176000F0916D01309721F00680F781E02D09940A
:10177000089520916801309169018217930771F0F3
:101780009093690180936801E0916C01F0916D0183
:10179000309721F00084F185E02D0994089585B7F4
:1017A000806885BF85B7806885BF089508950C94CB
:1017B000D60B08950C94D90B0E94CF0B0E94C10543
:1017C0000C94D70B81E008950E9441170E941A04DF
:1017D0000E94B7170C94DA0BCF92DF92EF92FF9230
:1017E0000F931F93CF93DF93CDB7DEB72B970FB631
:1017F000F894DEBF0FBECDBF0E943B050E94E20BF6
:10180000811111C08FEF89838A831B820E944A173E
:101810008160782F9D838C8349815A816B818D8172
:101820000E94920C56C08FE6C82E81E0D82E00E0B0
:1018300010E0E02E802F0E949E05F60141916F017D
:10184000F42EF82631F40F5F1F4F0A30110589F787
:10185000D9CF9091EF0191FF04C08B870E94A4051E
:101860008B8520E030E04F2D50E0922FBA01022E00
:1018700002C0759567950A94E2F760FF24C02E8335
:10188000EF8221E030E0690102C0CC0CDD1C9A95AA
:10189000E2F790E08C219D21892B09F420E0288734
:1018A0000E944A178160782F9A8789874E815F81CD
:1018B00068858A850E94920CF801E159FE4F80816B
:1018C000C826C08206C02F5F3F4F2630310569F61B
:1018D000BACF10916E010E948C0B1817A1F00E94D4
:1018E0008C0B80936E012B960FB6F894DEBF0FBE63
:1018F000CDBFDF91CF911F910F91FF90EF90DF90BF
:10190000CF900C945D062B960FB6F894DEBF0FBEF9
:10191000CDBFDF91CF911F910F91FF90EF90DF909E
:10192000CF900895CF93DF93CDB7DEB72B970FB647
:10193000F894DEBF0FBECDBF4F83588769877A8783
:101940008B87DE01119686E0FD0111928A95E9F7F9
:1019500085E0FE01379601900D928A95E1F7498165
:101960005A816B817C818D819E810E94AD122B9664
:101970000FB6F894DEBF0FBECDBFDF91CF910895B3
:10198000FC01808191810E94FE140895882309F44E
:10199000BFC0682F8CEF860F813A38F480911C010C
:1019A00090911D010E94B9160CC080E2860F88300C
:1019B00050F4677081E001C0880F6A95EAF70E94D1
:1019C00040150C947C158BE5860F833070F4653AD6
:1019D00029F0663A31F083E890E005C081E890E0B4
:1019E00002C082E890E00C94A30B88E5860F873153
:1019F00008F08EC0683A09F445C0693A09F445C058
:101A00006A3A09F445C06B3A09F445C06C3A09F4E6
:101A100045C06B3B09F445C06C3B09F445C06D3AC9
:101A200009F445C0603B09F445C06E3A09F445C06D
:101A30006F3A09F445C0613B09F445C0623B09F4C3
:101A400045C0633B09F445C0643B09F445C0653BB0
:101A500009F445C0663B09F445C0673B09F445C03D
:101A6000683B09F445C0693B09F445C06D3B09F486
:101A700045C06E3B09F445C06A3B09F445C080E0AF
:101A800090E044C082EE90E041C089EE90E03EC01C
:101A90008AEE90E03BC085EB90E038C086EB90E0AA
:101AA00035C083EB90E032C084EB90E02FC087EB31
:101AB00090E02CC08CEC90E029C08DEC90E026C02A
:101AC00083E891E023C08AE891E020C082E991E0B8
:101AD0001DC084E991E01AC081E292E017C083E260
:101AE00092E014C084E292E011C085E292E00EC060
:101AF00086E292E00BC087E292E008C08FE690E0B9
:101B000005C080E790E002C08AE292E00C94B90B35
:101B10000895882349F1682F8CEF860F813A38F4B5
:101B200080911C0190911D010E94BB160CC080E2A7
:101B3000860F883050F4677081E001C0880F6A9585
:101B4000EAF70E9446150C947C158BE5860F8330CE
:101B500020F480E090E00C94A30B685A673120F4E5
:101B600080E090E00C94B90B0895CF93C82F0E94A9
:101B7000C60CC93349F42FEF87EE93E02150804023
:101B80009040E1F700C000008C2FCF910C94890D9C
:101B9000882321F00E9440150C947C150895882319
:101BA00021F00E9446150C947C150895BF92CF92A7
:101BB000DF92EF92FF920F931F93CF93DF937C01FD
:101BC000062FC72FFC01D581D295DF70128111112C
:101BD0000E945D150E943615882379F0112369F063
:101BE00080E2800F883048F082E00E94C7150E9492
:101BF000361591E0B82EB92601C0B12CCC2EC29476
:101C00008FE0C822D12CFCE0CF16D10408F095C19A
:101C1000F601EA5AFF4F0C94341E8C2F807FCF7050
:101C2000882311F0C295C07F112399F0CC2309F4C9
:101C300070C180E2800F883010F0011104C08C2F39
:101C40000E94401503C08C2F0E9450150E947C15E5
:101C500060C1802F0E94890DCC2309F46EC180E2FF
:101C6000800F883010F0011104C08C2F0E9446159F
:101C700003C08C2F0E9456150E947C155EC18C2FCC
:101C8000807FCF70803211F0C295C07F002319F0A1
:101C90000130C9F022C0112371F0DD2341F0D130B1
:101CA00031F40E9463158C2B0E94691546C10E9475
:101CB00063158C2B1DC0DD2319F0D13009F43DC113
:101CC0000E94721525C0112321F0D63008F035C1CD
:101CD0000EC0D53008F031C11BC0112361F0DD23E7
:101CE00031F0F701858180FF14C18F7085838C2FBF
:101CF0000E94C80D22C1DD2359F0093309F01AC131
:101D0000FFEF17EE23E0F15010402040E1F710C143
:101D10008C2F0E94CF0D11C18C2F837009F04BC006
:101D2000111112C1202F229526952770220F220F04
:101D3000602F6F70862F90E0A0E0B0E0022E04C00C
:101D4000880F991FAA1FBB1F0A94D2F704FF10C067
:101D50004FE050E060E070E004C0440F551F661F84
:101D6000771F2A95D2F7409550956095709503C0DE
:101D700040E050E0BA01C695C695C370D0E08A0134
:101D80009B01082B192B2A2B3B2BC901B801C23010
:101D9000D10559F0C330D10559F0219719F00E94AF
:101DA0007513D2C00E946313CFC00E948713CCC0AA
:101DB0000E946113C9C0112319F08C2F817001C0DA
:101DC0008695882309F4C0C0202F22952695277078
:101DD000220F220F602F6F70862F90E0A0E0B0E0FE
:101DE000022E04C0880F991FAA1FBB1F0A94D2F7A6
:101DF00004FF10C04FE050E060E070E004C0440F0A
:101E0000551F661F771F2A95D2F74095509560950C
:101E1000709503C040E050E0BA01C695C695C37006
:101E2000D0E08A019B01082B192B2A2B3B2BC901DF
:101E3000B801C230D10559F0C330D10559F021970E
:101E400019F00E943B1480C00E9429147DC00E949A
:101E50004D147AC00E949C1377C0CF70112339F0C3
:101E60008C2F0E94C213802F0E94C80D6DC0802F3E
:101E70000E94CF0D8C2F0E94E31366C0023F01F138
:101E800028F4003F41F0013FA1F03FC0033FF9F0CB
:101E9000043F39F13AC0112341F0D53008F04DC06C
:101EA0008C2F8F710E94081448C0D63008F045C0AE
:101EB000F7CF112339F08C2F8F710E94C2133DC0D0
:101EC0001123C9F38C2F8F710E94E31336C01123A5
:101ED00029F08C2F8F710E94AD132FC00E94A81380
:101EE0002CC0112349F0CF718C2F0E94C21363E0E4
:101EF0008C2F0E94B21521C081E00E94C715D230FC
:101F0000E0F082E00E94C71518C0112331F0DD23F4
:101F100091F2802F0E94C60C10C0DD2399F2093384
:101F200049F41FEF27EE33E0115020403040E1F735
:101F300000C00000802F0E94890D88E0C81AD108D7
:101F400094E0C916D10420F40E948C0B0E945D0617
:101F5000BB20D1F00E94321580FD16C0F70112821D
:101F60000E942C150E94C213C7010E94CE0F0E942E
:101F70002C15DF91CF911F910F91FF90EF90DF9083
:101F8000CF90BF900C94E313DF91CF911F910F91ED
:101F9000FF90EF90DF90CF90BF9008950F931F9325
:101FA000CF93DF93EC01888199812B813C81232B96
:101FB000B9F09F3F11F48F3F99F0CE010E947C064B
:101FC000882371F0688179818A810E9409158C01CA
:101FD0000E945F140E946013B801CE010E94D60DCA
:101FE000DF91CF911F910F9108950E945D150E947E
:101FF00060150C947C1580911C0190911D010E942C
:10200000BD160C94F50F0E944D150C94FB0FE92F93
:10201000E295EF70F0E03297EE30F105B0F4EE5952
:10202000FF4F0C94341E803F91F018F4883E68F402
:102030000EC0843F51F40BC0883E48F0813F29F424
:1020400006C093FB882780F9089580E0089581E019
:1020500008950E94FE140E9407100895CF93DF9305
:1020600000D000D01F92CDB7DEB70F900F900F9029
:102070000F900F90DF91CF910895CF93DF9300D011
:1020800000D000D0CDB7DEB726960FB6F894DEBFED
:102090000FBECDBFDF91CF9108951F93CF93DF93F4
:1020A000C0917A0116E080917B01C81799F0D0E0C9
:1020B0001C9FF0011D9FF00D1124E458FE4F40813C
:1020C000518162817381848195810E943D102196A6
:1020D000C770E9CFDF91CF911F9108954091AC0176
:1020E0005091AD016091AE017091AF018091B0014E
:1020F0009091B1010C943D108091B10182958F7047
:1021000009F054C08091AE01882309F44FC080913A
:102110007A01A0917B016091AC017091AD01409179
:10212000AF015091B001B6E08A1709F43FC090E0CA
:1021300041155105C1F17F3F11F46F3FA1F1B89FE7
:10214000F001B99FF00D1124E458FE4F2181721364
:102150002AC02081621327C02281211124C023813B
:1021600034812417350710F421503109241B350B15
:1021700024363105C0F42091B1012F7020612093E5
:10218000B10126E0289FF001299FF00D1124EF579F
:10219000FE4F80818F70806180838CEA91E00E9485
:1021A000CE0F0C944D1001968770BECF0895CF923C
:1021B000DF92EF92FF920F931F93CF93DF93CDB7F0
:1021C000DEB762970FB6F894DEBF0FBECDBF8C01AD
:1021D00085E0F801DE011D9601900D928A95E1F7E8
:1021E000D8014C9111965C91119712966C911297AF
:1021F0001396CD90DC9014973091AC017091AD01A5
:102200008091AF019091B001009709F46BC17F3FBD
:1022100019F43F3F09F466C1E090AE01EE2009F4E5
:10222000C0C02091B101C816D90628F0F601E81BFC
:10223000F90BCF0104C0809590958C0D9D1DFF2456
:10224000F3948436910578F0F12C207F09F0C6C014
:102250007C2DD98AC88A89890E942E108CEA91E047
:102260000E94CE0FB1C0822F807F09F046C0751347
:1022700014C0341312C0611110C02F70206120935C
:10228000B1010E946E108CEA91E00E94CE0F809105
:10229000B101D80115968C932EC0CD2819F15F3F5E
:1022A00011F44F3FF9F0F62E61111CC080917A01B4
:1022B00020917B0136E0821709F45AC090E0389FE4
:1022C000F001399FF00D1124E458FE4F718157132E
:1022D00006C07081471303C07281711103C001965B
:1022E0008770E9CFF62E662309F427C18091B101EA
:1022F00081608093B101F12C20C1751308C03413A3
:1023000006C0611104C08091B101D801C3C04D87DE
:102310005E878D859E856A8B0E9429106A89882335
:10232000E1F16623D1F12091B101822F82958F7066
:1023300090E0029774F08091AC019091AD01988784
:102340008F831986DB86CA862C87CE0107960E946A
:10235000CE0F86E0F801ACEAB1E001900D928A95CB
:10236000E1F70E947C100E946E10FF24F394E5C0F8
:102370004D875E878D859E850E94FE14292F2295AC
:102380002F7030E0223031050CF0CBC09F7009F087
:10239000C5C0805E883008F4D0C0C8010E94CE0F4E
:1023A000E4CFC816D90608F453C0F601E81BF90BB0
:1023B000CF018436910508F450C0F12C7C2DD98AC8
:1023C000C88A89890E942E10ECEAF1E086E0DF01DC
:1023D0001D928A95E9F70E946E10AFC0751314C064
:1023E000341312C0611110C08091B101F8018583CE
:1023F000C8010E94CE0F86E0ECEAF1E0DF011D92F9
:102400008A95E9F7FE2C99C04D875E878D859E855C
:102410006A8B0E9429106A89882309F4BECF66233B
:1024200009F4BBCF2091B101822F82958F7090E08B
:1024300002970CF48ECF8091AC019091AD019A83FC
:1024400089831B82DD82CC822E83CE0101967FCFD1
:10245000809590958C0D9D1DACCFF62E662309F4CA
:102460009CCF75132EC034132CC02091B10120FDD8
:102470001FC0822F82958F70D9F0D80115962C93AA
:1024800015978F3049F08F5F982F9295907F822F0C
:102490008F70892B15968C93C8010E94CE0F86E011
:1024A000F801ACEAB1E001900D928A95E1F793CF83
:1024B00086E0F801ACEAB1E001900D928A95E1F76F
:1024C0003CC04D875E878D859E850E9429108111B5
:1024D00040CF8091B10181608093B101C8010E9419
:1024E000CE0F2BC0662309F458CF4D875E878D85AC
:1024F0009E850E942910F82E882309F44ECF86E08D
:10250000F801ACEAB1E001900D928A95E1F78CEA0E
:1025100091E00E94C00C0E947C105DCF811139CFE8
:102520000CC0243031050CF038CF9F7009F431CF46
:10253000F8019581907F09F02CCF8F2D62960FB610
:10254000F894DEBF0FBECDBFDF91CF911F910F91E9
:10255000FF90EF90DF90CF9008951F93CF93DF937C
:10256000CDB7DEB72C970FB6F894DEBF0FBECDBF48
:102570004F83588769877A878B879C87CE01079618
:102580000E94D710882369F08F8198852A853B8522
:10259000232BF1F19F3F09F063C08F3F09F060C02A
:1025A00037C086E0FE013796DE01119601900D924C
:1025B0008A95E1F76F817885EA85FB85309741F14F
:1025C0007F3F11F46F3F21F120917B0130E0C90181
:1025D00001968770992740917A0150E084179507FA
:1025E00009F447C069837A83FD83EC8396E0929F68
:1025F000D001939FB00D1124A458BE4FFE01319617
:1026000001900D929A95E1F780937B010E944D1005
:1026100016E080917A0190917B018917C1F1189F92
:10262000C001112484589E4F0E94D710882379F14D
:10263000E0917A011E9FF0011124E458FE4F408181
:10264000518162817381848195810E943D108091C6
:102650007A0190E001968770992780937A01D9CF0B
:102660004F81588569857A858B859C850E943D10B0
:10267000CFCF0E94031010927B0110927A01ECEAF6
:10268000F1E086E0DF011D928A95E9F7C1CF2C9633
:102690000FB6F894DEBF0FBECDBFDF91CF911F9173
:1026A000089508950C9451130E9452136093DE0113
:1026B0007093DF018093E0019093E1010C94F50F9A
:1026C00008950C9454130F931F930091DE01109101
:1026D000DF012091E0013091E101602B712B822B11
:1026E000932B1F910F910C9454130F931F930091F0
:1026F000DE011091DF012091E0013091E1016023C2
:102700007123822393231F910F910C9454130F93E1
:102710001F930091DE011091DF012091E0013091C3
:10272000E10160277127822793271F910F910C9455
:10273000541308950C9499130E949A136093DA012C
:102740007093DB018093DC019093DD010C94F50F15
:1027500060E070E0CB010C949C130F931F9341E059
:1027600050E060E070E08A019B0104C0000F111F7F
:10277000221F331F8A95D2F7C901B8011F910F910B
:102780000C949C130F931F9341E050E060E070E0C5
:1027900004C0440F551F661F771F8A95D2F780919A
:1027A000DA019091DB01A091DC01B091DD018A0199
:1027B0009B01082B192B2A2B3B2BC901B8011F9118
:1027C0000F910C949C130F931F9341E050E060E035
:1027D00070E004C0440F551F661F771F8A95D2F71B
:1027E00040955095609570958091DA019091DB014C
:1027F000A091DC01B091DD018A019B01082319231E
:102800002A233B23C901B8011F910F910C949C13FB
:102810000F931F9341E050E060E070E004C0440F6C
:10282000551F661F771F8A95D2F78091DA01909124
:10283000DB01A091DC01B091DD018A019B01082739
:1028400019272A273B27C901B8011F910F910C9422
:102850009C130F931F930091DA011091DB012091DB
:10286000DC013091DD01602B712B822B932B1F91AA
:102870000F910C949C130F931F930091DA01109108
:10288000DB012091DC013091DD0160237123822383
:1028900093231F910F910C949C130F931F930091FE
:1028A000DA011091DB012091DC013091DD0160271C
:1028B0007127822793271F910F910C949C130895E1
:1028C000292F220F920F990F890FA82FA695A69551
:1028D000A695877051E001C0550F8A95EAF785E00B
:1028E000A89FD001112420E030E070E0F901EA0F48
:1028F000FB1FEE54FE4F4081CB01022E02C0969585
:1029000087950A94E2F7817099278195842785231A
:10291000842780832F5F3F4F2530310539F7089595
:10292000292F220F920F990F890F682F66956695B0
:102930006695982F977085E0689FB001112440E05C
:1029400050E080E0FA01E60FF71FEE54FE4F2081C1
:1029500030E0092E02C0369527950A94E2F72170DF
:102960003327042E01C0220F0A94EAF7822B4F5F0F
:102970005F4F4530510531F70895BF92CF92DF92F6
:10298000EF92FF920F931F93CF93DF938C01C09030
:10299000DE01D090DF01E090E001F090E101809154
:1029A000DA019091DB01A091DC01B091DD01C82A30
:1029B000D92AEA2AFB2ACFE1D0E0D701C6010C2EA2
:1029C00004C0B695A795979587950A94D2F780FF8E
:1029D00007C0BC2EB8018C2F0E944D08019719F436
:1029E000219758F7B12C8B2DDF91CF911F910F912B
:1029F000FF90EF90DF90CF90BF900895CF93DF933B
:102A0000EC010E94BD14BE010E944D08DF91CF91E0
:102A100008951F93CF93DF93EB0190917901992350
:102A200021F0CB010E94FE1413C0882349F0CB0192
:102A30000E94BD14182F682FCE010E94601404C09C
:102A4000CB010E949014182FBE01812F0E944D08C7
:102A5000DF91CF911F9108958091E2018595859531
:102A6000859508958091E201877008959091E20123
:102A7000977081E009F480E008958091EE01089557
:102A80009091EE01892B8093EE01089580959091AD
:102A9000EE0189238093EE0108951092EE010895CE
:102AA0009091ED01892B8093ED010895809590918F
:102AB000ED0189238093ED0108951092ED010895B1
:102AC0001092EC0108958091E301089508950C940B
:102AD00066159091E301981721F08093E3010C941F
:102AE000671508958091E301882329F01092E3018E
:102AF00080E00C9467150895E0911C01F0911D0190
:102B00008091EE018083E0911C01F0911D01908184
:102B10008091ED01892B8083E0911C01F0911D01D2
:102B200090818091EC01892B80838091E30188233F
:102B300081F0E0911C01F0911D019081892B80832F
:102B400080911C0190911D010E94871681110E94A5
:102B5000721580911C0190911D010C94980B0895A1
:102B60000C94AF1598E0899F90011124262B209397
:102B7000E2010E94C2138091E201859585958595B9
:102B80000C94B0151092E20180E00C94B0152091E5
:102B9000E201809582238093E201982F977079F467
:102BA00030E0482F082E000C550B2417350739F05C
:102BB0008595859585950E94E3130C94C21508951B
:102BC00080E090E00E944F1E21E08C3E9E4F09F075
:102BD00020E0822F089582E090E00C94471E83E06D
:102BE00090E00C94471ECF9384E090E00E94471E33
:102BF000C82F81E290E00E94471E2C2F30E0A901EF
:102C0000582BCA01CF910895CF93C92F682F84E024
:102C100090E00E94551E6C2F81E290E0CF910C94C1
:102C2000551EAB01BC018FE090E00C94671EAB0118
:102C3000BC0183E190E00C94671E60E070E0CB0182
:102C40000C94171660E070E0CB010E9411160C94F2
:102C50001D166CEE7EEF80E090E00E94731E60E037
:102C600082E090E00E94551E60E083E090E00E94C8
:102C7000551E1092DE011092DF011092E0011092B9
:102C8000E10160E084E090E00E94551E60E081E296
:102C900090E00E94551E60E085E090E00E94551E85
:102CA00060E086E090E00E94551E6FEF87E090E0C4
:102CB0000E94551E40E050E0BA0188E090E00E947A
:102CC000671E60E08DE090E00E94551E40E050E0FD
:102CD000BA0188E190E00E94671E60E087E190E021
:102CE0000E94551E40E050E0BA018CE190E00E9445
:102CF000671E60E080E290E00E94551E0C94221650
:102D00000C942916682F8EE090E00C94551EFC015F
:102D1000329697E080E0915029F021912223D9F357
:102D20008F5FF9CF08959C01FC0132969FEF80E000
:102D30004191461789F09F3F19F4411101C0982F26
:102D40008F5F8630A9F79F3F39F0F901E90FF11D38
:102D500097FDFA95628308950895FC0132960896CE
:102D60002081261301C010823196E817F907C1F7B8
:102D700008950C9493160C94AD16029626E0FC016F
:102D800011922A95E9F7089508950C94C4160E94AB
:102D9000C51680911602843049F11092F00120E4AA
:102DA00088E190E00FB6F894A895809360000FBE7C
:102DB0002093600080E00E945D060E94C51683B7E4
:102DC000817F846083BF83B7816083BF7894889557
:102DD00083B78E7F83BF0FB6F894A895809160006B
:102DE000886180936000109260000FBE089508957E
:102DF0000895CF930E94F7160E943B050E94F81693
:102E0000C0E08C2F0E949E05811104C0CF5FCA30A4
:102E1000C1F701C081E0CF91089508950C940D177A
:102E20000E9403100E948C0B0E945D060C940E17EA
:102E30001F920F920FB60F9211248F939F93AF930F
:102E4000BF938091F001811113C080910C02909189
:102E50000D02A0910E02B0910F024196A11DB11D6D
:102E600080930C0290930D02A0930E02B0930F0278
:102E7000BF91AF919F918F910F900FBE0F901F90B8
:102E8000189582E084BD93E095BD9AEF97BD80933D
:102E90006E0008952FB7F89480910C0290910D0266
:102EA000A0910E02B0910F022FBF0895CF92DF9232
:102EB000EF92FF920F931F932FB7F89440910C025B
:102EC00050910D0260910E0270910F022FBF6A01A6
:102ED0007B01EE24FF248C0120E030E0C016D106F7
:102EE000E206F30610F4415051099A01281B390BF0
:102EF000C9011F910F91FF90EF90DF90CF9008953F
:102F000078941F920F920FB60F9211248F939F9374
:102F1000AF93BF9380910C0290910D02A0910E028D
:102F2000B0910F020196A11DB11D80930C029093E8
:102F30000D02A0930E02B0930F02BF91AF919F912B
:102F40008F910F900FBE0F901F90189587E797E70E
:102F500090930108809300089AE088E10FB6F894F6
:102F6000A895809360000FBE90936000FFCF0E94F1
:102F7000E015811102C00E9480160E94EB1580931B
:102F8000EF010E94F31590931102809310020E94AA
:102F9000EF15682F70E080E090E00C946113809151
:102FA000F9010895089508950895CF93DF93EC01F2
:102FB0000E947B19823011F0843039F581E08093D2
:102FC000E9008FEF9091E800815095FD06C095EDE6
:102FD0009A95F1F700008111F5CF8091E80085FF07
:102FE00014C040E050E068E070E0CE010E94981903
:102FF0008091E8008E778093E80088E0FE01A1EFE1
:10300000B1E001900D928A95E1F7DF91CF9108959B
:1030100080911502811109C00E942D1B0E948A1BFC
:103020008091E20084608093E2000895109215027E
:103030000895089508950C94101742E061EC81E022
:103040000C94A71A80911802833009F460C030F400
:10305000813071F0823009F499C008958A3009F402
:1030600085C08B3009F46BC0893009F0A7C020C03F
:1030700080911702813A09F0A1C08091E800877F12
:103080008093E80080911B0290911C02892B21F40F
:1030900068E081EF91E003C060E080E090E070E0E4
:1030A0000E94E3198091E8008B778093E8000895EF
:1030B00080911702813209F081C080911B029091AA
:1030C0001C02892B09F07AC08091E800877F8093E9
:1030D000E8008091E80082FD05C080911602811110
:1030E000F8CF6CC02091F3008091F20090E0922B19
:1030F000029729F48091F1008B7F813021F4809137
:10310000F1008093F9018091E8008B7753C08091A2
:103110001702813A09F052C080911B0290911C0263
:10312000892B09F04BC08091E800877F8093E800ED
:103130008091E80080FFFCCF8091280136C080910B
:1031400017028132D9F580911B0290911C02892BC4
:10315000A9F58091E800877F8093E8000E94DC1A3F
:1031600080911902809328010C940310809117021A
:10317000813221F58091E800877F8093E8000E94EA
:10318000DC1A80911A028093FA0108958091170247
:10319000813AA1F48091E800877F8093E8008091D4
:1031A000E80080FFFCCF8091FA018093F1008091CC
:1031B000E8008E778093E8000C94DC1A089584B7B9
:1031C000877F84BF0FB6F894A895809160008861CE
:1031D00080936000109260000FBE80E880936100D1
:1031E000109261000E94DC0B0E942D1B0E948A1B22
:1031F0008091E20084608093E20078940E94191E1E
:103200000E94E40B8EE191E00E94870B80911602F0
:10321000853069F40E94C716809114028823B1F3A7
:103220000E94F916882391F30E948219EFCF0E9421
:10323000EC0BECCF0C941C19292F332723303105CC
:10324000C1F05CF42130310579F022303105D1F53F
:1032500082E290E02AE832E039C02132310521F1E2
:103260002232310541F12EC082E190E02CEA32E0B9
:103270002DC099278130910571F02CF4892B11F51F
:10328000E6E8F2E00DC08230910541F00397D1F4F9
:10329000ECE5F2E005C0E2E7F2E002C0E2E6F2E0CF
:1032A000849190E09F0112C0672B61F489E090E067
:1032B0002CE932E00BC0672B29F480E490E02EEB80
:1032C00032E004C080E090E020E030E0FA01318399
:1032D000208308950895CF93C82F0E946A19C09340
:1032E000FB01CF91089580911602843011F081E0A6
:1032F000089582E008958091FB01811102C00C9431
:103300007319089580E189BD82E189BD09B400FE89
:10331000FDCF8091D8008F7D8093D8008091E00010
:1033200082608093E0008091E00081FDFCCF0895F1
:10333000CF92DF92EF92FF920F931F93CF93DF9381
:10334000EC018B016A010E94FB1A811133C0C11488
:10335000D10439F0F60180819181081B190BC80F47
:10336000D91FE12CF12C0115110519F18091E8000C
:1033700085FD16C08091E8008E778093E800C11427
:10338000D10449F0F60180819181E80EF91EF182A5
:10339000E08285E00FC00E94FB1A882321F30AC057
:1033A00089918093F10001501109FFEFEF1AFF0A94
:1033B000DACF80E0DF91CF911F910F91FF90EF90D6
:1033C000DF90CF90089520911D0230911E022617A4
:1033D000370748F06115710539F42091E8002E7720
:1033E0002093E80001C0B90140E061157105A9F121
:1033F00020911602222309F443C0253009F442C06B
:103400002091E80023FD40C02091E80022FD32C059
:103410002091E80020FFE9CF4091F3002091F200D5
:1034200030E0342BFC01CF016115710559F02830D3
:10343000310540F481918093F100615071092F5F53
:103440003F4FF1CF41E02830310509F040E02091B5
:10345000E8002E772093E800C8CF4111C9CF0AC0F9
:1034600080911602882361F0853061F08091E80038
:1034700083FD0AC08091E80082FFF2CF80E00895CA
:1034800082E0089583E0089581E0089520911D026F
:1034900030911E022617370748F06115710539F47F
:1034A0002091E8002E772093E80001C0B901FC01CB
:1034B00020E06115710591F180911602882309F4CD
:1034C00040C0853009F43FC08091E80083FD3DC0D5
:1034D0008091E80082FD2FC08091E80080FFE9CF55
:1034E0002091F3008091F20090E0922B611571051C
:1034F00059F08830910540F424912093F1003196E1
:10350000615071090196F2CF21E0089709F020E09F
:103510008091E8008E778093E800CBCF2111CCCF4B
:103520000AC080911602882361F0853061F0809195
:10353000E80083FD0AC08091E80082FFF2CF80E0BE
:10354000089582E0089583E0089581E00895982F1A
:10355000973058F59093E900981739F07091EC0086
:103560002091ED005091F00003C0242F762F50E001
:1035700021FF19C03091EB003E7F3093EB0030917A
:10358000ED003D7F3093ED003091EB0031603093E2
:10359000EB007093EC002093ED005093F00020912D
:1035A000EE0027FF07C09F5FD3CF8F708093E900A5
:1035B00081E0089580E008958091170287FF11C08F
:1035C0008091E80082FD05C0809116028111F8CF3C
:1035D00011C08091E8008B770BC080911602882380
:1035E00049F08091E80080FFF8CF8091E8008E7765
:1035F0008093E80008952091E4003091E50095E67D
:103600004091EC00842F817040FF22C08091E8003F
:1036100080FD1CC080911602882391F0853091F0C6
:103620008091EB0085FD10C04091E4005091E500D1
:103630004217530729F39A01915011F784E0089536
:1036400082E0089583E0089581E0089580E0089580
:103650004091E80042FFDECF08950E949B1B0E942C
:10366000A31BE0EEF0E0808181608083E8EDF0E074
:1036700080818F77808319BCA7EDB0E08C918E7F1D
:103680008C9380818F7E80831092150208950F9312
:103690001F93CF93DF930E949B1B0E94A31BC8ED37
:1036A000D0E088818F77888388818068888388814B
:1036B0008F7D888319BC109216021092120210920C
:1036C00014021092130200EE10E0F80180818B7F4B
:1036D000808388818160888342E060E080E00E948E
:1036E000A71AE1EEF0E080818E7F8083E2EEF0E0C9
:1036F000808181608083808188608083F8018081FF
:103700008E7F8083888180618883DF91CF911F9134
:103710000F910895E8EDF0E080818F7E8083E7EDE2
:10372000F0E080818160808384E082BF81E08093CB
:1037300015020C94471BE8EDF0E080818E7F8083BA
:103740001092E20008951092DA001092E1000895BC
:103750001F920F920FB60F9211242F933F934F9306
:103760005F936F937F938F939F93AF93BF93EF93E9
:10377000FF938091E10082FF0BC08091E20082FF05
:1037800007C08091E1008B7F8093E1000E94181EAA
:103790008091DA0080FF1FC08091D80080FF1BC09D
:1037A0008091DA008E7F8093DA008091D90080FFCB
:1037B0000DC080E189BD82E189BD09B400FEFDCF65
:1037C00081E0809316020E94081805C019BC10926F
:1037D00016020E9416188091E10080FF19C08091A6
:1037E000E20080FF15C08091E2008E7F8093E200AE
:1037F0008091E20080618093E2008091D800806235
:103800008093D80019BC85E0809316020E941A1894
:103810008091E10084FF30C08091E20084FF2CC0E1
:1038200080E189BD82E189BD09B400FEFDCF8091B0
:10383000D8008F7D8093D8008091E1008F7E8093A7
:10384000E1008091E2008F7E8093E2008091E200AF
:1038500081608093E20080911202882311F084E05D
:1038600007C08091E30087FD02C081E001C083E0D2
:10387000809316020E941B188091E10083FF29C0EB
:103880008091E20083FF25C08091E100877F8093D3
:10389000E10082E080931602109212028091E10012
:1038A0008E7F8093E1008091E2008E7F8093E20022
:1038B0008091E20080618093E20042E060E080E07D
:1038C0000E94A71A8091F00088608093F0000E9407
:1038D0001918FF91EF91BF91AF919F918F917F91B7
:1038E0006F915F914F913F912F910F900FBE0F906D
:1038F0001F9018951F920F920FB60F9211242F93BD
:103900003F934F935F936F937F938F939F93AF9367
:10391000BF93CF93DF93EF93FF93C091E900CF70F4
:103920008091EC00D82FD17080FDD0E81092E90092
:103930008091F000877F8093F00078940E94BE1CF5
:103940001092E9008091F00088608093F000CD2B08
:10395000CF70C093E900FF91EF91DF91CF91BF91BC
:10396000AF919F918F917F916F915F914F913F9117
:103970002F910F900FBE0F901F9018951F93CF930C
:10398000DF93CDB7DEB7AA970FB6F894DEBF0FBEB0
:10399000CDBFE7E1F2E088E08E0F9091F1009193C6
:1039A0008E13FBCF0E9422188091E80083FF28C16C
:1039B0008091170290911802492F50E04A3051052A
:1039C00008F01EC1FA01E059FF4F0C94341E8038F4
:1039D00021F0823809F014C108C08091130290913F
:1039E0001402992389F082600FC080911B028F70AE
:1039F000873008F005C18093E9008091EB0085FBDA
:103A0000882780F91092E9009091E800977F9093C1
:103A1000E8008093F1001092F100D0C0282F2D7F94
:103A200009F0EEC0882319F0823061F0E9C080917E
:103A30001902813009F0E4C0933009F080E08093EE
:103A400014022EC08091190281112AC080911B029C
:103A50008F702FEF280F263008F0D2C08093E90036
:103A60002091EB0020FF1CC0933021F48091EB00EB
:103A7000806214C09091EB0090619093EB0021E084
:103A800030E0A90102C0440F551F8A95E2F7409328
:103A9000EA001092EA008091EB0088608093EB00CE
:103AA0001092E9008091E800877F8093E8000E94EF
:103AB000DC1AA6C08111A4C0109119021F77809151
:103AC000E3008078812B8093E3008091E800877F7A
:103AD0008093E8000E94DC1A8091E80080FFFCCF10
:103AE0008091E30080688093E300111102C082E0BE
:103AF00001C083E08093160283C08058823008F0B2
:103B00007FC08091190290911A028C3D53E0950775
:103B100079F583E08A838AE289834FB7F894DE01DE
:103B2000139620E03EE051E2E32FF0E0509357007F
:103B3000E49120FF03C0E295EF703F5FEF708E2F9E
:103B400090E0EA3010F0C79601C0C0968D939D9327
:103B50002F5F243149F74FBF8091E800877F809322
:103B6000E8006AE270E0CE0101960E94E31915C0F8
:103B700060911B0270911C02AE014F5F5F4F0E946B
:103B80001A19BC01892BE1F19091E800977F90937D
:103B9000E80089819A810E94461A8091E8008B771B
:103BA0008093E8002DC0803859F58091E800877F28
:103BB0008093E800809112028093F1008091E800E8
:103BC0008E7773CF81111CC0909119029230C0F48E
:103BD0008091E800877F8093E800909312020E9412
:103BE000DC1A80911202811106C08091E30087FDEA
:103BF00002C081E001C084E0809316020E941D187B
:103C00008091E80083FF0AC08091E800877F80935D
:103C1000E8008091EB0080628093EB00AA960FB6DB
:103C2000F894DEBF0FBECDBFDF91CF911F910895F5
:103C30000895CF93809116028823A1F0C091E900E6
:103C4000CF709091EC00892F817090FD80E8C82B97
:103C50001092E9008091E80083FD0E94BE1CCF70A5
:103C6000C093E900CF910895EE0FFF1F0590F491E6
:103C7000E02D0994FB01DC0104C08D9101908019B5
:103C800021F441505040C8F7881B990B0895F999C9
:103C9000FECF92BD81BDF89A992780B50895A8E11D
:103CA000B0E042E050E00C947B1E262FF999FECF45
:103CB00092BD81BDF89A019700B4021639F01FBA7F
:103CC00020BD0FB6F894FA9AF99A0FBE089503969C
:103CD000272F0E94561E0E94551E252F0E94561EF9
:103CE000242F0C94561E0196272F0E94561E0C94CA
:103CF000551EDC01CB01FC01F999FECF06C0F2BDD7
:103D0000E1BDF89A319600B40D9241505040B8F799
:063D10000895F894FFCFB6
:103D1600050159010000000157015901055A010129
:103D260057015801000000055F01FFFFE401CF17AE
:103D3600D517D217D317D41701F6F73133323666B3
:0A3D460097C63435000000000000AD
:00000001FF
