:100000000C9407030C9424030C9424030C942403F1
:100010000C9424030C9424030C9424030C942403C4
:100020000C9424030C9424030C9452110C940E1180
:100030000C94E1200C9424030C9424030C942403CA
:100040000C9424030C9424030C9424030C94240394
:100050000C9424030C94610D0C9424030C9424033D
:100060000C9424030C9424030C9424030C94240374
:100070000C9424030C9424030C9424030C94240364
:100080000C9424030C9424030C9424030C94240354
:100090000C9424030C9424030C9424030C94240344
:1000A0000C9424030C9424030C94240301002B00CF
:1000B0002A00D75C010000000100140004001D00AC
:1000C0000100A80001001A0016001B00E200045104
:1000D0000100080007000600E000015101001500C2
:1000E00009001900E300AA00010017000A0005003A
:1000F0000000035101000100000001000000A90000
:1001000001000100000001000000010001001C00CE
:100110000B00110000000100010018000D0010008C
:100120000251010001000C000E0036004E002C00B0
:10013000010012000F003700010028000100130029
:10014000340038000100010001002E002D00D85CB1
:100150000100000001002B012A08730001000000CB
:1001600001001408025104080100010001001A08EE
:1001700016080708010001000100290006083A00DE
:10018000010001000100150819081D080100010007
:10019000010017081B081C080000010001000100F5
:1001A000000001000000010001000100000001004A
:1001B0000000010001001C014C002A0000000100A9
:1001C0000100500850000908E7000100010052003A
:1001D00051000A0A4B002C0001004F084F000A088A
:1001E000010001000100350235003100010001006D
:1001F00001006F007000720001000000010004099E
:1002000071000100010000000100010001001A5C02
:1002100001000100010001000100010001000100D6
:10022000010001002F002F020100E3000100150A68
:10023000300030022C04010001003B002B001801AB
:1002400000000100010001000000010000000100A9
:1002500001000100000001000000010001000E0A81
:100260006D006E00000001000100500A500269009C
:10027000010001000100520251025006010001007C
:1002800001004F0A4F024F06010001000100440027
:10029000450068000100010001006A006B006C006D
:1002A00001000000010001002A0A01000100000015
:1002B00001001E0C430001000100010001001F0CA1
:1002C000400001000100010001003C00410001006C
:1002D0000100010001003D0041000100010001009A
:1002E00001003E0042000100000001000100010089
:1002F00000000100000001000100010000000100F9
:1003000000000100010001000100010000000100E7
:1003100001002F08F2000100F50001000100F000CB
:10032000F100FB000100F40001003008F300FC00C4
:1003300001000100010001000100010001000100B5
:1003400001000100010001000100000001000100A6
:10035000010001000100000001001E080100010071
:100360000100010001001F0801000100010001005F
:100370000100200826010100010001000100210800
:100380002701010001000100010022080100010015
:100390000000010001000100000001000000010058
:1003A00001000100000001000000010001005500F3
:1003B00057002D00000001000100240021001E0054
:1003C000270001000100250022001F0001002E006F
:1003D000010026002300200001000100010031027D
:1003E0003300380001000100010001003302010068
:1003F00001000000000000000000000000000000FC
:1004000000000000000000007E0F00D4FFFFFFC7C7
:100410000000007800000000000000002A2B2800E7
:1004200000000000000000000000000000000029A3
:10043000000000002C1E3420212224342627252EE3
:10044000362D3738271E1F2021222324252633331B
:10045000362E37381F0405060708090A0B0C0D0E47
:100460000F101112131415161718191A1B1C1D2F13
:100470003130232D350405060708090A0B0C0D0E33
:100480000F101112131415161718191A1B1C1D2FF3
:100490003130354C05010902A10185020901A10095
:1004A0000509190129051500250195057501810228
:1004B0009501750381010501093009311581257FF9
:1004C00095027508810609381581257F9501750803
:1004D0008106050C0A38021581257F950175088172
:1004E00006C0C005010980A10185031A81002A8385
:1004F00000160100260300950175108100C0050C4F
:100500000901A10185041A01002A9C021601002696
:100510009C02950175108100C005010906A10185A5
:1005200005050719E029E7150025019508750181E2
:10053000020507190029EF1500250195F0750181C5
:1005400002050819012905950575019102950175A6
:10055000039101C005010906A101050719E029E77A
:100560001500250195087501810295017508810125
:100570000507190029FF150026FF0095067508815B
:100580000005081901290595057501910295017568
:10059000039101C009023B00020100A0FA09040016
:1005A000000103010100092111010001224000079F
:1005B00005810308000A0904010001030000000985
:1005C000211101000122C0000705820320000A1248
:1005D00001100100000008EDFE07130100010203F5
:1005E0000104033000000016034500720067006F2D
:1005F0000064006F007800200045005A00000008E9
:10060000035A0053004100000004030904001124B0
:100610001FBECFEFDAE0DEBFCDBF11E0A0E0B1E05A
:10062000EAECFCE402C005900D92A43FB107D9F7B3
:1006300023E0A4EFB1E001C01D92AF32B207E1F7B1
:100640000E94B41E0C9438260C940000E8EDF0E0F3
:1006500080818E7F80831092E2001092DA001092E7
:10066000E100A0EEB0E08C9181608C9380818F7767
:10067000808319BCA7EDB0E08C918E7F8C93808134
:100680008F7E80831092FC0208952091E4003091C7
:10069000E50095E6A9012091EC00822F817020FFF2
:1006A00006C08091E80080FF06C080E00895209198
:1006B000E80022FD1AC080912103882389F085304B
:1006C00089F08091EB0085FD0FC02091E40030910E
:1006D000E50042175307F9F29150E1F684E00895DE
:1006E00082E0089583E0089581E00895EF92FF92FB
:1006F0000F931F93CF937C018B010E944503C82F5A
:10070000811117C08091E80085FD0BC08091E80041
:100710008E778093E8000E944503882399F3C82FC1
:1007200008C0F70181917F018093F1000150110908
:1007300049F78C2FCF911F910F91FF90EF90089563
:100740008091230387FF13C08091E80082FF06C0D9
:100750008091E8008B778093E80004C080912103AA
:100760008111F2CF0895809121038823D9F38091DC
:10077000E80080FFF8CF8091E8008E77ECCF982FCB
:100780009093E900242F762F50E0891731F0709173
:10079000EC002091ED005091F00021FD07C09F5F1B
:1007A000973071F78093E90081E008953091EB0074
:1007B0003E7F3093EB003091ED003D7F3093ED00B4
:1007C0003091EB0031603093EB007093EC0020939C
:1007D000ED005093F0002091EE0027FDE0CF80E087
:1007E0000895CF92DF92EF92FF920F931F93CF93D2
:1007F000DF93C8EDD0E088818F7E8883E7EDF0E05D
:1008000080818160808384E082BF81E08093FC02EC
:1008100088818E7F888302EE10E0F80110821092AA
:10082000DA0081EEC82ED12CF601108288818F77F4
:10083000888388818068888388818F7D888319BCBC
:1008400010922103109222031092200310921F0392
:1008500090EEE92EF12CF70180818B7F80838881D7
:100860008160888342E060E080E00E94BF03F6017F
:1008700080818E7F8083F801808181608083808188
:1008800088608083F70180818E7F8083888180618A
:100890008883DF91CF911F910F91FF90EF90DF90B0
:1008A000CF900895FC018091290390912A03861727
:1008B0009707A0F06115710529F49091E8009E77E3
:1008C0009093E80090E06115710551F4911108C012
:1008D0008091E80082FF34C080E00895BC01F2CF2F
:1008E000809121038823C1F18530C1F18091E80016
:1008F00083FD30C08091E80082FDEACF8091E8005E
:1009000080FFE1CF8091F3002091F200382F611534
:10091000710519F02830310558F091E02830310583
:1009200009F090E02091E8002E772093E800CBCFEB
:1009300081918093F100615071092F5F3F4FE7CFA4
:1009400080912103882341F0853041F08091E800B7
:1009500083FFBECF81E0089582E0089583E008958B
:1009600080912103843011F482E0089581E008959C
:100970008091FE0208959091E502803F41F48091BC
:10098000E60287FD1092E602992371F00895813FF7
:1009900029F48091E6021816ACF3F6CF823F81F479
:1009A00097FFF2CF1092E5028091E6029091E70264
:1009B000892B9091E802892B49F71092E90208955A
:1009C000833F19F4191674F3DFCF893F39F480910E
:1009D000E7021816CCF61092E702D6CF8A3F29F428
:1009E0008091E70287FFD0CFF6CF8B3F39F480911B
:1009F000E80287FFC9CF1092E802C6CF8C3F29F4E6
:100A00008091E8021816BCF3BFCF843F31F4809187
:100A1000E4028E7F8093E402B7CF853F21F480917A
:100A2000E4028D7FF7CF863F21F48091E4028B7F33
:100A3000F1CF873F21F48091E402877FEBCF883F9D
:100A400021F48091E4028F7EE5CF8D3F31F48091D7
:100A5000B7028E7F8093B70297CF8E3F21F48091AB
:100A6000B7028D7FF7CF8F3F09F08ECF8091B7020D
:100A70008B7FF0CF81E008958091B70280FD16C092
:100A800081FD16C082FD18C08091E902882391F093
:100A90008A3290F42EE1829FC00111246AE270E054
:100AA0000E94D521862F672B49F0089587E008958D
:100AB0008FE0089585E008958EE1089581E008951E
:100AC000803F31F40E943C0581958093E6020895B1
:100AD000813F19F40E943C05F8CF823F31F40E9417
:100AE0003C0581958093E5020895833F19F40E94A7
:100AF0003C05F8CF893F29F40E943A058093E7022C
:100B000008958A3F21F40E943A058195F7CF8B3FE3
:100B100031F40E943A0581958093E80208958C3F54
:100B200019F40E943A05F8CF843F31F48091E40231
:100B300081608093E4020895853F21F48091E4026E
:100B40008260F7CF863F21F48091E4028460F1CF88
:100B5000873F21F48091E4028860EBCF883F21F445
:100B60008091E4028061E5CF8D3F31F48091B7023E
:100B700081608093B70208958E3F21F48091B7027F
:100B80008260F7CF8F3FB9F78091B7028460F1CFD1
:100B9000CF92DF92EF92FF920F931F932FB7F894AB
:100BA0004091B3025091B4026091B5027091B602C7
:100BB0002FBF6A017B01EE24FF248C0130E020E08E
:100BC000C016D106E206F30650F0481B590BCA01C5
:100BD0001F910F91FF90EF90DF90CF9008954150BB
:100BE0005109F3CF8091AE0281111092AE020895A7
:100BF0008091AD029091AC02892B9091AB02892B30
:100C00008093F4019091AE029923A1F0892B8093F7
:100C1000F40180911501882341F18091D00287FF72
:100C200024C08EE1E6EFF1E090E0815000F59111F3
:100C30000E94F205E091D202F091D3023097E1F0E8
:100C400080911501882359F08091D00287FF07C059
:100C50008091F4018093F50185E08093F401028096
:100C6000F381E02D84EF91E0099486E0DBCF2191C0
:100C70002223D9F29F5FD9CF08959091150199232E
:100C8000D1F09091D00297FF16C0E82FE695E69537
:100C9000E695EE31E0F4F0E0EC50FE4F282F27709F
:100CA00081E090E001C0880F2A95EAF78095928153
:100CB000892382830895E6EFF1E09191891303C0BF
:100CC000DF0111971C9291E0EC3FF907B1F708950D
:100CD000909115019923C1F09091D00297FF14C013
:100CE000E82FE695E695E695EE31F8F4F0E0EC5065
:100CF000FE4F877021E030E001C0220F8A95EAF7AD
:100D00008281822B82830895A6EFB1E0EFEF90E01D
:100D10002D91821751F0EF3F19F4211101C0E92FF5
:100D20009F5F9630A9F7EF3F09F408950E2E000C4F
:100D3000FF0BEC50FE4FE6CFE92FEE0FE90FEE0F61
:100D40008E0F982F977086958695869525E0829FC1
:100D5000F0011124E159FD4F50E040E080E0219185
:100D600030E0092E02C0369527950A94E2F72170EB
:100D70003327042E01C0220F0A94EAF7822B4F5F1B
:100D80005F4F4530510559F70895E92FEE0FE90FF0
:100D9000EE0F8E0F982F977041E001C0440F9A9587
:100DA000EAF786958695869595E0899FF00111244E
:100DB000E159FD4F30E020E070E05191DF011197E3
:100DC000CB01022E02C0969587950A94E2F78170B6
:100DD00081958527842385278C932F5F3F4F25306E
:100DE000310559F7089580916E0290913D02981354
:100DF00001C008958F5F8770FACF882341F08095F6
:100E00009091AC0289238093AC020C94F80508956C
:100E1000882339F09091AC02982B9093AC020C94FB
:100E2000F8050895882341F080959091AD028923BB
:100E30008093AD020C94F8050895882339F09091C1
:100E4000AD02982B9093AD020C94F8050895209173
:100E50001C0230911D022817390771F090931D0272
:100E600080931C02E091D202F091D302309721F0DE
:100E70000084F185E02D0994089520911A023091A3
:100E80001B022817390771F090931B0280931A02F6
:100E9000E091D202F091D302309721F00680F781E1
:100EA000E02D09940895E091D202F091D302309799
:100EB00021F00190F081E02D099480E00895909157
:100EC000D00292FF06C0282F28712830F9F4877FBE
:100ED000846093FF06C0282F28712831F1F4877EA3
:100EE00084612091D10220FF06C0382F387138303C
:100EF000D9F4877F816021FF06C0282F287128310F
:100F0000D1F4877E816194FD877E0895282F247116
:100F10002430F9F68B7F8860DCCF282F24712431B0
:100F200001F78B7E8861DDCF382F3171313019F7B1
:100F30008E7F8860E0CF282F2171213121F78E7EAE
:100F40008861E1CFCF93DF93972F70E026E0929FE7
:100F5000600D711D1124FB0134E5839FE00DF11D2F
:100F60001124EE0FFF1FE455FF4FC591D491CE0120
:100F7000C238D105B9F1E8F5C133D10509F499C0FA
:100F800050F5C932D10509F48DC0CA32D10509F432
:100F900097C0C11542E5D40708F0C4C0C11521E5CA
:100FA000D20708F038C1C83ED10508F09DC0C03E48
:100FB000D10568F5C83AD10508F089C0C53AD10510
:100FC00008F005C1C130D10511F1209709F443C0E3
:100FD0002497E8F440C0C533D10509F45CC0C93397
:100FE000D105B9F62091D002237089F080EE90E00F
:100FF0000EC0C33ED10591F168F4C03ED105F9F0B1
:10100000C23ED10531F62091D00222FD20C0DF91F1
:10101000CF910895C63ED10561F1C73ED10581F15A
:10102000C43ED10509F0B5CF2091D10221FFEFCF09
:101030008091D00284FD0FC087EE90E0E8CF209130
:10104000D00220FD19C13091D10230FFE0CF83EEF4
:1010500090E024FFDCCF90E080E0D9CF2091D00257
:1010600022FD0DC13091D10230FDC0CF24FFCFCF82
:10107000F2CF2091D00223FFCACF24FDECCFDCCFEA
:101080002091D00223FDFEC03091D10231FFEECF7E
:1010900084EE90E0BCCF2091D00225FFB8CF89E24A
:1010A00090E0B5CF2091D00225FFB1CF85E390E04D
:1010B000AECF2091D00226FFAACF8AE290E0A7CF40
:1010C0002091D00226FFA3CF81E390E0A0CFCF3BB9
:1010D000D10508F6C85AD0E0CC0FDD1FCA53DE4F49
:1010E00088819981946493CFC11530E2D30760F46D
:1010F000C11541E0D40708F08ACFCE019065C03F0A
:10110000D10508F084CFA7CFC11580E4D80708F433
:10111000A2CFC11590E5D90708F061C0CE019F703C
:10112000906A75CFC11526E5D20718F5C11535E5CA
:10113000D30708F086C0C11544E5D40708F07CC089
:101140009C2F96959695AE0143705527C115D345B2
:1011500008F466C021E030E002C0220F331F4A9538
:10116000E2F740E2949FC0011124822B932B9A68EE
:101170004ECFC1159AE5D90778F4C11529E5D207F4
:1011800008F069C0C11538E5D30708F464CF9C2F77
:101190008827806F906A3BCFC1154BE5D40708F4D0
:1011A0005ACFC1158CE5D80708F462C0CE0190561D
:1011B0008115904208F04FCF8D2F8F710E945F07ED
:1011C00090E0982F882788279F718C2B42C0C55AA2
:1011D000D0E0CD53DE4F888190E0906418CF9E011F
:1011E000E4E036952795EA95E1F723708C2F8695F4
:1011F0008695837030E2839FC0011124922BC370C7
:1012000021E030E002C0220F331FCA95E2F7822BA3
:10121000932B9C68FCCE9C2F8827816F906AF7CE19
:1012200021E030E002C0220F331F4A95E2F740E28E
:10123000949FC0011124EBCF9C2F8827846F906A64
:10124000E6CE8C2F0E945F0790E0982F8827882792
:101250009F719062DCCE8C2F8F700E945F0734E00C
:10126000D695C7953A95E1F7CF709C2F9069CFCE70
:10127000CE0199279066CBCE89E390E0C8CE82EE6E
:1012800090E0C5CE86EE90E0C2CEBF92CF92DF92C4
:10129000EF92FF920F931F93CF93DF938C01C09037
:1012A000A602D090A702E090A802F090A902809137
:1012B000AF029091B002A091B102B091B202C82ADF
:1012C000D92AEA2AFB2ACFE1D0E0BC2ED701C601F9
:1012D0000C2E04C0B695A795979587950A94D2F7DA
:1012E00080FD0EC0219788F7B12C8B2DDF91CF9117
:1012F0001F910F91FF90EF90DF90CF90BF900895D6
:10130000B8018C2F0E94A207019761F3EECFCF9313
:10131000DF93EC010E944509BE01DF91CF910C944F
:10132000A2070E948709292F2F7092959F709250D3
:101330009E3078F4E92FF0E0E65CF94D0C94E92159
:10134000803F19F020F4883E20F481E00895843F26
:10135000E1F380E00895883EC0F3813FD1F7F5CFF7
:10136000822F8695869586950895CF93DF939C016D
:101370003A9521153F4168F5EC01CC27D170DC018D
:10138000AA27B270AC01442754709C012227387000
:1013900094FF11C080E1CD2B09F480E0AB2B09F064
:1013A0008062452B09F08064232B09F08068FB01E3
:1013B000DF91CF91099481E0CD2B09F480E0AB2B34
:1013C00009F08260452B09F08460232B81F388604B
:1013D000EECFDF91CF91089527982F980895269802
:1013E0002E98089525982D98089556985E980895FA
:1013F000279A2F9A0895269A2E9A0895259A2D9A1B
:101400000895CF92DF92EF92FF92CF936B017C0110
:10141000C701AA27BB27C0E10097A105B10519F4B0
:10142000D701CB01C0E0492F5A2F6B2F77274115E9
:1014300051056105710519F0C85FDB01CA01AC01F6
:10144000BD01E4E07695679557954795EA95D1F704
:10145000411551056105710519F0CC5FDB01CA0129
:10146000AC01BD0132E076956795579547953A9561
:10147000D1F7411551056105710519F0CE5FDB010A
:10148000CA01B695A79597958795892B8A2B8B2BA3
:1014900009F0CF5F0E94F5090E94F2090E94EF094E
:1014A0000E94EC09C150C73040F4EC2FF0E0E85B3B
:1014B000F94D0C94E9210E94FE09C701B601CF91B4
:1014C000FF90EF90DF90CF9008950E94FE090E9458
:1014D000FB09F3CF0E94FE090E94F809EECF0E949B
:1014E000FE090E94FB09F8CF84B1807F84B985B1E1
:1014F000807F85B98AB1837F8AB98BB1837F8BB9AD
:101500003E984698089580B38C7080BB81B3836FFA
:1015100081BB0895CF9384E090E00E942622C82FDB
:1015200081E290E00E942622982F8C2FCF9108957F
:10153000CF93DF9300D00F92CDB7DEB79091210308
:10154000943019F589837B836A8382E08093E90074
:101550008FEF9091E800815095FD06C095ED9A952A
:10156000F1F700008111F5CF8091E80085FF0DC0F3
:1015700050E040E063E070E0CE0101960E94760307
:101580008091E8008E778093E8000F900F900F9085
:10159000DF91CF910895CF93DF93EC010E94B004C7
:1015A000823011F0843031F4BE0184E0DF91CF91BC
:1015B0000C94980ADF91CF910895BC01605871098D
:1015C00083E00C94980ACF93DF93EC010E94B0045F
:1015D000823011F08430F9F482E08093E9008FEFDB
:1015E0009091E800815095FD06C095ED9A95F1F730
:1015F00000008111F5CF8091E80085FF0CC050E01C
:1016000040E066E070E0CE010E9476038091E80041
:101610008E778093E800DF91CF910895CF93DF9389
:10162000EC010E94B004823011F08430B9F5809151
:1016300015018823B1F18091D00287FF32C060E2AA
:1016400082E08093E9008FEF9091E800815095FD52
:1016500006C095ED9A95F1F700008111F5CF8091C4
:10166000E80085FF1BC08091150170E050E040E06C
:10167000811104C050E040E068E070E0CE010E94BB
:1016800076038091E8008E778093E80080E2FE0187
:10169000AFEFB2E001900D928A95E1F7DF91CF9123
:1016A000089568E081E0CDCFEF92FF920F931F93F2
:1016B000CF93DF930E94F5090E94F2090E94EF097F
:1016C0000E94EC0988E8E82EF12C8FEF90E0F701FA
:1016D000918380830AE810E0F80191838083CCE84D
:1016E000D0E0998388830E94FE09FFEF20E782E023
:1016F000F15020408040E1F700C000000E94FB094B
:101700009FEFE0E7F2E09150E040F040E1F700C0E9
:1017100000000E94F8092FEF80E792E021508040FE
:101720009040E1F700C000000E94F209EFEFF0E7FF
:1017300022E0E150F0402040E1F700C000000E94AC
:10174000EF098FEF90E7E2E081509040E040E1F751
:1017500000C000000E94EC098091BE028770FFEF7C
:101760008F9FC00111249595879595958795992709
:10177000F70191838083F801918380839983888323
:101780000E94F5090E94F2090E94EF09DF91CF91B2
:101790001F910F91FF90EF900C94EC096091BA02A9
:1017A0008CE090E00C943A226FEE7EEF90E080E0C7
:1017B0000E94582260E082E090E00E943A2260E0BD
:1017C00083E090E00E943A221092AF021092B002A1
:1017D0001092B1021092B20260E084E090E00E94A8
:1017E0003A2260E081E290E00E943A2260E085E0E7
:1017F00090E00E943A2260E086E090E00E943A2267
:101800006FEF87E090E00E943A2240E050E0BA019A
:1018100088E090E00E944C2260E08DE090E00E9421
:101820003A2240E050E0BA0188E190E00E944C2268
:1018300060E087E190E00E943A2240E050E0BA0187
:101840008CE190E00E944C2260E080E290E00E94F7
:101850003A221092BE021092BF021092C002109261
:10186000C10284E080618093BE024091BE0250912B
:10187000BF026091C0027091C1028FE090E00E94AF
:101880004C2240E050E0BA0183E190E00C944C22FD
:10189000CF93C82F873070F58091090190910A018C
:1018A000892B89F564E670E080E40E940E21909314
:1018B0000A0180930901892BD1F464E670E082E18A
:1018C0000E946A2190930A0180930901892B79F47F
:1018D00081E090E001C0880FCA95EAF764E670E005
:1018E00080950E946A2190930A0180930901CF910B
:1018F0000C94BD218A30B9F040F4883071F0893001
:1019000079F0209A2898CF9108958C3091F070F05A
:101910008D30B9F73E9A4698F6CF219A2998F3CFA1
:10192000229A2A98F0CF239A2B98EDCF529A5A9860
:10193000EACF539A5B98E7CF80E290E090930A0158
:10194000809309018091170281110EC00E94082125
:1019500081E0809317022FEF83ED90E321508040C8
:101960009040E1F700C0000064E670E080E40E946F
:101970000E2190930A0180930901892B09F04EC032
:1019800064E670E080E00E946A2190930A018093EF
:101990000901892B09F042C064E670E080E00E94F2
:1019A0006A2190930A0180930901892BB9F564E6B5
:1019B00070E08FE30E946A2190930A0180930901ED
:1019C000892B61F50E94BD2164E670E080E40E94ED
:1019D0000E2190930A0180930901892BF9F464E6A2
:1019E00070E08CE00E946A2190930A0180930901C3
:1019F000892BA1F464E670E080E00E946A21909354
:101A00000A0180930901892B49F464E670E08FE3B1
:101A10000E946A2190930A01809309010E94BD21CE
:101A2000809109010895CF93873008F040C08091DC
:101A3000090190910A01C0E0892B71F464E670E01D
:101A400080E40E940E2190930A0180930901892B62
:101A500031F0C0E00E94BD218C2FCF91089564E643
:101A600070E083E10E946A2190930A01809309014A
:101A7000892B79F764E670E081E40E940E2190934F
:101A80000A0180930901892B21F784E690E00E94E6
:101A9000992197FF05C090930A0180930901D9CF3E
:101AA000C82FC09510920A0110920901D3CFCFB16F
:101AB0008FB1869586958C73C3708C2BC82FC0957B
:101AC000CBCF78941F921FB61F9211248F939F93B0
:101AD000AF93BF938091B3029091B402A091B502ED
:101AE000B091B6020196A11DB11D8093B3029093EF
:101AF000B402A093B502B093B602BF91AF919F918B
:101B00008F911F901FBE1F9018952FB7F89480914A
:101B1000B3029091B402A091B502B091B6022FBF6A
:101B20000895E091D202F091D302309749F082E01B
:101B30008093E3020480F581E02D83EE92E0099525
:101B40000E94850D9093EB028093EA020895109213
:101B5000AC021092AB020E94F80586E0E3EEF2E0E0
:101B6000DF011D928A95E9F71092E9021092B702FF
:101B70000E94910D90E080E00E943D0790E080E09F
:101B80000C9427070E94010A6093A6027093A70293
:101B90008093A8029093A9020C94A70D0F931F9312
:101BA00041E050E060E070E004C0440F551F661F44
:101BB000771F8A95D2F7CB01BA0160957095809511
:101BC00090950091A6021091A7022091A802309151
:101BD000A90260237123822393231F910F910C94F8
:101BE000C20D9091AA02809589238093AA02282F82
:101BF000277071F4282F082E000C330B9217130650
:101C000039F08595859585950E94CE0D1092AA0292
:101C100008950F931F9341E050E060E070E004C02E
:101C2000440F551F661F771F8A95D2F78091A60231
:101C30009091A702A091A802B091A9028A019B01EC
:101C4000082B192B2A2B3B2BC901B8011F910F918F
:101C50000C94C20D6093AF027093B0028093B102F6
:101C60009093B2020C94A70D1092AD0280911501D1
:101C7000E6EFF1E0882359F08091D00287FF07C09A
:101C80008EE1DF011D928A95E9F70C94A70D86E09D
:101C9000F8CF1F93CF93DF93CDB7DEB7AA970FB6D8
:101CA000F894DEBF0FBECDBF83E293E02091F10038
:101CB000FC012193CF01F3E08B329F07B9F78091AC
:101CC0002403833009F46FC0B8F4813009F446C0AE
:101CD000823009F4B0C08091E80083FF87C2809110
:101CE0002303909124039A3008F080C2E92FF0E09A
:101CF000E15BF94D0C94E9218A3009F48BC08B30FB
:101D000009F46EC0893039F780912303813219F7C5
:101D100080912703909128030297E8F68091E800CC
:101D2000877F8093E8008091E80082FF37C0909120
:101D3000F3008091F200029729F48091F1008B7FEB
:101D4000813021F48091F1008093FE028091E800BF
:101D50008B778093E8000E94A003BDCF809123037E
:101D6000813A09F0B8CF8091E800877F8093E8003E
:101D70008091270390912803892B61F460E28FEF13
:101D800092E070E00E9452048091E8008B7780938B
:101D9000E800A1CF60E090E080E0F3CF80912103E4
:101DA0008111C1CF98CF80912303813A09F093CF5D
:101DB0008091270390912803892B09F08CCF809183
:101DC000E800877F8093E8008091E80080FFFCCFE7
:101DD000809115018093F1008091E8008E77B9CF52
:101DE00080912303813209F076CF8091270390916F
:101DF0002803892B09F06FCF8091E800877F8093BB
:101E0000E8000E94A00380912503809315010E94A1
:101E1000340E61CF80912303813209F05CCF809131
:101E2000E800877F8093E8000E94A003809126034A
:101E30008093FD0250CF80912303813A09F04BCF6C
:101E40008091E800877F8093E8008091E80080FF20
:101E5000FCCF8091FD02BECF803899F0823809F026
:101E6000C5C1809127038F70873008F0BFC1809370
:101E7000E9008091EB0085FB882780F91092E9004A
:101E800006C080911F039091200391118260909170
:101E9000E800977F9093E8008093F1001092F100A2
:101EA0008091E8008E779EC1882309F48CC182302E
:101EB00009F09CC18091250381118FC18091270376
:101EC0008F702FEF280F263008F090C18093E90023
:101ED0002091EB0020FF81C1933031F48091EB0021
:101EE00080628093EB0079C19091EB0090619093B8
:101EF000EB0021E030E001C0220F8A95EAF7209341
:101F0000EA001092EA008091EB008860EACF81112C
:101F10006DC1109125031F778091E3008078812B9C
:101F20008093E3008091E800877F8093E8000E941F
:101F3000A0038091E80080FFFCCF8091E3008068DF
:101F40008093E30082E0111183E0809321034EC16E
:101F50008058823008F04AC1809125039091260371
:101F60008C3D23E09207A1F583E08A838AE289838E
:101F70004FB7F894DE01139620E03EE051E2E32FE4
:101F8000F0E050935700E49120FF03C0E295EF701A
:101F90003F5FEF708E2F90E0EA30C0F0C7968D93D0
:101FA0009D932F5F243159F74FBF8091E800877FC1
:101FB0008093E8006AE270E0CE0101960E9452042C
:101FC0008091E8008B778093E80010C1C096E7CF3E
:101FD0004091270350912803292F332723303105BF
:101FE00009F445C078F52130310509F47BC08BE355
:101FF00090E0E4E9F5E02230310509F0F7C02091E6
:10200000E800277F2093E8002091290330912A03DC
:102010008217930708F49C0140E02115310509F06F
:1020200070C041116EC08091E80082FDC9CF8091DF
:102030002103882329F2853019F28091E80083FF7B
:10204000F2CFBECF2132310509F440C02232310532
:1020500009F0CCC04115510509F44EC0413051057D
:1020600009F0C4C080EC90E0E4E9F4E0C8CF99271F
:1020700081309105D9F0009771F082309105F1F02F
:10208000039709F0B3C0E1EEF5E0E4918E2F90E004
:10209000E1EEF5E007C0E9E0F6E0E4918E2F90E094
:1020A000E9E0F6E0009709F4A1C0A9CFEFEFF5E071
:1020B000E4918E2F90E0EFEFF5E0F4CFE7EEF5E05E
:1020C000E4918E2F90E0E7EEF5E0ECCF411551055D
:1020D00071F04130510509F089C089E090E0EFEBE3
:1020E000F5E08DCF82E190E0EFECF5E088CF89E07C
:1020F00090E0E6EAF5E083CF80E490E0E4E5F5E007
:102100007ECF80912103882309F45ACF853009F4CA
:1021100057CF8091E80083FD53CF8091E80082FD86
:1021200082CF8091E80080FF78CF9091F30080917A
:10213000F2002115310519F08830910550F041E089
:10214000089709F040E08091E8008E778093E800DE
:1021500064CF44914093F1003196215031090196AA
:10216000E8CF803809F042C08091E800877F8093F3
:10217000E800809122038093F10092CE811136C055
:1021800010912503123090F58091E800877F8093AD
:10219000E800109322030E94A003112311F084E0B1
:1021A00005C08091E30087FDFACF81E08093210391
:1021B00042E061EC81E00E94BF0342E261EC82E018
:1021C0000E94BF0313C080912503813079F481E020
:1021D000933009F080E0809320031092E900809111
:1021E000E800877F8093E8000E94A0038091E800C8
:1021F00083FF0AC08091E800877F8093E800809188
:10220000EB0080628093EB00AA960FB6F894DEBFD5
:102210000FBECDBFDF91CF911F9108951F920F92F6
:102220000FB60F9211242F933F934F935F936F93A9
:102230007F938F939F93AF93BF93CF93DF93EF934E
:10224000FF93D091E900DF708091EC00C82FC1703E
:1022500080FDC0E81092E9008091F000877F8093B4
:10226000F00078940E94490E1092E9008091F000ED
:1022700088608093F000CD2BCF70C093E900FF9170
:10228000EF91DF91CF91BF91AF919F918F917F910E
:102290006F915F914F913F912F910F900FBE0F90D3
:1022A0001F9018951F920F920FB60F9211242F9323
:1022B0003F934F935F936F937F938F939F93AF93CE
:1022C000BF93EF93FF938091E10082FF09C080915B
:1022D000E20082FF05C08091E1008B7F8093E100E6
:1022E0008091DA0080FF24C08091D80080FF20C058
:1022F0008091DA008E7F8093DA008091D90080FF90
:102300009FC080E189BD82E189BD09B400FEFDCF97
:1023100081E0809321038091FC02811109C00E9419
:1023200026030E94F1038091E20084608093E20022
:102330008091E10080FF17C08091E20080FF13C010
:102340008091E2008E7F8093E2008091E2008061C4
:102350008093E2008091D80080628093D80019BCFD
:1023600085E0809321038091E10084FF2DC080915E
:10237000E20084FF29C080E189BD82E189BD89B581
:10238000982F917080FFFBCF8091D8008F7D809334
:10239000D8008091E1008F7E8093E1008091E2007F
:1023A0008F7E8093E2008091E20081608093E20062
:1023B00080912203882309F449C084E0809321039B
:1023C0000E94340E0E9453078091E10083FF27C0D2
:1023D0008091E20083FF23C08091E100877F80939A
:1023E000E10082E080932103109222038091E100BA
:1023F0008E7F8093E1008091E2008E7F8093E200E7
:102400008091E20080618093E20042E060E080E041
:102410000E94BF038091F00088608093F000FF91DC
:10242000EF91BF91AF919F918F917F916F915F914C
:102430004F913F912F910F900FBE0F901F901895C5
:1024400019BC109221031092FC0272CF8091E3001C
:1024500087FD93E090932103B3CF882309F459C0FB
:10246000823871F40E94530781FF53C089E30E94B0
:1024700068060E94F80589E30E943D060C94F80561
:10248000833859F40E94530780FF43C083E50E94BC
:1024900068060E94F80583E5EFCF843859F40E945E
:1024A000530782FF36C087E40E9468060E94F80541
:1024B00087E4E2CF9CEF980F913AF0F290E2980F08
:1024C000983088F4877021E030E0A90102C0440F01
:1024D000551F8A95E2F7CA0180959091AD02892334
:1024E0008093AD02CBCF9BE5980F933020F490E022
:1024F00080E00C943D0798E5980F973120F490E028
:1025000080E00C942707803F20F00E94BB040C94CD
:10251000910D0895CF93DF93EC010E942D126DEF82
:1025200076E0CE01DF91CF910C94B509882309F4B0
:102530007BC08238B9F40E94530781FD75C089E3DE
:102540000E9468060E94F8052FEF81EE94E021506A
:1025500080409040E1F700C0000089E30E943D0602
:102560000C94F8058338A1F40E94530780FD5CC0E9
:1025700083E50E9468060E94F8052FEF81EE94E043
:10258000215080409040E1F700C0000083E5E6CF95
:102590008438A1F40E94530782FD46C087E40E945C
:1025A00068060E94F8052FEF81EE94E021508040EC
:1025B0009040E1F700C0000087E4D0CF9CEF980F77
:1025C000913A18F40E946806CBCF90E2980F9830A9
:1025D00068F4877021E030E001C0220F8A95EAF7A5
:1025E0008091AD02822B8093AD02BACFEBE5E80F6C
:1025F000E33038F4F0E0ED53FE4F808190E00C942E
:102600003D07E8E5E80FE73148F4F0E0EE0FFF1F83
:10261000EA53FE4F808191810C942707803F20F080
:102620000E9460050C94910D0895CF93C82F0E94CD
:102630009612C93349F42FEF87EE93E02150804082
:102640009040E1F700C000008C2FCF910C942D1228
:10265000CF93C82F68E077E00E94B5098C2FCF9107
:102660000C949612CF93DF93C0912D02D0912E023D
:102670002097E1F080912F02909130020E94C805CE
:1026800020910701309108012817390790F4D26092
:10269000CE010E942813CE010E948A1210923002AD
:1026A00010922F0210922E0210922D02DF91CF91E4
:1026B00008958C2F0E941513F1CF0F931F93CF9382
:1026C000DF93C62FD42F022FFC0182818823A1F033
:1026D000609331020E94850D909319028093180235
:1026E000C77081E001C0880FCA95EAF7DF91CF91EA
:1026F0001F910F910C941D0710913102161335C0D4
:1027000080911802909119020E94C805863991059E
:1027100060F5C0E2CD0F1D17B9F080E2810F88305F
:1027200040F4177081E001C0880F1A95EAF70E9403
:102730001207C83048F481E09D2F977001C0880FC0
:102740009A95EAF70E941D07802F0E941513C83042
:1027500098F4D77081E001C0880FDA95EAF7DF912D
:10276000CF911F910F910C941207C77081E001C0A7
:10277000880FCA95EAF7F3CFDF91CF911F910F91A0
:1027800008954F925F926F927F928F929F92AF9235
:10279000BF92CF92DF92EF92FF920F931F93CF934E
:1027A000DF93CDB7DEB728970FB6F894DEBF0FBE24
:1027B000CDBF6C01FC0183819481892B39F010819C
:1027C000B180812F8B218F3F09F0BBC628960FB6B1
:1027D000F894DEBF0FBECDBFDF91CF911F910F9157
:1027E000FF90EF90DF90CF90BF90AF909F908F9031
:1027F0007F906F905F904F9008950E944509082F39
:10280000682F89819A810E94C506E12FF0E026E0B9
:10281000B29EE00DF11D112434E5039FE00DF11D82
:102820001124EE0FFF1FE455FF4F0591149109305D
:102830006DE51607F1F5F6018281882309F44FC092
:102840008091BE0291E0980F9770887F953008F4D0
:10285000892B8093BE028091BE028770FFEF8F9F0D
:10286000C001112495958795959587959927909303
:1028700089008093880090938B0080938A009093C6
:102880008D0080938C004091BE025091BF026091F8
:10289000C0027091C1028FE090E00E944C226091D2
:1028A000A6027091A7028091A8029091A9020E94AD
:1028B000010AF6018281882391F0033EFCE51F079F
:1028C00009F4A0C008F08EC0013E3CE5130709F4EE
:1028D00094C081E0023E6CE5160709F494C017FF2E
:1028E00052C0F6018281882309F4BBC08091AD02F9
:1028F00080932C021092AD028091BA02813009F4CB
:102900008BC0882309F484C0823009F48EC08430DF
:1029100009F492C08FE39CE90197F1F700C0000031
:102920004801E89497F85CE0A52EB12C94010A2C9C
:1029300002C0369527950A94E2F72F7087E290E05F
:1029400031F0822F90E02A3008F07BC04D960E9433
:10295000151394E0A91AB108ECEFAE16EFEFBE061E
:1029600029F78091BA02813009F471C0882309F4F3
:102970006AC0823009F467C0843009F46CC0809169
:102980002C028093AD02F6018281882309F469C08C
:102990000436110571F008F082C00B32110549F0C0
:1029A000C8010C32110508F058C00497849708F04C
:1029B00058C00E94321380910601882309F488C010
:1029C0008091AD02811184C00E94850D90933002E8
:1029D00080932F0210932E0200932D0282E00E941A
:1029E000F10DF4CE043E7CE5170781F0053E8CE541
:1029F000180709F074CF84E006C01092BA020E9452
:102A0000CE0B6DCF82E08093BA02F9CF83E0FBCF8B
:102A100082EE0E9496127ECF88E193E00E942813F6
:102A200088E193E00E948A1275CF82EE0E9496128E
:102A300087E50E9415136ECF86EE0E94151388E17C
:102A4000F8CF069784CF82EE0E942D1298CF8CE2A9
:102A50000E94151394CF88E2FBCF8D970C9708F452
:102A6000A8CF0E943213033F3CE5130709F459C174
:102A700008F045C1083D7CE5170709F44EC1093D42
:102A80008CE5180709F459C1073D9CE5190701F5C4
:102A900026E241EE61EEC6010E945D1397CE093138
:102AA000FCE51F0709F479C008F060C007313CE578
:102AB000130709F46CC080910701909108010597F4
:102AC00008316CE5160769F69093080180930701B9
:102AD000F6018281882309F448C510923102023040
:102AE000FCE51F0708F4FFC106312CE5120738F09A
:102AF00098012A5F3C452730310508F0F4C10E9457
:102B00008A0A9093D1028093D0020F303CE51307DC
:102B100009F4CAC108F04BC108307CE5170709F475
:102B2000ADC108F01EC104309CE5190709F49AC133
:102B300008F006C10230FCE51F0709F48FC180913F
:102B4000D002826003301C4509F41DC16091D0029F
:102B50001091D10284E090E00E943A22612F81E23C
:102B600090E00E943A220E94340E30CE0B317CE578
:102B7000170709F4C0C008F4BAC00C319CE5190766
:102B800009F06FCF109206010E943213A1CF8091FD
:102B9000070190910801059697CF809108018F93C6
:102BA000809107018F9386E191E09F938F931F920D
:102BB00088E08F93FF92EF920E9499230FB6F894CA
:102BC000DEBF0FBECDBF4AE0642EF7012081222375
:102BD00009F47ECF213009F04BC08181B280813071
:102BE00051F4F2E0EF0EF11C8B2D0E9496128B2D0A
:102BF0000E942D1208C0823051F422E0E20EF11C36
:102C00008B2D0E9496122FEFE21AF20ADECF83304C
:102C100021F432E0E30EF11CEACF843021F06FEFB3
:102C2000E61AF60AF0CF72E0E70EF11C30E020E081
:102C3000A7014F5F5F4F6B2D6053770BCB016A305D
:102C4000710550F021503109F0F28FE99FE00197B2
:102C5000F1F700C00000F6CF629EB001639E700DD8
:102C600011249C01260F371FF701B1807A01E0CFB4
:102C7000E22FF0E0EC5EFB4F7490822F86958695F4
:102C8000869590E0FC01EC5FFB4F84902770912CBF
:102C9000022E02C0959487940A94E2F7E1E08E2216
:102CA0009924FC01EC50FC4FA490B12C02C0B594C7
:102CB000A7942A95E2F7F1E0AF22BB248114910496
:102CC00019F081EE0E949612A114B10419F086EE5B
:102CD0000E949612872D0E941513AB2819F086EEDC
:102CE0000E942D12892809F48ECF81EE81CF809128
:102CF0000601811147CF81E080930601E9CE053FAF
:102D0000ECE51E07B1F088F0063F2CE5120709F04C
:102D1000DFCE27E245EE66EEBECE27E245EE65EE5B
:102D2000BACE26E241EE60EEB6CE27E245EE64EE84
:102D3000B2CE26E241EE62EEAECE28E241E0EFCF27
:102D40008091D002806106303CE51307E1F080916C
:102D5000D002886007301C45B0F08091D0028062BC
:102D600012C00B307CE5170709F496C078F40930DF
:102D70009CE5190709F486C08091D0028C600A3066
:102D80001C4509F0E3CE8093D002E0CE8091D002C2
:102D90008B7F0D30FCE51F07B1F38091D0028D7F52
:102DA0000E301C4580F38091D002877FECCF0A3F24
:102DB0003CE5130709F45AC048F502317CE51707D2
:102DC00009F47AC060F400319CE5190709F470C079
:102DD0008091D0028F7B01311C45A9F2B7CE04311E
:102DE000FCE51F0709F476C008F46CC005311C45EA
:102DF00009F0ACCE8091D00282FB992790F921E0B6
:102E0000922790FB82F990FB83F9BDCF0D3F6CE5D3
:102E1000160709F445C070F40B3F8CE5180751F113
:102E20008091D1028E7F0C3F1C4509F08FCE80939C
:102E3000D1028CCE0F3FECE51E0709F447C040F1EC
:102E400001151D4509F082CE8091D102982F9095F1
:102E500091708E7F892B90FB81F9E9CF8091D00210
:102E6000816091CF8091D00284608DCF8091D1021A
:102E70008160DDCF8091D1028260D9CF8091D00274
:102E8000806481CF0E94340E8091D00280687BCF15
:102E90008091D1028360CBCF8091D0028E7F73CF9F
:102EA0008091D1028D7FC3CF8091D0028F7E6BCF76
:102EB0008091D0028F7D67CF0E94340E8091D00226
:102EC0008F7761CF8091D002837F5DCF8091D102D7
:102ED0008C7FADCF0E94340E9091D002892F97FB4A
:102EE00087F9805850CF06313CE5130709F048C3F5
:102EF0008091AD028A7A91E009F490E090933202D9
:102F0000811106C089E20E9468060E94F8055ECC25
:102F100085E3F9CF85E331C30E94340E6FEF74E38C
:102F20008CE0615070408040E1F700C00000F894F0
:102F300081E08093E00080E28093D8001092C90085
:102F4000EFE1FEE43197F1F700C000001DBA1092E6
:102F500068001CBC10BE1FBA10927A0010926E005E
:102F600010926F0010927100109272001092C900BE
:102F70001092BC0014B817B81AB81DB810BA109245
:102F8000BC0015B818B81BB81EB811BA0C94003F95
:102F90001DCC0E94D40B1ACCC8010E949C06F82EAE
:102FA00006C3212F2F70E22E107F19F0E29490EFCC
:102FB000E922FF20C9F0EE2069F080E2800F88301E
:102FC00010F0B1100BC08091AD02E82AE092AD0282
:102FD0000E94F805802F0E94961218C08091AC02C2
:102FE000E82AE092AC02F4CF802F0E942D12EE204E
:102FF00069F0E094005E083010F0B11028C08091B4
:10300000AD02E822E092AD020E94F805292D285079
:10301000330B2430310510F40E945307AA2009F421
:10302000D5CB8091AA0280FDD1CBF6011282859585
:10303000859585950E94090EC6010E94C113809155
:10304000AA028595859585950E94CE0DBFCB80916E
:10305000AC02E822E092AC02D7CF312F3F70832E32
:10306000107F103219F0829480EF8822BB2041F04B
:1030700061E0B61631F1FF2079F1EE2041F1AACFDF
:10308000FF2091F09091AE02882D892BE11003C0B2
:103090000E941D07BBCF71E0E712FACF891709F430
:1030A000B5CF8093AE02B2CFE11006C00E94F20508
:1030B000882D0E941207AACF81E0E81609F4A6CF56
:1030C000F5CFFF2031F091E09E1508F49FCF882DB9
:1030D000DFCFE1109BCFECCFEE2051F3093349F461
:1030E000EFEFF7EE23E0E150F0402040E1F700C0C1
:1030F0000000802F0E942D1289CF812F8695869502
:10310000837061F0813009F081CFC8019370F110B4
:1031100002C090E080E00E94270778CFC80193703A
:10312000F11002C090E080E00E943D076FCFFF20C9
:1031300009F1053F99F0063FB9F0043F49F4809149
:103140003302909134028160909334028093330271
:10315000802F0E9460050E94910D58CF809133020C
:10316000909134028260F0CF8091330290913402CA
:103170008460EACF053F89F0063FA9F0043F49F497
:1031800080913302909134028E7F90933402809329
:103190003302802F0E94BB04DECF809133029091D6
:1031A00034028D7FF2CF80913302909134028B7F75
:1031B000ECCF812F837009F066C0F11027CF802FEC
:1031C000829586958770880F880F602F6F70462EC6
:1031D000512C712C612C082E04C0440C551C661C0B
:1031E000771C0A94D2F740E050E0BA0104FF0FC008
:1031F0004FE050E060E070E004C0440F551F661FD0
:10320000771F8A95D2F74095509560957095812FDC
:10321000869586958370823019F1D8F40091AF02BB
:103220001091B0022091B1023091B202813069F068
:103230004429552966297729CB01BA0160237123D6
:10324000822393230E942A0EE1CE402A512A622A29
:10325000732ACB01BA016429752986299729F2CFEF
:1032600044295529662977290091AF021091B002AF
:103270002091B1023091B202CB01BA0160277127CF
:1032800082279327DFCF8695FF2011F0812F817051
:10329000882309F4BBCE802F829586958770880F8E
:1032A000880F602F6F70462E512C712C612C082EC8
:1032B00004C0440C551C661C771C0A94D2F740E0ED
:1032C00050E0BA0104FF0FC04FE050E060E070E052
:1032D00004C0440F551F661F771F8A95D2F740958B
:1032E000509560957095812F869586958370823074
:1032F00019F1D8F40091A6021091A7022091A8021A
:103300003091A902813069F044295529662977292D
:10331000CB01BA0160237123822393230E94C20D43
:1033200075CE402A512A622A732ACB01BA01642938
:10333000752986299729F2CF4429552966297729A5
:103340000091A6021091A7022091A8023091A90233
:10335000CB01BA016027712782279327DFCF1F7027
:10336000FF2029F0812F0E94090E802F91CE802FFF
:103370000E941207812F0E94CE0D48CE802F32EF7F
:10338000B31609F44EC03B1578F060EFB61619F18C
:1033900071EFB71609F43DC0FF2009F465C0E110D4
:1033A00019CE812F8F713AC093EFB91609F43EC040
:1033B000E4EFBE12F1CFFF2009F44BC01F71812F43
:1033C0000E94090E28E0129FC0011124836080939F
:1033D000AA02812F23C0FF20B9F0E11017CE1F7180
:1033E00061E070E080E090E004C0660F771F881F06
:1033F000991F1A95D2F70091A6021091A702209169
:10340000A8023091A902A6CFF1E0FE1508F4FECD86
:10341000E6CF812F8F71FF2009F4ADCF0E94090EF6
:10342000F5CD812F8F71FF20C9F3A5CF60E070E04B
:10343000CB01FF2009F472CF1F7161E070E080E0E2
:1034400090E004C0660F771F881F991F1A95D2F766
:1034500065CF81E00E94F10D31E03E1508F0D6CD38
:1034600082E00E94F10DD2CDEE2059F0893309F0AF
:1034700040CE6FEF77EE83E0615070408040E1F71F
:1034800036CE812F8F7177CF92EFB916D1F19B1580
:1034900000F1E0EFBE1649F1F1EFBF16D1F18091D6
:1034A0003502EE2009F441C0882341F080913602B4
:1034B00091E089278093360210923502802FF11017
:1034C0008ACD0E942D1286E0F60111928A95E9F7C5
:1034D0009DCD24EFB216C1F0B21688F035EFB312CD
:1034E000DECFF11093CD81E007C0FF2009F48ECD2F
:1034F0008091360291E089278093360287CD81E062
:10350000F826F092360282CDF11080CD109236026C
:103510007DCDFF2039F080913502882349F3109248
:10352000350274CDEE2021F371CD882309F46ECDE0
:10353000F1106CCD8091360291E08927809336029C
:10354000EECF85E09E012F5F3F4F7901D9010190B9
:103550000D928A95E1F7F601228189819A812111E4
:103560004CC90E949C06082F50C906311C4589F49D
:10357000809132028111CECC89E20E943D06C5CCF9
:1035800001152CE5120709F4C7CC0E3D1C4509F4C2
:1035900000CDF60100811181882309F4FDCCC8011A
:1035A0000E944509F82E682FC8010E94C506B8017F
:1035B0008F2D0E94A2078C01B82EF601E580E294BF
:1035C0003FE0E322F280F1101092AC028091AA0257
:1035D000877079F0FF2069F080E2800F883048F032
:1035E00082E00E94F10D8091AA028770AA24A39420
:1035F0008111A12C912E92942FE09222FBE0F915DB
:1036000008F404CDE92DF0E0E75AF94D0C94E921D6
:103610001F93CF93DF9380913C02807FC1F4809110
:1036200039028823A1F080916E02C0913D02609121
:1036300037027091380240913A0250913B02D62FE6
:10364000D723DA01A095B09516E0C81304C0DF9126
:10365000CF911F91089590E04115510511F0DF3F82
:1036600031F401968770F1CF2A0F3B1F17C0189FC6
:10367000F001199FF00D1124E25CFD4F2181271309
:10368000F0CF20812613EDCF22812111EACF2381B3
:1036900034812417350740F3241B350B26393105B7
:1036A00000F720913C022F70206120933C0226E01D
:1036B000289FF001299FF00D1124ED5BFD4F8081C3
:1036C0008F708061808387E392E00E94C113DF9155
:1036D000CF911F910C94F306BF92CF92DF92EF929D
:1036E000FF920F931F93CF93DF93CDB7DEB7619710
:1036F0000FB6F894DEBF0FBECDBF8C0185E0F80198
:10370000DE011D9601900D928A95E1F7D8012C916A
:1037100011963C9111971296EC90129780913A0273
:1037200090913B02009709F463C140913702509198
:103730003802642F65236F3F09F45AC11396CD9068
:10374000DC90B0903902BB2009F413C1C816D90629
:10375000C0F1F601E81BF90BCF01FF24F394863981
:10376000910508F0F12C80913C02982F907FFF206A
:1037700009F4C1C091117DC0FE2C531327C0421320
:1037800025C0E11023C08F70806180933C0287E3E5
:1037900092E00E94C11380913C02D80115968C934F
:1037A0008F2D61960FB6F894DEBF0FBECDBFDF91AF
:1037B000CF911F910F91FF90EF90DF90CF90BF902E
:1037C0000895809590958C0D9D1DC7CFCD2829F02B
:1037D000822F83238F3F09F035C180E0B82FB1706D
:1037E000DB2E80FF3CC080916E0240913D0256E08E
:1037F000841315C02D873E878D859E850E9487097D
:10380000292F22952F702230F0F0243018F59F7068
:10381000F1F0F8019581907FD1F4D12C1EC090E099
:10382000589FF001599FF00D1124E25CFD4F61811A
:10383000361306C06081261303C06281E6120FC0F2
:1038400001968770D5CF9F7011F0882331F3805E89
:10385000883018F3C8010E94C113FD2CA1CFEE20BF
:1038600009F49ECF80913C02816080933C02F12C50
:1038700097CF531313C0421311C0E1100FC0D801EA
:1038800015968C93C8010E94C11386E0F801A7E346
:10389000B2E001900D928A95E1F782CF2D873E87A5
:1038A0008D859E850E949109882309F1EE20F9F00B
:1038B00080913C02803270F02091370230913802C2
:1038C00038872F831986DB86CA868C87CE010796B8
:1038D0000E94C11386E0F801A7E3B2E001900D92C7
:1038E0008A95E1F70E94081BFF24F39459CFC80181
:1038F0000E94C113F9CF91110CC087E392E00E949E
:10390000C11386E0E7E3F2E0DF011D928A95E9F753
:1039100047CF531312C0421310C0E1100EC0F8017C
:103920008583C8010E94C113E7E3F2E086E0DF016E
:103930001D928A95E9F7FB2C33CF2D873E878D8525
:103940009E850E949109882391F2EE2081F2809158
:103950003C02803208F4BECF209137023091380209
:103960003A8329831B82DD82CC828E83CE0101962D
:10397000AFCFC816D90640F0C81AD90AB6E9CB1697
:10398000D10448F0F12CBDCF809590958C0D9D1DF4
:1039900086399105B8F7FE2CEE2009F4A8CF531311
:1039A00016C0421314C080913C0280FD6ECF982F48
:1039B000907F09F46ACFF8018583903F09F462CFC4
:1039C000982F907F905F8F70892B85835BCF2D8799
:1039D0003E878D859E850E94910981117BCF8091C4
:1039E0003C02816080933C02C8010E94C113D8CE82
:1039F000EE2009F47CCF2D873E878D859E850E9421
:103A00009109F82E882309F472CF86E0F801A7E324
:103A1000B2E001900D928A95E1F780913702909182
:103A200038020E94870992959F70963041F48091E8
:103A3000360291E0892780933602909335020E94E6
:103A4000081BAECE81E08E25C9CE1F93CF93DF93A6
:103A5000CDB7DEB767970FB6F894DEBF0FBECDBF08
:103A60006D8B7E8B8F8B8E899F89892BE1F0852FC3
:103A700084238F3F09F098C05FEF4FEF14C030915F
:103A80003602332309F44EC0E42FF0E036E0539FB2
:103A9000E00DF11D1124EE0FFF1FE55EFE4F40818A
:103AA0005181822B8C931A8A198A4B8B5C8B85E00F
:103AB000FE017396DE011D9601900D928A95E1F745
:103AC00086E0FE013D96DE01179601900D928A95E3
:103AD000E1F7CE0107960E946C1B811112C086E0AF
:103AE000FE013796DE01119601900D928A95E1F75D
:103AF0008A859B85892B29F08F81988589238F3F23
:103B0000C9F516E080916E0290913D02891320C0A4
:103B100067960FB6F894DEBF0FBECDBFDF91CF9191
:103B20001F91089580958223BDCF96E0929FD0018A
:103B3000939FB00D1124A25CBD4FFE013196019000
:103B40000D929A95E1F780933D020E94F306D9CF3A
:103B5000819FC0011124825C9D4F0E946C1B8823B1
:103B6000B9F280916E0290E0019687709927809358
:103B70006E02C8CF20913D0230E0C90101968770E6
:103B8000992740916E024817190679F60E94340E63
:103B900010923D0210926E0286E0E7E3F2E0DF0150
:103BA0001D928A95E9F7ADCF81E090E0042E01C027
:103BB000880F0A94EAF7A52FB0E0A25EBD4F2C91C2
:103BC0003D8931115CCF322F38235BCF8F929F928A
:103BD000AF92BF92CF92DF92EF92FF920F931F931B
:103BE000CF93DF938091090190910A01892B91F085
:103BF000809116028F5F8093160281110BC00E9484
:103C00009C0C90E090930A0180930901892B11F498
:103C10000E94540B02EC12E07801C0E0912C37E0D6
:103C2000C32ECC0E8C2F0E94480C8C2D0E94480C69
:103C30008C2F0E94130DD7019D917D01D12C8917E6
:103C400029F0FD0131978083DD24D3948C2D0E94CF
:103C5000130DF7019681891709F466C0868381E008
:103C60008D29982A0E94740ACF5FC730C1F60E943E
:103C7000850D6AEF70E00E94C121882ED091150257
:103C8000DD2309F45DC010921502E091B802F091B5
:103C9000B9027F012EE0E20EF11C40E0CBEF2AEFEB
:103CA000C22ED12C51915B3F81F0652F70E0282D01
:103CB000392F8517D8F1261B370B2E313105E4F14A
:103CC0009F0121503109D901CC93EE16FF0651F71F
:103CD00040931502911002C0411134C01092140299
:103CE000A091B802B091B90220911502E5EDF2E081
:103CF00043EE52E090E06191E80139918E01631743
:103D000051F06C916B3FD1F48C93BF0161507109FC
:103D1000EB01388321E011964E175F0761F720937E
:103D200015029093140212C080E09ACFD601A61B10
:103D3000B70B2A0F3B1FC1CF4D2FC7CF91E0EBCF61
:103D40009110CCCF909114029111C8CF892DDF91A1
:103D5000CF911F910F91FF90EF90DF90CF90BF9088
:103D6000AF909F908F900895CDB7DEB72A970FB68A
:103D7000F894DEBF0FBECDBF84B7877F84BF0FB678
:103D8000F894A895809160008861809360001092FB
:103D900060000FBE80E890E00FB6F8948093610059
:103DA000909361000FBE85B7806885BF85B7806836
:103DB00085BF0E9426030E94F1038091E200846087
:103DC0008093E2007894809121038823A1F01091E0
:103DD000E9001F709091EC00892F817090FD80E8C0
:103DE000182B1092E9008091E80083FD0E94490E93
:103DF0001F701093E90082E084BD93E095BD9AEFB7
:103E000097BD80936E000E949C0C90E090930A01F5
:103E1000809309010E94740A0E94830AA2ECB2E016
:103E2000E5EDF2E011921D9222E0E33EF207D1F7B8
:103E30008EE090E00E946E228093B8029093B902C7
:103E4000FC010E962BEF2193E817F907E1F790E0BC
:103E500080E00E9434228F3E9E4F11F00E94D40BCE
:103E60008CE090E00E94262290E0B0E0A0E08093F9
:103E7000BA029093BB02A093BC02B093BD0289EA40
:103E80008093800089E08093810024982C983F984B
:103E90008AB18F7C8AB96E98479A8BB180638BB94F
:103EA000769A8FE090E00E942E226093BE0270937B
:103EB000BF028093C0029093C10267708FEF689F2A
:103EC000B00111247595679575956795772770935F
:103ED00089006093880070938B0060938A007093D0
:103EE0008D0060938C000E94540B90E080E00E9453
:103EF00034228F3E9E4F11F00E94D40B82E090E05E
:103F00000E9426228093ED020E948A0A9093D10299
:103F10008093D00283E090E00E942622682F70E018
:103F200090E080E00E942A0E8BE091E09093D30213
:103F30008093D202DD24D394CC24CA9480E1B82E9D
:103F400092E1A92E28E1E22EF12C30E4932E80910B
:103F50002103853009F458C00E94E61DEEEEF2E020
:103F6000A5EDB2E010E000E0302F8D9121912817EF
:103F700009F497C090E0882483942827422F482191
:103F800009F48AC099833A83882191E009F490E08A
:103F90009B830E94850D8160782F9D838C8349814E
:103FA0005A816B818D810E94251DF801E251FD4FE0
:103FB0008081882680828091EA029091EB020E94A3
:103FC000C8059C019091E902992319F02F30310521
:103FD00078F02091E5028090E6020091E7021091CE
:103FE000E802211174C0882D802B812B09F0E5C0D7
:103FF0000E9453079091EC02891709F4A8CF0E9400
:1040000053078093EC02A3CF80912103843009F100
:104010001092D4020FB6F894A895E09260000FBEFB
:104020009092600083B7817F846083BF83B7816093
:1040300083BF7894889583B78E7F83BF0FB6F8943B
:10404000A895809160008861809360001092600064
:104050000FBE80912003882309F479CF0E949C0C25
:1040600090E090930A01809309010E94740A0E94D3
:10407000830AE5EDF2E0119242E0E33EF407D9F75E
:104080000E94E61DE5EDF2E08191811182C082E09F
:10409000E33EF807C9F75BCF9F5F880C963009F0C5
:1040A0006DCF0F5F1F4F0E30110509F05DCFCE822F
:1040B000CF8218860E94850D8160782F9A87898724
:1040C0004E815F8168858A850E94251D74CF9F3F40
:1040D00019F09F5F9093E902121624F40E943C05A8
:1040E0008093E5028091E50287FF05C00E943C05B0
:1040F00081958093E502181424F40E943C05809376
:10410000E6028091E60287FF05C00E943C0581958A
:104110008093E6023091E5023323A1F02091E6027C
:10412000222381F045EB3403C0011124992359F176
:104130009093E50245EB240390011124332331F1E0
:104140003093E602101624F40E943A058093E702A9
:104150008091E70287FF05C00E943A058195809310
:10416000E702111624F40E943A058093E802809138
:10417000E80287FF05C00E943A0581958093E80216
:104180000E94910D35CFD092E502D4CFD092E602B5
:10419000D9CFB9BCA9BC09B400FEFDCF8091D8002D
:1041A0008F7D8093D8008091E00082608093E00052
:1041B0008091E00081FDFCCFCACE9F3F09F089CFFE
:1041C0009ACF1F921FB61F9211248F939F93AF9384
:1041D000BF938091D402811113C08091B30290915A
:1041E000B402A091B502B091B6024196A11DB11DD5
:1041F0008093B3029093B402A093B502B093B60239
:10420000BF91AF919F918F911F901FBE1F901895E6
:104210001092B9008CE08093B8000895EF92FF925D
:104220000F931F93CF93DF93182FEB011092BC00D5
:1042300084EA8093BC000E94850D7C018091BC00C3
:1042400087FF27C08091B900887F883029F080914E
:10425000B900887F8031D9F51093BB0084E8809342
:10426000BC000E94850D8C018091BC0087FF24C09A
:104270002091B900287F90E080E02831B1F081E002
:1042800090E0203411F490E080E0919581959109BF
:104290000CC0CF3FDC0791F20E94850D8E199F095B
:1042A0008C179D0758F28EEF9FEFDF91CF911F91F2
:1042B0000F91FF90EF900895CF3FDC07A9F20E9485
:1042C000850D801B910B8C179D0770F2ECCF8FEF43
:1042D0009FEFEBCF0F931F93CF93DF93EB0180936F
:1042E000BB0084E88093BC000E94850D8C01809106
:1042F000BC0087FF11C02091B900287F81E090E0C9
:10430000283211F490E080E0919581959109DF9138
:10431000CF911F910F910895CF3FDC0741F30E9489
:10432000850D801B910B8C179D0708F38EEF9FEF77
:10433000EECF0F931F93CF93DF93EC0184E880932C
:10434000BC000E94850D8C018091BC0087FF08C0D5
:104350008091BB0090E0DF91CF911F910F91089564
:10436000CF3FDC0789F30E94850D801B910B8C17D2
:104370009D0750F38EEF9FEFEECF84E98093BC0052
:104380000895AA1BBB1B51E107C0AA1FBB1FA6179C
:10439000B70710F0A61BB70B881F991F5A95A9F7EE
:1043A00080959095BC01CD01089597FB072E16F4DA
:1043B000009407D077FD09D00E94C12107FC05D0E9
:1043C0003EF4909581959F4F0895709561957F4F2C
:1043D0000895EE0FFF1F0590F491E02D09942F92A0
:1043E0003F924F925F926F927F928F929F92AF9285
:1043F000BF92CF92DF92EF92FF920F931F93CF93D2
:10440000DF93CDB7DEB7CA1BDB0B0FB6F894DEBF68
:104410000FBECDBF09942A88398848885F846E848E
:104420007D848C849B84AA84B984C884DF80EE80D8
:10443000FD800C811B81AA81B981CE0FD11D0FB6E1
:10444000F894DEBF0FBECDBFED010895F999FECF00
:1044500092BD81BDF89A992780B50895A6E1B0E094
:1044600044E050E00C946022A8E1B0E042E050E06B
:104470000C946022262FF999FECF92BD81BDF89A47
:10448000019700B4021639F01FBA20BD0FB6F89498
:10449000FA9AF99A0FBE08950396272F0E943B229D
:1044A0000E943A22252F0E943B22242F0C943B226B
:1044B0000196272F0E943B220C943A22DC01CB016B
:1044C000FC01F999FECF06C0F2BDE1BDF89A319624
:1044D00000B40D9241505040B8F708950F931F93C8
:1044E000CF93DF938230910510F482E090E0E09169
:1044F0002D03F0912E0330E020E0B0E0A0E03097F3
:1045000099F42115310509F447C0281B390B2430D3
:104510003105C0F58A819B816115710571F1FB013F
:1045200093838283FE0111C04081518102811381F6
:1045300048175907F8F04817590799F4109761F090
:1045400012960C93129713961C933296CF01DF911B
:10455000CF911F910F91089500932D0310932E0377
:10456000F4CF2115310519F04217530718F49A01B9
:10457000BD01EF01DF01F801C2CF90932E038093BC
:104580002D03D0CFFE01E20FF31F819391932250B0
:10459000310939832883DACF20912B0330912C0302
:1045A000232B41F4209102013091030130932C031D
:1045B00020932B0320910001309101012115310539
:1045C00041F42DB73EB74091040150910501241BE1
:1045D000350B40912B0350912C034217530708F0E1
:1045E000B5CF241B350B2817390708F4AFCFBC0112
:1045F0006E5F7F4F2617370708F4A8CF640F751F2B
:1046000070932C0360932B03FA01819391939ECFB7
:10461000CF93DF930097E9F0FC0132971382128267
:10462000C0912D03D0912E03DE0130E020E02097D1
:10463000A1F420813181820F931F20912B033091AF
:104640002C032817390709F067C0F0932C03E09377
:104650002B03DF91CF910895DA01AE17BF0708F061
:1046600040C012964D915C9113979D0141155105E3
:1046700099F7D9011396FC93EE9312974D915D91A2
:10468000A40FB51FEA17FB0779F480819181029688
:10469000840F951FD90111969C938E9382819381EB
:1046A00013969C938E931297B0E0A0E08A819B8131
:1046B0000097B9F5FE0181919191E80FF91F809162
:1046C0002B0390912C038E179F0719F6109761F515
:1046D00010922E0310922D03D0932C03C0932B0322
:1046E000B8CFB383A28340815181840F951FA8174F
:1046F000B90771F44E5F5F4F8D919C911197480FF0
:10470000591F5183408312968D919C91938382838C
:104710002115310509F0ADCFF0932E03E0932D0361
:1047200098CFDE01EC01C2CF13961C921E92129715
:10473000D3CFAEE0B0E0EFE9F3E20C94FD210D89B8
:104740001E898F89988D26E02C831A83098397FF11
:1047500002C080E090E801979E838D83AE01455EA4
:104760005F4F698D7A8DCE0101960E94C9234D81DC
:104770005E8157FD0AC02F813885421753070CF41C
:104780009A01020F131FF80110822E96E4E00C9498
:104790001922ABE0B0E0EFECF3E20C94EF217C01E6
:1047A0003B018A01FC0117821682838181FFB9C116
:1047B0009AE0292ECE0101965C01F7019381F30165
:1047C00093FD859193FF81913F01882309F446C1B0
:1047D000853239F493FD859193FF81913F018532B4
:1047E00029F4B70190E00E94AA25E7CF912C412C33
:1047F000512CFFE1F51538F08B3209F188F4803245
:1048000001F1833221F157FC3AC020ED280F2A3004
:1048100040F556FE1FC0929C200D1124922E06C01A
:104820008D3291F0803379F7689450F8F30193FD5D
:10483000859193FF81913F018111DBCF20C0689466
:1048400051F8689452F8F2CF689453F8EFCF689417
:1048500054F8ECCF429C200D1124422E689455F858
:10486000E5CF8E3229F456FCF9C0689456F8DECFB5
:104870008C3619F4689457F8D9CF8836B9F2982F46
:104880009F7D95549330C0F08336A1F18337C1F1F9
:10489000833509F05BC0F801C190D1908F01692D7B
:1048A00070E056FC02C06FEF7FEFC6010E949425B6
:1048B0004C01689457F80AC00C5F1F4F2FE32983FF
:1048C00088248394912C6501E89457F853FC04C024
:1048D0004814190409F018F5342C8114910431F5A9
:1048E000332009F46ACFB70180E290E00E94AA2544
:1048F0003A94F6CFF801808189830E5F1F4FE0CF95
:10490000F801C190D1908F01692D70E056FC02C072
:104910006FEF7FEFC6010E949F254C01D5CFB701F5
:1049200080E290E00E94AA254A94D2CFF60157FC7B
:10493000859157FE81916F01B70190E00E94AA25F1
:1049400031103A94F1E08F1A9108C7CF843619F0EC
:10495000893609F074C0F80157FE6AC061917191FF
:10496000819191918F01252D2F76D22E97FF09C02D
:1049700090958095709561957F4F8F4F9F4F68946C
:10498000D7F82AE030E0A5010E94DA25C82ECA181F
:104990008C2C5D2CD6FE0CC0E89450F8C91440F461
:1049A000D4FE05C0D2FC03C0FD2DFE7E5F2E892CF7
:1049B00054FE8FC0FE01EC0DF11D8081803309F0A3
:1049C00081C0252D297E522E852D8870382E53FCCE
:1049D0008FC050FE89C09C2C841418F44C0C942C6D
:1049E000981854FE8BC0B70180E390E00E94AA257E
:1049F00052FE09C088E790E051FE02C088E590E0D1
:104A0000B7010E94AA25C91408F484C0CA94D12C05
:104A10009FEFC91AD90ACA0CDB1CF60182916F01FB
:104A2000B70190E00E94AA25AC14BD04B1F758CF9D
:104A300061917191072E000C880B990B93CFD52CA7
:104A4000E894D4F82AE030E0853739F1952D997F44
:104A5000D92E8F3601F148F48835A9F0F701868107
:104A600097812B96E2E10C940B22803749F088372E
:104A7000A9F7D4FE02C06894D2F820E130E00DC05E
:104A80006894D4F8F6CF54FE03C0E92FE660DE2E1A
:104A900020E132E002C028E030E0F801D7FE0DC08E
:104AA00061917191819191918F01A5010E94DA2507
:104AB000C82ECA18E894D7F86BCF6191719190E035
:104AC00080E0F2CF52FC02C083947ECF8394839423
:104AD0007BCF852D867809F477CFF6CFB70180E2BA
:104AE00090E00E94AA2583948414C0F3312C79CFDE
:104AF000342C3818841408F474CFF8CF852D8678B8
:104B000009F481CF8BE251FE80E257FC8DE2B701C0
:104B100090E077CFB70180E390E00E94AA259A94B5
:104B200072CF8FEF9FEF9DCFFC01059061507040D9
:104B30000110D8F7809590958E0F9F1F0895FC0166
:104B40006150704001900110D8F7809590958E0FBC
:104B50009F1F08950F931F93CF93DF93182F092F53
:104B6000EB018B8181FD09C01FEF0FEF812F902F8B
:104B7000DF91CF911F910F91089582FF14C02E8174
:104B80003F818C819D81281739073CF4E881F981A8
:104B9000CF0101969983888310838E819F8101962E
:104BA0009F838E83E3CFE885F985812F0995892B33
:104BB000A1F3DACFFA01AA27283051F1203181F18F
:104BC000E8946F936E7F6E5F7F4F8F4F9F4FAF4F15
:104BD000B1E03ED0B4E03CD0670F781F891F9A1F28
:104BE000A11D680F791F8A1F911DA11D6A0F711DDC
:104BF000811D911DA11D20D009F468943F912AE0E8
:104C0000269F11243019305D3193DEF6CF010895CF
:104C1000462F4770405D4193B3E00FD0C9F7F6CF00
:104C2000462F4F70405D4A3318F0495D31FD4052C8
:104C3000419302D0A9F7EACFB4E0A695979587955E
:104C400077956795BA95C9F700976105710508953D
:104C50009B01AC010A2E06945795479537952795E9
:104C6000BA95C9F7620F731F841F951FA01D089581
:104C7000F894FFCFA009A009A909A909AB09A909BE
:104C8000A909A909A009A009B009A909A909B00998
:104C90005B0A670A6C0A650A6A0A710A6F0A2C0FB6
:104CA000540FF610540FF610870FA80FF610B1101E
:104CB000BE10D117D1172D182D187D189718441A2A
:0A4CC0000618D918AF19BE19BE1965
:104CCA0000002F03200001AF002000B8040E0BE300
:104CDA000ADD0ACB0A010A25640A00000D010D0249
:104CEA000D030D040D050D000C010C020C030C0440
:104CFA000C050C000B010B020B030B040B050B003C
:104D0A000A010A020A030A040A050A000901090239
:104D1A00090309040905090008010802080308042F
:104D2A00080508000701070207030704070507002B
:104D3A000601060206030604060506000501050229
:104D4A00050305040505050004010402040304041F
:104D5A00040504000301030203030304030503001B
:104D6A000201020202030204020502000101010219
:104D7A00010301040105010000010002000300040F
:104D8A00000500818283E200E900EA00B500B6006E
:104D9A00B700CD008301CC008A019201940121025F
:104DAA00230224022502260227022A02B300B400A3
:044DBA006F00700016
:00000001FF
