:100000000C947C030C946D100C94C3030C94C303E8
:100010000C94C3030C94C3030C94C3030C94C30348
:100020000C94C3030C94C3030C942E280C94012944
:100030000C94981F0C94C3030C94C3030C94C30337
:100040000C94C3030C94C3030C94C3030C94C30318
:100050000C94C3030C94F91F0C94C3030C94C303B6
:100060000C94C3030C94C3030C94C3030C94C303F8
:100070000C94C3030C94C3030C94C3030C94C303E8
:100080000C94C3030C94C3030C94C3030C94C303D8
:100090000C94C3030C94C3030C94C3030C94C303C8
:1000A0000C94C3030C94C3030C94C30329001E00D7
:1000B0001F002000210022002B0014001A0008005D
:1000C000150017002A0004001600070009000A00A6
:1000D000D75C1D001B000600190005000000000091
:1000E00000000057E30001512E00270026002500E4
:1000F000240023002D00130012000C0018001C0027
:10010000280034000F000E000D000B00D85C3800F2
:1001100037003600100011000000000000000253FC
:1001200002512C0029001E081F082008210822085F
:100130002B0114081A082900150817082A0802516B
:100140001608060819081B087300040807083A0077
:100150001D081C080000000000000404E30001006A
:100160006F0027012601330231023300700035028F
:100170004F08520050081C01000035004F0051008C
:1001800050004C00720031000A080A0A09082A00CF
:100190000000000000000000E7002C0004091E0C15
:1001A0001F0C3C003D003E007100000000000000FC
:1001B000150A3B000000010000002F0030002B005A
:1001C000D75C1A5C00002F0230021801000000000A
:1001D000000000002C04E3006900430042004100DD
:1001E00040003F006A0044004F0A5202500A0E0AC3
:1001F0006B0045004F02510250026D006C00680018
:100200004F06500604096E000000000000000100C7
:1002100001002C00000000000000000000000000B1
:100220000000000000000000000000002A0A00009A
:1002300000000000000000000000000000000000BE
:1002400000000000000000000000010000000000AD
:10025000000000000000000000000000000000009E
:100260003008F0002F08000000000000F300F1004B
:10027000F20000000000000000000000000000008C
:100280000000000000000000F500F4000000000085
:10029000000000000000000000000000000000005E
:1002A000000000000000000000000000000000004E
:1002B000000000000000000000000000000000003E
:1002C00000000057000000000000000000000000D7
:1002D0000000000025022E0026002500240000005A
:1002E000380034002300220021000000000000003C
:1002F00020001F001E0000000000000000000000A1
:100300002700000044454255473A20646973616202
:100310006C65642E0A0044454255473A20656E617B
:10032000626C65642E0A0000000000000000002AD4
:100330002B2800000000000000000000000000006A
:10034000000029000000002C1E3420212224342625
:1003500027252E362D3738271E1F2021222324251E
:10036000263333362E37381F0405060708090A0BD3
:100370000C0D0E0F101112131415161718191A1B45
:100380001C1D2F3130232D350405060708090A0BE3
:100390000C0D0E0F101112131415161718191A1B25
:1003A0001C1D2F3130354C00000000000000000003
:1003B000000000000000000000000000000000003D
:1003C000000000000000000000000000000000002D
:1003D000000000000000000000000000000000001D
:1003E000000000000000000000000000000000000D
:1003F00000000000000000000000000000000000FD
:1004000000000000000000000000000000000000EC
:1004100000000000000000000000000000000000DC
:1004200000000000000000000000000000000000CC
:1004300000000000000000000000000000000000BC
:1004400000000000000000000101010101010001A5
:100450000101010000000000000000000000000099
:10046000000100010001010101010101010101017F
:10047000010101010101010101010101010101016C
:100480000101000000010100000000000000000068
:10049000000000000000000000000000000000005C
:1004A000000001010101000A0025303862003A20F5
:1004B0000025303258000A722F6320303132333435
:1004C0003536370A000A002530325820006B65792E
:1004D000626F6172645F7265706F72743A20000AB5
:1004E0000025303258006B6579626F6172645F730A
:1004F00065745F6C65643A2000290A002575002F39
:10050000002575005D28002564002000256400207A
:100510000025640020002564007C0025303258004E
:100520006D6F7573656B6579205B62746E7C782086
:1005300079207620685D287265702F61636C293A96
:10054000205B005B735D004B6579626F61726420B4
:1005500073746172742E0A005B575D005B535D001B
:100560005B525D005B445D005B435D000403300053
:1005700000001C03490072006900730020004B005A
:100580006500790062006F00610072006400000085
:100590000E034B0065006500620069006F000000FB
:1005A0000403090409025B00030100A0FA09040026
:1005B000000103010100092111010001224000078F
:1005C00005810308000A0904010001030000000975
:1005D00021110100012285000705820320000A097C
:1005E000040200020300000009211101000122227F
:1005F0000007058303200001070503032000011203
:100600000110010000000810CB5612000201020385
:10061000010631FF0974A1010975150026FF009537
:1006200020750881020976150026FF0095207508BF
:100630009102C005010902A10185020901A100057D
:1006400009190129051500250195057501810295F6
:1006500001750381010501093009311581257F9557
:10066000027508810609381581257F950175088175
:1006700006050C0A38021581257F9501750881064B
:10068000C0C005010980A10185031A81002A8300E9
:10069000160100260300950175108100C0050C09A4
:1006A00001A10185041A01002A9C02160100269C62
:1006B00002950175108100C005010906A101050719
:1006C00019E029E7150025019508750181029501BA
:1006D000750881010507190029FF150026FF0095FF
:1006E0000675088100050819012905950575019110
:1006F00002950175039101C011241FBECFEFDAE00E
:10070000DEBFCDBF04B603FE27C080915502909195
:100710005602A0915702B09158028730904BA740E3
:10072000B04BD1F41092550210925602109257021B
:100730001092580214BE84B7877F84BF0FB6F89416
:10074000A89580916000886180936000109260009D
:100750000FBEE0E0F8E3099511E0A0E0B1E0E2E9C6
:10076000FCE502C005900D92AE36B107D9F722E044
:10077000AEE6B1E001C01D92A535B207E1F70E94D7
:1007800059250C94112E0C940000FF93EF93E091E7
:100790006E01F0916F01309709F00995EF91FF918B
:1007A0000895FC018591803011F0EFDFFBCF0895B3
:1007B000FF27E0E230E247FF0CC0419597FF09C0F8
:1007C000EDE26095709580959095611D711D811D7C
:1007D000911D27FF02C0219530E350E2AA27660F42
:1007E000771F881F991FAA1FA41710F0A41B6395D9
:1007F0005A95A9F7AA3008F0A95FA05DAF93F395C9
:10080000611571058105910541F7ED3211F4EF9302
:10081000F395F21718F43F93F395FBCF8F91B5DF63
:10082000FA95E1F70895E991F9918591803021F0E9
:10083000853219F0AADFF9CF089520E0E8945591A8
:100840005532C1F3503311F4689455915A3348F43A
:10085000505390F3220F022E220F220F200D250F4E
:10086000F4CF0EF4219589919991533619F35337AA
:1008700029F1533559F1BC0188279927E8945C3652
:1008800021F48991999168945591543639F446EF41
:100890007EF077FF0DC08FEF9FEF0AC055374AE01B
:1008A00039F0583540E121F0523642E009F0089520
:1008B000FF93EF937DDFEF91FF91B7CFFF93EF931E
:1008C000FC0181918030B9F360DFFBCFFF93EF93A0
:1008D00068DFF1CFDF93CF93CDB7DEB72596A3DFE7
:1008E000CF91DF910895809117019091180102979F
:1008F00019F483E00E94B61B1092180110921701A0
:10090000089580910F0281FF06C08BEF611101C035
:100910008CEF0C94091482FF05C08AEA6111F9CFAB
:1009200089EAF7CF83FF0FC083EE662341F00E9470
:10093000AA128DE20E94091483EE0C94B3130E9454
:10094000AA128EE2F7CF89EF6111E3CF8AEFE1CFF0
:10095000FC018081813031F48285882331F082E08E
:1009600090E0089588E090E0089581E090E0089597
:100970000E94A8049093180180931701813091057B
:1009800019F0029761F0089584E00E94451B8823C6
:1009900019F084E00C94B61B84E00C94851B83E072
:1009A000FCCFCF93DF939C01FB019A9581159F416A
:1009B00060F5E901CC27D170D901AA27B270B9013D
:1009C00066277470A9014427587034FF10C080E175
:1009D000CD2B09F480E0AB2B09F08062672B09F086
:1009E0008064452B09F08068DF91CF91099481E004
:1009F000CD2B09F480E0AB2B09F08260672B09F066
:100A00008460452B89F38860EFCFDF91CF91089503
:100A1000CF93DF93EC01805E9109089720F069EE97
:100A200076E1209711F46CE174E1CE010E94D104CB
:100A30008C2FDF91CF910C94AA12CF93DF93EC010E
:100A40000E94B313CE01805E9109089720F060EFF9
:100A500076E1209711F463E274E1CE01DF91CF914A
:100A60000C94D104CF93DF93D82FC92F0E9408058F
:100A70008D2F9C2FDF91CF910C941D0581E008955F
:100A800081E008950C9440051F93CF93DF9300D02D
:100A900000D00F92CDB7DEB749835A836B83209184
:100AA000AE0189819A8121111BC06623A9F00E94A1
:100AB000EE1C182F682F89819A810E94951C6981EC
:100AC0007A81812F0F900F900F900F900F90DF91F0
:100AD000CF911F910C949C060E94C41C182FEFCF3D
:100AE0000E94EE1C69817A81EDCFFC014081518129
:100AF0006281738184810C9444051F93CF93DF93AB
:100B000090E0FC01E95DFC4F1491FC01E95DFB4FB5
:100B1000D49189559C4FFC01C491DD2319F081EEDD
:100B20000E94AA12CC2319F086EE0E94AA12812FED
:100B30000E940914CC2319F086EE0E94B313DD2322
:100B400031F081EEDF91CF911F910C94B313DF91BF
:100B5000CF911F910895EF92FF921F93CF93DF9350
:100B6000EC01162F8881882339F17E019FEFE91A65
:100B7000F90A813041F4C9818C2F0E94AA128C2F6E
:100B80000E94B31305C0823079F489810E94AA12B1
:100B9000E7012196812F815028F3EFE9FFE031979B
:100BA000F1F700C00000F7CF833011F48981E8CF5E
:100BB0000E947D057E01ECCFDF91CF911F91FF90C8
:100BC000EF90089560E00C94AB050E94591E8111CE
:100BD00002C00E94F61E0E94960D0C9451090E94BC
:100BE000580C0E94AF0D0C94540908950C94F5050F
:100BF00081E008950C94F805CF93C82F0E94F60564
:100C00008C2FCF910C94FA0508950E940D170E9425
:100C100004062FEF84E39CE0215080409040E1F7F0
:100C200000C0000087E797E79093010880930008D1
:100C30000C941D200F931F93CF93DF93EC010E9420
:100C400075058C01BE010E94B70BBE01C8010E9450
:100C50004205882349F1BE01C8010E94FE0B88238A
:100C600019F1BE01C8010E94230D8823E9F0BE01DD
:100C7000C8010E94A80E8823B9F0BE01C8010E94D5
:100C8000EC0E882389F08A81882349F101308CE5B4
:100C9000180781F00E3D8CE51807F1F001158CE581
:100CA0001807E9F40E94050680E0DF91CF911F91BB
:100CB0000F91089590912402892F8E7F90FF81607B
:100CC0008093240280FF05C086E193E00E94D10357
:100CD000EBCF84E093E0FACF0E94F61EE5CF063119
:100CE0001C45F9F40E948B1D9A81992381F08A7A20
:100CF00091E009F490E090937001811106C089E2BF
:100D00000E94661D0E94DD1DCFCF85E3F9CF809143
:100D10007001811104C089E20E946D1DF3CF85E34B
:100D2000FBCFCE01DF91CF911F910F910C943E0527
:100D300090E080E008950895972F70E026E0929F5C
:100D4000600D711D1124FB019CE3899FE00DF11DD5
:100D50001124EE0FFF1FE455FF4F859194910895E4
:100D6000FC01EE0FFF1FE955FB4F8591949108950B
:100D7000CF93DF930E949C060E947508EC018115B9
:100D800020E5920708F0A3C0811530E4930708F02E
:100D900012C1803E910508F079C0803C910508F0B1
:100DA000FEC0883A910580F4853A910508F0ECC0C0
:100DB0008130910509F47BC00497813A910508F4CC
:100DC00076C0D0E0C0E073C08F3B9105D1F3883A84
:100DD000910509F445C1893A910509F444C18A3A5B
:100DE000910509F443C18B3A910509F442C18C3A4B
:100DF000910509F441C18B3B910509F440C18C3B3D
:100E0000910509F43FC18D3A910509F43EC1803B3B
:100E1000910509F43DC18E3A910509F43CC18F3A20
:100E2000910509F43BC1813B910509F43AC1823B2C
:100E3000910509F439C1833B910509F438C1843B1C
:100E4000910509F437C1853B910509F436C1863B0C
:100E5000910509F435C1873B910509F434C1883BFC
:100E6000910509F433C1893B910509F432C18D3BE9
:100E7000910509F431C18E3B910509F430C18A3BDB
:100E8000910509F42FC1C0E0D4E411C0811540E2FE
:100E9000940788F48F3F910509F048F4883E910546
:100EA00030F0805F9109D065409708F08ACFCE017D
:100EB000DF91CF910895C11580E3D80708F475C07C
:100EC000CE019927D3FD74C0EC01D06CF0CFC115D1
:100ED00095E5D90760F5C11524E5D20708F09CC057
:100EE000C11533E5D30778F4C11542E5D40708F0FE
:100EF00082C0C11581E5D80708F460C0DC2FCC277B
:100F0000C16FD06AD4CFCE018370992721E030E041
:100F100002C0220F331F8A95E2F7C695C69590E26C
:100F2000C99FE0011124C22BD32BDA68C0CFC115B1
:100F30002AE5D207B0F4C11539E5D30708F07CC023
:100F4000C11546E5D40708F46CC0CE0198558F3F13
:100F5000910511F008F035CFDC2FCC27C06FD06A97
:100F6000A6CFCE0190568115904208F02ACF8D2F42
:100F70008F710E940D0990E0982F882788279F7114
:100F80009C012C2BE90156C0853A910509F462C0F9
:100F9000863A910509F061C0C2E8D0E488CF805C50
:100FA00091090E94B006EC0182CFCE019F70F9CF6B
:100FB000EC01D86C7CCFDF70D06A79CFCE0174E0C1
:100FC000969587957A95E1F783702C2F269526952F
:100FD000237040E2249F90011124382B8C2F8370C2
:100FE000C1E0D0E002C0CC0FDD1F8A95E2F7C22B32
:100FF000D32BDC685CCFCE018370992721E030E0F1
:1010000002C0220F331F8A95E2F7C695C69580E28B
:10101000C89FE0011124EBCFDC2FCC27C46FD06A2E
:1010200046CF8C2F0E940D09C82FD0E0DC2FCC2793
:10103000CC27DF71D0623BCF8C2F8F700E940D09BF
:1010400034E0D695C7953A95E1F7CF70DC2FC82FDD
:10105000D0692DCFC1E8D0E42ACFC3E8D0E427CFB0
:10106000C2EED4E424CFC9EED4E421CFCAEED4E456
:101070001ECFC5EBD4E41BCFC6EBD4E418CFC3EB33
:10108000D4E415CFC4EBD4E412CFC7EBD4E40FCF34
:10109000CCECD4E40CCFCDECD4E409CFC3E8D5E458
:1010A00006CFCAE8D5E403CFC2E9D5E400CFC4E94E
:1010B000D5E4FDCEC1E2D6E4FACEC3E2D6E4F7CE63
:1010C000C4E2D6E4F4CEC5E2D6E4F1CEC6E2D6E47C
:1010D000EECEC7E2D6E4EBCECFE6D4E4E8CEC0E76E
:1010E000D4E4E5CECAE2D6E4E2CE803E910599F1A1
:1010F000C8F48133910509F476C048F4893291052A
:1011000009F46AC08A32910509F474C008958933DC
:101110009105D1F082389105B9F08533910509F434
:1011200054C00895843E910599F138F4823E9105AA
:10113000F9F0833E910509F10895863E910599F1F4
:10114000873E9105B9F10895209146022370A1F0E0
:1011500080EE90E008952091460220FD52C030912B
:10116000470230FF09C024FF4FC090E080E004C078
:101170002091460222FDF7CF08952091460222FDDC
:1011800046C03091470230FDE3CF24FFF5CFEDCFCD
:101190002091470221FFF0CF8091460284FDE5CFE8
:1011A00087EE90E008952091460223FFE5CF24FDCD
:1011B000DCCFF6CF2091460223FD2CC030914702B0
:1011C00031FFE3CF84EE90E008952091460225FFA1
:1011D000D3CF89E290E008952091460225FFCCCF3D
:1011E00085E390E008952091460226FFC5CF8AE26C
:1011F00090E008952091460226FFBECF81E390E063
:10120000089589E390E0089583EE90E0089582EEDA
:1012100090E0089586EE90E008959091460292FF46
:1012200006C0282F28712830F9F4877F846093FF47
:1012300006C0282F28712831F1F4877E846120911F
:10124000470220FF06C0382F38713830D9F4877F25
:10125000816021FF06C0282F28712831D1F4877EB4
:10126000816194FD877E0895282F24712430F9F63A
:101270008B7F8860DCCF282F2471243101F78B7E8F
:101280008861DDCF382F3171313019F78E7F88605A
:10129000E0CF282F2171213121F78E7E8861E1CFA7
:1012A00008950C94500908950C9453090895E82F5B
:1012B000F0E0E958FE4F80810895CF92DF92EF92DF
:1012C000FF920F931F93CF93DF9386EB94E00E94DE
:1012D000D10387E7E82E81E0F82ED0E0C0E091EB63
:1012E000C92E94E0D92E09EA14E0DF93CF93DF9260
:1012F000CF920E946A048EEA94E00E94D103F70123
:1013000081917F010E94451E1F928F931F930F931F
:101310000E946A0487EA94E00E94D10321968DB767
:101320009EB708960FB6F8949EBF0FBE8DBFCA3009
:10133000D105D9F6DF91CF911F910F91FF90EF90DA
:10134000DF90CF900895CF93DF930E94110B80918F
:1013500019018091190195E0811190E090933F026D
:1013600085E0891B80933E02AFE3B1E061E070E06D
:101370008D91E82FE295EF70F0E041A18F709B0115
:1013800001C0220F8A95EAF7922F9095942391A39A
:1013900082A1822B82A381E0A434B80749F7A9E394
:1013A000B1E04FE351E0C1E0D0E08D91E82FE2954C
:1013B000EF70F0E061A18F709E0101C0220F8A954D
:1013C000EAF7922F9095962391A382A1822B82A374
:1013D0004A175B0751F7E7E7F1E081E891E01192E6
:1013E0008E179F07E1F785E00E94BA0ADF91CF913F
:1013F0000C94E5056F927F928F929F92AF92BF926D
:10140000CF92DF92EF92FF920F931F93CF93DF93D0
:1014100022E731E04FE3E42E41E0F42E712CCC249E
:10142000C394D12CE90179919E01DE011E92F7014E
:1014300081917F01E82FE295EF70F0E091A18F702C
:10144000860101C0000F8A95EAF7892F802B81A3BE
:1014500082A1602E6094862182A380EA8A95F1F7AA
:1014600099E3A92E91E0B92E50E040E0E5016991A1
:101470005E01862E82948FE08822912CE40188A15F
:1014800090E06F7002C0959587956A95E2F7812C80
:1014900080FD06C04601042E01C0880C0A94EAF7BC
:1014A0008C91882A8C924F5F5F4F46305105F1F640
:1014B00081A1862181A382A1082B02A381E09C91B6
:1014C000971301C080E0782AD1E027373D0709F063
:1014D000A9CF60913F0270E069587E4F272D45E00B
:1014E00082E791E00E94BB0A872DDF91CF911F9187
:1014F0000F91FF90EF90DF90CF90BF90AF909F90B3
:101500008F907F906F900895CF930E94FA09C82F13
:101510000E94F10A882311F180913E0290E08958DF
:101520009E4F0E94280B811116C0909171019F5F00
:1015300090937101963050F0E0913E02F0E0E9584E
:10154000FE4F108211821282138214820E94EF05D4
:101550008C2FCF91089510927101F8CF80913F02A6
:1015600090E089589E4F0E94470B0E94AF0D0E9449
:101570005609EECF0895FF920F931F93CF93DF93F9
:10158000F82E092F162FD72FC42F222349F081E0E0
:10159000809383010E94C81F9093820180938101F0
:1015A000809183018823A1F0809181019091820133
:1015B0000E94D41F069760F0EF2DF02FA12FBD2FB2
:1015C000CE0FDF2FD11DEC17FD0741F410928301E0
:1015D000DF91CF911F910F91FF90089581918D938D
:1015E000F2CF80918401811110C08091D800806178
:1015F0008093D8008AE18A95F1F700C09091D900D4
:10160000917082E0891B8093840181E09091840134
:10161000913009F080E008950E94F10A91E0892755
:1016200008950E940C0B809319010E94F10A811108
:101630000C941C0B0C94220B61E070E08AE191E0A9
:101640000C941E1061E070E08AE191E00C9425108A
:10165000CF93DF93D82FC92F0E94BF109C0180E049
:101660002115310589F4ED2FFC2FD901AA57BE4F62
:101670008C9181932F5F3F4F25303105B1F78BE877
:1016800091E00E94080E81E0DF91CF910895FC0166
:1016900090E080E02191DC01AA57BE4F2C93019687
:1016A00085309105B9F78BE891E00C94FF0DCF934D
:1016B000DF93EC0181E0898B8F810E948E1D8885EC
:1016C0000E94A21D0E94DD1DEA81FB81309739F046
:1016D0006C897D89CE010696DF91CF910994DF91C7
:1016E000CF910895EF92FF920F931F93CF93DF93C3
:1016F000EC018A85811134C0EB80FC8087E5F81A03
:1017000026E12E9DC0012F9D900D1124DC01A050DB
:10171000BF4F1496ED91FC911597309731F0549688
:101720006D917C918A5F9E4F099586E18E9D800127
:101730008F9D100D112400501F4FF80187810E94CA
:10174000941DF80180850E94A81D0E94DD1D18824D
:1017500019861B861E821D8210928D0110928C01AB
:10176000DF91CF911F910F91FF90EF900895DF923D
:10177000EF92FF920F931F93CF93DF938C01FB01A6
:101780008281882391F0809122018F3F71F0C0E027
:10179000D1E0F12CE12CDD24D39480912201082E9C
:1017A000000C990B8E159F0544F4DF91CF911F918A
:1017B0000F91FF90EF90DF9008958E818823C9F0FC
:1017C00089859A858017910739F480918C019091D1
:1017D0008D018017910769F0DF861C870B87898947
:1017E000811103C0CE010E94570BCE0106960E94C4
:1017F000720BFFEFEF1AFF0A6696CFCFEF92FF92C0
:101800000F931F93CF93DF938C01FB0197558F3F6D
:10181000910509F0D0F520912201022E000C330B26
:101820002817390714F480932201228136E1389F6A
:101830007001399FF00C1124E701C050DF4F288B55
:1018400092818E81992349F11A8709878F5F8E8350
:101850000E94C81F9E878D870E94C41D8F830E948F
:101860008B1D88870E949F1D9885982B9887E881FB
:10187000F981309731F06C897D89C7018A5F9E4F6D
:10188000099510938D0100938C0181E0DF91CF9138
:101890001F910F91FF90EF9008958823B1F38989EC
:1018A000882399F3C7018A5F9E4F0E94720BEDCF88
:1018B000EF92FF920F931F93CF93DF9380912201BA
:1018C00010E006E18F3FC1F5DF91CF911F910F919D
:1018D000FF90EF900895029FF001039FF00D1124F7
:1018E000E050FF4FE288F388E114F10419F488EC2A
:1018F000E82EF12C029FE001039FD00D1124C0506F
:10190000DF4F8E818823B9F08D859E850E94D41F7C
:10191000E816F90680F4109F70011124898981115D
:1019200005C0C70180509F4F0E94570BC7018A5FB7
:101930009E4F0E94720B1F5F212F30E08091220189
:10194000082E000C990B821793072CF6BDCF0F932E
:101950001F93CF93DF93CDB7DEB728970FB6F894D8
:10196000DEBF0FBECDBF809124018F9380912301F4
:101970008F9389E491E09F938F931F9288E08F93D8
:101980008E010F5F1F4F1F930F930E94EC2AC80117
:101990000E94E2050FB6F894DEBF0FBECDBF2896B9
:1019A0000FB6F894DEBF0FBECDBFDF91CF911F9170
:1019B0000F910895CF93DF93D82FC92F0E94C81F8E
:1019C0009093910180939001D0938E01C0938F01E9
:1019D000DF91CF91089580918E0190918F01892B95
:1019E000E1F080919001909191010E94D41F20918B
:1019F0002301309124012817390780F480918E014A
:101A000090918F0192600E94320510929101109284
:101A1000900110928F0110928E01089580918E0195
:101A20000E940914F2CF109225010C94EB0C8091C6
:101A30002501882321F0109225010C94EB0C81E004
:101A40008093250108951F93CF93DF93EC01FB0151
:101A50001281112309F464C089319C4509F456C0F0
:101A6000CA318CE5D807B0F5C731ECE5DE0709F4DB
:101A70003FC080912301909124010597C831FCE576
:101A8000DF07D9F1C933D10508F5CD32D10530F4DE
:101A9000C832D105A8F4C430D105A8F00E94EB0CDF
:101AA00080912501882369F10E948B1D811129C035
:101AB000CE010E94DA0C82E00E94281E10E021C0B4
:101AC000CB32D10559F30E94EB0C1BC0C436D105B3
:101AD00029F3F9CFCB318CE5D807D9F0CC31ECE53F
:101AE000DE07D9F0CA31DC4571F70E94170D09C035
:101AF0008091230190912401059690932401809375
:101B00002301812FDF91CF911F9108950E94A70C8F
:101B1000F8CF81E080932501F4CF0E94130DF1CF1F
:101B20000E94EB0C11E0EDCF0C94810484988C9A08
:101B300085988D9A8FB1829581707D990EC090E0C5
:101B4000892B809397019091190181E098279093B8
:101B50009301891B80939201089592E0F1CFCF9376
:101B6000E0919701EE0FEE0FE09397014FB144FB28
:101B7000882780F94FB145FB222720F945FF02C095
:101B800022E030E0822BE82BE0939701C091930193
:101B9000EF70F0E0E25BFE4F808190919601890F3B
:101BA0008093960184306CF0EC2F0C2E000CFF0B10
:101BB000EC56FE4F80818F5F808361E08C2F0E9406
:101BC000940D809196018D3F6CF4EC2F0C2E000C3F
:101BD000FF0BEC56FE4F80818150808360E08C2F9C
:101BE0000E94940D90919601892F837897FF03C0EE
:101BF00081508C6F8F5F80939601CF910895E09113
:101C00009301F0E0EC56FE4F2081FC012083089503
:101C1000FF920F931F93CF93DF93D09192010D2FDB
:101C200010E00C561E4FFC01C081F8018081C81BDA
:101C3000FC2E1F1464F08C2FC7FD80E0C81BC1115F
:101C400010C0DF91CF911F910F91FF900895FA94EA
:101C5000F80180818F5F808361E08D2F0E94940D59
:101C6000E8CFCF5FF80180818150808360E08D2FC5
:101C70000E94940DE4CF0F931F93CF93DF93C62F51
:101C8000D42F022FFC0182818823C9F060939A012E
:101C90000E94C81F909399018093980180E28C0F55
:101CA000883008F050C0C77081E001C0880FCA9525
:101CB000EAF7DF91CF911F910F910C941C141091B2
:101CC0009A01161335C080919801909199010E9454
:101CD000D41F883C910560F5C0E2CD0F1D17B9F007
:101CE00080E2810F883040F4177081E001C0880FD6
:101CF0001A95EAF70E942314C83048F481E09D2F1A
:101D0000977001C0880F9A95EAF70E941C14802FE3
:101D10000E940914C830B8F4D77081E001C0880F60
:101D2000DA95EAF7DF91CF911F910F910C9423146C
:101D300080E28C0F883038F4C77081E001C0880FD2
:101D4000CA95EAF7EFCFDF91CF911F910F910895D8
:101D50009C01CB01233F4CE5340769F190F4283D09
:101D6000FCE53F0721F1293D4CE5340781F1273D92
:101D70003C45B1F0FC018281882361F110929A0107
:101D80000895253FFCE53F07D1F0263F4CE5340799
:101D9000D1F0243F3C4571F727E245EE64EE03C0E5
:101DA00026E241EE61EE0E943B0E80E0089527E2BC
:101DB00045EE65EEF8CF26E241EE60EEF4CF26E286
:101DC00041EE62EEF0CF27E245EE66EEECCF28E280
:101DD00041E0EFCF81E00895CF93DF93EC01FB0169
:101DE0008281882309F4C9C0C631FCE5DF07E0F42D
:101DF000C2309CE5D907F0F00E946C1E9093470218
:101E000080934602C631ECE5DE0720F5C230FCE5E2
:101E1000DF0798F480914602909147020E947A1E53
:101E20000E940D1780E006C09E012A5F3C452930C4
:101E3000310510F3DF91CF910895FE01E350FC4589
:101E4000809146028160E331F10588F4ED5EF14D49
:101E50000C94D22ACA5FDC45C930D105D8F6CA5DD8
:101E6000D14DFE010C94D22A80914602826080936B
:101E70004602D0CF809146028460F9CF809146021D
:101E80008860F5CF80914702816080934702C2CF7E
:101E9000809147028260F9CF809146028061E7CF4E
:101EA000809146028062E3CF809146028064DFCF5A
:101EB0000E940D17809146028068D9CF809146021A
:101EC0008C60D5CF809147028360DFCF809146023E
:101ED0008E7FCDCF809146028D7FC9CF8091460203
:101EE0008B7FC5CF80914602877FC1CF809147020B
:101EF0008E7FCBCF809147028D7FC7CF80914602E6
:101F00008F7EB5CF809146028F7DB1CF8091460202
:101F10008F7BADCF0E940D17809146028F77A7CFA0
:101F200080914602837FA3CF809147028C7FADCF03
:101F30008091460282FB992790F921E0922790FB3D
:101F400082F990FB83F993CF80914702982F909567
:101F500091708E7F892B90FB81F997CF0E940D178E
:101F600090914602892F97FB87F9805880CF81E0B6
:101F70000E94F81E4FCF80E0FBCF81E05BCF8EE167
:101F8000489B02C08150E1F7489BFECF08955898C6
:101F900080E28A95F1F7589A0895FC013BE03A9562
:101FA000F1F798E020E080E031E040E14A95F1F778
:101FB000880F489B02C08160232742E04A95F1F7D1
:101FC000000040E14A95F1F7915079F790E19A9538
:101FD000F1F799B132E03A95F1F7000040E14A9506
:101FE000F1F7917092272081920F90830895EF92DC
:101FF000FF920F931F93CF93DF930F92CDB7DEB76E
:1020000019828C017C01E60EF11C0E151F0561F48E
:1020100081E09981911180E00F90DF91CF911F9124
:102020000F91FF90EF9008950E94BF0FCE0101968F
:102030000E94CD0FF80181938F01E7CF90939C010F
:1020400080939B01509A589A089590939C01809395
:102050009B015098589AE89AE9E6F0E080818C7FDD
:10206000808308956150770B91E001C0990F6A95C4
:10207000EAF720E031E0911108C0222391F0589A4C
:1020800080E28A95F1F758980895492F482339F04E
:10209000589A232740E24A95F1F79695ECCF589845
:1020A000F9CF5898EDCFFF920F931F93CF93DF9303
:1020B000EC018C01060F111DC017D10731F4DF911F
:1020C000CF911F910F91FF900895F9900E94C70F33
:1020D00068E08F2D0E943210EFCF1F920F920FB643
:1020E0000F9211242F933F934F935F936F937F939E
:1020F0008F939F93AF93BF93CF93DF93EF93FF9310
:102100005898509AC0919B01D0919C016D81662393
:1021100021F08E819F810E9453100E94C70F80E1A1
:102120008A95F1F758985098589A80E18A95F1F776
:102130006A81662309F18B819C810E94F70FE881F7
:10214000F981882311F088E001C082E080830E9439
:10215000BF0FFF91EF91DF91CF91BF91AF919F9111
:102160008F917F916F915F914F913F912F910F9040
:102170000FBE0F901F901895E881F981E4CFCF939F
:10218000DF93C0919B01D0919C01F894509A58988C
:1021900085E08A95F1F700005098589A80E28A9578
:1021A000F1F7489B0CC0509A589AE881F98181E078
:1021B0008083789481E090E0DF91CF9108956D81E4
:1021C000662381F08E819F810E94F70F81110AC0E2
:1021D000509A589AE881F98182E08083789482E06D
:1021E00090E0EACF0E94BF0F80E28A95F1F75898FD
:1021F000509A80E18A95F1F76A81662321F08B81FC
:102200009C810E9453100E94C70FE881F9811082BF
:10221000789490E080E0D0CF9093A2018093A101C8
:102220000895E091A101F091A201309721F0019071
:10223000F081E02D099480E00895EF92FF920F93D2
:102240001F93CF93DF938C01E091A101F091A20144
:102250003097C1F10280F381E02D0995809124022D
:1022600082FF30C080FF04C08DEC94E00E94D10357
:10227000D0E0C0E087ECE82E84E0F82E80912402C4
:1022800080FF0EC0F801EC0FFD1F80811F928F931D
:10229000FF92EF920E946A040F900F900F900F90A0
:1022A0002196C830D10551F78091240280FF0AC0E1
:1022B00085EC94E0DF91CF911F910F91FF90EF900B
:1022C0000C94D103DF91CF911F910F91FF90EF906C
:1022D0000895DC01E091A101F091A201309739F05D
:1022E00082E08C930480F581E02DCD01099408955E
:1022F00020919F013091A0012817390771F0909328
:10230000A00180939F01E091A101F091A20130977B
:1023100021F00680F781E02D0994089520919D0118
:1023200030919E012817390771F090939E01809398
:102330009D01E091A101F091A201309721F000846C
:10234000F185E02D0994089585B7806885BF85B72C
:10235000806885BF0895089508950C94AB11089581
:102360000C94AF110E94A4110E94AC110C94AD11F9
:102370000E94BF1F0E94A3090E942E200C94B0113E
:10238000CF93C82F8091240282FF1EC080FF1CC003
:1023900086EE94E00E94D1038091240280FF14C055
:1023A0001F92CF9381EE94E09F938F930E946A04D3
:1023B000809124020F900F900F900F9080FF04C027
:1023C0008FED94E00E94D1038C2FCF910C94FC05EB
:1023D000AF92BF92CF92DF92EF92FF920F931F9333
:1023E000CF93DF9300D000D00F92CDB7DEB70E941D
:1023F000840A0E94F10A882309F45DC084EAA82EA9
:1024000081E0B82E10E000E0C02E802F0E94570916
:10241000F82EF501D1905F01D81609F446C08091DD
:10242000240281FD0E945D0980E0EE24E394DF2414
:102430009D2D9E21B1F18983CA82FE2081E009F49D
:1024400080E08B830E94C81F8160782F9D838C83DE
:1024500049815A816B818D810E947C12F801EC5573
:10246000FE4F8081E826E0820E944F220E941111D7
:102470009091A301891781F10E9411118093A3010A
:102480000F900F900F900F900F90DF91CF911F91B1
:102490000F91FF90EF90DF90CF90BF90AF900C9492
:1024A000C0118F5FEE0C863019F60F5F1F4F0A3098
:1024B000110509F0A9CF8FEF89838A831B820E94BF
:1024C000C81F8160782F9D838C8349815A816B81DD
:1024D0008D810E947C12C8CF0F900F900F900F90AB
:1024E0000F90DF91CF911F910F91FF90EF90DF90B0
:1024F000CF90BF90AF900895CF93DF93CDB7DEB765
:102500002B970FB6F894DEBF0FBECDBF4F83588711
:1025100069877A878B871E8285E0FE013796DE0108
:10252000119601900D928A95E1F749815A816B814C
:102530007C818D819E812B960FB6F894DEBF0FBEF5
:10254000CDBFDF91CF910C949019FC0180819181D6
:102550000C94301D882309F405C18238B9F40E9417
:10256000111181FDFFC089E30E94661D0E94DD1DDF
:102570002FEF81EE94E0215080409040E1F700C0C1
:10258000000089E30E946D1D0C94DD1D8338A1F4C9
:102590000E94111180FDE6C083E50E94661D0E9425
:1025A000DD1D2FEF81EE94E0215080409040E1F757
:1025B00000C0000083E5E6CF8438A1F40E94111129
:1025C00082FDD0C087E40E94661D0E94DD1D2FEFB2
:1025D00081EE94E0215080409040E1F700C000007F
:1025E00087E4D0CF9CEF980F913A18F40E94661DB3
:1025F000CBCF90E2980F983050F4877091E001C0F3
:10260000990F8A95EAF7892F0E948E1DBDCF9BE511
:10261000980F933070F4853A31F0863A39F083E8B8
:1026200090E00C94781181E890E0FBCF82E890E094
:10263000F8CF98E5980F973108F08EC0883A09F4E2
:1026400046C0893A09F446C08A3A09F446C08B3A32
:1026500009F446C08C3A09F446C08B3B09F446C0E5
:102660008C3B09F446C08D3A09F446C0803B09F41E
:1026700046C08E3A09F446C08F3A09F446C0813B01
:1026800009F446C0823B09F446C0833B09F446C0C6
:10269000843B09F446C0853B09F446C0863B09F4F7
:1026A00046C0873B09F446C0883B09F446C0893BD5
:1026B00009F446C08D3B09F446C08E3B09F446C080
:1026C0008A3B09F446C090E080E00C948E1182EEC3
:1026D00090E0FBCF89EE90E0F8CF8AEE90E0F5CF66
:1026E00085EB90E0F2CF86EB90E0EFCF83EB90E0CC
:1026F000ECCF84EB90E0E9CF87EB90E0E6CF8CEC79
:1027000090E0E3CF8DEC90E0E0CF83E891E0DDCF87
:102710008AE891E0DACF82E991E0D7CF84E991E0CD
:10272000D4CF81E292E0D1CF83E292E0CECF84E2B7
:1027300092E0CBCF85E292E0C8CF86E292E0C5CFAF
:1027400087E292E0C2CF8FE690E0BFCF80E790E0D3
:10275000BCCF8AE292E0B9CF803F20F00E94DB201C
:102760000C94C2210895882309F452C0823871F470
:102770000E94111181FF4CC089E30E94661D0E94D6
:10278000DD1D89E30E946D1D0C94DD1D833859F415
:102790000E94111180FF3CC083E50E94661D0E94CB
:1027A000DD1D83E5EFCF843859F40E94111182FFBB
:1027B0002FC087E40E94661D0E94DD1D87E4E2CFE2
:1027C0009CEF980F913AF0F290E2980F983050F405
:1027D000877091E001C0990F8A95EAF7892F0E94CE
:1027E000941DD2CF9BE5980F933020F490E080E0C9
:1027F0000C94781198E5980F973120F490E080E0E0
:102800000C948E11803F20F00E9443210C94C22131
:102810000895CF93C82F0E94AA12C93349F42FEF0D
:1028200087EE93E0215080409040E1F700C0000027
:102830008C2FCF910C94B313882321F00E948E1D0E
:102840000C94DD1D0895882321F00E94941D0C94A2
:10285000DD1D0895AF92BF92CF92DF92EF92FF926B
:102860000F931F93CF93DF9300D000D00F92CDB77B
:10287000DEB76C016D837983FC01058102950F70D1
:10288000128111110E94B01D0E94841DE82E882320
:1028900071F01123B1F08D81805E883090F082E07C
:1028A0000E94281E0E94841D91E0E82EE926A9803E
:1028B000A2949FE0A922B12CF501E15DF14D0C94A9
:1028C000D22AE12CF4CF09810F70F981F07F11F049
:1028D0000295007F1123B1F0002361F08D81805EAD
:1028E000883018F02D81211109C0802F0E948E1D83
:1028F0000E94DD1D8D810E94AA1215C0802F0E94AA
:10290000A21DF6CF8D810E94B313002361F08D814B
:10291000805E883018F04D81411133C0802F0E94B5
:10292000941D0E94DD1D58E0A51AB10864E0A616AA
:10293000B10420F40E9411110E94FC05EE2009F45C
:102940000EC20E94801D80FD0AC2F60112820E9402
:102950007A1D0E94851BC6010E94BF160E947A1D27
:102960000F900F900F900F900F90DF91CF911F91CC
:102970000F91FF90EF90DF90CF90BF90AF900C94AD
:10298000B61B802F0E94A81DCCCF59815F70F52EF9
:102990006981607F603219F0F29480EFF8227D81C6
:1029A000772369F0713049F1112391F1002351F13E
:1029B000F601858180FF9ECF8F70858323C0112310
:1029C00081F0011106C00E94C41D8F290E941C14B1
:1029D000AACF0130C1F70E94C41D8F290E94CA1DD1
:1029E000A2CF011106C00E94D31D8F2D0E94231477
:1029F0009ACF013009F497CFF6CF112329F0063092
:102A000008F091CF8F2DE2CF053008F08CCFEDCFBD
:102A1000002359F3FD81F93349F42FEF47EE53E0DA
:102A2000215040405040E1F700C000008D810E94DD
:102A3000B31379CF898186958695837069F081304B
:102A400009F071CF8D8199819370111102C090E0CE
:102A500080E00E948E1167CF8D8199819370111152
:102A600002C090E080E00E9478115DCF112311F147
:102A70006D81653F99F0663FB9F0643F49F48091FC
:102A80004002909141028160909341028093400204
:102A90008D810E94DB200E94C22145CF809140029F
:102AA000909141028260F0CF80914002909141026A
:102AB0008460EACF7D81753F89F0763FA9F0743F4D
:102AC00049F480914002909141028E7F909341029F
:102AD000809340028D810E944321DDCF809140028E
:102AE000909141028D7FF2CF8091400290914102FE
:102AF0008B7FECCF8981837009F059C0111113CFFE
:102B00004D81429546954770440F440F8D818F70DB
:102B100090E0B0E0A0E0042E04C0880F991FAA1F27
:102B2000BB1F0A94D2F7ED8100E010E09801E4FFAA
:102B30000FC00FE010E020E030E004C0000F111FD4
:102B4000221F331F4A95D2F7009510952095309596
:102B5000F981F695F695F370FD83B901A801482B2C
:102B6000592B6A2B7B2B49835A836B837C83F230EE
:102B700081F0F330A9F0F13029F0CB01BA010E94C5
:102B8000E01AD1CE69817A818B819C810E94B81A2A
:102B9000CACE69817A818B819C810E94081BC3CE39
:102BA00069817A818B819C810E94B61ABCCE869500
:102BB000112311F089818170882309F4B4CE4D81ED
:102BC000429546954770440F440F8D818F7090E079
:102BD000B0E0A0E0042E04C0880F991FAA1FBB1FFD
:102BE0000A94D2F75D8100E010E0980154FF0FC015
:102BF0000FE010E020E030E004C0000F111F221FA2
:102C0000331F4A95D2F7009510952095309569812C
:102C10006695669563706D83B901A801482B592BA1
:102C20006A2B7B2B49835A836B837C835D8169810B
:102C30007A818B819C81523051F0533059F0513060
:102C400019F00E94441C6FCE0E941C1C6CCE0E9486
:102C50006C1C69CE0E94341B66CE69816F706983DB
:102C6000112329F0862F0E94851B8D81AFCE8D8187
:102C70000E94231489810E94B61B55CE7D81723F2C
:102C8000A1F160F4703FE1F0713F41F1112309F4CB
:102C900045C001112FCE89818F7124C08D81833F62
:102CA00049F1843F99F7112379F199819F719983B3
:102CB000892F0E94851B63E089810E94131E33CEF9
:102CC000112341F0053008F02ECE89818F710E94CA
:102CD000EB1B29CE063008F026CEF7CF89818F7105
:102CE000112349F20E94851B1ECE89818F71112309
:102CF000C9F3C1CF112329F089818F710E94601B14
:102D000012CE0E94401B0FCE81E00E94281E02308E
:102D100008F409CE82E00E94281E05CE002361F04F
:102D2000ED81E93309F082CEFFEF27EE43E0F15069
:102D300020404040E1F778CE89818F719CCF498156
:102D40004F706D81C6010E9498060E942A1AEBCD31
:102D500049814F706D81C6010E949B06E4CD0F90A2
:102D60000F900F900F900F90DF91CF911F910F91C7
:102D7000FF90EF90DF90CF90BF90AF9008950F93AA
:102D80001F93CF93DF93EC018B819C81892B29F0DA
:102D90008881998189238F3F29F4DF91CF911F91F9
:102DA0000F910895CE010E941A068823B1F368811D
:102DB00079818A810E943C1D8C010E94941C0E9492
:102DC000B51AB801CE01DF91CF911F910F910C94EC
:102DD0002A14882321F00E94A21D0C94DD1D089561
:102DE000882321F00E94A81D0C94DD1D08950E94E7
:102DF000B01D0E94C11D0E94DD1D0E94E6220E949E
:102E0000C22190E080E00E94781190E080E00C9474
:102E10008E110E94741D0C94F7160E949C1D0C9438
:102E20000917282F892F82958F70903C80F48A3063
:102E3000B0F4843020F4823090F480E0089586303D
:102E4000E1F781E0283E88F0213FB9F70EC08C30D1
:102E500011F08F3091F793FB882780F9089581E076
:102E6000203F39F018F4283E40F70895243F29F711
:102E7000FCCF08950E94301D0C941117CF93DF935F
:102E800000D000D00F92CDB7DEB70F900F900F900B
:102E90000F900F90DF91CF910895CF93DF9300D0E3
:102EA00000D000D0CDB7DEB726960FB6F894DEBFBF
:102EB0000FBECDBFDF91CF9108951F93CF93DF93C6
:102EC000E091AF0116E08091B0018E1304C0DF9154
:102ED000CF911F910895CE2FD0E01E9FF0011124B5
:102EE000EF54FE4F408151816281738184819581CD
:102EF0000E944D17FE013196E770E5CF4091E10148
:102F00005091E2016091E3017091E4018091E5014B
:102F10009091E6010C944D171F93CF93DF9380910E
:102F2000E601807FC1F48091E3018823A1F08091C4
:102F3000AF01C091B0016091E1017091E201409157
:102F4000E4015091E501D62FD723DA01A095B09581
:102F500016E0C81304C0DF91CF911F91089590E04F
:102F60004115510511F0DF3F31F401968770F1CF23
:102F70002A0F3B1F17C0189FF001199FF00D112455
:102F8000EF54FE4F21812713F0CF20812613EDCF80
:102F900022812111EACF238134812417350740F3A0
:102FA000241B350B283C310500F72091E6012F70DA
:102FB00020612093E60126E0289FF001299FF00D73
:102FC0001124EA54FE4F80818F708061808381EEEE
:102FD00091E00E94BF16DF91CF911F910C945D1775
:102FE0009F92AF92BF92CF92DF92EF92FF920F9398
:102FF0001F93CF93DF93CDB7DEB72B970FB6F8941F
:10300000DEBF0FBECDBF7C0185E0F701DE01179664
:1030100001900D928A95E1F7D7014C9111965C9140
:10302000119712960C9112978091E4019091E5010D
:10303000009709F456C12091E1013091E201632F1C
:1030400062236F3F09F44DC11396CD90DC909090B0
:10305000E301992009F405C1C816D90608F43EC059
:10306000F601E81BF90BCF0111E0883C910508F04F
:1030700010E081EEA82E81E0B82E8091E601982F15
:10308000907F112309F4C7C0911180C0102F351310
:103090002AC0241328C0011126C08F70806180933C
:1030A000E6010E947E17C5010E94BF168091E601CD
:1030B000D70115968C93812F2B960FB6F894DEBF0F
:1030C0000FBECDBFDF91CF911F910F91FF90EF9079
:1030D000DF90CF90BF90AF909F900895809590958E
:1030E0008C0D9D1DC1CFCD2829F0842F85238F3FC6
:1030F00009F013C180E0B82FB170DB2EE091AF0171
:103100002091B00136E080FD1CC00023A1F2809127
:10311000E60181608093E60110E0CDCF8E2F90E034
:103120003E9FF0011124EF54FE4F6181651306C0EC
:103130006081641303C062816013E7CFFC013196A4
:10314000E770E213EBCF4F8358878F8198850E94F9
:10315000301D292F22952F70903260F0225F2F7042
:10316000223078F49F7051F0F7019581907F31F40F
:10317000D12C0AC09F7011F08823D1F3805E883073
:10318000B8F3C7010E94BF161D2D95CF351315C08A
:10319000241313C0011111C0D70115968C93C701D8
:1031A0000E94BF1686E0F701A1EEB1E001900D92FA
:1031B0008A95E1F70E947E177ECF4F8358878F81D3
:1031C00098850E943A17882311F1002301F180911C
:1031D000E601803270F02091E1013091E2013A8302
:1031E00029831B82DD82CC828E83CE0101960E94D0
:1031F000BF1686E0F701A1EEB1E001900D928A952D
:10320000E1F70E948C170E947E1711E054CFC7018E
:103210000E94BF16FACF911111C07C2DDB86CA86A1
:10322000602F8B850E943E1781EE91E00E94BF16B1
:1032300086E0F50111928A95E9F7BCCF3513BDCF31
:103240002413BBCF0111B9CFD70115968C93C701B9
:103250000E94BF1686E0F50111928A95E9F7192DB3
:103260002ACFC816D906C0F0B601681B790BCB016E
:1032700010E0883C910530F5102F002341F2351302
:1032800010C024130EC086E0F701A1EEB1E001905A
:103290000D928A95E1F70FCF809590958C0D9D1D2D
:1032A000E7CF4F8358878F8198850E943A17811105
:1032B000A0CF8091E60181608093E601C7010E9462
:1032C000BF16F9CE7C2DDB86CA86602F8B850E94C7
:1032D0003E1786E0E1EEF1E0DF011D928A95E9F705
:1032E00069CF002309F493CF4F8358878F81988546
:1032F0000E943A17182F882309F489CF86E0F70136
:10330000A1EEB1E001900D928A95E1F781EE91E096
:103310000E94A5120E948C174DCF81E08027EBCE32
:103320001F93CF93DF93CDB7DEB72C970FB6F894EA
:10333000DEBF0FBECDBF4F83588769877A878B87E3
:103340009C87CE0107960E94F017882369F08A8532
:103350009B85892B39F04F815885842F85238F3F9A
:1033600009F071C016E05FC086E0FE013796DE010D
:10337000119601900D928A95E1F78A859B85892B9C
:1033800089F388859F8189238F3F61F32091B00164
:1033900030E0C9010196877099274091AF01481725
:1033A000190671F40E940D171092B0011092AF012E
:1033B00086E0E1EEF1E0DF011D928A95E9F7D2CFD8
:1033C00096E0929FD001939FB00D1124AF54BE4F51
:1033D000FE01319601900D929A95E1F78093B0012C
:1033E0000E945D17BFCF819FC00111248F549E4F53
:1033F0000E94F0178823E9F0E091AF011E9FF001D1
:103400001124EF54FE4F4081518162817381848188
:1034100095810E944D178091AF0190E001968770D1
:1034200099278093AF018091AF019091B0018913EA
:10343000DACF2C960FB6F894DEBF0FBECDBFDF916A
:10344000CF911F91089569857A858B859C850E940F
:103450004D1788CFEF92FF920F931F93CF93DF9377
:103460008C01892B89F0F12CEE24E394E80121965C
:10347000F8018491843709F457C0A0F4823009F42C
:103480003EC048F48130D1F0DF91CF911F910F9170
:10349000FF90EF9008959CEF980F9037A8F70E9447
:1034A000AA120AC0853709F44CC09CE7980F9037E0
:1034B00058F78F770E94B3138E0116C00E5F1F4F0F
:1034C000FE01849190E2980F983060F48770FE2D91
:1034D00001C0FF0F8A95EAF78F2F0E94B31D0E944B
:1034E000DD1D02C00E94AA128F2D815008F4BECFAC
:1034F000EFE9FFE03197F1F700C00000F6CF0E5F73
:103500001F4FFE01849190E2980F983050F487701D
:10351000FE2D01C0FF0F8A95EAF78F2F0E94B91D7B
:10352000DECF0E94B313E0CF0E5F1F4FFE01C491A8
:10353000C150D0F28FE99FE00197F1F700C0000081
:10354000F7CF0E5F1F4FFE01F490CECF08950C947D
:10355000A61A0E94A71A6093130270931402809314
:103560001502909316020C94F71608950C94A91A5C
:10357000CF93DF9300D000D0CDB7DEB769837A83D5
:103580008B839C838091130290911402A091150269
:10359000B091160229813A814B815C81282B392B0D
:1035A0004A2B5B2B29833A834B835C83CA01B90185
:1035B0000F900F900F900F90DF91CF910C94A91A5C
:1035C000CF93DF9300D000D0CDB7DEB769837A8385
:1035D0008B839C838091130290911402A091150219
:1035E000B091160229813A814B815C8128233923CD
:1035F0004A235B2329833A834B835C83CA01B90145
:103600000F900F900F900F90DF91CF910C94A91A0B
:10361000CF93DF9300D000D0CDB7DEB769837A8334
:103620008B839C838091130290911402A0911502C8
:10363000B091160229813A814B815C812827392774
:103640004A275B2729833A834B835C83CA01B901EC
:103650000F900F900F900F90DF91CF910C94A91ABB
:103660000C94A61A0C94301B0E94321B60930F021C
:103670007093100280931102909312020C94F7162B
:1036800060E070E0CB010C94341B282F80910F0276
:1036900090911002A0911102B09112020097A10521
:1036A000B10529F481E0222351F080E0089504C09F
:1036B000B695A795979587952A95D2F78170089525
:1036C0000F931F93CF93DF9300D000D0CDB7DEB719
:1036D00041E050E060E070E08A019B0104C0000F0F
:1036E000111F221F331F8A95D2F709831A832B8358
:1036F0003C83C901B8010F900F900F900F90DF919C
:10370000CF911F910F910C94341B0F931F93CF9364
:10371000DF9300D000D0CDB7DEB741E050E060E0ED
:1037200070E004C0440F551F661F771F8A95D2F7BB
:1037300080910F0290911002A0911102B09112029B
:103740008A019B01082B192B2A2B3B2B09831A83F7
:103750002B833C83C901B8010F900F900F900F90FD
:10376000DF91CF911F910F910C94341B0F931F93F6
:10377000CF93DF9300D000D0CDB7DEB741E050E06B
:1037800060E070E004C0440F551F661F771F8A95E4
:10379000D2F7409550956095709580910F02909169
:1037A0001002A0911102B09112028A019B0108231C
:1037B00019232A233B2309831A832B833C83C901C2
:1037C000B8010F900F900F900F90DF91CF911F9144
:1037D0000F910C94341B0F931F93CF93DF9300D062
:1037E00000D0CDB7DEB741E050E060E070E004C04B
:1037F000440F551F661F771F8A95D2F780910F02DD
:1038000090911002A0911102B09112028A019B01C5
:10381000082719272A273B2709831A832B833C83F0
:10382000C901B8010F900F900F900F90DF91CF91C9
:103830001F910F910C94341BCF93DF9300D000D0D5
:10384000CDB7DEB769837A838B839C8380910F0227
:1038500090911002A0911102B091120229813A8137
:103860004B815C81282B392B4A2B5B2B29833A8394
:103870004B835C83CA01B9010F900F900F900F909A
:10388000DF91CF910C94341BCF93DF9300D000D005
:10389000CDB7DEB769837A838B839C8380910F02D7
:1038A00090911002A0911102B091120229813A81E7
:1038B0004B815C81282339234A235B2329833A8364
:1038C0004B835C83CA01B9010F900F900F900F904A
:1038D000DF91CF910C94341BCF93DF9300D000D0B5
:1038E000CDB7DEB769837A838B839C8380910F0287
:1038F00090911002A0911102B091120229813A8197
:103900004B815C81282739274A275B2729833A8303
:103910004B835C83CA01B9010F900F900F900F90F9
:10392000DF91CF910C94341B0895292F220FE22FA1
:10393000E90FEE0FE80F8E2F877041E001C0440FB2
:103940008A95EAF7E695E695E69585E0E89FF00129
:103950001124E951FE4F30E020E070E05191DF0189
:103960001197CB01022E02C0969587950A94E2F733
:10397000817081958527842385278C932F5F3F4F06
:103980002530310559F70895292F220FE22FE90F2D
:10399000EE0FE80F9E2F9770E695E695E69585E089
:1039A000E89FF0011124E951FE4F50E040E080E033
:1039B000219130E0092E02C0369527950A94E2F74E
:1039C00021703327042E01C0220F0A94EAF7822BBC
:1039D0004F5F5F4F4530510559F70895BF92CF9221
:1039E000DF92EF92FF920F931F93CF93DF938C019F
:1039F000C0900F02D0901002E0901102F0901202DD
:103A00008091130290911402A0911502B0911602B8
:103A1000C82AD92AEA2AFB2ACFE1D0E0BC2ED70156
:103A2000C6010C2E04C0B695A795979587950A9464
:103A3000D2F780FD0EC0219788F7B12C8B2DDF9136
:103A4000CF911F910F91FF90EF90DF90CF90BF909B
:103A50000895B8018C2F0E94B806019761F3EECF4C
:103A6000CF93DF93D82FC92F0E94EE1C6D2F7C2F90
:103A7000DF91CF910C94B8061F93CF93DF93162F4D
:103A8000D72F9091AE01992339F0862F972FDF9190
:103A9000CF911F910C94301D882391F0862F972F82
:103AA0000E94EE1CC82F682F812F9D2F0E94951C0D
:103AB000612F7D2F8C2FDF91CF911F910C94B80631
:103AC000862F972F0E94C41CC82FF2CF682F809199
:103AD0002601909127010C94381F682F80912601B0
:103AE000909127010C943A1F809126019091270113
:103AF0000C943C1F809117028595859585950895B6
:103B0000809117028770089590911702977081E055
:103B100009F480E008958091230208959091230292
:103B2000982B909323020895982F909580912302CB
:103B3000892380932302089510922302089580918F
:103B40002202089590912202982B909322020895C8
:103B5000982F9095809122028923809322020895C4
:103B600010922202089590912102982B90932102A5
:103B70000895982F909580912102892380932102A6
:103B800008951092210208958091180208950895D1
:103B90000C94C71D90911802981721F08093180279
:103BA0000C94C81D089580911802882329F0109262
:103BB000180280E00C94C81D0895E0912601F09150
:103BC0002701809123028083E0912601F091270153
:103BD000808190912202892B8083E0912601F091CF
:103BE0002701808190912102892B80839091180276
:103BF000992381F0E0912601F09127018081892BA2
:103C0000808380912601909127010E94FD1E8111E1
:103C10000E94D31D80912601909127010C941D11C3
:103C200008950C94101E98E0899F90011124622B36
:103C3000609317020E94851B8091170285958595D8
:103C400085950C94111E1092170280E00C94111EA1
:103C5000909117028095892380931702282F27704F
:103C600071F4282F082E000C330B9217130639F02D
:103C70008595859585950E94B61B0C94231E089505
:103C800090936F0180936E010895829594E0899FCF
:103C9000900111242C7C869586958373282B30E027
:103CA000C901880F991F8A7A359527952575822B2A
:103CB000089590E080E00E94A02D9C0181E02C3EC0
:103CC0003E4F09F080E0089582E090E00C94982D3A
:103CD00083E090E00C94982DCF9384E090E00E94D4
:103CE000982DC82F81E290E00E94982D982F8C2F5C
:103CF000CF910895CF93682FC92F84E090E00E9460
:103D0000A62D6C2F81E290E0CF910C94A62DAB01F3
:103D1000BC018FE090E00C94B82DAB01BC0183E1B5
:103D200090E00C94B82D60E070E0CB010C948D1EF7
:103D300060E070E0CB010E94871E0C94931E6CEE35
:103D40007EEF90E080E00E94C42D60E082E090E091
:103D50000E94A62D60E083E090E00E94A62D1092C4
:103D6000130210921402109215021092160260E0D3
:103D700084E090E00E94A62D60E081E290E00E9445
:103D8000A62D60E085E090E00E94A62D60E086E030
:103D900090E00E94A62D6FEF87E090E00E94A62D94
:103DA00040E050E0BA0188E090E00E94B82D60E069
:103DB0008DE090E00E94A62D40E050E0BA0188E13D
:103DC00090E00E94B82D60E087E190E00E94A62D6F
:103DD00040E050E0BA018CE190E00E94B82D60E034
:103DE00080E290E00E94A62D0C94981E0C949F1ED9
:103DF000682F8EE090E00C94A62DAC019C012E5F04
:103E00003F4F485F5F4F80E02417350709F408955E
:103E1000F90191919F019923B9F38F5FF5CF9C012F
:103E2000FC0132968FEF90E04191461751F08F3FA1
:103E300019F4411101C0892F9F5F9630A9F78F3F78
:103E400009F40895280F311D87FD3A95F901628321
:103E500008959C01FC013296285F3F4F81918613A3
:103E600003C0DF0111971C92E217F307B9F7089519
:103E70000C940F1F0C94291FFC01329686E0DF0181
:103E80001D928A95E9F70895089508950C94451FA9
:103E90000E94461F80914C02843049F11092250205
:103EA00088E190E020E40FB6F894A8958093600034
:103EB0000FBE2093600080E00E94FC050E94461F18
:103EC00083B7817F846083BF83B7816083BF789429
:103ED000889583B78E7F83BF0FB6F894A89580919D
:103EE0006000886180936000109260000FBE0895AA
:103EF0000895CF930E94441F0E94840A0E94781F55
:103F0000C0E08C2F0E945709811105C0CF5FCA30D5
:103F1000C1F7CF91089581E0FCCF08950C948D1FD7
:103F20000E940D170E9411110E94FC050C948E1F17
:103F30001F921FB61F9211248F939F93AF93BF932D
:103F400080912502811113C0809142029091430219
:103F5000A0914402B09145024196A11DB11D8093EC
:103F6000420290934302A0934402B0934502BF9152
:103F7000AF919F918F911F901FBE1F90189582E067
:103F800084BD93E095BD9AEF97BD80936E00089530
:103F90002FB7F8948091420290914302A09144027D
:103FA000B09145022FBF0895CF92DF92EF92FF921A
:103FB0009C014FB7F8948091420290914302A091E6
:103FC0004402B09145024FBF6C017D01EE24FF24F5
:103FD000A90170E060E0C416D506E606F70638F0E1
:103FE000821B930BFF90EF90DF90CF900895019785
:103FF000F7CF78941F921FB61F9211248F939F932F
:10400000AF93BF938091420290914302A0914402EA
:10401000B09145020196A11DB11D8093420290937B
:104020004302A0934402B0934502BF91AF919F9188
:104030008F911F901FBE1F90189587E797E7909369
:1040400001088093000888E19AE00FB6F894A895DB
:10405000809360000FBE90936000FFCFCF93DF93FB
:1040600000D000D0CDB7DEB70E94591E811102C02A
:104070000E94F61E0E94641E809324020E946C1E01
:1040800090934702809346020E94681E282F30E0DA
:1040900050E040E029833A834B835C83CA01B90135
:1040A0000F900F900F900F90DF91CF910C94B61A54
:1040B0008091290280FF12C060912B0185E0689FEA
:1040C000B0011124759567957595679560387105F0
:1040D000A8F561157105A1F1862F089581FF09C02A
:1040E00060912B0185E0689FB0011124759567955B
:1040F000EDCF60912B0182FD0AC0809128028823B8
:10410000D1F090912A0160912B01891728F085E068
:10411000689FB0011124DACF869FB001112485E099
:10412000869F9001879F300D1124692F70E0C9018F
:104130000E94BE2ACBCF65E070E0CECF8FE7089516
:1041400081E008958091290280FF0CC060912901CF
:1041500070E075956795759567956115710549F1DD
:10416000862F089581FF06C06091290170E0759542
:104170006795F3CF6091290182FD0BC090912802D1
:104180009923A1F06091280180912901961738F0B8
:10419000682F70E06038710500F38FE70895899FFC
:1041A000C001112470E00E94BE2AF4CF61E070E0EB
:1041B000D7CF81E00895803F31F40E945820819547
:1041C00080932D020895813F19F40E945820F8CF62
:1041D000823F31F40E945820819580932C020895EB
:1041E000833F19F40E945820F8CF893F29F40E9498
:1041F000A22080932E0208958A3F21F40E94A220DB
:104200008195F7CF8B3F31F40E94A2208195809356
:104210002F0208958C3F19F40E94A220F8CF843F0A
:1042200031F480912B02816080932B020895853FA9
:1042300021F480912B028260F7CF863F21F4809198
:104240002B028460F1CF873F21F480912B0288609C
:10425000EBCF883F21F480912B028061E5CF8D3F29
:1042600031F48091290281608093290208958E3F64
:1042700021F4809129028260F7CF8F3FB9F78091B6
:1042800029028460F1CF90912C02803F41F480910B
:104290002D0287FD10922D02992371F00895813F20
:1042A00029F480912D021816ACF3F6CF823F81F4E9
:1042B00097FFF2CF10922C0280912D0290912E0246
:1042C000892B90912F02892B49F71092280208958B
:1042D000833F19F4191674F3DFCF893F39F48091C5
:1042E0002E021816CCF610922E02D6CF8A3F29F451
:1042F00080912E0287FFD0CFF6CF8B3F39F480918B
:104300002F0287FFC9CF10922F02C6CF8C3F29F40E
:1043100080912F021816BCF3BFCF843F31F48091F7
:104320002B028E7F80932B02B7CF853F21F48091A3
:104330002B028D7FF7CF863F21F480912B028B7F5C
:10434000F1CF873F21F480912B02877FEBCF883F0D
:1043500021F480912B028F7EE5CF8D3F31F4809147
:1043600029028E7F8093290297CF8E3F21F480917E
:1043700029028D7FF7CF8F3F09F08ECF80912902E0
:104380008B7FF0CF8091240283FF7EC080E295E096
:104390000E94D10380912B021F928F938BE195E0B5
:1043A0009F938F930E946A0489E195E00E94D10354
:1043B00080912C02282F082E000C330B3F938F93F3
:1043C00086E195E09F938F930E946A0484E195E0D3
:1043D0000E94D10380912D02282F082E000C330B50
:1043E0003F938F9381E195E09F938F930E946A049E
:1043F0008FE095E00E94D10380912E02282F082E95
:10440000000C330B3F938F938CE095E09F938F9339
:104410000E946A048AE095E00E94D10380912F02F5
:10442000282F082E000C330B3F938F9387E095E0E5
:104430009F938F930E946A0484E095E00E94D103C9
:10444000809128021F928F9381E095E09F938F9334
:104450000E946A048FEF94E00E94D10380912902A8
:104460001F928F938CEF94E09F938F930E946A0426
:1044700089EF94E00E94D1038DB79EB74C960FB69A
:10448000F8949EBF0FBE8DBF8AE292E00E94691130
:104490000E94C81F909327028093260208951F93BD
:1044A000CF93DF9380912602909127020E94D41F20
:1044B000AC018091280220912C0130E0811106C0CE
:1044C00020912D019AE0299F900111244217530752
:1044D00078F020912C02C0912D0210912E02D091E3
:1044E0002F02211109C09C2F912B9D2B09F06AC02E
:1044F000DF91CF911F9108958F3F19F08F5F8093C7
:104500002802121624F40E94582080932C028091D5
:104510002C0287FF05C00E945820819580932C02B1
:104520001C1624F40E94582080932D0280912D02A5
:1045300087FF05C00E945820819580932D023091FD
:104540002C023323A1F020912D02222381F045EB90
:104550003403C0011124992369F190932C0245EB97
:10456000240390011124332349F130932D021116B5
:1045700024F40E94A22080932E0280912E0287FFB5
:1045800005C00E94A220819580932E021D1624F45E
:104590000E94A22080932F0280912F0287FF05C0E6
:1045A0000E94A220819580932F02DF91CF911F91CD
:1045B0000C94C22181E080932C02D1CF81E08093C2
:1045C0002D02D5CF8F3F09F099CFAACF86E0EAE23E
:1045D000F2E0DF011D928A95E9F71092280210920D
:1045E0002902089580913B0208959FB7F894109294
:1045F00032029FBF90914C02943009F048C0209144
:10460000E9002F703091EC00932F917030FD90E80D
:10461000922B23E02093E9002091EB0020FF34C08F
:104620002091EE0027FF30C020913002222321F09C
:104630002091E80025FF28C01092300226E030913A
:10464000E80035FF14C08093F1008091E80085FDFB
:1046500027C08091E80080FFFCCF8091E8008E7732
:104660008093E8009F709093E90080E00895309176
:104670004C02343049F43091EB0035FD05C0215037
:1046800041F481E0809330029F709093E9008FEFB6
:104690000895EFE9FFE03197F1F700C00000CFCFB8
:1046A0008FB7F89421E0209332028FBFDBCF0F93B6
:1046B0001F93CF93DF9300D00F92CDB7DEB78C015D
:1046C0000E940E26823011F0843021F584E0898327
:1046D0000A831B8382E08093E9008FEF9091E800CA
:1046E000815095FD06C095ED9A95F1F70000811176
:1046F000F5CF8091E80085FF0DC050E040E063E019
:1047000070E0CE0101960E942B268091E8008E7702
:104710008093E8000F900F900F90DF91CF911F9141
:104720000F910895CF93DF9300D00F92CDB7DEB7EE
:104730009C0180914C02843031F583E089832058BC
:1047400031093B832A8382E08093E9008FEF9091C7
:10475000E800815095FD06C095ED9A95F1F70000AF
:104760008111F5CF8091E80085FF0DC050E040E059
:1047700063E070E0CE0101960E942B268091E80054
:104780008E778093E8000F900F900F90DF91CF917C
:104790000895CF93DF93D82FC92F0E940E26823021
:1047A00011F0843001F582E08093E9008FEF909161
:1047B000E800815095FD06C095ED9A95F1F700004F
:1047C0008111F5CF8091E80085FF0DC050E040E0F9
:1047D00066E070E08D2F9C2F0E942B268091E800D0
:1047E0008E778093E800DF91CF910895CF93DF9388
:1047F000D82FC92F0E940E26823011F0843049F53F
:1048000081E08093E9008FEF9091E800815095FD61
:1048100006C095ED9A95F1F700008111F5CF8091D2
:10482000E80085FF16C050E040E068E070E08D2FA2
:104830009C2F0E942B268091E8008E778093E800C1
:1048400088E0ED2FFC2FA3E3B2E001900D928A9552
:10485000E1F7DF91CF91089588E695E00E94D103BA
:1048600080914B02811109C00E94B3270E94102839
:104870008091E20084608093E200089584E695E0F0
:104880000E94D10310924B02089580E695E00C94AB
:10489000D1038CE595E00C94D10388E595E00E9466
:1048A000D1030C94901F209131022F5F822F62E37D
:1048B0000E94B22A992319F0209331020895109290
:1048C0003102809132028823F1F080914C028430D1
:1048D000C1F49091E9009F702091EC00822F8170CB
:1048E00020FD80E8892B93E09093E9009091EB0004
:1048F00090FF04C09091EE0097FD08C08F708093E8
:10490000E9001092320208951092F1009091E800AF
:1049100095FDFACF9091E80090FFF0CF9091E800DC
:104920009E779093E800EACF42E061EC81E00E943C
:104930002F2742E261EC82E00E942F2742E261ECE5
:1049400083E00C942F2780914E02893089F148F43E
:10495000823009F49DC0833009F458C0813041F0A1
:1049600008958A3009F484C08B3009F46AC0089530
:1049700080914D02813A09F048C08091E800877F1C
:104980008093E8008091510290915202892B61F44A
:1049900068E083E392E070E00E947A268091E8006C
:1049A0008B778093E800089560E090E080E0F3CF9B
:1049B00080914D02813249F58091510290915202CD
:1049C000029718F58091E800877F8093E800809136
:1049D000E80082FF16C09091F3008091F2000297E8
:1049E00029F48091F1008B7F813021F48091F100D6
:1049F00080933B028091E8008B778093E8000C94D1
:104A0000632780914C028111E2CF089580914D027D
:104A1000813AD9F78091510290915202892BA9F7DE
:104A20008091E800877F8093E8008091E80080FF14
:104A3000FCCF809138018093F1008091E8008E775F
:104A4000DCCF80914D02813201F78091510290912B
:104A50005202892BD1F68091E800877F8093E8008D
:104A60000E94632780914F02809338010C940D17A8
:104A700080914D02813249F68091E800877F8093D2
:104A8000E8000E9463278091500280933C020895C1
:104A900080914D02813A09F0B8CF8091E800877F7C
:104AA0008093E8008091E80080FFFCCF80913C0279
:104AB000C2CF84B7877F84BF0FB6F894A895809142
:104AC0006000886180936000109260000FBE80E8F3
:104AD00090E00FB6F89480936100909361000FBE50
:104AE0000E94B2110E94B3270E9410288091E20018
:104AF00084608093E20085EF92E20E94401E7894E9
:104B00000E94972A0E94B8118EE291E00E940C1137
:104B100087E495E00E94D10380914C02853019F022
:104B20000E94E811F9CF83E495E00E94D1030E942E
:104B3000481F80914A02882379F30E94791F8823B5
:104B400059F30E941526E8CF0C94A625FC01CB0151
:104B5000DA012F2F332723303105D1F070F42130C3
:104B6000310509F44EC02230310569F48BE590E03F
:104B700024EA35E02D933C9308952132310521F14B
:104B80002232310571F190E080E030E020E0F2CF98
:104B9000CF019927E230A9F08330910550F40097B6
:104BA00069F0E0E9F5E0019771F7849190E09F01E9
:104BB000E1CFECE6F5E00397C1F3E5CFE0EAF5E0FD
:104BC000F4CFE2E7F5E0F1CF63307105E0F6880F4E
:104BD000991FFC01E959FE4F2081318189E090E065
:104BE000C9CF6330710578F6FB01EE0FFF1FEF5957
:104BF000FE4F20813181825A9E4FFC01808190E0DE
:104C0000B9CF82E190E02FEF35E0B4CF80914C0234
:104C1000843011F482E0089581E0089580913D028E
:104C2000811102C00C940626089580E189BD82E1BD
:104C300089BD09B400FEFDCF8091D8008F7D80939F
:104C4000D8008091E00082608093E0008091E000D5
:104C500081FDFCCF0895AF92BF92CF92DF92FF9279
:104C60000F931F93CF93DF936C01EB018A010E9496
:104C70008227F82E811123C00115110539F0F801A2
:104C800080819181C81BD90BC80ED91EB12CA12CD3
:104C90002097A9F08091E80085FD22C08091E8006E
:104CA0008E778093E80001151105A1F0F80180814D
:104CB0009181A80EB91EB182A08285E0F82E8F2DB9
:104CC000DF91CF911F910F91FF90DF90CF90BF9018
:104CD000AF9008950E9482278823D1F2F82EEFCF5B
:104CE000F60181916F018093F1002197FFEFAF1AD8
:104CF000BF0ACECFFC01CB01209153023091540268
:104D00002617370790F0009729F42091E8002E77B6
:104D10002093E80040E0009751F4411108C08091D1
:104D2000E80082FF31C080E00895C901F3CF2091EF
:104D30004C022223A9F12530A9F12091E80023FD9E
:104D40002DC02091E80022FDEACF2091E80020FF4D
:104D5000E2CF3091F3002091F200009719F0283053
:104D6000310558F041E02830310509F040E020914C
:104D7000E8002E772093E800CECF41914093F100D8
:104D800001972F5F3F4FE9CF80914C02882341F07C
:104D9000853041F08091E80083FFC1CF81E0089524
:104DA00082E0089583E00895FC01CB012091530235
:104DB000309154022617370790F0009729F420917C
:104DC000E8002E772093E80040E0009751F441116D
:104DD00008C08091E80082FF32C080E00895C901D8
:104DE000F3CF20914C022223B1F12530B1F1209173
:104DF000E80023FD2EC02091E80022FDEACF20919B
:104E0000E80020FFE2CF3091F3002091F2000097FC
:104E100019F02830310558F041E02830310509F00B
:104E200040E02091E8002E772093E800CECF449117
:104E30004093F100319601972F5F3F4FE8CF80916B
:104E40004C02882341F0853041F08091E80083FFD7
:104E5000C0CF81E0089582E0089583E00895982FFF
:104E6000973028F08F708093E90081E00895909347
:104E7000E900242F762F50E0981731F07091EC0064
:104E80002091ED005091F00021FD02C09F5FE8CF1E
:104E90003091EB003E7F3093EB003091ED003D7F91
:104EA0003093ED003091EB0031603093EB00709364
:104EB000EC002093ED005093F0002091EE0027FDD0
:104EC000E5CF80E0089580914D0287FF13C0809167
:104ED000E80082FF06C08091E8008B778093E800AD
:104EE00004C080914C028111F2CF089580914C0250
:104EF0008823D9F38091E80080FFF8CF8091E80003
:104F00008E77ECCF2091E4003091E50095E6A90181
:104F10002091EC00822F817020FF06C08091E80074
:104F200080FF06C080E008952091E80022FD1AC0AD
:104F300080914C02882389F0853089F08091EB00C4
:104F400085FD0FC02091E4003091E5004217530722
:104F5000F9F29150E1F684E0089582E0089583E04B
:104F6000089581E008950E9421280E942928E0EEFA
:104F7000F0E0808181608083E8EDF0E080818F77D0
:104F8000808319BCA7EDB0E08C918E7F8C938081DB
:104F90008F7E808310924B0208950F931F93CF93BF
:104FA000DF930E9421280E942928C8EDD0E0888143
:104FB0008F77888388818068888388818F7D8883C4
:104FC00019BC10924C021092480210924A021092A0
:104FD000490200EE10E0F80180818B7F8083888198
:104FE0008160888342E060E080E00E942F27E1EE4C
:104FF000F0E080818E7F8083E2EEF0E0808181604E
:105000008083808188608083F80180818E7F8083A7
:10501000888180618883DF91CF911F910F910895DE
:10502000E8EDF0E080818F7E8083E7EDF0E0808125
:105030008160808384E082BF81E080934B020C9486
:10504000CD27E8EDF0E080818E7F80831092E20032
:1050500008951092DA001092E10008951F920F92C5
:105060000FB60F9211242F933F934F935F936F933B
:105070007F938F939F93AF93BF93EF93FF93809111
:10508000E10082FF0BC08091E20082FF07C08091A7
:10509000E1008B7F8093E1000E9453248091DA002D
:1050A00080FF19C08091D80080FF15C08091DA0080
:1050B0008E7F8093DA008091D90080FF94C080E1D8
:1050C00089BD82E189BD09B400FEFDCF81E08093F6
:1050D0004C020E942C248091E10080FF19C0809135
:1050E000E20080FF15C08091E2008E7F8093E20095
:1050F0008091E20080618093E2008091D80080621C
:105100008093D80019BC85E080934C020E9449240A
:105110008091E10084FF29C08091E20084FF25C0D6
:1051200080E189BD82E189BD09B400FEFDCF809197
:10513000D8008F7D8093D8008091E1008F7E80938E
:10514000E1008091E2008F7E8093E2008091E20096
:1051500081608093E20080914802882309F449C06D
:1051600084E080934C020E944D248091E10083FFF3
:1051700029C08091E20083FF25C08091E100877FF4
:105180008093E10082E080934C021092480280916B
:10519000E1008E7F8093E1008091E2008E7F80931A
:1051A000E2008091E20080618093E20042E060E0F2
:1051B00080E00E942F278091F00088608093F000AB
:1051C0000E944524FF91EF91BF91AF919F918F91E4
:1051D0007F916F915F914F913F912F910F900FBEF3
:1051E0000F901F90189519BC10924C020E943E24FB
:1051F00072CF8091E30087FD02C081E0B2CF83E0EF
:10520000B0CF1F920F920FB60F9211242F933F939E
:105210004F935F936F937F938F939F93AF93BF93BE
:10522000CF93DF93EF93FF93D091E900DF708091EC
:10523000EC00C82FC17080FDC0E81092E900809199
:10524000F000877F8093F00078940E9445291092A7
:10525000E9008091F00088608093F000CD2BCF7042
:10526000C093E900FF91EF91DF91CF91BF91AF9192
:105270009F918F917F916F915F914F913F912F916E
:105280000F900FBE0F901F9018951F93CF93DF9331
:10529000CDB7DEB7AA970FB6F894DEBF0FBECDBF6D
:1052A0008DE492E0FC0101962091F100208322E040
:1052B00085359207B9F70E94A3248091E80083FF07
:1052C0001EC180914D0290914E029A3008F017C194
:1052D000E92FF0E0E15CF14D0C94D22A803899F08E
:1052E000823809F00CC1809151028F70873008F02C
:1052F00006C18093E9008091EB0085FB882780F947
:105300001092E90006C08091490290914A029111E1
:1053100082609091E800977F9093E8008093F1007D
:105320001092F1008091E8008E77E5C0882309F49F
:10533000D3C0823009F0E3C080914F028111D6C002
:10534000809151028F702FEF280F263008F0D7C0C0
:105350008093E9002091EB0020FFC8C0933031F426
:105360008091EB0080628093EB00C0C09091EB00D5
:1053700090619093EB0021E030E001C0220F8A950C
:10538000EAF72093EA001092EA008091EB0088602F
:10539000EACF8111B4C010914F021F778091E300D2
:1053A0008078812B8093E3008091E800877F809351
:1053B000E8000E9463278091E80080FFFCCF809185
:1053C000E30080688093E30082E0111183E0809322
:1053D0004C0295C08058823008F091C080914F02F5
:1053E000909150028C3D23E09207A1F583E08A83DF
:1053F0008AE289834FB7F894DE01139620E03EE0FD
:1054000051E2E32FF0E050935700E49120FF03C0F6
:10541000E295EF703F5FEF708E2F90E0EA30C0F0C2
:10542000C7968D939D932F5F243159F74FBF80917D
:10543000E800877F8093E8006AE270E0CE01019681
:105440000E947A268091E8008B778093E80057C00D
:10545000C096E7CF6091510270915202AE014F5F4A
:105460005F4F0E94A425BC01892B09F448C080919C
:10547000E800877F8093E80089819A810E94D42682
:10548000E1CF8038E1F58091E800877F8093E800E4
:10549000809148028093F10045CF811130C09091F6
:1054A0004F02923060F58091E800877F8093E8009A
:1054B000909348020E94632780914802882311F04C
:1054C00084E005C08091E30087FDFACF81E08093FE
:1054D0004C020E94942413C080914F02813079F4D1
:1054E00081E0933009F080E080934A021092E90055
:1054F0008091E800877F8093E8000E946327809175
:10550000E80083FF0AC08091E800877F8093E8006D
:105510008091EB0080628093EB00AA960FB6F8941E
:10552000DEBF0FBECDBFDF91CF911F910895CF9306
:1055300080914C028823A1F0C091E900CF70909136
:10554000EC00892F817090FD80E8C82B1092E90053
:105550008091E80083FD0E944529CF70C093E90047
:10556000CF910895991B79E004C0991F961708F010
:10557000961B881F7A95C9F78095089597FB072E8B
:1055800016F4009407D077FD09D00E94D82A07FCB2
:1055900005D03EF4909581959F4F08957095619543
:1055A0007F4F0895EE0FFF1F0590F491E02D0994B1
:1055B000AA1BBB1B51E107C0AA1FBB1FA617B70739
:1055C00010F0A61BB70B881F991F5A95A9F7809555
:1055D0009095BC01CD010895AEE0B0E0E2EFFAE2B3
:1055E0000C94E82D0D891E898F89988D26E02C83D7
:1055F0001A83098397FF02C080E090E801979E8399
:105600008D83AE01455E5F4F698D7A8DCE01019627
:105610000E941C2B4D815E8157FD0AC02F81388569
:10562000421753070CF49A01020F131FF80110825E
:105630002E96E4E00C94042EAFE0B0E0E2E2FBE250
:105640000C94DA2D7C013B018A01DC0117961C9237
:105650001E92169713968C9181FFC3C19AE0292E52
:10566000FE0131964F01D70113969C91F30193FDF2
:10567000859193FF81913F01882309F448C18532C8
:1056800039F493FD859193FF81913F01853229F48F
:10569000B70190E00E940A2DE6CFB12C412C512C8D
:1056A000BFE1B51538F08B3209F188F4803201F191
:1056B000833221F157FC3AC020ED280F2A3040F503
:1056C00056FE1FC0B29C200D1124B22E06C08D3292
:1056D00091F0803379F7689450F8F30193FD859148
:1056E00093FF81913F018111DBCF20C0689451F875
:1056F000689452F8F2CF689453F8EFCF689454F856
:10570000ECCF429C200D1124422E689455F8E5CF31
:105710008E3229F456FCFBC0689456F8DECF8C36E6
:1057200019F4689457F8D9CF8836B9F2982F9F7D2D
:1057300095549330C0F08336A1F18337C1F183359E
:1057400009F05BC0D801CD90DD908D016B2D70E02C
:1057500056FC02C06FEF7FEFC6010E94F42C5C0183
:10576000689457F80AC00C5F1F4FEFE3E983AA243F
:10577000A394B12C6401E89457F853FC04C04A1474
:105780001B0409F018F5342CA114B10431F53320B1
:1057900009F469CFB70180E290E00E940A2D3A94A3
:1057A000F6CFD8018C9189830E5F1F4FE0CFF801AF
:1057B000C190D1908F016B2D70E056FC02C06FEF4D
:1057C0007FEFC6010E94FF2C5C01D5CFB70180E2BC
:1057D00090E00E940A2D4A94D2CFF60157FC8591A1
:1057E00057FE81916F01B70190E00E940A2D3110A0
:1057F0003A94B1E0AB1AB108C7CF843619F08936B4
:1058000009F074C0F80157FE6AC0619171918191ED
:1058100091918F01E52DEF76DE2E97FF09C09095CF
:105820008095709561957F4F8F4F9F4F6894D7F803
:105830002AE030E0A4010E943A2DC82EC818AC2CF2
:105840005D2CD6FE0CC0E89450F8CB1440F4D4FE86
:1058500005C0D2FC03C05D2D5E7E552EAB2C54FEE0
:1058600098C0FE01EC0DF11D8081803309F08AC0E3
:10587000652D697E562E752D7870372E53FC98C095
:1058800050FE92C0BC2CA41418F44C0CB42CBA18C2
:1058900054FE94C0B70180E390E00E940A2D52FEAE
:1058A00009C088E790E051FE02C088E590E0B701AA
:1058B0000E940A2DCB1408F48DC0CA94D12C8FEF0E
:1058C000C81AD80AC80CD91CD6018E916D01B7012F
:1058D00090E00E940A2D8C149D04B1F758CF61917D
:1058E0007191072E000C880B990B93CFD52CE8945F
:1058F000D4F82AE030E0853739F1F52DF97FDF2E35
:105900008037A9F058F48835A9F08F36D9F0F7011F
:10591000868197812F96E2E10C94F62D8837B9F7AE
:10592000D4FE02C06894D2F820E130E00DC0689443
:10593000D4F8F6CF54FE03C02F2F2660D22E20E1DC
:1059400032E002C028E030E0F801D7FE15C04191F6
:105950005191619171914C875D876E877F878F012F
:10596000A4016C857D858E859F850E943A2DC82E69
:10597000C818E894D7F863CF81919191AC0170E099
:1059800060E0E9CF52FC02C0A39475CFA394A39426
:1059900072CF852D867809F46ECFF6CFB70180E2FD
:1059A00090E00E940A2DA394A414C0F3312C70CF70
:1059B000342C3A18A41408F46BCFF8CF852D8678D0
:1059C00009F478CF8BE251FE80E257FC8DE2B701FB
:1059D00090E06ECFB70180E390E00E940A2DBA9468
:1059E00069CF8FEF9FEF96CFFC010590615070401B
:1059F0000110D8F7809590958E0F9F1F0895FC0198
:105A00006150704001900110D8F7809590958E0FED
:105A10009F1F08950F931F93CF93DF93182F092F84
:105A2000EB018B8181FD09C01FEF0FEF812F902FBC
:105A3000DF91CF911F910F91089582FF14C02E81A5
:105A40003F818C819D81281739073CF4E881F981D9
:105A5000CF0101969983888310838E819F8101965F
:105A60009F838E83E3CFE885F985812F0995892B64
:105A7000A1F3DACFFA01AA27283051F1203181F1C0
:105A8000E8946F936E7F6E5F7F4F8F4F9F4FAF4F46
:105A9000B1E03ED0B4E03CD0670F781F891F9A1F59
:105AA000A11D680F791F8A1F911DA11D6A0F711D0D
:105AB000811D911DA11D20D009F468943F912AE019
:105AC000269F11243019305D3193DEF6CF01089501
:105AD000462F4770405D4193B3E00FD0C9F7F6CF32
