:100000000C948C030C94530F0C94D3030C94D303D3
:100010000C94D3030C94D3030C94D3030C94D30308
:100020000C94D3030C94D3030C9499260C946C2752
:100030000C94BD1D0C94D3030C94D3030C94D303E4
:100040000C94D3030C94D3030C94D3030C94D303D8
:100050000C94D3030C94081E0C94D3030C94D30378
:100060000C94D3030C94D3030C94D3030C94D303B8
:100070000C94D3030C94D3030C94D3030C94D303A8
:100080000C94D3030C94D3030C94D3030C94D30398
:100090000C94D3030C94D3030C94D3030C94D30388
:1000A0000C94D3030C94D3030C94D3036A7068406C
:1000B0006777752E656475006A6F686E2E68656C6B
:1000C000766573746F6E40676D61696C2E636F6DDA
:1000D000005C746578747B7D002025696E252000A6
:1000E0002E6C656674636F6C5B0A5D0A2E726967BD
:1000F0006874636F6C5B0A5D0A00203C2D20002051
:10010000253E2520004368656572732C0A4A6F6896
:100110006E004368656572732C0A50726F66657372
:10012000736F722048656C766573746F6E0004049B
:100130001E001F002000210022002E0014001A00C3
:100140000800150017002B00040016000700090026
:100150000A00D75C1D001B00060019000500000006
:10016000000000000551E30002512E002700260088
:100170002500240023002D00130012000C0018009D
:100180001C00280034000F000E000D000B00D85C8E
:100190003800370036001000110000000000000099
:1001A000015301512C003E001E0C1F0C00000000EA
:1001B00000003F00000000001801150A3B0040004D
:1001C000040943002F003000420041001A5C000087
:1001D0002F02300200000000000000002C04E300A9
:1001E000E0006900000000000000000000006A005C
:1001F00044000000270126010E0A6B0045000F5D38
:100200002B002B02095D6C006800105D3D003C0076
:10021000085D000000000000010001002C00290022
:100220001E081F082008210822082A0814081A0896
:100230002900045117082A00035116080608190856
:100240001B086D00040807083A001D081C08000080
:1002500000000000E200E30001002E022D02000079
:100260003302310233000A5D35024F085200500854
:100270001C01280035004F00510050004C000B5D60
:1002800031000A080A0A09082A00000000000000DC
:100290000000E7002C00000000000000000000004B
:1002A000000000000000000000000000000000004E
:1002B000010000000000000000000000000000003D
:1002C000000000000000000000000000000000002E
:1002D00000000000000000000000000000000C5DB5
:1002E00000004F0A5202500A00000D5D00004F024C
:1002F0005102500200000E5D00004F065006000043
:100300000000000000000000010001002C000000BF
:1003100000000000000000000000000000000000DD
:1003200000000100000000000000000000000000CC
:1003300000000000000000000000000000000000BD
:10034000000000000000000000002E00000000007F
:100350000000310200002D000000260025002400CE
:100360002E00280033022300220021002E0200006C
:10037000000020001F001E002D00000000000000F3
:10038000000027002C00000000000000000000001A
:1003900000000000000000000000E30000002B014E
:1003A000000000000000000000000000000000004D
:1003B000000000000000000000000000010000003C
:1003C000E30000000000000000000000000000004A
:1003D00000003008F0002F08000000000000F300CB
:1003E000F100F2000000000000000000000000002A
:1003F00000000000000000000000F500F40044458B
:100400004255473A2064697361626C65642E0A0044
:1004100044454255473A20656E61626C65642E0A18
:100420000000000000000000002A2B28000000004F
:100430000000000000000000000000002900000093
:10044000002C1E3420212224342627252E362D3739
:1004500038271E1F202122232425263333362E370A
:10046000381F0405060708090A0B0C0D0E0F1011A2
:1004700012131415161718191A1B1C1D2F313023AF
:100480002D350405060708090A0B0C0D0E0F101177
:1004900012131415161718191A1B1C1D2F3130357D
:1004A0004C00000000000000000000000000000000
:1004B00000000000007E0F00D4FFFFFFC700000017
:1004C000780A0025303862003A2000253032580082
:1004D0000A722F632030313233343536370A000A3E
:1004E000002530325820006B6579626F6172645F5D
:1004F0007265706F72743A20000A0025303258001D
:100500006B6579626F6172645F7365745F6C65645B
:100510003A2000290A002575002F002575005D2866
:1005200000256400200025640020002564002000D0
:100530002564007C0025303258006D6F7573656B43
:100540006579205B62746E7C782079207620685D06
:10055000287265702F61636C293A205B005B735DC4
:10056000004B6579626F6172642073746172742EDE
:100570000A005B575D005B535D005B525D005B44AE
:100580005D005B435D0004033000000026034B0068
:1005900065006500620069006F002000490072007C
:1005A0006900730020005200650076002E002000D4
:1005B000320000000E034B00650065006200690018
:1005C0006F0000000403090409025B00030100A09E
:1005D000FA090400000103010100092111010001D1
:1005E0002240000705810308000A090401000103F5
:1005F000000000092111010001228100070582038A
:1006000020000A0904020002030000000921110170
:1006100000012222000705830320000107050303D0
:10062000200001120110010000000810CB5622002A
:1006300002010203010631FF0974A10109751500C9
:1006400026FF009520750881020976150026FF0017
:10065000952075089102C005010902A101850209D2
:1006600001A1000509190129051500250195057548
:1006700001810295017503810105010930093115D8
:1006800081257F95027508810609381581257F959A
:100690000175088106050C0A38021581257F950130
:1006A00075088106C0C005010980A10185031901F3
:1006B0002AB700150126B700950175108100C00505
:1006C0000C0901A101850419012AA002150126A027
:1006D00002950175108100C005010906A1010507F9
:1006E00019E029E71500250195087501810295019A
:1006F000750881010507190029FF150026FF0095DF
:1007000006750881000508190129059505750191EF
:1007100002950175039101C011241FBECFEFDAE0ED
:10072000DEBFCDBF04B603FE27C080919E0290912C
:100730009F02A091A002B091A1028730904BA740E8
:10074000B04BD1F410929E0210929F021092A00220
:100750001092A10214BE84B7877F84BF0FB6F894AD
:10076000A89580916000886180936000109260007D
:100770000FBEE0E0F8E3099511E0A0E0B1E0EAE7A0
:10078000F9E502C005900D92A23BB107D9F722E02E
:10079000A2EBB1E001C01D92AE39B207E1F70E94B1
:1007A000C4230C947C2C0C940000FF93EF93E091F5
:1007B000B201F091B301309709F00995EF91FF91E3
:1007C0000895FC018591803011F0EFDFFBCF089593
:1007D000FF27E0E230E247FF0CC0419597FF09C0D8
:1007E000EDE26095709580959095611D711D811D5C
:1007F000911D27FF02C0219530E350E2AA27660F22
:10080000771F881F991FAA1FA41710F0A41B6395B8
:100810005A95A9F7AA3008F0A95FA05DAF93F395A8
:10082000611571058105910541F7ED3211F4EF93E2
:10083000F395F21718F43F93F395FBCF8F91B5DF43
:10084000FA95E1F70895E991F9918591803021F0C9
:10085000853219F0AADFF9CF089520E0E894559188
:100860005532C1F3503311F4689455915A3348F41A
:10087000505390F3220F022E220F220F200D250F2E
:10088000F4CF0EF4219589919991533619F353378A
:1008900029F1533559F1BC0188279927E8945C3632
:1008A00021F48991999168945591543639F446EF21
:1008B0007EF077FF0DC08FEF9FEF0AC055374AE0FB
:1008C00039F0583540E121F0523642E009F0089500
:1008D000FF93EF937DDFEF91FF91B7CFFF93EF93FE
:1008E000FC0181918030B9F360DFFBCFFF93EF9380
:1008F00068DFF1CFDF93CF93CDB7DEB72596A3DFC7
:10090000CF91DF91089560E070E0CB010E94A21CBE
:100910000C94AE1CDB01FC01E850FD45E930F1050B
:1009200060F4E258F34D12969C910C943D29992362
:1009300021F082E191E00E94D00681E008959923A0
:10094000E1F385E091E0F7CF9923B9F38FEF90E0E1
:10095000F2CF992391F38AEF90E0EDCF992369F3D9
:1009600080EE90E0E8CF992341F389ED90E0E3CF6A
:10097000992319F381ED90E0DECF9923F1F288EB12
:1009800090E0D9CF9923C9F28CEA90E0D4CFCF93ED
:10099000C62F81E00E946319882339F089EAC111CA
:1009A00001C08AEACF910C947C1282E00E94631904
:1009B000882329F08CEFC111F5CF8BEFF3CF85E0C1
:1009C0000E946319882349F08EE298E0C11102C0A9
:1009D0008DE298E0CF910C9453058AEFC111E2CFDC
:1009E00089EFE0CFCF93DF939C01FB019A958115AE
:1009F0009F4160F5E901CC27D170D901AA27B270D7
:100A0000B90166277470A9014427587034FF10C0DB
:100A100080E1CD2B09F480E0AB2B09F08062672BDD
:100A200009F08064452B09F08068DF91CF9109942B
:100A300081E0CD2B09F480E0AB2B09F08260672BBD
:100A400009F08460452B89F38860EFCFDF91CF9167
:100A50000895CF93DF93EC01805E9109089720F011
:100A600063E375E1209711F46FE872E1CE010E9413
:100A7000F2048C2FDF91CF910C949511CF93DF93DB
:100A8000EC010E942612CE01805E9109089720F0A9
:100A90006AE375E1209711F466E972E1CE01DF9116
:100AA000CF910C94F204CF93DF93D82FC92F0E94DB
:100AB00029058D2F9C2FDF91CF910C943E0581E06D
:100AC00008950C948A0408950C9463051F93CF93A2
:100AD000DF9300D000D00F92CDB7DEB749835A83A1
:100AE0006B833091E10189819A8131111DC06623A8
:100AF000B9F02223A9F00E940C1B182F682F8981BE
:100B00009A810E94B31A69817A81812F0F900F9088
:100B10000F900F900F90DF91CF911F910C94580779
:100B20000E94E21A182FEFCF0E940C1B69817A8174
:100B3000EDCFFC01262F4081518162817381848138
:100B40000C946605CF93DF93D82FC92F60E00E94E5
:100B500099056D2F7C2FDF91CF910C946405FF9246
:100B60000F931F93CF93DF93E82FF0E0EF5DFB4FE0
:100B7000F490C82FC695C695C695D0E0FE01EF54F7
:100B8000FB4F0491877010E0082E02C01595079561
:100B90000A94E2F701701127CF55DB4FFE01C49193
:100BA000D0E002C0D595C7958A95E2F7C170DD27E0
:100BB0000115110519F081EE0E949511209719F089
:100BC00086EE0E9495118F2D0E947C12CD2B19F07C
:100BD00086EE0E942612012B41F081EEDF91CF912B
:100BE0001F910F91FF900C942612DF91CF911F91CE
:100BF0000F91FF900895EF92FF920F931F93CF9361
:100C0000DF93EC01162F0AE08881882309F454C091
:100C1000813009F04EC08981813099F47E0122E053
:100C2000E20EF11C8A810E947C12E7012196812F3D
:100C3000815050F3EFE9FFE03197F1F700C0000079
:100C4000F7CF823041F47E0182E0E80EF11C8A8108
:100C50000E949511EACF833041F47E01E2E0EE0E6E
:100C6000F11C8A810E942612E0CF843011F0219677
:100C7000DDCF2A81229690E080E0AE014F5F5F4F8A
:100C80002053330B2A30310548F0019778F2EFE911
:100C9000FFE03197F1F700C00000F7CF089FB001E7
:100CA000099F700D1124C901860F971F2981EA0140
:100CB000E4CF0E94AF05BACFDF91CF911F910F9182
:100CC000FF90EF90089560E00C94FB05EF92FF9287
:100CD0000F931F93CF93DF938C01F62E8AE0E82EBB
:100CE000F8018491882309F454C0813009F04DC083
:100CF000E8012196FE018491813091F42196FE0154
:100D000084910E947C128E010F5F1F4F8F2D8150A6
:100D100038F3EFE9FFE03197F1F700C00000F7CFBB
:100D2000823039F4E8012296FE0184910E949511E7
:100D3000EACF833039F4E8012296FE0184910E94C3
:100D40002612E1CF8430F9F6E8012296FE012491C3
:100D500090E080E0FE0131962053330B2A303105BC
:100D600048F0019780F2EFE9FFE03197F1F700C01A
:100D70000000F7CFE89EA001E99E500D1124C901A3
:100D8000840F951F2491EF01E5CF0E94AF05E80184
:100D9000BACFDF91CF911F910F91FF90EF900895FF
:100DA00060E00C9466060E94741C811102C00E94CF
:100DB0000A1D0C9462090C94650908950C94DD06D3
:100DC00081E008950C94E006CF93C82F0E94DE06C0
:100DD0008C2FCF910C94E20608950E9457150E9423
:100DE000EC062FEF84E39CE0215080409040E1F737
:100DF00000C000000C942C1E0F931F93CF93DF9321
:100E0000EC0161E00E9499058C01BE010E94610520
:100E1000882341F1BE01C8010E94340E882311F1DC
:100E2000BE01C8010E94770C8823E1F0BE01C80111
:100E30000E94BB0C8823B1F0BE01C8010E948E0D38
:100E4000882381F08A81882341F101308CE51807DD
:100E500079F00E3D8CE51807E9F001151C45E9F421
:100E60000E94ED0680E0DF91CF911F910F910895D0
:100E700090915702892F8E7F90FF81608093570257
:100E800080FF05C080E194E00E94E103EBCF8EEF8C
:100E900093E0FACF0E940A1DE5CFCE01DF91CF91FA
:100EA0001F910F910C945F0590E080E008950895E4
:100EB000972F70E026E0929F600D711D1124FB01B9
:100EC0009CE3899FE00DF11D1124EE0FFF1FE25DF1
:100ED000FE4F859194910895FC01EE0FFF1FEF5393
:100EE000FB4F859194910895CF93DF930E9458070B
:100EF0000E948608EC01811520E5920708F04BC09E
:100F0000811530E4930708F0B2C0803E910518F5D2
:100F1000803C910508F09FC0883A910570F4853AAD
:100F2000910508F095C08130910529F10497813A27
:100F3000910508F1D0E0C0E01EC08F3B9105D1F3D0
:100F4000C85AD0E0CC0FDD1FCF5DDE4F0990D881AD
:100F5000C02DD46410C0811540E2940780F48F3F07
:100F6000910509F040F4883E910528F0805F9109D1
:100F7000D0654097F8F6CE01DF91CF910895C11565
:100F800080E3D80708F46DC0CE019927D3FD6CC06B
:100F9000EC01D06CF0CFC11595E5D90760F5C1150E
:100FA00024E5D20708F094C0C11533E5D30778F4DF
:100FB000C11542E5D40708F07AC0C11581E5D8070C
:100FC00008F458C0DC2FCC27C16FD06AD4CFCE0133
:100FD0008370992721E030E002C0220F331F8A95E9
:100FE000E2F7C695C69590E2C99FE0011124C22B95
:100FF000D32BDA68C0CFC1152AE5D207B0F4C115EA
:1010000039E5D30708F074C0C11546E5D40708F4E4
:1010100064C0CE0198558F3F910511F008F08ACF3A
:10102000DC2FCC27C06FD06AA6CFCE019056811599
:10103000904208F07FCF8D2F8F710E941E0990E0A3
:10104000982F882788279F719C012C2BE9014EC07F
:10105000A497D06490CF805C91090E946C07EC014A
:101060008ACFCE019F70F9CFEC01D86C84CFDF70AE
:10107000D06A81CFCE0174E0969587957A95E1F795
:1010800083702C2F26952695237040E2249F900193
:101090001124382B8C2F8370C1E0D0E002C0CC0F1C
:1010A000DD1F8A95E2F7C22BD32BDC6864CFCE011B
:1010B0008370992721E030E002C0220F331F8A9508
:1010C000E2F7C695C69580E2C89FE0011124EBCFF8
:1010D000DC2FCC27C46FD06A4ECF8C2F0E941E0904
:1010E000C82FD0E0DC2FCC27CC27DF71D06243CFD4
:1010F0008C2F8F700E941E0934E0D695C7953A95C3
:10110000E1F7CF70DC2FC82FD06935CF803E910535
:1011100099F1C8F48133910509F476C048F4893215
:10112000910509F46AC08A32910509F474C00895E2
:1011300089339105D1F082389105B9F08533910555
:1011400009F454C00895843E910599F138F4823E23
:101150009105F9F0833E910509F10895863E9105C8
:1011600099F1873E9105B9F1089520918F0223707E
:10117000A1F080EE90E0089520918F0220FD52C0F2
:101180003091900230FF09C024FF4FC090E080E012
:1011900004C020918F0222FDF7CF089520918F0285
:1011A00022FD46C03091900230FDE3CF24FFF5CF01
:1011B000EDCF2091900221FFF0CF80918F0284FD2E
:1011C000E5CF87EE90E0089520918F0223FFE5CFD1
:1011D00024FDDCCFF6CF20918F0223FD2CC030916F
:1011E000900231FFE3CF84EE90E0089520918F02CA
:1011F00025FFD3CF89E290E0089520918F0225FF4B
:10120000CCCF85E390E0089520918F0226FFC5CFD3
:101210008AE290E0089520918F0226FFBECF81E3FD
:1012200090E0089589E390E0089583EE90E00895BA
:1012300082EE90E0089586EE90E0089590918F02FE
:1012400092FF06C0282F28712830F9F4877F846028
:1012500093FF06C0282F28712831F1F4877E84611E
:101260002091900220FF06C0382F38713830D9F411
:10127000877F816021FF06C0282F28712831D1F493
:10128000877E816194FD877E0895282F2471243004
:10129000F9F68B7F8860DCCF282F2471243101F789
:1012A0008B7E8861DDCF382F3171313019F78E7F19
:1012B0008860E0CF282F2171213121F78E7E88614F
:1012C000E1CF08950C94610908950C946409E82F06
:1012D000F0E0E158FD4F80810895CF92DF92EF92C8
:1012E000FF920F931F93CF93DF9380ED94E00E94C2
:1012F000E1038FE7E82E82E0F82ED0E0C0E09BEC1F
:10130000C92E94E0D92E03EC14E0DF93CF93DF9243
:10131000CF920E947A0488EC94E00E94E103F701E6
:1013200081917F010E94601C1F928F931F930F93E6
:101330000E947A0481EC94E00E94E10321968DB72B
:101340009EB708960FB6F8949EBF0FBE8DBFCA30E9
:10135000D105D9F6DF91CF911F910F91FF90EF90BA
:10136000DF90CF90089580EA8A95F1F70895089567
:101370000E94170B809100018091000195E081117E
:1013800090E090938A0285E0891B80938902A5E50D
:10139000B1E061E070E08D91E82FE295EF70F0E050
:1013A00041A18F709B0101C0220F8A95EAF7922F0D
:1013B0009095942391A382A1822B82A381E0AA35E8
:1013C000B80749F7AFE4B1E061E070E08D91E82F34
:1013D000E295EF70F0E041A18F709B0101C0220FF8
:1013E0008A95EAF7922F9095942391A382A1822B5C
:1013F00082A381E0A535B80749F7E5E7F2E0AFE75A
:10140000B2E08FE792E011921D928E179F07D9F7F5
:1014100085E00E94BE0A0E94D3060C94210B0E9414
:10142000F50A8823F9F08091890290E081589D4F58
:101430000E94340B811113C08091B4018F5F80939F
:10144000B401863050F0E0918902F0E0E158FD4FA0
:10145000108211821282138214820C94DB06109285
:10146000B401FBCF80918A0290E081589D4F0E9489
:10147000530B0C94B7098F929F92AF92BF92CF9269
:10148000DF92EF92FF920F931F93CF93DF9385E547
:10149000A82E81E0B82E05E712E0912CCC24C3944D
:1014A000D12CF50181915F01C82FC295CF70D0E09A
:1014B00099A18F70760101C0EE0C8A95EAF7892F09
:1014C0008E2989A38AA18E2C809488218AA30E94C8
:1014D000B309EFE4F1E050E040E020E03191A32FC8
:1014E000A295AF70B0E090968C9190E03F7002C0F2
:1014F000959587953A95E2F780FD3CC08C2D042E9A
:1015000001C0880F0A94EAF7282B4F5F5F4F4630DF
:10151000510521F789A1882289A28AA1E82AEAA295
:10152000F8018081281741F1208381E0982A0F5F1C
:101530001F4FFAE5AF16F1E0BF0609F0B2CF609198
:101540008A0270E061587D4F292D45E085E792E0E1
:101550000E94BF0A0E940F0A892DDF91CF911F912F
:101560000F91FF90EF90DF90CF90BF90AF909F9042
:101570008F90089580E0C8CF80E0D8CF0895FF9283
:101580000F931F93CF93DF93F82E092F162FD72F8A
:10159000C42F222349F081E08093B7010E94ED1D02
:1015A0009093B6018093B5018091B7018823A1F093
:1015B0008091B5019091B6010E94F91D069760F0E7
:1015C000EF2DF02FA12FBD2FCE0FDF2FD11DEC1748
:1015D000FD0741F41092B701DF91CF911F910F9158
:1015E000FF90089581918D93F2CF8091B801811180
:1015F00010C08091D80080618093D8008AE18A95DC
:10160000F1F700C08091D90080FD0AC082E080938C
:10161000B80181E09091B801913009F080E008951F
:1016200081E0F5CF0E94F50A91E0892708950E9494
:10163000120B809300010E94F50A81110C94280B73
:1016400008950E94F50A811102C00C942E0B089592
:1016500061E070E081E091E00C94040F61E070E0E3
:1016600081E091E00C940B0FCF93DF93D82FC92F1B
:101670000E94A50F9C0180E02115310589F4ED2F12
:10168000FC2FD901A654BE4F8C9181932F5F3F4F01
:1016900025303105B1F78FEB91E00E94D70B81E047
:1016A000DF91CF910895FC0190E080E02191DC0171
:1016B000A654BE4F2C93019685309105B9F78FEB58
:1016C00091E00C94CE0B0C94C70484988C9A859866
:1016D0008D9A8FB1829581707D990EC090E0892B93
:1016E0008093C5019091000181E098279093C101FA
:1016F000891B8093C001089592E0F1CFCF93E091D0
:10170000C501EE0FEE0FE093C5014FB144FB8827F2
:1017100080F94FB145FB222720F945FF02C022E0A6
:1017200030E0822BE82BE093C501C091C101EF703E
:10173000F0E0E15AFE4F80819091C401890F8093BF
:10174000C40184306CF0EC2F0C2E000CFF0BEE5318
:10175000FE4F80818F5F808360E08C2F0E94630B3F
:101760008091C4018D3F6CF4EC2F0C2E000CFF0B0C
:10177000EE53FE4F80818150808361E08C2F0E9468
:10178000630B9091C401892F837897FF03C0815028
:101790008C6F8F5F8093C401CF910895E091C10158
:1017A000F0E0EE53FE4F2081FC0120830895FF926C
:1017B0000F931F93CF93DF93D091C0010D2F10E0B3
:1017C0000E531E4FFC01C081F8018081C81BFC2E06
:1017D0001F1464F08C2FC7FD80E0C81BC11110C01E
:1017E000DF91CF911F910F91FF900895FA94F80126
:1017F00080818F5F808360E08D2F0E94630BE8CF34
:10180000CF5FF80180818150808361E08D2F0E943D
:10181000630BE4CF0F931F93CF93DF93C62FD42F87
:10182000022FFC0182818823C9F06093C8010E94C5
:10183000ED1D9093C7018093C60180E28C0F883024
:1018400008F050C0C77081E001C0880FCA95EAF760
:10185000DF91CF911F910F910C948F121091C801BD
:10186000161335C08091C6019091C7010E94F91DE1
:10187000883C910560F5C0E2CD0F1D17B9F080E2FC
:10188000810F883040F4177081E001C0880F1A95ED
:10189000EAF70E949612C83048F481E09D2F9770B5
:1018A00001C0880F9A95EAF70E948F12802F0E943C
:1018B0007C12C830B8F4D77081E001C0880FDA9587
:1018C000EAF7DF91CF911F910F910C94961280E26D
:1018D0008C0F883038F4C77081E001C0880FCA953A
:1018E000EAF7EFCFDF91CF911F910F9108959C01FF
:1018F000CB01233F4CE5340769F190F4283DFCE52A
:101900003F0721F1293D4CE5340781F1273D3C4556
:10191000B1F0FC018281882361F11092C801089521
:10192000253FFCE53F07D1F0263F4CE53407D1F0D9
:10193000243F3C4571F727E245EE64EE03C026E202
:1019400041EE61EE0E940A0C80E0089527E245EE28
:1019500065EEF8CF26E241EE60EEF4CF26E241EEEE
:1019600062EEF0CF27E245EE66EEECCF28E241E0F2
:10197000EFCF81E00895CF93DF93EC01FB018281EB
:10198000882309F4C9C0C631FCE5DF07E0F4C230A2
:101990009CE5D907F0F00E94871C909390028093F9
:1019A0008F02C631ECE5DE0720F5C230FCE5DF072B
:1019B00098F480918F02909190020E94951C0E9451
:1019C000571580E006C09E012A5F3C45293031054D
:1019D00010F3DF91CF910895FE01E350FC45809113
:1019E0008F028160E331F10588F4E957F34D0C94DF
:1019F0003D29CA5FDC45C930D105D8F6C656D34D5E
:101A0000FE010C943D2980918F02826080938F02A9
:101A1000D0CF80918F028460F9CF80918F0288604F
:101A2000F5CF80919002816080939002C2CF809127
:101A300090028260F9CF80918F028061E7CF809120
:101A40008F028062E3CF80918F028064DFCF0E949B
:101A5000571580918F028068D9CF80918F028C605A
:101A6000D5CF809190028360DFCF80918F028E7FEF
:101A7000CDCF80918F028D7FC9CF80918F028B7FD8
:101A8000C5CF80918F02877FC1CF809190028E7FDA
:101A9000CBCF809190028D7FC7CF80918F028F7EB8
:101AA000B5CF80918F028F7DB1CF80918F028F7BD8
:101AB000ADCF0E94571580918F028F77A7CF80916D
:101AC0008F02837FA3CF809190028C7FADCF8091D6
:101AD0008F0282FB992790F921E0922790FB82F9EF
:101AE00090FB83F993CF80919002982F90959170FD
:101AF0008E7F892B90FB81F997CF0E94571590918B
:101B00008F02892F97FB87F9805880CF81E00E9450
:101B10000C1D4FCF80E0FBCF81E05BCFCF93DF93F5
:101B2000EB0186319C4511F50E94A91B9A819923EE
:101B300099F08A7A91E009F490E09093C9018111BB
:101B400009C089E20E94841B0E94F81B80E0DF919B
:101B5000CF91089585E3F6CF8091C901811104C02A
:101B600089E20E948B1BF0CF85E3FBCF81E0EFCFB2
:101B70000F931F93CF93DF93CDB7DEB728970FB6A0
:101B8000F894DEBF0FBECDBF80910A018F93809184
:101B900009018F938FE691E09F938F931F9288E0C6
:101BA0008F938E010F5F1F4F1F930F930E94572932
:101BB000C8010E9463060FB6F894DEBF0FBECDBF0A
:101BC00028960FB6F894DEBF0FBECDBFDF91CF9140
:101BD0001F910F910895CF93DF93D82FC92F0E94A3
:101BE000ED1D9093CD018093CC01D093CA01C09399
:101BF000CB01DF91CF9108958091CA019091CB01E3
:101C0000892BE1F08091CC019091CD010E94F91DCA
:101C10002091090130910A012817390780F4809139
:101C2000CA019091CB0192600E9453051092CD01A0
:101C30001092CC011092CB011092CA0108958091AC
:101C4000CA010E947C12F2CF10920B010C94FC0D81
:101C500080910B01882321F010920B010C94FC0D54
:101C600081E080930B0108951F93CF93DF93EC01E4
:101C7000FB011281112309F464C089319C4509F4E8
:101C800056C0CA318CE5D807B0F5C731ECE5DE07A0
:101C900009F43FC08091090190910A010597C8316C
:101CA000FCE5DF07D9F1C933D10508F5CD32D105FF
:101CB00030F4C832D105A8F4C430D105A8F00E9490
:101CC000FC0D80910B01882369F10E94A91B8111F1
:101CD00029C0CE010E94EB0D82E00E94431C10E05F
:101CE00021C0CB32D10559F30E94FC0D1BC0C43674
:101CF000D10529F3F9CFCB318CE5D807D9F0CC3118
:101D0000ECE5DE07D9F0CA31DC4571F70E94280EF8
:101D100009C08091090190910A01059690930A01EA
:101D200080930901812FDF91CF911F9108950E9427
:101D3000B80DF8CF81E080930B01F4CF0E94240E00
:101D4000F1CF0E94FC0D11E0EDCF8EE1489B02C067
:101D50008150E1F7489BFECF0895589880E28A951C
:101D6000F1F7589A0895FC013BE03A95F1F798E0B5
:101D700020E080E031E040E14A95F1F7880F489B90
:101D800002C08160232742E04A95F1F7000040E15C
:101D90004A95F1F7915079F790E19A95F1F799B159
:101DA00032E03A95F1F7000040E14A95F1F7917081
:101DB00092272081920F90830895EF92FF920F93C4
:101DC0001F93CF93DF930F92CDB7DEB719828C01AB
:101DD0007C01E60EF11C0E151F0561F481E099816E
:101DE000911180E00F90DF91CF911F910F91FF90A3
:101DF000EF9008950E94A50ECE0101960E94B30EA9
:101E0000F80181938F01E7CF9093CF018093CE01AA
:101E1000509A589A08959093CF018093CE0150988C
:101E2000589AE89AE9E6F0E080818C7F80830895F3
:101E30006150770B91E001C0990F6A95EAF720E0B5
:101E400031E0911108C0222391F0589A80E28A95DE
:101E5000F1F758980895492F482339F0589A2327C5
:101E600040E24A95F1F79695ECCF5898F9CF5898FB
:101E7000EDCFFF920F931F93CF93DF93EC018C0173
:101E8000060F111DC017D10731F4DF91CF911F91BB
:101E90000F91FF900895F9900E94AD0E68E08F2D8C
:101EA0000E94180FEFCF1F920F920FB60F921124BE
:101EB0002F933F934F935F936F937F938F939F9352
:101EC000AF93BF93CF93DF93EF93FF935898509ABC
:101ED000C091CE01D091CF016D81662321F08E811A
:101EE0009F810E94390F0E94AD0E80E18A95F1F723
:101EF00058985098589A80E18A95F1F76A8166233C
:101F000009F18B819C810E94DD0EE881F981882393
:101F100011F088E001C082E080830E94A50EFF914D
:101F2000EF91DF91CF91BF91AF919F918F917F9171
:101F30006F915F914F913F912F910F900FBE0F9036
:101F40001F901895E881F981E4CFCF93DF93C0917A
:101F5000CE01D091CF01F894509A589885E08A9597
:101F6000F1F700005098589A80E28A95F1F7489B63
:101F70000CC0509A589AE881F98181E08083789466
:101F800081E090E0DF91CF9108956D81662381F02B
:101F90008E819F810E94DD0E81110AC0509A589A4D
:101FA000E881F98182E08083789482E090E0EACF52
:101FB0000E94A50E80E28A95F1F75898509A80E128
:101FC0008A95F1F76A81662321F08B819C810E94BA
:101FD000390F0E94AD0EE881F9811082789490E06B
:101FE00080E0D0CF9093D5018093D4010895E09103
:101FF000D401F091D501309721F00190F081E02DCE
:10200000099480E00895EF92FF920F931F93CF936E
:10201000DF938C01E091D401F091D5013097C1F1AB
:102020000280F381E02D09958091570282FF30C034
:1020300080FF04C087EE94E00E94E103D0E0C0E09E
:1020400081EEE82E84E0F82E8091570280FF0EC0CA
:10205000F801EC0FFD1F80811F928F93FF92EF928A
:102060000E947A040F900F900F900F902196C83025
:10207000D10551F78091570280FF0AC08FED94E09F
:10208000DF91CF911F910F91FF90EF900C94E1039E
:10209000DF91CF911F910F91FF90EF900895DC0198
:1020A000E091D401F091D501309739F082E08C9322
:1020B0000480F581E02DCD01099408952091D2018D
:1020C0003091D3012817390771F09093D301809391
:1020D000D201E091D401F091D501309721F0068032
:1020E000F781E02D099408952091D0013091D1011C
:1020F0002817390771F09093D1018093D001E091B6
:10210000D401F091D501309721F00084F185E02DC4
:102110000994089585B7806885BF85B7806885BFB5
:102120000895089508950C94911008950C949510B5
:102130000E948A100E9492100C9493100C94F50A3D
:102140000E94E41D0E94B8090E943D1E0E94650B7A
:102150000C949610CF93C82F8091570282FF1EC017
:1021600080FF1CC080E095E00E94E103809157024F
:1021700080FF14C01F92CF938BEF94E09F938F93B7
:102180000E947A04809157020F900F900F900F9049
:1021900080FF04C089EF94E00E94E1038C2FCF916F
:1021A0000C94E406BF92CF92DF92EF92FF920F93CE
:1021B0001F93CF93DF9300D000D00F92CDB7DEB73F
:1021C0000E943B0A0E949E10882309F460C087ED9C
:1021D000C82E81E0D82E10E000E0B02E802F0E94A3
:1021E0006709F82EF601E1906F01E81609F449C07D
:1021F0008091570281FD0E946D099E2D9F2580E0F0
:10220000EE24E394292F2E21B9F18983BA82FE208E
:1022100081E009F480E08B830E94ED1D8160782FBE
:102220009D838C8349815A816B818D810E946711C6
:10223000F801E952FE4F8081E826E0820E947E0B81
:102240000E945E200E94F70F9091D601891781F1BC
:102250000E94F70F8093D6010F900F900F900F9070
:102260000F90DF91CF911F910F91FF90EF90DF9032
:10227000CF90BF900C94AA108F5FEE0C863009F0BF
:10228000C1CF0F5F1F4F0A30110509F0A6CF8FEFA6
:1022900089838A831B820E94ED1D8160782F9D8334
:1022A0008C8349815A816B818D810E946711C6CFD1
:1022B0000F900F900F900F900F90DF91CF911F9183
:1022C0000F91FF90EF90DF90CF90BF900895CF9344
:1022D000DF93CDB7DEB72B970FB6F894DEBF0FBEF6
:1022E000CDBF4F83588769877A878B871E8285E0A9
:1022F000FE013796DE01119601900D928A95E1F765
:1023000049815A816B817C818D819E812B960FB68C
:10231000F894DEBF0FBECDBFDF91CF910C94A8170C
:10232000FC01808191810C944E1BCF93C82F882390
:1023300009F48AC08238C1F40E94F70F81FD84C07D
:1023400089E30E94841B0E94F81B2FEF31EE84E08A
:10235000215030408040E1F700C0000089E30E9436
:102360008B1BCF910C94F81B8338A1F40E94F70FBC
:1023700080FD6AC083E50E94841B0E94F81B9FEFCA
:1023800021EE34E0915020403040E1F700C00000E1
:1023900083E5E5CF8438A1F40E94F70F82FD54C095
:1023A00087E40E94841B0E94F81B8FEF91EE24E0CB
:1023B000815090402040E1F700C0000087E4CFCF7B
:1023C0008CEF8C0F813A90F46C2F80910C019091DE
:1023D0000D010E94231D882329F08C2F0E948B1B46
:1023E0000E94F81B8C2F0E94841BBBCF80E28C0FB5
:1023F000883048F4C77081E001C0880FCA95EAF7B9
:102400000E94AC1BAECF8BE58C0F833038F42C2FA1
:102410002452330BC901CF910C945E10E8E5EC0F08
:10242000E73150F4F0E0EE0FFF1FEC58FE4F8081D3
:102430009181CF910C947410C03F30F08C2F0E948A
:10244000EA1ECF910C94D11FCF910895882309F4EF
:1024500052C0823871F40E94F70F81FF4CC089E3AB
:102460000E94841B0E94F81B89E30E948B1B0C9422
:10247000F81B833859F40E94F70F80FF3CC083E5B6
:102480000E94841B0E94F81B83E5EFCF843859F427
:102490000E94F70F82FF2FC087E40E94841B0E94D6
:1024A000F81B87E4E2CF9CEF980F913AF0F290E2AC
:1024B000980F983050F4877091E001C0990F8A9579
:1024C000EAF7892F0E94B21BD2CF9BE5980F933079
:1024D00020F490E080E00C945E1098E5980F97311E
:1024E00020F490E080E00C947410803F20F00E9473
:1024F000521F0C94D11F0895CF93C82F0E9495119D
:10250000C93349F42FEF87EE93E02150804090408B
:10251000E1F700C000008C2FCF910C942612882385
:1025200021F00E94AC1B0C94F81B0895882321F025
:102530000E94B21B0C94F81B0895AF92BF92CF92E9
:10254000DF92EF92FF920F931F93CF93DF9300D010
:1025500000D00F92CDB7DEB76C016D837983FC019B
:10256000058102950F70128111110E94CB1B0E94F0
:10257000A21BE82E882391F01123D1F08981807F5E
:10258000803421F08D81805E883090F082E00E945E
:10259000431C0E94A21B91E0E82EE926A980A29488
:1025A0009FE0A922B12CF501ED55F34D0C943D2986
:1025B000E12CF4CF09810F70F981F07F11F00295C1
:1025C000007F1123B1F0002361F08D81805E88309F
:1025D00018F02D81211109C0802F0E94AC1B0E9490
:1025E000F81B8D810E94951115C0802F0E94BD1B84
:1025F000F6CF8D810E942612002361F08D81805ECE
:10260000883018F04D81411133C0802F0E94B21BD9
:102610000E94F81B58E0A51AB10864E0A616B104A0
:1026200020F40E94F70F0E94E406EE2009F4CCC1CA
:102630000E949E1B80FDC8C1F60112820E94981B59
:102640000E94A319C6010E940B150E94981B0F90AF
:102650000F900F900F900F90DF91CF911F910F91DE
:10266000FF90EF90DF90CF90BF90AF900C94D41973
:10267000802F0E94C31BCCCF59815F70F52E6981DA
:10268000607F603219F0F29480EFF8227D81772329
:1026900069F0713049F1112391F1002351F1F601F4
:1026A000858180FF9ECF8F70858323C0112381F0A9
:1026B000011106C00E94DF1B8F290E948F12AACF32
:1026C0000130C1F70E94DF1B8F290E94E51BA2CFBA
:1026D000011106C00E94EE1B8F2D0E9496129ACF08
:1026E000013009F497CFF6CF112329F0063008F016
:1026F00091CF8F2DE2CF053008F08CCFEDCF0023A6
:1027000059F3FD81F93349F42FEF47EE53E021509F
:1027100040405040E1F700C000008D810E94261229
:1027200079CF898186958695837069F0813009F02B
:1027300071CF8D8199819370111102C090E080E07A
:102740000E94741067CF8D8199819370111102C01E
:1027500090E080E00E945E105DCF8D81112329F012
:102760000E94EA1E0E94D11F55CF0E94521FFACF2D
:102770008981837009F050C011114CCF4D81429571
:1027800046954770440F440F8D818F7090E0B0E004
:10279000A0E0042E04C0880F991FAA1FBB1F0A9433
:1027A000D2F76D8100E010E0980164FF0FC00FE0E8
:1027B00010E020E030E004C0000F111F221F331F83
:1027C0004A95D2F7009510952095309579817695A8
:1027D000769573707D83B901A801482B592B6A2B1C
:1027E0007B2B49835A836B837C835D8169817A81EA
:1027F0008B819C81523051F0533059F0513019F097
:102800000E94FE1807CF0E94D61804CF0E942619F6
:1028100001CF0E94D418FECE8695112311F0898134
:102820008170882309F4F6CE4D8142954695477014
:10283000440F440F8D818F7090E0B0E0A0E0042E33
:1028400004C0880F991FAA1FBB1F0A94D2F76D817D
:1028500000E010E0980164FF0FC00FE010E020E0FE
:1028600030E004C0000F111F221F331F4A95D2F71A
:1028700000951095209530957981769576957370B1
:102880007D83B901A801482B592B6A2B7B2B4983E7
:102890005A836B837C835D8169817A818B819C8182
:1028A000523051F0533059F0513019F00E94621AF1
:1028B000B1CE0E943A1AAECE0E948A1AABCE0E94C6
:1028C0005219A8CE69816F706983112329F0862F70
:1028D0000E94A3198D81F1CE8D810E94961289816B
:1028E0000E94D41997CE7D81723FA1F160F4703FB0
:1028F000E1F0713F41F1112309F445C0011171CE9E
:1029000089818F7124C08D81833F49F1843F99F77C
:10291000112379F199819F719983892F0E94A319BD
:1029200063E089810E942E1C75CE112341F0053091
:1029300008F070CE89818F710E94091A6BCE063023
:1029400008F068CEF7CF89818F71112349F20E9478
:10295000A31960CE89818F711123C9F3C1CF1123CF
:1029600029F089818F710E947E1954CE0E945E19D0
:1029700051CE81E00E94431C023008F44BCE82E02D
:102980000E94431C47CE002361F0ED81E93309F03A
:10299000C4CEFFEF27EE43E0F15020404040E1F786
:1029A000BACE89818F719CCF49814F706D81C601EC
:1029B0000E9454070E9448182DCE49814F706D81A6
:1029C000C6010E94570726CE0F900F900F900F90D0
:1029D0000F90DF91CF911F910F91FF90EF90DF90BB
:1029E000CF90BF90AF9008950F931F93CF93DF9335
:1029F000EC01688179818A810E945A1B8C010E94B6
:102A0000B21A0E94D318B801CE01DF91CF911F9165
:102A10000F910C949D12CF93DF93EC018B819C81DD
:102A2000892B29F08881998189238F3F59F4DF917F
:102A3000CF910895CE010E94F414CE01DF91CF9181
:102A40000C94A205CE010E94FC068111F3CF0E94D6
:102A5000A21B882361F38A81882349F382E0DF91F6
:102A6000CF910C94431C882321F00E94BD1B0C9431
:102A7000F81B0895882321F00E94C31B0C94F81BB7
:102A800008950E94CB1B0E94DC1B0E94F81B0E9431
:102A900078210E94D11F90E080E00E945E1090E0BB
:102AA00080E00C9474100E94921B0C9441150E94BB
:102AB000BA1B0C945315282F892F82958F70903C48
:102AC00080F48A30B0F4843020F4823090F480E0D6
:102AD00008958630E1F781E0283E88F0213FB9F77C
:102AE0000EC08C3011F08F3091F793FB882780F95E
:102AF000089581E0203F39F018F4283E40F708950A
:102B0000243F29F7FCCF08950E944E1B0C945B15BF
:102B1000CF93DF9300D000D00F92CDB7DEB70F90E8
:102B20000F900F900F900F90DF91CF910895CF935A
:102B3000DF9300D000D000D0CDB7DEB726960FB619
:102B4000F894DEBF0FBECDBFDF91CF9108951F93E4
:102B5000CF93DF93E091E20116E08091E3018E13C1
:102B600004C0DF91CF911F910895CE2FD0E01E9F1A
:102B7000F0011124EC51FE4F40815181628173813B
:102B8000848195810E949715FE013196E770E5CF0B
:102B90004091140250911502609116027091170233
:102BA00080911802909119020C9497151F93CF935E
:102BB000DF9380911902807FA9F480911602882307
:102BC00089F08091E201C091E3016091140270915B
:102BD0001502A0911702B0911802D62FD72316E044
:102BE000C81304C0DF91CF911F91089590E0109712
:102BF00011F0DF3F19F401968770F2CF189F900112
:102C0000199F300D1124F901EC51FE4F41814713FA
:102C1000F2CF40814613EFCF42814111ECCF438187
:102C200054814A1B5B0B483C510528F780911902DF
:102C30008F70806180931902F901E751FE4F808106
:102C40008F708061808384E192E00E940B15DF9198
:102C5000CF911F910C94A715AF92BF92CF92DF92A4
:102C6000EF92FF920F931F93CF93DF93CDB7DEB711
:102C70002B970FB6F894DEBF0FBECDBF8C0185E059
:102C8000F801DE01179601900D928A95E1F7F8019F
:102C900040815181E28084E1C82E82E0D82E60918B
:102CA0001702709118026115710509F432C19091F3
:102CB000140220911502822F89238F3F09F429C124
:102CC000A380B480F0901602F501E61BF70BFF20FD
:102CD00009F4EEC080911902382F307FE83CF105ED
:102CE00008F0C0C0311179C0FE2C251323C0941305
:102CF00021C0E1101FC08F708061809319020E9473
:102D0000C815C6010E940B1580911902F801858330
:102D10008F2D2B960FB6F894DEBF0FBECDBFDF917F
:102D2000CF911F910F91FF90EF90DF90CF90BF90C8
:102D3000AF900895AB2829F0842F85238F3F09F0A9
:102D400004C180E0F82FF170DF2EE091E2012091C4
:102D5000E30136E080FD1CC0EE20D1F28091190223
:102D6000816080931902F12CD3CF8E2F90E03E9F8B
:102D7000F0011124EC51FE4F6181651306C06081A2
:102D8000641303C06281E612E7CFFC013196E7705D
:102D9000E213EBCF4F8358878F8198850E944E1B9B
:102DA000292F22952F70903260F0225F2F702230F1
:102DB00078F49F7051F0F8019581907F31F4D12C17
:102DC0000AC09F7011F08823D1F3805E8830B8F379
:102DD000C8010E940B15FD2C9BCF251314C0941322
:102DE00012C0E11010C0F8018583C8010E940B15C4
:102DF00086E0F801A4E1B2E001900D928A95E1F736
:102E00000E94C81585CF4F8358878F8198850E946F
:102E10008415882319F1EE2009F18091190280327E
:102E200070F020911402309115023A8329831B829D
:102E3000BD82AC828E83CE0101960E940B1586E086
:102E4000F801A4E1B2E001900D928A95E1F70E94A9
:102E5000D6150E94C815FF24F3945ACFC8010E94CA
:102E60000B15F9CF311113C07A2DBB86AA866E2DB2
:102E70008B850E94881584E192E00E940B1586E004
:102E8000F60111928A95E9F70E94C8156CCF2513B7
:102E9000BACF9413B8CFE110B6CFF8018583C8013B
:102EA0000E940B1586E0F60111928A95E9F730CF62
:102EB000E83CF10508F5FE2CEE2081F225130BC04D
:102EC000941309C086E0F801A4E1B2E001900D92EC
:102ED0008A95E1F71DCF4F8358878F8198850E948F
:102EE00084158111ACCF8091190281608093190201
:102EF000C8010E940B150CCF7A2DBB86AA866E2DB9
:102F00008B850E94881586E0F60111928A95E9F773
:102F100077CFEE2009F4A2CF4F8358878F81988511
:102F20000E948415F82E882309F498CF86E0F801D2
:102F3000A4E1B2E001900D928A95E1F784E192E07C
:102F40000E9490110E94D6155BCF81E08E25FACEAB
:102F50001F93CF93DF93CDB7DEB72C970FB6F894BE
:102F6000DEBF0FBECDBF4F83588769877A878B87B7
:102F70009C87CE0107960E942C16882369F08A85CB
:102F80009B85892B39F04F815885842F85238F3F6E
:102F900009F077C016E065C086E0FE013796DE01D5
:102FA000119601900D928A95E1F76A857B856115EE
:102FB000710581F35F814885842F85238F3F51F30D
:102FC0002091E30130E0C901019687709927E091D3
:102FD000E201E817190671F40E9457151092E301F7
:102FE0001092E20186E0E4E1F2E0DF011D928A95B1
:102FF000E9F7D0CF59834A837D836C8396E0929F13
:10300000D001939FB00D1124AC51BE4FFE013196FB
:1030100001900D929A95E1F78093E3010E94A71524
:10302000B9CF819FC00111248C519E4F0E942C1654
:103030008823E9F0E091E2011E9FF0011124EC5198
:10304000FE4F4081518162817381848195810E940C
:1030500097158091E20190E00196877099278093FF
:10306000E2018091E2019091E3018913DACF2C967D
:103070000FB6F894DEBF0FBECDBFDF91CF911F9189
:10308000089569857A858B859C850E94971582CFE6
:10309000EF92FF920F931F93CF93DF938C01892BB5
:1030A00089F0F12CEE24E394E8012196F801849153
:1030B000843709F457C0A0F4823009F43EC048F4C4
:1030C0008130D1F0DF91CF911F910F91FF90EF9060
:1030D00008959CEF980F9037A8F70E9495110AC0A9
:1030E000853709F44CC09CE7980F903758F78F77D5
:1030F0000E9426128E0116C00E5F1F4FFE018491A2
:1031000090E2980F983060F48770FE2D01C0FF0F99
:103110008A95EAF78F2F0E94CE1B0E94F81B02C0EF
:103120000E9495118F2D815008F4BECFEFE9FFE08A
:103130003197F1F700C00000F6CF0E5F1F4FFE0180
:10314000849190E2980F983050F48770FE2D01C062
:10315000FF0F8A95EAF78F2F0E94D41BDECF0E94C3
:103160002612E0CF0E5F1F4FFE01C491C150D0F276
:103170008FE99FE00197F1F700C00000F7CF0E5FE5
:103180001F4FFE01F490CECF08950C94C4180E94F6
:10319000C51860934602709347028093480290934B
:1031A00049020C94411508950C94C718CF93DF93EE
:1031B00000D000D0CDB7DEB769837A838B839C8340
:1031C0008091460290914702A0914802B091490235
:1031D00029813A814B815C81282B392B4A2B5B2B2F
:1031E00029833A834B835C83CA01B9010F900F9006
:1031F0000F900F90DF91CF910C94C718CF93DF936E
:1032000000D000D0CDB7DEB769837A838B839C83EF
:103210008091460290914702A0914802B0914902E4
:1032200029813A814B815C81282339234A235B23FE
:1032300029833A834B835C83CA01B9010F900F90B5
:103240000F900F90DF91CF910C94C718CF93DF931D
:1032500000D000D0CDB7DEB769837A838B839C839F
:103260008091460290914702A0914802B091490294
:1032700029813A814B815C81282739274A275B279E
:1032800029833A834B835C83CA01B9010F900F9065
:103290000F900F90DF91CF910C94C7180C94C41825
:1032A0000C944E190E94501960934202709343028D
:1032B00080934402909345020C94411560E070E0C5
:1032C000CB010C945219282F809142029091430215
:1032D000A0914402B09145020097A105B10529F4DF
:1032E00081E0222351F080E0089504C0B695A795AF
:1032F000979587952A95D2F7817008950F931F931C
:10330000CF93DF9300D000D0CDB7DEB741E050E0DF
:1033100060E070E08A019B0104C0000F111F221FB2
:10332000331F8A95D2F709831A832B833C83C90103
:10333000B8010F900F900F900F90DF91CF911F91D8
:103340000F910C9452190F931F93CF93DF9300D0DA
:1033500000D0CDB7DEB741E050E060E070E004C0DF
:10336000440F551F661F771F8A95D2F7809142023E
:1033700090914302A0914402B09145028A019B01C1
:10338000082B192B2A2B3B2B09831A832B833C8375
:10339000C901B8010F900F900F900F90DF91CF915E
:1033A0001F910F910C9452190F931F93CF93DF939A
:1033B00000D000D0CDB7DEB741E050E060E070E073
:1033C00004C0440F551F661F771F8A95D2F740959A
:1033D0005095609570958091420290914302A09122
:1033E0004402B09145028A019B01082319232A2334
:1033F0003B2309831A832B833C83C901B8010F90B7
:103400000F900F900F90DF91CF911F910F910C941F
:1034100052190F931F93CF93DF9300D000D0CDB7F5
:10342000DEB741E050E060E070E004C0440F551F9B
:10343000661F771F8A95D2F78091420290914302CE
:10344000A0914402B09145028A019B0108271927E7
:103450002A273B2709831A832B833C83C901B801A0
:103460000F900F900F900F90DF91CF911F910F91C0
:103470000C945219CF93DF9300D000D0CDB7DEB7B4
:1034800069837A838B839C8380914202909143026B
:10349000A0914402B091450229813A814B815C811F
:1034A000282B392B4A2B5B2B29833A834B835C8354
:1034B000CA01B9010F900F900F900F90DF91CF913B
:1034C0000C945219CF93DF9300D000D0CDB7DEB764
:1034D00069837A838B839C8380914202909143021B
:1034E000A0914402B091450229813A814B815C81CF
:1034F000282339234A235B2329833A834B835C8324
:10350000CA01B9010F900F900F900F90DF91CF91EA
:103510000C945219CF93DF9300D000D0CDB7DEB713
:1035200069837A838B839C838091420290914302CA
:10353000A0914402B091450229813A814B815C817E
:10354000282739274A275B2729833A834B835C83C3
:10355000CA01B9010F900F900F900F90DF91CF919A
:103560000C9452190895292F220FE22FE90FEE0F24
:10357000E80F8E2F877041E001C0440F8A95EAF76B
:10358000E695E695E69585E0E89FF0011124E65E74
:10359000FD4F30E020E070E05191DF011197CB0149
:1035A000022E02C0969587950A94E2F78170819564
:1035B0008527842385278C932F5F3F4F2530310546
:1035C00059F70895292F220FE22FE90FEE0FE80F88
:1035D0009E2F9770E695E695E69585E0E89FF001C9
:1035E0001124E65EFD4F50E040E080E0219130E0A4
:1035F000092E02C0369527950A94E2F721703327E9
:10360000042E01C0220F0A94EAF7822B4F5F5F4F0E
:103610004530510559F70895BF92CF92DF92EF924E
:10362000FF920F931F93CF93DF938C01C0904202C0
:10363000D0904302E0904402F0904502809146020F
:1036400090914702A0914802B0914902C82AD92A14
:10365000EA2AFB2ACFE1D0E0BC2ED701C6010C2E0E
:1036600004C0B695A795979587950A94D2F780FDE3
:103670000EC0219788F7B12C8B2DDF91CF911F9130
:103680000F91FF90EF90DF90CF90BF900895B80119
:103690008C2F0E947407019761F3EECFCF93DF93D5
:1036A000D82FC92F0E940C1B6D2F7C2FDF91CF913B
:1036B0000C9474071F93CF93DF93162FD72F9091FD
:1036C000E101992339F0862F972FDF91CF911F9138
:1036D0000C944E1B882391F0862F972F0E940C1B71
:1036E000C82F682F812F9D2F0E94B31A612F7D2F25
:1036F0008C2FDF91CF911F910C947407862F972FF9
:103700000E94E21AC82FF2CF682F80910C0190918D
:103710000D010C945D1D682F80910C0190910D019D
:103720000C945F1D80910C0190910D010C94611D12
:1037300080914A02859585958595089580914A02E4
:103740008770089590914A02977081E009F480E0B3
:10375000089580915602089590915602982B909367
:1037600056020895982F9095809156028923809350
:103770005602089510925602089590915502982B82
:10378000909355020895982F909580915502892322
:103790008093550208951092550208959091540215
:1037A000982B909354020895982F909580915402ED
:1037B00089238093540208951092540208958091B1
:1037C0004B02089508950C94E21B90914B029817B8
:1037D00021F080934B020C94E31B089580914B02DF
:1037E000882329F010924B0280E00C94E31B08958B
:1037F000E0910C01F0910D01809156028083E091DF
:103800000C01F0910D01808190915502892B8083EC
:10381000E0910C01F0910D01808190915402892B6F
:10382000808390914B02992381F0E0910C01F091FB
:103830000D018081892B808380910C0190910D0175
:103840000E94111D81110E94EE1B80910C0190912C
:103850000D010C94031008950C942B1C98E0899F83
:1038600090011124622B60934A020E94A319809157
:103870004A028595859585950C942C1C10924A02D8
:1038800080E00C942C1C90914A02809589238093AF
:103890004A02282F277071F4282F082E000C330BB2
:1038A0009217130639F08595859585950E94D41950
:1038B0000C943E1C08959093B3018093B201089537
:1038C000829594E0899F900111242C7C86958695A1
:1038D0008373282B30E0C901880F991F8A7A3595A8
:1038E00027952575822B089590E080E00E940B2C8F
:1038F0009C0181E02C3E3E4F09F080E0089582E07B
:1039000090E00C94032C83E090E00C94032CCF9374
:1039100084E090E00E94032CC82F81E290E00E9496
:10392000032C982F8C2FCF910895CF93682FC92FF8
:1039300084E090E00E94112C6C2F81E290E0CF9106
:103940000C94112CAB01BC018FE090E00C94232C63
:10395000AB01BC0183E190E00C94232C60E070E0AB
:10396000CB010C94A81C6CEE7EEF90E080E00E94EE
:103970002F2C60E082E090E00E94112C60E083E058
:1039800090E00E94112C1092460210924702109271
:1039900048021092490260E084E090E00E94112CFD
:1039A00060E081E290E00E94112C60E085E090E010
:1039B0000E94112C60E086E090E00E94112C6FEFD5
:1039C00087E090E00E94112C40E050E0BA0188E0CE
:1039D00090E00E94232C60E08DE090E00E94112C8A
:1039E00040E050E0BA0188E190E00E94232C60E0C2
:1039F00087E190E00E94112C40E050E0BA018CE198
:103A000090E00E94232C60E080E290E00E94112C64
:103A10000C9483040C94B31C682F8EE090E00C94FB
:103A2000112CAC019C012E5F3F4F485F5F4F80E03F
:103A30002417350709F40895F90191919F019923FD
:103A4000B9F38F5FF5CF9C01662351F0FC013296EC
:103A5000285F3F4F8191861729F0E217F307D1F7CE
:103A600080E0089581E008959C01FC0132968FEF7B
:103A700090E04191461751F08F3F19F4411101C078
:103A8000892F9F5F9630A9F78F3F09F40895280F7B
:103A9000311D87FD3A95F901628308959C01FC016F
:103AA0003296285F3F4F8191861303C0DF01119743
:103AB0001C92E217F307B9F708950C94341D0C9487
:103AC0004E1DFC01329686E0DF011D928A95E9F7D2
:103AD0000895089508950C946A1D0E946B1D8091AD
:103AE0009502843049F11092580288E190E020E478
:103AF0000FB6F894A895809360000FBE20936000E5
:103B000080E00E94E4060E946B1D83B7817F846081
:103B100083BF83B7816083BF7894889583B78E7F96
:103B200083BF0FB6F894A895809160008861809358
:103B30006000109260000FBE08950895CF930E9418
:103B4000691D0E943B0A0E949D1DC0E08C2F0E94AF
:103B50006709811105C0CF5FCA30C1F7CF910895C1
:103B600081E0FCCF08950C94B21D0E9457150E946D
:103B7000F70F0E94E4060C94B31D1F921FB61F920C
:103B800011248F939F93AF93BF938091580281111B
:103B900013C080918B0290918C02A0918D02B09104
:103BA0008E024196A11DB11D80938B0290938C02D1
:103BB000A0938D02B0938E02BF91AF919F918F9190
:103BC0001F901FBE1F90189582E084BD93E095BDA5
:103BD0009AEF97BD80936E0008952FB7F894809167
:103BE0008B0290918C02A0918D02B0918E022FBF1A
:103BF00008959C014FB7F89480918B0290918C02AC
:103C0000A0918D02B0918E024FBF821B930B08953D
:103C100078941F921FB61F9211248F939F93AF9396
:103C2000BF9380918B0290918C02A0918D02B091F4
:103C30008E020196A11DB11D80938B0290938C0280
:103C4000A0938D02B0938E02BF91AF919F918F91FF
:103C50001F901FBE1F90189587E797E79093010864
:103C60008093000888E19AE00FB6F894A8958093B5
:103C700060000FBE90936000FFCFCF93DF9300D022
:103C800000D0CDB7DEB70E94741C811102C00E9423
:103C90000A1D0E947F1C809357020E94871C9093EC
:103CA000900280938F020E94831C282F30E050E006
:103CB00040E029833A834B835C83CA01B9010F90AA
:103CC0000F900F900F90DF91CF910C94D4188091AA
:103CD000600280FF12C06091130185E0689FB0010F
:103CE0001124759567957595679560387105A8F5E8
:103CF00061157105A1F1862F089581FF09C06091BA
:103D0000130185E0689FB001112475956795EDCF8B
:103D10006091130182FD0AC080915F028823D1F077
:103D20009091120160911301891728F085E0689F36
:103D3000B0011124DACF869FB001112485E0869F5F
:103D40009001879F300D1124692F70E0C9010E94F6
:103D50002929CBCF65E070E0CECF8FE7089581E0D1
:103D600008958091600280FF0CC060910F0170E0A7
:103D700075956795759567956115710549F1862F5C
:103D8000089581FF06C060910F0170E075956795F9
:103D9000F3CF60910F0182FD0BC090915F029923D8
:103DA000A1F060910E0180910F01961738F0682FF5
:103DB00070E06038710500F38FE70895899FC001B6
:103DC000112470E00E942929F4CF61E070E0D7CF80
:103DD00081E00895803F31F40E94671E81958093B1
:103DE00064020895813F19F40E94671EF8CF823F54
:103DF00031F40E94671E8195809363020895833F8A
:103E000019F40E94671EF8CF893F29F40E94B11E61
:103E10008093650208958A3F21F40E94B11E819526
:103E2000F7CF8B3F31F40E94B11E819580936602DB
:103E300008958C3F19F40E94B11EF8CF843F31F4ED
:103E4000809162028160809362020895853F21F42F
:103E5000809162028260F7CF863F21F480916202F6
:103E60008460F1CF873F21F4809162028860EBCFBC
:103E7000883F21F4809162028061E5CF8D3F31F46B
:103E80008091600281608093600208958E3F21F4EA
:103E9000809160028260F7CF8F3FB9F78091600216
:103EA0008460F1CF90916302803F41F4809164027D
:103EB00087FD10926402992371F00895813F29F4DF
:103EC000809164021816ACF3F6CF823F81F497FF1D
:103ED000F2CF109263028091640290916502892B67
:103EE00090916602892B49F710925F020895833FF3
:103EF00019F4191674F3DFCF893F39F48091650204
:103F00001816CCF610926502D6CF8A3F29F480911C
:103F1000650287FFD0CFF6CF8B3F39F480916602E0
:103F200087FFC9CF10926602C6CF8C3F29F48091DB
:103F300066021816BCF3BFCF843F31F48091620251
:103F40008E7F80936202B7CF853F21F48091620219
:103F50008D7FF7CF863F21F4809162028B7FF1CF76
:103F6000873F21F480916202877FEBCF883F21F465
:103F7000809162028F7EE5CF8D3F31F480916002A7
:103F80008E7F8093600297CF8E3F21F480916002F4
:103F90008D7FF7CF8F3F09F08ECF809160028B7FAE
:103FA000F0CF8091570283FF7EC08AE395E00E94A4
:103FB000E103809162021F928F9385E395E09F93C6
:103FC0008F930E947A0483E395E00E94E10380913D
:103FD0006302282F082E000C330B3F938F9380E34E
:103FE00095E09F938F930E947A048EE295E00E9461
:103FF000E10380916402282F082E000C330B3F93BD
:104000008F938BE295E09F938F930E947A0489E2CD
:1040100095E00E94E10380916502282F082E000C94
:10402000330B3F938F9386E295E09F938F930E948B
:104030007A0484E295E00E94E10380916602282FD1
:10404000082E000C330B3F938F9381E295E09F93F2
:104050008F930E947A048EE195E00E94E1038091A3
:104060005F021F928F938BE195E09F938F930E9445
:104070007A0489E195E00E94E103809160021F9239
:104080008F9386E195E09F938F930E947A0483E15A
:1040900095E00E94E1038DB79EB74C960FB6F89459
:1040A0009EBF0FBE8DBF81E692E00E944F100E941E
:1040B000ED1D90935E0280935D020895CF93DF9390
:1040C00000D000D000D0CDB7DEB786E0E1E6F2E068
:1040D000DE01119601900D928A95E1F780916302BD
:1040E00090916402892B81F080915B0290915C0237
:1040F0000E94F91D9C0180915F02882331F190910B
:1041000014019217130670F1809165029091660276
:10411000892B91F08091590290915A020E94F91DC9
:104120009C0180915F02882309F478C0909110016E
:104130009217130608F480C026960FB6F894DEBFD7
:104140000FBECDBFDF91CF910895409115019AE048
:10415000499FA001112442175307B0F68F5F809347
:104160005F0202C08F3FD1F7109265021092660283
:1041700080916302181624F40E94671E80936302E4
:104180008091630287FF05C00E94671E819580931E
:10419000630280916402181624F40E94671E8093C3
:1041A00064028091640287FF05C00E94671E8195AA
:1041B00080936402309163023323A1F02091640262
:1041C000222381F045EB3403C00111249923F1F03F
:1041D0009093630245EB2403900111243323D1F023
:1041E000309364020E94D11F80915D0290915E0223
:1041F00090935C0280935B0286E0FE013196A1E61B
:10420000B2E001900D928A95E1F77ECF81E0809334
:104210006302E0CF81E080936402E4CF409111011A
:104220009AE0499FA00111244217530708F084CF58
:104230008F5F80935F0202C08F3FD1F710926302BD
:104240001092640280916502181624F40E94B11E37
:10425000809365028091650287FF05C00E94B11EB0
:1042600081958093650280916602181624F40E945D
:10427000B11E809366028091660287FF05C00E948E
:10428000B11E819580936602309165023323A1F0BF
:1042900020916602222381F045EB3403C0011124F2
:1042A0009923F1F09093650245EB240390011124CA
:1042B0003323D1F0309366020E94D11F80915D02BA
:1042C00090915E0290935A028093590286E0FE011B
:1042D0003196A1E6B2E001900D928A95E1F72CCFDC
:1042E00081E080936502E0CF81E080936602E4CFB5
:1042F00086E0E1E6F2E0DF011D928A95E9F710928F
:104300005F021092600208958091720208959FB733
:10431000F894109269029FBF90919502943009F031
:1043200048C02091E9002F703091EC00932F9170DC
:1043300030FD90E8922B23E02093E9002091EB00E0
:1043400020FF34C02091EE0027FF30C0209167028B
:10435000222321F02091E80025FF28C01092670257
:1043600026E03091E80035FF14C08093F100809181
:10437000E80085FD27C08091E80080FFFCCF809198
:10438000E8008E778093E8009F709093E90080E0CA
:10439000089530919502343049F43091EB0035FDA9
:1043A00005C0215041F481E0809367029F70909393
:1043B000E9008FEF0895EFE9FFE03197F1F700C0D2
:1043C0000000CFCF8FB7F89421E0209369028FBF10
:1043D000DBCFCF93DF9300D00F92CDB7DEB79091B4
:1043E0009502943019F589836A837B8382E08093F8
:1043F000E9008FEF9091E800815095FD06C095EDA2
:104400009A95F1F700008111F5CF8091E80085FFC2
:104410000DC050E040E063E070E0CE0101960E94E4
:1044200096248091E8008E778093E8000F900F909B
:104430000F90DF91CF910895CF93DF93D82FC92F9D
:104440000E947924823011F0843039F46D2F7C2F52
:1044500084E0DF91CF910C94E921DF91CF91089511
:10446000BC0183E00C94E921CF93DF93D82FC92FAF
:104470000E947924823011F0843001F582E080932B
:10448000E9008FEF9091E800815095FD06C095ED11
:104490009A95F1F700008111F5CF8091E80085FF32
:1044A0000DC050E040E066E070E08D2F9C2F0E9430
:1044B00096248091E8008E778093E800DF91CF9179
:1044C0000895CF93DF93D82FC92F0E94792482308B
:1044D00011F0843049F581E08093E9008FEF9091ED
:1044E000E800815095FD06C095ED9A95F1F7000022
:1044F0008111F5CF8091E80085FF16C050E040E0C3
:1045000068E070E08D2F9C2F0E9496248091E80037
:104510008E778093E80088E0ED2FFC2FAAE6B2E0CA
:1045200001900D928A95E1F7DF91CF91089582E88D
:1045300095E00E94E10380919402811109C00E94DC
:104540001E260E947B268091E20084608093E20018
:1045500008958EE795E00E94E10310929402089579
:104560008AE795E00C94E10386E795E00C94E1037B
:1045700082E795E00E94E1030C94B51D209168024A
:104580002F5F822F62E30E941D29992319F0209347
:104590006802089510926802809169028823F1F000
:1045A000809195028430C1F49091E9009F70209130
:1045B000EC00822F817020FD80E8892B93E090939E
:1045C000E9009091EB0090FF04C09091EE0097FD00
:1045D00008C08F708093E9001092690208951092CC
:1045E000F1009091E80095FDFACF9091E80090FFDE
:1045F000F0CF9091E8009E779093E800EACF42E0F8
:1046000061EC81E00E949A2542E261EC82E00E9426
:104610009A2542E261EC83E00C949A2580919702FE
:10462000893089F148F4823009F49DC0833009F45F
:1046300058C0813041F008958A3009F484C08B302D
:1046400009F46AC0089580919602813A09F048C041
:104650008091E800877F8093E80080919A02909192
:104660009B02892B61F468E08AE692E070E00E9488
:10467000E5248091E8008B778093E800089560E05E
:1046800090E080E0F3CF80919602813249F58091ED
:104690009A0290919B02029718F58091E800877F1B
:1046A0008093E8008091E80082FF16C09091F300AB
:1046B0008091F200029729F48091F1008B7F813084
:1046C00021F48091F100809372028091E8008B7751
:1046D0008093E8000C94CE25809195028111E2CF61
:1046E000089580919602813AD9F780919A0290912B
:1046F0009B02892BA9F78091E800877F8093E800CF
:104700008091E80080FFFCCF809120018093F10030
:104710008091E8008E77DCCF80919602813201F79C
:1047200080919A0290919B02892BD1F68091E800AA
:10473000877F8093E8000E94CE2580919802809325
:1047400020010C94571580919602813249F6809190
:10475000E800877F8093E8000E94CE25809199022F
:1047600080937302089580919602813A09F0B8CF40
:104770008091E800877F8093E8008091E80080FFC7
:10478000FCCF80917302C2CF84B7877F84BF0FB6FE
:10479000F894A895809160008861809360001092E1
:1047A00060000FBE80E890E00FB6F894809361003F
:1047B000909361000FBE0E9498100E941E260E94D6
:1047C0007B268091E20084608093E20087E891E29A
:1047D0000E945B1C78940E9402290E94A01086E12E
:1047E00091E00E94F20F81E695E00E94E103809142
:1047F0009502853019F00E94D210F9CF8DE595E031
:104800000E94E1030E946D1D80919302882379F339
:104810000E949E1D882359F30E948024E8CF0C94A7
:104820001124FC01CB01DA012F2F3327233031056E
:10483000D1F070F42130310509F44EC02230310539
:1048400069F48BE590E028EC35E02D933C930895D6
:104850002132310521F12232310571F190E080E001
:1048600030E020E0F2CFCF019927E230A9F0833089
:10487000910550F4009769F0E4EBF5E0019771F7CA
:10488000849190E09F01E1CFE6E8F5E00397C1F362
:10489000E5CFE4ECF5E0F4CFECE8F5E0F1CF633000
:1048A0007105E0F6880F991FFC01E555FE4F208148
:1048B000318189E090E0C9CF6330710578F6FB0162
:1048C000EE0FFF1FEB55FE4F208131818E559E4F1D
:1048D000FC01808190E0B9CF82E190E023E236E0F4
:1048E000B4CF80919502843011F482E0089581E084
:1048F000089580917402811102C00C94712408956E
:1049000080E189BD82E189BD09B400FEFDCF8091BF
:10491000D8008F7D8093D8008091E00082608093E2
:10492000E0008091E00081FDFCCF0895AF92BF923E
:10493000CF92DF92FF920F931F93CF93DF936C017F
:10494000EB018A010E94ED25F82E811123C001158B
:10495000110539F0F80180819181C81BD90BC80E6F
:10496000D91EB12CA12C2097A9F08091E80085FDDB
:1049700022C08091E8008E778093E8000115110530
:10498000A1F0F80180819181A80EB91EB182A082A8
:1049900085E0F82E8F2DDF91CF911F910F91FF9021
:1049A000DF90CF90BF90AF9008950E94ED258823AF
:1049B000D1F2F82EEFCFF60181916F018093F100D3
:1049C0002197FFEFAF1ABF0ACECFFC01CB01209198
:1049D0009C0230919D022617370790F0009729F42A
:1049E0002091E8002E772093E80040E0009751F4F2
:1049F000411108C08091E80082FF31C080E0089535
:104A0000C901F3CF209195022223A9F12530A9F104
:104A10002091E80023FD2DC02091E80022FDEACF7F
:104A20002091E80020FFE2CF3091F3002091F200C6
:104A3000009719F02830310558F041E02830310551
:104A400009F040E02091E8002E772093E800CECFD7
:104A500041914093F10001972F5F3F4FE9CF809143
:104A60009502882341F0853041F08091E80083FF72
:104A7000C1CF81E0089582E0089583E00895FC01AC
:104A8000CB0120919C0230919D022617370790F0B0
:104A9000009729F42091E8002E772093E80040E069
:104AA000009751F4411108C08091E80082FF32C0A4
:104AB00080E00895C901F3CF209195022223B1F13E
:104AC0002530B1F12091E80023FD2EC02091E800AF
:104AD00022FDEACF2091E80020FFE2CF3091F300E1
:104AE0002091F200009719F02830310558F041E08C
:104AF0002830310509F040E02091E8002E7720931E
:104B0000E800CECF44914093F100319601972F5F9A
:104B10003F4FE8CF80919502882341F0853041F0E6
:104B20008091E80083FFC0CF81E0089582E008957E
:104B300083E00895982F973028F08F708093E900D4
:104B400081E008959093E900242F762F50E0981784
:104B500031F07091EC002091ED005091F00021FDBA
:104B600002C09F5FE8CF3091EB003E7F3093EB00B7
:104B70003091ED003D7F3093ED003091EB003160DE
:104B80003093EB007093EC002093ED005093F00015
:104B90002091EE0027FDE5CF80E0089580919602F8
:104BA00087FF13C08091E80082FF06C08091E80073
:104BB0008B778093E80004C0809195028111F2CF39
:104BC0000895809195028823D9F38091E80080FFB1
:104BD000F8CF8091E8008E77ECCF2091E4003091FF
:104BE000E50095E6A9012091EC00822F817020FF5D
:104BF00006C08091E80080FF06C080E00895209103
:104C0000E80022FD1AC080919502882389F0853042
:104C100089F08091EB0085FD0FC02091E400309178
:104C2000E50042175307F9F29150E1F684E0089548
:104C300082E0089583E0089581E008950E948C2623
:104C40000E949426E0EEF0E0808181608083E8EDB0
:104C5000F0E080818F77808319BCA7EDB0E08C9164
:104C60008E7F8C9380818F7E808310929402089532
:104C70000F931F93CF93DF930E948C260E9494265C
:104C8000C8EDD0E088818F778883888180688883A9
:104C900088818F7D888319BC1092950210929102B1
:104CA000109293021092920200EE10E0F8018081BF
:104CB0008B7F808388818160888342E060E080E030
:104CC0000E949A25E1EEF0E080818E7F8083E2EE03
:104CD000F0E0808181608083808188608083F8013A
:104CE00080818E7F8083888180618883DF91CF91EE
:104CF0001F910F910895E8EDF0E080818F7E808311
:104D0000E7EDF0E080818160808384E082BF81E014
:104D1000809394020C943826E8EDF0E080818E7F39
:104D200080831092E20008951092DA001092E10060
:104D300008951F920F920FB60F9211242F933F9355
:104D40004F935F936F937F938F939F93AF93BF9393
:104D5000EF93FF938091E10082FF0BC08091E2000E
:104D600082FF07C08091E1008B7F8093E1000E9469
:104D7000BE228091DA0080FF19C08091D80080FFA8
:104D800015C08091DA008E7F8093DA008091D9007F
:104D900080FF94C080E189BD82E189BD09B400FE35
:104DA000FDCF81E0809395020E9497228091E100DF
:104DB00080FF19C08091E20080FF15C08091E20061
:104DC0008E7F8093E2008091E20080618093E20018
:104DD0008091D80080628093D80019BC85E08093D0
:104DE00095020E94B4228091E10084FF29C0809145
:104DF000E20084FF25C080E189BD82E189BD09B45C
:104E000000FEFDCF8091D8008F7D8093D8008091E7
:104E1000E1008F7E8093E1008091E2008F7E80939D
:104E2000E2008091E20081608093E2008091910233
:104E3000882309F449C084E0809395020E94B82237
:104E40008091E10083FF29C08091E20083FF25C0AB
:104E50008091E100877F8093E10082E0809395025A
:104E6000109291028091E1008E7F8093E100809109
:104E7000E2008E7F8093E2008091E2008061809367
:104E8000E20042E060E080E00E949A258091F0001C
:104E900088608093F0000E94B022FF91EF91BF9153
:104EA000AF919F918F917F916F915F914F913F91C2
:104EB0002F910F900FBE0F901F90189519BC109254
:104EC00095020E94A92272CF8091E30087FD02C063
:104ED00081E0B2CF83E0B0CF1F920F920FB60F9256
:104EE00011242F933F934F935F936F937F938F93EF
:104EF0009F93AF93BF93CF93DF93EF93FF93D091A3
:104F0000E900DF708091EC00C82FC17080FDC0E81F
:104F10001092E9008091F000877F8093F0007894F0
:104F20000E94B0271092E9008091F0008860809381
:104F3000F000CD2BCF70C093E900FF91EF91DF918E
:104F4000CF91BF91AF919F918F917F916F915F9121
:104F50004F913F912F910F900FBE0F901F9018957A
:104F60001F93CF93DF93CDB7DEB7AA970FB6F89410
:104F7000DEBF0FBECDBF86E992E0FC010196209115
:104F8000F100208322E08E399207B9F70E940E23A8
:104F90008091E80083FF1EC1809196029091970254
:104FA0009A3008F017C1E92FF0E0ED54F34D0C945E
:104FB0003D29803899F0823809F00CC180919A021D
:104FC0008F70873008F006C18093E9008091EB0074
:104FD00085FB882780F91092E90006C08091920233
:104FE00090919302911182609091E800977F909345
:104FF000E8008093F1001092F1008091E8008E7734
:10500000E5C0882309F4D3C0823009F0E3C0809161
:1050100098028111D6C080919A028F702FEF280FCD
:10502000263008F0D7C08093E9002091EB0020FFE4
:10503000C8C0933031F48091EB0080628093EB0024
:10504000C0C09091EB0090619093EB0021E030E0C4
:1050500001C0220F8A95EAF72093EA001092EA0035
:105060008091EB008860EACF8111B4C01091980262
:105070001F778091E3008078812B8093E3008091FB
:10508000E800877F8093E8000E94CE258091E800A9
:1050900080FFFCCF8091E30080688093E30082E092
:1050A000111183E08093950295C08058823008F0FA
:1050B00091C080919802909199028C3D23E09207D3
:1050C000A1F583E08A838AE289834FB7F894DE01F1
:1050D000139620E03EE051E2E32FF0E050935700BA
:1050E000E49120FF03C0E295EF703F5FEF708E2FD9
:1050F00090E0EA30C0F0C7968D939D932F5F2431E6
:1051000059F74FBF8091E800877F8093E8006AE2FB
:1051100070E0CE0101960E94E5248091E8008B7733
:105120008093E80057C0C096E7CF60919A027091D3
:105130009B02AE014F5F5F4F0E940F24BC01892B81
:1051400009F448C08091E800877F8093E800898156
:105150009A810E943F25E1CF8038E1F58091E800F7
:10516000877F8093E800809191028093F10045CF82
:10517000811130C090919802923060F58091E800E2
:10518000877F8093E800909391020E94CE258091C2
:105190009102882311F084E005C08091E30087FD2F
:1051A000FACF81E0809395020E94FF2213C0809184
:1051B0009802813079F481E0933009F080E08093A7
:1051C00093021092E9008091E800877F8093E800C5
:1051D0000E94CE258091E80083FF0AC08091E800FC
:1051E000877F8093E8008091EB0080628093EB00E2
:1051F000AA960FB6F894DEBF0FBECDBFDF91CF9158
:105200001F910895CF93809195028823A1F0C091BA
:10521000E900CF709091EC00892F817090FD80E8BB
:10522000C82B1092E9008091E80083FD0E94B0270E
:10523000CF70C093E900CF910895991B79E004C025
:10524000991F961708F0961B881F7A95C9F78095C5
:10525000089597FB072E16F4009407D077FD09D028
:105260000E94432907FC05D03EF4909581959F4FFD
:105270000895709561957F4F0895EE0FFF1F05907B
:10528000F491E02D0994AA1BBB1B51E107C0AA1F92
:10529000BB1FA617B70710F0A61BB70B881F991FD7
:1052A0005A95A9F780959095BC01CD010895AEE07F
:1052B000B0E0EDE5F9E20C94532C0D891E898F893D
:1052C000988D26E02C831A83098397FF02C080E023
:1052D00090E801979E838D83AE01455E5F4F698D97
:1052E0007A8DCE0101960E9487294D815E8157FDFE
:1052F0000AC02F813885421753070CF49A01020F18
:10530000131FF80110822E96E4E00C946F2CAFE08E
:10531000B0E0EDE8F9E20C94452C7C013B018A01F8
:10532000DC0117961C921E92169713968C9181FFA2
:10533000C3C19AE0292EFE0131964F01D701139681
:105340009C91F30193FD859193FF81913F01882307
:1053500009F448C1853239F493FD859193FF819119
:105360003F01853229F4B70190E00E94752BE6CF0A
:10537000B12C412C512CBFE1B51538F08B3209F11D
:1053800088F4803201F1833221F157FC3AC020EDDC
:10539000280F2A3040F556FE1FC0B29C200D112464
:1053A000B22E06C08D3291F0803379F7689450F8B0
:1053B000F30193FD859193FF81913F018111DBCF33
:1053C00020C0689451F8689452F8F2CF689453F86A
:1053D000EFCF689454F8ECCF429C200D1124422E5C
:1053E000689455F8E5CF8E3229F456FCFBC06894DA
:1053F00056F8DECF8C3619F4689457F8D9CF883632
:10540000B9F2982F9F7D95549330C0F08336A1F167
:105410008337C1F1833509F05BC0D801CD90DD90B1
:105420008D016B2D70E056FC02C06FEF7FEFC6015F
:105430000E945F2B5C01689457F80AC00C5F1F4FF5
:10544000EFE3E983AA24A394B12C6401E89457F80C
:1054500053FC04C04A141B0409F018F5342CA114A1
:10546000B10431F5332009F469CFB70180E290E04F
:105470000E94752B3A94F6CFD8018C9189830E5FE8
:105480001F4FE0CFF801C190D1908F016B2D70E0DC
:1054900056FC02C06FEF7FEFC6010E946A2B5C01D1
:1054A000D5CFB70180E290E00E94752B4A94D2CF0D
:1054B000F60157FC859157FE81916F01B70190E08D
:1054C0000E94752B31103A94B1E0AB1AB108C7CFE6
:1054D000843619F0893609F074C0F80157FE6AC0A5
:1054E00061917191819191918F01E52DEF76DE2E81
:1054F00097FF09C090958095709561957F4F8F4F6C
:105500009F4F6894D7F82AE030E0A4010E94A52BB1
:10551000C82EC818AC2C5D2CD6FE0CC0E89450F8F0
:10552000CB1440F4D4FE05C0D2FC03C05D2D5E7EDA
:10553000552EAB2C54FE98C0FE01EC0DF11D808160
:10554000803309F08AC0652D697E562E752D7870DE
:10555000372E53FC98C050FE92C0BC2CA41418F4F3
:105560004C0CB42CBA1854FE94C0B70180E390E000
:105570000E94752B52FE09C088E790E051FE02C0E0
:1055800088E590E0B7010E94752BCB1408F48DC01C
:10559000CA94D12C8FEFC81AD80AC80CD91CD601CE
:1055A0008E916D01B70190E00E94752B8C149D04C3
:1055B000B1F758CF61917191072E000C880B990BB0
:1055C00093CFD52CE894D4F82AE030E0853739F130
:1055D000F52DF97FDF2E8037A9F058F48835A9F032
:1055E0008F36D9F0F701868197812F96E2E10C94EE
:1055F000612C8837B9F7D4FE02C06894D2F820E154
:1056000030E00DC06894D4F8F6CF54FE03C02F2FBD
:105610002660D22E20E132E002C028E030E0F8011E
:10562000D7FE15C041915191619171914C875D8771
:105630006E877F878F01A4016C857D858E859F8510
:105640000E94A52BC82EC818E894D7F863CF819183
:105650009191AC0170E060E0E9CF52FC02C0A394EC
:1056600075CFA394A39472CF852D867809F46ECF5D
:10567000F6CFB70180E290E00E94752BA394A414AA
:10568000C0F3312C70CF342C3A18A41408F46BCF2B
:10569000F8CF852D867809F478CF8BE251FE80E231
:1056A00057FC8DE2B70190E06ECFB70180E390E048
:1056B0000E94752BBA9469CF8FEF9FEF96CFFC01B4
:1056C0000590615070400110D8F7809590958E0F2D
:1056D0009F1F0895FC016150704001900110D8F7A0
:1056E000809590958E0F9F1F08950F931F93CF93D2
:1056F000DF93182F092FEB018B8181FD09C01FEF6C
:105700000FEF812F902FDF91CF911F910F9108956F
:1057100082FF14C02E813F818C819D81281739071B
:105720003CF4E881F981CF01019699838883108345
:105730008E819F8101969F838E83E3CFE885F985D3
:10574000812F0995892BA1F3DACFFA01AA272830F6
:1057500051F1203181F1E8946F936E7F6E5F7F4F3E
:105760008F4F9F4FAF4FB1E03ED0B4E03CD0670FBA
:10577000781F891F9A1FA11D680F791F8A1F911D0D
:10578000A11D6A0F711D811D911DA11D20D009F45D
:1057900068943F912AE0269F11243019305D31939F
:1057A000DEF6CF010895462F4770405D4193B3E088
:1057B0000FD0C9F7F6CF462F4F70405D4A3318F02F
:1057C000495D31FD4052419302D0A9F7EACFB4E0E0
:1057D000A6959795879577956795BA95C9F7009798
:1057E0006105710508959B01AC010A2E0694579539
:1057F000479537952795BA95C9F7620F731F841F90
:10580000951FA01D0895F999FECF92BD81BDF89A0C
:10581000992780B50895A8E1B0E042E050E00C94EB
:10582000372C262FF999FECF92BD81BDF89A0197AA
:1058300000B4021639F01FBA20BD0FB6F894FA9AD8
:10584000F99A0FBE08950396272F0E94122C0E94EA
:10585000112C252F0E94122C242F0C94122C01960F
:10586000272F0E94122C0C94112CDC01CB01FC017F
:10587000F999FECF06C0F2BDE1BDF89A319600B4A9
:105880000D9241505040B8F708952F923F924F9299
:105890005F926F927F928F929F92AF92BF92CF92C0
:1058A000DF92EF92FF920F931F93CF93DF93CDB7C9
:1058B000DEB7CA1BDB0B0FB6F894DEBF0FBECDBF41
:1058C00009942A88398848885F846E847D848C8412
:1058D0009B84AA84B984C884DF80EE80FD800C811B
:1058E0001B81AA81B981CE0FD11D0FB6F894DEBFFE
:1058F0000FBECDBFED010895F894FFCF97049F042C
:10590000A404A904AE04B304B804BD04C204030D86
:10591000090D0D0D1B0D1F0D230D270D2D0D350D23
:10592000390D3D0D410D4D0D510D550D590D5F0DAD
:105930007D0D670D110D170D450D490D310D630DD1
:10594000730D860D8A0DDA12DA123C133C13911393
:10595000AD130A130A13B813621473147314D41416
:105960000A130A13DD14D9270128EA280128EA2896
:0A59700034285528EA28AC28B8288E
:10597A0001B90100BA0106BA019600014C020F2AC8
:10598A00641E1402100A84216122342230221C224D
:10599A0001E200E900EA00B500B600B700CD0083D5
:1059AA0001CC008A019201940121022302240225DA
:1059BA0002260227022A02B300B4006F007000F622
:1059CA00F73133323697C634929400000000000053
:1059DA00FF0100010000FFFF0000010001FF000AB3
:1059EA0025640A00E200E900EA00B500B600B70043
:1059FA00CD008301CC008A01920194012102230285
:105A0A0024022502260227022A02B300B4006F00EC
:105A1A007000408122D80657063506DA05F3050CD0
:025A2A00060074
:00000001FF
